{
	"testContract.sol": {
		"testContract": {
			"abi": [
				{
					"inputs": [],
					"stateMutability": "nonpayable",
					"type": "constructor"
				},
				{
					"inputs": [
						{
							"internalType": "address",
							"name": "_lead",
							"type": "address"
						}
					],
					"name": "fireLeader",
					"outputs": [],
					"stateMutability": "nonpayable",
					"type": "function"
				},
				{
					"inputs": [],
					"name": "getTrustedForwarder",
					"outputs": [
						{
							"internalType": "address",
							"name": "forwarder",
							"type": "address"
						}
					],
					"stateMutability": "view",
					"type": "function"
				},
				{
					"inputs": [
						{
							"internalType": "address",
							"name": "_lead",
							"type": "address"
						}
					],
					"name": "hireLeader",
					"outputs": [],
					"stateMutability": "nonpayable",
					"type": "function"
				},
				{
					"inputs": [
						{
							"internalType": "address",
							"name": "forwarder",
							"type": "address"
						}
					],
					"name": "isTrustedForwarder",
					"outputs": [
						{
							"internalType": "bool",
							"name": "",
							"type": "bool"
						}
					],
					"stateMutability": "view",
					"type": "function"
				},
				{
					"inputs": [],
					"name": "lead",
					"outputs": [
						{
							"internalType": "address",
							"name": "",
							"type": "address"
						}
					],
					"stateMutability": "view",
					"type": "function"
				}
			],
			"devdoc": {
				"kind": "dev",
				"methods": {
					"getTrustedForwarder()": {
						"returns": {
							"forwarder": "The address of the Forwarder contract that is being used."
						}
					},
					"isTrustedForwarder(address)": {
						"params": {
							"forwarder": "The address of the Forwarder contract that is being used."
						},
						"returns": {
							"_0": "isTrustedForwarder `true` if the Forwarder is trusted to forward relayed transactions by this Recipient."
						}
					}
				},
				"version": 1
			},
			"evm": {
				"assembly": "    /* \"testContract.sol\":140:484  contract testContract is ERC2771Recipient {\r... */\n  mstore(0x40, 0x80)\n    /* \"testContract.sol\":191:289  constructor() {\r... */\n  callvalue\n  dup1\n  iszero\n  tag_1\n  jumpi\n  0x00\n  dup1\n  revert\ntag_1:\n  pop\n    /* \"testContract.sol\":216:281  _setTrustedForwarder(0xB2b5841DBeF766d4b521221732F9B618fCf34A87 ) */\n  tag_4\n    /* \"testContract.sol\":237:279  0xB2b5841DBeF766d4b521221732F9B618fCf34A87 */\n  0xb2b5841dbef766d4b521221732f9b618fcf34a87\n    /* \"testContract.sol\":216:236  _setTrustedForwarder */\n  shl(0x20, tag_5)\n    /* \"testContract.sol\":216:281  _setTrustedForwarder(0xB2b5841DBeF766d4b521221732F9B618fCf34A87 ) */\n  0x20\n  shr\n  jump\t// in\ntag_4:\n    /* \"testContract.sol\":140:484  contract testContract is ERC2771Recipient {\r... */\n  jump(tag_6)\n    /* \"@opengsn/contracts/src/ERC2771Recipient.sol\":1143:1249  function _setTrustedForwarder(address _forwarder) internal {... */\ntag_5:\n    /* \"@opengsn/contracts/src/ERC2771Recipient.sol\":1232:1242  _forwarder */\n  dup1\n    /* \"@opengsn/contracts/src/ERC2771Recipient.sol\":1212:1229  _trustedForwarder */\n  0x00\n  dup1\n    /* \"@opengsn/contracts/src/ERC2771Recipient.sol\":1212:1242  _trustedForwarder = _forwarder */\n  0x0100\n  exp\n  dup2\n  sload\n  dup2\n  0xffffffffffffffffffffffffffffffffffffffff\n  mul\n  not\n  and\n  swap1\n  dup4\n  0xffffffffffffffffffffffffffffffffffffffff\n  and\n  mul\n  or\n  swap1\n  sstore\n  pop\n    /* \"@opengsn/contracts/src/ERC2771Recipient.sol\":1143:1249  function _setTrustedForwarder(address _forwarder) internal {... */\n  pop\n  jump\t// out\n    /* \"testContract.sol\":140:484  contract testContract is ERC2771Recipient {\r... */\ntag_6:\n  dataSize(sub_0)\n  dup1\n  dataOffset(sub_0)\n  0x00\n  codecopy\n  0x00\n  return\nstop\n\nsub_0: assembly {\n        /* \"testContract.sol\":140:484  contract testContract is ERC2771Recipient {\r... */\n      mstore(0x40, 0x80)\n      callvalue\n      dup1\n      iszero\n      tag_1\n      jumpi\n      0x00\n      dup1\n      revert\n    tag_1:\n      pop\n      jumpi(tag_2, lt(calldatasize, 0x04))\n      shr(0xe0, calldataload(0x00))\n      dup1\n      0x168f29b2\n      eq\n      tag_3\n      jumpi\n      dup1\n      0x46bb0a16\n      eq\n      tag_4\n      jumpi\n      dup1\n      0x572b6c05\n      eq\n      tag_5\n      jumpi\n      dup1\n      0xb4a06771\n      eq\n      tag_6\n      jumpi\n      dup1\n      0xce1b815f\n      eq\n      tag_7\n      jumpi\n    tag_2:\n      0x00\n      dup1\n      revert\n        /* \"testContract.sol\":401:479  function fireLeader(address _lead)external{\r... */\n    tag_3:\n      tag_8\n      0x04\n      dup1\n      calldatasize\n      sub\n      dup2\n      add\n      swap1\n      tag_9\n      swap2\n      swap1\n      tag_10\n      jump\t// in\n    tag_9:\n      tag_11\n      jump\t// in\n    tag_8:\n      stop\n        /* \"testContract.sol\":295:314  address public lead */\n    tag_4:\n      tag_12\n      tag_13\n      jump\t// in\n    tag_12:\n      mload(0x40)\n      tag_14\n      swap2\n      swap1\n      tag_15\n      jump\t// in\n    tag_14:\n      mload(0x40)\n      dup1\n      swap2\n      sub\n      swap1\n      return\n        /* \"@opengsn/contracts/src/ERC2771Recipient.sol\":1293:1437  function isTrustedForwarder(address forwarder) public virtual override view returns(bool) {... */\n    tag_5:\n      tag_16\n      0x04\n      dup1\n      calldatasize\n      sub\n      dup2\n      add\n      swap1\n      tag_17\n      swap2\n      swap1\n      tag_10\n      jump\t// in\n    tag_17:\n      tag_18\n      jump\t// in\n    tag_16:\n      mload(0x40)\n      tag_19\n      swap2\n      swap1\n      tag_20\n      jump\t// in\n    tag_19:\n      mload(0x40)\n      dup1\n      swap2\n      sub\n      swap1\n      return\n        /* \"testContract.sol\":323:395  function hireLeader(address _lead)external{\r... */\n    tag_6:\n      tag_21\n      0x04\n      dup1\n      calldatasize\n      sub\n      dup2\n      add\n      swap1\n      tag_22\n      swap2\n      swap1\n      tag_10\n      jump\t// in\n    tag_22:\n      tag_23\n      jump\t// in\n    tag_21:\n      stop\n        /* \"@opengsn/contracts/src/ERC2771Recipient.sol\":1018:1137  function getTrustedForwarder() public virtual view returns (address forwarder){... */\n    tag_7:\n      tag_24\n      tag_25\n      jump\t// in\n    tag_24:\n      mload(0x40)\n      tag_26\n      swap2\n      swap1\n      tag_15\n      jump\t// in\n    tag_26:\n      mload(0x40)\n      dup1\n      swap2\n      sub\n      swap1\n      return\n        /* \"testContract.sol\":401:479  function fireLeader(address _lead)external{\r... */\n    tag_11:\n        /* \"testContract.sol\":469:470  0 */\n      0x00\n        /* \"testContract.sol\":454:458  lead */\n      0x01\n      0x00\n        /* \"testContract.sol\":454:471  lead = address(0) */\n      0x0100\n      exp\n      dup2\n      sload\n      dup2\n      0xffffffffffffffffffffffffffffffffffffffff\n      mul\n      not\n      and\n      swap1\n      dup4\n      0xffffffffffffffffffffffffffffffffffffffff\n      and\n      mul\n      or\n      swap1\n      sstore\n      pop\n        /* \"testContract.sol\":401:479  function fireLeader(address _lead)external{\r... */\n      pop\n      jump\t// out\n        /* \"testContract.sol\":295:314  address public lead */\n    tag_13:\n      0x01\n      0x00\n      swap1\n      sload\n      swap1\n      0x0100\n      exp\n      swap1\n      div\n      0xffffffffffffffffffffffffffffffffffffffff\n      and\n      dup2\n      jump\t// out\n        /* \"@opengsn/contracts/src/ERC2771Recipient.sol\":1293:1437  function isTrustedForwarder(address forwarder) public virtual override view returns(bool) {... */\n    tag_18:\n        /* \"@opengsn/contracts/src/ERC2771Recipient.sol\":1377:1381  bool */\n      0x00\n        /* \"@opengsn/contracts/src/ERC2771Recipient.sol\":1413:1430  _trustedForwarder */\n      dup1\n      0x00\n      swap1\n      sload\n      swap1\n      0x0100\n      exp\n      swap1\n      div\n      0xffffffffffffffffffffffffffffffffffffffff\n      and\n        /* \"@opengsn/contracts/src/ERC2771Recipient.sol\":1400:1430  forwarder == _trustedForwarder */\n      0xffffffffffffffffffffffffffffffffffffffff\n      and\n        /* \"@opengsn/contracts/src/ERC2771Recipient.sol\":1400:1409  forwarder */\n      dup3\n        /* \"@opengsn/contracts/src/ERC2771Recipient.sol\":1400:1430  forwarder == _trustedForwarder */\n      0xffffffffffffffffffffffffffffffffffffffff\n      and\n      eq\n        /* \"@opengsn/contracts/src/ERC2771Recipient.sol\":1393:1430  return forwarder == _trustedForwarder */\n      swap1\n      pop\n        /* \"@opengsn/contracts/src/ERC2771Recipient.sol\":1293:1437  function isTrustedForwarder(address forwarder) public virtual override view returns(bool) {... */\n      swap2\n      swap1\n      pop\n      jump\t// out\n        /* \"testContract.sol\":323:395  function hireLeader(address _lead)external{\r... */\n    tag_23:\n        /* \"testContract.sol\":382:387  _lead */\n      dup1\n        /* \"testContract.sol\":376:380  lead */\n      0x01\n      0x00\n        /* \"testContract.sol\":376:387  lead= _lead */\n      0x0100\n      exp\n      dup2\n      sload\n      dup2\n      0xffffffffffffffffffffffffffffffffffffffff\n      mul\n      not\n      and\n      swap1\n      dup4\n      0xffffffffffffffffffffffffffffffffffffffff\n      and\n      mul\n      or\n      swap1\n      sstore\n      pop\n        /* \"testContract.sol\":323:395  function hireLeader(address _lead)external{\r... */\n      pop\n      jump\t// out\n        /* \"@opengsn/contracts/src/ERC2771Recipient.sol\":1018:1137  function getTrustedForwarder() public virtual view returns (address forwarder){... */\n    tag_25:\n        /* \"@opengsn/contracts/src/ERC2771Recipient.sol\":1078:1095  address forwarder */\n      0x00\n        /* \"@opengsn/contracts/src/ERC2771Recipient.sol\":1113:1130  _trustedForwarder */\n      dup1\n      0x00\n      swap1\n      sload\n      swap1\n      0x0100\n      exp\n      swap1\n      div\n      0xffffffffffffffffffffffffffffffffffffffff\n      and\n        /* \"@opengsn/contracts/src/ERC2771Recipient.sol\":1106:1130  return _trustedForwarder */\n      swap1\n      pop\n        /* \"@opengsn/contracts/src/ERC2771Recipient.sol\":1018:1137  function getTrustedForwarder() public virtual view returns (address forwarder){... */\n      swap1\n      jump\t// out\n        /* \"#utility.yul\":7:146   */\n    tag_32:\n        /* \"#utility.yul\":53:58   */\n      0x00\n        /* \"#utility.yul\":91:97   */\n      dup2\n        /* \"#utility.yul\":78:98   */\n      calldataload\n        /* \"#utility.yul\":69:98   */\n      swap1\n      pop\n        /* \"#utility.yul\":107:140   */\n      tag_34\n        /* \"#utility.yul\":134:139   */\n      dup2\n        /* \"#utility.yul\":107:140   */\n      tag_35\n      jump\t// in\n    tag_34:\n        /* \"#utility.yul\":7:146   */\n      swap3\n      swap2\n      pop\n      pop\n      jump\t// out\n        /* \"#utility.yul\":152:481   */\n    tag_10:\n        /* \"#utility.yul\":211:217   */\n      0x00\n        /* \"#utility.yul\":260:262   */\n      0x20\n        /* \"#utility.yul\":248:257   */\n      dup3\n        /* \"#utility.yul\":239:246   */\n      dup5\n        /* \"#utility.yul\":235:258   */\n      sub\n        /* \"#utility.yul\":231:263   */\n      slt\n        /* \"#utility.yul\":228:347   */\n      iszero\n      tag_37\n      jumpi\n        /* \"#utility.yul\":266:345   */\n      tag_38\n      tag_39\n      jump\t// in\n    tag_38:\n        /* \"#utility.yul\":228:347   */\n    tag_37:\n        /* \"#utility.yul\":386:387   */\n      0x00\n        /* \"#utility.yul\":411:464   */\n      tag_40\n        /* \"#utility.yul\":456:463   */\n      dup5\n        /* \"#utility.yul\":447:453   */\n      dup3\n        /* \"#utility.yul\":436:445   */\n      dup6\n        /* \"#utility.yul\":432:454   */\n      add\n        /* \"#utility.yul\":411:464   */\n      tag_32\n      jump\t// in\n    tag_40:\n        /* \"#utility.yul\":401:464   */\n      swap2\n      pop\n        /* \"#utility.yul\":357:474   */\n      pop\n        /* \"#utility.yul\":152:481   */\n      swap3\n      swap2\n      pop\n      pop\n      jump\t// out\n        /* \"#utility.yul\":487:605   */\n    tag_41:\n        /* \"#utility.yul\":574:598   */\n      tag_43\n        /* \"#utility.yul\":592:597   */\n      dup2\n        /* \"#utility.yul\":574:598   */\n      tag_44\n      jump\t// in\n    tag_43:\n        /* \"#utility.yul\":569:572   */\n      dup3\n        /* \"#utility.yul\":562:599   */\n      mstore\n        /* \"#utility.yul\":487:605   */\n      pop\n      pop\n      jump\t// out\n        /* \"#utility.yul\":611:720   */\n    tag_45:\n        /* \"#utility.yul\":692:713   */\n      tag_47\n        /* \"#utility.yul\":707:712   */\n      dup2\n        /* \"#utility.yul\":692:713   */\n      tag_48\n      jump\t// in\n    tag_47:\n        /* \"#utility.yul\":687:690   */\n      dup3\n        /* \"#utility.yul\":680:714   */\n      mstore\n        /* \"#utility.yul\":611:720   */\n      pop\n      pop\n      jump\t// out\n        /* \"#utility.yul\":726:948   */\n    tag_15:\n        /* \"#utility.yul\":819:823   */\n      0x00\n        /* \"#utility.yul\":857:859   */\n      0x20\n        /* \"#utility.yul\":846:855   */\n      dup3\n        /* \"#utility.yul\":842:860   */\n      add\n        /* \"#utility.yul\":834:860   */\n      swap1\n      pop\n        /* \"#utility.yul\":870:941   */\n      tag_50\n        /* \"#utility.yul\":938:939   */\n      0x00\n        /* \"#utility.yul\":927:936   */\n      dup4\n        /* \"#utility.yul\":923:940   */\n      add\n        /* \"#utility.yul\":914:920   */\n      dup5\n        /* \"#utility.yul\":870:941   */\n      tag_41\n      jump\t// in\n    tag_50:\n        /* \"#utility.yul\":726:948   */\n      swap3\n      swap2\n      pop\n      pop\n      jump\t// out\n        /* \"#utility.yul\":954:1164   */\n    tag_20:\n        /* \"#utility.yul\":1041:1045   */\n      0x00\n        /* \"#utility.yul\":1079:1081   */\n      0x20\n        /* \"#utility.yul\":1068:1077   */\n      dup3\n        /* \"#utility.yul\":1064:1082   */\n      add\n        /* \"#utility.yul\":1056:1082   */\n      swap1\n      pop\n        /* \"#utility.yul\":1092:1157   */\n      tag_52\n        /* \"#utility.yul\":1154:1155   */\n      0x00\n        /* \"#utility.yul\":1143:1152   */\n      dup4\n        /* \"#utility.yul\":1139:1156   */\n      add\n        /* \"#utility.yul\":1130:1136   */\n      dup5\n        /* \"#utility.yul\":1092:1157   */\n      tag_45\n      jump\t// in\n    tag_52:\n        /* \"#utility.yul\":954:1164   */\n      swap3\n      swap2\n      pop\n      pop\n      jump\t// out\n        /* \"#utility.yul\":1251:1347   */\n    tag_44:\n        /* \"#utility.yul\":1288:1295   */\n      0x00\n        /* \"#utility.yul\":1317:1341   */\n      tag_56\n        /* \"#utility.yul\":1335:1340   */\n      dup3\n        /* \"#utility.yul\":1317:1341   */\n      tag_57\n      jump\t// in\n    tag_56:\n        /* \"#utility.yul\":1306:1341   */\n      swap1\n      pop\n        /* \"#utility.yul\":1251:1347   */\n      swap2\n      swap1\n      pop\n      jump\t// out\n        /* \"#utility.yul\":1353:1443   */\n    tag_48:\n        /* \"#utility.yul\":1387:1394   */\n      0x00\n        /* \"#utility.yul\":1430:1435   */\n      dup2\n        /* \"#utility.yul\":1423:1436   */\n      iszero\n        /* \"#utility.yul\":1416:1437   */\n      iszero\n        /* \"#utility.yul\":1405:1437   */\n      swap1\n      pop\n        /* \"#utility.yul\":1353:1443   */\n      swap2\n      swap1\n      pop\n      jump\t// out\n        /* \"#utility.yul\":1449:1575   */\n    tag_57:\n        /* \"#utility.yul\":1486:1493   */\n      0x00\n        /* \"#utility.yul\":1526:1568   */\n      0xffffffffffffffffffffffffffffffffffffffff\n        /* \"#utility.yul\":1519:1524   */\n      dup3\n        /* \"#utility.yul\":1515:1569   */\n      and\n        /* \"#utility.yul\":1504:1569   */\n      swap1\n      pop\n        /* \"#utility.yul\":1449:1575   */\n      swap2\n      swap1\n      pop\n      jump\t// out\n        /* \"#utility.yul\":1704:1821   */\n    tag_39:\n        /* \"#utility.yul\":1813:1814   */\n      0x00\n        /* \"#utility.yul\":1810:1811   */\n      dup1\n        /* \"#utility.yul\":1803:1815   */\n      revert\n        /* \"#utility.yul\":1827:1949   */\n    tag_35:\n        /* \"#utility.yul\":1900:1924   */\n      tag_64\n        /* \"#utility.yul\":1918:1923   */\n      dup2\n        /* \"#utility.yul\":1900:1924   */\n      tag_44\n      jump\t// in\n    tag_64:\n        /* \"#utility.yul\":1893:1898   */\n      dup2\n        /* \"#utility.yul\":1890:1925   */\n      eq\n        /* \"#utility.yul\":1880:1943   */\n      tag_65\n      jumpi\n        /* \"#utility.yul\":1939:1940   */\n      0x00\n        /* \"#utility.yul\":1936:1937   */\n      dup1\n        /* \"#utility.yul\":1929:1941   */\n      revert\n        /* \"#utility.yul\":1880:1943   */\n    tag_65:\n        /* \"#utility.yul\":1827:1949   */\n      pop\n      jump\t// out\n\n    auxdata: 0xa2646970667358221220b7650a9fd2246c36a53af65c38a37f3a59c9803c2b2625b3f65f84c61aca03ac64736f6c63430008070033\n}\n",
				"bytecode": {
					"linkReferences": {},
					"object": "608060405234801561001057600080fd5b5061003473b2b5841dbef766d4b521221732f9b618fcf34a8761003960201b60201c565b61007c565b806000806101000a81548173ffffffffffffffffffffffffffffffffffffffff021916908373ffffffffffffffffffffffffffffffffffffffff16021790555050565b6103578061008b6000396000f3fe608060405234801561001057600080fd5b50600436106100575760003560e01c8063168f29b21461005c57806346bb0a1614610078578063572b6c0514610096578063b4a06771146100c6578063ce1b815f146100e2575b600080fd5b61007660048036038101906100719190610246565b610100565b005b610080610145565b60405161008d9190610291565b60405180910390f35b6100b060048036038101906100ab9190610246565b61016b565b6040516100bd91906102ac565b60405180910390f35b6100e060048036038101906100db9190610246565b6101c4565b005b6100ea610208565b6040516100f79190610291565b60405180910390f35b6000600160006101000a81548173ffffffffffffffffffffffffffffffffffffffff021916908373ffffffffffffffffffffffffffffffffffffffff16021790555050565b600160009054906101000a900473ffffffffffffffffffffffffffffffffffffffff1681565b60008060009054906101000a900473ffffffffffffffffffffffffffffffffffffffff1673ffffffffffffffffffffffffffffffffffffffff168273ffffffffffffffffffffffffffffffffffffffff16149050919050565b80600160006101000a81548173ffffffffffffffffffffffffffffffffffffffff021916908373ffffffffffffffffffffffffffffffffffffffff16021790555050565b60008060009054906101000a900473ffffffffffffffffffffffffffffffffffffffff16905090565b6000813590506102408161030a565b92915050565b60006020828403121561025c5761025b610305565b5b600061026a84828501610231565b91505092915050565b61027c816102c7565b82525050565b61028b816102d9565b82525050565b60006020820190506102a66000830184610273565b92915050565b60006020820190506102c16000830184610282565b92915050565b60006102d2826102e5565b9050919050565b60008115159050919050565b600073ffffffffffffffffffffffffffffffffffffffff82169050919050565b600080fd5b610313816102c7565b811461031e57600080fd5b5056fea2646970667358221220b7650a9fd2246c36a53af65c38a37f3a59c9803c2b2625b3f65f84c61aca03ac64736f6c63430008070033",
					"opcodes": "PUSH1 0x80 PUSH1 0x40 MSTORE CALLVALUE DUP1 ISZERO PUSH2 0x10 JUMPI PUSH1 0x0 DUP1 REVERT JUMPDEST POP PUSH2 0x34 PUSH20 0xB2B5841DBEF766D4B521221732F9B618FCF34A87 PUSH2 0x39 PUSH1 0x20 SHL PUSH1 0x20 SHR JUMP JUMPDEST PUSH2 0x7C JUMP JUMPDEST DUP1 PUSH1 0x0 DUP1 PUSH2 0x100 EXP DUP2 SLOAD DUP2 PUSH20 0xFFFFFFFFFFFFFFFFFFFFFFFFFFFFFFFFFFFFFFFF MUL NOT AND SWAP1 DUP4 PUSH20 0xFFFFFFFFFFFFFFFFFFFFFFFFFFFFFFFFFFFFFFFF AND MUL OR SWAP1 SSTORE POP POP JUMP JUMPDEST PUSH2 0x357 DUP1 PUSH2 0x8B PUSH1 0x0 CODECOPY PUSH1 0x0 RETURN INVALID PUSH1 0x80 PUSH1 0x40 MSTORE CALLVALUE DUP1 ISZERO PUSH2 0x10 JUMPI PUSH1 0x0 DUP1 REVERT JUMPDEST POP PUSH1 0x4 CALLDATASIZE LT PUSH2 0x57 JUMPI PUSH1 0x0 CALLDATALOAD PUSH1 0xE0 SHR DUP1 PUSH4 0x168F29B2 EQ PUSH2 0x5C JUMPI DUP1 PUSH4 0x46BB0A16 EQ PUSH2 0x78 JUMPI DUP1 PUSH4 0x572B6C05 EQ PUSH2 0x96 JUMPI DUP1 PUSH4 0xB4A06771 EQ PUSH2 0xC6 JUMPI DUP1 PUSH4 0xCE1B815F EQ PUSH2 0xE2 JUMPI JUMPDEST PUSH1 0x0 DUP1 REVERT JUMPDEST PUSH2 0x76 PUSH1 0x4 DUP1 CALLDATASIZE SUB DUP2 ADD SWAP1 PUSH2 0x71 SWAP2 SWAP1 PUSH2 0x246 JUMP JUMPDEST PUSH2 0x100 JUMP JUMPDEST STOP JUMPDEST PUSH2 0x80 PUSH2 0x145 JUMP JUMPDEST PUSH1 0x40 MLOAD PUSH2 0x8D SWAP2 SWAP1 PUSH2 0x291 JUMP JUMPDEST PUSH1 0x40 MLOAD DUP1 SWAP2 SUB SWAP1 RETURN JUMPDEST PUSH2 0xB0 PUSH1 0x4 DUP1 CALLDATASIZE SUB DUP2 ADD SWAP1 PUSH2 0xAB SWAP2 SWAP1 PUSH2 0x246 JUMP JUMPDEST PUSH2 0x16B JUMP JUMPDEST PUSH1 0x40 MLOAD PUSH2 0xBD SWAP2 SWAP1 PUSH2 0x2AC JUMP JUMPDEST PUSH1 0x40 MLOAD DUP1 SWAP2 SUB SWAP1 RETURN JUMPDEST PUSH2 0xE0 PUSH1 0x4 DUP1 CALLDATASIZE SUB DUP2 ADD SWAP1 PUSH2 0xDB SWAP2 SWAP1 PUSH2 0x246 JUMP JUMPDEST PUSH2 0x1C4 JUMP JUMPDEST STOP JUMPDEST PUSH2 0xEA PUSH2 0x208 JUMP JUMPDEST PUSH1 0x40 MLOAD PUSH2 0xF7 SWAP2 SWAP1 PUSH2 0x291 JUMP JUMPDEST PUSH1 0x40 MLOAD DUP1 SWAP2 SUB SWAP1 RETURN JUMPDEST PUSH1 0x0 PUSH1 0x1 PUSH1 0x0 PUSH2 0x100 EXP DUP2 SLOAD DUP2 PUSH20 0xFFFFFFFFFFFFFFFFFFFFFFFFFFFFFFFFFFFFFFFF MUL NOT AND SWAP1 DUP4 PUSH20 0xFFFFFFFFFFFFFFFFFFFFFFFFFFFFFFFFFFFFFFFF AND MUL OR SWAP1 SSTORE POP POP JUMP JUMPDEST PUSH1 0x1 PUSH1 0x0 SWAP1 SLOAD SWAP1 PUSH2 0x100 EXP SWAP1 DIV PUSH20 0xFFFFFFFFFFFFFFFFFFFFFFFFFFFFFFFFFFFFFFFF AND DUP2 JUMP JUMPDEST PUSH1 0x0 DUP1 PUSH1 0x0 SWAP1 SLOAD SWAP1 PUSH2 0x100 EXP SWAP1 DIV PUSH20 0xFFFFFFFFFFFFFFFFFFFFFFFFFFFFFFFFFFFFFFFF AND PUSH20 0xFFFFFFFFFFFFFFFFFFFFFFFFFFFFFFFFFFFFFFFF AND DUP3 PUSH20 0xFFFFFFFFFFFFFFFFFFFFFFFFFFFFFFFFFFFFFFFF AND EQ SWAP1 POP SWAP2 SWAP1 POP JUMP JUMPDEST DUP1 PUSH1 0x1 PUSH1 0x0 PUSH2 0x100 EXP DUP2 SLOAD DUP2 PUSH20 0xFFFFFFFFFFFFFFFFFFFFFFFFFFFFFFFFFFFFFFFF MUL NOT AND SWAP1 DUP4 PUSH20 0xFFFFFFFFFFFFFFFFFFFFFFFFFFFFFFFFFFFFFFFF AND MUL OR SWAP1 SSTORE POP POP JUMP JUMPDEST PUSH1 0x0 DUP1 PUSH1 0x0 SWAP1 SLOAD SWAP1 PUSH2 0x100 EXP SWAP1 DIV PUSH20 0xFFFFFFFFFFFFFFFFFFFFFFFFFFFFFFFFFFFFFFFF AND SWAP1 POP SWAP1 JUMP JUMPDEST PUSH1 0x0 DUP2 CALLDATALOAD SWAP1 POP PUSH2 0x240 DUP2 PUSH2 0x30A JUMP JUMPDEST SWAP3 SWAP2 POP POP JUMP JUMPDEST PUSH1 0x0 PUSH1 0x20 DUP3 DUP5 SUB SLT ISZERO PUSH2 0x25C JUMPI PUSH2 0x25B PUSH2 0x305 JUMP JUMPDEST JUMPDEST PUSH1 0x0 PUSH2 0x26A DUP5 DUP3 DUP6 ADD PUSH2 0x231 JUMP JUMPDEST SWAP2 POP POP SWAP3 SWAP2 POP POP JUMP JUMPDEST PUSH2 0x27C DUP2 PUSH2 0x2C7 JUMP JUMPDEST DUP3 MSTORE POP POP JUMP JUMPDEST PUSH2 0x28B DUP2 PUSH2 0x2D9 JUMP JUMPDEST DUP3 MSTORE POP POP JUMP JUMPDEST PUSH1 0x0 PUSH1 0x20 DUP3 ADD SWAP1 POP PUSH2 0x2A6 PUSH1 0x0 DUP4 ADD DUP5 PUSH2 0x273 JUMP JUMPDEST SWAP3 SWAP2 POP POP JUMP JUMPDEST PUSH1 0x0 PUSH1 0x20 DUP3 ADD SWAP1 POP PUSH2 0x2C1 PUSH1 0x0 DUP4 ADD DUP5 PUSH2 0x282 JUMP JUMPDEST SWAP3 SWAP2 POP POP JUMP JUMPDEST PUSH1 0x0 PUSH2 0x2D2 DUP3 PUSH2 0x2E5 JUMP JUMPDEST SWAP1 POP SWAP2 SWAP1 POP JUMP JUMPDEST PUSH1 0x0 DUP2 ISZERO ISZERO SWAP1 POP SWAP2 SWAP1 POP JUMP JUMPDEST PUSH1 0x0 PUSH20 0xFFFFFFFFFFFFFFFFFFFFFFFFFFFFFFFFFFFFFFFF DUP3 AND SWAP1 POP SWAP2 SWAP1 POP JUMP JUMPDEST PUSH1 0x0 DUP1 REVERT JUMPDEST PUSH2 0x313 DUP2 PUSH2 0x2C7 JUMP JUMPDEST DUP2 EQ PUSH2 0x31E JUMPI PUSH1 0x0 DUP1 REVERT JUMPDEST POP JUMP INVALID LOG2 PUSH5 0x6970667358 0x22 SLT KECCAK256 0xB7 PUSH6 0xA9FD2246C36 0xA5 GASPRICE 0xF6 0x5C CODESIZE LOG3 PUSH32 0x3A59C9803C2B2625B3F65F84C61ACA03AC64736F6C6343000807003300000000 "
				},
				"gasEstimates": {
					"creation": {
						"codeDepositCost": "171000",
						"executionCost": "infinite",
						"totalCost": "infinite"
					},
					"external": {
						"fireLeader(address)": "24700",
						"getTrustedForwarder()": "2588",
						"hireLeader(address)": "24766",
						"isTrustedForwarder(address)": "2833",
						"lead()": "2514"
					}
				},
				"methodIdentifiers": {
					"fireLeader(address)": "168f29b2",
					"getTrustedForwarder()": "ce1b815f",
					"hireLeader(address)": "b4a06771",
					"isTrustedForwarder(address)": "572b6c05",
					"lead()": "46bb0a16"
				}
			},
			"storageLayout": {
				"storage": [
					{
						"astId": 7,
						"contract": "testContract.sol:testContract",
						"label": "_trustedForwarder",
						"offset": 0,
						"slot": "0",
						"type": "t_address"
					},
					{
						"astId": 142,
						"contract": "testContract.sol:testContract",
						"label": "lead",
						"offset": 0,
						"slot": "1",
						"type": "t_address"
					}
				],
				"types": {
					"t_address": {
						"encoding": "inplace",
						"label": "address",
						"numberOfBytes": "20"
					}
				}
			},
			"userdoc": {
				"kind": "user",
				"methods": {
					"getTrustedForwarder()": {
						"notice": ":warning: **Warning** :warning: The Forwarder can have a full control over your Recipient. Only trust verified Forwarder.Method is not a required method to allow Recipients to trust multiple Forwarders. Not recommended yet."
					},
					"isTrustedForwarder(address)": {
						"notice": ":warning: **Warning** :warning: The Forwarder can have a full control over your Recipient. Only trust verified Forwarder."
					}
				},
				"version": 1
			}
		}
	}
}