{
	"testSinglePaymaster.sol": {
		"TestSinglePaymaster": {
			"abi": [
				{
					"anonymous": false,
					"inputs": [
						{
							"indexed": true,
							"internalType": "address",
							"name": "previousOwner",
							"type": "address"
						},
						{
							"indexed": true,
							"internalType": "address",
							"name": "newOwner",
							"type": "address"
						}
					],
					"name": "OwnershipTransferred",
					"type": "event"
				},
				{
					"anonymous": false,
					"inputs": [
						{
							"indexed": false,
							"internalType": "address",
							"name": "oldTarget",
							"type": "address"
						},
						{
							"indexed": false,
							"internalType": "address",
							"name": "newTarget",
							"type": "address"
						}
					],
					"name": "TargetChanged",
					"type": "event"
				},
				{
					"inputs": [],
					"name": "CALLDATA_SIZE_LIMIT",
					"outputs": [
						{
							"internalType": "uint256",
							"name": "",
							"type": "uint256"
						}
					],
					"stateMutability": "view",
					"type": "function"
				},
				{
					"inputs": [],
					"name": "FORWARDER_HUB_OVERHEAD",
					"outputs": [
						{
							"internalType": "uint256",
							"name": "",
							"type": "uint256"
						}
					],
					"stateMutability": "view",
					"type": "function"
				},
				{
					"inputs": [],
					"name": "PAYMASTER_ACCEPTANCE_BUDGET",
					"outputs": [
						{
							"internalType": "uint256",
							"name": "",
							"type": "uint256"
						}
					],
					"stateMutability": "view",
					"type": "function"
				},
				{
					"inputs": [],
					"name": "POST_RELAYED_CALL_GAS_LIMIT",
					"outputs": [
						{
							"internalType": "uint256",
							"name": "",
							"type": "uint256"
						}
					],
					"stateMutability": "view",
					"type": "function"
				},
				{
					"inputs": [],
					"name": "PRE_RELAYED_CALL_GAS_LIMIT",
					"outputs": [
						{
							"internalType": "uint256",
							"name": "",
							"type": "uint256"
						}
					],
					"stateMutability": "view",
					"type": "function"
				},
				{
					"inputs": [],
					"name": "getBalance",
					"outputs": [
						{
							"internalType": "uint256",
							"name": "",
							"type": "uint256"
						}
					],
					"stateMutability": "view",
					"type": "function"
				},
				{
					"inputs": [],
					"name": "getGasAndDataLimits",
					"outputs": [
						{
							"components": [
								{
									"internalType": "uint256",
									"name": "acceptanceBudget",
									"type": "uint256"
								},
								{
									"internalType": "uint256",
									"name": "preRelayedCallGasLimit",
									"type": "uint256"
								},
								{
									"internalType": "uint256",
									"name": "postRelayedCallGasLimit",
									"type": "uint256"
								},
								{
									"internalType": "uint256",
									"name": "calldataSizeLimit",
									"type": "uint256"
								}
							],
							"internalType": "struct IPaymaster.GasAndDataLimits",
							"name": "limits",
							"type": "tuple"
						}
					],
					"stateMutability": "view",
					"type": "function"
				},
				{
					"inputs": [],
					"name": "getRelayHub",
					"outputs": [
						{
							"internalType": "address",
							"name": "",
							"type": "address"
						}
					],
					"stateMutability": "view",
					"type": "function"
				},
				{
					"inputs": [],
					"name": "getTrustedForwarder",
					"outputs": [
						{
							"internalType": "address",
							"name": "",
							"type": "address"
						}
					],
					"stateMutability": "view",
					"type": "function"
				},
				{
					"inputs": [],
					"name": "owner",
					"outputs": [
						{
							"internalType": "address",
							"name": "",
							"type": "address"
						}
					],
					"stateMutability": "view",
					"type": "function"
				},
				{
					"inputs": [
						{
							"internalType": "bytes",
							"name": "context",
							"type": "bytes"
						},
						{
							"internalType": "bool",
							"name": "success",
							"type": "bool"
						},
						{
							"internalType": "uint256",
							"name": "gasUseWithoutPost",
							"type": "uint256"
						},
						{
							"components": [
								{
									"internalType": "uint256",
									"name": "maxFeePerGas",
									"type": "uint256"
								},
								{
									"internalType": "uint256",
									"name": "maxPriorityFeePerGas",
									"type": "uint256"
								},
								{
									"internalType": "uint256",
									"name": "transactionCalldataGasUsed",
									"type": "uint256"
								},
								{
									"internalType": "address",
									"name": "relayWorker",
									"type": "address"
								},
								{
									"internalType": "address",
									"name": "paymaster",
									"type": "address"
								},
								{
									"internalType": "address",
									"name": "forwarder",
									"type": "address"
								},
								{
									"internalType": "bytes",
									"name": "paymasterData",
									"type": "bytes"
								},
								{
									"internalType": "uint256",
									"name": "clientId",
									"type": "uint256"
								}
							],
							"internalType": "struct GsnTypes.RelayData",
							"name": "relayData",
							"type": "tuple"
						}
					],
					"name": "postRelayedCall",
					"outputs": [],
					"stateMutability": "nonpayable",
					"type": "function"
				},
				{
					"inputs": [
						{
							"components": [
								{
									"components": [
										{
											"internalType": "address",
											"name": "from",
											"type": "address"
										},
										{
											"internalType": "address",
											"name": "to",
											"type": "address"
										},
										{
											"internalType": "uint256",
											"name": "value",
											"type": "uint256"
										},
										{
											"internalType": "uint256",
											"name": "gas",
											"type": "uint256"
										},
										{
											"internalType": "uint256",
											"name": "nonce",
											"type": "uint256"
										},
										{
											"internalType": "bytes",
											"name": "data",
											"type": "bytes"
										},
										{
											"internalType": "uint256",
											"name": "validUntilTime",
											"type": "uint256"
										}
									],
									"internalType": "struct IForwarder.ForwardRequest",
									"name": "request",
									"type": "tuple"
								},
								{
									"components": [
										{
											"internalType": "uint256",
											"name": "maxFeePerGas",
											"type": "uint256"
										},
										{
											"internalType": "uint256",
											"name": "maxPriorityFeePerGas",
											"type": "uint256"
										},
										{
											"internalType": "uint256",
											"name": "transactionCalldataGasUsed",
											"type": "uint256"
										},
										{
											"internalType": "address",
											"name": "relayWorker",
											"type": "address"
										},
										{
											"internalType": "address",
											"name": "paymaster",
											"type": "address"
										},
										{
											"internalType": "address",
											"name": "forwarder",
											"type": "address"
										},
										{
											"internalType": "bytes",
											"name": "paymasterData",
											"type": "bytes"
										},
										{
											"internalType": "uint256",
											"name": "clientId",
											"type": "uint256"
										}
									],
									"internalType": "struct GsnTypes.RelayData",
									"name": "relayData",
									"type": "tuple"
								}
							],
							"internalType": "struct GsnTypes.RelayRequest",
							"name": "relayRequest",
							"type": "tuple"
						},
						{
							"internalType": "bytes",
							"name": "signature",
							"type": "bytes"
						},
						{
							"internalType": "bytes",
							"name": "approvalData",
							"type": "bytes"
						},
						{
							"internalType": "uint256",
							"name": "maxPossibleGas",
							"type": "uint256"
						}
					],
					"name": "preRelayedCall",
					"outputs": [
						{
							"internalType": "bytes",
							"name": "",
							"type": "bytes"
						},
						{
							"internalType": "bool",
							"name": "",
							"type": "bool"
						}
					],
					"stateMutability": "nonpayable",
					"type": "function"
				},
				{
					"inputs": [],
					"name": "renounceOwnership",
					"outputs": [],
					"stateMutability": "nonpayable",
					"type": "function"
				},
				{
					"inputs": [
						{
							"internalType": "contract IRelayHub",
							"name": "hub",
							"type": "address"
						}
					],
					"name": "setRelayHub",
					"outputs": [],
					"stateMutability": "nonpayable",
					"type": "function"
				},
				{
					"inputs": [
						{
							"internalType": "address",
							"name": "_target",
							"type": "address"
						}
					],
					"name": "setTarget",
					"outputs": [],
					"stateMutability": "nonpayable",
					"type": "function"
				},
				{
					"inputs": [
						{
							"internalType": "address",
							"name": "forwarder",
							"type": "address"
						}
					],
					"name": "setTrustedForwarder",
					"outputs": [],
					"stateMutability": "nonpayable",
					"type": "function"
				},
				{
					"inputs": [
						{
							"internalType": "bytes4",
							"name": "interfaceId",
							"type": "bytes4"
						}
					],
					"name": "supportsInterface",
					"outputs": [
						{
							"internalType": "bool",
							"name": "",
							"type": "bool"
						}
					],
					"stateMutability": "view",
					"type": "function"
				},
				{
					"inputs": [],
					"name": "target",
					"outputs": [
						{
							"internalType": "address",
							"name": "",
							"type": "address"
						}
					],
					"stateMutability": "view",
					"type": "function"
				},
				{
					"inputs": [
						{
							"internalType": "address",
							"name": "newOwner",
							"type": "address"
						}
					],
					"name": "transferOwnership",
					"outputs": [],
					"stateMutability": "nonpayable",
					"type": "function"
				},
				{
					"inputs": [],
					"name": "versionPaymaster",
					"outputs": [
						{
							"internalType": "string",
							"name": "",
							"type": "string"
						}
					],
					"stateMutability": "view",
					"type": "function"
				},
				{
					"inputs": [
						{
							"internalType": "uint256",
							"name": "amount",
							"type": "uint256"
						},
						{
							"internalType": "address payable",
							"name": "target",
							"type": "address"
						}
					],
					"name": "withdrawRelayHubDepositTo",
					"outputs": [],
					"stateMutability": "nonpayable",
					"type": "function"
				},
				{
					"stateMutability": "payable",
					"type": "receive"
				}
			],
			"devdoc": {
				"kind": "dev",
				"methods": {
					"getGasAndDataLimits()": {
						"returns": {
							"limits": "An instance of the `GasAndDataLimits` struct ##### `acceptanceBudget` If the transactions consumes more than `acceptanceBudget` this Paymaster will be charged for gas no matter what. Transaction that gets rejected after consuming more than `acceptanceBudget` gas is on this Paymaster's expense. Should be set to an amount gas this Paymaster expects to spend deciding whether to accept or reject a request. This includes gas consumed by calculations in the `preRelayedCall`, `Forwarder` and the recipient contract. :warning: **Warning** :warning: As long this value is above `preRelayedCallGasLimit` (see defaults in `BasePaymaster`), the Paymaster is guaranteed it will never pay for rejected transactions. If this value is below `preRelayedCallGasLimit`, it might might make Paymaster open to a \"griefing\" attack. The relayers should prefer lower `acceptanceBudget`, as it improves their chances of being compensated. From a Relay's point of view, this is the highest gas value a bad Paymaster may cost the relay, since the paymaster will pay anything above that value regardless of whether the transaction succeeds or reverts. Specifying value too high might make the call rejected by relayers (see `maxAcceptanceBudget` in server config). ##### `preRelayedCallGasLimit` The max gas usage of preRelayedCall. Any revert of the `preRelayedCall` is a request rejection by the paymaster. As long as `acceptanceBudget` is above `preRelayedCallGasLimit`, any such revert is not payed by the paymaster. ##### `postRelayedCallGasLimit` The max gas usage of postRelayedCall. The Paymaster is not charged for the maximum, only for actually used gas. Note that an OOG will revert the inner transaction, but the paymaster will be charged for it anyway."
						}
					},
					"getRelayHub()": {
						"returns": {
							"_0": "The address of the `RelayHub` that is trusted by this Paymaster to execute the requests."
						}
					},
					"getTrustedForwarder()": {
						"returns": {
							"_0": "The address of the `Forwarder` that is trusted by this Paymaster to execute the requests."
						}
					},
					"owner()": {
						"details": "Returns the address of the current owner."
					},
					"postRelayedCall(bytes,bool,uint256,(uint256,uint256,uint256,address,address,address,bytes,uint256))": {
						"params": {
							"context": "The call context, as returned by the preRelayedCall",
							"gasUseWithoutPost": "The actual amount of gas used by the entire transaction, EXCEPT        the gas used by the postRelayedCall itself.",
							"relayData": "The relay params of the request. can be used by relayHub.calculateCharge()",
							"success": "`true` if the relayed call succeeded, false if it reverted"
						}
					},
					"preRelayedCall(((address,address,uint256,uint256,uint256,bytes,uint256),(uint256,uint256,uint256,address,address,address,bytes,uint256)),bytes,bytes,uint256)": {
						"params": {
							"approvalData": "- extra dapp-specific data (e.g. signature from trusted party)",
							"maxPossibleGas": "- based on values returned from `getGasAndDataLimits` the RelayHub will calculate the maximum possible amount of gas the user may be charged for. In order to convert this value to wei, the Paymaster has to call \"relayHub.calculateCharge()\"",
							"relayRequest": "- the full relay request structure",
							"signature": "- user's EIP712-compatible signature of the `relayRequest`. Note that in most cases the paymaster shouldn't try use it at all. It is always checked by the forwarder immediately after preRelayedCall returns."
						},
						"returns": {
							"_0": "A byte array to be passed to postRelayedCall. Can contain any data needed by this Paymaster in any form or be empty if no extra data is needed.",
							"_1": "The flag that allows a Paymaster to \"delegate\" the rejection to the recipient code. It also means the Paymaster trust the recipient to reject fast: both preRelayedCall, forwarder check and recipient checks must fit into the GasLimits.acceptanceBudget, otherwise the TX is paid by the Paymaster. `true` if the Paymaster wants to reject the TX if the recipient reverts. `false` if the Paymaster wants rejects by the recipient to be completed on chain and paid by the Paymaster."
						}
					},
					"renounceOwnership()": {
						"details": "Leaves the contract without owner. It will not be possible to call `onlyOwner` functions. Can only be called by the current owner. NOTE: Renouncing ownership will leave the contract without an owner, thereby disabling any functionality that is only available to the owner."
					},
					"supportsInterface(bytes4)": {
						"details": "Returns true if this contract implements the interface defined by `interfaceId`. See the corresponding https://eips.ethereum.org/EIPS/eip-165#how-interfaces-are-identified[EIP section] to learn more about how these ids are created. This function call must use less than 30 000 gas."
					},
					"transferOwnership(address)": {
						"details": "Transfers ownership of the contract to a new account (`newOwner`). Can only be called by the current owner."
					},
					"versionPaymaster()": {
						"returns": {
							"_0": "version The SemVer string of this Paymaster's version."
						}
					},
					"withdrawRelayHubDepositTo(uint256,address)": {
						"params": {
							"amount": "The amount to be subtracted from the sender.",
							"target": "The target to which the amount will be transferred."
						}
					}
				},
				"version": 1
			},
			"evm": {
				"assembly": "    /* \"testSinglePaymaster.sol\":334:1685  contract TestSinglePaymaster is BasePaymaster {\r... */\n  mstore(0x40, 0x80)\n    /* \"testSinglePaymaster.sol\":405:406  0 */\n  0x00\n    /* \"testSinglePaymaster.sol\":387:406  uint256 balance = 0 */\n  0x03\n  sstore\n    /* \"testSinglePaymaster.sol\":334:1685  contract TestSinglePaymaster is BasePaymaster {\r... */\n  callvalue\n  dup1\n  iszero\n  tag_1\n  jumpi\n  0x00\n  dup1\n  revert\ntag_1:\n  pop\n    /* \"@openzeppelin/contracts/access/Ownable.sol\":936:968  _transferOwnership(_msgSender()) */\n  tag_4\n    /* \"@openzeppelin/contracts/access/Ownable.sol\":955:967  _msgSender() */\n  tag_5\n    /* \"@openzeppelin/contracts/access/Ownable.sol\":955:965  _msgSender */\n  shl(0x20, tag_6)\n    /* \"@openzeppelin/contracts/access/Ownable.sol\":955:967  _msgSender() */\n  0x20\n  shr\n  jump\t// in\ntag_5:\n    /* \"@openzeppelin/contracts/access/Ownable.sol\":936:954  _transferOwnership */\n  shl(0x20, tag_7)\n    /* \"@openzeppelin/contracts/access/Ownable.sol\":936:968  _transferOwnership(_msgSender()) */\n  0x20\n  shr\n  jump\t// in\ntag_4:\n    /* \"testSinglePaymaster.sol\":334:1685  contract TestSinglePaymaster is BasePaymaster {\r... */\n  jump(tag_8)\n    /* \"@openzeppelin/contracts/utils/Context.sol\":640:736  function _msgSender() internal view virtual returns (address) {... */\ntag_6:\n    /* \"@openzeppelin/contracts/utils/Context.sol\":693:700  address */\n  0x00\n    /* \"@openzeppelin/contracts/utils/Context.sol\":719:729  msg.sender */\n  caller\n    /* \"@openzeppelin/contracts/utils/Context.sol\":712:729  return msg.sender */\n  swap1\n  pop\n    /* \"@openzeppelin/contracts/utils/Context.sol\":640:736  function _msgSender() internal view virtual returns (address) {... */\n  swap1\n  jump\t// out\n    /* \"@openzeppelin/contracts/access/Ownable.sol\":2426:2613  function _transferOwnership(address newOwner) internal virtual {... */\ntag_7:\n    /* \"@openzeppelin/contracts/access/Ownable.sol\":2499:2515  address oldOwner */\n  0x00\n    /* \"@openzeppelin/contracts/access/Ownable.sol\":2518:2524  _owner */\n  dup1\n  0x00\n  swap1\n  sload\n  swap1\n  0x0100\n  exp\n  swap1\n  div\n  0xffffffffffffffffffffffffffffffffffffffff\n  and\n    /* \"@openzeppelin/contracts/access/Ownable.sol\":2499:2524  address oldOwner = _owner */\n  swap1\n  pop\n    /* \"@openzeppelin/contracts/access/Ownable.sol\":2543:2551  newOwner */\n  dup2\n    /* \"@openzeppelin/contracts/access/Ownable.sol\":2534:2540  _owner */\n  0x00\n  dup1\n    /* \"@openzeppelin/contracts/access/Ownable.sol\":2534:2551  _owner = newOwner */\n  0x0100\n  exp\n  dup2\n  sload\n  dup2\n  0xffffffffffffffffffffffffffffffffffffffff\n  mul\n  not\n  and\n  swap1\n  dup4\n  0xffffffffffffffffffffffffffffffffffffffff\n  and\n  mul\n  or\n  swap1\n  sstore\n  pop\n    /* \"@openzeppelin/contracts/access/Ownable.sol\":2597:2605  newOwner */\n  dup2\n    /* \"@openzeppelin/contracts/access/Ownable.sol\":2566:2606  OwnershipTransferred(oldOwner, newOwner) */\n  0xffffffffffffffffffffffffffffffffffffffff\n  and\n    /* \"@openzeppelin/contracts/access/Ownable.sol\":2587:2595  oldOwner */\n  dup2\n    /* \"@openzeppelin/contracts/access/Ownable.sol\":2566:2606  OwnershipTransferred(oldOwner, newOwner) */\n  0xffffffffffffffffffffffffffffffffffffffff\n  and\n  0x8be0079c531659141344cd1fd0a4f28419497f9722a3daafe3b4186f6b6457e0\n  mload(0x40)\n  mload(0x40)\n  dup1\n  swap2\n  sub\n  swap1\n  log3\n    /* \"@openzeppelin/contracts/access/Ownable.sol\":2489:2613  {... */\n  pop\n    /* \"@openzeppelin/contracts/access/Ownable.sol\":2426:2613  function _transferOwnership(address newOwner) internal virtual {... */\n  pop\n  jump\t// out\n    /* \"testSinglePaymaster.sol\":334:1685  contract TestSinglePaymaster is BasePaymaster {\r... */\ntag_8:\n  dataSize(sub_0)\n  dup1\n  dataOffset(sub_0)\n  0x00\n  codecopy\n  0x00\n  return\nstop\n\nsub_0: assembly {\n        /* \"testSinglePaymaster.sol\":334:1685  contract TestSinglePaymaster is BasePaymaster {\r... */\n      mstore(0x40, 0x80)\n      jumpi(tag_1, lt(calldatasize, 0x04))\n      shr(0xe0, calldataload(0x00))\n      dup1\n      0x8da5cb5b\n      gt\n      tag_24\n      jumpi\n      dup1\n      0xce1b815f\n      gt\n      tag_25\n      jumpi\n      dup1\n      0xce1b815f\n      eq\n      tag_18\n      jumpi\n      dup1\n      0xd4b83992\n      eq\n      tag_19\n      jumpi\n      dup1\n      0xda742228\n      eq\n      tag_20\n      jumpi\n      dup1\n      0xdf463a66\n      eq\n      tag_21\n      jumpi\n      dup1\n      0xf2fde38b\n      eq\n      tag_22\n      jumpi\n      dup1\n      0xf9c002f7\n      eq\n      tag_23\n      jumpi\n      jump(tag_2)\n    tag_25:\n      dup1\n      0x8da5cb5b\n      eq\n      tag_13\n      jumpi\n      dup1\n      0x921276ea\n      eq\n      tag_14\n      jumpi\n      dup1\n      0xb039a88f\n      eq\n      tag_15\n      jumpi\n      dup1\n      0xb90b41cf\n      eq\n      tag_16\n      jumpi\n      dup1\n      0xbbdaa3c9\n      eq\n      tag_17\n      jumpi\n      jump(tag_2)\n    tag_24:\n      dup1\n      0x715018a6\n      gt\n      tag_26\n      jumpi\n      dup1\n      0x715018a6\n      eq\n      tag_8\n      jumpi\n      dup1\n      0x76fa01c3\n      eq\n      tag_9\n      jumpi\n      dup1\n      0x776d1a01\n      eq\n      tag_10\n      jumpi\n      dup1\n      0x7bb05264\n      eq\n      tag_11\n      jumpi\n      dup1\n      0x7bdf2ec7\n      eq\n      tag_12\n      jumpi\n      jump(tag_2)\n    tag_26:\n      dup1\n      0xbe5dd4\n      eq\n      tag_3\n      jumpi\n      dup1\n      0x01ffc9a7\n      eq\n      tag_4\n      jumpi\n      dup1\n      0x12065fe0\n      eq\n      tag_5\n      jumpi\n      dup1\n      0x2d14c4b7\n      eq\n      tag_6\n      jumpi\n      dup1\n      0x5c5e3db1\n      eq\n      tag_7\n      jumpi\n      jump(tag_2)\n    tag_1:\n      jumpi(tag_2, calldatasize)\n        /* \"@opengsn/contracts/src/BasePaymaster.sol\":4662:4663  0 */\n      0x00\n        /* \"@opengsn/contracts/src/BasePaymaster.sol\":4633:4664  address(relayHub) != address(0) */\n      0xffffffffffffffffffffffffffffffffffffffff\n      and\n        /* \"@opengsn/contracts/src/BasePaymaster.sol\":4641:4649  relayHub */\n      0x01\n      0x00\n      swap1\n      sload\n      swap1\n      0x0100\n      exp\n      swap1\n      div\n      0xffffffffffffffffffffffffffffffffffffffff\n      and\n        /* \"@opengsn/contracts/src/BasePaymaster.sol\":4633:4664  address(relayHub) != address(0) */\n      0xffffffffffffffffffffffffffffffffffffffff\n      and\n      eq\n      iszero\n        /* \"@opengsn/contracts/src/BasePaymaster.sol\":4625:4694  require(address(relayHub) != address(0), \"relay hub address not set\") */\n      tag_29\n      jumpi\n      mload(0x40)\n      0x08c379a000000000000000000000000000000000000000000000000000000000\n      dup2\n      mstore\n      0x04\n      add\n      tag_30\n      swap1\n      tag_31\n      jump\t// in\n    tag_30:\n      mload(0x40)\n      dup1\n      swap2\n      sub\n      swap1\n      revert\n    tag_29:\n        /* \"@opengsn/contracts/src/BasePaymaster.sol\":4704:4712  relayHub */\n      0x01\n      0x00\n      swap1\n      sload\n      swap1\n      0x0100\n      exp\n      swap1\n      div\n      0xffffffffffffffffffffffffffffffffffffffff\n      and\n        /* \"@opengsn/contracts/src/BasePaymaster.sol\":4704:4723  relayHub.depositFor */\n      0xffffffffffffffffffffffffffffffffffffffff\n      and\n      0xaa67c919\n        /* \"@opengsn/contracts/src/BasePaymaster.sol\":4730:4739  msg.value */\n      callvalue\n        /* \"@opengsn/contracts/src/BasePaymaster.sol\":4749:4753  this */\n      address\n        /* \"@opengsn/contracts/src/BasePaymaster.sol\":4704:4755  relayHub.depositFor{value:msg.value}(address(this)) */\n      mload(0x40)\n      dup4\n      0xffffffff\n      and\n      0xe0\n      shl\n      dup2\n      mstore\n      0x04\n      add\n      tag_32\n      swap2\n      swap1\n      tag_33\n      jump\t// in\n    tag_32:\n      0x00\n      mload(0x40)\n      dup1\n      dup4\n      sub\n      dup2\n      dup6\n      dup9\n      dup1\n      extcodesize\n      iszero\n      dup1\n      iszero\n      tag_34\n      jumpi\n      0x00\n      dup1\n      revert\n    tag_34:\n      pop\n      gas\n      call\n      iszero\n      dup1\n      iszero\n      tag_36\n      jumpi\n      returndatasize\n      0x00\n      dup1\n      returndatacopy\n      revert(0x00, returndatasize)\n    tag_36:\n      pop\n      pop\n      pop\n      pop\n      pop\n        /* \"testSinglePaymaster.sol\":334:1685  contract TestSinglePaymaster is BasePaymaster {\r... */\n      stop\n    tag_2:\n      0x00\n      dup1\n      revert\n        /* \"@opengsn/contracts/src/BasePaymaster.sol\":5153:5686  function preRelayedCall(... */\n    tag_3:\n      callvalue\n      dup1\n      iszero\n      tag_37\n      jumpi\n      0x00\n      dup1\n      revert\n    tag_37:\n      pop\n      tag_38\n      0x04\n      dup1\n      calldatasize\n      sub\n      dup2\n      add\n      swap1\n      tag_39\n      swap2\n      swap1\n      tag_40\n      jump\t// in\n    tag_39:\n      tag_41\n      jump\t// in\n    tag_38:\n      mload(0x40)\n      tag_42\n      swap3\n      swap2\n      swap1\n      tag_43\n      jump\t// in\n    tag_42:\n      mload(0x40)\n      dup1\n      swap2\n      sub\n      swap1\n      return\n        /* \"@opengsn/contracts/src/BasePaymaster.sol\":1460:1743  function supportsInterface(bytes4 interfaceId) public view virtual override(IERC165, ERC165) returns (bool) {... */\n    tag_4:\n      callvalue\n      dup1\n      iszero\n      tag_44\n      jumpi\n      0x00\n      dup1\n      revert\n    tag_44:\n      pop\n      tag_45\n      0x04\n      dup1\n      calldatasize\n      sub\n      dup2\n      add\n      swap1\n      tag_46\n      swap2\n      swap1\n      tag_47\n      jump\t// in\n    tag_46:\n      tag_48\n      jump\t// in\n    tag_45:\n      mload(0x40)\n      tag_49\n      swap2\n      swap1\n      tag_50\n      jump\t// in\n    tag_49:\n      mload(0x40)\n      dup1\n      swap2\n      sub\n      swap1\n      return\n        /* \"testSinglePaymaster.sol\":1575:1682  function getBalance()public view returns(uint256){\r... */\n    tag_5:\n      callvalue\n      dup1\n      iszero\n      tag_51\n      jumpi\n      0x00\n      dup1\n      revert\n    tag_51:\n      pop\n      tag_52\n      tag_53\n      jump\t// in\n    tag_52:\n      mload(0x40)\n      tag_54\n      swap2\n      swap1\n      tag_55\n      jump\t// in\n    tag_54:\n      mload(0x40)\n      dup1\n      swap2\n      sub\n      swap1\n      return\n        /* \"@opengsn/contracts/src/BasePaymaster.sol\":4974:5116  function withdrawRelayHubDepositTo(uint256 amount, address payable target) public onlyOwner {... */\n    tag_6:\n      callvalue\n      dup1\n      iszero\n      tag_56\n      jumpi\n      0x00\n      dup1\n      revert\n    tag_56:\n      pop\n      tag_57\n      0x04\n      dup1\n      calldatasize\n      sub\n      dup2\n      add\n      swap1\n      tag_58\n      swap2\n      swap1\n      tag_59\n      jump\t// in\n    tag_58:\n      tag_60\n      jump\t// in\n    tag_57:\n      stop\n        /* \"@opengsn/contracts/src/BasePaymaster.sol\":1374:1425  uint256 constant public CALLDATA_SIZE_LIMIT = 10500 */\n    tag_7:\n      callvalue\n      dup1\n      iszero\n      tag_61\n      jumpi\n      0x00\n      dup1\n      revert\n    tag_61:\n      pop\n      tag_62\n      tag_63\n      jump\t// in\n    tag_62:\n      mload(0x40)\n      tag_64\n      swap2\n      swap1\n      tag_55\n      jump\t// in\n    tag_64:\n      mload(0x40)\n      dup1\n      swap2\n      sub\n      swap1\n      return\n        /* \"@openzeppelin/contracts/access/Ownable.sol\":1824:1925  function renounceOwnership() public virtual onlyOwner {... */\n    tag_8:\n      callvalue\n      dup1\n      iszero\n      tag_65\n      jumpi\n      0x00\n      dup1\n      revert\n    tag_65:\n      pop\n      tag_66\n      tag_67\n      jump\t// in\n    tag_66:\n      stop\n        /* \"@opengsn/contracts/src/BasePaymaster.sol\":6140:6449  function postRelayedCall(... */\n    tag_9:\n      callvalue\n      dup1\n      iszero\n      tag_68\n      jumpi\n      0x00\n      dup1\n      revert\n    tag_68:\n      pop\n      tag_69\n      0x04\n      dup1\n      calldatasize\n      sub\n      dup2\n      add\n      swap1\n      tag_70\n      swap2\n      swap1\n      tag_71\n      jump\t// in\n    tag_70:\n      tag_72\n      jump\t// in\n    tag_69:\n      stop\n        /* \"testSinglePaymaster.sol\":671:805  function setTarget(address _target) external onlyOwner {\r... */\n    tag_10:\n      callvalue\n      dup1\n      iszero\n      tag_73\n      jumpi\n      0x00\n      dup1\n      revert\n    tag_73:\n      pop\n      tag_74\n      0x04\n      dup1\n      calldatasize\n      sub\n      dup2\n      add\n      swap1\n      tag_75\n      swap2\n      swap1\n      tag_76\n      jump\t// in\n    tag_75:\n      tag_77\n      jump\t// in\n    tag_74:\n      stop\n        /* \"@opengsn/contracts/src/BasePaymaster.sol\":3550:3747  function setRelayHub(IRelayHub hub) public onlyOwner {... */\n    tag_11:\n      callvalue\n      dup1\n      iszero\n      tag_78\n      jumpi\n      0x00\n      dup1\n      revert\n    tag_78:\n      pop\n      tag_79\n      0x04\n      dup1\n      calldatasize\n      sub\n      dup2\n      add\n      swap1\n      tag_80\n      swap2\n      swap1\n      tag_81\n      jump\t// in\n    tag_80:\n      tag_82\n      jump\t// in\n    tag_79:\n      stop\n        /* \"@opengsn/contracts/src/BasePaymaster.sol\":828:931  function getRelayHub() public override view returns (address) {... */\n    tag_12:\n      callvalue\n      dup1\n      iszero\n      tag_83\n      jumpi\n      0x00\n      dup1\n      revert\n    tag_83:\n      pop\n      tag_84\n      tag_85\n      jump\t// in\n    tag_84:\n      mload(0x40)\n      tag_86\n      swap2\n      swap1\n      tag_33\n      jump\t// in\n    tag_86:\n      mload(0x40)\n      dup1\n      swap2\n      sub\n      swap1\n      return\n        /* \"@openzeppelin/contracts/access/Ownable.sol\":1201:1286  function owner() public view virtual returns (address) {... */\n    tag_13:\n      callvalue\n      dup1\n      iszero\n      tag_87\n      jumpi\n      0x00\n      dup1\n      revert\n    tag_87:\n      pop\n      tag_88\n      tag_89\n      jump\t// in\n    tag_88:\n      mload(0x40)\n      tag_90\n      swap2\n      swap1\n      tag_33\n      jump\t// in\n    tag_90:\n      mload(0x40)\n      dup1\n      swap2\n      sub\n      swap1\n      return\n        /* \"testSinglePaymaster.sol\":443:601  function versionPaymaster() external view override virtual returns (string memory){\r... */\n    tag_14:\n      callvalue\n      dup1\n      iszero\n      tag_91\n      jumpi\n      0x00\n      dup1\n      revert\n    tag_91:\n      pop\n      tag_92\n      tag_93\n      jump\t// in\n    tag_92:\n      mload(0x40)\n      tag_94\n      swap2\n      swap1\n      tag_95\n      jump\t// in\n    tag_94:\n      mload(0x40)\n      dup1\n      swap2\n      sub\n      swap1\n      return\n        /* \"@opengsn/contracts/src/BasePaymaster.sol\":1780:2142  function getGasAndDataLimits()... */\n    tag_15:\n      callvalue\n      dup1\n      iszero\n      tag_96\n      jumpi\n      0x00\n      dup1\n      revert\n    tag_96:\n      pop\n      tag_97\n      tag_98\n      jump\t// in\n    tag_97:\n      mload(0x40)\n      tag_99\n      swap2\n      swap1\n      tag_100\n      jump\t// in\n    tag_99:\n      mload(0x40)\n      dup1\n      swap2\n      sub\n      swap1\n      return\n        /* \"@opengsn/contracts/src/BasePaymaster.sol\":1002:1056  uint256 constant public FORWARDER_HUB_OVERHEAD = 50000 */\n    tag_16:\n      callvalue\n      dup1\n      iszero\n      tag_101\n      jumpi\n      0x00\n      dup1\n      revert\n    tag_101:\n      pop\n      tag_102\n      tag_103\n      jump\t// in\n    tag_102:\n      mload(0x40)\n      tag_104\n      swap2\n      swap1\n      tag_55\n      jump\t// in\n    tag_104:\n      mload(0x40)\n      dup1\n      swap2\n      sub\n      swap1\n      return\n        /* \"@opengsn/contracts/src/BasePaymaster.sol\":1197:1257  uint256 constant public POST_RELAYED_CALL_GAS_LIMIT = 110000 */\n    tag_17:\n      callvalue\n      dup1\n      iszero\n      tag_105\n      jumpi\n      0x00\n      dup1\n      revert\n    tag_105:\n      pop\n      tag_106\n      tag_107\n      jump\t// in\n    tag_106:\n      mload(0x40)\n      tag_108\n      swap2\n      swap1\n      tag_55\n      jump\t// in\n    tag_108:\n      mload(0x40)\n      dup1\n      swap2\n      sub\n      swap1\n      return\n        /* \"@opengsn/contracts/src/BasePaymaster.sol\":4233:4351  function getTrustedForwarder() public virtual view override returns (address){... */\n    tag_18:\n      callvalue\n      dup1\n      iszero\n      tag_109\n      jumpi\n      0x00\n      dup1\n      revert\n    tag_109:\n      pop\n      tag_110\n      tag_111\n      jump\t// in\n    tag_110:\n      mload(0x40)\n      tag_112\n      swap2\n      swap1\n      tag_33\n      jump\t// in\n    tag_112:\n      mload(0x40)\n      dup1\n      swap2\n      sub\n      swap1\n      return\n        /* \"testSinglePaymaster.sol\":413:434  address public target */\n    tag_19:\n      callvalue\n      dup1\n      iszero\n      tag_113\n      jumpi\n      0x00\n      dup1\n      revert\n    tag_113:\n      pop\n      tag_114\n      tag_115\n      jump\t// in\n    tag_114:\n      mload(0x40)\n      tag_116\n      swap2\n      swap1\n      tag_33\n      jump\t// in\n    tag_116:\n      mload(0x40)\n      dup1\n      swap2\n      sub\n      swap1\n      return\n        /* \"@opengsn/contracts/src/BasePaymaster.sol\":3996:4227  function setTrustedForwarder(address forwarder) public virtual onlyOwner {... */\n    tag_20:\n      callvalue\n      dup1\n      iszero\n      tag_117\n      jumpi\n      0x00\n      dup1\n      revert\n    tag_117:\n      pop\n      tag_118\n      0x04\n      dup1\n      calldatasize\n      sub\n      dup2\n      add\n      swap1\n      tag_119\n      swap2\n      swap1\n      tag_76\n      jump\t// in\n    tag_119:\n      tag_120\n      jump\t// in\n    tag_118:\n      stop\n        /* \"@opengsn/contracts/src/BasePaymaster.sol\":1263:1368  uint256 constant public PAYMASTER_ACCEPTANCE_BUDGET = PRE_RELAYED_CALL_GAS_LIMIT + FORWARDER_HUB_OVERHEAD */\n    tag_21:\n      callvalue\n      dup1\n      iszero\n      tag_121\n      jumpi\n      0x00\n      dup1\n      revert\n    tag_121:\n      pop\n      tag_122\n      tag_123\n      jump\t// in\n    tag_122:\n      mload(0x40)\n      tag_124\n      swap2\n      swap1\n      tag_55\n      jump\t// in\n    tag_124:\n      mload(0x40)\n      dup1\n      swap2\n      sub\n      swap1\n      return\n        /* \"@openzeppelin/contracts/access/Ownable.sol\":2074:2272  function transferOwnership(address newOwner) public virtual onlyOwner {... */\n    tag_22:\n      callvalue\n      dup1\n      iszero\n      tag_125\n      jumpi\n      0x00\n      dup1\n      revert\n    tag_125:\n      pop\n      tag_126\n      0x04\n      dup1\n      calldatasize\n      sub\n      dup2\n      add\n      swap1\n      tag_127\n      swap2\n      swap1\n      tag_76\n      jump\t// in\n    tag_127:\n      tag_128\n      jump\t// in\n    tag_126:\n      stop\n        /* \"@opengsn/contracts/src/BasePaymaster.sol\":1132:1191  uint256 constant public PRE_RELAYED_CALL_GAS_LIMIT = 100000 */\n    tag_23:\n      callvalue\n      dup1\n      iszero\n      tag_129\n      jumpi\n      0x00\n      dup1\n      revert\n    tag_129:\n      pop\n      tag_130\n      tag_131\n      jump\t// in\n    tag_130:\n      mload(0x40)\n      tag_132\n      swap2\n      swap1\n      tag_55\n      jump\t// in\n    tag_132:\n      mload(0x40)\n      dup1\n      swap2\n      sub\n      swap1\n      return\n        /* \"@opengsn/contracts/src/BasePaymaster.sol\":5153:5686  function preRelayedCall(... */\n    tag_41:\n        /* \"@opengsn/contracts/src/BasePaymaster.sol\":5378:5390  bytes memory */\n      0x60\n        /* \"@opengsn/contracts/src/BasePaymaster.sol\":5392:5396  bool */\n      0x00\n        /* \"@opengsn/contracts/src/BasePaymaster.sol\":5408:5429  _verifyRelayHubOnly() */\n      tag_134\n        /* \"@opengsn/contracts/src/BasePaymaster.sol\":5408:5427  _verifyRelayHubOnly */\n      tag_135\n        /* \"@opengsn/contracts/src/BasePaymaster.sol\":5408:5429  _verifyRelayHubOnly() */\n      jump\t// in\n    tag_134:\n        /* \"@opengsn/contracts/src/BasePaymaster.sol\":5439:5469  _verifyForwarder(relayRequest) */\n      tag_136\n        /* \"@opengsn/contracts/src/BasePaymaster.sol\":5456:5468  relayRequest */\n      dup9\n        /* \"@opengsn/contracts/src/BasePaymaster.sol\":5439:5455  _verifyForwarder */\n      tag_137\n        /* \"@opengsn/contracts/src/BasePaymaster.sol\":5439:5469  _verifyForwarder(relayRequest) */\n      jump\t// in\n    tag_136:\n        /* \"@opengsn/contracts/src/BasePaymaster.sol\":5479:5505  _verifyValue(relayRequest) */\n      tag_138\n        /* \"@opengsn/contracts/src/BasePaymaster.sol\":5492:5504  relayRequest */\n      dup9\n        /* \"@opengsn/contracts/src/BasePaymaster.sol\":5479:5491  _verifyValue */\n      tag_139\n        /* \"@opengsn/contracts/src/BasePaymaster.sol\":5479:5505  _verifyValue(relayRequest) */\n      jump\t// in\n    tag_138:\n        /* \"@opengsn/contracts/src/BasePaymaster.sol\":5515:5549  _verifyPaymasterData(relayRequest) */\n      tag_140\n        /* \"@opengsn/contracts/src/BasePaymaster.sol\":5536:5548  relayRequest */\n      dup9\n        /* \"@opengsn/contracts/src/BasePaymaster.sol\":5515:5535  _verifyPaymasterData */\n      tag_141\n        /* \"@opengsn/contracts/src/BasePaymaster.sol\":5515:5549  _verifyPaymasterData(relayRequest) */\n      jump\t// in\n    tag_140:\n        /* \"@opengsn/contracts/src/BasePaymaster.sol\":5559:5592  _verifyApprovalData(approvalData) */\n      tag_142\n        /* \"@opengsn/contracts/src/BasePaymaster.sol\":5579:5591  approvalData */\n      dup6\n      dup6\n        /* \"@opengsn/contracts/src/BasePaymaster.sol\":5559:5578  _verifyApprovalData */\n      tag_143\n        /* \"@opengsn/contracts/src/BasePaymaster.sol\":5559:5592  _verifyApprovalData(approvalData) */\n      jump\t// in\n    tag_142:\n        /* \"@opengsn/contracts/src/BasePaymaster.sol\":5609:5679  _preRelayedCall(relayRequest, signature, approvalData, maxPossibleGas) */\n      tag_144\n        /* \"@opengsn/contracts/src/BasePaymaster.sol\":5625:5637  relayRequest */\n      dup9\n        /* \"@opengsn/contracts/src/BasePaymaster.sol\":5639:5648  signature */\n      dup9\n      dup9\n        /* \"@opengsn/contracts/src/BasePaymaster.sol\":5650:5662  approvalData */\n      dup9\n      dup9\n        /* \"@opengsn/contracts/src/BasePaymaster.sol\":5664:5678  maxPossibleGas */\n      dup9\n        /* \"@opengsn/contracts/src/BasePaymaster.sol\":5609:5624  _preRelayedCall */\n      tag_145\n        /* \"@opengsn/contracts/src/BasePaymaster.sol\":5609:5679  _preRelayedCall(relayRequest, signature, approvalData, maxPossibleGas) */\n      jump\t// in\n    tag_144:\n        /* \"@opengsn/contracts/src/BasePaymaster.sol\":5602:5679  return _preRelayedCall(relayRequest, signature, approvalData, maxPossibleGas) */\n      swap2\n      pop\n      swap2\n      pop\n        /* \"@opengsn/contracts/src/BasePaymaster.sol\":5153:5686  function preRelayedCall(... */\n      swap7\n      pop\n      swap7\n      swap5\n      pop\n      pop\n      pop\n      pop\n      pop\n      jump\t// out\n        /* \"@opengsn/contracts/src/BasePaymaster.sol\":1460:1743  function supportsInterface(bytes4 interfaceId) public view virtual override(IERC165, ERC165) returns (bool) {... */\n    tag_48:\n        /* \"@opengsn/contracts/src/BasePaymaster.sol\":1562:1566  bool */\n      0x00\n        /* \"@opengsn/contracts/src/BasePaymaster.sol\":1600:1628  type(IPaymaster).interfaceId */\n      0xe1ab2dea00000000000000000000000000000000000000000000000000000000\n        /* \"@opengsn/contracts/src/BasePaymaster.sol\":1585:1628  interfaceId == type(IPaymaster).interfaceId */\n      not(0xffffffffffffffffffffffffffffffffffffffffffffffffffffffff)\n      and\n        /* \"@opengsn/contracts/src/BasePaymaster.sol\":1585:1596  interfaceId */\n      dup3\n        /* \"@opengsn/contracts/src/BasePaymaster.sol\":1585:1628  interfaceId == type(IPaymaster).interfaceId */\n      not(0xffffffffffffffffffffffffffffffffffffffffffffffffffffffff)\n      and\n      eq\n        /* \"@opengsn/contracts/src/BasePaymaster.sol\":1585:1684  interfaceId == type(IPaymaster).interfaceId ||... */\n      dup1\n      tag_147\n      jumpi\n      pop\n        /* \"@opengsn/contracts/src/BasePaymaster.sol\":1659:1684  type(Ownable).interfaceId */\n      0x0e08307600000000000000000000000000000000000000000000000000000000\n        /* \"@opengsn/contracts/src/BasePaymaster.sol\":1644:1684  interfaceId == type(Ownable).interfaceId */\n      not(0xffffffffffffffffffffffffffffffffffffffffffffffffffffffff)\n      and\n        /* \"@opengsn/contracts/src/BasePaymaster.sol\":1644:1655  interfaceId */\n      dup3\n        /* \"@opengsn/contracts/src/BasePaymaster.sol\":1644:1684  interfaceId == type(Ownable).interfaceId */\n      not(0xffffffffffffffffffffffffffffffffffffffffffffffffffffffff)\n      and\n      eq\n        /* \"@opengsn/contracts/src/BasePaymaster.sol\":1585:1684  interfaceId == type(IPaymaster).interfaceId ||... */\n    tag_147:\n        /* \"@opengsn/contracts/src/BasePaymaster.sol\":1585:1736  interfaceId == type(IPaymaster).interfaceId ||... */\n      dup1\n      tag_148\n      jumpi\n      pop\n        /* \"@opengsn/contracts/src/BasePaymaster.sol\":1700:1736  super.supportsInterface(interfaceId) */\n      tag_149\n        /* \"@opengsn/contracts/src/BasePaymaster.sol\":1724:1735  interfaceId */\n      dup3\n        /* \"@opengsn/contracts/src/BasePaymaster.sol\":1700:1723  super.supportsInterface */\n      tag_150\n        /* \"@opengsn/contracts/src/BasePaymaster.sol\":1700:1736  super.supportsInterface(interfaceId) */\n      jump\t// in\n    tag_149:\n        /* \"@opengsn/contracts/src/BasePaymaster.sol\":1585:1736  interfaceId == type(IPaymaster).interfaceId ||... */\n    tag_148:\n        /* \"@opengsn/contracts/src/BasePaymaster.sol\":1578:1736  return interfaceId == type(IPaymaster).interfaceId ||... */\n      swap1\n      pop\n        /* \"@opengsn/contracts/src/BasePaymaster.sol\":1460:1743  function supportsInterface(bytes4 interfaceId) public view virtual override(IERC165, ERC165) returns (bool) {... */\n      swap2\n      swap1\n      pop\n      jump\t// out\n        /* \"testSinglePaymaster.sol\":1575:1682  function getBalance()public view returns(uint256){\r... */\n    tag_53:\n        /* \"testSinglePaymaster.sol\":1616:1623  uint256 */\n      0x00\n        /* \"testSinglePaymaster.sol\":1641:1649  relayHub */\n      0x01\n      0x00\n      swap1\n      sload\n      swap1\n      0x0100\n      exp\n      swap1\n      div\n      0xffffffffffffffffffffffffffffffffffffffff\n      and\n        /* \"testSinglePaymaster.sol\":1641:1659  relayHub.balanceOf */\n      0xffffffffffffffffffffffffffffffffffffffff\n      and\n      0x70a08231\n        /* \"testSinglePaymaster.sol\":1668:1672  this */\n      address\n        /* \"testSinglePaymaster.sol\":1641:1674  relayHub.balanceOf(address(this)) */\n      mload(0x40)\n      dup3\n      0xffffffff\n      and\n      0xe0\n      shl\n      dup2\n      mstore\n      0x04\n      add\n      tag_152\n      swap2\n      swap1\n      tag_33\n      jump\t// in\n    tag_152:\n      0x20\n      mload(0x40)\n      dup1\n      dup4\n      sub\n      dup2\n      dup7\n      dup1\n      extcodesize\n      iszero\n      dup1\n      iszero\n      tag_153\n      jumpi\n      0x00\n      dup1\n      revert\n    tag_153:\n      pop\n      gas\n      staticcall\n      iszero\n      dup1\n      iszero\n      tag_155\n      jumpi\n      returndatasize\n      0x00\n      dup1\n      returndatacopy\n      revert(0x00, returndatasize)\n    tag_155:\n      pop\n      pop\n      pop\n      pop\n      mload(0x40)\n      returndatasize\n      not(0x1f)\n      0x1f\n      dup3\n      add\n      and\n      dup3\n      add\n      dup1\n      0x40\n      mstore\n      pop\n      dup2\n      add\n      swap1\n      tag_156\n      swap2\n      swap1\n      tag_157\n      jump\t// in\n    tag_156:\n        /* \"testSinglePaymaster.sol\":1634:1674  return relayHub.balanceOf(address(this)) */\n      swap1\n      pop\n        /* \"testSinglePaymaster.sol\":1575:1682  function getBalance()public view returns(uint256){\r... */\n      swap1\n      jump\t// out\n        /* \"@opengsn/contracts/src/BasePaymaster.sol\":4974:5116  function withdrawRelayHubDepositTo(uint256 amount, address payable target) public onlyOwner {... */\n    tag_60:\n        /* \"@openzeppelin/contracts/access/Ownable.sol\":1094:1107  _checkOwner() */\n      tag_159\n        /* \"@openzeppelin/contracts/access/Ownable.sol\":1094:1105  _checkOwner */\n      tag_160\n        /* \"@openzeppelin/contracts/access/Ownable.sol\":1094:1107  _checkOwner() */\n      jump\t// in\n    tag_159:\n        /* \"@opengsn/contracts/src/BasePaymaster.sol\":5076:5084  relayHub */\n      0x01\n      0x00\n      swap1\n      sload\n      swap1\n      0x0100\n      exp\n      swap1\n      div\n      0xffffffffffffffffffffffffffffffffffffffff\n      and\n        /* \"@opengsn/contracts/src/BasePaymaster.sol\":5076:5093  relayHub.withdraw */\n      0xffffffffffffffffffffffffffffffffffffffff\n      and\n      0xf3fef3a3\n        /* \"@opengsn/contracts/src/BasePaymaster.sol\":5094:5100  target */\n      dup3\n        /* \"@opengsn/contracts/src/BasePaymaster.sol\":5102:5108  amount */\n      dup5\n        /* \"@opengsn/contracts/src/BasePaymaster.sol\":5076:5109  relayHub.withdraw(target, amount) */\n      mload(0x40)\n      dup4\n      0xffffffff\n      and\n      0xe0\n      shl\n      dup2\n      mstore\n      0x04\n      add\n      tag_162\n      swap3\n      swap2\n      swap1\n      tag_163\n      jump\t// in\n    tag_162:\n      0x00\n      mload(0x40)\n      dup1\n      dup4\n      sub\n      dup2\n      0x00\n      dup8\n      dup1\n      extcodesize\n      iszero\n      dup1\n      iszero\n      tag_164\n      jumpi\n      0x00\n      dup1\n      revert\n    tag_164:\n      pop\n      gas\n      call\n      iszero\n      dup1\n      iszero\n      tag_166\n      jumpi\n      returndatasize\n      0x00\n      dup1\n      returndatacopy\n      revert(0x00, returndatasize)\n    tag_166:\n      pop\n      pop\n      pop\n      pop\n        /* \"@opengsn/contracts/src/BasePaymaster.sol\":4974:5116  function withdrawRelayHubDepositTo(uint256 amount, address payable target) public onlyOwner {... */\n      pop\n      pop\n      jump\t// out\n        /* \"@opengsn/contracts/src/BasePaymaster.sol\":1374:1425  uint256 constant public CALLDATA_SIZE_LIMIT = 10500 */\n    tag_63:\n        /* \"@opengsn/contracts/src/BasePaymaster.sol\":1420:1425  10500 */\n      0x2904\n        /* \"@opengsn/contracts/src/BasePaymaster.sol\":1374:1425  uint256 constant public CALLDATA_SIZE_LIMIT = 10500 */\n      dup2\n      jump\t// out\n        /* \"@openzeppelin/contracts/access/Ownable.sol\":1824:1925  function renounceOwnership() public virtual onlyOwner {... */\n    tag_67:\n        /* \"@openzeppelin/contracts/access/Ownable.sol\":1094:1107  _checkOwner() */\n      tag_168\n        /* \"@openzeppelin/contracts/access/Ownable.sol\":1094:1105  _checkOwner */\n      tag_160\n        /* \"@openzeppelin/contracts/access/Ownable.sol\":1094:1107  _checkOwner() */\n      jump\t// in\n    tag_168:\n        /* \"@openzeppelin/contracts/access/Ownable.sol\":1888:1918  _transferOwnership(address(0)) */\n      tag_170\n        /* \"@openzeppelin/contracts/access/Ownable.sol\":1915:1916  0 */\n      0x00\n        /* \"@openzeppelin/contracts/access/Ownable.sol\":1888:1906  _transferOwnership */\n      tag_171\n        /* \"@openzeppelin/contracts/access/Ownable.sol\":1888:1918  _transferOwnership(address(0)) */\n      jump\t// in\n    tag_170:\n        /* \"@openzeppelin/contracts/access/Ownable.sol\":1824:1925  function renounceOwnership() public virtual onlyOwner {... */\n      jump\t// out\n        /* \"@opengsn/contracts/src/BasePaymaster.sol\":6140:6449  function postRelayedCall(... */\n    tag_72:\n        /* \"@opengsn/contracts/src/BasePaymaster.sol\":6347:6368  _verifyRelayHubOnly() */\n      tag_173\n        /* \"@opengsn/contracts/src/BasePaymaster.sol\":6347:6366  _verifyRelayHubOnly */\n      tag_135\n        /* \"@opengsn/contracts/src/BasePaymaster.sol\":6347:6368  _verifyRelayHubOnly() */\n      jump\t// in\n    tag_173:\n        /* \"@opengsn/contracts/src/BasePaymaster.sol\":6378:6442  _postRelayedCall(context, success, gasUseWithoutPost, relayData) */\n      tag_174\n        /* \"@opengsn/contracts/src/BasePaymaster.sol\":6395:6402  context */\n      dup6\n      dup6\n        /* \"@opengsn/contracts/src/BasePaymaster.sol\":6404:6411  success */\n      dup6\n        /* \"@opengsn/contracts/src/BasePaymaster.sol\":6413:6430  gasUseWithoutPost */\n      dup6\n        /* \"@opengsn/contracts/src/BasePaymaster.sol\":6432:6441  relayData */\n      dup6\n        /* \"@opengsn/contracts/src/BasePaymaster.sol\":6378:6394  _postRelayedCall */\n      tag_175\n        /* \"@opengsn/contracts/src/BasePaymaster.sol\":6378:6442  _postRelayedCall(context, success, gasUseWithoutPost, relayData) */\n      jump\t// in\n    tag_174:\n        /* \"@opengsn/contracts/src/BasePaymaster.sol\":6140:6449  function postRelayedCall(... */\n      pop\n      pop\n      pop\n      pop\n      pop\n      jump\t// out\n        /* \"testSinglePaymaster.sol\":671:805  function setTarget(address _target) external onlyOwner {\r... */\n    tag_77:\n        /* \"@openzeppelin/contracts/access/Ownable.sol\":1094:1107  _checkOwner() */\n      tag_177\n        /* \"@openzeppelin/contracts/access/Ownable.sol\":1094:1105  _checkOwner */\n      tag_160\n        /* \"@openzeppelin/contracts/access/Ownable.sol\":1094:1107  _checkOwner() */\n      jump\t// in\n    tag_177:\n        /* \"testSinglePaymaster.sol\":742:772  TargetChanged(target, _target) */\n      0x4d11d6210a5e807da812a693b5d341a870571b5fc31158172207a3d99c911ccd\n        /* \"testSinglePaymaster.sol\":756:762  target */\n      0x04\n      0x00\n      swap1\n      sload\n      swap1\n      0x0100\n      exp\n      swap1\n      div\n      0xffffffffffffffffffffffffffffffffffffffff\n      and\n        /* \"testSinglePaymaster.sol\":764:771  _target */\n      dup3\n        /* \"testSinglePaymaster.sol\":742:772  TargetChanged(target, _target) */\n      mload(0x40)\n      tag_179\n      swap3\n      swap2\n      swap1\n      tag_180\n      jump\t// in\n    tag_179:\n      mload(0x40)\n      dup1\n      swap2\n      sub\n      swap1\n      log1\n        /* \"testSinglePaymaster.sol\":790:797  _target */\n      dup1\n        /* \"testSinglePaymaster.sol\":783:789  target */\n      0x04\n      0x00\n        /* \"testSinglePaymaster.sol\":783:797  target=_target */\n      0x0100\n      exp\n      dup2\n      sload\n      dup2\n      0xffffffffffffffffffffffffffffffffffffffff\n      mul\n      not\n      and\n      swap1\n      dup4\n      0xffffffffffffffffffffffffffffffffffffffff\n      and\n      mul\n      or\n      swap1\n      sstore\n      pop\n        /* \"testSinglePaymaster.sol\":671:805  function setTarget(address _target) external onlyOwner {\r... */\n      pop\n      jump\t// out\n        /* \"@opengsn/contracts/src/BasePaymaster.sol\":3550:3747  function setRelayHub(IRelayHub hub) public onlyOwner {... */\n    tag_82:\n        /* \"@openzeppelin/contracts/access/Ownable.sol\":1094:1107  _checkOwner() */\n      tag_182\n        /* \"@openzeppelin/contracts/access/Ownable.sol\":1094:1105  _checkOwner */\n      tag_160\n        /* \"@openzeppelin/contracts/access/Ownable.sol\":1094:1107  _checkOwner() */\n      jump\t// in\n    tag_182:\n        /* \"@opengsn/contracts/src/BasePaymaster.sol\":3621:3680  address(hub).supportsInterface(type(IRelayHub).interfaceId) */\n      tag_184\n        /* \"@opengsn/contracts/src/BasePaymaster.sol\":3652:3679  type(IRelayHub).interfaceId */\n      0xe9fb30f700000000000000000000000000000000000000000000000000000000\n        /* \"@opengsn/contracts/src/BasePaymaster.sol\":3629:3632  hub */\n      dup3\n        /* \"@opengsn/contracts/src/BasePaymaster.sol\":3621:3651  address(hub).supportsInterface */\n      0xffffffffffffffffffffffffffffffffffffffff\n      and\n      tag_185\n      swap1\n        /* \"@opengsn/contracts/src/BasePaymaster.sol\":3621:3680  address(hub).supportsInterface(type(IRelayHub).interfaceId) */\n      swap2\n      swap1\n      0xffffffff\n      and\n      jump\t// in\n    tag_184:\n        /* \"@opengsn/contracts/src/BasePaymaster.sol\":3613:3716  require(address(hub).supportsInterface(type(IRelayHub).interfaceId), \"target is not a valid IRelayHub\") */\n      tag_186\n      jumpi\n      mload(0x40)\n      0x08c379a000000000000000000000000000000000000000000000000000000000\n      dup2\n      mstore\n      0x04\n      add\n      tag_187\n      swap1\n      tag_188\n      jump\t// in\n    tag_187:\n      mload(0x40)\n      dup1\n      swap2\n      sub\n      swap1\n      revert\n    tag_186:\n        /* \"@opengsn/contracts/src/BasePaymaster.sol\":3737:3740  hub */\n      dup1\n        /* \"@opengsn/contracts/src/BasePaymaster.sol\":3726:3734  relayHub */\n      0x01\n      0x00\n        /* \"@opengsn/contracts/src/BasePaymaster.sol\":3726:3740  relayHub = hub */\n      0x0100\n      exp\n      dup2\n      sload\n      dup2\n      0xffffffffffffffffffffffffffffffffffffffff\n      mul\n      not\n      and\n      swap1\n      dup4\n      0xffffffffffffffffffffffffffffffffffffffff\n      and\n      mul\n      or\n      swap1\n      sstore\n      pop\n        /* \"@opengsn/contracts/src/BasePaymaster.sol\":3550:3747  function setRelayHub(IRelayHub hub) public onlyOwner {... */\n      pop\n      jump\t// out\n        /* \"@opengsn/contracts/src/BasePaymaster.sol\":828:931  function getRelayHub() public override view returns (address) {... */\n    tag_85:\n        /* \"@opengsn/contracts/src/BasePaymaster.sol\":881:888  address */\n      0x00\n        /* \"@opengsn/contracts/src/BasePaymaster.sol\":915:923  relayHub */\n      0x01\n      0x00\n      swap1\n      sload\n      swap1\n      0x0100\n      exp\n      swap1\n      div\n      0xffffffffffffffffffffffffffffffffffffffff\n      and\n        /* \"@opengsn/contracts/src/BasePaymaster.sol\":900:924  return address(relayHub) */\n      swap1\n      pop\n        /* \"@opengsn/contracts/src/BasePaymaster.sol\":828:931  function getRelayHub() public override view returns (address) {... */\n      swap1\n      jump\t// out\n        /* \"@openzeppelin/contracts/access/Ownable.sol\":1201:1286  function owner() public view virtual returns (address) {... */\n    tag_89:\n        /* \"@openzeppelin/contracts/access/Ownable.sol\":1247:1254  address */\n      0x00\n        /* \"@openzeppelin/contracts/access/Ownable.sol\":1273:1279  _owner */\n      dup1\n      0x00\n      swap1\n      sload\n      swap1\n      0x0100\n      exp\n      swap1\n      div\n      0xffffffffffffffffffffffffffffffffffffffff\n      and\n        /* \"@openzeppelin/contracts/access/Ownable.sol\":1266:1279  return _owner */\n      swap1\n      pop\n        /* \"@openzeppelin/contracts/access/Ownable.sol\":1201:1286  function owner() public view virtual returns (address) {... */\n      swap1\n      jump\t// out\n        /* \"testSinglePaymaster.sol\":443:601  function versionPaymaster() external view override virtual returns (string memory){\r... */\n    tag_93:\n        /* \"testSinglePaymaster.sol\":511:524  string memory */\n      0x60\n        /* \"testSinglePaymaster.sol\":536:593  return \"3.0.0-beta.3+opengsn.accepteverything.ipaymaster\" */\n      mload(0x40)\n      dup1\n      0x60\n      add\n      0x40\n      mstore\n      dup1\n      0x30\n      dup2\n      mstore\n      0x20\n      add\n      data_eb97c41b3f651080603cbd3c7c438c7324cd0069264d3abe764ec765afe6a3d8\n      0x30\n      swap2\n      codecopy\n      swap1\n      pop\n        /* \"testSinglePaymaster.sol\":443:601  function versionPaymaster() external view override virtual returns (string memory){\r... */\n      swap1\n      jump\t// out\n        /* \"@opengsn/contracts/src/BasePaymaster.sol\":1780:2142  function getGasAndDataLimits()... */\n    tag_98:\n        /* \"@opengsn/contracts/src/BasePaymaster.sol\":1878:1919  IPaymaster.GasAndDataLimits memory limits */\n      tag_192\n      tag_193\n      jump\t// in\n    tag_192:\n        /* \"@opengsn/contracts/src/BasePaymaster.sol\":1943:2135  IPaymaster.GasAndDataLimits(... */\n      mload(0x40)\n      dup1\n      0x80\n      add\n      0x40\n      mstore\n      dup1\n        /* \"@opengsn/contracts/src/BasePaymaster.sol\":1051:1056  50000 */\n      0xc350\n        /* \"@opengsn/contracts/src/BasePaymaster.sol\":1185:1191  100000 */\n      0x0186a0\n        /* \"@opengsn/contracts/src/BasePaymaster.sol\":1317:1368  PRE_RELAYED_CALL_GAS_LIMIT + FORWARDER_HUB_OVERHEAD */\n      tag_195\n      swap2\n      swap1\n      tag_196\n      jump\t// in\n    tag_195:\n        /* \"@opengsn/contracts/src/BasePaymaster.sol\":1943:2135  IPaymaster.GasAndDataLimits(... */\n      dup2\n      mstore\n      0x20\n      add\n        /* \"@opengsn/contracts/src/BasePaymaster.sol\":1185:1191  100000 */\n      0x0186a0\n        /* \"@opengsn/contracts/src/BasePaymaster.sol\":1943:2135  IPaymaster.GasAndDataLimits(... */\n      dup2\n      mstore\n      0x20\n      add\n        /* \"@opengsn/contracts/src/BasePaymaster.sol\":1251:1257  110000 */\n      0x01adb0\n        /* \"@opengsn/contracts/src/BasePaymaster.sol\":1943:2135  IPaymaster.GasAndDataLimits(... */\n      dup2\n      mstore\n      0x20\n      add\n        /* \"@opengsn/contracts/src/BasePaymaster.sol\":1420:1425  10500 */\n      0x2904\n        /* \"@opengsn/contracts/src/BasePaymaster.sol\":1943:2135  IPaymaster.GasAndDataLimits(... */\n      dup2\n      mstore\n      pop\n        /* \"@opengsn/contracts/src/BasePaymaster.sol\":1936:2135  return IPaymaster.GasAndDataLimits(... */\n      swap1\n      pop\n        /* \"@opengsn/contracts/src/BasePaymaster.sol\":1780:2142  function getGasAndDataLimits()... */\n      swap1\n      jump\t// out\n        /* \"@opengsn/contracts/src/BasePaymaster.sol\":1002:1056  uint256 constant public FORWARDER_HUB_OVERHEAD = 50000 */\n    tag_103:\n        /* \"@opengsn/contracts/src/BasePaymaster.sol\":1051:1056  50000 */\n      0xc350\n        /* \"@opengsn/contracts/src/BasePaymaster.sol\":1002:1056  uint256 constant public FORWARDER_HUB_OVERHEAD = 50000 */\n      dup2\n      jump\t// out\n        /* \"@opengsn/contracts/src/BasePaymaster.sol\":1197:1257  uint256 constant public POST_RELAYED_CALL_GAS_LIMIT = 110000 */\n    tag_107:\n        /* \"@opengsn/contracts/src/BasePaymaster.sol\":1251:1257  110000 */\n      0x01adb0\n        /* \"@opengsn/contracts/src/BasePaymaster.sol\":1197:1257  uint256 constant public POST_RELAYED_CALL_GAS_LIMIT = 110000 */\n      dup2\n      jump\t// out\n        /* \"@opengsn/contracts/src/BasePaymaster.sol\":4233:4351  function getTrustedForwarder() public virtual view override returns (address){... */\n    tag_111:\n        /* \"@opengsn/contracts/src/BasePaymaster.sol\":4302:4309  address */\n      0x00\n        /* \"@opengsn/contracts/src/BasePaymaster.sol\":4327:4344  _trustedForwarder */\n      0x02\n      0x00\n      swap1\n      sload\n      swap1\n      0x0100\n      exp\n      swap1\n      div\n      0xffffffffffffffffffffffffffffffffffffffff\n      and\n        /* \"@opengsn/contracts/src/BasePaymaster.sol\":4320:4344  return _trustedForwarder */\n      swap1\n      pop\n        /* \"@opengsn/contracts/src/BasePaymaster.sol\":4233:4351  function getTrustedForwarder() public virtual view override returns (address){... */\n      swap1\n      jump\t// out\n        /* \"testSinglePaymaster.sol\":413:434  address public target */\n    tag_115:\n      0x04\n      0x00\n      swap1\n      sload\n      swap1\n      0x0100\n      exp\n      swap1\n      div\n      0xffffffffffffffffffffffffffffffffffffffff\n      and\n      dup2\n      jump\t// out\n        /* \"@opengsn/contracts/src/BasePaymaster.sol\":3996:4227  function setTrustedForwarder(address forwarder) public virtual onlyOwner {... */\n    tag_120:\n        /* \"@openzeppelin/contracts/access/Ownable.sol\":1094:1107  _checkOwner() */\n      tag_199\n        /* \"@openzeppelin/contracts/access/Ownable.sol\":1094:1105  _checkOwner */\n      tag_160\n        /* \"@openzeppelin/contracts/access/Ownable.sol\":1094:1107  _checkOwner() */\n      jump\t// in\n    tag_199:\n        /* \"@opengsn/contracts/src/BasePaymaster.sol\":4087:4144  forwarder.supportsInterface(type(IForwarder).interfaceId) */\n      tag_201\n        /* \"@opengsn/contracts/src/BasePaymaster.sol\":4115:4143  type(IForwarder).interfaceId */\n      0x25e23e6400000000000000000000000000000000000000000000000000000000\n        /* \"@opengsn/contracts/src/BasePaymaster.sol\":4087:4096  forwarder */\n      dup3\n        /* \"@opengsn/contracts/src/BasePaymaster.sol\":4087:4114  forwarder.supportsInterface */\n      0xffffffffffffffffffffffffffffffffffffffff\n      and\n      tag_185\n      swap1\n        /* \"@opengsn/contracts/src/BasePaymaster.sol\":4087:4144  forwarder.supportsInterface(type(IForwarder).interfaceId) */\n      swap2\n      swap1\n      0xffffffff\n      and\n      jump\t// in\n    tag_201:\n        /* \"@opengsn/contracts/src/BasePaymaster.sol\":4079:4181  require(forwarder.supportsInterface(type(IForwarder).interfaceId), \"target is not a valid IForwarder\") */\n      tag_202\n      jumpi\n      mload(0x40)\n      0x08c379a000000000000000000000000000000000000000000000000000000000\n      dup2\n      mstore\n      0x04\n      add\n      tag_203\n      swap1\n      tag_204\n      jump\t// in\n    tag_203:\n      mload(0x40)\n      dup1\n      swap2\n      sub\n      swap1\n      revert\n    tag_202:\n        /* \"@opengsn/contracts/src/BasePaymaster.sol\":4211:4220  forwarder */\n      dup1\n        /* \"@opengsn/contracts/src/BasePaymaster.sol\":4191:4208  _trustedForwarder */\n      0x02\n      0x00\n        /* \"@opengsn/contracts/src/BasePaymaster.sol\":4191:4220  _trustedForwarder = forwarder */\n      0x0100\n      exp\n      dup2\n      sload\n      dup2\n      0xffffffffffffffffffffffffffffffffffffffff\n      mul\n      not\n      and\n      swap1\n      dup4\n      0xffffffffffffffffffffffffffffffffffffffff\n      and\n      mul\n      or\n      swap1\n      sstore\n      pop\n        /* \"@opengsn/contracts/src/BasePaymaster.sol\":3996:4227  function setTrustedForwarder(address forwarder) public virtual onlyOwner {... */\n      pop\n      jump\t// out\n        /* \"@opengsn/contracts/src/BasePaymaster.sol\":1263:1368  uint256 constant public PAYMASTER_ACCEPTANCE_BUDGET = PRE_RELAYED_CALL_GAS_LIMIT + FORWARDER_HUB_OVERHEAD */\n    tag_123:\n        /* \"@opengsn/contracts/src/BasePaymaster.sol\":1051:1056  50000 */\n      0xc350\n        /* \"@opengsn/contracts/src/BasePaymaster.sol\":1185:1191  100000 */\n      0x0186a0\n        /* \"@opengsn/contracts/src/BasePaymaster.sol\":1317:1368  PRE_RELAYED_CALL_GAS_LIMIT + FORWARDER_HUB_OVERHEAD */\n      tag_205\n      swap2\n      swap1\n      tag_196\n      jump\t// in\n    tag_205:\n        /* \"@opengsn/contracts/src/BasePaymaster.sol\":1263:1368  uint256 constant public PAYMASTER_ACCEPTANCE_BUDGET = PRE_RELAYED_CALL_GAS_LIMIT + FORWARDER_HUB_OVERHEAD */\n      dup2\n      jump\t// out\n        /* \"@openzeppelin/contracts/access/Ownable.sol\":2074:2272  function transferOwnership(address newOwner) public virtual onlyOwner {... */\n    tag_128:\n        /* \"@openzeppelin/contracts/access/Ownable.sol\":1094:1107  _checkOwner() */\n      tag_207\n        /* \"@openzeppelin/contracts/access/Ownable.sol\":1094:1105  _checkOwner */\n      tag_160\n        /* \"@openzeppelin/contracts/access/Ownable.sol\":1094:1107  _checkOwner() */\n      jump\t// in\n    tag_207:\n        /* \"@openzeppelin/contracts/access/Ownable.sol\":2182:2183  0 */\n      0x00\n        /* \"@openzeppelin/contracts/access/Ownable.sol\":2162:2184  newOwner != address(0) */\n      0xffffffffffffffffffffffffffffffffffffffff\n      and\n        /* \"@openzeppelin/contracts/access/Ownable.sol\":2162:2170  newOwner */\n      dup2\n        /* \"@openzeppelin/contracts/access/Ownable.sol\":2162:2184  newOwner != address(0) */\n      0xffffffffffffffffffffffffffffffffffffffff\n      and\n      eq\n      iszero\n        /* \"@openzeppelin/contracts/access/Ownable.sol\":2154:2227  require(newOwner != address(0), \"Ownable: new owner is the zero address\") */\n      tag_209\n      jumpi\n      mload(0x40)\n      0x08c379a000000000000000000000000000000000000000000000000000000000\n      dup2\n      mstore\n      0x04\n      add\n      tag_210\n      swap1\n      tag_211\n      jump\t// in\n    tag_210:\n      mload(0x40)\n      dup1\n      swap2\n      sub\n      swap1\n      revert\n    tag_209:\n        /* \"@openzeppelin/contracts/access/Ownable.sol\":2237:2265  _transferOwnership(newOwner) */\n      tag_212\n        /* \"@openzeppelin/contracts/access/Ownable.sol\":2256:2264  newOwner */\n      dup2\n        /* \"@openzeppelin/contracts/access/Ownable.sol\":2237:2255  _transferOwnership */\n      tag_171\n        /* \"@openzeppelin/contracts/access/Ownable.sol\":2237:2265  _transferOwnership(newOwner) */\n      jump\t// in\n    tag_212:\n        /* \"@openzeppelin/contracts/access/Ownable.sol\":2074:2272  function transferOwnership(address newOwner) public virtual onlyOwner {... */\n      pop\n      jump\t// out\n        /* \"@opengsn/contracts/src/BasePaymaster.sol\":1132:1191  uint256 constant public PRE_RELAYED_CALL_GAS_LIMIT = 100000 */\n    tag_131:\n        /* \"@opengsn/contracts/src/BasePaymaster.sol\":1185:1191  100000 */\n      0x0186a0\n        /* \"@opengsn/contracts/src/BasePaymaster.sol\":1132:1191  uint256 constant public PRE_RELAYED_CALL_GAS_LIMIT = 100000 */\n      dup2\n      jump\t// out\n        /* \"@opengsn/contracts/src/BasePaymaster.sol\":2620:2760  function _verifyRelayHubOnly() internal virtual view {... */\n    tag_135:\n        /* \"@opengsn/contracts/src/BasePaymaster.sol\":2705:2718  getRelayHub() */\n      tag_214\n        /* \"@opengsn/contracts/src/BasePaymaster.sol\":2705:2716  getRelayHub */\n      tag_85\n        /* \"@opengsn/contracts/src/BasePaymaster.sol\":2705:2718  getRelayHub() */\n      jump\t// in\n    tag_214:\n        /* \"@opengsn/contracts/src/BasePaymaster.sol\":2691:2718  msg.sender == getRelayHub() */\n      0xffffffffffffffffffffffffffffffffffffffff\n      and\n        /* \"@opengsn/contracts/src/BasePaymaster.sol\":2691:2701  msg.sender */\n      caller\n        /* \"@opengsn/contracts/src/BasePaymaster.sol\":2691:2718  msg.sender == getRelayHub() */\n      0xffffffffffffffffffffffffffffffffffffffff\n      and\n      eq\n        /* \"@opengsn/contracts/src/BasePaymaster.sol\":2683:2753  require(msg.sender == getRelayHub(), \"can only be called by RelayHub\") */\n      tag_215\n      jumpi\n      mload(0x40)\n      0x08c379a000000000000000000000000000000000000000000000000000000000\n      dup2\n      mstore\n      0x04\n      add\n      tag_216\n      swap1\n      tag_217\n      jump\t// in\n    tag_216:\n      mload(0x40)\n      dup1\n      swap2\n      sub\n      swap1\n      revert\n    tag_215:\n        /* \"@opengsn/contracts/src/BasePaymaster.sol\":2620:2760  function _verifyRelayHubOnly() internal virtual view {... */\n      jump\t// out\n        /* \"@opengsn/contracts/src/BasePaymaster.sol\":2331:2614  function _verifyForwarder(GsnTypes.RelayRequest calldata relayRequest)... */\n    tag_137:\n        /* \"@opengsn/contracts/src/BasePaymaster.sol\":2483:2495  relayRequest */\n      dup1\n        /* \"@opengsn/contracts/src/BasePaymaster.sol\":2483:2505  relayRequest.relayData */\n      dup1\n      0x20\n      add\n      swap1\n      tag_219\n      swap2\n      swap1\n      tag_220\n      jump\t// in\n    tag_219:\n        /* \"@opengsn/contracts/src/BasePaymaster.sol\":2483:2515  relayRequest.relayData.forwarder */\n      0xa0\n      add\n      0x20\n      dup2\n      add\n      swap1\n      tag_221\n      swap2\n      swap1\n      tag_76\n      jump\t// in\n    tag_221:\n        /* \"@opengsn/contracts/src/BasePaymaster.sol\":2458:2515  getTrustedForwarder() == relayRequest.relayData.forwarder */\n      0xffffffffffffffffffffffffffffffffffffffff\n      and\n        /* \"@opengsn/contracts/src/BasePaymaster.sol\":2458:2479  getTrustedForwarder() */\n      tag_222\n        /* \"@opengsn/contracts/src/BasePaymaster.sol\":2458:2477  getTrustedForwarder */\n      tag_111\n        /* \"@opengsn/contracts/src/BasePaymaster.sol\":2458:2479  getTrustedForwarder() */\n      jump\t// in\n    tag_222:\n        /* \"@opengsn/contracts/src/BasePaymaster.sol\":2458:2515  getTrustedForwarder() == relayRequest.relayData.forwarder */\n      0xffffffffffffffffffffffffffffffffffffffff\n      and\n      eq\n        /* \"@opengsn/contracts/src/BasePaymaster.sol\":2450:2544  require(getTrustedForwarder() == relayRequest.relayData.forwarder, \"Forwarder is not trusted\") */\n      tag_223\n      jumpi\n      mload(0x40)\n      0x08c379a000000000000000000000000000000000000000000000000000000000\n      dup2\n      mstore\n      0x04\n      add\n      tag_224\n      swap1\n      tag_225\n      jump\t// in\n    tag_224:\n      mload(0x40)\n      dup1\n      swap2\n      sub\n      swap1\n      revert\n    tag_223:\n        /* \"@opengsn/contracts/src/BasePaymaster.sol\":2554:2607  GsnEip712Library.verifyForwarderTrusted(relayRequest) */\n      tag_226\n        /* \"@opengsn/contracts/src/BasePaymaster.sol\":2594:2606  relayRequest */\n      dup2\n        /* \"@opengsn/contracts/src/BasePaymaster.sol\":2554:2593  GsnEip712Library.verifyForwarderTrusted */\n      tag_227\n        /* \"@opengsn/contracts/src/BasePaymaster.sol\":2554:2607  GsnEip712Library.verifyForwarderTrusted(relayRequest) */\n      jump\t// in\n    tag_226:\n        /* \"@opengsn/contracts/src/BasePaymaster.sol\":2331:2614  function _verifyForwarder(GsnTypes.RelayRequest calldata relayRequest)... */\n      pop\n      jump\t// out\n        /* \"@opengsn/contracts/src/BasePaymaster.sol\":2766:2943  function _verifyValue(GsnTypes.RelayRequest calldata relayRequest) internal virtual view{... */\n    tag_139:\n        /* \"@opengsn/contracts/src/BasePaymaster.sol\":2902:2903  0 */\n      0x00\n        /* \"@opengsn/contracts/src/BasePaymaster.sol\":2872:2884  relayRequest */\n      dup2\n        /* \"@opengsn/contracts/src/BasePaymaster.sol\":2872:2892  relayRequest.request */\n      dup1\n      0x00\n      add\n      swap1\n      tag_229\n      swap2\n      swap1\n      tag_230\n      jump\t// in\n    tag_229:\n        /* \"@opengsn/contracts/src/BasePaymaster.sol\":2872:2898  relayRequest.request.value */\n      0x40\n      add\n      calldataload\n        /* \"@opengsn/contracts/src/BasePaymaster.sol\":2872:2903  relayRequest.request.value == 0 */\n      eq\n        /* \"@opengsn/contracts/src/BasePaymaster.sol\":2864:2936  require(relayRequest.request.value == 0, \"value transfer not supported\") */\n      tag_231\n      jumpi\n      mload(0x40)\n      0x08c379a000000000000000000000000000000000000000000000000000000000\n      dup2\n      mstore\n      0x04\n      add\n      tag_232\n      swap1\n      tag_233\n      jump\t// in\n    tag_232:\n      mload(0x40)\n      dup1\n      swap2\n      sub\n      swap1\n      revert\n    tag_231:\n        /* \"@opengsn/contracts/src/BasePaymaster.sol\":2766:2943  function _verifyValue(GsnTypes.RelayRequest calldata relayRequest) internal virtual view{... */\n      pop\n      jump\t// out\n        /* \"@opengsn/contracts/src/BasePaymaster.sol\":2949:3152  function _verifyPaymasterData(GsnTypes.RelayRequest calldata relayRequest) internal virtual view {... */\n    tag_141:\n        /* \"@opengsn/contracts/src/BasePaymaster.sol\":3111:3112  0 */\n      0x00\n        /* \"@opengsn/contracts/src/BasePaymaster.sol\":3064:3076  relayRequest */\n      dup2\n        /* \"@opengsn/contracts/src/BasePaymaster.sol\":3064:3086  relayRequest.relayData */\n      dup1\n      0x20\n      add\n      swap1\n      tag_235\n      swap2\n      swap1\n      tag_220\n      jump\t// in\n    tag_235:\n        /* \"@opengsn/contracts/src/BasePaymaster.sol\":3064:3100  relayRequest.relayData.paymasterData */\n      dup1\n      0xc0\n      add\n      swap1\n      tag_236\n      swap2\n      swap1\n      tag_237\n      jump\t// in\n    tag_236:\n        /* \"@opengsn/contracts/src/BasePaymaster.sol\":3064:3107  relayRequest.relayData.paymasterData.length */\n      swap1\n      pop\n        /* \"@opengsn/contracts/src/BasePaymaster.sol\":3064:3112  relayRequest.relayData.paymasterData.length == 0 */\n      eq\n        /* \"@opengsn/contracts/src/BasePaymaster.sol\":3056:3145  require(relayRequest.relayData.paymasterData.length == 0, \"should have no paymasterData\") */\n      tag_238\n      jumpi\n      mload(0x40)\n      0x08c379a000000000000000000000000000000000000000000000000000000000\n      dup2\n      mstore\n      0x04\n      add\n      tag_239\n      swap1\n      tag_240\n      jump\t// in\n    tag_239:\n      mload(0x40)\n      dup1\n      swap2\n      sub\n      swap1\n      revert\n    tag_238:\n        /* \"@opengsn/contracts/src/BasePaymaster.sol\":2949:3152  function _verifyPaymasterData(GsnTypes.RelayRequest calldata relayRequest) internal virtual view {... */\n      pop\n      jump\t// out\n        /* \"@opengsn/contracts/src/BasePaymaster.sol\":3158:3318  function _verifyApprovalData(bytes calldata approvalData) internal virtual view{... */\n    tag_143:\n        /* \"@opengsn/contracts/src/BasePaymaster.sol\":3278:3279  0 */\n      0x00\n        /* \"@opengsn/contracts/src/BasePaymaster.sol\":3255:3267  approvalData */\n      dup3\n      dup3\n        /* \"@opengsn/contracts/src/BasePaymaster.sol\":3255:3274  approvalData.length */\n      swap1\n      pop\n        /* \"@opengsn/contracts/src/BasePaymaster.sol\":3255:3279  approvalData.length == 0 */\n      eq\n        /* \"@opengsn/contracts/src/BasePaymaster.sol\":3247:3311  require(approvalData.length == 0, \"should have no approvalData\") */\n      tag_242\n      jumpi\n      mload(0x40)\n      0x08c379a000000000000000000000000000000000000000000000000000000000\n      dup2\n      mstore\n      0x04\n      add\n      tag_243\n      swap1\n      tag_244\n      jump\t// in\n    tag_243:\n      mload(0x40)\n      dup1\n      swap2\n      sub\n      swap1\n      revert\n    tag_242:\n        /* \"@opengsn/contracts/src/BasePaymaster.sol\":3158:3318  function _verifyApprovalData(bytes calldata approvalData) internal virtual view{... */\n      pop\n      pop\n      jump\t// out\n        /* \"testSinglePaymaster.sol\":811:1280  function _preRelayedCall(\r... */\n    tag_145:\n        /* \"testSinglePaymaster.sol\":1058:1078  bytes memory context */\n      0x60\n        /* \"testSinglePaymaster.sol\":1080:1108  bool revertOnRecipientRevert */\n      0x00\n        /* \"testSinglePaymaster.sol\":1220:1226  target */\n      0x04\n      0x00\n      swap1\n      sload\n      swap1\n      0x0100\n      exp\n      swap1\n      div\n      0xffffffffffffffffffffffffffffffffffffffff\n      and\n        /* \"testSinglePaymaster.sol\":1195:1226  relayRequest.request.to==target */\n      0xffffffffffffffffffffffffffffffffffffffff\n      and\n        /* \"testSinglePaymaster.sol\":1195:1207  relayRequest */\n      dup9\n        /* \"testSinglePaymaster.sol\":1195:1215  relayRequest.request */\n      dup1\n      0x00\n      add\n      swap1\n      tag_246\n      swap2\n      swap1\n      tag_230\n      jump\t// in\n    tag_246:\n        /* \"testSinglePaymaster.sol\":1195:1218  relayRequest.request.to */\n      0x20\n      add\n      0x20\n      dup2\n      add\n      swap1\n      tag_247\n      swap2\n      swap1\n      tag_76\n      jump\t// in\n    tag_247:\n        /* \"testSinglePaymaster.sol\":1195:1226  relayRequest.request.to==target */\n      0xffffffffffffffffffffffffffffffffffffffff\n      and\n      eq\n        /* \"testSinglePaymaster.sol\":1187:1243  require(relayRequest.request.to==target, \"wrong target\") */\n      tag_248\n      jumpi\n      mload(0x40)\n      0x08c379a000000000000000000000000000000000000000000000000000000000\n      dup2\n      mstore\n      0x04\n      add\n      tag_249\n      swap1\n      tag_250\n      jump\t// in\n    tag_249:\n      mload(0x40)\n      dup1\n      swap2\n      sub\n      swap1\n      revert\n    tag_248:\n        /* \"testSinglePaymaster.sol\":1266:1271  false */\n      0x00\n        /* \"testSinglePaymaster.sol\":1254:1272  return (\"\", false) */\n      mload(0x40)\n      dup1\n      0x20\n      add\n      0x40\n      mstore\n      dup1\n      0x00\n      dup2\n      mstore\n      pop\n      swap1\n      swap2\n      pop\n      swap2\n      pop\n        /* \"testSinglePaymaster.sol\":811:1280  function _preRelayedCall(\r... */\n      swap7\n      pop\n      swap7\n      swap5\n      pop\n      pop\n      pop\n      pop\n      pop\n      jump\t// out\n        /* \"@openzeppelin/contracts/utils/introspection/ERC165.sol\":829:984  function supportsInterface(bytes4 interfaceId) public view virtual override returns (bool) {... */\n    tag_150:\n        /* \"@openzeppelin/contracts/utils/introspection/ERC165.sol\":914:918  bool */\n      0x00\n        /* \"@openzeppelin/contracts/utils/introspection/ERC165.sol\":952:977  type(IERC165).interfaceId */\n      0x01ffc9a700000000000000000000000000000000000000000000000000000000\n        /* \"@openzeppelin/contracts/utils/introspection/ERC165.sol\":937:977  interfaceId == type(IERC165).interfaceId */\n      not(0xffffffffffffffffffffffffffffffffffffffffffffffffffffffff)\n      and\n        /* \"@openzeppelin/contracts/utils/introspection/ERC165.sol\":937:948  interfaceId */\n      dup3\n        /* \"@openzeppelin/contracts/utils/introspection/ERC165.sol\":937:977  interfaceId == type(IERC165).interfaceId */\n      not(0xffffffffffffffffffffffffffffffffffffffffffffffffffffffff)\n      and\n      eq\n        /* \"@openzeppelin/contracts/utils/introspection/ERC165.sol\":930:977  return interfaceId == type(IERC165).interfaceId */\n      swap1\n      pop\n        /* \"@openzeppelin/contracts/utils/introspection/ERC165.sol\":829:984  function supportsInterface(bytes4 interfaceId) public view virtual override returns (bool) {... */\n      swap2\n      swap1\n      pop\n      jump\t// out\n        /* \"@openzeppelin/contracts/access/Ownable.sol\":1359:1489  function _checkOwner() internal view virtual {... */\n    tag_160:\n        /* \"@openzeppelin/contracts/access/Ownable.sol\":1433:1445  _msgSender() */\n      tag_253\n        /* \"@openzeppelin/contracts/access/Ownable.sol\":1433:1443  _msgSender */\n      tag_254\n        /* \"@openzeppelin/contracts/access/Ownable.sol\":1433:1445  _msgSender() */\n      jump\t// in\n    tag_253:\n        /* \"@openzeppelin/contracts/access/Ownable.sol\":1422:1445  owner() == _msgSender() */\n      0xffffffffffffffffffffffffffffffffffffffff\n      and\n        /* \"@openzeppelin/contracts/access/Ownable.sol\":1422:1429  owner() */\n      tag_255\n        /* \"@openzeppelin/contracts/access/Ownable.sol\":1422:1427  owner */\n      tag_89\n        /* \"@openzeppelin/contracts/access/Ownable.sol\":1422:1429  owner() */\n      jump\t// in\n    tag_255:\n        /* \"@openzeppelin/contracts/access/Ownable.sol\":1422:1445  owner() == _msgSender() */\n      0xffffffffffffffffffffffffffffffffffffffff\n      and\n      eq\n        /* \"@openzeppelin/contracts/access/Ownable.sol\":1414:1482  require(owner() == _msgSender(), \"Ownable: caller is not the owner\") */\n      tag_256\n      jumpi\n      mload(0x40)\n      0x08c379a000000000000000000000000000000000000000000000000000000000\n      dup2\n      mstore\n      0x04\n      add\n      tag_257\n      swap1\n      tag_258\n      jump\t// in\n    tag_257:\n      mload(0x40)\n      dup1\n      swap2\n      sub\n      swap1\n      revert\n    tag_256:\n        /* \"@openzeppelin/contracts/access/Ownable.sol\":1359:1489  function _checkOwner() internal view virtual {... */\n      jump\t// out\n        /* \"@openzeppelin/contracts/access/Ownable.sol\":2426:2613  function _transferOwnership(address newOwner) internal virtual {... */\n    tag_171:\n        /* \"@openzeppelin/contracts/access/Ownable.sol\":2499:2515  address oldOwner */\n      0x00\n        /* \"@openzeppelin/contracts/access/Ownable.sol\":2518:2524  _owner */\n      dup1\n      0x00\n      swap1\n      sload\n      swap1\n      0x0100\n      exp\n      swap1\n      div\n      0xffffffffffffffffffffffffffffffffffffffff\n      and\n        /* \"@openzeppelin/contracts/access/Ownable.sol\":2499:2524  address oldOwner = _owner */\n      swap1\n      pop\n        /* \"@openzeppelin/contracts/access/Ownable.sol\":2543:2551  newOwner */\n      dup2\n        /* \"@openzeppelin/contracts/access/Ownable.sol\":2534:2540  _owner */\n      0x00\n      dup1\n        /* \"@openzeppelin/contracts/access/Ownable.sol\":2534:2551  _owner = newOwner */\n      0x0100\n      exp\n      dup2\n      sload\n      dup2\n      0xffffffffffffffffffffffffffffffffffffffff\n      mul\n      not\n      and\n      swap1\n      dup4\n      0xffffffffffffffffffffffffffffffffffffffff\n      and\n      mul\n      or\n      swap1\n      sstore\n      pop\n        /* \"@openzeppelin/contracts/access/Ownable.sol\":2597:2605  newOwner */\n      dup2\n        /* \"@openzeppelin/contracts/access/Ownable.sol\":2566:2606  OwnershipTransferred(oldOwner, newOwner) */\n      0xffffffffffffffffffffffffffffffffffffffff\n      and\n        /* \"@openzeppelin/contracts/access/Ownable.sol\":2587:2595  oldOwner */\n      dup2\n        /* \"@openzeppelin/contracts/access/Ownable.sol\":2566:2606  OwnershipTransferred(oldOwner, newOwner) */\n      0xffffffffffffffffffffffffffffffffffffffff\n      and\n      0x8be0079c531659141344cd1fd0a4f28419497f9722a3daafe3b4186f6b6457e0\n      mload(0x40)\n      mload(0x40)\n      dup1\n      swap2\n      sub\n      swap1\n      log3\n        /* \"@openzeppelin/contracts/access/Ownable.sol\":2489:2613  {... */\n      pop\n        /* \"@openzeppelin/contracts/access/Ownable.sol\":2426:2613  function _transferOwnership(address newOwner) internal virtual {... */\n      pop\n      jump\t// out\n        /* \"testSinglePaymaster.sol\":1288:1569  function _postRelayedCall(\r... */\n    tag_175:\n      pop\n      pop\n      pop\n      pop\n      pop\n      jump\t// out\n        /* \"@openzeppelin/contracts/utils/introspection/ERC165Checker.sol\":1349:1631  function supportsInterface(address account, bytes4 interfaceId) internal view returns (bool) {... */\n    tag_185:\n        /* \"@openzeppelin/contracts/utils/introspection/ERC165Checker.sol\":1436:1440  bool */\n      0x00\n        /* \"@openzeppelin/contracts/utils/introspection/ERC165Checker.sol\":1543:1566  supportsERC165(account) */\n      tag_262\n        /* \"@openzeppelin/contracts/utils/introspection/ERC165Checker.sol\":1558:1565  account */\n      dup4\n        /* \"@openzeppelin/contracts/utils/introspection/ERC165Checker.sol\":1543:1557  supportsERC165 */\n      tag_263\n        /* \"@openzeppelin/contracts/utils/introspection/ERC165Checker.sol\":1543:1566  supportsERC165(account) */\n      jump\t// in\n    tag_262:\n        /* \"@openzeppelin/contracts/utils/introspection/ERC165Checker.sol\":1543:1624  supportsERC165(account) && supportsERC165InterfaceUnchecked(account, interfaceId) */\n      dup1\n      iszero\n      tag_264\n      jumpi\n      pop\n        /* \"@openzeppelin/contracts/utils/introspection/ERC165Checker.sol\":1570:1624  supportsERC165InterfaceUnchecked(account, interfaceId) */\n      tag_265\n        /* \"@openzeppelin/contracts/utils/introspection/ERC165Checker.sol\":1603:1610  account */\n      dup4\n        /* \"@openzeppelin/contracts/utils/introspection/ERC165Checker.sol\":1612:1623  interfaceId */\n      dup4\n        /* \"@openzeppelin/contracts/utils/introspection/ERC165Checker.sol\":1570:1602  supportsERC165InterfaceUnchecked */\n      tag_266\n        /* \"@openzeppelin/contracts/utils/introspection/ERC165Checker.sol\":1570:1624  supportsERC165InterfaceUnchecked(account, interfaceId) */\n      jump\t// in\n    tag_265:\n        /* \"@openzeppelin/contracts/utils/introspection/ERC165Checker.sol\":1543:1624  supportsERC165(account) && supportsERC165InterfaceUnchecked(account, interfaceId) */\n    tag_264:\n        /* \"@openzeppelin/contracts/utils/introspection/ERC165Checker.sol\":1536:1624  return supportsERC165(account) && supportsERC165InterfaceUnchecked(account, interfaceId) */\n      swap1\n      pop\n        /* \"@openzeppelin/contracts/utils/introspection/ERC165Checker.sol\":1349:1631  function supportsInterface(address account, bytes4 interfaceId) internal view returns (bool) {... */\n      swap3\n      swap2\n      pop\n      pop\n      jump\t// out\n        /* \"@opengsn/contracts/src/utils/GsnEip712Library.sol\":2158:2698  function verifyForwarderTrusted(GsnTypes.RelayRequest calldata relayRequest) internal view {... */\n    tag_227:\n        /* \"@opengsn/contracts/src/utils/GsnEip712Library.sol\":2260:2272  bool success */\n      0x00\n        /* \"@opengsn/contracts/src/utils/GsnEip712Library.sol\":2274:2290  bytes memory ret */\n      dup1\n        /* \"@opengsn/contracts/src/utils/GsnEip712Library.sol\":2294:2306  relayRequest */\n      dup3\n        /* \"@opengsn/contracts/src/utils/GsnEip712Library.sol\":2294:2314  relayRequest.request */\n      dup1\n      0x00\n      add\n      swap1\n      tag_268\n      swap2\n      swap1\n      tag_230\n      jump\t// in\n    tag_268:\n        /* \"@opengsn/contracts/src/utils/GsnEip712Library.sol\":2294:2317  relayRequest.request.to */\n      0x20\n      add\n      0x20\n      dup2\n      add\n      swap1\n      tag_269\n      swap2\n      swap1\n      tag_76\n      jump\t// in\n    tag_269:\n        /* \"@opengsn/contracts/src/utils/GsnEip712Library.sol\":2294:2328  relayRequest.request.to.staticcall */\n      0xffffffffffffffffffffffffffffffffffffffff\n      and\n        /* \"@opengsn/contracts/src/utils/GsnEip712Library.sol\":2382:2427  IERC2771Recipient.isTrustedForwarder.selector */\n      shl(0xe0, 0x572b6c05)\n        /* \"@opengsn/contracts/src/utils/GsnEip712Library.sol\":2429:2441  relayRequest */\n      dup5\n        /* \"@opengsn/contracts/src/utils/GsnEip712Library.sol\":2429:2451  relayRequest.relayData */\n      dup1\n      0x20\n      add\n      swap1\n      tag_270\n      swap2\n      swap1\n      tag_220\n      jump\t// in\n    tag_270:\n        /* \"@opengsn/contracts/src/utils/GsnEip712Library.sol\":2429:2461  relayRequest.relayData.forwarder */\n      0xa0\n      add\n      0x20\n      dup2\n      add\n      swap1\n      tag_271\n      swap2\n      swap1\n      tag_76\n      jump\t// in\n    tag_271:\n        /* \"@opengsn/contracts/src/utils/GsnEip712Library.sol\":2342:2475  abi.encodeWithSelector(... */\n      add(0x24, mload(0x40))\n      tag_272\n      swap2\n      swap1\n      tag_33\n      jump\t// in\n    tag_272:\n      mload(0x40)\n      0x20\n      dup2\n      dup4\n      sub\n      sub\n      dup2\n      mstore\n      swap1\n      0x40\n      mstore\n      swap1\n      not(0xffffffffffffffffffffffffffffffffffffffffffffffffffffffff)\n      and\n      0x20\n      dup3\n      add\n      dup1\n      mload\n      0xffffffffffffffffffffffffffffffffffffffffffffffffffffffff\n      dup4\n      dup2\n      dup4\n      and\n      or\n      dup4\n      mstore\n      pop\n      pop\n      pop\n      pop\n        /* \"@opengsn/contracts/src/utils/GsnEip712Library.sol\":2294:2485  relayRequest.request.to.staticcall(... */\n      mload(0x40)\n      tag_273\n      swap2\n      swap1\n      tag_274\n      jump\t// in\n    tag_273:\n      0x00\n      mload(0x40)\n      dup1\n      dup4\n      sub\n      dup2\n      dup6\n      gas\n      staticcall\n      swap2\n      pop\n      pop\n      returndatasize\n      dup1\n      0x00\n      dup2\n      eq\n      tag_277\n      jumpi\n      mload(0x40)\n      swap2\n      pop\n      and(add(returndatasize, 0x3f), not(0x1f))\n      dup3\n      add\n      0x40\n      mstore\n      returndatasize\n      dup3\n      mstore\n      returndatasize\n      0x00\n      0x20\n      dup5\n      add\n      returndatacopy\n      jump(tag_276)\n    tag_277:\n      0x60\n      swap2\n      pop\n    tag_276:\n      pop\n        /* \"@opengsn/contracts/src/utils/GsnEip712Library.sol\":2259:2485  (bool success, bytes memory ret) = relayRequest.request.to.staticcall(... */\n      swap2\n      pop\n      swap2\n      pop\n        /* \"@opengsn/contracts/src/utils/GsnEip712Library.sol\":2503:2510  success */\n      dup2\n        /* \"@opengsn/contracts/src/utils/GsnEip712Library.sol\":2495:2543  require(success, \"isTrustedForwarder: reverted\") */\n      tag_278\n      jumpi\n      mload(0x40)\n      0x08c379a000000000000000000000000000000000000000000000000000000000\n      dup2\n      mstore\n      0x04\n      add\n      tag_279\n      swap1\n      tag_280\n      jump\t// in\n    tag_279:\n      mload(0x40)\n      dup1\n      swap2\n      sub\n      swap1\n      revert\n    tag_278:\n        /* \"@opengsn/contracts/src/utils/GsnEip712Library.sol\":2575:2577  32 */\n      0x20\n        /* \"@opengsn/contracts/src/utils/GsnEip712Library.sol\":2561:2564  ret */\n      dup2\n        /* \"@opengsn/contracts/src/utils/GsnEip712Library.sol\":2561:2571  ret.length */\n      mload\n        /* \"@opengsn/contracts/src/utils/GsnEip712Library.sol\":2561:2577  ret.length == 32 */\n      eq\n        /* \"@opengsn/contracts/src/utils/GsnEip712Library.sol\":2553:2614  require(ret.length == 32, \"isTrustedForwarder: bad response\") */\n      tag_281\n      jumpi\n      mload(0x40)\n      0x08c379a000000000000000000000000000000000000000000000000000000000\n      dup2\n      mstore\n      0x04\n      add\n      tag_282\n      swap1\n      tag_283\n      jump\t// in\n    tag_282:\n      mload(0x40)\n      dup1\n      swap2\n      sub\n      swap1\n      revert\n    tag_281:\n        /* \"@opengsn/contracts/src/utils/GsnEip712Library.sol\":2643:2646  ret */\n      dup1\n        /* \"@opengsn/contracts/src/utils/GsnEip712Library.sol\":2632:2655  abi.decode(ret, (bool)) */\n      dup1\n      0x20\n      add\n      swap1\n      mload\n      dup2\n      add\n      swap1\n      tag_284\n      swap2\n      swap1\n      tag_285\n      jump\t// in\n    tag_284:\n        /* \"@opengsn/contracts/src/utils/GsnEip712Library.sol\":2624:2691  require(abi.decode(ret, (bool)), \"invalid forwarder for recipient\") */\n      tag_286\n      jumpi\n      mload(0x40)\n      0x08c379a000000000000000000000000000000000000000000000000000000000\n      dup2\n      mstore\n      0x04\n      add\n      tag_287\n      swap1\n      tag_288\n      jump\t// in\n    tag_287:\n      mload(0x40)\n      dup1\n      swap2\n      sub\n      swap1\n      revert\n    tag_286:\n        /* \"@opengsn/contracts/src/utils/GsnEip712Library.sol\":2249:2698  {... */\n      pop\n      pop\n        /* \"@opengsn/contracts/src/utils/GsnEip712Library.sol\":2158:2698  function verifyForwarderTrusted(GsnTypes.RelayRequest calldata relayRequest) internal view {... */\n      pop\n      jump\t// out\n        /* \"@openzeppelin/contracts/utils/Context.sol\":640:736  function _msgSender() internal view virtual returns (address) {... */\n    tag_254:\n        /* \"@openzeppelin/contracts/utils/Context.sol\":693:700  address */\n      0x00\n        /* \"@openzeppelin/contracts/utils/Context.sol\":719:729  msg.sender */\n      caller\n        /* \"@openzeppelin/contracts/utils/Context.sol\":712:729  return msg.sender */\n      swap1\n      pop\n        /* \"@openzeppelin/contracts/utils/Context.sol\":640:736  function _msgSender() internal view virtual returns (address) {... */\n      swap1\n      jump\t// out\n        /* \"@openzeppelin/contracts/utils/introspection/ERC165Checker.sol\":704:1131  function supportsERC165(address account) internal view returns (bool) {... */\n    tag_263:\n        /* \"@openzeppelin/contracts/utils/introspection/ERC165Checker.sol\":768:772  bool */\n      0x00\n        /* \"@openzeppelin/contracts/utils/introspection/ERC165Checker.sol\":975:1043  supportsERC165InterfaceUnchecked(account, type(IERC165).interfaceId) */\n      tag_291\n        /* \"@openzeppelin/contracts/utils/introspection/ERC165Checker.sol\":1008:1015  account */\n      dup3\n        /* \"@openzeppelin/contracts/utils/introspection/ERC165Checker.sol\":1017:1042  type(IERC165).interfaceId */\n      0x01ffc9a700000000000000000000000000000000000000000000000000000000\n        /* \"@openzeppelin/contracts/utils/introspection/ERC165Checker.sol\":975:1007  supportsERC165InterfaceUnchecked */\n      tag_266\n        /* \"@openzeppelin/contracts/utils/introspection/ERC165Checker.sol\":975:1043  supportsERC165InterfaceUnchecked(account, type(IERC165).interfaceId) */\n      jump\t// in\n    tag_291:\n        /* \"@openzeppelin/contracts/utils/introspection/ERC165Checker.sol\":975:1124  supportsERC165InterfaceUnchecked(account, type(IERC165).interfaceId) &&... */\n      dup1\n      iszero\n      tag_292\n      jumpi\n      pop\n        /* \"@openzeppelin/contracts/utils/introspection/ERC165Checker.sol\":1060:1124  supportsERC165InterfaceUnchecked(account, _INTERFACE_ID_INVALID) */\n      tag_293\n        /* \"@openzeppelin/contracts/utils/introspection/ERC165Checker.sol\":1093:1100  account */\n      dup3\n        /* \"@openzeppelin/contracts/utils/introspection/ERC165Checker.sol\":599:609  0xffffffff */\n      0xffffffff\n        /* \"@openzeppelin/contracts/utils/introspection/ERC165Checker.sol\":1102:1123  _INTERFACE_ID_INVALID */\n      0xe0\n      shl\n        /* \"@openzeppelin/contracts/utils/introspection/ERC165Checker.sol\":1060:1092  supportsERC165InterfaceUnchecked */\n      tag_266\n        /* \"@openzeppelin/contracts/utils/introspection/ERC165Checker.sol\":1060:1124  supportsERC165InterfaceUnchecked(account, _INTERFACE_ID_INVALID) */\n      jump\t// in\n    tag_293:\n        /* \"@openzeppelin/contracts/utils/introspection/ERC165Checker.sol\":1059:1124  !supportsERC165InterfaceUnchecked(account, _INTERFACE_ID_INVALID) */\n      iszero\n        /* \"@openzeppelin/contracts/utils/introspection/ERC165Checker.sol\":975:1124  supportsERC165InterfaceUnchecked(account, type(IERC165).interfaceId) &&... */\n    tag_292:\n        /* \"@openzeppelin/contracts/utils/introspection/ERC165Checker.sol\":956:1124  return... */\n      swap1\n      pop\n        /* \"@openzeppelin/contracts/utils/introspection/ERC165Checker.sol\":704:1131  function supportsERC165(address account) internal view returns (bool) {... */\n      swap2\n      swap1\n      pop\n      jump\t// out\n        /* \"@openzeppelin/contracts/utils/introspection/ERC165Checker.sol\":4421:5068  function supportsERC165InterfaceUnchecked(address account, bytes4 interfaceId) internal view returns (bool) {... */\n    tag_266:\n        /* \"@openzeppelin/contracts/utils/introspection/ERC165Checker.sol\":4523:4527  bool */\n      0x00\n        /* \"@openzeppelin/contracts/utils/introspection/ERC165Checker.sol\":4563:4589  bytes memory encodedParams */\n      dup1\n        /* \"@openzeppelin/contracts/utils/introspection/ERC165Checker.sol\":4615:4649  IERC165.supportsInterface.selector */\n      shl(0xe0, 0x01ffc9a7)\n        /* \"@openzeppelin/contracts/utils/introspection/ERC165Checker.sol\":4651:4662  interfaceId */\n      dup4\n        /* \"@openzeppelin/contracts/utils/introspection/ERC165Checker.sol\":4592:4663  abi.encodeWithSelector(IERC165.supportsInterface.selector, interfaceId) */\n      add(0x24, mload(0x40))\n      tag_295\n      swap2\n      swap1\n      tag_296\n      jump\t// in\n    tag_295:\n      mload(0x40)\n      0x20\n      dup2\n      dup4\n      sub\n      sub\n      dup2\n      mstore\n      swap1\n      0x40\n      mstore\n      swap1\n      not(0xffffffffffffffffffffffffffffffffffffffffffffffffffffffff)\n      and\n      0x20\n      dup3\n      add\n      dup1\n      mload\n      0xffffffffffffffffffffffffffffffffffffffffffffffffffffffff\n      dup4\n      dup2\n      dup4\n      and\n      or\n      dup4\n      mstore\n      pop\n      pop\n      pop\n      pop\n        /* \"@openzeppelin/contracts/utils/introspection/ERC165Checker.sol\":4563:4663  bytes memory encodedParams = abi.encodeWithSelector(IERC165.supportsInterface.selector, interfaceId) */\n      swap1\n      pop\n        /* \"@openzeppelin/contracts/utils/introspection/ERC165Checker.sol\":4705:4717  bool success */\n      0x00\n        /* \"@openzeppelin/contracts/utils/introspection/ERC165Checker.sol\":4727:4745  uint256 returnSize */\n      dup1\n        /* \"@openzeppelin/contracts/utils/introspection/ERC165Checker.sol\":4755:4774  uint256 returnValue */\n      0x00\n        /* \"@openzeppelin/contracts/utils/introspection/ERC165Checker.sol\":4899:4903  0x20 */\n      0x20\n        /* \"@openzeppelin/contracts/utils/introspection/ERC165Checker.sol\":4893:4897  0x00 */\n      0x00\n        /* \"@openzeppelin/contracts/utils/introspection/ERC165Checker.sol\":4877:4890  encodedParams */\n      dup6\n        /* \"@openzeppelin/contracts/utils/introspection/ERC165Checker.sol\":4871:4891  mload(encodedParams) */\n      mload\n        /* \"@openzeppelin/contracts/utils/introspection/ERC165Checker.sol\":4864:4868  0x20 */\n      0x20\n        /* \"@openzeppelin/contracts/utils/introspection/ERC165Checker.sol\":4849:4862  encodedParams */\n      dup8\n        /* \"@openzeppelin/contracts/utils/introspection/ERC165Checker.sol\":4845:4869  add(encodedParams, 0x20) */\n      add\n        /* \"@openzeppelin/contracts/utils/introspection/ERC165Checker.sol\":4836:4843  account */\n      dup11\n        /* \"@openzeppelin/contracts/utils/introspection/ERC165Checker.sol\":4829:4834  30000 */\n      0x7530\n        /* \"@openzeppelin/contracts/utils/introspection/ERC165Checker.sol\":4818:4904  staticcall(30000, account, add(encodedParams, 0x20), mload(encodedParams), 0x00, 0x20) */\n      staticcall\n        /* \"@openzeppelin/contracts/utils/introspection/ERC165Checker.sol\":4807:4904  success := staticcall(30000, account, add(encodedParams, 0x20), mload(encodedParams), 0x00, 0x20) */\n      swap3\n      pop\n        /* \"@openzeppelin/contracts/utils/introspection/ERC165Checker.sol\":4931:4947  returndatasize() */\n      returndatasize\n        /* \"@openzeppelin/contracts/utils/introspection/ERC165Checker.sol\":4917:4947  returnSize := returndatasize() */\n      swap2\n      pop\n        /* \"@openzeppelin/contracts/utils/introspection/ERC165Checker.sol\":4981:4985  0x00 */\n      0x00\n        /* \"@openzeppelin/contracts/utils/introspection/ERC165Checker.sol\":4975:4986  mload(0x00) */\n      mload\n        /* \"@openzeppelin/contracts/utils/introspection/ERC165Checker.sol\":4960:4986  returnValue := mload(0x00) */\n      swap1\n      pop\n        /* \"@openzeppelin/contracts/utils/introspection/ERC165Checker.sol\":5013:5020  success */\n      dup3\n        /* \"@openzeppelin/contracts/utils/introspection/ERC165Checker.sol\":5013:5042  success && returnSize >= 0x20 */\n      dup1\n      iszero\n      tag_297\n      jumpi\n      pop\n        /* \"@openzeppelin/contracts/utils/introspection/ERC165Checker.sol\":5038:5042  0x20 */\n      0x20\n        /* \"@openzeppelin/contracts/utils/introspection/ERC165Checker.sol\":5024:5034  returnSize */\n      dup3\n        /* \"@openzeppelin/contracts/utils/introspection/ERC165Checker.sol\":5024:5042  returnSize >= 0x20 */\n      lt\n      iszero\n        /* \"@openzeppelin/contracts/utils/introspection/ERC165Checker.sol\":5013:5042  success && returnSize >= 0x20 */\n    tag_297:\n        /* \"@openzeppelin/contracts/utils/introspection/ERC165Checker.sol\":5013:5061  success && returnSize >= 0x20 && returnValue > 0 */\n      dup1\n      iszero\n      tag_298\n      jumpi\n      pop\n        /* \"@openzeppelin/contracts/utils/introspection/ERC165Checker.sol\":5060:5061  0 */\n      0x00\n        /* \"@openzeppelin/contracts/utils/introspection/ERC165Checker.sol\":5046:5057  returnValue */\n      dup2\n        /* \"@openzeppelin/contracts/utils/introspection/ERC165Checker.sol\":5046:5061  returnValue > 0 */\n      gt\n        /* \"@openzeppelin/contracts/utils/introspection/ERC165Checker.sol\":5013:5061  success && returnSize >= 0x20 && returnValue > 0 */\n    tag_298:\n        /* \"@openzeppelin/contracts/utils/introspection/ERC165Checker.sol\":5006:5061  return success && returnSize >= 0x20 && returnValue > 0 */\n      swap5\n      pop\n      pop\n      pop\n      pop\n      pop\n        /* \"@openzeppelin/contracts/utils/introspection/ERC165Checker.sol\":4421:5068  function supportsERC165InterfaceUnchecked(address account, bytes4 interfaceId) internal view returns (bool) {... */\n      swap3\n      swap2\n      pop\n      pop\n      jump\t// out\n    tag_193:\n      mload(0x40)\n      dup1\n      0x80\n      add\n      0x40\n      mstore\n      dup1\n      0x00\n      dup2\n      mstore\n      0x20\n      add\n      0x00\n      dup2\n      mstore\n      0x20\n      add\n      0x00\n      dup2\n      mstore\n      0x20\n      add\n      0x00\n      dup2\n      mstore\n      pop\n      swap1\n      jump\t// out\n        /* \"#utility.yul\":7:146   */\n    tag_300:\n        /* \"#utility.yul\":53:58   */\n      0x00\n        /* \"#utility.yul\":91:97   */\n      dup2\n        /* \"#utility.yul\":78:98   */\n      calldataload\n        /* \"#utility.yul\":69:98   */\n      swap1\n      pop\n        /* \"#utility.yul\":107:140   */\n      tag_302\n        /* \"#utility.yul\":134:139   */\n      dup2\n        /* \"#utility.yul\":107:140   */\n      tag_303\n      jump\t// in\n    tag_302:\n        /* \"#utility.yul\":7:146   */\n      swap3\n      swap2\n      pop\n      pop\n      jump\t// out\n        /* \"#utility.yul\":152:307   */\n    tag_304:\n        /* \"#utility.yul\":206:211   */\n      0x00\n        /* \"#utility.yul\":244:250   */\n      dup2\n        /* \"#utility.yul\":231:251   */\n      calldataload\n        /* \"#utility.yul\":222:251   */\n      swap1\n      pop\n        /* \"#utility.yul\":260:301   */\n      tag_306\n        /* \"#utility.yul\":295:300   */\n      dup2\n        /* \"#utility.yul\":260:301   */\n      tag_307\n      jump\t// in\n    tag_306:\n        /* \"#utility.yul\":152:307   */\n      swap3\n      swap2\n      pop\n      pop\n      jump\t// out\n        /* \"#utility.yul\":313:446   */\n    tag_308:\n        /* \"#utility.yul\":356:361   */\n      0x00\n        /* \"#utility.yul\":394:400   */\n      dup2\n        /* \"#utility.yul\":381:401   */\n      calldataload\n        /* \"#utility.yul\":372:401   */\n      swap1\n      pop\n        /* \"#utility.yul\":410:440   */\n      tag_310\n        /* \"#utility.yul\":434:439   */\n      dup2\n        /* \"#utility.yul\":410:440   */\n      tag_311\n      jump\t// in\n    tag_310:\n        /* \"#utility.yul\":313:446   */\n      swap3\n      swap2\n      pop\n      pop\n      jump\t// out\n        /* \"#utility.yul\":452:589   */\n    tag_312:\n        /* \"#utility.yul\":506:511   */\n      0x00\n        /* \"#utility.yul\":537:543   */\n      dup2\n        /* \"#utility.yul\":531:544   */\n      mload\n        /* \"#utility.yul\":522:544   */\n      swap1\n      pop\n        /* \"#utility.yul\":553:583   */\n      tag_314\n        /* \"#utility.yul\":577:582   */\n      dup2\n        /* \"#utility.yul\":553:583   */\n      tag_311\n      jump\t// in\n    tag_314:\n        /* \"#utility.yul\":452:589   */\n      swap3\n      swap2\n      pop\n      pop\n      jump\t// out\n        /* \"#utility.yul\":595:732   */\n    tag_315:\n        /* \"#utility.yul\":640:645   */\n      0x00\n        /* \"#utility.yul\":678:684   */\n      dup2\n        /* \"#utility.yul\":665:685   */\n      calldataload\n        /* \"#utility.yul\":656:685   */\n      swap1\n      pop\n        /* \"#utility.yul\":694:726   */\n      tag_317\n        /* \"#utility.yul\":720:725   */\n      dup2\n        /* \"#utility.yul\":694:726   */\n      tag_318\n      jump\t// in\n    tag_317:\n        /* \"#utility.yul\":595:732   */\n      swap3\n      swap2\n      pop\n      pop\n      jump\t// out\n        /* \"#utility.yul\":751:1303   */\n    tag_319:\n        /* \"#utility.yul\":808:816   */\n      0x00\n        /* \"#utility.yul\":818:824   */\n      dup1\n        /* \"#utility.yul\":868:871   */\n      dup4\n        /* \"#utility.yul\":861:865   */\n      0x1f\n        /* \"#utility.yul\":853:859   */\n      dup5\n        /* \"#utility.yul\":849:866   */\n      add\n        /* \"#utility.yul\":845:872   */\n      slt\n        /* \"#utility.yul\":835:957   */\n      tag_321\n      jumpi\n        /* \"#utility.yul\":876:955   */\n      tag_322\n      tag_323\n      jump\t// in\n    tag_322:\n        /* \"#utility.yul\":835:957   */\n    tag_321:\n        /* \"#utility.yul\":989:995   */\n      dup3\n        /* \"#utility.yul\":976:996   */\n      calldataload\n        /* \"#utility.yul\":966:996   */\n      swap1\n      pop\n        /* \"#utility.yul\":1019:1037   */\n      0xffffffffffffffff\n        /* \"#utility.yul\":1011:1017   */\n      dup2\n        /* \"#utility.yul\":1008:1038   */\n      gt\n        /* \"#utility.yul\":1005:1122   */\n      iszero\n      tag_324\n      jumpi\n        /* \"#utility.yul\":1041:1120   */\n      tag_325\n      tag_326\n      jump\t// in\n    tag_325:\n        /* \"#utility.yul\":1005:1122   */\n    tag_324:\n        /* \"#utility.yul\":1155:1159   */\n      0x20\n        /* \"#utility.yul\":1147:1153   */\n      dup4\n        /* \"#utility.yul\":1143:1160   */\n      add\n        /* \"#utility.yul\":1131:1160   */\n      swap2\n      pop\n        /* \"#utility.yul\":1209:1212   */\n      dup4\n        /* \"#utility.yul\":1201:1205   */\n      0x01\n        /* \"#utility.yul\":1193:1199   */\n      dup3\n        /* \"#utility.yul\":1189:1206   */\n      mul\n        /* \"#utility.yul\":1179:1187   */\n      dup4\n        /* \"#utility.yul\":1175:1207   */\n      add\n        /* \"#utility.yul\":1172:1213   */\n      gt\n        /* \"#utility.yul\":1169:1297   */\n      iszero\n      tag_327\n      jumpi\n        /* \"#utility.yul\":1216:1295   */\n      tag_328\n      tag_329\n      jump\t// in\n    tag_328:\n        /* \"#utility.yul\":1169:1297   */\n    tag_327:\n        /* \"#utility.yul\":751:1303   */\n      swap3\n      pop\n      swap3\n      swap1\n      pop\n      jump\t// out\n        /* \"#utility.yul\":1309:1482   */\n    tag_330:\n        /* \"#utility.yul\":1372:1377   */\n      0x00\n        /* \"#utility.yul\":1410:1416   */\n      dup2\n        /* \"#utility.yul\":1397:1417   */\n      calldataload\n        /* \"#utility.yul\":1388:1417   */\n      swap1\n      pop\n        /* \"#utility.yul\":1426:1476   */\n      tag_332\n        /* \"#utility.yul\":1470:1475   */\n      dup2\n        /* \"#utility.yul\":1426:1476   */\n      tag_333\n      jump\t// in\n    tag_332:\n        /* \"#utility.yul\":1309:1482   */\n      swap3\n      swap2\n      pop\n      pop\n      jump\t// out\n        /* \"#utility.yul\":1521:1755   */\n    tag_334:\n        /* \"#utility.yul\":1596:1601   */\n      0x00\n        /* \"#utility.yul\":1637:1640   */\n      0x0100\n        /* \"#utility.yul\":1628:1634   */\n      dup3\n        /* \"#utility.yul\":1623:1626   */\n      dup5\n        /* \"#utility.yul\":1619:1635   */\n      sub\n        /* \"#utility.yul\":1615:1641   */\n      slt\n        /* \"#utility.yul\":1612:1725   */\n      iszero\n      tag_336\n      jumpi\n        /* \"#utility.yul\":1644:1723   */\n      tag_337\n      tag_338\n      jump\t// in\n    tag_337:\n        /* \"#utility.yul\":1612:1725   */\n    tag_336:\n        /* \"#utility.yul\":1743:1749   */\n      dup2\n        /* \"#utility.yul\":1734:1749   */\n      swap1\n      pop\n        /* \"#utility.yul\":1521:1755   */\n      swap3\n      swap2\n      pop\n      pop\n      jump\t// out\n        /* \"#utility.yul\":1797:2033   */\n    tag_339:\n        /* \"#utility.yul\":1875:1880   */\n      0x00\n        /* \"#utility.yul\":1916:1918   */\n      0x40\n        /* \"#utility.yul\":1907:1913   */\n      dup3\n        /* \"#utility.yul\":1902:1905   */\n      dup5\n        /* \"#utility.yul\":1898:1914   */\n      sub\n        /* \"#utility.yul\":1894:1919   */\n      slt\n        /* \"#utility.yul\":1891:2003   */\n      iszero\n      tag_341\n      jumpi\n        /* \"#utility.yul\":1922:2001   */\n      tag_342\n      tag_338\n      jump\t// in\n    tag_342:\n        /* \"#utility.yul\":1891:2003   */\n    tag_341:\n        /* \"#utility.yul\":2021:2027   */\n      dup2\n        /* \"#utility.yul\":2012:2027   */\n      swap1\n      pop\n        /* \"#utility.yul\":1797:2033   */\n      swap3\n      swap2\n      pop\n      pop\n      jump\t// out\n        /* \"#utility.yul\":2039:2178   */\n    tag_343:\n        /* \"#utility.yul\":2085:2090   */\n      0x00\n        /* \"#utility.yul\":2123:2129   */\n      dup2\n        /* \"#utility.yul\":2110:2130   */\n      calldataload\n        /* \"#utility.yul\":2101:2130   */\n      swap1\n      pop\n        /* \"#utility.yul\":2139:2172   */\n      tag_345\n        /* \"#utility.yul\":2166:2171   */\n      dup2\n        /* \"#utility.yul\":2139:2172   */\n      tag_346\n      jump\t// in\n    tag_345:\n        /* \"#utility.yul\":2039:2178   */\n      swap3\n      swap2\n      pop\n      pop\n      jump\t// out\n        /* \"#utility.yul\":2184:2327   */\n    tag_347:\n        /* \"#utility.yul\":2241:2246   */\n      0x00\n        /* \"#utility.yul\":2272:2278   */\n      dup2\n        /* \"#utility.yul\":2266:2279   */\n      mload\n        /* \"#utility.yul\":2257:2279   */\n      swap1\n      pop\n        /* \"#utility.yul\":2288:2321   */\n      tag_349\n        /* \"#utility.yul\":2315:2320   */\n      dup2\n        /* \"#utility.yul\":2288:2321   */\n      tag_346\n      jump\t// in\n    tag_349:\n        /* \"#utility.yul\":2184:2327   */\n      swap3\n      swap2\n      pop\n      pop\n      jump\t// out\n        /* \"#utility.yul\":2333:2662   */\n    tag_76:\n        /* \"#utility.yul\":2392:2398   */\n      0x00\n        /* \"#utility.yul\":2441:2443   */\n      0x20\n        /* \"#utility.yul\":2429:2438   */\n      dup3\n        /* \"#utility.yul\":2420:2427   */\n      dup5\n        /* \"#utility.yul\":2416:2439   */\n      sub\n        /* \"#utility.yul\":2412:2444   */\n      slt\n        /* \"#utility.yul\":2409:2528   */\n      iszero\n      tag_351\n      jumpi\n        /* \"#utility.yul\":2447:2526   */\n      tag_352\n      tag_353\n      jump\t// in\n    tag_352:\n        /* \"#utility.yul\":2409:2528   */\n    tag_351:\n        /* \"#utility.yul\":2567:2568   */\n      0x00\n        /* \"#utility.yul\":2592:2645   */\n      tag_354\n        /* \"#utility.yul\":2637:2644   */\n      dup5\n        /* \"#utility.yul\":2628:2634   */\n      dup3\n        /* \"#utility.yul\":2617:2626   */\n      dup6\n        /* \"#utility.yul\":2613:2635   */\n      add\n        /* \"#utility.yul\":2592:2645   */\n      tag_300\n      jump\t// in\n    tag_354:\n        /* \"#utility.yul\":2582:2645   */\n      swap2\n      pop\n        /* \"#utility.yul\":2538:2655   */\n      pop\n        /* \"#utility.yul\":2333:2662   */\n      swap3\n      swap2\n      pop\n      pop\n      jump\t// out\n        /* \"#utility.yul\":2668:3013   */\n    tag_285:\n        /* \"#utility.yul\":2735:2741   */\n      0x00\n        /* \"#utility.yul\":2784:2786   */\n      0x20\n        /* \"#utility.yul\":2772:2781   */\n      dup3\n        /* \"#utility.yul\":2763:2770   */\n      dup5\n        /* \"#utility.yul\":2759:2782   */\n      sub\n        /* \"#utility.yul\":2755:2787   */\n      slt\n        /* \"#utility.yul\":2752:2871   */\n      iszero\n      tag_356\n      jumpi\n        /* \"#utility.yul\":2790:2869   */\n      tag_357\n      tag_353\n      jump\t// in\n    tag_357:\n        /* \"#utility.yul\":2752:2871   */\n    tag_356:\n        /* \"#utility.yul\":2910:2911   */\n      0x00\n        /* \"#utility.yul\":2935:2996   */\n      tag_358\n        /* \"#utility.yul\":2988:2995   */\n      dup5\n        /* \"#utility.yul\":2979:2985   */\n      dup3\n        /* \"#utility.yul\":2968:2977   */\n      dup6\n        /* \"#utility.yul\":2964:2986   */\n      add\n        /* \"#utility.yul\":2935:2996   */\n      tag_312\n      jump\t// in\n    tag_358:\n        /* \"#utility.yul\":2925:2996   */\n      swap2\n      pop\n        /* \"#utility.yul\":2881:3006   */\n      pop\n        /* \"#utility.yul\":2668:3013   */\n      swap3\n      swap2\n      pop\n      pop\n      jump\t// out\n        /* \"#utility.yul\":3019:3346   */\n    tag_47:\n        /* \"#utility.yul\":3077:3083   */\n      0x00\n        /* \"#utility.yul\":3126:3128   */\n      0x20\n        /* \"#utility.yul\":3114:3123   */\n      dup3\n        /* \"#utility.yul\":3105:3112   */\n      dup5\n        /* \"#utility.yul\":3101:3124   */\n      sub\n        /* \"#utility.yul\":3097:3129   */\n      slt\n        /* \"#utility.yul\":3094:3213   */\n      iszero\n      tag_360\n      jumpi\n        /* \"#utility.yul\":3132:3211   */\n      tag_361\n      tag_353\n      jump\t// in\n    tag_361:\n        /* \"#utility.yul\":3094:3213   */\n    tag_360:\n        /* \"#utility.yul\":3252:3253   */\n      0x00\n        /* \"#utility.yul\":3277:3329   */\n      tag_362\n        /* \"#utility.yul\":3321:3328   */\n      dup5\n        /* \"#utility.yul\":3312:3318   */\n      dup3\n        /* \"#utility.yul\":3301:3310   */\n      dup6\n        /* \"#utility.yul\":3297:3319   */\n      add\n        /* \"#utility.yul\":3277:3329   */\n      tag_315\n      jump\t// in\n    tag_362:\n        /* \"#utility.yul\":3267:3329   */\n      swap2\n      pop\n        /* \"#utility.yul\":3223:3339   */\n      pop\n        /* \"#utility.yul\":3019:3346   */\n      swap3\n      swap2\n      pop\n      pop\n      jump\t// out\n        /* \"#utility.yul\":3352:4527   */\n    tag_71:\n        /* \"#utility.yul\":3475:3481   */\n      0x00\n        /* \"#utility.yul\":3483:3489   */\n      dup1\n        /* \"#utility.yul\":3491:3497   */\n      0x00\n        /* \"#utility.yul\":3499:3505   */\n      dup1\n        /* \"#utility.yul\":3507:3513   */\n      0x00\n        /* \"#utility.yul\":3556:3559   */\n      0x80\n        /* \"#utility.yul\":3544:3553   */\n      dup7\n        /* \"#utility.yul\":3535:3542   */\n      dup9\n        /* \"#utility.yul\":3531:3554   */\n      sub\n        /* \"#utility.yul\":3527:3560   */\n      slt\n        /* \"#utility.yul\":3524:3644   */\n      iszero\n      tag_364\n      jumpi\n        /* \"#utility.yul\":3563:3642   */\n      tag_365\n      tag_353\n      jump\t// in\n    tag_365:\n        /* \"#utility.yul\":3524:3644   */\n    tag_364:\n        /* \"#utility.yul\":3711:3712   */\n      0x00\n        /* \"#utility.yul\":3700:3709   */\n      dup7\n        /* \"#utility.yul\":3696:3713   */\n      add\n        /* \"#utility.yul\":3683:3714   */\n      calldataload\n        /* \"#utility.yul\":3741:3759   */\n      0xffffffffffffffff\n        /* \"#utility.yul\":3733:3739   */\n      dup2\n        /* \"#utility.yul\":3730:3760   */\n      gt\n        /* \"#utility.yul\":3727:3844   */\n      iszero\n      tag_366\n      jumpi\n        /* \"#utility.yul\":3763:3842   */\n      tag_367\n      tag_368\n      jump\t// in\n    tag_367:\n        /* \"#utility.yul\":3727:3844   */\n    tag_366:\n        /* \"#utility.yul\":3876:3940   */\n      tag_369\n        /* \"#utility.yul\":3932:3939   */\n      dup9\n        /* \"#utility.yul\":3923:3929   */\n      dup3\n        /* \"#utility.yul\":3912:3921   */\n      dup10\n        /* \"#utility.yul\":3908:3930   */\n      add\n        /* \"#utility.yul\":3876:3940   */\n      tag_319\n      jump\t// in\n    tag_369:\n        /* \"#utility.yul\":3858:3940   */\n      swap6\n      pop\n      swap6\n      pop\n        /* \"#utility.yul\":3654:3950   */\n      pop\n        /* \"#utility.yul\":3989:3991   */\n      0x20\n        /* \"#utility.yul\":4015:4065   */\n      tag_370\n        /* \"#utility.yul\":4057:4064   */\n      dup9\n        /* \"#utility.yul\":4048:4054   */\n      dup3\n        /* \"#utility.yul\":4037:4046   */\n      dup10\n        /* \"#utility.yul\":4033:4055   */\n      add\n        /* \"#utility.yul\":4015:4065   */\n      tag_308\n      jump\t// in\n    tag_370:\n        /* \"#utility.yul\":4005:4065   */\n      swap4\n      pop\n        /* \"#utility.yul\":3960:4075   */\n      pop\n        /* \"#utility.yul\":4114:4116   */\n      0x40\n        /* \"#utility.yul\":4140:4193   */\n      tag_371\n        /* \"#utility.yul\":4185:4192   */\n      dup9\n        /* \"#utility.yul\":4176:4182   */\n      dup3\n        /* \"#utility.yul\":4165:4174   */\n      dup10\n        /* \"#utility.yul\":4161:4183   */\n      add\n        /* \"#utility.yul\":4140:4193   */\n      tag_343\n      jump\t// in\n    tag_371:\n        /* \"#utility.yul\":4130:4193   */\n      swap3\n      pop\n        /* \"#utility.yul\":4085:4203   */\n      pop\n        /* \"#utility.yul\":4270:4272   */\n      0x60\n        /* \"#utility.yul\":4259:4268   */\n      dup7\n        /* \"#utility.yul\":4255:4273   */\n      add\n        /* \"#utility.yul\":4242:4274   */\n      calldataload\n        /* \"#utility.yul\":4301:4319   */\n      0xffffffffffffffff\n        /* \"#utility.yul\":4293:4299   */\n      dup2\n        /* \"#utility.yul\":4290:4320   */\n      gt\n        /* \"#utility.yul\":4287:4404   */\n      iszero\n      tag_372\n      jumpi\n        /* \"#utility.yul\":4323:4402   */\n      tag_373\n      tag_368\n      jump\t// in\n    tag_373:\n        /* \"#utility.yul\":4287:4404   */\n    tag_372:\n        /* \"#utility.yul\":4428:4510   */\n      tag_374\n        /* \"#utility.yul\":4502:4509   */\n      dup9\n        /* \"#utility.yul\":4493:4499   */\n      dup3\n        /* \"#utility.yul\":4482:4491   */\n      dup10\n        /* \"#utility.yul\":4478:4500   */\n      add\n        /* \"#utility.yul\":4428:4510   */\n      tag_334\n      jump\t// in\n    tag_374:\n        /* \"#utility.yul\":4418:4510   */\n      swap2\n      pop\n        /* \"#utility.yul\":4213:4520   */\n      pop\n        /* \"#utility.yul\":3352:4527   */\n      swap3\n      swap6\n      pop\n      swap3\n      swap6\n      swap1\n      swap4\n      pop\n      jump\t// out\n        /* \"#utility.yul\":4533:4896   */\n    tag_81:\n        /* \"#utility.yul\":4609:4615   */\n      0x00\n        /* \"#utility.yul\":4658:4660   */\n      0x20\n        /* \"#utility.yul\":4646:4655   */\n      dup3\n        /* \"#utility.yul\":4637:4644   */\n      dup5\n        /* \"#utility.yul\":4633:4656   */\n      sub\n        /* \"#utility.yul\":4629:4661   */\n      slt\n        /* \"#utility.yul\":4626:4745   */\n      iszero\n      tag_376\n      jumpi\n        /* \"#utility.yul\":4664:4743   */\n      tag_377\n      tag_353\n      jump\t// in\n    tag_377:\n        /* \"#utility.yul\":4626:4745   */\n    tag_376:\n        /* \"#utility.yul\":4784:4785   */\n      0x00\n        /* \"#utility.yul\":4809:4879   */\n      tag_378\n        /* \"#utility.yul\":4871:4878   */\n      dup5\n        /* \"#utility.yul\":4862:4868   */\n      dup3\n        /* \"#utility.yul\":4851:4860   */\n      dup6\n        /* \"#utility.yul\":4847:4869   */\n      add\n        /* \"#utility.yul\":4809:4879   */\n      tag_330\n      jump\t// in\n    tag_378:\n        /* \"#utility.yul\":4799:4879   */\n      swap2\n      pop\n        /* \"#utility.yul\":4755:4889   */\n      pop\n        /* \"#utility.yul\":4533:4896   */\n      swap3\n      swap2\n      pop\n      pop\n      jump\t// out\n        /* \"#utility.yul\":4902:6287   */\n    tag_40:\n        /* \"#utility.yul\":5042:5048   */\n      0x00\n        /* \"#utility.yul\":5050:5056   */\n      dup1\n        /* \"#utility.yul\":5058:5064   */\n      0x00\n        /* \"#utility.yul\":5066:5072   */\n      dup1\n        /* \"#utility.yul\":5074:5080   */\n      0x00\n        /* \"#utility.yul\":5082:5088   */\n      dup1\n        /* \"#utility.yul\":5131:5134   */\n      0x80\n        /* \"#utility.yul\":5119:5128   */\n      dup8\n        /* \"#utility.yul\":5110:5117   */\n      dup10\n        /* \"#utility.yul\":5106:5129   */\n      sub\n        /* \"#utility.yul\":5102:5135   */\n      slt\n        /* \"#utility.yul\":5099:5219   */\n      iszero\n      tag_380\n      jumpi\n        /* \"#utility.yul\":5138:5217   */\n      tag_381\n      tag_353\n      jump\t// in\n    tag_381:\n        /* \"#utility.yul\":5099:5219   */\n    tag_380:\n        /* \"#utility.yul\":5286:5287   */\n      0x00\n        /* \"#utility.yul\":5275:5284   */\n      dup8\n        /* \"#utility.yul\":5271:5288   */\n      add\n        /* \"#utility.yul\":5258:5289   */\n      calldataload\n        /* \"#utility.yul\":5316:5334   */\n      0xffffffffffffffff\n        /* \"#utility.yul\":5308:5314   */\n      dup2\n        /* \"#utility.yul\":5305:5335   */\n      gt\n        /* \"#utility.yul\":5302:5419   */\n      iszero\n      tag_382\n      jumpi\n        /* \"#utility.yul\":5338:5417   */\n      tag_383\n      tag_368\n      jump\t// in\n    tag_383:\n        /* \"#utility.yul\":5302:5419   */\n    tag_382:\n        /* \"#utility.yul\":5443:5528   */\n      tag_384\n        /* \"#utility.yul\":5520:5527   */\n      dup10\n        /* \"#utility.yul\":5511:5517   */\n      dup3\n        /* \"#utility.yul\":5500:5509   */\n      dup11\n        /* \"#utility.yul\":5496:5518   */\n      add\n        /* \"#utility.yul\":5443:5528   */\n      tag_339\n      jump\t// in\n    tag_384:\n        /* \"#utility.yul\":5433:5528   */\n      swap7\n      pop\n        /* \"#utility.yul\":5229:5538   */\n      pop\n        /* \"#utility.yul\":5605:5607   */\n      0x20\n        /* \"#utility.yul\":5594:5603   */\n      dup8\n        /* \"#utility.yul\":5590:5608   */\n      add\n        /* \"#utility.yul\":5577:5609   */\n      calldataload\n        /* \"#utility.yul\":5636:5654   */\n      0xffffffffffffffff\n        /* \"#utility.yul\":5628:5634   */\n      dup2\n        /* \"#utility.yul\":5625:5655   */\n      gt\n        /* \"#utility.yul\":5622:5739   */\n      iszero\n      tag_385\n      jumpi\n        /* \"#utility.yul\":5658:5737   */\n      tag_386\n      tag_368\n      jump\t// in\n    tag_386:\n        /* \"#utility.yul\":5622:5739   */\n    tag_385:\n        /* \"#utility.yul\":5771:5835   */\n      tag_387\n        /* \"#utility.yul\":5827:5834   */\n      dup10\n        /* \"#utility.yul\":5818:5824   */\n      dup3\n        /* \"#utility.yul\":5807:5816   */\n      dup11\n        /* \"#utility.yul\":5803:5825   */\n      add\n        /* \"#utility.yul\":5771:5835   */\n      tag_319\n      jump\t// in\n    tag_387:\n        /* \"#utility.yul\":5753:5835   */\n      swap6\n      pop\n      swap6\n      pop\n        /* \"#utility.yul\":5548:5845   */\n      pop\n        /* \"#utility.yul\":5912:5914   */\n      0x40\n        /* \"#utility.yul\":5901:5910   */\n      dup8\n        /* \"#utility.yul\":5897:5915   */\n      add\n        /* \"#utility.yul\":5884:5916   */\n      calldataload\n        /* \"#utility.yul\":5943:5961   */\n      0xffffffffffffffff\n        /* \"#utility.yul\":5935:5941   */\n      dup2\n        /* \"#utility.yul\":5932:5962   */\n      gt\n        /* \"#utility.yul\":5929:6046   */\n      iszero\n      tag_388\n      jumpi\n        /* \"#utility.yul\":5965:6044   */\n      tag_389\n      tag_368\n      jump\t// in\n    tag_389:\n        /* \"#utility.yul\":5929:6046   */\n    tag_388:\n        /* \"#utility.yul\":6078:6142   */\n      tag_390\n        /* \"#utility.yul\":6134:6141   */\n      dup10\n        /* \"#utility.yul\":6125:6131   */\n      dup3\n        /* \"#utility.yul\":6114:6123   */\n      dup11\n        /* \"#utility.yul\":6110:6132   */\n      add\n        /* \"#utility.yul\":6078:6142   */\n      tag_319\n      jump\t// in\n    tag_390:\n        /* \"#utility.yul\":6060:6142   */\n      swap4\n      pop\n      swap4\n      pop\n        /* \"#utility.yul\":5855:6152   */\n      pop\n        /* \"#utility.yul\":6191:6193   */\n      0x60\n        /* \"#utility.yul\":6217:6270   */\n      tag_391\n        /* \"#utility.yul\":6262:6269   */\n      dup10\n        /* \"#utility.yul\":6253:6259   */\n      dup3\n        /* \"#utility.yul\":6242:6251   */\n      dup11\n        /* \"#utility.yul\":6238:6260   */\n      add\n        /* \"#utility.yul\":6217:6270   */\n      tag_343\n      jump\t// in\n    tag_391:\n        /* \"#utility.yul\":6207:6270   */\n      swap2\n      pop\n        /* \"#utility.yul\":6162:6280   */\n      pop\n        /* \"#utility.yul\":4902:6287   */\n      swap3\n      swap6\n      pop\n      swap3\n      swap6\n      pop\n      swap3\n      swap6\n      jump\t// out\n        /* \"#utility.yul\":6293:6644   */\n    tag_157:\n        /* \"#utility.yul\":6363:6369   */\n      0x00\n        /* \"#utility.yul\":6412:6414   */\n      0x20\n        /* \"#utility.yul\":6400:6409   */\n      dup3\n        /* \"#utility.yul\":6391:6398   */\n      dup5\n        /* \"#utility.yul\":6387:6410   */\n      sub\n        /* \"#utility.yul\":6383:6415   */\n      slt\n        /* \"#utility.yul\":6380:6499   */\n      iszero\n      tag_393\n      jumpi\n        /* \"#utility.yul\":6418:6497   */\n      tag_394\n      tag_353\n      jump\t// in\n    tag_394:\n        /* \"#utility.yul\":6380:6499   */\n    tag_393:\n        /* \"#utility.yul\":6538:6539   */\n      0x00\n        /* \"#utility.yul\":6563:6627   */\n      tag_395\n        /* \"#utility.yul\":6619:6626   */\n      dup5\n        /* \"#utility.yul\":6610:6616   */\n      dup3\n        /* \"#utility.yul\":6599:6608   */\n      dup6\n        /* \"#utility.yul\":6595:6617   */\n      add\n        /* \"#utility.yul\":6563:6627   */\n      tag_347\n      jump\t// in\n    tag_395:\n        /* \"#utility.yul\":6553:6627   */\n      swap2\n      pop\n        /* \"#utility.yul\":6509:6637   */\n      pop\n        /* \"#utility.yul\":6293:6644   */\n      swap3\n      swap2\n      pop\n      pop\n      jump\t// out\n        /* \"#utility.yul\":6650:7140   */\n    tag_59:\n        /* \"#utility.yul\":6726:6732   */\n      0x00\n        /* \"#utility.yul\":6734:6740   */\n      dup1\n        /* \"#utility.yul\":6783:6785   */\n      0x40\n        /* \"#utility.yul\":6771:6780   */\n      dup4\n        /* \"#utility.yul\":6762:6769   */\n      dup6\n        /* \"#utility.yul\":6758:6781   */\n      sub\n        /* \"#utility.yul\":6754:6786   */\n      slt\n        /* \"#utility.yul\":6751:6870   */\n      iszero\n      tag_397\n      jumpi\n        /* \"#utility.yul\":6789:6868   */\n      tag_398\n      tag_353\n      jump\t// in\n    tag_398:\n        /* \"#utility.yul\":6751:6870   */\n    tag_397:\n        /* \"#utility.yul\":6909:6910   */\n      0x00\n        /* \"#utility.yul\":6934:6987   */\n      tag_399\n        /* \"#utility.yul\":6979:6986   */\n      dup6\n        /* \"#utility.yul\":6970:6976   */\n      dup3\n        /* \"#utility.yul\":6959:6968   */\n      dup7\n        /* \"#utility.yul\":6955:6977   */\n      add\n        /* \"#utility.yul\":6934:6987   */\n      tag_343\n      jump\t// in\n    tag_399:\n        /* \"#utility.yul\":6924:6987   */\n      swap3\n      pop\n        /* \"#utility.yul\":6880:6997   */\n      pop\n        /* \"#utility.yul\":7036:7038   */\n      0x20\n        /* \"#utility.yul\":7062:7123   */\n      tag_400\n        /* \"#utility.yul\":7115:7122   */\n      dup6\n        /* \"#utility.yul\":7106:7112   */\n      dup3\n        /* \"#utility.yul\":7095:7104   */\n      dup7\n        /* \"#utility.yul\":7091:7113   */\n      add\n        /* \"#utility.yul\":7062:7123   */\n      tag_304\n      jump\t// in\n    tag_400:\n        /* \"#utility.yul\":7052:7123   */\n      swap2\n      pop\n        /* \"#utility.yul\":7007:7133   */\n      pop\n        /* \"#utility.yul\":6650:7140   */\n      swap3\n      pop\n      swap3\n      swap1\n      pop\n      jump\t// out\n        /* \"#utility.yul\":7146:7288   */\n    tag_401:\n        /* \"#utility.yul\":7249:7281   */\n      tag_403\n        /* \"#utility.yul\":7275:7280   */\n      dup2\n        /* \"#utility.yul\":7249:7281   */\n      tag_404\n      jump\t// in\n    tag_403:\n        /* \"#utility.yul\":7244:7247   */\n      dup3\n        /* \"#utility.yul\":7237:7282   */\n      mstore\n        /* \"#utility.yul\":7146:7288   */\n      pop\n      pop\n      jump\t// out\n        /* \"#utility.yul\":7294:7412   */\n    tag_405:\n        /* \"#utility.yul\":7381:7405   */\n      tag_407\n        /* \"#utility.yul\":7399:7404   */\n      dup2\n        /* \"#utility.yul\":7381:7405   */\n      tag_408\n      jump\t// in\n    tag_407:\n        /* \"#utility.yul\":7376:7379   */\n      dup3\n        /* \"#utility.yul\":7369:7406   */\n      mstore\n        /* \"#utility.yul\":7294:7412   */\n      pop\n      pop\n      jump\t// out\n        /* \"#utility.yul\":7418:7527   */\n    tag_409:\n        /* \"#utility.yul\":7499:7520   */\n      tag_411\n        /* \"#utility.yul\":7514:7519   */\n      dup2\n        /* \"#utility.yul\":7499:7520   */\n      tag_412\n      jump\t// in\n    tag_411:\n        /* \"#utility.yul\":7494:7497   */\n      dup3\n        /* \"#utility.yul\":7487:7521   */\n      mstore\n        /* \"#utility.yul\":7418:7527   */\n      pop\n      pop\n      jump\t// out\n        /* \"#utility.yul\":7533:7648   */\n    tag_413:\n        /* \"#utility.yul\":7618:7641   */\n      tag_415\n        /* \"#utility.yul\":7635:7640   */\n      dup2\n        /* \"#utility.yul\":7618:7641   */\n      tag_416\n      jump\t// in\n    tag_415:\n        /* \"#utility.yul\":7613:7616   */\n      dup3\n        /* \"#utility.yul\":7606:7642   */\n      mstore\n        /* \"#utility.yul\":7533:7648   */\n      pop\n      pop\n      jump\t// out\n        /* \"#utility.yul\":7654:8014   */\n    tag_417:\n        /* \"#utility.yul\":7740:7743   */\n      0x00\n        /* \"#utility.yul\":7768:7806   */\n      tag_419\n        /* \"#utility.yul\":7800:7805   */\n      dup3\n        /* \"#utility.yul\":7768:7806   */\n      tag_420\n      jump\t// in\n    tag_419:\n        /* \"#utility.yul\":7822:7892   */\n      tag_421\n        /* \"#utility.yul\":7885:7891   */\n      dup2\n        /* \"#utility.yul\":7880:7883   */\n      dup6\n        /* \"#utility.yul\":7822:7892   */\n      tag_422\n      jump\t// in\n    tag_421:\n        /* \"#utility.yul\":7815:7892   */\n      swap4\n      pop\n        /* \"#utility.yul\":7901:7953   */\n      tag_423\n        /* \"#utility.yul\":7946:7952   */\n      dup2\n        /* \"#utility.yul\":7941:7944   */\n      dup6\n        /* \"#utility.yul\":7934:7938   */\n      0x20\n        /* \"#utility.yul\":7927:7932   */\n      dup7\n        /* \"#utility.yul\":7923:7939   */\n      add\n        /* \"#utility.yul\":7901:7953   */\n      tag_424\n      jump\t// in\n    tag_423:\n        /* \"#utility.yul\":7978:8007   */\n      tag_425\n        /* \"#utility.yul\":8000:8006   */\n      dup2\n        /* \"#utility.yul\":7978:8007   */\n      tag_426\n      jump\t// in\n    tag_425:\n        /* \"#utility.yul\":7973:7976   */\n      dup5\n        /* \"#utility.yul\":7969:8008   */\n      add\n        /* \"#utility.yul\":7962:8008   */\n      swap2\n      pop\n        /* \"#utility.yul\":7744:8014   */\n      pop\n        /* \"#utility.yul\":7654:8014   */\n      swap3\n      swap2\n      pop\n      pop\n      jump\t// out\n        /* \"#utility.yul\":8020:8393   */\n    tag_427:\n        /* \"#utility.yul\":8124:8127   */\n      0x00\n        /* \"#utility.yul\":8152:8190   */\n      tag_429\n        /* \"#utility.yul\":8184:8189   */\n      dup3\n        /* \"#utility.yul\":8152:8190   */\n      tag_420\n      jump\t// in\n    tag_429:\n        /* \"#utility.yul\":8206:8294   */\n      tag_430\n        /* \"#utility.yul\":8287:8293   */\n      dup2\n        /* \"#utility.yul\":8282:8285   */\n      dup6\n        /* \"#utility.yul\":8206:8294   */\n      tag_431\n      jump\t// in\n    tag_430:\n        /* \"#utility.yul\":8199:8294   */\n      swap4\n      pop\n        /* \"#utility.yul\":8303:8355   */\n      tag_432\n        /* \"#utility.yul\":8348:8354   */\n      dup2\n        /* \"#utility.yul\":8343:8346   */\n      dup6\n        /* \"#utility.yul\":8336:8340   */\n      0x20\n        /* \"#utility.yul\":8329:8334   */\n      dup7\n        /* \"#utility.yul\":8325:8341   */\n      add\n        /* \"#utility.yul\":8303:8355   */\n      tag_424\n      jump\t// in\n    tag_432:\n        /* \"#utility.yul\":8380:8386   */\n      dup1\n        /* \"#utility.yul\":8375:8378   */\n      dup5\n        /* \"#utility.yul\":8371:8387   */\n      add\n        /* \"#utility.yul\":8364:8387   */\n      swap2\n      pop\n        /* \"#utility.yul\":8128:8393   */\n      pop\n        /* \"#utility.yul\":8020:8393   */\n      swap3\n      swap2\n      pop\n      pop\n      jump\t// out\n        /* \"#utility.yul\":8399:8763   */\n    tag_433:\n        /* \"#utility.yul\":8487:8490   */\n      0x00\n        /* \"#utility.yul\":8515:8554   */\n      tag_435\n        /* \"#utility.yul\":8548:8553   */\n      dup3\n        /* \"#utility.yul\":8515:8554   */\n      tag_436\n      jump\t// in\n    tag_435:\n        /* \"#utility.yul\":8570:8641   */\n      tag_437\n        /* \"#utility.yul\":8634:8640   */\n      dup2\n        /* \"#utility.yul\":8629:8632   */\n      dup6\n        /* \"#utility.yul\":8570:8641   */\n      tag_438\n      jump\t// in\n    tag_437:\n        /* \"#utility.yul\":8563:8641   */\n      swap4\n      pop\n        /* \"#utility.yul\":8650:8702   */\n      tag_439\n        /* \"#utility.yul\":8695:8701   */\n      dup2\n        /* \"#utility.yul\":8690:8693   */\n      dup6\n        /* \"#utility.yul\":8683:8687   */\n      0x20\n        /* \"#utility.yul\":8676:8681   */\n      dup7\n        /* \"#utility.yul\":8672:8688   */\n      add\n        /* \"#utility.yul\":8650:8702   */\n      tag_424\n      jump\t// in\n    tag_439:\n        /* \"#utility.yul\":8727:8756   */\n      tag_440\n        /* \"#utility.yul\":8749:8755   */\n      dup2\n        /* \"#utility.yul\":8727:8756   */\n      tag_426\n      jump\t// in\n    tag_440:\n        /* \"#utility.yul\":8722:8725   */\n      dup5\n        /* \"#utility.yul\":8718:8757   */\n      add\n        /* \"#utility.yul\":8711:8757   */\n      swap2\n      pop\n        /* \"#utility.yul\":8491:8763   */\n      pop\n        /* \"#utility.yul\":8399:8763   */\n      swap3\n      swap2\n      pop\n      pop\n      jump\t// out\n        /* \"#utility.yul\":8769:9135   */\n    tag_441:\n        /* \"#utility.yul\":8911:8914   */\n      0x00\n        /* \"#utility.yul\":8932:8999   */\n      tag_443\n        /* \"#utility.yul\":8996:8998   */\n      0x0c\n        /* \"#utility.yul\":8991:8994   */\n      dup4\n        /* \"#utility.yul\":8932:8999   */\n      tag_438\n      jump\t// in\n    tag_443:\n        /* \"#utility.yul\":8925:8999   */\n      swap2\n      pop\n        /* \"#utility.yul\":9008:9101   */\n      tag_444\n        /* \"#utility.yul\":9097:9100   */\n      dup3\n        /* \"#utility.yul\":9008:9101   */\n      tag_445\n      jump\t// in\n    tag_444:\n        /* \"#utility.yul\":9126:9128   */\n      0x20\n        /* \"#utility.yul\":9121:9124   */\n      dup3\n        /* \"#utility.yul\":9117:9129   */\n      add\n        /* \"#utility.yul\":9110:9129   */\n      swap1\n      pop\n        /* \"#utility.yul\":8769:9135   */\n      swap2\n      swap1\n      pop\n      jump\t// out\n        /* \"#utility.yul\":9141:9507   */\n    tag_446:\n        /* \"#utility.yul\":9283:9286   */\n      0x00\n        /* \"#utility.yul\":9304:9371   */\n      tag_448\n        /* \"#utility.yul\":9368:9370   */\n      0x1c\n        /* \"#utility.yul\":9363:9366   */\n      dup4\n        /* \"#utility.yul\":9304:9371   */\n      tag_438\n      jump\t// in\n    tag_448:\n        /* \"#utility.yul\":9297:9371   */\n      swap2\n      pop\n        /* \"#utility.yul\":9380:9473   */\n      tag_449\n        /* \"#utility.yul\":9469:9472   */\n      dup3\n        /* \"#utility.yul\":9380:9473   */\n      tag_450\n      jump\t// in\n    tag_449:\n        /* \"#utility.yul\":9498:9500   */\n      0x20\n        /* \"#utility.yul\":9493:9496   */\n      dup3\n        /* \"#utility.yul\":9489:9501   */\n      add\n        /* \"#utility.yul\":9482:9501   */\n      swap1\n      pop\n        /* \"#utility.yul\":9141:9507   */\n      swap2\n      swap1\n      pop\n      jump\t// out\n        /* \"#utility.yul\":9513:9879   */\n    tag_451:\n        /* \"#utility.yul\":9655:9658   */\n      0x00\n        /* \"#utility.yul\":9676:9743   */\n      tag_453\n        /* \"#utility.yul\":9740:9742   */\n      0x1f\n        /* \"#utility.yul\":9735:9738   */\n      dup4\n        /* \"#utility.yul\":9676:9743   */\n      tag_438\n      jump\t// in\n    tag_453:\n        /* \"#utility.yul\":9669:9743   */\n      swap2\n      pop\n        /* \"#utility.yul\":9752:9845   */\n      tag_454\n        /* \"#utility.yul\":9841:9844   */\n      dup3\n        /* \"#utility.yul\":9752:9845   */\n      tag_455\n      jump\t// in\n    tag_454:\n        /* \"#utility.yul\":9870:9872   */\n      0x20\n        /* \"#utility.yul\":9865:9868   */\n      dup3\n        /* \"#utility.yul\":9861:9873   */\n      add\n        /* \"#utility.yul\":9854:9873   */\n      swap1\n      pop\n        /* \"#utility.yul\":9513:9879   */\n      swap2\n      swap1\n      pop\n      jump\t// out\n        /* \"#utility.yul\":9885:10251   */\n    tag_456:\n        /* \"#utility.yul\":10027:10030   */\n      0x00\n        /* \"#utility.yul\":10048:10115   */\n      tag_458\n        /* \"#utility.yul\":10112:10114   */\n      0x26\n        /* \"#utility.yul\":10107:10110   */\n      dup4\n        /* \"#utility.yul\":10048:10115   */\n      tag_438\n      jump\t// in\n    tag_458:\n        /* \"#utility.yul\":10041:10115   */\n      swap2\n      pop\n        /* \"#utility.yul\":10124:10217   */\n      tag_459\n        /* \"#utility.yul\":10213:10216   */\n      dup3\n        /* \"#utility.yul\":10124:10217   */\n      tag_460\n      jump\t// in\n    tag_459:\n        /* \"#utility.yul\":10242:10244   */\n      0x40\n        /* \"#utility.yul\":10237:10240   */\n      dup3\n        /* \"#utility.yul\":10233:10245   */\n      add\n        /* \"#utility.yul\":10226:10245   */\n      swap1\n      pop\n        /* \"#utility.yul\":9885:10251   */\n      swap2\n      swap1\n      pop\n      jump\t// out\n        /* \"#utility.yul\":10257:10623   */\n    tag_461:\n        /* \"#utility.yul\":10399:10402   */\n      0x00\n        /* \"#utility.yul\":10420:10487   */\n      tag_463\n        /* \"#utility.yul\":10484:10486   */\n      0x1c\n        /* \"#utility.yul\":10479:10482   */\n      dup4\n        /* \"#utility.yul\":10420:10487   */\n      tag_438\n      jump\t// in\n    tag_463:\n        /* \"#utility.yul\":10413:10487   */\n      swap2\n      pop\n        /* \"#utility.yul\":10496:10589   */\n      tag_464\n        /* \"#utility.yul\":10585:10588   */\n      dup3\n        /* \"#utility.yul\":10496:10589   */\n      tag_465\n      jump\t// in\n    tag_464:\n        /* \"#utility.yul\":10614:10616   */\n      0x20\n        /* \"#utility.yul\":10609:10612   */\n      dup3\n        /* \"#utility.yul\":10605:10617   */\n      add\n        /* \"#utility.yul\":10598:10617   */\n      swap1\n      pop\n        /* \"#utility.yul\":10257:10623   */\n      swap2\n      swap1\n      pop\n      jump\t// out\n        /* \"#utility.yul\":10629:10995   */\n    tag_466:\n        /* \"#utility.yul\":10771:10774   */\n      0x00\n        /* \"#utility.yul\":10792:10859   */\n      tag_468\n        /* \"#utility.yul\":10856:10858   */\n      0x19\n        /* \"#utility.yul\":10851:10854   */\n      dup4\n        /* \"#utility.yul\":10792:10859   */\n      tag_438\n      jump\t// in\n    tag_468:\n        /* \"#utility.yul\":10785:10859   */\n      swap2\n      pop\n        /* \"#utility.yul\":10868:10961   */\n      tag_469\n        /* \"#utility.yul\":10957:10960   */\n      dup3\n        /* \"#utility.yul\":10868:10961   */\n      tag_470\n      jump\t// in\n    tag_469:\n        /* \"#utility.yul\":10986:10988   */\n      0x20\n        /* \"#utility.yul\":10981:10984   */\n      dup3\n        /* \"#utility.yul\":10977:10989   */\n      add\n        /* \"#utility.yul\":10970:10989   */\n      swap1\n      pop\n        /* \"#utility.yul\":10629:10995   */\n      swap2\n      swap1\n      pop\n      jump\t// out\n        /* \"#utility.yul\":11001:11367   */\n    tag_471:\n        /* \"#utility.yul\":11143:11146   */\n      0x00\n        /* \"#utility.yul\":11164:11231   */\n      tag_473\n        /* \"#utility.yul\":11228:11230   */\n      0x18\n        /* \"#utility.yul\":11223:11226   */\n      dup4\n        /* \"#utility.yul\":11164:11231   */\n      tag_438\n      jump\t// in\n    tag_473:\n        /* \"#utility.yul\":11157:11231   */\n      swap2\n      pop\n        /* \"#utility.yul\":11240:11333   */\n      tag_474\n        /* \"#utility.yul\":11329:11332   */\n      dup3\n        /* \"#utility.yul\":11240:11333   */\n      tag_475\n      jump\t// in\n    tag_474:\n        /* \"#utility.yul\":11358:11360   */\n      0x20\n        /* \"#utility.yul\":11353:11356   */\n      dup3\n        /* \"#utility.yul\":11349:11361   */\n      add\n        /* \"#utility.yul\":11342:11361   */\n      swap1\n      pop\n        /* \"#utility.yul\":11001:11367   */\n      swap2\n      swap1\n      pop\n      jump\t// out\n        /* \"#utility.yul\":11373:11739   */\n    tag_476:\n        /* \"#utility.yul\":11515:11518   */\n      0x00\n        /* \"#utility.yul\":11536:11603   */\n      tag_478\n        /* \"#utility.yul\":11600:11602   */\n      0x20\n        /* \"#utility.yul\":11595:11598   */\n      dup4\n        /* \"#utility.yul\":11536:11603   */\n      tag_438\n      jump\t// in\n    tag_478:\n        /* \"#utility.yul\":11529:11603   */\n      swap2\n      pop\n        /* \"#utility.yul\":11612:11705   */\n      tag_479\n        /* \"#utility.yul\":11701:11704   */\n      dup3\n        /* \"#utility.yul\":11612:11705   */\n      tag_480\n      jump\t// in\n    tag_479:\n        /* \"#utility.yul\":11730:11732   */\n      0x20\n        /* \"#utility.yul\":11725:11728   */\n      dup3\n        /* \"#utility.yul\":11721:11733   */\n      add\n        /* \"#utility.yul\":11714:11733   */\n      swap1\n      pop\n        /* \"#utility.yul\":11373:11739   */\n      swap2\n      swap1\n      pop\n      jump\t// out\n        /* \"#utility.yul\":11745:12111   */\n    tag_481:\n        /* \"#utility.yul\":11887:11890   */\n      0x00\n        /* \"#utility.yul\":11908:11975   */\n      tag_483\n        /* \"#utility.yul\":11972:11974   */\n      0x20\n        /* \"#utility.yul\":11967:11970   */\n      dup4\n        /* \"#utility.yul\":11908:11975   */\n      tag_438\n      jump\t// in\n    tag_483:\n        /* \"#utility.yul\":11901:11975   */\n      swap2\n      pop\n        /* \"#utility.yul\":11984:12077   */\n      tag_484\n        /* \"#utility.yul\":12073:12076   */\n      dup3\n        /* \"#utility.yul\":11984:12077   */\n      tag_485\n      jump\t// in\n    tag_484:\n        /* \"#utility.yul\":12102:12104   */\n      0x20\n        /* \"#utility.yul\":12097:12100   */\n      dup3\n        /* \"#utility.yul\":12093:12105   */\n      add\n        /* \"#utility.yul\":12086:12105   */\n      swap1\n      pop\n        /* \"#utility.yul\":11745:12111   */\n      swap2\n      swap1\n      pop\n      jump\t// out\n        /* \"#utility.yul\":12117:12483   */\n    tag_486:\n        /* \"#utility.yul\":12259:12262   */\n      0x00\n        /* \"#utility.yul\":12280:12347   */\n      tag_488\n        /* \"#utility.yul\":12344:12346   */\n      0x20\n        /* \"#utility.yul\":12339:12342   */\n      dup4\n        /* \"#utility.yul\":12280:12347   */\n      tag_438\n      jump\t// in\n    tag_488:\n        /* \"#utility.yul\":12273:12347   */\n      swap2\n      pop\n        /* \"#utility.yul\":12356:12449   */\n      tag_489\n        /* \"#utility.yul\":12445:12448   */\n      dup3\n        /* \"#utility.yul\":12356:12449   */\n      tag_490\n      jump\t// in\n    tag_489:\n        /* \"#utility.yul\":12474:12476   */\n      0x20\n        /* \"#utility.yul\":12469:12472   */\n      dup3\n        /* \"#utility.yul\":12465:12477   */\n      add\n        /* \"#utility.yul\":12458:12477   */\n      swap1\n      pop\n        /* \"#utility.yul\":12117:12483   */\n      swap2\n      swap1\n      pop\n      jump\t// out\n        /* \"#utility.yul\":12489:12855   */\n    tag_491:\n        /* \"#utility.yul\":12631:12634   */\n      0x00\n        /* \"#utility.yul\":12652:12719   */\n      tag_493\n        /* \"#utility.yul\":12716:12718   */\n      0x1f\n        /* \"#utility.yul\":12711:12714   */\n      dup4\n        /* \"#utility.yul\":12652:12719   */\n      tag_438\n      jump\t// in\n    tag_493:\n        /* \"#utility.yul\":12645:12719   */\n      swap2\n      pop\n        /* \"#utility.yul\":12728:12821   */\n      tag_494\n        /* \"#utility.yul\":12817:12820   */\n      dup3\n        /* \"#utility.yul\":12728:12821   */\n      tag_495\n      jump\t// in\n    tag_494:\n        /* \"#utility.yul\":12846:12848   */\n      0x20\n        /* \"#utility.yul\":12841:12844   */\n      dup3\n        /* \"#utility.yul\":12837:12849   */\n      add\n        /* \"#utility.yul\":12830:12849   */\n      swap1\n      pop\n        /* \"#utility.yul\":12489:12855   */\n      swap2\n      swap1\n      pop\n      jump\t// out\n        /* \"#utility.yul\":12861:13227   */\n    tag_496:\n        /* \"#utility.yul\":13003:13006   */\n      0x00\n        /* \"#utility.yul\":13024:13091   */\n      tag_498\n        /* \"#utility.yul\":13088:13090   */\n      0x1e\n        /* \"#utility.yul\":13083:13086   */\n      dup4\n        /* \"#utility.yul\":13024:13091   */\n      tag_438\n      jump\t// in\n    tag_498:\n        /* \"#utility.yul\":13017:13091   */\n      swap2\n      pop\n        /* \"#utility.yul\":13100:13193   */\n      tag_499\n        /* \"#utility.yul\":13189:13192   */\n      dup3\n        /* \"#utility.yul\":13100:13193   */\n      tag_500\n      jump\t// in\n    tag_499:\n        /* \"#utility.yul\":13218:13220   */\n      0x20\n        /* \"#utility.yul\":13213:13216   */\n      dup3\n        /* \"#utility.yul\":13209:13221   */\n      add\n        /* \"#utility.yul\":13202:13221   */\n      swap1\n      pop\n        /* \"#utility.yul\":12861:13227   */\n      swap2\n      swap1\n      pop\n      jump\t// out\n        /* \"#utility.yul\":13233:13599   */\n    tag_501:\n        /* \"#utility.yul\":13375:13378   */\n      0x00\n        /* \"#utility.yul\":13396:13463   */\n      tag_503\n        /* \"#utility.yul\":13460:13462   */\n      0x1c\n        /* \"#utility.yul\":13455:13458   */\n      dup4\n        /* \"#utility.yul\":13396:13463   */\n      tag_438\n      jump\t// in\n    tag_503:\n        /* \"#utility.yul\":13389:13463   */\n      swap2\n      pop\n        /* \"#utility.yul\":13472:13565   */\n      tag_504\n        /* \"#utility.yul\":13561:13564   */\n      dup3\n        /* \"#utility.yul\":13472:13565   */\n      tag_505\n      jump\t// in\n    tag_504:\n        /* \"#utility.yul\":13590:13592   */\n      0x20\n        /* \"#utility.yul\":13585:13588   */\n      dup3\n        /* \"#utility.yul\":13581:13593   */\n      add\n        /* \"#utility.yul\":13574:13593   */\n      swap1\n      pop\n        /* \"#utility.yul\":13233:13599   */\n      swap2\n      swap1\n      pop\n      jump\t// out\n        /* \"#utility.yul\":13605:13971   */\n    tag_506:\n        /* \"#utility.yul\":13747:13750   */\n      0x00\n        /* \"#utility.yul\":13768:13835   */\n      tag_508\n        /* \"#utility.yul\":13832:13834   */\n      0x1b\n        /* \"#utility.yul\":13827:13830   */\n      dup4\n        /* \"#utility.yul\":13768:13835   */\n      tag_438\n      jump\t// in\n    tag_508:\n        /* \"#utility.yul\":13761:13835   */\n      swap2\n      pop\n        /* \"#utility.yul\":13844:13937   */\n      tag_509\n        /* \"#utility.yul\":13933:13936   */\n      dup3\n        /* \"#utility.yul\":13844:13937   */\n      tag_510\n      jump\t// in\n    tag_509:\n        /* \"#utility.yul\":13962:13964   */\n      0x20\n        /* \"#utility.yul\":13957:13960   */\n      dup3\n        /* \"#utility.yul\":13953:13965   */\n      add\n        /* \"#utility.yul\":13946:13965   */\n      swap1\n      pop\n        /* \"#utility.yul\":13605:13971   */\n      swap2\n      swap1\n      pop\n      jump\t// out\n        /* \"#utility.yul\":14057:14990   */\n    tag_511:\n        /* \"#utility.yul\":14220:14224   */\n      0x80\n        /* \"#utility.yul\":14215:14218   */\n      dup3\n        /* \"#utility.yul\":14211:14225   */\n      add\n        /* \"#utility.yul\":14319:14323   */\n      0x00\n        /* \"#utility.yul\":14312:14317   */\n      dup3\n        /* \"#utility.yul\":14308:14324   */\n      add\n        /* \"#utility.yul\":14302:14325   */\n      mload\n        /* \"#utility.yul\":14338:14401   */\n      tag_513\n        /* \"#utility.yul\":14395:14399   */\n      0x00\n        /* \"#utility.yul\":14390:14393   */\n      dup6\n        /* \"#utility.yul\":14386:14400   */\n      add\n        /* \"#utility.yul\":14372:14384   */\n      dup3\n        /* \"#utility.yul\":14338:14401   */\n      tag_514\n      jump\t// in\n    tag_513:\n        /* \"#utility.yul\":14235:14411   */\n      pop\n        /* \"#utility.yul\":14511:14515   */\n      0x20\n        /* \"#utility.yul\":14504:14509   */\n      dup3\n        /* \"#utility.yul\":14500:14516   */\n      add\n        /* \"#utility.yul\":14494:14517   */\n      mload\n        /* \"#utility.yul\":14530:14593   */\n      tag_515\n        /* \"#utility.yul\":14587:14591   */\n      0x20\n        /* \"#utility.yul\":14582:14585   */\n      dup6\n        /* \"#utility.yul\":14578:14592   */\n      add\n        /* \"#utility.yul\":14564:14576   */\n      dup3\n        /* \"#utility.yul\":14530:14593   */\n      tag_514\n      jump\t// in\n    tag_515:\n        /* \"#utility.yul\":14421:14603   */\n      pop\n        /* \"#utility.yul\":14704:14708   */\n      0x40\n        /* \"#utility.yul\":14697:14702   */\n      dup3\n        /* \"#utility.yul\":14693:14709   */\n      add\n        /* \"#utility.yul\":14687:14710   */\n      mload\n        /* \"#utility.yul\":14723:14786   */\n      tag_516\n        /* \"#utility.yul\":14780:14784   */\n      0x40\n        /* \"#utility.yul\":14775:14778   */\n      dup6\n        /* \"#utility.yul\":14771:14785   */\n      add\n        /* \"#utility.yul\":14757:14769   */\n      dup3\n        /* \"#utility.yul\":14723:14786   */\n      tag_514\n      jump\t// in\n    tag_516:\n        /* \"#utility.yul\":14613:14796   */\n      pop\n        /* \"#utility.yul\":14891:14895   */\n      0x60\n        /* \"#utility.yul\":14884:14889   */\n      dup3\n        /* \"#utility.yul\":14880:14896   */\n      add\n        /* \"#utility.yul\":14874:14897   */\n      mload\n        /* \"#utility.yul\":14910:14973   */\n      tag_517\n        /* \"#utility.yul\":14967:14971   */\n      0x60\n        /* \"#utility.yul\":14962:14965   */\n      dup6\n        /* \"#utility.yul\":14958:14972   */\n      add\n        /* \"#utility.yul\":14944:14956   */\n      dup3\n        /* \"#utility.yul\":14910:14973   */\n      tag_514\n      jump\t// in\n    tag_517:\n        /* \"#utility.yul\":14806:14983   */\n      pop\n        /* \"#utility.yul\":14189:14990   */\n      pop\n        /* \"#utility.yul\":14057:14990   */\n      pop\n      pop\n      jump\t// out\n        /* \"#utility.yul\":14996:15104   */\n    tag_514:\n        /* \"#utility.yul\":15073:15097   */\n      tag_519\n        /* \"#utility.yul\":15091:15096   */\n      dup2\n        /* \"#utility.yul\":15073:15097   */\n      tag_520\n      jump\t// in\n    tag_519:\n        /* \"#utility.yul\":15068:15071   */\n      dup3\n        /* \"#utility.yul\":15061:15098   */\n      mstore\n        /* \"#utility.yul\":14996:15104   */\n      pop\n      pop\n      jump\t// out\n        /* \"#utility.yul\":15110:15228   */\n    tag_521:\n        /* \"#utility.yul\":15197:15221   */\n      tag_523\n        /* \"#utility.yul\":15215:15220   */\n      dup2\n        /* \"#utility.yul\":15197:15221   */\n      tag_520\n      jump\t// in\n    tag_523:\n        /* \"#utility.yul\":15192:15195   */\n      dup3\n        /* \"#utility.yul\":15185:15222   */\n      mstore\n        /* \"#utility.yul\":15110:15228   */\n      pop\n      pop\n      jump\t// out\n        /* \"#utility.yul\":15234:15505   */\n    tag_274:\n        /* \"#utility.yul\":15364:15367   */\n      0x00\n        /* \"#utility.yul\":15386:15479   */\n      tag_525\n        /* \"#utility.yul\":15475:15478   */\n      dup3\n        /* \"#utility.yul\":15466:15472   */\n      dup5\n        /* \"#utility.yul\":15386:15479   */\n      tag_427\n      jump\t// in\n    tag_525:\n        /* \"#utility.yul\":15379:15479   */\n      swap2\n      pop\n        /* \"#utility.yul\":15496:15499   */\n      dup2\n        /* \"#utility.yul\":15489:15499   */\n      swap1\n      pop\n        /* \"#utility.yul\":15234:15505   */\n      swap3\n      swap2\n      pop\n      pop\n      jump\t// out\n        /* \"#utility.yul\":15511:15733   */\n    tag_33:\n        /* \"#utility.yul\":15604:15608   */\n      0x00\n        /* \"#utility.yul\":15642:15644   */\n      0x20\n        /* \"#utility.yul\":15631:15640   */\n      dup3\n        /* \"#utility.yul\":15627:15645   */\n      add\n        /* \"#utility.yul\":15619:15645   */\n      swap1\n      pop\n        /* \"#utility.yul\":15655:15726   */\n      tag_527\n        /* \"#utility.yul\":15723:15724   */\n      0x00\n        /* \"#utility.yul\":15712:15721   */\n      dup4\n        /* \"#utility.yul\":15708:15725   */\n      add\n        /* \"#utility.yul\":15699:15705   */\n      dup5\n        /* \"#utility.yul\":15655:15726   */\n      tag_405\n      jump\t// in\n    tag_527:\n        /* \"#utility.yul\":15511:15733   */\n      swap3\n      swap2\n      pop\n      pop\n      jump\t// out\n        /* \"#utility.yul\":15739:16103   */\n    tag_163:\n        /* \"#utility.yul\":15876:15880   */\n      0x00\n        /* \"#utility.yul\":15914:15916   */\n      0x40\n        /* \"#utility.yul\":15903:15912   */\n      dup3\n        /* \"#utility.yul\":15899:15917   */\n      add\n        /* \"#utility.yul\":15891:15917   */\n      swap1\n      pop\n        /* \"#utility.yul\":15927:16014   */\n      tag_529\n        /* \"#utility.yul\":16011:16012   */\n      0x00\n        /* \"#utility.yul\":16000:16009   */\n      dup4\n        /* \"#utility.yul\":15996:16013   */\n      add\n        /* \"#utility.yul\":15987:15993   */\n      dup6\n        /* \"#utility.yul\":15927:16014   */\n      tag_401\n      jump\t// in\n    tag_529:\n        /* \"#utility.yul\":16024:16096   */\n      tag_530\n        /* \"#utility.yul\":16092:16094   */\n      0x20\n        /* \"#utility.yul\":16081:16090   */\n      dup4\n        /* \"#utility.yul\":16077:16095   */\n      add\n        /* \"#utility.yul\":16068:16074   */\n      dup5\n        /* \"#utility.yul\":16024:16096   */\n      tag_521\n      jump\t// in\n    tag_530:\n        /* \"#utility.yul\":15739:16103   */\n      swap4\n      swap3\n      pop\n      pop\n      pop\n      jump\t// out\n        /* \"#utility.yul\":16109:16441   */\n    tag_180:\n        /* \"#utility.yul\":16230:16234   */\n      0x00\n        /* \"#utility.yul\":16268:16270   */\n      0x40\n        /* \"#utility.yul\":16257:16266   */\n      dup3\n        /* \"#utility.yul\":16253:16271   */\n      add\n        /* \"#utility.yul\":16245:16271   */\n      swap1\n      pop\n        /* \"#utility.yul\":16281:16352   */\n      tag_532\n        /* \"#utility.yul\":16349:16350   */\n      0x00\n        /* \"#utility.yul\":16338:16347   */\n      dup4\n        /* \"#utility.yul\":16334:16351   */\n      add\n        /* \"#utility.yul\":16325:16331   */\n      dup6\n        /* \"#utility.yul\":16281:16352   */\n      tag_405\n      jump\t// in\n    tag_532:\n        /* \"#utility.yul\":16362:16434   */\n      tag_533\n        /* \"#utility.yul\":16430:16432   */\n      0x20\n        /* \"#utility.yul\":16419:16428   */\n      dup4\n        /* \"#utility.yul\":16415:16433   */\n      add\n        /* \"#utility.yul\":16406:16412   */\n      dup5\n        /* \"#utility.yul\":16362:16434   */\n      tag_405\n      jump\t// in\n    tag_533:\n        /* \"#utility.yul\":16109:16441   */\n      swap4\n      swap3\n      pop\n      pop\n      pop\n      jump\t// out\n        /* \"#utility.yul\":16447:16657   */\n    tag_50:\n        /* \"#utility.yul\":16534:16538   */\n      0x00\n        /* \"#utility.yul\":16572:16574   */\n      0x20\n        /* \"#utility.yul\":16561:16570   */\n      dup3\n        /* \"#utility.yul\":16557:16575   */\n      add\n        /* \"#utility.yul\":16549:16575   */\n      swap1\n      pop\n        /* \"#utility.yul\":16585:16650   */\n      tag_535\n        /* \"#utility.yul\":16647:16648   */\n      0x00\n        /* \"#utility.yul\":16636:16645   */\n      dup4\n        /* \"#utility.yul\":16632:16649   */\n      add\n        /* \"#utility.yul\":16623:16629   */\n      dup5\n        /* \"#utility.yul\":16585:16650   */\n      tag_409\n      jump\t// in\n    tag_535:\n        /* \"#utility.yul\":16447:16657   */\n      swap3\n      swap2\n      pop\n      pop\n      jump\t// out\n        /* \"#utility.yul\":16663:16881   */\n    tag_296:\n        /* \"#utility.yul\":16754:16758   */\n      0x00\n        /* \"#utility.yul\":16792:16794   */\n      0x20\n        /* \"#utility.yul\":16781:16790   */\n      dup3\n        /* \"#utility.yul\":16777:16795   */\n      add\n        /* \"#utility.yul\":16769:16795   */\n      swap1\n      pop\n        /* \"#utility.yul\":16805:16874   */\n      tag_537\n        /* \"#utility.yul\":16871:16872   */\n      0x00\n        /* \"#utility.yul\":16860:16869   */\n      dup4\n        /* \"#utility.yul\":16856:16873   */\n      add\n        /* \"#utility.yul\":16847:16853   */\n      dup5\n        /* \"#utility.yul\":16805:16874   */\n      tag_413\n      jump\t// in\n    tag_537:\n        /* \"#utility.yul\":16663:16881   */\n      swap3\n      swap2\n      pop\n      pop\n      jump\t// out\n        /* \"#utility.yul\":16887:17294   */\n    tag_43:\n        /* \"#utility.yul\":17020:17024   */\n      0x00\n        /* \"#utility.yul\":17058:17060   */\n      0x40\n        /* \"#utility.yul\":17047:17056   */\n      dup3\n        /* \"#utility.yul\":17043:17061   */\n      add\n        /* \"#utility.yul\":17035:17061   */\n      swap1\n      pop\n        /* \"#utility.yul\":17107:17116   */\n      dup2\n        /* \"#utility.yul\":17101:17105   */\n      dup2\n        /* \"#utility.yul\":17097:17117   */\n      sub\n        /* \"#utility.yul\":17093:17094   */\n      0x00\n        /* \"#utility.yul\":17082:17091   */\n      dup4\n        /* \"#utility.yul\":17078:17095   */\n      add\n        /* \"#utility.yul\":17071:17118   */\n      mstore\n        /* \"#utility.yul\":17135:17211   */\n      tag_539\n        /* \"#utility.yul\":17206:17210   */\n      dup2\n        /* \"#utility.yul\":17197:17203   */\n      dup6\n        /* \"#utility.yul\":17135:17211   */\n      tag_417\n      jump\t// in\n    tag_539:\n        /* \"#utility.yul\":17127:17211   */\n      swap1\n      pop\n        /* \"#utility.yul\":17221:17287   */\n      tag_540\n        /* \"#utility.yul\":17283:17285   */\n      0x20\n        /* \"#utility.yul\":17272:17281   */\n      dup4\n        /* \"#utility.yul\":17268:17286   */\n      add\n        /* \"#utility.yul\":17259:17265   */\n      dup5\n        /* \"#utility.yul\":17221:17287   */\n      tag_409\n      jump\t// in\n    tag_540:\n        /* \"#utility.yul\":16887:17294   */\n      swap4\n      swap3\n      pop\n      pop\n      pop\n      jump\t// out\n        /* \"#utility.yul\":17300:17613   */\n    tag_95:\n        /* \"#utility.yul\":17413:17417   */\n      0x00\n        /* \"#utility.yul\":17451:17453   */\n      0x20\n        /* \"#utility.yul\":17440:17449   */\n      dup3\n        /* \"#utility.yul\":17436:17454   */\n      add\n        /* \"#utility.yul\":17428:17454   */\n      swap1\n      pop\n        /* \"#utility.yul\":17500:17509   */\n      dup2\n        /* \"#utility.yul\":17494:17498   */\n      dup2\n        /* \"#utility.yul\":17490:17510   */\n      sub\n        /* \"#utility.yul\":17486:17487   */\n      0x00\n        /* \"#utility.yul\":17475:17484   */\n      dup4\n        /* \"#utility.yul\":17471:17488   */\n      add\n        /* \"#utility.yul\":17464:17511   */\n      mstore\n        /* \"#utility.yul\":17528:17606   */\n      tag_542\n        /* \"#utility.yul\":17601:17605   */\n      dup2\n        /* \"#utility.yul\":17592:17598   */\n      dup5\n        /* \"#utility.yul\":17528:17606   */\n      tag_433\n      jump\t// in\n    tag_542:\n        /* \"#utility.yul\":17520:17606   */\n      swap1\n      pop\n        /* \"#utility.yul\":17300:17613   */\n      swap3\n      swap2\n      pop\n      pop\n      jump\t// out\n        /* \"#utility.yul\":17619:18038   */\n    tag_250:\n        /* \"#utility.yul\":17785:17789   */\n      0x00\n        /* \"#utility.yul\":17823:17825   */\n      0x20\n        /* \"#utility.yul\":17812:17821   */\n      dup3\n        /* \"#utility.yul\":17808:17826   */\n      add\n        /* \"#utility.yul\":17800:17826   */\n      swap1\n      pop\n        /* \"#utility.yul\":17872:17881   */\n      dup2\n        /* \"#utility.yul\":17866:17870   */\n      dup2\n        /* \"#utility.yul\":17862:17882   */\n      sub\n        /* \"#utility.yul\":17858:17859   */\n      0x00\n        /* \"#utility.yul\":17847:17856   */\n      dup4\n        /* \"#utility.yul\":17843:17860   */\n      add\n        /* \"#utility.yul\":17836:17883   */\n      mstore\n        /* \"#utility.yul\":17900:18031   */\n      tag_544\n        /* \"#utility.yul\":18026:18030   */\n      dup2\n        /* \"#utility.yul\":17900:18031   */\n      tag_441\n      jump\t// in\n    tag_544:\n        /* \"#utility.yul\":17892:18031   */\n      swap1\n      pop\n        /* \"#utility.yul\":17619:18038   */\n      swap2\n      swap1\n      pop\n      jump\t// out\n        /* \"#utility.yul\":18044:18463   */\n    tag_240:\n        /* \"#utility.yul\":18210:18214   */\n      0x00\n        /* \"#utility.yul\":18248:18250   */\n      0x20\n        /* \"#utility.yul\":18237:18246   */\n      dup3\n        /* \"#utility.yul\":18233:18251   */\n      add\n        /* \"#utility.yul\":18225:18251   */\n      swap1\n      pop\n        /* \"#utility.yul\":18297:18306   */\n      dup2\n        /* \"#utility.yul\":18291:18295   */\n      dup2\n        /* \"#utility.yul\":18287:18307   */\n      sub\n        /* \"#utility.yul\":18283:18284   */\n      0x00\n        /* \"#utility.yul\":18272:18281   */\n      dup4\n        /* \"#utility.yul\":18268:18285   */\n      add\n        /* \"#utility.yul\":18261:18308   */\n      mstore\n        /* \"#utility.yul\":18325:18456   */\n      tag_546\n        /* \"#utility.yul\":18451:18455   */\n      dup2\n        /* \"#utility.yul\":18325:18456   */\n      tag_446\n      jump\t// in\n    tag_546:\n        /* \"#utility.yul\":18317:18456   */\n      swap1\n      pop\n        /* \"#utility.yul\":18044:18463   */\n      swap2\n      swap1\n      pop\n      jump\t// out\n        /* \"#utility.yul\":18469:18888   */\n    tag_288:\n        /* \"#utility.yul\":18635:18639   */\n      0x00\n        /* \"#utility.yul\":18673:18675   */\n      0x20\n        /* \"#utility.yul\":18662:18671   */\n      dup3\n        /* \"#utility.yul\":18658:18676   */\n      add\n        /* \"#utility.yul\":18650:18676   */\n      swap1\n      pop\n        /* \"#utility.yul\":18722:18731   */\n      dup2\n        /* \"#utility.yul\":18716:18720   */\n      dup2\n        /* \"#utility.yul\":18712:18732   */\n      sub\n        /* \"#utility.yul\":18708:18709   */\n      0x00\n        /* \"#utility.yul\":18697:18706   */\n      dup4\n        /* \"#utility.yul\":18693:18710   */\n      add\n        /* \"#utility.yul\":18686:18733   */\n      mstore\n        /* \"#utility.yul\":18750:18881   */\n      tag_548\n        /* \"#utility.yul\":18876:18880   */\n      dup2\n        /* \"#utility.yul\":18750:18881   */\n      tag_451\n      jump\t// in\n    tag_548:\n        /* \"#utility.yul\":18742:18881   */\n      swap1\n      pop\n        /* \"#utility.yul\":18469:18888   */\n      swap2\n      swap1\n      pop\n      jump\t// out\n        /* \"#utility.yul\":18894:19313   */\n    tag_211:\n        /* \"#utility.yul\":19060:19064   */\n      0x00\n        /* \"#utility.yul\":19098:19100   */\n      0x20\n        /* \"#utility.yul\":19087:19096   */\n      dup3\n        /* \"#utility.yul\":19083:19101   */\n      add\n        /* \"#utility.yul\":19075:19101   */\n      swap1\n      pop\n        /* \"#utility.yul\":19147:19156   */\n      dup2\n        /* \"#utility.yul\":19141:19145   */\n      dup2\n        /* \"#utility.yul\":19137:19157   */\n      sub\n        /* \"#utility.yul\":19133:19134   */\n      0x00\n        /* \"#utility.yul\":19122:19131   */\n      dup4\n        /* \"#utility.yul\":19118:19135   */\n      add\n        /* \"#utility.yul\":19111:19158   */\n      mstore\n        /* \"#utility.yul\":19175:19306   */\n      tag_550\n        /* \"#utility.yul\":19301:19305   */\n      dup2\n        /* \"#utility.yul\":19175:19306   */\n      tag_456\n      jump\t// in\n    tag_550:\n        /* \"#utility.yul\":19167:19306   */\n      swap1\n      pop\n        /* \"#utility.yul\":18894:19313   */\n      swap2\n      swap1\n      pop\n      jump\t// out\n        /* \"#utility.yul\":19319:19738   */\n    tag_280:\n        /* \"#utility.yul\":19485:19489   */\n      0x00\n        /* \"#utility.yul\":19523:19525   */\n      0x20\n        /* \"#utility.yul\":19512:19521   */\n      dup3\n        /* \"#utility.yul\":19508:19526   */\n      add\n        /* \"#utility.yul\":19500:19526   */\n      swap1\n      pop\n        /* \"#utility.yul\":19572:19581   */\n      dup2\n        /* \"#utility.yul\":19566:19570   */\n      dup2\n        /* \"#utility.yul\":19562:19582   */\n      sub\n        /* \"#utility.yul\":19558:19559   */\n      0x00\n        /* \"#utility.yul\":19547:19556   */\n      dup4\n        /* \"#utility.yul\":19543:19560   */\n      add\n        /* \"#utility.yul\":19536:19583   */\n      mstore\n        /* \"#utility.yul\":19600:19731   */\n      tag_552\n        /* \"#utility.yul\":19726:19730   */\n      dup2\n        /* \"#utility.yul\":19600:19731   */\n      tag_461\n      jump\t// in\n    tag_552:\n        /* \"#utility.yul\":19592:19731   */\n      swap1\n      pop\n        /* \"#utility.yul\":19319:19738   */\n      swap2\n      swap1\n      pop\n      jump\t// out\n        /* \"#utility.yul\":19744:20163   */\n    tag_31:\n        /* \"#utility.yul\":19910:19914   */\n      0x00\n        /* \"#utility.yul\":19948:19950   */\n      0x20\n        /* \"#utility.yul\":19937:19946   */\n      dup3\n        /* \"#utility.yul\":19933:19951   */\n      add\n        /* \"#utility.yul\":19925:19951   */\n      swap1\n      pop\n        /* \"#utility.yul\":19997:20006   */\n      dup2\n        /* \"#utility.yul\":19991:19995   */\n      dup2\n        /* \"#utility.yul\":19987:20007   */\n      sub\n        /* \"#utility.yul\":19983:19984   */\n      0x00\n        /* \"#utility.yul\":19972:19981   */\n      dup4\n        /* \"#utility.yul\":19968:19985   */\n      add\n        /* \"#utility.yul\":19961:20008   */\n      mstore\n        /* \"#utility.yul\":20025:20156   */\n      tag_554\n        /* \"#utility.yul\":20151:20155   */\n      dup2\n        /* \"#utility.yul\":20025:20156   */\n      tag_466\n      jump\t// in\n    tag_554:\n        /* \"#utility.yul\":20017:20156   */\n      swap1\n      pop\n        /* \"#utility.yul\":19744:20163   */\n      swap2\n      swap1\n      pop\n      jump\t// out\n        /* \"#utility.yul\":20169:20588   */\n    tag_225:\n        /* \"#utility.yul\":20335:20339   */\n      0x00\n        /* \"#utility.yul\":20373:20375   */\n      0x20\n        /* \"#utility.yul\":20362:20371   */\n      dup3\n        /* \"#utility.yul\":20358:20376   */\n      add\n        /* \"#utility.yul\":20350:20376   */\n      swap1\n      pop\n        /* \"#utility.yul\":20422:20431   */\n      dup2\n        /* \"#utility.yul\":20416:20420   */\n      dup2\n        /* \"#utility.yul\":20412:20432   */\n      sub\n        /* \"#utility.yul\":20408:20409   */\n      0x00\n        /* \"#utility.yul\":20397:20406   */\n      dup4\n        /* \"#utility.yul\":20393:20410   */\n      add\n        /* \"#utility.yul\":20386:20433   */\n      mstore\n        /* \"#utility.yul\":20450:20581   */\n      tag_556\n        /* \"#utility.yul\":20576:20580   */\n      dup2\n        /* \"#utility.yul\":20450:20581   */\n      tag_471\n      jump\t// in\n    tag_556:\n        /* \"#utility.yul\":20442:20581   */\n      swap1\n      pop\n        /* \"#utility.yul\":20169:20588   */\n      swap2\n      swap1\n      pop\n      jump\t// out\n        /* \"#utility.yul\":20594:21013   */\n    tag_204:\n        /* \"#utility.yul\":20760:20764   */\n      0x00\n        /* \"#utility.yul\":20798:20800   */\n      0x20\n        /* \"#utility.yul\":20787:20796   */\n      dup3\n        /* \"#utility.yul\":20783:20801   */\n      add\n        /* \"#utility.yul\":20775:20801   */\n      swap1\n      pop\n        /* \"#utility.yul\":20847:20856   */\n      dup2\n        /* \"#utility.yul\":20841:20845   */\n      dup2\n        /* \"#utility.yul\":20837:20857   */\n      sub\n        /* \"#utility.yul\":20833:20834   */\n      0x00\n        /* \"#utility.yul\":20822:20831   */\n      dup4\n        /* \"#utility.yul\":20818:20835   */\n      add\n        /* \"#utility.yul\":20811:20858   */\n      mstore\n        /* \"#utility.yul\":20875:21006   */\n      tag_558\n        /* \"#utility.yul\":21001:21005   */\n      dup2\n        /* \"#utility.yul\":20875:21006   */\n      tag_476\n      jump\t// in\n    tag_558:\n        /* \"#utility.yul\":20867:21006   */\n      swap1\n      pop\n        /* \"#utility.yul\":20594:21013   */\n      swap2\n      swap1\n      pop\n      jump\t// out\n        /* \"#utility.yul\":21019:21438   */\n    tag_283:\n        /* \"#utility.yul\":21185:21189   */\n      0x00\n        /* \"#utility.yul\":21223:21225   */\n      0x20\n        /* \"#utility.yul\":21212:21221   */\n      dup3\n        /* \"#utility.yul\":21208:21226   */\n      add\n        /* \"#utility.yul\":21200:21226   */\n      swap1\n      pop\n        /* \"#utility.yul\":21272:21281   */\n      dup2\n        /* \"#utility.yul\":21266:21270   */\n      dup2\n        /* \"#utility.yul\":21262:21282   */\n      sub\n        /* \"#utility.yul\":21258:21259   */\n      0x00\n        /* \"#utility.yul\":21247:21256   */\n      dup4\n        /* \"#utility.yul\":21243:21260   */\n      add\n        /* \"#utility.yul\":21236:21283   */\n      mstore\n        /* \"#utility.yul\":21300:21431   */\n      tag_560\n        /* \"#utility.yul\":21426:21430   */\n      dup2\n        /* \"#utility.yul\":21300:21431   */\n      tag_481\n      jump\t// in\n    tag_560:\n        /* \"#utility.yul\":21292:21431   */\n      swap1\n      pop\n        /* \"#utility.yul\":21019:21438   */\n      swap2\n      swap1\n      pop\n      jump\t// out\n        /* \"#utility.yul\":21444:21863   */\n    tag_258:\n        /* \"#utility.yul\":21610:21614   */\n      0x00\n        /* \"#utility.yul\":21648:21650   */\n      0x20\n        /* \"#utility.yul\":21637:21646   */\n      dup3\n        /* \"#utility.yul\":21633:21651   */\n      add\n        /* \"#utility.yul\":21625:21651   */\n      swap1\n      pop\n        /* \"#utility.yul\":21697:21706   */\n      dup2\n        /* \"#utility.yul\":21691:21695   */\n      dup2\n        /* \"#utility.yul\":21687:21707   */\n      sub\n        /* \"#utility.yul\":21683:21684   */\n      0x00\n        /* \"#utility.yul\":21672:21681   */\n      dup4\n        /* \"#utility.yul\":21668:21685   */\n      add\n        /* \"#utility.yul\":21661:21708   */\n      mstore\n        /* \"#utility.yul\":21725:21856   */\n      tag_562\n        /* \"#utility.yul\":21851:21855   */\n      dup2\n        /* \"#utility.yul\":21725:21856   */\n      tag_486\n      jump\t// in\n    tag_562:\n        /* \"#utility.yul\":21717:21856   */\n      swap1\n      pop\n        /* \"#utility.yul\":21444:21863   */\n      swap2\n      swap1\n      pop\n      jump\t// out\n        /* \"#utility.yul\":21869:22288   */\n    tag_188:\n        /* \"#utility.yul\":22035:22039   */\n      0x00\n        /* \"#utility.yul\":22073:22075   */\n      0x20\n        /* \"#utility.yul\":22062:22071   */\n      dup3\n        /* \"#utility.yul\":22058:22076   */\n      add\n        /* \"#utility.yul\":22050:22076   */\n      swap1\n      pop\n        /* \"#utility.yul\":22122:22131   */\n      dup2\n        /* \"#utility.yul\":22116:22120   */\n      dup2\n        /* \"#utility.yul\":22112:22132   */\n      sub\n        /* \"#utility.yul\":22108:22109   */\n      0x00\n        /* \"#utility.yul\":22097:22106   */\n      dup4\n        /* \"#utility.yul\":22093:22110   */\n      add\n        /* \"#utility.yul\":22086:22133   */\n      mstore\n        /* \"#utility.yul\":22150:22281   */\n      tag_564\n        /* \"#utility.yul\":22276:22280   */\n      dup2\n        /* \"#utility.yul\":22150:22281   */\n      tag_491\n      jump\t// in\n    tag_564:\n        /* \"#utility.yul\":22142:22281   */\n      swap1\n      pop\n        /* \"#utility.yul\":21869:22288   */\n      swap2\n      swap1\n      pop\n      jump\t// out\n        /* \"#utility.yul\":22294:22713   */\n    tag_217:\n        /* \"#utility.yul\":22460:22464   */\n      0x00\n        /* \"#utility.yul\":22498:22500   */\n      0x20\n        /* \"#utility.yul\":22487:22496   */\n      dup3\n        /* \"#utility.yul\":22483:22501   */\n      add\n        /* \"#utility.yul\":22475:22501   */\n      swap1\n      pop\n        /* \"#utility.yul\":22547:22556   */\n      dup2\n        /* \"#utility.yul\":22541:22545   */\n      dup2\n        /* \"#utility.yul\":22537:22557   */\n      sub\n        /* \"#utility.yul\":22533:22534   */\n      0x00\n        /* \"#utility.yul\":22522:22531   */\n      dup4\n        /* \"#utility.yul\":22518:22535   */\n      add\n        /* \"#utility.yul\":22511:22558   */\n      mstore\n        /* \"#utility.yul\":22575:22706   */\n      tag_566\n        /* \"#utility.yul\":22701:22705   */\n      dup2\n        /* \"#utility.yul\":22575:22706   */\n      tag_496\n      jump\t// in\n    tag_566:\n        /* \"#utility.yul\":22567:22706   */\n      swap1\n      pop\n        /* \"#utility.yul\":22294:22713   */\n      swap2\n      swap1\n      pop\n      jump\t// out\n        /* \"#utility.yul\":22719:23138   */\n    tag_233:\n        /* \"#utility.yul\":22885:22889   */\n      0x00\n        /* \"#utility.yul\":22923:22925   */\n      0x20\n        /* \"#utility.yul\":22912:22921   */\n      dup3\n        /* \"#utility.yul\":22908:22926   */\n      add\n        /* \"#utility.yul\":22900:22926   */\n      swap1\n      pop\n        /* \"#utility.yul\":22972:22981   */\n      dup2\n        /* \"#utility.yul\":22966:22970   */\n      dup2\n        /* \"#utility.yul\":22962:22982   */\n      sub\n        /* \"#utility.yul\":22958:22959   */\n      0x00\n        /* \"#utility.yul\":22947:22956   */\n      dup4\n        /* \"#utility.yul\":22943:22960   */\n      add\n        /* \"#utility.yul\":22936:22983   */\n      mstore\n        /* \"#utility.yul\":23000:23131   */\n      tag_568\n        /* \"#utility.yul\":23126:23130   */\n      dup2\n        /* \"#utility.yul\":23000:23131   */\n      tag_501\n      jump\t// in\n    tag_568:\n        /* \"#utility.yul\":22992:23131   */\n      swap1\n      pop\n        /* \"#utility.yul\":22719:23138   */\n      swap2\n      swap1\n      pop\n      jump\t// out\n        /* \"#utility.yul\":23144:23563   */\n    tag_244:\n        /* \"#utility.yul\":23310:23314   */\n      0x00\n        /* \"#utility.yul\":23348:23350   */\n      0x20\n        /* \"#utility.yul\":23337:23346   */\n      dup3\n        /* \"#utility.yul\":23333:23351   */\n      add\n        /* \"#utility.yul\":23325:23351   */\n      swap1\n      pop\n        /* \"#utility.yul\":23397:23406   */\n      dup2\n        /* \"#utility.yul\":23391:23395   */\n      dup2\n        /* \"#utility.yul\":23387:23407   */\n      sub\n        /* \"#utility.yul\":23383:23384   */\n      0x00\n        /* \"#utility.yul\":23372:23381   */\n      dup4\n        /* \"#utility.yul\":23368:23385   */\n      add\n        /* \"#utility.yul\":23361:23408   */\n      mstore\n        /* \"#utility.yul\":23425:23556   */\n      tag_570\n        /* \"#utility.yul\":23551:23555   */\n      dup2\n        /* \"#utility.yul\":23425:23556   */\n      tag_506\n      jump\t// in\n    tag_570:\n        /* \"#utility.yul\":23417:23556   */\n      swap1\n      pop\n        /* \"#utility.yul\":23144:23563   */\n      swap2\n      swap1\n      pop\n      jump\t// out\n        /* \"#utility.yul\":23569:23924   */\n    tag_100:\n        /* \"#utility.yul\":23728:23732   */\n      0x00\n        /* \"#utility.yul\":23766:23769   */\n      0x80\n        /* \"#utility.yul\":23755:23764   */\n      dup3\n        /* \"#utility.yul\":23751:23770   */\n      add\n        /* \"#utility.yul\":23743:23770   */\n      swap1\n      pop\n        /* \"#utility.yul\":23780:23917   */\n      tag_572\n        /* \"#utility.yul\":23914:23915   */\n      0x00\n        /* \"#utility.yul\":23903:23912   */\n      dup4\n        /* \"#utility.yul\":23899:23916   */\n      add\n        /* \"#utility.yul\":23890:23896   */\n      dup5\n        /* \"#utility.yul\":23780:23917   */\n      tag_511\n      jump\t// in\n    tag_572:\n        /* \"#utility.yul\":23569:23924   */\n      swap3\n      swap2\n      pop\n      pop\n      jump\t// out\n        /* \"#utility.yul\":23930:24152   */\n    tag_55:\n        /* \"#utility.yul\":24023:24027   */\n      0x00\n        /* \"#utility.yul\":24061:24063   */\n      0x20\n        /* \"#utility.yul\":24050:24059   */\n      dup3\n        /* \"#utility.yul\":24046:24064   */\n      add\n        /* \"#utility.yul\":24038:24064   */\n      swap1\n      pop\n        /* \"#utility.yul\":24074:24145   */\n      tag_574\n        /* \"#utility.yul\":24142:24143   */\n      0x00\n        /* \"#utility.yul\":24131:24140   */\n      dup4\n        /* \"#utility.yul\":24127:24144   */\n      add\n        /* \"#utility.yul\":24118:24124   */\n      dup5\n        /* \"#utility.yul\":24074:24145   */\n      tag_521\n      jump\t// in\n    tag_574:\n        /* \"#utility.yul\":23930:24152   */\n      swap3\n      swap2\n      pop\n      pop\n      jump\t// out\n        /* \"#utility.yul\":24158:24882   */\n    tag_237:\n        /* \"#utility.yul\":24235:24239   */\n      0x00\n        /* \"#utility.yul\":24241:24247   */\n      dup1\n        /* \"#utility.yul\":24297:24308   */\n      dup4\n        /* \"#utility.yul\":24284:24309   */\n      calldataload\n        /* \"#utility.yul\":24397:24398   */\n      0x01\n        /* \"#utility.yul\":24391:24395   */\n      0x20\n        /* \"#utility.yul\":24387:24399   */\n      sub\n        /* \"#utility.yul\":24376:24384   */\n      dup5\n        /* \"#utility.yul\":24360:24374   */\n      calldatasize\n        /* \"#utility.yul\":24356:24385   */\n      sub\n        /* \"#utility.yul\":24352:24400   */\n      sub\n        /* \"#utility.yul\":24332:24350   */\n      dup2\n        /* \"#utility.yul\":24328:24401   */\n      slt\n        /* \"#utility.yul\":24318:24486   */\n      tag_576\n      jumpi\n        /* \"#utility.yul\":24405:24484   */\n      tag_577\n      tag_578\n      jump\t// in\n    tag_577:\n        /* \"#utility.yul\":24318:24486   */\n    tag_576:\n        /* \"#utility.yul\":24517:24535   */\n      dup1\n        /* \"#utility.yul\":24507:24515   */\n      dup5\n        /* \"#utility.yul\":24503:24536   */\n      add\n        /* \"#utility.yul\":24495:24536   */\n      swap3\n      pop\n        /* \"#utility.yul\":24569:24573   */\n      dup3\n        /* \"#utility.yul\":24556:24574   */\n      calldataload\n        /* \"#utility.yul\":24546:24574   */\n      swap2\n      pop\n        /* \"#utility.yul\":24597:24615   */\n      0xffffffffffffffff\n        /* \"#utility.yul\":24589:24595   */\n      dup3\n        /* \"#utility.yul\":24586:24616   */\n      gt\n        /* \"#utility.yul\":24583:24700   */\n      iszero\n      tag_579\n      jumpi\n        /* \"#utility.yul\":24619:24698   */\n      tag_580\n      tag_581\n      jump\t// in\n    tag_580:\n        /* \"#utility.yul\":24583:24700   */\n    tag_579:\n        /* \"#utility.yul\":24727:24729   */\n      0x20\n        /* \"#utility.yul\":24721:24725   */\n      dup4\n        /* \"#utility.yul\":24717:24730   */\n      add\n        /* \"#utility.yul\":24709:24730   */\n      swap3\n      pop\n        /* \"#utility.yul\":24784:24788   */\n      0x01\n        /* \"#utility.yul\":24776:24782   */\n      dup3\n        /* \"#utility.yul\":24772:24789   */\n      mul\n        /* \"#utility.yul\":24756:24770   */\n      calldatasize\n        /* \"#utility.yul\":24752:24790   */\n      sub\n        /* \"#utility.yul\":24746:24750   */\n      dup4\n        /* \"#utility.yul\":24742:24791   */\n      sgt\n        /* \"#utility.yul\":24739:24875   */\n      iszero\n      tag_582\n      jumpi\n        /* \"#utility.yul\":24794:24873   */\n      tag_583\n      tag_584\n      jump\t// in\n    tag_583:\n        /* \"#utility.yul\":24739:24875   */\n    tag_582:\n        /* \"#utility.yul\":24248:24882   */\n      pop\n        /* \"#utility.yul\":24158:24882   */\n      swap3\n      pop\n      swap3\n      swap1\n      pop\n      jump\t// out\n        /* \"#utility.yul\":24888:25287   */\n    tag_230:\n        /* \"#utility.yul\":24987:24991   */\n      0x00\n        /* \"#utility.yul\":25041:25052   */\n      dup3\n        /* \"#utility.yul\":25028:25053   */\n      calldataload\n        /* \"#utility.yul\":25141:25142   */\n      0x01\n        /* \"#utility.yul\":25135:25139   */\n      0xe0\n        /* \"#utility.yul\":25131:25143   */\n      sub\n        /* \"#utility.yul\":25120:25128   */\n      dup4\n        /* \"#utility.yul\":25104:25118   */\n      calldatasize\n        /* \"#utility.yul\":25100:25129   */\n      sub\n        /* \"#utility.yul\":25096:25144   */\n      sub\n        /* \"#utility.yul\":25076:25094   */\n      dup2\n        /* \"#utility.yul\":25072:25145   */\n      slt\n        /* \"#utility.yul\":25062:25230   */\n      tag_586\n      jumpi\n        /* \"#utility.yul\":25149:25228   */\n      tag_587\n      tag_578\n      jump\t// in\n    tag_587:\n        /* \"#utility.yul\":25062:25230   */\n    tag_586:\n        /* \"#utility.yul\":25261:25279   */\n      dup1\n        /* \"#utility.yul\":25251:25259   */\n      dup4\n        /* \"#utility.yul\":25247:25280   */\n      add\n        /* \"#utility.yul\":25239:25280   */\n      swap2\n      pop\n        /* \"#utility.yul\":24992:25287   */\n      pop\n        /* \"#utility.yul\":24888:25287   */\n      swap3\n      swap2\n      pop\n      pop\n      jump\t// out\n        /* \"#utility.yul\":25293:25690   */\n    tag_220:\n        /* \"#utility.yul\":25388:25392   */\n      0x00\n        /* \"#utility.yul\":25442:25453   */\n      dup3\n        /* \"#utility.yul\":25429:25454   */\n      calldataload\n        /* \"#utility.yul\":25544:25545   */\n      0x01\n        /* \"#utility.yul\":25536:25542   */\n      0x0100\n        /* \"#utility.yul\":25532:25546   */\n      sub\n        /* \"#utility.yul\":25521:25529   */\n      dup4\n        /* \"#utility.yul\":25505:25519   */\n      calldatasize\n        /* \"#utility.yul\":25501:25530   */\n      sub\n        /* \"#utility.yul\":25497:25547   */\n      sub\n        /* \"#utility.yul\":25477:25495   */\n      dup2\n        /* \"#utility.yul\":25473:25548   */\n      slt\n        /* \"#utility.yul\":25463:25633   */\n      tag_589\n      jumpi\n        /* \"#utility.yul\":25552:25631   */\n      tag_590\n      tag_578\n      jump\t// in\n    tag_590:\n        /* \"#utility.yul\":25463:25633   */\n    tag_589:\n        /* \"#utility.yul\":25664:25682   */\n      dup1\n        /* \"#utility.yul\":25654:25662   */\n      dup4\n        /* \"#utility.yul\":25650:25683   */\n      add\n        /* \"#utility.yul\":25642:25683   */\n      swap2\n      pop\n        /* \"#utility.yul\":25393:25690   */\n      pop\n        /* \"#utility.yul\":25293:25690   */\n      swap3\n      swap2\n      pop\n      pop\n      jump\t// out\n        /* \"#utility.yul\":25777:25875   */\n    tag_420:\n        /* \"#utility.yul\":25828:25834   */\n      0x00\n        /* \"#utility.yul\":25862:25867   */\n      dup2\n        /* \"#utility.yul\":25856:25868   */\n      mload\n        /* \"#utility.yul\":25846:25868   */\n      swap1\n      pop\n        /* \"#utility.yul\":25777:25875   */\n      swap2\n      swap1\n      pop\n      jump\t// out\n        /* \"#utility.yul\":25881:25980   */\n    tag_436:\n        /* \"#utility.yul\":25933:25939   */\n      0x00\n        /* \"#utility.yul\":25967:25972   */\n      dup2\n        /* \"#utility.yul\":25961:25973   */\n      mload\n        /* \"#utility.yul\":25951:25973   */\n      swap1\n      pop\n        /* \"#utility.yul\":25881:25980   */\n      swap2\n      swap1\n      pop\n      jump\t// out\n        /* \"#utility.yul\":25986:26154   */\n    tag_422:\n        /* \"#utility.yul\":26069:26080   */\n      0x00\n        /* \"#utility.yul\":26103:26109   */\n      dup3\n        /* \"#utility.yul\":26098:26101   */\n      dup3\n        /* \"#utility.yul\":26091:26110   */\n      mstore\n        /* \"#utility.yul\":26143:26147   */\n      0x20\n        /* \"#utility.yul\":26138:26141   */\n      dup3\n        /* \"#utility.yul\":26134:26148   */\n      add\n        /* \"#utility.yul\":26119:26148   */\n      swap1\n      pop\n        /* \"#utility.yul\":25986:26154   */\n      swap3\n      swap2\n      pop\n      pop\n      jump\t// out\n        /* \"#utility.yul\":26160:26307   */\n    tag_431:\n        /* \"#utility.yul\":26261:26272   */\n      0x00\n        /* \"#utility.yul\":26298:26301   */\n      dup2\n        /* \"#utility.yul\":26283:26301   */\n      swap1\n      pop\n        /* \"#utility.yul\":26160:26307   */\n      swap3\n      swap2\n      pop\n      pop\n      jump\t// out\n        /* \"#utility.yul\":26313:26482   */\n    tag_438:\n        /* \"#utility.yul\":26397:26408   */\n      0x00\n        /* \"#utility.yul\":26431:26437   */\n      dup3\n        /* \"#utility.yul\":26426:26429   */\n      dup3\n        /* \"#utility.yul\":26419:26438   */\n      mstore\n        /* \"#utility.yul\":26471:26475   */\n      0x20\n        /* \"#utility.yul\":26466:26469   */\n      dup3\n        /* \"#utility.yul\":26462:26476   */\n      add\n        /* \"#utility.yul\":26447:26476   */\n      swap1\n      pop\n        /* \"#utility.yul\":26313:26482   */\n      swap3\n      swap2\n      pop\n      pop\n      jump\t// out\n        /* \"#utility.yul\":26488:26793   */\n    tag_196:\n        /* \"#utility.yul\":26528:26531   */\n      0x00\n        /* \"#utility.yul\":26547:26567   */\n      tag_599\n        /* \"#utility.yul\":26565:26566   */\n      dup3\n        /* \"#utility.yul\":26547:26567   */\n      tag_520\n      jump\t// in\n    tag_599:\n        /* \"#utility.yul\":26542:26567   */\n      swap2\n      pop\n        /* \"#utility.yul\":26581:26601   */\n      tag_600\n        /* \"#utility.yul\":26599:26600   */\n      dup4\n        /* \"#utility.yul\":26581:26601   */\n      tag_520\n      jump\t// in\n    tag_600:\n        /* \"#utility.yul\":26576:26601   */\n      swap3\n      pop\n        /* \"#utility.yul\":26735:26736   */\n      dup3\n        /* \"#utility.yul\":26667:26733   */\n      0xffffffffffffffffffffffffffffffffffffffffffffffffffffffffffffffff\n        /* \"#utility.yul\":26663:26737   */\n      sub\n        /* \"#utility.yul\":26660:26661   */\n      dup3\n        /* \"#utility.yul\":26657:26738   */\n      gt\n        /* \"#utility.yul\":26654:26761   */\n      iszero\n      tag_601\n      jumpi\n        /* \"#utility.yul\":26741:26759   */\n      tag_602\n      tag_603\n      jump\t// in\n    tag_602:\n        /* \"#utility.yul\":26654:26761   */\n    tag_601:\n        /* \"#utility.yul\":26785:26786   */\n      dup3\n        /* \"#utility.yul\":26782:26783   */\n      dup3\n        /* \"#utility.yul\":26778:26787   */\n      add\n        /* \"#utility.yul\":26771:26787   */\n      swap1\n      pop\n        /* \"#utility.yul\":26488:26793   */\n      swap3\n      swap2\n      pop\n      pop\n      jump\t// out\n        /* \"#utility.yul\":26799:26895   */\n    tag_408:\n        /* \"#utility.yul\":26836:26843   */\n      0x00\n        /* \"#utility.yul\":26865:26889   */\n      tag_605\n        /* \"#utility.yul\":26883:26888   */\n      dup3\n        /* \"#utility.yul\":26865:26889   */\n      tag_606\n      jump\t// in\n    tag_605:\n        /* \"#utility.yul\":26854:26889   */\n      swap1\n      pop\n        /* \"#utility.yul\":26799:26895   */\n      swap2\n      swap1\n      pop\n      jump\t// out\n        /* \"#utility.yul\":26901:27005   */\n    tag_404:\n        /* \"#utility.yul\":26946:26953   */\n      0x00\n        /* \"#utility.yul\":26975:26999   */\n      tag_608\n        /* \"#utility.yul\":26993:26998   */\n      dup3\n        /* \"#utility.yul\":26975:26999   */\n      tag_606\n      jump\t// in\n    tag_608:\n        /* \"#utility.yul\":26964:26999   */\n      swap1\n      pop\n        /* \"#utility.yul\":26901:27005   */\n      swap2\n      swap1\n      pop\n      jump\t// out\n        /* \"#utility.yul\":27011:27101   */\n    tag_412:\n        /* \"#utility.yul\":27045:27052   */\n      0x00\n        /* \"#utility.yul\":27088:27093   */\n      dup2\n        /* \"#utility.yul\":27081:27094   */\n      iszero\n        /* \"#utility.yul\":27074:27095   */\n      iszero\n        /* \"#utility.yul\":27063:27095   */\n      swap1\n      pop\n        /* \"#utility.yul\":27011:27101   */\n      swap2\n      swap1\n      pop\n      jump\t// out\n        /* \"#utility.yul\":27107:27256   */\n    tag_416:\n        /* \"#utility.yul\":27143:27150   */\n      0x00\n        /* \"#utility.yul\":27183:27249   */\n      0xffffffff00000000000000000000000000000000000000000000000000000000\n        /* \"#utility.yul\":27176:27181   */\n      dup3\n        /* \"#utility.yul\":27172:27250   */\n      and\n        /* \"#utility.yul\":27161:27250   */\n      swap1\n      pop\n        /* \"#utility.yul\":27107:27256   */\n      swap2\n      swap1\n      pop\n      jump\t// out\n        /* \"#utility.yul\":27262:27375   */\n    tag_611:\n        /* \"#utility.yul\":27316:27323   */\n      0x00\n        /* \"#utility.yul\":27345:27369   */\n      tag_613\n        /* \"#utility.yul\":27363:27368   */\n      dup3\n        /* \"#utility.yul\":27345:27369   */\n      tag_408\n      jump\t// in\n    tag_613:\n        /* \"#utility.yul\":27334:27369   */\n      swap1\n      pop\n        /* \"#utility.yul\":27262:27375   */\n      swap2\n      swap1\n      pop\n      jump\t// out\n        /* \"#utility.yul\":27381:27507   */\n    tag_606:\n        /* \"#utility.yul\":27418:27425   */\n      0x00\n        /* \"#utility.yul\":27458:27500   */\n      0xffffffffffffffffffffffffffffffffffffffff\n        /* \"#utility.yul\":27451:27456   */\n      dup3\n        /* \"#utility.yul\":27447:27501   */\n      and\n        /* \"#utility.yul\":27436:27501   */\n      swap1\n      pop\n        /* \"#utility.yul\":27381:27507   */\n      swap2\n      swap1\n      pop\n      jump\t// out\n        /* \"#utility.yul\":27513:27590   */\n    tag_520:\n        /* \"#utility.yul\":27550:27557   */\n      0x00\n        /* \"#utility.yul\":27579:27584   */\n      dup2\n        /* \"#utility.yul\":27568:27584   */\n      swap1\n      pop\n        /* \"#utility.yul\":27513:27590   */\n      swap2\n      swap1\n      pop\n      jump\t// out\n        /* \"#utility.yul\":27596:27903   */\n    tag_424:\n        /* \"#utility.yul\":27664:27665   */\n      0x00\n        /* \"#utility.yul\":27674:27787   */\n    tag_617:\n        /* \"#utility.yul\":27688:27694   */\n      dup4\n        /* \"#utility.yul\":27685:27686   */\n      dup2\n        /* \"#utility.yul\":27682:27695   */\n      lt\n        /* \"#utility.yul\":27674:27787   */\n      iszero\n      tag_619\n      jumpi\n        /* \"#utility.yul\":27773:27774   */\n      dup1\n        /* \"#utility.yul\":27768:27771   */\n      dup3\n        /* \"#utility.yul\":27764:27775   */\n      add\n        /* \"#utility.yul\":27758:27776   */\n      mload\n        /* \"#utility.yul\":27754:27755   */\n      dup2\n        /* \"#utility.yul\":27749:27752   */\n      dup5\n        /* \"#utility.yul\":27745:27756   */\n      add\n        /* \"#utility.yul\":27738:27777   */\n      mstore\n        /* \"#utility.yul\":27710:27712   */\n      0x20\n        /* \"#utility.yul\":27707:27708   */\n      dup2\n        /* \"#utility.yul\":27703:27713   */\n      add\n        /* \"#utility.yul\":27698:27713   */\n      swap1\n      pop\n        /* \"#utility.yul\":27674:27787   */\n      jump(tag_617)\n    tag_619:\n        /* \"#utility.yul\":27805:27811   */\n      dup4\n        /* \"#utility.yul\":27802:27803   */\n      dup2\n        /* \"#utility.yul\":27799:27812   */\n      gt\n        /* \"#utility.yul\":27796:27897   */\n      iszero\n      tag_620\n      jumpi\n        /* \"#utility.yul\":27885:27886   */\n      0x00\n        /* \"#utility.yul\":27876:27882   */\n      dup5\n        /* \"#utility.yul\":27871:27874   */\n      dup5\n        /* \"#utility.yul\":27867:27883   */\n      add\n        /* \"#utility.yul\":27860:27887   */\n      mstore\n        /* \"#utility.yul\":27796:27897   */\n    tag_620:\n        /* \"#utility.yul\":27645:27903   */\n      pop\n        /* \"#utility.yul\":27596:27903   */\n      pop\n      pop\n      pop\n      jump\t// out\n        /* \"#utility.yul\":27909:28089   */\n    tag_603:\n        /* \"#utility.yul\":27957:28034   */\n      0x4e487b7100000000000000000000000000000000000000000000000000000000\n        /* \"#utility.yul\":27954:27955   */\n      0x00\n        /* \"#utility.yul\":27947:28035   */\n      mstore\n        /* \"#utility.yul\":28054:28058   */\n      0x11\n        /* \"#utility.yul\":28051:28052   */\n      0x04\n        /* \"#utility.yul\":28044:28059   */\n      mstore\n        /* \"#utility.yul\":28078:28082   */\n      0x24\n        /* \"#utility.yul\":28075:28076   */\n      0x00\n        /* \"#utility.yul\":28068:28083   */\n      revert\n        /* \"#utility.yul\":28095:28212   */\n    tag_326:\n        /* \"#utility.yul\":28204:28205   */\n      0x00\n        /* \"#utility.yul\":28201:28202   */\n      dup1\n        /* \"#utility.yul\":28194:28206   */\n      revert\n        /* \"#utility.yul\":28218:28335   */\n    tag_323:\n        /* \"#utility.yul\":28327:28328   */\n      0x00\n        /* \"#utility.yul\":28324:28325   */\n      dup1\n        /* \"#utility.yul\":28317:28329   */\n      revert\n        /* \"#utility.yul\":28341:28458   */\n    tag_581:\n        /* \"#utility.yul\":28450:28451   */\n      0x00\n        /* \"#utility.yul\":28447:28448   */\n      dup1\n        /* \"#utility.yul\":28440:28452   */\n      revert\n        /* \"#utility.yul\":28464:28581   */\n    tag_338:\n        /* \"#utility.yul\":28573:28574   */\n      0x00\n        /* \"#utility.yul\":28570:28571   */\n      dup1\n        /* \"#utility.yul\":28563:28575   */\n      revert\n        /* \"#utility.yul\":28587:28704   */\n    tag_578:\n        /* \"#utility.yul\":28696:28697   */\n      0x00\n        /* \"#utility.yul\":28693:28694   */\n      dup1\n        /* \"#utility.yul\":28686:28698   */\n      revert\n        /* \"#utility.yul\":28710:28827   */\n    tag_329:\n        /* \"#utility.yul\":28819:28820   */\n      0x00\n        /* \"#utility.yul\":28816:28817   */\n      dup1\n        /* \"#utility.yul\":28809:28821   */\n      revert\n        /* \"#utility.yul\":28833:28950   */\n    tag_584:\n        /* \"#utility.yul\":28942:28943   */\n      0x00\n        /* \"#utility.yul\":28939:28940   */\n      dup1\n        /* \"#utility.yul\":28932:28944   */\n      revert\n        /* \"#utility.yul\":28956:29073   */\n    tag_368:\n        /* \"#utility.yul\":29065:29066   */\n      0x00\n        /* \"#utility.yul\":29062:29063   */\n      dup1\n        /* \"#utility.yul\":29055:29067   */\n      revert\n        /* \"#utility.yul\":29079:29196   */\n    tag_353:\n        /* \"#utility.yul\":29188:29189   */\n      0x00\n        /* \"#utility.yul\":29185:29186   */\n      dup1\n        /* \"#utility.yul\":29178:29190   */\n      revert\n        /* \"#utility.yul\":29202:29304   */\n    tag_426:\n        /* \"#utility.yul\":29243:29249   */\n      0x00\n        /* \"#utility.yul\":29294:29296   */\n      0x1f\n        /* \"#utility.yul\":29290:29297   */\n      not\n        /* \"#utility.yul\":29285:29287   */\n      0x1f\n        /* \"#utility.yul\":29278:29283   */\n      dup4\n        /* \"#utility.yul\":29274:29288   */\n      add\n        /* \"#utility.yul\":29270:29298   */\n      and\n        /* \"#utility.yul\":29260:29298   */\n      swap1\n      pop\n        /* \"#utility.yul\":29202:29304   */\n      swap2\n      swap1\n      pop\n      jump\t// out\n        /* \"#utility.yul\":29310:29472   */\n    tag_445:\n        /* \"#utility.yul\":29450:29464   */\n      0x77726f6e67207461726765740000000000000000000000000000000000000000\n        /* \"#utility.yul\":29446:29447   */\n      0x00\n        /* \"#utility.yul\":29438:29444   */\n      dup3\n        /* \"#utility.yul\":29434:29448   */\n      add\n        /* \"#utility.yul\":29427:29465   */\n      mstore\n        /* \"#utility.yul\":29310:29472   */\n      pop\n      jump\t// out\n        /* \"#utility.yul\":29478:29656   */\n    tag_450:\n        /* \"#utility.yul\":29618:29648   */\n      0x73686f756c642068617665206e6f207061796d61737465724461746100000000\n        /* \"#utility.yul\":29614:29615   */\n      0x00\n        /* \"#utility.yul\":29606:29612   */\n      dup3\n        /* \"#utility.yul\":29602:29616   */\n      add\n        /* \"#utility.yul\":29595:29649   */\n      mstore\n        /* \"#utility.yul\":29478:29656   */\n      pop\n      jump\t// out\n        /* \"#utility.yul\":29662:29843   */\n    tag_455:\n        /* \"#utility.yul\":29802:29835   */\n      0x696e76616c696420666f7277617264657220666f7220726563697069656e7400\n        /* \"#utility.yul\":29798:29799   */\n      0x00\n        /* \"#utility.yul\":29790:29796   */\n      dup3\n        /* \"#utility.yul\":29786:29800   */\n      add\n        /* \"#utility.yul\":29779:29836   */\n      mstore\n        /* \"#utility.yul\":29662:29843   */\n      pop\n      jump\t// out\n        /* \"#utility.yul\":29849:30074   */\n    tag_460:\n        /* \"#utility.yul\":29989:30023   */\n      0x4f776e61626c653a206e6577206f776e657220697320746865207a65726f2061\n        /* \"#utility.yul\":29985:29986   */\n      0x00\n        /* \"#utility.yul\":29977:29983   */\n      dup3\n        /* \"#utility.yul\":29973:29987   */\n      add\n        /* \"#utility.yul\":29966:30024   */\n      mstore\n        /* \"#utility.yul\":30058:30066   */\n      0x6464726573730000000000000000000000000000000000000000000000000000\n        /* \"#utility.yul\":30053:30055   */\n      0x20\n        /* \"#utility.yul\":30045:30051   */\n      dup3\n        /* \"#utility.yul\":30041:30056   */\n      add\n        /* \"#utility.yul\":30034:30067   */\n      mstore\n        /* \"#utility.yul\":29849:30074   */\n      pop\n      jump\t// out\n        /* \"#utility.yul\":30080:30258   */\n    tag_465:\n        /* \"#utility.yul\":30220:30250   */\n      0x697354727573746564466f727761726465723a20726576657274656400000000\n        /* \"#utility.yul\":30216:30217   */\n      0x00\n        /* \"#utility.yul\":30208:30214   */\n      dup3\n        /* \"#utility.yul\":30204:30218   */\n      add\n        /* \"#utility.yul\":30197:30251   */\n      mstore\n        /* \"#utility.yul\":30080:30258   */\n      pop\n      jump\t// out\n        /* \"#utility.yul\":30264:30439   */\n    tag_470:\n        /* \"#utility.yul\":30404:30431   */\n      0x72656c6179206875622061646472657373206e6f742073657400000000000000\n        /* \"#utility.yul\":30400:30401   */\n      0x00\n        /* \"#utility.yul\":30392:30398   */\n      dup3\n        /* \"#utility.yul\":30388:30402   */\n      add\n        /* \"#utility.yul\":30381:30432   */\n      mstore\n        /* \"#utility.yul\":30264:30439   */\n      pop\n      jump\t// out\n        /* \"#utility.yul\":30445:30619   */\n    tag_475:\n        /* \"#utility.yul\":30585:30611   */\n      0x466f72776172646572206973206e6f7420747275737465640000000000000000\n        /* \"#utility.yul\":30581:30582   */\n      0x00\n        /* \"#utility.yul\":30573:30579   */\n      dup3\n        /* \"#utility.yul\":30569:30583   */\n      add\n        /* \"#utility.yul\":30562:30612   */\n      mstore\n        /* \"#utility.yul\":30445:30619   */\n      pop\n      jump\t// out\n        /* \"#utility.yul\":30625:30807   */\n    tag_480:\n        /* \"#utility.yul\":30765:30799   */\n      0x746172676574206973206e6f7420612076616c69642049466f72776172646572\n        /* \"#utility.yul\":30761:30762   */\n      0x00\n        /* \"#utility.yul\":30753:30759   */\n      dup3\n        /* \"#utility.yul\":30749:30763   */\n      add\n        /* \"#utility.yul\":30742:30800   */\n      mstore\n        /* \"#utility.yul\":30625:30807   */\n      pop\n      jump\t// out\n        /* \"#utility.yul\":30813:30995   */\n    tag_485:\n        /* \"#utility.yul\":30953:30987   */\n      0x697354727573746564466f727761726465723a2062616420726573706f6e7365\n        /* \"#utility.yul\":30949:30950   */\n      0x00\n        /* \"#utility.yul\":30941:30947   */\n      dup3\n        /* \"#utility.yul\":30937:30951   */\n      add\n        /* \"#utility.yul\":30930:30988   */\n      mstore\n        /* \"#utility.yul\":30813:30995   */\n      pop\n      jump\t// out\n        /* \"#utility.yul\":31001:31183   */\n    tag_490:\n        /* \"#utility.yul\":31141:31175   */\n      0x4f776e61626c653a2063616c6c6572206973206e6f7420746865206f776e6572\n        /* \"#utility.yul\":31137:31138   */\n      0x00\n        /* \"#utility.yul\":31129:31135   */\n      dup3\n        /* \"#utility.yul\":31125:31139   */\n      add\n        /* \"#utility.yul\":31118:31176   */\n      mstore\n        /* \"#utility.yul\":31001:31183   */\n      pop\n      jump\t// out\n        /* \"#utility.yul\":31189:31370   */\n    tag_495:\n        /* \"#utility.yul\":31329:31362   */\n      0x746172676574206973206e6f7420612076616c6964204952656c617948756200\n        /* \"#utility.yul\":31325:31326   */\n      0x00\n        /* \"#utility.yul\":31317:31323   */\n      dup3\n        /* \"#utility.yul\":31313:31327   */\n      add\n        /* \"#utility.yul\":31306:31363   */\n      mstore\n        /* \"#utility.yul\":31189:31370   */\n      pop\n      jump\t// out\n        /* \"#utility.yul\":31376:31556   */\n    tag_500:\n        /* \"#utility.yul\":31516:31548   */\n      0x63616e206f6e6c792062652063616c6c65642062792052656c61794875620000\n        /* \"#utility.yul\":31512:31513   */\n      0x00\n        /* \"#utility.yul\":31504:31510   */\n      dup3\n        /* \"#utility.yul\":31500:31514   */\n      add\n        /* \"#utility.yul\":31493:31549   */\n      mstore\n        /* \"#utility.yul\":31376:31556   */\n      pop\n      jump\t// out\n        /* \"#utility.yul\":31562:31740   */\n    tag_505:\n        /* \"#utility.yul\":31702:31732   */\n      0x76616c7565207472616e73666572206e6f7420737570706f7274656400000000\n        /* \"#utility.yul\":31698:31699   */\n      0x00\n        /* \"#utility.yul\":31690:31696   */\n      dup3\n        /* \"#utility.yul\":31686:31700   */\n      add\n        /* \"#utility.yul\":31679:31733   */\n      mstore\n        /* \"#utility.yul\":31562:31740   */\n      pop\n      jump\t// out\n        /* \"#utility.yul\":31746:31923   */\n    tag_510:\n        /* \"#utility.yul\":31886:31915   */\n      0x73686f756c642068617665206e6f20617070726f76616c446174610000000000\n        /* \"#utility.yul\":31882:31883   */\n      0x00\n        /* \"#utility.yul\":31874:31880   */\n      dup3\n        /* \"#utility.yul\":31870:31884   */\n      add\n        /* \"#utility.yul\":31863:31916   */\n      mstore\n        /* \"#utility.yul\":31746:31923   */\n      pop\n      jump\t// out\n        /* \"#utility.yul\":31929:32051   */\n    tag_303:\n        /* \"#utility.yul\":32002:32026   */\n      tag_647\n        /* \"#utility.yul\":32020:32025   */\n      dup2\n        /* \"#utility.yul\":32002:32026   */\n      tag_408\n      jump\t// in\n    tag_647:\n        /* \"#utility.yul\":31995:32000   */\n      dup2\n        /* \"#utility.yul\":31992:32027   */\n      eq\n        /* \"#utility.yul\":31982:32045   */\n      tag_648\n      jumpi\n        /* \"#utility.yul\":32041:32042   */\n      0x00\n        /* \"#utility.yul\":32038:32039   */\n      dup1\n        /* \"#utility.yul\":32031:32043   */\n      revert\n        /* \"#utility.yul\":31982:32045   */\n    tag_648:\n        /* \"#utility.yul\":31929:32051   */\n      pop\n      jump\t// out\n        /* \"#utility.yul\":32057:32195   */\n    tag_307:\n        /* \"#utility.yul\":32138:32170   */\n      tag_650\n        /* \"#utility.yul\":32164:32169   */\n      dup2\n        /* \"#utility.yul\":32138:32170   */\n      tag_404\n      jump\t// in\n    tag_650:\n        /* \"#utility.yul\":32131:32136   */\n      dup2\n        /* \"#utility.yul\":32128:32171   */\n      eq\n        /* \"#utility.yul\":32118:32189   */\n      tag_651\n      jumpi\n        /* \"#utility.yul\":32185:32186   */\n      0x00\n        /* \"#utility.yul\":32182:32183   */\n      dup1\n        /* \"#utility.yul\":32175:32187   */\n      revert\n        /* \"#utility.yul\":32118:32189   */\n    tag_651:\n        /* \"#utility.yul\":32057:32195   */\n      pop\n      jump\t// out\n        /* \"#utility.yul\":32201:32317   */\n    tag_311:\n        /* \"#utility.yul\":32271:32292   */\n      tag_653\n        /* \"#utility.yul\":32286:32291   */\n      dup2\n        /* \"#utility.yul\":32271:32292   */\n      tag_412\n      jump\t// in\n    tag_653:\n        /* \"#utility.yul\":32264:32269   */\n      dup2\n        /* \"#utility.yul\":32261:32293   */\n      eq\n        /* \"#utility.yul\":32251:32311   */\n      tag_654\n      jumpi\n        /* \"#utility.yul\":32307:32308   */\n      0x00\n        /* \"#utility.yul\":32304:32305   */\n      dup1\n        /* \"#utility.yul\":32297:32309   */\n      revert\n        /* \"#utility.yul\":32251:32311   */\n    tag_654:\n        /* \"#utility.yul\":32201:32317   */\n      pop\n      jump\t// out\n        /* \"#utility.yul\":32323:32443   */\n    tag_318:\n        /* \"#utility.yul\":32395:32418   */\n      tag_656\n        /* \"#utility.yul\":32412:32417   */\n      dup2\n        /* \"#utility.yul\":32395:32418   */\n      tag_416\n      jump\t// in\n    tag_656:\n        /* \"#utility.yul\":32388:32393   */\n      dup2\n        /* \"#utility.yul\":32385:32419   */\n      eq\n        /* \"#utility.yul\":32375:32437   */\n      tag_657\n      jumpi\n        /* \"#utility.yul\":32433:32434   */\n      0x00\n        /* \"#utility.yul\":32430:32431   */\n      dup1\n        /* \"#utility.yul\":32423:32435   */\n      revert\n        /* \"#utility.yul\":32375:32437   */\n    tag_657:\n        /* \"#utility.yul\":32323:32443   */\n      pop\n      jump\t// out\n        /* \"#utility.yul\":32449:32605   */\n    tag_333:\n        /* \"#utility.yul\":32539:32580   */\n      tag_659\n        /* \"#utility.yul\":32574:32579   */\n      dup2\n        /* \"#utility.yul\":32539:32580   */\n      tag_611\n      jump\t// in\n    tag_659:\n        /* \"#utility.yul\":32532:32537   */\n      dup2\n        /* \"#utility.yul\":32529:32581   */\n      eq\n        /* \"#utility.yul\":32519:32599   */\n      tag_660\n      jumpi\n        /* \"#utility.yul\":32595:32596   */\n      0x00\n        /* \"#utility.yul\":32592:32593   */\n      dup1\n        /* \"#utility.yul\":32585:32597   */\n      revert\n        /* \"#utility.yul\":32519:32599   */\n    tag_660:\n        /* \"#utility.yul\":32449:32605   */\n      pop\n      jump\t// out\n        /* \"#utility.yul\":32611:32733   */\n    tag_346:\n        /* \"#utility.yul\":32684:32708   */\n      tag_662\n        /* \"#utility.yul\":32702:32707   */\n      dup2\n        /* \"#utility.yul\":32684:32708   */\n      tag_520\n      jump\t// in\n    tag_662:\n        /* \"#utility.yul\":32677:32682   */\n      dup2\n        /* \"#utility.yul\":32674:32709   */\n      eq\n        /* \"#utility.yul\":32664:32727   */\n      tag_663\n      jumpi\n        /* \"#utility.yul\":32723:32724   */\n      0x00\n        /* \"#utility.yul\":32720:32721   */\n      dup1\n        /* \"#utility.yul\":32713:32725   */\n      revert\n        /* \"#utility.yul\":32664:32727   */\n    tag_663:\n        /* \"#utility.yul\":32611:32733   */\n      pop\n      jump\t// out\n    stop\n    data_eb97c41b3f651080603cbd3c7c438c7324cd0069264d3abe764ec765afe6a3d8 332e302e302d626574612e332b6f70656e67736e2e61636365707465766572797468696e672e697061796d6173746572\n\n    auxdata: 0xa264697066735822122021992c842d10b6cb3fe142a7ce51e6ebe66f472222cb4e4c035d07629c1b040f64736f6c63430008070033\n}\n",
				"bytecode": {
					"linkReferences": {},
					"object": "6080604052600060035534801561001557600080fd5b5061003261002761003760201b60201c565b61003f60201b60201c565b610103565b600033905090565b60008060009054906101000a900473ffffffffffffffffffffffffffffffffffffffff169050816000806101000a81548173ffffffffffffffffffffffffffffffffffffffff021916908373ffffffffffffffffffffffffffffffffffffffff1602179055508173ffffffffffffffffffffffffffffffffffffffff168173ffffffffffffffffffffffffffffffffffffffff167f8be0079c531659141344cd1fd0a4f28419497f9722a3daafe3b4186f6b6457e060405160405180910390a35050565b61248580620001136000396000f3fe60806040526004361061012d5760003560e01c80638da5cb5b116100ab578063ce1b815f1161006f578063ce1b815f146104e7578063d4b8399214610512578063da7422281461053d578063df463a6614610566578063f2fde38b14610591578063f9c002f7146105ba57610254565b80638da5cb5b14610410578063921276ea1461043b578063b039a88f14610466578063b90b41cf14610491578063bbdaa3c9146104bc57610254565b8063715018a6116100f2578063715018a61461035357806376fa01c31461036a578063776d1a01146103935780637bb05264146103bc5780637bdf2ec7146103e557610254565b8062be5dd41461025957806301ffc9a71461029757806312065fe0146102d45780632d14c4b7146102ff5780635c5e3db11461032857610254565b3661025457600073ffffffffffffffffffffffffffffffffffffffff16600160009054906101000a900473ffffffffffffffffffffffffffffffffffffffff1673ffffffffffffffffffffffffffffffffffffffff1614156101c4576040517f08c379a00000000000000000000000000000000000000000000000000000000081526004016101bb90611d56565b60405180910390fd5b600160009054906101000a900473ffffffffffffffffffffffffffffffffffffffff1673ffffffffffffffffffffffffffffffffffffffff1663aa67c91934306040518363ffffffff1660e01b81526004016102209190611bc1565b6000604051808303818588803b15801561023957600080fd5b505af115801561024d573d6000803e3d6000fd5b5050505050005b600080fd5b34801561026557600080fd5b50610280600480360381019061027b919061173e565b6105e5565b60405161028e929190611c64565b60405180910390f35b3480156102a357600080fd5b506102be60048036038101906102b99190611640565b610633565b6040516102cb9190611c2e565b60405180910390f35b3480156102e057600080fd5b506102e9610715565b6040516102f69190611e91565b60405180910390f35b34801561030b57600080fd5b506103266004803603810190610321919061182e565b6107c7565b005b34801561033457600080fd5b5061033d610862565b60405161034a9190611e91565b60405180910390f35b34801561035f57600080fd5b50610368610868565b005b34801561037657600080fd5b50610391600480360381019061038c919061166d565b61087c565b005b34801561039f57600080fd5b506103ba60048036038101906103b591906115e6565b610898565b005b3480156103c857600080fd5b506103e360048036038101906103de9190611711565b61093f565b005b3480156103f157600080fd5b506103fa610a13565b6040516104079190611bc1565b60405180910390f35b34801561041c57600080fd5b50610425610a3d565b6040516104329190611bc1565b60405180910390f35b34801561044757600080fd5b50610450610a66565b60405161045d9190611c94565b60405180910390f35b34801561047257600080fd5b5061047b610a86565b6040516104889190611e76565b60405180910390f35b34801561049d57600080fd5b506104a6610acc565b6040516104b39190611e91565b60405180910390f35b3480156104c857600080fd5b506104d1610ad2565b6040516104de9190611e91565b60405180910390f35b3480156104f357600080fd5b506104fc610ad9565b6040516105099190611bc1565b60405180910390f35b34801561051e57600080fd5b50610527610b03565b6040516105349190611bc1565b60405180910390f35b34801561054957600080fd5b50610564600480360381019061055f91906115e6565b610b29565b005b34801561057257600080fd5b5061057b610bfd565b6040516105889190611e91565b60405180910390f35b34801561059d57600080fd5b506105b860048036038101906105b391906115e6565b610c11565b005b3480156105c657600080fd5b506105cf610c95565b6040516105dc9190611e91565b60405180910390f35b606060006105f1610c9c565b6105fa88610d13565b61060388610db5565b61060c88610e0e565b6106168585610e74565b610624888888888888610ebe565b91509150965096945050505050565b60007fe1ab2dea000000000000000000000000000000000000000000000000000000007bffffffffffffffffffffffffffffffffffffffffffffffffffffffff1916827bffffffffffffffffffffffffffffffffffffffffffffffffffffffff191614806106fe57507f0e083076000000000000000000000000000000000000000000000000000000007bffffffffffffffffffffffffffffffffffffffffffffffffffffffff1916827bffffffffffffffffffffffffffffffffffffffffffffffffffffffff1916145b8061070e575061070d82610f95565b5b9050919050565b6000600160009054906101000a900473ffffffffffffffffffffffffffffffffffffffff1673ffffffffffffffffffffffffffffffffffffffff166370a08231306040518263ffffffff1660e01b81526004016107729190611bc1565b60206040518083038186803b15801561078a57600080fd5b505afa15801561079e573d6000803e3d6000fd5b505050506040513d601f19601f820116820180604052508101906107c29190611801565b905090565b6107cf610fff565b600160009054906101000a900473ffffffffffffffffffffffffffffffffffffffff1673ffffffffffffffffffffffffffffffffffffffff1663f3fef3a382846040518363ffffffff1660e01b815260040161082c929190611bdc565b600060405180830381600087803b15801561084657600080fd5b505af115801561085a573d6000803e3d6000fd5b505050505050565b61290481565b610870610fff565b61087a600061107d565b565b610884610c9c565b6108918585858585611141565b5050505050565b6108a0610fff565b7f4d11d6210a5e807da812a693b5d341a870571b5fc31158172207a3d99c911ccd600460009054906101000a900473ffffffffffffffffffffffffffffffffffffffff16826040516108f3929190611c05565b60405180910390a180600460006101000a81548173ffffffffffffffffffffffffffffffffffffffff021916908373ffffffffffffffffffffffffffffffffffffffff16021790555050565b610947610fff565b6109907fe9fb30f7000000000000000000000000000000000000000000000000000000008273ffffffffffffffffffffffffffffffffffffffff1661114890919063ffffffff16565b6109cf576040517f08c379a00000000000000000000000000000000000000000000000000000000081526004016109c690611df6565b60405180910390fd5b80600160006101000a81548173ffffffffffffffffffffffffffffffffffffffff021916908373ffffffffffffffffffffffffffffffffffffffff16021790555050565b6000600160009054906101000a900473ffffffffffffffffffffffffffffffffffffffff16905090565b60008060009054906101000a900473ffffffffffffffffffffffffffffffffffffffff16905090565b606060405180606001604052806030815260200161242060309139905090565b610a8e611481565b604051806080016040528061c350620186a0610aaa9190611fa3565b8152602001620186a081526020016201adb08152602001612904815250905090565b61c35081565b6201adb081565b6000600260009054906101000a900473ffffffffffffffffffffffffffffffffffffffff16905090565b600460009054906101000a900473ffffffffffffffffffffffffffffffffffffffff1681565b610b31610fff565b610b7a7f25e23e64000000000000000000000000000000000000000000000000000000008273ffffffffffffffffffffffffffffffffffffffff1661114890919063ffffffff16565b610bb9576040517f08c379a0000000000000000000000000000000000000000000000000000000008152600401610bb090611d96565b60405180910390fd5b80600260006101000a81548173ffffffffffffffffffffffffffffffffffffffff021916908373ffffffffffffffffffffffffffffffffffffffff16021790555050565b61c350620186a0610c0e9190611fa3565b81565b610c19610fff565b600073ffffffffffffffffffffffffffffffffffffffff168173ffffffffffffffffffffffffffffffffffffffff161415610c89576040517f08c379a0000000000000000000000000000000000000000000000000000000008152600401610c8090611d16565b60405180910390fd5b610c928161107d565b50565b620186a081565b610ca4610a13565b73ffffffffffffffffffffffffffffffffffffffff163373ffffffffffffffffffffffffffffffffffffffff1614610d11576040517f08c379a0000000000000000000000000000000000000000000000000000000008152600401610d0890611e16565b60405180910390fd5b565b808060200190610d239190611f37565b60a0016020810190610d3591906115e6565b73ffffffffffffffffffffffffffffffffffffffff16610d53610ad9565b73ffffffffffffffffffffffffffffffffffffffff1614610da9576040517f08c379a0000000000000000000000000000000000000000000000000000000008152600401610da090611d76565b60405180910390fd5b610db28161116d565b50565b6000818060000190610dc79190611f0f565b6040013514610e0b576040517f08c379a0000000000000000000000000000000000000000000000000000000008152600401610e0290611e36565b60405180910390fd5b50565b6000818060200190610e209190611f37565b8060c00190610e2f9190611eac565b905014610e71576040517f08c379a0000000000000000000000000000000000000000000000000000000008152600401610e6890611cd6565b60405180910390fd5b50565b60008282905014610eba576040517f08c379a0000000000000000000000000000000000000000000000000000000008152600401610eb190611e56565b60405180910390fd5b5050565b60606000600460009054906101000a900473ffffffffffffffffffffffffffffffffffffffff1673ffffffffffffffffffffffffffffffffffffffff16888060000190610f0b9190611f0f565b6020016020810190610f1d91906115e6565b73ffffffffffffffffffffffffffffffffffffffff1614610f73576040517f08c379a0000000000000000000000000000000000000000000000000000000008152600401610f6a90611cb6565b60405180910390fd5b6000604051806020016040528060008152509091509150965096945050505050565b60007f01ffc9a7000000000000000000000000000000000000000000000000000000007bffffffffffffffffffffffffffffffffffffffffffffffffffffffff1916827bffffffffffffffffffffffffffffffffffffffffffffffffffffffff1916149050919050565b61100761136d565b73ffffffffffffffffffffffffffffffffffffffff16611025610a3d565b73ffffffffffffffffffffffffffffffffffffffff161461107b576040517f08c379a000000000000000000000000000000000000000000000000000000000815260040161107290611dd6565b60405180910390fd5b565b60008060009054906101000a900473ffffffffffffffffffffffffffffffffffffffff169050816000806101000a81548173ffffffffffffffffffffffffffffffffffffffff021916908373ffffffffffffffffffffffffffffffffffffffff1602179055508173ffffffffffffffffffffffffffffffffffffffff168173ffffffffffffffffffffffffffffffffffffffff167f8be0079c531659141344cd1fd0a4f28419497f9722a3daafe3b4186f6b6457e060405160405180910390a35050565b5050505050565b600061115383611375565b8015611165575061116483836113c2565b5b905092915050565b6000808280600001906111809190611f0f565b602001602081019061119291906115e6565b73ffffffffffffffffffffffffffffffffffffffff1663572b6c0560e01b8480602001906111c09190611f37565b60a00160208101906111d291906115e6565b6040516024016111e29190611bc1565b604051602081830303815290604052907bffffffffffffffffffffffffffffffffffffffffffffffffffffffff19166020820180517bffffffffffffffffffffffffffffffffffffffffffffffffffffffff838183161783525050505060405161124c9190611baa565b600060405180830381855afa9150503d8060008114611287576040519150601f19603f3d011682016040523d82523d6000602084013e61128c565b606091505b5091509150816112d1576040517f08c379a00000000000000000000000000000000000000000000000000000000081526004016112c890611d36565b60405180910390fd5b6020815114611315576040517f08c379a000000000000000000000000000000000000000000000000000000000815260040161130c90611db6565b60405180910390fd5b808060200190518101906113299190611613565b611368576040517f08c379a000000000000000000000000000000000000000000000000000000000815260040161135f90611cf6565b60405180910390fd5b505050565b600033905090565b60006113a1827f01ffc9a7000000000000000000000000000000000000000000000000000000006113c2565b80156113bb57506113b98263ffffffff60e01b6113c2565b155b9050919050565b6000806301ffc9a760e01b836040516024016113de9190611c49565b604051602081830303815290604052907bffffffffffffffffffffffffffffffffffffffffffffffffffffffff19166020820180517bffffffffffffffffffffffffffffffffffffffffffffffffffffffff838183161783525050505090506000806000602060008551602087018a617530fa92503d91506000519050828015611469575060208210155b80156114755750600081115b94505050505092915050565b6040518060800160405280600081526020016000815260200160008152602001600081525090565b6000813590506114b881612395565b92915050565b6000813590506114cd816123ac565b92915050565b6000813590506114e2816123c3565b92915050565b6000815190506114f7816123c3565b92915050565b60008135905061150c816123da565b92915050565b60008083601f840112611528576115276120f8565b5b8235905067ffffffffffffffff811115611545576115446120f3565b5b6020830191508360018202830111156115615761156061210c565b5b9250929050565b600081359050611577816123f1565b92915050565b6000610100828403121561159457611593612102565b5b81905092915050565b6000604082840312156115b3576115b2612102565b5b81905092915050565b6000813590506115cb81612408565b92915050565b6000815190506115e081612408565b92915050565b6000602082840312156115fc576115fb61211b565b5b600061160a848285016114a9565b91505092915050565b6000602082840312156116295761162861211b565b5b6000611637848285016114e8565b91505092915050565b6000602082840312156116565761165561211b565b5b6000611664848285016114fd565b91505092915050565b6000806000806000608086880312156116895761168861211b565b5b600086013567ffffffffffffffff8111156116a7576116a6612116565b5b6116b388828901611512565b955095505060206116c6888289016114d3565b93505060406116d7888289016115bc565b925050606086013567ffffffffffffffff8111156116f8576116f7612116565b5b6117048882890161157d565b9150509295509295909350565b6000602082840312156117275761172661211b565b5b600061173584828501611568565b91505092915050565b6000806000806000806080878903121561175b5761175a61211b565b5b600087013567ffffffffffffffff81111561177957611778612116565b5b61178589828a0161159d565b965050602087013567ffffffffffffffff8111156117a6576117a5612116565b5b6117b289828a01611512565b9550955050604087013567ffffffffffffffff8111156117d5576117d4612116565b5b6117e189828a01611512565b935093505060606117f489828a016115bc565b9150509295509295509295565b6000602082840312156118175761181661211b565b5b6000611825848285016115d1565b91505092915050565b600080604083850312156118455761184461211b565b5b6000611853858286016115bc565b9250506020611864858286016114be565b9150509250929050565b6118778161200b565b82525050565b61188681611ff9565b82525050565b6118958161201d565b82525050565b6118a481612029565b82525050565b60006118b582611f60565b6118bf8185611f76565b93506118cf818560208601612091565b6118d881612120565b840191505092915050565b60006118ee82611f60565b6118f88185611f87565b9350611908818560208601612091565b80840191505092915050565b600061191f82611f6b565b6119298185611f92565b9350611939818560208601612091565b61194281612120565b840191505092915050565b600061195a600c83611f92565b915061196582612131565b602082019050919050565b600061197d601c83611f92565b91506119888261215a565b602082019050919050565b60006119a0601f83611f92565b91506119ab82612183565b602082019050919050565b60006119c3602683611f92565b91506119ce826121ac565b604082019050919050565b60006119e6601c83611f92565b91506119f1826121fb565b602082019050919050565b6000611a09601983611f92565b9150611a1482612224565b602082019050919050565b6000611a2c601883611f92565b9150611a378261224d565b602082019050919050565b6000611a4f602083611f92565b9150611a5a82612276565b602082019050919050565b6000611a72602083611f92565b9150611a7d8261229f565b602082019050919050565b6000611a95602083611f92565b9150611aa0826122c8565b602082019050919050565b6000611ab8601f83611f92565b9150611ac3826122f1565b602082019050919050565b6000611adb601e83611f92565b9150611ae68261231a565b602082019050919050565b6000611afe601c83611f92565b9150611b0982612343565b602082019050919050565b6000611b21601b83611f92565b9150611b2c8261236c565b602082019050919050565b608082016000820151611b4d6000850182611b8c565b506020820151611b606020850182611b8c565b506040820151611b736040850182611b8c565b506060820151611b866060850182611b8c565b50505050565b611b9581612087565b82525050565b611ba481612087565b82525050565b6000611bb682846118e3565b915081905092915050565b6000602082019050611bd6600083018461187d565b92915050565b6000604082019050611bf1600083018561186e565b611bfe6020830184611b9b565b9392505050565b6000604082019050611c1a600083018561187d565b611c27602083018461187d565b9392505050565b6000602082019050611c43600083018461188c565b92915050565b6000602082019050611c5e600083018461189b565b92915050565b60006040820190508181036000830152611c7e81856118aa565b9050611c8d602083018461188c565b9392505050565b60006020820190508181036000830152611cae8184611914565b905092915050565b60006020820190508181036000830152611ccf8161194d565b9050919050565b60006020820190508181036000830152611cef81611970565b9050919050565b60006020820190508181036000830152611d0f81611993565b9050919050565b60006020820190508181036000830152611d2f816119b6565b9050919050565b60006020820190508181036000830152611d4f816119d9565b9050919050565b60006020820190508181036000830152611d6f816119fc565b9050919050565b60006020820190508181036000830152611d8f81611a1f565b9050919050565b60006020820190508181036000830152611daf81611a42565b9050919050565b60006020820190508181036000830152611dcf81611a65565b9050919050565b60006020820190508181036000830152611def81611a88565b9050919050565b60006020820190508181036000830152611e0f81611aab565b9050919050565b60006020820190508181036000830152611e2f81611ace565b9050919050565b60006020820190508181036000830152611e4f81611af1565b9050919050565b60006020820190508181036000830152611e6f81611b14565b9050919050565b6000608082019050611e8b6000830184611b37565b92915050565b6000602082019050611ea66000830184611b9b565b92915050565b60008083356001602003843603038112611ec957611ec8612107565b5b80840192508235915067ffffffffffffffff821115611eeb57611eea6120fd565b5b602083019250600182023603831315611f0757611f06612111565b5b509250929050565b60008235600160e003833603038112611f2b57611f2a612107565b5b80830191505092915050565b60008235600161010003833603038112611f5457611f53612107565b5b80830191505092915050565b600081519050919050565b600081519050919050565b600082825260208201905092915050565b600081905092915050565b600082825260208201905092915050565b6000611fae82612087565b9150611fb983612087565b9250827fffffffffffffffffffffffffffffffffffffffffffffffffffffffffffffffff03821115611fee57611fed6120c4565b5b828201905092915050565b600061200482612067565b9050919050565b600061201682612067565b9050919050565b60008115159050919050565b60007fffffffff0000000000000000000000000000000000000000000000000000000082169050919050565b600061206082611ff9565b9050919050565b600073ffffffffffffffffffffffffffffffffffffffff82169050919050565b6000819050919050565b60005b838110156120af578082015181840152602081019050612094565b838111156120be576000848401525b50505050565b7f4e487b7100000000000000000000000000000000000000000000000000000000600052601160045260246000fd5b600080fd5b600080fd5b600080fd5b600080fd5b600080fd5b600080fd5b600080fd5b600080fd5b600080fd5b6000601f19601f8301169050919050565b7f77726f6e67207461726765740000000000000000000000000000000000000000600082015250565b7f73686f756c642068617665206e6f207061796d61737465724461746100000000600082015250565b7f696e76616c696420666f7277617264657220666f7220726563697069656e7400600082015250565b7f4f776e61626c653a206e6577206f776e657220697320746865207a65726f206160008201527f6464726573730000000000000000000000000000000000000000000000000000602082015250565b7f697354727573746564466f727761726465723a20726576657274656400000000600082015250565b7f72656c6179206875622061646472657373206e6f742073657400000000000000600082015250565b7f466f72776172646572206973206e6f7420747275737465640000000000000000600082015250565b7f746172676574206973206e6f7420612076616c69642049466f72776172646572600082015250565b7f697354727573746564466f727761726465723a2062616420726573706f6e7365600082015250565b7f4f776e61626c653a2063616c6c6572206973206e6f7420746865206f776e6572600082015250565b7f746172676574206973206e6f7420612076616c6964204952656c617948756200600082015250565b7f63616e206f6e6c792062652063616c6c65642062792052656c61794875620000600082015250565b7f76616c7565207472616e73666572206e6f7420737570706f7274656400000000600082015250565b7f73686f756c642068617665206e6f20617070726f76616c446174610000000000600082015250565b61239e81611ff9565b81146123a957600080fd5b50565b6123b58161200b565b81146123c057600080fd5b50565b6123cc8161201d565b81146123d757600080fd5b50565b6123e381612029565b81146123ee57600080fd5b50565b6123fa81612055565b811461240557600080fd5b50565b61241181612087565b811461241c57600080fd5b5056fe332e302e302d626574612e332b6f70656e67736e2e61636365707465766572797468696e672e697061796d6173746572a264697066735822122021992c842d10b6cb3fe142a7ce51e6ebe66f472222cb4e4c035d07629c1b040f64736f6c63430008070033",
					"opcodes": "PUSH1 0x80 PUSH1 0x40 MSTORE PUSH1 0x0 PUSH1 0x3 SSTORE CALLVALUE DUP1 ISZERO PUSH2 0x15 JUMPI PUSH1 0x0 DUP1 REVERT JUMPDEST POP PUSH2 0x32 PUSH2 0x27 PUSH2 0x37 PUSH1 0x20 SHL PUSH1 0x20 SHR JUMP JUMPDEST PUSH2 0x3F PUSH1 0x20 SHL PUSH1 0x20 SHR JUMP JUMPDEST PUSH2 0x103 JUMP JUMPDEST PUSH1 0x0 CALLER SWAP1 POP SWAP1 JUMP JUMPDEST PUSH1 0x0 DUP1 PUSH1 0x0 SWAP1 SLOAD SWAP1 PUSH2 0x100 EXP SWAP1 DIV PUSH20 0xFFFFFFFFFFFFFFFFFFFFFFFFFFFFFFFFFFFFFFFF AND SWAP1 POP DUP2 PUSH1 0x0 DUP1 PUSH2 0x100 EXP DUP2 SLOAD DUP2 PUSH20 0xFFFFFFFFFFFFFFFFFFFFFFFFFFFFFFFFFFFFFFFF MUL NOT AND SWAP1 DUP4 PUSH20 0xFFFFFFFFFFFFFFFFFFFFFFFFFFFFFFFFFFFFFFFF AND MUL OR SWAP1 SSTORE POP DUP2 PUSH20 0xFFFFFFFFFFFFFFFFFFFFFFFFFFFFFFFFFFFFFFFF AND DUP2 PUSH20 0xFFFFFFFFFFFFFFFFFFFFFFFFFFFFFFFFFFFFFFFF AND PUSH32 0x8BE0079C531659141344CD1FD0A4F28419497F9722A3DAAFE3B4186F6B6457E0 PUSH1 0x40 MLOAD PUSH1 0x40 MLOAD DUP1 SWAP2 SUB SWAP1 LOG3 POP POP JUMP JUMPDEST PUSH2 0x2485 DUP1 PUSH3 0x113 PUSH1 0x0 CODECOPY PUSH1 0x0 RETURN INVALID PUSH1 0x80 PUSH1 0x40 MSTORE PUSH1 0x4 CALLDATASIZE LT PUSH2 0x12D JUMPI PUSH1 0x0 CALLDATALOAD PUSH1 0xE0 SHR DUP1 PUSH4 0x8DA5CB5B GT PUSH2 0xAB JUMPI DUP1 PUSH4 0xCE1B815F GT PUSH2 0x6F JUMPI DUP1 PUSH4 0xCE1B815F EQ PUSH2 0x4E7 JUMPI DUP1 PUSH4 0xD4B83992 EQ PUSH2 0x512 JUMPI DUP1 PUSH4 0xDA742228 EQ PUSH2 0x53D JUMPI DUP1 PUSH4 0xDF463A66 EQ PUSH2 0x566 JUMPI DUP1 PUSH4 0xF2FDE38B EQ PUSH2 0x591 JUMPI DUP1 PUSH4 0xF9C002F7 EQ PUSH2 0x5BA JUMPI PUSH2 0x254 JUMP JUMPDEST DUP1 PUSH4 0x8DA5CB5B EQ PUSH2 0x410 JUMPI DUP1 PUSH4 0x921276EA EQ PUSH2 0x43B JUMPI DUP1 PUSH4 0xB039A88F EQ PUSH2 0x466 JUMPI DUP1 PUSH4 0xB90B41CF EQ PUSH2 0x491 JUMPI DUP1 PUSH4 0xBBDAA3C9 EQ PUSH2 0x4BC JUMPI PUSH2 0x254 JUMP JUMPDEST DUP1 PUSH4 0x715018A6 GT PUSH2 0xF2 JUMPI DUP1 PUSH4 0x715018A6 EQ PUSH2 0x353 JUMPI DUP1 PUSH4 0x76FA01C3 EQ PUSH2 0x36A JUMPI DUP1 PUSH4 0x776D1A01 EQ PUSH2 0x393 JUMPI DUP1 PUSH4 0x7BB05264 EQ PUSH2 0x3BC JUMPI DUP1 PUSH4 0x7BDF2EC7 EQ PUSH2 0x3E5 JUMPI PUSH2 0x254 JUMP JUMPDEST DUP1 PUSH3 0xBE5DD4 EQ PUSH2 0x259 JUMPI DUP1 PUSH4 0x1FFC9A7 EQ PUSH2 0x297 JUMPI DUP1 PUSH4 0x12065FE0 EQ PUSH2 0x2D4 JUMPI DUP1 PUSH4 0x2D14C4B7 EQ PUSH2 0x2FF JUMPI DUP1 PUSH4 0x5C5E3DB1 EQ PUSH2 0x328 JUMPI PUSH2 0x254 JUMP JUMPDEST CALLDATASIZE PUSH2 0x254 JUMPI PUSH1 0x0 PUSH20 0xFFFFFFFFFFFFFFFFFFFFFFFFFFFFFFFFFFFFFFFF AND PUSH1 0x1 PUSH1 0x0 SWAP1 SLOAD SWAP1 PUSH2 0x100 EXP SWAP1 DIV PUSH20 0xFFFFFFFFFFFFFFFFFFFFFFFFFFFFFFFFFFFFFFFF AND PUSH20 0xFFFFFFFFFFFFFFFFFFFFFFFFFFFFFFFFFFFFFFFF AND EQ ISZERO PUSH2 0x1C4 JUMPI PUSH1 0x40 MLOAD PUSH32 0x8C379A000000000000000000000000000000000000000000000000000000000 DUP2 MSTORE PUSH1 0x4 ADD PUSH2 0x1BB SWAP1 PUSH2 0x1D56 JUMP JUMPDEST PUSH1 0x40 MLOAD DUP1 SWAP2 SUB SWAP1 REVERT JUMPDEST PUSH1 0x1 PUSH1 0x0 SWAP1 SLOAD SWAP1 PUSH2 0x100 EXP SWAP1 DIV PUSH20 0xFFFFFFFFFFFFFFFFFFFFFFFFFFFFFFFFFFFFFFFF AND PUSH20 0xFFFFFFFFFFFFFFFFFFFFFFFFFFFFFFFFFFFFFFFF AND PUSH4 0xAA67C919 CALLVALUE ADDRESS PUSH1 0x40 MLOAD DUP4 PUSH4 0xFFFFFFFF AND PUSH1 0xE0 SHL DUP2 MSTORE PUSH1 0x4 ADD PUSH2 0x220 SWAP2 SWAP1 PUSH2 0x1BC1 JUMP JUMPDEST PUSH1 0x0 PUSH1 0x40 MLOAD DUP1 DUP4 SUB DUP2 DUP6 DUP9 DUP1 EXTCODESIZE ISZERO DUP1 ISZERO PUSH2 0x239 JUMPI PUSH1 0x0 DUP1 REVERT JUMPDEST POP GAS CALL ISZERO DUP1 ISZERO PUSH2 0x24D JUMPI RETURNDATASIZE PUSH1 0x0 DUP1 RETURNDATACOPY RETURNDATASIZE PUSH1 0x0 REVERT JUMPDEST POP POP POP POP POP STOP JUMPDEST PUSH1 0x0 DUP1 REVERT JUMPDEST CALLVALUE DUP1 ISZERO PUSH2 0x265 JUMPI PUSH1 0x0 DUP1 REVERT JUMPDEST POP PUSH2 0x280 PUSH1 0x4 DUP1 CALLDATASIZE SUB DUP2 ADD SWAP1 PUSH2 0x27B SWAP2 SWAP1 PUSH2 0x173E JUMP JUMPDEST PUSH2 0x5E5 JUMP JUMPDEST PUSH1 0x40 MLOAD PUSH2 0x28E SWAP3 SWAP2 SWAP1 PUSH2 0x1C64 JUMP JUMPDEST PUSH1 0x40 MLOAD DUP1 SWAP2 SUB SWAP1 RETURN JUMPDEST CALLVALUE DUP1 ISZERO PUSH2 0x2A3 JUMPI PUSH1 0x0 DUP1 REVERT JUMPDEST POP PUSH2 0x2BE PUSH1 0x4 DUP1 CALLDATASIZE SUB DUP2 ADD SWAP1 PUSH2 0x2B9 SWAP2 SWAP1 PUSH2 0x1640 JUMP JUMPDEST PUSH2 0x633 JUMP JUMPDEST PUSH1 0x40 MLOAD PUSH2 0x2CB SWAP2 SWAP1 PUSH2 0x1C2E JUMP JUMPDEST PUSH1 0x40 MLOAD DUP1 SWAP2 SUB SWAP1 RETURN JUMPDEST CALLVALUE DUP1 ISZERO PUSH2 0x2E0 JUMPI PUSH1 0x0 DUP1 REVERT JUMPDEST POP PUSH2 0x2E9 PUSH2 0x715 JUMP JUMPDEST PUSH1 0x40 MLOAD PUSH2 0x2F6 SWAP2 SWAP1 PUSH2 0x1E91 JUMP JUMPDEST PUSH1 0x40 MLOAD DUP1 SWAP2 SUB SWAP1 RETURN JUMPDEST CALLVALUE DUP1 ISZERO PUSH2 0x30B JUMPI PUSH1 0x0 DUP1 REVERT JUMPDEST POP PUSH2 0x326 PUSH1 0x4 DUP1 CALLDATASIZE SUB DUP2 ADD SWAP1 PUSH2 0x321 SWAP2 SWAP1 PUSH2 0x182E JUMP JUMPDEST PUSH2 0x7C7 JUMP JUMPDEST STOP JUMPDEST CALLVALUE DUP1 ISZERO PUSH2 0x334 JUMPI PUSH1 0x0 DUP1 REVERT JUMPDEST POP PUSH2 0x33D PUSH2 0x862 JUMP JUMPDEST PUSH1 0x40 MLOAD PUSH2 0x34A SWAP2 SWAP1 PUSH2 0x1E91 JUMP JUMPDEST PUSH1 0x40 MLOAD DUP1 SWAP2 SUB SWAP1 RETURN JUMPDEST CALLVALUE DUP1 ISZERO PUSH2 0x35F JUMPI PUSH1 0x0 DUP1 REVERT JUMPDEST POP PUSH2 0x368 PUSH2 0x868 JUMP JUMPDEST STOP JUMPDEST CALLVALUE DUP1 ISZERO PUSH2 0x376 JUMPI PUSH1 0x0 DUP1 REVERT JUMPDEST POP PUSH2 0x391 PUSH1 0x4 DUP1 CALLDATASIZE SUB DUP2 ADD SWAP1 PUSH2 0x38C SWAP2 SWAP1 PUSH2 0x166D JUMP JUMPDEST PUSH2 0x87C JUMP JUMPDEST STOP JUMPDEST CALLVALUE DUP1 ISZERO PUSH2 0x39F JUMPI PUSH1 0x0 DUP1 REVERT JUMPDEST POP PUSH2 0x3BA PUSH1 0x4 DUP1 CALLDATASIZE SUB DUP2 ADD SWAP1 PUSH2 0x3B5 SWAP2 SWAP1 PUSH2 0x15E6 JUMP JUMPDEST PUSH2 0x898 JUMP JUMPDEST STOP JUMPDEST CALLVALUE DUP1 ISZERO PUSH2 0x3C8 JUMPI PUSH1 0x0 DUP1 REVERT JUMPDEST POP PUSH2 0x3E3 PUSH1 0x4 DUP1 CALLDATASIZE SUB DUP2 ADD SWAP1 PUSH2 0x3DE SWAP2 SWAP1 PUSH2 0x1711 JUMP JUMPDEST PUSH2 0x93F JUMP JUMPDEST STOP JUMPDEST CALLVALUE DUP1 ISZERO PUSH2 0x3F1 JUMPI PUSH1 0x0 DUP1 REVERT JUMPDEST POP PUSH2 0x3FA PUSH2 0xA13 JUMP JUMPDEST PUSH1 0x40 MLOAD PUSH2 0x407 SWAP2 SWAP1 PUSH2 0x1BC1 JUMP JUMPDEST PUSH1 0x40 MLOAD DUP1 SWAP2 SUB SWAP1 RETURN JUMPDEST CALLVALUE DUP1 ISZERO PUSH2 0x41C JUMPI PUSH1 0x0 DUP1 REVERT JUMPDEST POP PUSH2 0x425 PUSH2 0xA3D JUMP JUMPDEST PUSH1 0x40 MLOAD PUSH2 0x432 SWAP2 SWAP1 PUSH2 0x1BC1 JUMP JUMPDEST PUSH1 0x40 MLOAD DUP1 SWAP2 SUB SWAP1 RETURN JUMPDEST CALLVALUE DUP1 ISZERO PUSH2 0x447 JUMPI PUSH1 0x0 DUP1 REVERT JUMPDEST POP PUSH2 0x450 PUSH2 0xA66 JUMP JUMPDEST PUSH1 0x40 MLOAD PUSH2 0x45D SWAP2 SWAP1 PUSH2 0x1C94 JUMP JUMPDEST PUSH1 0x40 MLOAD DUP1 SWAP2 SUB SWAP1 RETURN JUMPDEST CALLVALUE DUP1 ISZERO PUSH2 0x472 JUMPI PUSH1 0x0 DUP1 REVERT JUMPDEST POP PUSH2 0x47B PUSH2 0xA86 JUMP JUMPDEST PUSH1 0x40 MLOAD PUSH2 0x488 SWAP2 SWAP1 PUSH2 0x1E76 JUMP JUMPDEST PUSH1 0x40 MLOAD DUP1 SWAP2 SUB SWAP1 RETURN JUMPDEST CALLVALUE DUP1 ISZERO PUSH2 0x49D JUMPI PUSH1 0x0 DUP1 REVERT JUMPDEST POP PUSH2 0x4A6 PUSH2 0xACC JUMP JUMPDEST PUSH1 0x40 MLOAD PUSH2 0x4B3 SWAP2 SWAP1 PUSH2 0x1E91 JUMP JUMPDEST PUSH1 0x40 MLOAD DUP1 SWAP2 SUB SWAP1 RETURN JUMPDEST CALLVALUE DUP1 ISZERO PUSH2 0x4C8 JUMPI PUSH1 0x0 DUP1 REVERT JUMPDEST POP PUSH2 0x4D1 PUSH2 0xAD2 JUMP JUMPDEST PUSH1 0x40 MLOAD PUSH2 0x4DE SWAP2 SWAP1 PUSH2 0x1E91 JUMP JUMPDEST PUSH1 0x40 MLOAD DUP1 SWAP2 SUB SWAP1 RETURN JUMPDEST CALLVALUE DUP1 ISZERO PUSH2 0x4F3 JUMPI PUSH1 0x0 DUP1 REVERT JUMPDEST POP PUSH2 0x4FC PUSH2 0xAD9 JUMP JUMPDEST PUSH1 0x40 MLOAD PUSH2 0x509 SWAP2 SWAP1 PUSH2 0x1BC1 JUMP JUMPDEST PUSH1 0x40 MLOAD DUP1 SWAP2 SUB SWAP1 RETURN JUMPDEST CALLVALUE DUP1 ISZERO PUSH2 0x51E JUMPI PUSH1 0x0 DUP1 REVERT JUMPDEST POP PUSH2 0x527 PUSH2 0xB03 JUMP JUMPDEST PUSH1 0x40 MLOAD PUSH2 0x534 SWAP2 SWAP1 PUSH2 0x1BC1 JUMP JUMPDEST PUSH1 0x40 MLOAD DUP1 SWAP2 SUB SWAP1 RETURN JUMPDEST CALLVALUE DUP1 ISZERO PUSH2 0x549 JUMPI PUSH1 0x0 DUP1 REVERT JUMPDEST POP PUSH2 0x564 PUSH1 0x4 DUP1 CALLDATASIZE SUB DUP2 ADD SWAP1 PUSH2 0x55F SWAP2 SWAP1 PUSH2 0x15E6 JUMP JUMPDEST PUSH2 0xB29 JUMP JUMPDEST STOP JUMPDEST CALLVALUE DUP1 ISZERO PUSH2 0x572 JUMPI PUSH1 0x0 DUP1 REVERT JUMPDEST POP PUSH2 0x57B PUSH2 0xBFD JUMP JUMPDEST PUSH1 0x40 MLOAD PUSH2 0x588 SWAP2 SWAP1 PUSH2 0x1E91 JUMP JUMPDEST PUSH1 0x40 MLOAD DUP1 SWAP2 SUB SWAP1 RETURN JUMPDEST CALLVALUE DUP1 ISZERO PUSH2 0x59D JUMPI PUSH1 0x0 DUP1 REVERT JUMPDEST POP PUSH2 0x5B8 PUSH1 0x4 DUP1 CALLDATASIZE SUB DUP2 ADD SWAP1 PUSH2 0x5B3 SWAP2 SWAP1 PUSH2 0x15E6 JUMP JUMPDEST PUSH2 0xC11 JUMP JUMPDEST STOP JUMPDEST CALLVALUE DUP1 ISZERO PUSH2 0x5C6 JUMPI PUSH1 0x0 DUP1 REVERT JUMPDEST POP PUSH2 0x5CF PUSH2 0xC95 JUMP JUMPDEST PUSH1 0x40 MLOAD PUSH2 0x5DC SWAP2 SWAP1 PUSH2 0x1E91 JUMP JUMPDEST PUSH1 0x40 MLOAD DUP1 SWAP2 SUB SWAP1 RETURN JUMPDEST PUSH1 0x60 PUSH1 0x0 PUSH2 0x5F1 PUSH2 0xC9C JUMP JUMPDEST PUSH2 0x5FA DUP9 PUSH2 0xD13 JUMP JUMPDEST PUSH2 0x603 DUP9 PUSH2 0xDB5 JUMP JUMPDEST PUSH2 0x60C DUP9 PUSH2 0xE0E JUMP JUMPDEST PUSH2 0x616 DUP6 DUP6 PUSH2 0xE74 JUMP JUMPDEST PUSH2 0x624 DUP9 DUP9 DUP9 DUP9 DUP9 DUP9 PUSH2 0xEBE JUMP JUMPDEST SWAP2 POP SWAP2 POP SWAP7 POP SWAP7 SWAP5 POP POP POP POP POP JUMP JUMPDEST PUSH1 0x0 PUSH32 0xE1AB2DEA00000000000000000000000000000000000000000000000000000000 PUSH28 0xFFFFFFFFFFFFFFFFFFFFFFFFFFFFFFFFFFFFFFFFFFFFFFFFFFFFFFFF NOT AND DUP3 PUSH28 0xFFFFFFFFFFFFFFFFFFFFFFFFFFFFFFFFFFFFFFFFFFFFFFFFFFFFFFFF NOT AND EQ DUP1 PUSH2 0x6FE JUMPI POP PUSH32 0xE08307600000000000000000000000000000000000000000000000000000000 PUSH28 0xFFFFFFFFFFFFFFFFFFFFFFFFFFFFFFFFFFFFFFFFFFFFFFFFFFFFFFFF NOT AND DUP3 PUSH28 0xFFFFFFFFFFFFFFFFFFFFFFFFFFFFFFFFFFFFFFFFFFFFFFFFFFFFFFFF NOT AND EQ JUMPDEST DUP1 PUSH2 0x70E JUMPI POP PUSH2 0x70D DUP3 PUSH2 0xF95 JUMP JUMPDEST JUMPDEST SWAP1 POP SWAP2 SWAP1 POP JUMP JUMPDEST PUSH1 0x0 PUSH1 0x1 PUSH1 0x0 SWAP1 SLOAD SWAP1 PUSH2 0x100 EXP SWAP1 DIV PUSH20 0xFFFFFFFFFFFFFFFFFFFFFFFFFFFFFFFFFFFFFFFF AND PUSH20 0xFFFFFFFFFFFFFFFFFFFFFFFFFFFFFFFFFFFFFFFF AND PUSH4 0x70A08231 ADDRESS PUSH1 0x40 MLOAD DUP3 PUSH4 0xFFFFFFFF AND PUSH1 0xE0 SHL DUP2 MSTORE PUSH1 0x4 ADD PUSH2 0x772 SWAP2 SWAP1 PUSH2 0x1BC1 JUMP JUMPDEST PUSH1 0x20 PUSH1 0x40 MLOAD DUP1 DUP4 SUB DUP2 DUP7 DUP1 EXTCODESIZE ISZERO DUP1 ISZERO PUSH2 0x78A JUMPI PUSH1 0x0 DUP1 REVERT JUMPDEST POP GAS STATICCALL ISZERO DUP1 ISZERO PUSH2 0x79E JUMPI RETURNDATASIZE PUSH1 0x0 DUP1 RETURNDATACOPY RETURNDATASIZE PUSH1 0x0 REVERT JUMPDEST POP POP POP POP PUSH1 0x40 MLOAD RETURNDATASIZE PUSH1 0x1F NOT PUSH1 0x1F DUP3 ADD AND DUP3 ADD DUP1 PUSH1 0x40 MSTORE POP DUP2 ADD SWAP1 PUSH2 0x7C2 SWAP2 SWAP1 PUSH2 0x1801 JUMP JUMPDEST SWAP1 POP SWAP1 JUMP JUMPDEST PUSH2 0x7CF PUSH2 0xFFF JUMP JUMPDEST PUSH1 0x1 PUSH1 0x0 SWAP1 SLOAD SWAP1 PUSH2 0x100 EXP SWAP1 DIV PUSH20 0xFFFFFFFFFFFFFFFFFFFFFFFFFFFFFFFFFFFFFFFF AND PUSH20 0xFFFFFFFFFFFFFFFFFFFFFFFFFFFFFFFFFFFFFFFF AND PUSH4 0xF3FEF3A3 DUP3 DUP5 PUSH1 0x40 MLOAD DUP4 PUSH4 0xFFFFFFFF AND PUSH1 0xE0 SHL DUP2 MSTORE PUSH1 0x4 ADD PUSH2 0x82C SWAP3 SWAP2 SWAP1 PUSH2 0x1BDC JUMP JUMPDEST PUSH1 0x0 PUSH1 0x40 MLOAD DUP1 DUP4 SUB DUP2 PUSH1 0x0 DUP8 DUP1 EXTCODESIZE ISZERO DUP1 ISZERO PUSH2 0x846 JUMPI PUSH1 0x0 DUP1 REVERT JUMPDEST POP GAS CALL ISZERO DUP1 ISZERO PUSH2 0x85A JUMPI RETURNDATASIZE PUSH1 0x0 DUP1 RETURNDATACOPY RETURNDATASIZE PUSH1 0x0 REVERT JUMPDEST POP POP POP POP POP POP JUMP JUMPDEST PUSH2 0x2904 DUP2 JUMP JUMPDEST PUSH2 0x870 PUSH2 0xFFF JUMP JUMPDEST PUSH2 0x87A PUSH1 0x0 PUSH2 0x107D JUMP JUMPDEST JUMP JUMPDEST PUSH2 0x884 PUSH2 0xC9C JUMP JUMPDEST PUSH2 0x891 DUP6 DUP6 DUP6 DUP6 DUP6 PUSH2 0x1141 JUMP JUMPDEST POP POP POP POP POP JUMP JUMPDEST PUSH2 0x8A0 PUSH2 0xFFF JUMP JUMPDEST PUSH32 0x4D11D6210A5E807DA812A693B5D341A870571B5FC31158172207A3D99C911CCD PUSH1 0x4 PUSH1 0x0 SWAP1 SLOAD SWAP1 PUSH2 0x100 EXP SWAP1 DIV PUSH20 0xFFFFFFFFFFFFFFFFFFFFFFFFFFFFFFFFFFFFFFFF AND DUP3 PUSH1 0x40 MLOAD PUSH2 0x8F3 SWAP3 SWAP2 SWAP1 PUSH2 0x1C05 JUMP JUMPDEST PUSH1 0x40 MLOAD DUP1 SWAP2 SUB SWAP1 LOG1 DUP1 PUSH1 0x4 PUSH1 0x0 PUSH2 0x100 EXP DUP2 SLOAD DUP2 PUSH20 0xFFFFFFFFFFFFFFFFFFFFFFFFFFFFFFFFFFFFFFFF MUL NOT AND SWAP1 DUP4 PUSH20 0xFFFFFFFFFFFFFFFFFFFFFFFFFFFFFFFFFFFFFFFF AND MUL OR SWAP1 SSTORE POP POP JUMP JUMPDEST PUSH2 0x947 PUSH2 0xFFF JUMP JUMPDEST PUSH2 0x990 PUSH32 0xE9FB30F700000000000000000000000000000000000000000000000000000000 DUP3 PUSH20 0xFFFFFFFFFFFFFFFFFFFFFFFFFFFFFFFFFFFFFFFF AND PUSH2 0x1148 SWAP1 SWAP2 SWAP1 PUSH4 0xFFFFFFFF AND JUMP JUMPDEST PUSH2 0x9CF JUMPI PUSH1 0x40 MLOAD PUSH32 0x8C379A000000000000000000000000000000000000000000000000000000000 DUP2 MSTORE PUSH1 0x4 ADD PUSH2 0x9C6 SWAP1 PUSH2 0x1DF6 JUMP JUMPDEST PUSH1 0x40 MLOAD DUP1 SWAP2 SUB SWAP1 REVERT JUMPDEST DUP1 PUSH1 0x1 PUSH1 0x0 PUSH2 0x100 EXP DUP2 SLOAD DUP2 PUSH20 0xFFFFFFFFFFFFFFFFFFFFFFFFFFFFFFFFFFFFFFFF MUL NOT AND SWAP1 DUP4 PUSH20 0xFFFFFFFFFFFFFFFFFFFFFFFFFFFFFFFFFFFFFFFF AND MUL OR SWAP1 SSTORE POP POP JUMP JUMPDEST PUSH1 0x0 PUSH1 0x1 PUSH1 0x0 SWAP1 SLOAD SWAP1 PUSH2 0x100 EXP SWAP1 DIV PUSH20 0xFFFFFFFFFFFFFFFFFFFFFFFFFFFFFFFFFFFFFFFF AND SWAP1 POP SWAP1 JUMP JUMPDEST PUSH1 0x0 DUP1 PUSH1 0x0 SWAP1 SLOAD SWAP1 PUSH2 0x100 EXP SWAP1 DIV PUSH20 0xFFFFFFFFFFFFFFFFFFFFFFFFFFFFFFFFFFFFFFFF AND SWAP1 POP SWAP1 JUMP JUMPDEST PUSH1 0x60 PUSH1 0x40 MLOAD DUP1 PUSH1 0x60 ADD PUSH1 0x40 MSTORE DUP1 PUSH1 0x30 DUP2 MSTORE PUSH1 0x20 ADD PUSH2 0x2420 PUSH1 0x30 SWAP2 CODECOPY SWAP1 POP SWAP1 JUMP JUMPDEST PUSH2 0xA8E PUSH2 0x1481 JUMP JUMPDEST PUSH1 0x40 MLOAD DUP1 PUSH1 0x80 ADD PUSH1 0x40 MSTORE DUP1 PUSH2 0xC350 PUSH3 0x186A0 PUSH2 0xAAA SWAP2 SWAP1 PUSH2 0x1FA3 JUMP JUMPDEST DUP2 MSTORE PUSH1 0x20 ADD PUSH3 0x186A0 DUP2 MSTORE PUSH1 0x20 ADD PUSH3 0x1ADB0 DUP2 MSTORE PUSH1 0x20 ADD PUSH2 0x2904 DUP2 MSTORE POP SWAP1 POP SWAP1 JUMP JUMPDEST PUSH2 0xC350 DUP2 JUMP JUMPDEST PUSH3 0x1ADB0 DUP2 JUMP JUMPDEST PUSH1 0x0 PUSH1 0x2 PUSH1 0x0 SWAP1 SLOAD SWAP1 PUSH2 0x100 EXP SWAP1 DIV PUSH20 0xFFFFFFFFFFFFFFFFFFFFFFFFFFFFFFFFFFFFFFFF AND SWAP1 POP SWAP1 JUMP JUMPDEST PUSH1 0x4 PUSH1 0x0 SWAP1 SLOAD SWAP1 PUSH2 0x100 EXP SWAP1 DIV PUSH20 0xFFFFFFFFFFFFFFFFFFFFFFFFFFFFFFFFFFFFFFFF AND DUP2 JUMP JUMPDEST PUSH2 0xB31 PUSH2 0xFFF JUMP JUMPDEST PUSH2 0xB7A PUSH32 0x25E23E6400000000000000000000000000000000000000000000000000000000 DUP3 PUSH20 0xFFFFFFFFFFFFFFFFFFFFFFFFFFFFFFFFFFFFFFFF AND PUSH2 0x1148 SWAP1 SWAP2 SWAP1 PUSH4 0xFFFFFFFF AND JUMP JUMPDEST PUSH2 0xBB9 JUMPI PUSH1 0x40 MLOAD PUSH32 0x8C379A000000000000000000000000000000000000000000000000000000000 DUP2 MSTORE PUSH1 0x4 ADD PUSH2 0xBB0 SWAP1 PUSH2 0x1D96 JUMP JUMPDEST PUSH1 0x40 MLOAD DUP1 SWAP2 SUB SWAP1 REVERT JUMPDEST DUP1 PUSH1 0x2 PUSH1 0x0 PUSH2 0x100 EXP DUP2 SLOAD DUP2 PUSH20 0xFFFFFFFFFFFFFFFFFFFFFFFFFFFFFFFFFFFFFFFF MUL NOT AND SWAP1 DUP4 PUSH20 0xFFFFFFFFFFFFFFFFFFFFFFFFFFFFFFFFFFFFFFFF AND MUL OR SWAP1 SSTORE POP POP JUMP JUMPDEST PUSH2 0xC350 PUSH3 0x186A0 PUSH2 0xC0E SWAP2 SWAP1 PUSH2 0x1FA3 JUMP JUMPDEST DUP2 JUMP JUMPDEST PUSH2 0xC19 PUSH2 0xFFF JUMP JUMPDEST PUSH1 0x0 PUSH20 0xFFFFFFFFFFFFFFFFFFFFFFFFFFFFFFFFFFFFFFFF AND DUP2 PUSH20 0xFFFFFFFFFFFFFFFFFFFFFFFFFFFFFFFFFFFFFFFF AND EQ ISZERO PUSH2 0xC89 JUMPI PUSH1 0x40 MLOAD PUSH32 0x8C379A000000000000000000000000000000000000000000000000000000000 DUP2 MSTORE PUSH1 0x4 ADD PUSH2 0xC80 SWAP1 PUSH2 0x1D16 JUMP JUMPDEST PUSH1 0x40 MLOAD DUP1 SWAP2 SUB SWAP1 REVERT JUMPDEST PUSH2 0xC92 DUP2 PUSH2 0x107D JUMP JUMPDEST POP JUMP JUMPDEST PUSH3 0x186A0 DUP2 JUMP JUMPDEST PUSH2 0xCA4 PUSH2 0xA13 JUMP JUMPDEST PUSH20 0xFFFFFFFFFFFFFFFFFFFFFFFFFFFFFFFFFFFFFFFF AND CALLER PUSH20 0xFFFFFFFFFFFFFFFFFFFFFFFFFFFFFFFFFFFFFFFF AND EQ PUSH2 0xD11 JUMPI PUSH1 0x40 MLOAD PUSH32 0x8C379A000000000000000000000000000000000000000000000000000000000 DUP2 MSTORE PUSH1 0x4 ADD PUSH2 0xD08 SWAP1 PUSH2 0x1E16 JUMP JUMPDEST PUSH1 0x40 MLOAD DUP1 SWAP2 SUB SWAP1 REVERT JUMPDEST JUMP JUMPDEST DUP1 DUP1 PUSH1 0x20 ADD SWAP1 PUSH2 0xD23 SWAP2 SWAP1 PUSH2 0x1F37 JUMP JUMPDEST PUSH1 0xA0 ADD PUSH1 0x20 DUP2 ADD SWAP1 PUSH2 0xD35 SWAP2 SWAP1 PUSH2 0x15E6 JUMP JUMPDEST PUSH20 0xFFFFFFFFFFFFFFFFFFFFFFFFFFFFFFFFFFFFFFFF AND PUSH2 0xD53 PUSH2 0xAD9 JUMP JUMPDEST PUSH20 0xFFFFFFFFFFFFFFFFFFFFFFFFFFFFFFFFFFFFFFFF AND EQ PUSH2 0xDA9 JUMPI PUSH1 0x40 MLOAD PUSH32 0x8C379A000000000000000000000000000000000000000000000000000000000 DUP2 MSTORE PUSH1 0x4 ADD PUSH2 0xDA0 SWAP1 PUSH2 0x1D76 JUMP JUMPDEST PUSH1 0x40 MLOAD DUP1 SWAP2 SUB SWAP1 REVERT JUMPDEST PUSH2 0xDB2 DUP2 PUSH2 0x116D JUMP JUMPDEST POP JUMP JUMPDEST PUSH1 0x0 DUP2 DUP1 PUSH1 0x0 ADD SWAP1 PUSH2 0xDC7 SWAP2 SWAP1 PUSH2 0x1F0F JUMP JUMPDEST PUSH1 0x40 ADD CALLDATALOAD EQ PUSH2 0xE0B JUMPI PUSH1 0x40 MLOAD PUSH32 0x8C379A000000000000000000000000000000000000000000000000000000000 DUP2 MSTORE PUSH1 0x4 ADD PUSH2 0xE02 SWAP1 PUSH2 0x1E36 JUMP JUMPDEST PUSH1 0x40 MLOAD DUP1 SWAP2 SUB SWAP1 REVERT JUMPDEST POP JUMP JUMPDEST PUSH1 0x0 DUP2 DUP1 PUSH1 0x20 ADD SWAP1 PUSH2 0xE20 SWAP2 SWAP1 PUSH2 0x1F37 JUMP JUMPDEST DUP1 PUSH1 0xC0 ADD SWAP1 PUSH2 0xE2F SWAP2 SWAP1 PUSH2 0x1EAC JUMP JUMPDEST SWAP1 POP EQ PUSH2 0xE71 JUMPI PUSH1 0x40 MLOAD PUSH32 0x8C379A000000000000000000000000000000000000000000000000000000000 DUP2 MSTORE PUSH1 0x4 ADD PUSH2 0xE68 SWAP1 PUSH2 0x1CD6 JUMP JUMPDEST PUSH1 0x40 MLOAD DUP1 SWAP2 SUB SWAP1 REVERT JUMPDEST POP JUMP JUMPDEST PUSH1 0x0 DUP3 DUP3 SWAP1 POP EQ PUSH2 0xEBA JUMPI PUSH1 0x40 MLOAD PUSH32 0x8C379A000000000000000000000000000000000000000000000000000000000 DUP2 MSTORE PUSH1 0x4 ADD PUSH2 0xEB1 SWAP1 PUSH2 0x1E56 JUMP JUMPDEST PUSH1 0x40 MLOAD DUP1 SWAP2 SUB SWAP1 REVERT JUMPDEST POP POP JUMP JUMPDEST PUSH1 0x60 PUSH1 0x0 PUSH1 0x4 PUSH1 0x0 SWAP1 SLOAD SWAP1 PUSH2 0x100 EXP SWAP1 DIV PUSH20 0xFFFFFFFFFFFFFFFFFFFFFFFFFFFFFFFFFFFFFFFF AND PUSH20 0xFFFFFFFFFFFFFFFFFFFFFFFFFFFFFFFFFFFFFFFF AND DUP9 DUP1 PUSH1 0x0 ADD SWAP1 PUSH2 0xF0B SWAP2 SWAP1 PUSH2 0x1F0F JUMP JUMPDEST PUSH1 0x20 ADD PUSH1 0x20 DUP2 ADD SWAP1 PUSH2 0xF1D SWAP2 SWAP1 PUSH2 0x15E6 JUMP JUMPDEST PUSH20 0xFFFFFFFFFFFFFFFFFFFFFFFFFFFFFFFFFFFFFFFF AND EQ PUSH2 0xF73 JUMPI PUSH1 0x40 MLOAD PUSH32 0x8C379A000000000000000000000000000000000000000000000000000000000 DUP2 MSTORE PUSH1 0x4 ADD PUSH2 0xF6A SWAP1 PUSH2 0x1CB6 JUMP JUMPDEST PUSH1 0x40 MLOAD DUP1 SWAP2 SUB SWAP1 REVERT JUMPDEST PUSH1 0x0 PUSH1 0x40 MLOAD DUP1 PUSH1 0x20 ADD PUSH1 0x40 MSTORE DUP1 PUSH1 0x0 DUP2 MSTORE POP SWAP1 SWAP2 POP SWAP2 POP SWAP7 POP SWAP7 SWAP5 POP POP POP POP POP JUMP JUMPDEST PUSH1 0x0 PUSH32 0x1FFC9A700000000000000000000000000000000000000000000000000000000 PUSH28 0xFFFFFFFFFFFFFFFFFFFFFFFFFFFFFFFFFFFFFFFFFFFFFFFFFFFFFFFF NOT AND DUP3 PUSH28 0xFFFFFFFFFFFFFFFFFFFFFFFFFFFFFFFFFFFFFFFFFFFFFFFFFFFFFFFF NOT AND EQ SWAP1 POP SWAP2 SWAP1 POP JUMP JUMPDEST PUSH2 0x1007 PUSH2 0x136D JUMP JUMPDEST PUSH20 0xFFFFFFFFFFFFFFFFFFFFFFFFFFFFFFFFFFFFFFFF AND PUSH2 0x1025 PUSH2 0xA3D JUMP JUMPDEST PUSH20 0xFFFFFFFFFFFFFFFFFFFFFFFFFFFFFFFFFFFFFFFF AND EQ PUSH2 0x107B JUMPI PUSH1 0x40 MLOAD PUSH32 0x8C379A000000000000000000000000000000000000000000000000000000000 DUP2 MSTORE PUSH1 0x4 ADD PUSH2 0x1072 SWAP1 PUSH2 0x1DD6 JUMP JUMPDEST PUSH1 0x40 MLOAD DUP1 SWAP2 SUB SWAP1 REVERT JUMPDEST JUMP JUMPDEST PUSH1 0x0 DUP1 PUSH1 0x0 SWAP1 SLOAD SWAP1 PUSH2 0x100 EXP SWAP1 DIV PUSH20 0xFFFFFFFFFFFFFFFFFFFFFFFFFFFFFFFFFFFFFFFF AND SWAP1 POP DUP2 PUSH1 0x0 DUP1 PUSH2 0x100 EXP DUP2 SLOAD DUP2 PUSH20 0xFFFFFFFFFFFFFFFFFFFFFFFFFFFFFFFFFFFFFFFF MUL NOT AND SWAP1 DUP4 PUSH20 0xFFFFFFFFFFFFFFFFFFFFFFFFFFFFFFFFFFFFFFFF AND MUL OR SWAP1 SSTORE POP DUP2 PUSH20 0xFFFFFFFFFFFFFFFFFFFFFFFFFFFFFFFFFFFFFFFF AND DUP2 PUSH20 0xFFFFFFFFFFFFFFFFFFFFFFFFFFFFFFFFFFFFFFFF AND PUSH32 0x8BE0079C531659141344CD1FD0A4F28419497F9722A3DAAFE3B4186F6B6457E0 PUSH1 0x40 MLOAD PUSH1 0x40 MLOAD DUP1 SWAP2 SUB SWAP1 LOG3 POP POP JUMP JUMPDEST POP POP POP POP POP JUMP JUMPDEST PUSH1 0x0 PUSH2 0x1153 DUP4 PUSH2 0x1375 JUMP JUMPDEST DUP1 ISZERO PUSH2 0x1165 JUMPI POP PUSH2 0x1164 DUP4 DUP4 PUSH2 0x13C2 JUMP JUMPDEST JUMPDEST SWAP1 POP SWAP3 SWAP2 POP POP JUMP JUMPDEST PUSH1 0x0 DUP1 DUP3 DUP1 PUSH1 0x0 ADD SWAP1 PUSH2 0x1180 SWAP2 SWAP1 PUSH2 0x1F0F JUMP JUMPDEST PUSH1 0x20 ADD PUSH1 0x20 DUP2 ADD SWAP1 PUSH2 0x1192 SWAP2 SWAP1 PUSH2 0x15E6 JUMP JUMPDEST PUSH20 0xFFFFFFFFFFFFFFFFFFFFFFFFFFFFFFFFFFFFFFFF AND PUSH4 0x572B6C05 PUSH1 0xE0 SHL DUP5 DUP1 PUSH1 0x20 ADD SWAP1 PUSH2 0x11C0 SWAP2 SWAP1 PUSH2 0x1F37 JUMP JUMPDEST PUSH1 0xA0 ADD PUSH1 0x20 DUP2 ADD SWAP1 PUSH2 0x11D2 SWAP2 SWAP1 PUSH2 0x15E6 JUMP JUMPDEST PUSH1 0x40 MLOAD PUSH1 0x24 ADD PUSH2 0x11E2 SWAP2 SWAP1 PUSH2 0x1BC1 JUMP JUMPDEST PUSH1 0x40 MLOAD PUSH1 0x20 DUP2 DUP4 SUB SUB DUP2 MSTORE SWAP1 PUSH1 0x40 MSTORE SWAP1 PUSH28 0xFFFFFFFFFFFFFFFFFFFFFFFFFFFFFFFFFFFFFFFFFFFFFFFFFFFFFFFF NOT AND PUSH1 0x20 DUP3 ADD DUP1 MLOAD PUSH28 0xFFFFFFFFFFFFFFFFFFFFFFFFFFFFFFFFFFFFFFFFFFFFFFFFFFFFFFFF DUP4 DUP2 DUP4 AND OR DUP4 MSTORE POP POP POP POP PUSH1 0x40 MLOAD PUSH2 0x124C SWAP2 SWAP1 PUSH2 0x1BAA JUMP JUMPDEST PUSH1 0x0 PUSH1 0x40 MLOAD DUP1 DUP4 SUB DUP2 DUP6 GAS STATICCALL SWAP2 POP POP RETURNDATASIZE DUP1 PUSH1 0x0 DUP2 EQ PUSH2 0x1287 JUMPI PUSH1 0x40 MLOAD SWAP2 POP PUSH1 0x1F NOT PUSH1 0x3F RETURNDATASIZE ADD AND DUP3 ADD PUSH1 0x40 MSTORE RETURNDATASIZE DUP3 MSTORE RETURNDATASIZE PUSH1 0x0 PUSH1 0x20 DUP5 ADD RETURNDATACOPY PUSH2 0x128C JUMP JUMPDEST PUSH1 0x60 SWAP2 POP JUMPDEST POP SWAP2 POP SWAP2 POP DUP2 PUSH2 0x12D1 JUMPI PUSH1 0x40 MLOAD PUSH32 0x8C379A000000000000000000000000000000000000000000000000000000000 DUP2 MSTORE PUSH1 0x4 ADD PUSH2 0x12C8 SWAP1 PUSH2 0x1D36 JUMP JUMPDEST PUSH1 0x40 MLOAD DUP1 SWAP2 SUB SWAP1 REVERT JUMPDEST PUSH1 0x20 DUP2 MLOAD EQ PUSH2 0x1315 JUMPI PUSH1 0x40 MLOAD PUSH32 0x8C379A000000000000000000000000000000000000000000000000000000000 DUP2 MSTORE PUSH1 0x4 ADD PUSH2 0x130C SWAP1 PUSH2 0x1DB6 JUMP JUMPDEST PUSH1 0x40 MLOAD DUP1 SWAP2 SUB SWAP1 REVERT JUMPDEST DUP1 DUP1 PUSH1 0x20 ADD SWAP1 MLOAD DUP2 ADD SWAP1 PUSH2 0x1329 SWAP2 SWAP1 PUSH2 0x1613 JUMP JUMPDEST PUSH2 0x1368 JUMPI PUSH1 0x40 MLOAD PUSH32 0x8C379A000000000000000000000000000000000000000000000000000000000 DUP2 MSTORE PUSH1 0x4 ADD PUSH2 0x135F SWAP1 PUSH2 0x1CF6 JUMP JUMPDEST PUSH1 0x40 MLOAD DUP1 SWAP2 SUB SWAP1 REVERT JUMPDEST POP POP POP JUMP JUMPDEST PUSH1 0x0 CALLER SWAP1 POP SWAP1 JUMP JUMPDEST PUSH1 0x0 PUSH2 0x13A1 DUP3 PUSH32 0x1FFC9A700000000000000000000000000000000000000000000000000000000 PUSH2 0x13C2 JUMP JUMPDEST DUP1 ISZERO PUSH2 0x13BB JUMPI POP PUSH2 0x13B9 DUP3 PUSH4 0xFFFFFFFF PUSH1 0xE0 SHL PUSH2 0x13C2 JUMP JUMPDEST ISZERO JUMPDEST SWAP1 POP SWAP2 SWAP1 POP JUMP JUMPDEST PUSH1 0x0 DUP1 PUSH4 0x1FFC9A7 PUSH1 0xE0 SHL DUP4 PUSH1 0x40 MLOAD PUSH1 0x24 ADD PUSH2 0x13DE SWAP2 SWAP1 PUSH2 0x1C49 JUMP JUMPDEST PUSH1 0x40 MLOAD PUSH1 0x20 DUP2 DUP4 SUB SUB DUP2 MSTORE SWAP1 PUSH1 0x40 MSTORE SWAP1 PUSH28 0xFFFFFFFFFFFFFFFFFFFFFFFFFFFFFFFFFFFFFFFFFFFFFFFFFFFFFFFF NOT AND PUSH1 0x20 DUP3 ADD DUP1 MLOAD PUSH28 0xFFFFFFFFFFFFFFFFFFFFFFFFFFFFFFFFFFFFFFFFFFFFFFFFFFFFFFFF DUP4 DUP2 DUP4 AND OR DUP4 MSTORE POP POP POP POP SWAP1 POP PUSH1 0x0 DUP1 PUSH1 0x0 PUSH1 0x20 PUSH1 0x0 DUP6 MLOAD PUSH1 0x20 DUP8 ADD DUP11 PUSH2 0x7530 STATICCALL SWAP3 POP RETURNDATASIZE SWAP2 POP PUSH1 0x0 MLOAD SWAP1 POP DUP3 DUP1 ISZERO PUSH2 0x1469 JUMPI POP PUSH1 0x20 DUP3 LT ISZERO JUMPDEST DUP1 ISZERO PUSH2 0x1475 JUMPI POP PUSH1 0x0 DUP2 GT JUMPDEST SWAP5 POP POP POP POP POP SWAP3 SWAP2 POP POP JUMP JUMPDEST PUSH1 0x40 MLOAD DUP1 PUSH1 0x80 ADD PUSH1 0x40 MSTORE DUP1 PUSH1 0x0 DUP2 MSTORE PUSH1 0x20 ADD PUSH1 0x0 DUP2 MSTORE PUSH1 0x20 ADD PUSH1 0x0 DUP2 MSTORE PUSH1 0x20 ADD PUSH1 0x0 DUP2 MSTORE POP SWAP1 JUMP JUMPDEST PUSH1 0x0 DUP2 CALLDATALOAD SWAP1 POP PUSH2 0x14B8 DUP2 PUSH2 0x2395 JUMP JUMPDEST SWAP3 SWAP2 POP POP JUMP JUMPDEST PUSH1 0x0 DUP2 CALLDATALOAD SWAP1 POP PUSH2 0x14CD DUP2 PUSH2 0x23AC JUMP JUMPDEST SWAP3 SWAP2 POP POP JUMP JUMPDEST PUSH1 0x0 DUP2 CALLDATALOAD SWAP1 POP PUSH2 0x14E2 DUP2 PUSH2 0x23C3 JUMP JUMPDEST SWAP3 SWAP2 POP POP JUMP JUMPDEST PUSH1 0x0 DUP2 MLOAD SWAP1 POP PUSH2 0x14F7 DUP2 PUSH2 0x23C3 JUMP JUMPDEST SWAP3 SWAP2 POP POP JUMP JUMPDEST PUSH1 0x0 DUP2 CALLDATALOAD SWAP1 POP PUSH2 0x150C DUP2 PUSH2 0x23DA JUMP JUMPDEST SWAP3 SWAP2 POP POP JUMP JUMPDEST PUSH1 0x0 DUP1 DUP4 PUSH1 0x1F DUP5 ADD SLT PUSH2 0x1528 JUMPI PUSH2 0x1527 PUSH2 0x20F8 JUMP JUMPDEST JUMPDEST DUP3 CALLDATALOAD SWAP1 POP PUSH8 0xFFFFFFFFFFFFFFFF DUP2 GT ISZERO PUSH2 0x1545 JUMPI PUSH2 0x1544 PUSH2 0x20F3 JUMP JUMPDEST JUMPDEST PUSH1 0x20 DUP4 ADD SWAP2 POP DUP4 PUSH1 0x1 DUP3 MUL DUP4 ADD GT ISZERO PUSH2 0x1561 JUMPI PUSH2 0x1560 PUSH2 0x210C JUMP JUMPDEST JUMPDEST SWAP3 POP SWAP3 SWAP1 POP JUMP JUMPDEST PUSH1 0x0 DUP2 CALLDATALOAD SWAP1 POP PUSH2 0x1577 DUP2 PUSH2 0x23F1 JUMP JUMPDEST SWAP3 SWAP2 POP POP JUMP JUMPDEST PUSH1 0x0 PUSH2 0x100 DUP3 DUP5 SUB SLT ISZERO PUSH2 0x1594 JUMPI PUSH2 0x1593 PUSH2 0x2102 JUMP JUMPDEST JUMPDEST DUP2 SWAP1 POP SWAP3 SWAP2 POP POP JUMP JUMPDEST PUSH1 0x0 PUSH1 0x40 DUP3 DUP5 SUB SLT ISZERO PUSH2 0x15B3 JUMPI PUSH2 0x15B2 PUSH2 0x2102 JUMP JUMPDEST JUMPDEST DUP2 SWAP1 POP SWAP3 SWAP2 POP POP JUMP JUMPDEST PUSH1 0x0 DUP2 CALLDATALOAD SWAP1 POP PUSH2 0x15CB DUP2 PUSH2 0x2408 JUMP JUMPDEST SWAP3 SWAP2 POP POP JUMP JUMPDEST PUSH1 0x0 DUP2 MLOAD SWAP1 POP PUSH2 0x15E0 DUP2 PUSH2 0x2408 JUMP JUMPDEST SWAP3 SWAP2 POP POP JUMP JUMPDEST PUSH1 0x0 PUSH1 0x20 DUP3 DUP5 SUB SLT ISZERO PUSH2 0x15FC JUMPI PUSH2 0x15FB PUSH2 0x211B JUMP JUMPDEST JUMPDEST PUSH1 0x0 PUSH2 0x160A DUP5 DUP3 DUP6 ADD PUSH2 0x14A9 JUMP JUMPDEST SWAP2 POP POP SWAP3 SWAP2 POP POP JUMP JUMPDEST PUSH1 0x0 PUSH1 0x20 DUP3 DUP5 SUB SLT ISZERO PUSH2 0x1629 JUMPI PUSH2 0x1628 PUSH2 0x211B JUMP JUMPDEST JUMPDEST PUSH1 0x0 PUSH2 0x1637 DUP5 DUP3 DUP6 ADD PUSH2 0x14E8 JUMP JUMPDEST SWAP2 POP POP SWAP3 SWAP2 POP POP JUMP JUMPDEST PUSH1 0x0 PUSH1 0x20 DUP3 DUP5 SUB SLT ISZERO PUSH2 0x1656 JUMPI PUSH2 0x1655 PUSH2 0x211B JUMP JUMPDEST JUMPDEST PUSH1 0x0 PUSH2 0x1664 DUP5 DUP3 DUP6 ADD PUSH2 0x14FD JUMP JUMPDEST SWAP2 POP POP SWAP3 SWAP2 POP POP JUMP JUMPDEST PUSH1 0x0 DUP1 PUSH1 0x0 DUP1 PUSH1 0x0 PUSH1 0x80 DUP7 DUP9 SUB SLT ISZERO PUSH2 0x1689 JUMPI PUSH2 0x1688 PUSH2 0x211B JUMP JUMPDEST JUMPDEST PUSH1 0x0 DUP7 ADD CALLDATALOAD PUSH8 0xFFFFFFFFFFFFFFFF DUP2 GT ISZERO PUSH2 0x16A7 JUMPI PUSH2 0x16A6 PUSH2 0x2116 JUMP JUMPDEST JUMPDEST PUSH2 0x16B3 DUP9 DUP3 DUP10 ADD PUSH2 0x1512 JUMP JUMPDEST SWAP6 POP SWAP6 POP POP PUSH1 0x20 PUSH2 0x16C6 DUP9 DUP3 DUP10 ADD PUSH2 0x14D3 JUMP JUMPDEST SWAP4 POP POP PUSH1 0x40 PUSH2 0x16D7 DUP9 DUP3 DUP10 ADD PUSH2 0x15BC JUMP JUMPDEST SWAP3 POP POP PUSH1 0x60 DUP7 ADD CALLDATALOAD PUSH8 0xFFFFFFFFFFFFFFFF DUP2 GT ISZERO PUSH2 0x16F8 JUMPI PUSH2 0x16F7 PUSH2 0x2116 JUMP JUMPDEST JUMPDEST PUSH2 0x1704 DUP9 DUP3 DUP10 ADD PUSH2 0x157D JUMP JUMPDEST SWAP2 POP POP SWAP3 SWAP6 POP SWAP3 SWAP6 SWAP1 SWAP4 POP JUMP JUMPDEST PUSH1 0x0 PUSH1 0x20 DUP3 DUP5 SUB SLT ISZERO PUSH2 0x1727 JUMPI PUSH2 0x1726 PUSH2 0x211B JUMP JUMPDEST JUMPDEST PUSH1 0x0 PUSH2 0x1735 DUP5 DUP3 DUP6 ADD PUSH2 0x1568 JUMP JUMPDEST SWAP2 POP POP SWAP3 SWAP2 POP POP JUMP JUMPDEST PUSH1 0x0 DUP1 PUSH1 0x0 DUP1 PUSH1 0x0 DUP1 PUSH1 0x80 DUP8 DUP10 SUB SLT ISZERO PUSH2 0x175B JUMPI PUSH2 0x175A PUSH2 0x211B JUMP JUMPDEST JUMPDEST PUSH1 0x0 DUP8 ADD CALLDATALOAD PUSH8 0xFFFFFFFFFFFFFFFF DUP2 GT ISZERO PUSH2 0x1779 JUMPI PUSH2 0x1778 PUSH2 0x2116 JUMP JUMPDEST JUMPDEST PUSH2 0x1785 DUP10 DUP3 DUP11 ADD PUSH2 0x159D JUMP JUMPDEST SWAP7 POP POP PUSH1 0x20 DUP8 ADD CALLDATALOAD PUSH8 0xFFFFFFFFFFFFFFFF DUP2 GT ISZERO PUSH2 0x17A6 JUMPI PUSH2 0x17A5 PUSH2 0x2116 JUMP JUMPDEST JUMPDEST PUSH2 0x17B2 DUP10 DUP3 DUP11 ADD PUSH2 0x1512 JUMP JUMPDEST SWAP6 POP SWAP6 POP POP PUSH1 0x40 DUP8 ADD CALLDATALOAD PUSH8 0xFFFFFFFFFFFFFFFF DUP2 GT ISZERO PUSH2 0x17D5 JUMPI PUSH2 0x17D4 PUSH2 0x2116 JUMP JUMPDEST JUMPDEST PUSH2 0x17E1 DUP10 DUP3 DUP11 ADD PUSH2 0x1512 JUMP JUMPDEST SWAP4 POP SWAP4 POP POP PUSH1 0x60 PUSH2 0x17F4 DUP10 DUP3 DUP11 ADD PUSH2 0x15BC JUMP JUMPDEST SWAP2 POP POP SWAP3 SWAP6 POP SWAP3 SWAP6 POP SWAP3 SWAP6 JUMP JUMPDEST PUSH1 0x0 PUSH1 0x20 DUP3 DUP5 SUB SLT ISZERO PUSH2 0x1817 JUMPI PUSH2 0x1816 PUSH2 0x211B JUMP JUMPDEST JUMPDEST PUSH1 0x0 PUSH2 0x1825 DUP5 DUP3 DUP6 ADD PUSH2 0x15D1 JUMP JUMPDEST SWAP2 POP POP SWAP3 SWAP2 POP POP JUMP JUMPDEST PUSH1 0x0 DUP1 PUSH1 0x40 DUP4 DUP6 SUB SLT ISZERO PUSH2 0x1845 JUMPI PUSH2 0x1844 PUSH2 0x211B JUMP JUMPDEST JUMPDEST PUSH1 0x0 PUSH2 0x1853 DUP6 DUP3 DUP7 ADD PUSH2 0x15BC JUMP JUMPDEST SWAP3 POP POP PUSH1 0x20 PUSH2 0x1864 DUP6 DUP3 DUP7 ADD PUSH2 0x14BE JUMP JUMPDEST SWAP2 POP POP SWAP3 POP SWAP3 SWAP1 POP JUMP JUMPDEST PUSH2 0x1877 DUP2 PUSH2 0x200B JUMP JUMPDEST DUP3 MSTORE POP POP JUMP JUMPDEST PUSH2 0x1886 DUP2 PUSH2 0x1FF9 JUMP JUMPDEST DUP3 MSTORE POP POP JUMP JUMPDEST PUSH2 0x1895 DUP2 PUSH2 0x201D JUMP JUMPDEST DUP3 MSTORE POP POP JUMP JUMPDEST PUSH2 0x18A4 DUP2 PUSH2 0x2029 JUMP JUMPDEST DUP3 MSTORE POP POP JUMP JUMPDEST PUSH1 0x0 PUSH2 0x18B5 DUP3 PUSH2 0x1F60 JUMP JUMPDEST PUSH2 0x18BF DUP2 DUP6 PUSH2 0x1F76 JUMP JUMPDEST SWAP4 POP PUSH2 0x18CF DUP2 DUP6 PUSH1 0x20 DUP7 ADD PUSH2 0x2091 JUMP JUMPDEST PUSH2 0x18D8 DUP2 PUSH2 0x2120 JUMP JUMPDEST DUP5 ADD SWAP2 POP POP SWAP3 SWAP2 POP POP JUMP JUMPDEST PUSH1 0x0 PUSH2 0x18EE DUP3 PUSH2 0x1F60 JUMP JUMPDEST PUSH2 0x18F8 DUP2 DUP6 PUSH2 0x1F87 JUMP JUMPDEST SWAP4 POP PUSH2 0x1908 DUP2 DUP6 PUSH1 0x20 DUP7 ADD PUSH2 0x2091 JUMP JUMPDEST DUP1 DUP5 ADD SWAP2 POP POP SWAP3 SWAP2 POP POP JUMP JUMPDEST PUSH1 0x0 PUSH2 0x191F DUP3 PUSH2 0x1F6B JUMP JUMPDEST PUSH2 0x1929 DUP2 DUP6 PUSH2 0x1F92 JUMP JUMPDEST SWAP4 POP PUSH2 0x1939 DUP2 DUP6 PUSH1 0x20 DUP7 ADD PUSH2 0x2091 JUMP JUMPDEST PUSH2 0x1942 DUP2 PUSH2 0x2120 JUMP JUMPDEST DUP5 ADD SWAP2 POP POP SWAP3 SWAP2 POP POP JUMP JUMPDEST PUSH1 0x0 PUSH2 0x195A PUSH1 0xC DUP4 PUSH2 0x1F92 JUMP JUMPDEST SWAP2 POP PUSH2 0x1965 DUP3 PUSH2 0x2131 JUMP JUMPDEST PUSH1 0x20 DUP3 ADD SWAP1 POP SWAP2 SWAP1 POP JUMP JUMPDEST PUSH1 0x0 PUSH2 0x197D PUSH1 0x1C DUP4 PUSH2 0x1F92 JUMP JUMPDEST SWAP2 POP PUSH2 0x1988 DUP3 PUSH2 0x215A JUMP JUMPDEST PUSH1 0x20 DUP3 ADD SWAP1 POP SWAP2 SWAP1 POP JUMP JUMPDEST PUSH1 0x0 PUSH2 0x19A0 PUSH1 0x1F DUP4 PUSH2 0x1F92 JUMP JUMPDEST SWAP2 POP PUSH2 0x19AB DUP3 PUSH2 0x2183 JUMP JUMPDEST PUSH1 0x20 DUP3 ADD SWAP1 POP SWAP2 SWAP1 POP JUMP JUMPDEST PUSH1 0x0 PUSH2 0x19C3 PUSH1 0x26 DUP4 PUSH2 0x1F92 JUMP JUMPDEST SWAP2 POP PUSH2 0x19CE DUP3 PUSH2 0x21AC JUMP JUMPDEST PUSH1 0x40 DUP3 ADD SWAP1 POP SWAP2 SWAP1 POP JUMP JUMPDEST PUSH1 0x0 PUSH2 0x19E6 PUSH1 0x1C DUP4 PUSH2 0x1F92 JUMP JUMPDEST SWAP2 POP PUSH2 0x19F1 DUP3 PUSH2 0x21FB JUMP JUMPDEST PUSH1 0x20 DUP3 ADD SWAP1 POP SWAP2 SWAP1 POP JUMP JUMPDEST PUSH1 0x0 PUSH2 0x1A09 PUSH1 0x19 DUP4 PUSH2 0x1F92 JUMP JUMPDEST SWAP2 POP PUSH2 0x1A14 DUP3 PUSH2 0x2224 JUMP JUMPDEST PUSH1 0x20 DUP3 ADD SWAP1 POP SWAP2 SWAP1 POP JUMP JUMPDEST PUSH1 0x0 PUSH2 0x1A2C PUSH1 0x18 DUP4 PUSH2 0x1F92 JUMP JUMPDEST SWAP2 POP PUSH2 0x1A37 DUP3 PUSH2 0x224D JUMP JUMPDEST PUSH1 0x20 DUP3 ADD SWAP1 POP SWAP2 SWAP1 POP JUMP JUMPDEST PUSH1 0x0 PUSH2 0x1A4F PUSH1 0x20 DUP4 PUSH2 0x1F92 JUMP JUMPDEST SWAP2 POP PUSH2 0x1A5A DUP3 PUSH2 0x2276 JUMP JUMPDEST PUSH1 0x20 DUP3 ADD SWAP1 POP SWAP2 SWAP1 POP JUMP JUMPDEST PUSH1 0x0 PUSH2 0x1A72 PUSH1 0x20 DUP4 PUSH2 0x1F92 JUMP JUMPDEST SWAP2 POP PUSH2 0x1A7D DUP3 PUSH2 0x229F JUMP JUMPDEST PUSH1 0x20 DUP3 ADD SWAP1 POP SWAP2 SWAP1 POP JUMP JUMPDEST PUSH1 0x0 PUSH2 0x1A95 PUSH1 0x20 DUP4 PUSH2 0x1F92 JUMP JUMPDEST SWAP2 POP PUSH2 0x1AA0 DUP3 PUSH2 0x22C8 JUMP JUMPDEST PUSH1 0x20 DUP3 ADD SWAP1 POP SWAP2 SWAP1 POP JUMP JUMPDEST PUSH1 0x0 PUSH2 0x1AB8 PUSH1 0x1F DUP4 PUSH2 0x1F92 JUMP JUMPDEST SWAP2 POP PUSH2 0x1AC3 DUP3 PUSH2 0x22F1 JUMP JUMPDEST PUSH1 0x20 DUP3 ADD SWAP1 POP SWAP2 SWAP1 POP JUMP JUMPDEST PUSH1 0x0 PUSH2 0x1ADB PUSH1 0x1E DUP4 PUSH2 0x1F92 JUMP JUMPDEST SWAP2 POP PUSH2 0x1AE6 DUP3 PUSH2 0x231A JUMP JUMPDEST PUSH1 0x20 DUP3 ADD SWAP1 POP SWAP2 SWAP1 POP JUMP JUMPDEST PUSH1 0x0 PUSH2 0x1AFE PUSH1 0x1C DUP4 PUSH2 0x1F92 JUMP JUMPDEST SWAP2 POP PUSH2 0x1B09 DUP3 PUSH2 0x2343 JUMP JUMPDEST PUSH1 0x20 DUP3 ADD SWAP1 POP SWAP2 SWAP1 POP JUMP JUMPDEST PUSH1 0x0 PUSH2 0x1B21 PUSH1 0x1B DUP4 PUSH2 0x1F92 JUMP JUMPDEST SWAP2 POP PUSH2 0x1B2C DUP3 PUSH2 0x236C JUMP JUMPDEST PUSH1 0x20 DUP3 ADD SWAP1 POP SWAP2 SWAP1 POP JUMP JUMPDEST PUSH1 0x80 DUP3 ADD PUSH1 0x0 DUP3 ADD MLOAD PUSH2 0x1B4D PUSH1 0x0 DUP6 ADD DUP3 PUSH2 0x1B8C JUMP JUMPDEST POP PUSH1 0x20 DUP3 ADD MLOAD PUSH2 0x1B60 PUSH1 0x20 DUP6 ADD DUP3 PUSH2 0x1B8C JUMP JUMPDEST POP PUSH1 0x40 DUP3 ADD MLOAD PUSH2 0x1B73 PUSH1 0x40 DUP6 ADD DUP3 PUSH2 0x1B8C JUMP JUMPDEST POP PUSH1 0x60 DUP3 ADD MLOAD PUSH2 0x1B86 PUSH1 0x60 DUP6 ADD DUP3 PUSH2 0x1B8C JUMP JUMPDEST POP POP POP POP JUMP JUMPDEST PUSH2 0x1B95 DUP2 PUSH2 0x2087 JUMP JUMPDEST DUP3 MSTORE POP POP JUMP JUMPDEST PUSH2 0x1BA4 DUP2 PUSH2 0x2087 JUMP JUMPDEST DUP3 MSTORE POP POP JUMP JUMPDEST PUSH1 0x0 PUSH2 0x1BB6 DUP3 DUP5 PUSH2 0x18E3 JUMP JUMPDEST SWAP2 POP DUP2 SWAP1 POP SWAP3 SWAP2 POP POP JUMP JUMPDEST PUSH1 0x0 PUSH1 0x20 DUP3 ADD SWAP1 POP PUSH2 0x1BD6 PUSH1 0x0 DUP4 ADD DUP5 PUSH2 0x187D JUMP JUMPDEST SWAP3 SWAP2 POP POP JUMP JUMPDEST PUSH1 0x0 PUSH1 0x40 DUP3 ADD SWAP1 POP PUSH2 0x1BF1 PUSH1 0x0 DUP4 ADD DUP6 PUSH2 0x186E JUMP JUMPDEST PUSH2 0x1BFE PUSH1 0x20 DUP4 ADD DUP5 PUSH2 0x1B9B JUMP JUMPDEST SWAP4 SWAP3 POP POP POP JUMP JUMPDEST PUSH1 0x0 PUSH1 0x40 DUP3 ADD SWAP1 POP PUSH2 0x1C1A PUSH1 0x0 DUP4 ADD DUP6 PUSH2 0x187D JUMP JUMPDEST PUSH2 0x1C27 PUSH1 0x20 DUP4 ADD DUP5 PUSH2 0x187D JUMP JUMPDEST SWAP4 SWAP3 POP POP POP JUMP JUMPDEST PUSH1 0x0 PUSH1 0x20 DUP3 ADD SWAP1 POP PUSH2 0x1C43 PUSH1 0x0 DUP4 ADD DUP5 PUSH2 0x188C JUMP JUMPDEST SWAP3 SWAP2 POP POP JUMP JUMPDEST PUSH1 0x0 PUSH1 0x20 DUP3 ADD SWAP1 POP PUSH2 0x1C5E PUSH1 0x0 DUP4 ADD DUP5 PUSH2 0x189B JUMP JUMPDEST SWAP3 SWAP2 POP POP JUMP JUMPDEST PUSH1 0x0 PUSH1 0x40 DUP3 ADD SWAP1 POP DUP2 DUP2 SUB PUSH1 0x0 DUP4 ADD MSTORE PUSH2 0x1C7E DUP2 DUP6 PUSH2 0x18AA JUMP JUMPDEST SWAP1 POP PUSH2 0x1C8D PUSH1 0x20 DUP4 ADD DUP5 PUSH2 0x188C JUMP JUMPDEST SWAP4 SWAP3 POP POP POP JUMP JUMPDEST PUSH1 0x0 PUSH1 0x20 DUP3 ADD SWAP1 POP DUP2 DUP2 SUB PUSH1 0x0 DUP4 ADD MSTORE PUSH2 0x1CAE DUP2 DUP5 PUSH2 0x1914 JUMP JUMPDEST SWAP1 POP SWAP3 SWAP2 POP POP JUMP JUMPDEST PUSH1 0x0 PUSH1 0x20 DUP3 ADD SWAP1 POP DUP2 DUP2 SUB PUSH1 0x0 DUP4 ADD MSTORE PUSH2 0x1CCF DUP2 PUSH2 0x194D JUMP JUMPDEST SWAP1 POP SWAP2 SWAP1 POP JUMP JUMPDEST PUSH1 0x0 PUSH1 0x20 DUP3 ADD SWAP1 POP DUP2 DUP2 SUB PUSH1 0x0 DUP4 ADD MSTORE PUSH2 0x1CEF DUP2 PUSH2 0x1970 JUMP JUMPDEST SWAP1 POP SWAP2 SWAP1 POP JUMP JUMPDEST PUSH1 0x0 PUSH1 0x20 DUP3 ADD SWAP1 POP DUP2 DUP2 SUB PUSH1 0x0 DUP4 ADD MSTORE PUSH2 0x1D0F DUP2 PUSH2 0x1993 JUMP JUMPDEST SWAP1 POP SWAP2 SWAP1 POP JUMP JUMPDEST PUSH1 0x0 PUSH1 0x20 DUP3 ADD SWAP1 POP DUP2 DUP2 SUB PUSH1 0x0 DUP4 ADD MSTORE PUSH2 0x1D2F DUP2 PUSH2 0x19B6 JUMP JUMPDEST SWAP1 POP SWAP2 SWAP1 POP JUMP JUMPDEST PUSH1 0x0 PUSH1 0x20 DUP3 ADD SWAP1 POP DUP2 DUP2 SUB PUSH1 0x0 DUP4 ADD MSTORE PUSH2 0x1D4F DUP2 PUSH2 0x19D9 JUMP JUMPDEST SWAP1 POP SWAP2 SWAP1 POP JUMP JUMPDEST PUSH1 0x0 PUSH1 0x20 DUP3 ADD SWAP1 POP DUP2 DUP2 SUB PUSH1 0x0 DUP4 ADD MSTORE PUSH2 0x1D6F DUP2 PUSH2 0x19FC JUMP JUMPDEST SWAP1 POP SWAP2 SWAP1 POP JUMP JUMPDEST PUSH1 0x0 PUSH1 0x20 DUP3 ADD SWAP1 POP DUP2 DUP2 SUB PUSH1 0x0 DUP4 ADD MSTORE PUSH2 0x1D8F DUP2 PUSH2 0x1A1F JUMP JUMPDEST SWAP1 POP SWAP2 SWAP1 POP JUMP JUMPDEST PUSH1 0x0 PUSH1 0x20 DUP3 ADD SWAP1 POP DUP2 DUP2 SUB PUSH1 0x0 DUP4 ADD MSTORE PUSH2 0x1DAF DUP2 PUSH2 0x1A42 JUMP JUMPDEST SWAP1 POP SWAP2 SWAP1 POP JUMP JUMPDEST PUSH1 0x0 PUSH1 0x20 DUP3 ADD SWAP1 POP DUP2 DUP2 SUB PUSH1 0x0 DUP4 ADD MSTORE PUSH2 0x1DCF DUP2 PUSH2 0x1A65 JUMP JUMPDEST SWAP1 POP SWAP2 SWAP1 POP JUMP JUMPDEST PUSH1 0x0 PUSH1 0x20 DUP3 ADD SWAP1 POP DUP2 DUP2 SUB PUSH1 0x0 DUP4 ADD MSTORE PUSH2 0x1DEF DUP2 PUSH2 0x1A88 JUMP JUMPDEST SWAP1 POP SWAP2 SWAP1 POP JUMP JUMPDEST PUSH1 0x0 PUSH1 0x20 DUP3 ADD SWAP1 POP DUP2 DUP2 SUB PUSH1 0x0 DUP4 ADD MSTORE PUSH2 0x1E0F DUP2 PUSH2 0x1AAB JUMP JUMPDEST SWAP1 POP SWAP2 SWAP1 POP JUMP JUMPDEST PUSH1 0x0 PUSH1 0x20 DUP3 ADD SWAP1 POP DUP2 DUP2 SUB PUSH1 0x0 DUP4 ADD MSTORE PUSH2 0x1E2F DUP2 PUSH2 0x1ACE JUMP JUMPDEST SWAP1 POP SWAP2 SWAP1 POP JUMP JUMPDEST PUSH1 0x0 PUSH1 0x20 DUP3 ADD SWAP1 POP DUP2 DUP2 SUB PUSH1 0x0 DUP4 ADD MSTORE PUSH2 0x1E4F DUP2 PUSH2 0x1AF1 JUMP JUMPDEST SWAP1 POP SWAP2 SWAP1 POP JUMP JUMPDEST PUSH1 0x0 PUSH1 0x20 DUP3 ADD SWAP1 POP DUP2 DUP2 SUB PUSH1 0x0 DUP4 ADD MSTORE PUSH2 0x1E6F DUP2 PUSH2 0x1B14 JUMP JUMPDEST SWAP1 POP SWAP2 SWAP1 POP JUMP JUMPDEST PUSH1 0x0 PUSH1 0x80 DUP3 ADD SWAP1 POP PUSH2 0x1E8B PUSH1 0x0 DUP4 ADD DUP5 PUSH2 0x1B37 JUMP JUMPDEST SWAP3 SWAP2 POP POP JUMP JUMPDEST PUSH1 0x0 PUSH1 0x20 DUP3 ADD SWAP1 POP PUSH2 0x1EA6 PUSH1 0x0 DUP4 ADD DUP5 PUSH2 0x1B9B JUMP JUMPDEST SWAP3 SWAP2 POP POP JUMP JUMPDEST PUSH1 0x0 DUP1 DUP4 CALLDATALOAD PUSH1 0x1 PUSH1 0x20 SUB DUP5 CALLDATASIZE SUB SUB DUP2 SLT PUSH2 0x1EC9 JUMPI PUSH2 0x1EC8 PUSH2 0x2107 JUMP JUMPDEST JUMPDEST DUP1 DUP5 ADD SWAP3 POP DUP3 CALLDATALOAD SWAP2 POP PUSH8 0xFFFFFFFFFFFFFFFF DUP3 GT ISZERO PUSH2 0x1EEB JUMPI PUSH2 0x1EEA PUSH2 0x20FD JUMP JUMPDEST JUMPDEST PUSH1 0x20 DUP4 ADD SWAP3 POP PUSH1 0x1 DUP3 MUL CALLDATASIZE SUB DUP4 SGT ISZERO PUSH2 0x1F07 JUMPI PUSH2 0x1F06 PUSH2 0x2111 JUMP JUMPDEST JUMPDEST POP SWAP3 POP SWAP3 SWAP1 POP JUMP JUMPDEST PUSH1 0x0 DUP3 CALLDATALOAD PUSH1 0x1 PUSH1 0xE0 SUB DUP4 CALLDATASIZE SUB SUB DUP2 SLT PUSH2 0x1F2B JUMPI PUSH2 0x1F2A PUSH2 0x2107 JUMP JUMPDEST JUMPDEST DUP1 DUP4 ADD SWAP2 POP POP SWAP3 SWAP2 POP POP JUMP JUMPDEST PUSH1 0x0 DUP3 CALLDATALOAD PUSH1 0x1 PUSH2 0x100 SUB DUP4 CALLDATASIZE SUB SUB DUP2 SLT PUSH2 0x1F54 JUMPI PUSH2 0x1F53 PUSH2 0x2107 JUMP JUMPDEST JUMPDEST DUP1 DUP4 ADD SWAP2 POP POP SWAP3 SWAP2 POP POP JUMP JUMPDEST PUSH1 0x0 DUP2 MLOAD SWAP1 POP SWAP2 SWAP1 POP JUMP JUMPDEST PUSH1 0x0 DUP2 MLOAD SWAP1 POP SWAP2 SWAP1 POP JUMP JUMPDEST PUSH1 0x0 DUP3 DUP3 MSTORE PUSH1 0x20 DUP3 ADD SWAP1 POP SWAP3 SWAP2 POP POP JUMP JUMPDEST PUSH1 0x0 DUP2 SWAP1 POP SWAP3 SWAP2 POP POP JUMP JUMPDEST PUSH1 0x0 DUP3 DUP3 MSTORE PUSH1 0x20 DUP3 ADD SWAP1 POP SWAP3 SWAP2 POP POP JUMP JUMPDEST PUSH1 0x0 PUSH2 0x1FAE DUP3 PUSH2 0x2087 JUMP JUMPDEST SWAP2 POP PUSH2 0x1FB9 DUP4 PUSH2 0x2087 JUMP JUMPDEST SWAP3 POP DUP3 PUSH32 0xFFFFFFFFFFFFFFFFFFFFFFFFFFFFFFFFFFFFFFFFFFFFFFFFFFFFFFFFFFFFFFFF SUB DUP3 GT ISZERO PUSH2 0x1FEE JUMPI PUSH2 0x1FED PUSH2 0x20C4 JUMP JUMPDEST JUMPDEST DUP3 DUP3 ADD SWAP1 POP SWAP3 SWAP2 POP POP JUMP JUMPDEST PUSH1 0x0 PUSH2 0x2004 DUP3 PUSH2 0x2067 JUMP JUMPDEST SWAP1 POP SWAP2 SWAP1 POP JUMP JUMPDEST PUSH1 0x0 PUSH2 0x2016 DUP3 PUSH2 0x2067 JUMP JUMPDEST SWAP1 POP SWAP2 SWAP1 POP JUMP JUMPDEST PUSH1 0x0 DUP2 ISZERO ISZERO SWAP1 POP SWAP2 SWAP1 POP JUMP JUMPDEST PUSH1 0x0 PUSH32 0xFFFFFFFF00000000000000000000000000000000000000000000000000000000 DUP3 AND SWAP1 POP SWAP2 SWAP1 POP JUMP JUMPDEST PUSH1 0x0 PUSH2 0x2060 DUP3 PUSH2 0x1FF9 JUMP JUMPDEST SWAP1 POP SWAP2 SWAP1 POP JUMP JUMPDEST PUSH1 0x0 PUSH20 0xFFFFFFFFFFFFFFFFFFFFFFFFFFFFFFFFFFFFFFFF DUP3 AND SWAP1 POP SWAP2 SWAP1 POP JUMP JUMPDEST PUSH1 0x0 DUP2 SWAP1 POP SWAP2 SWAP1 POP JUMP JUMPDEST PUSH1 0x0 JUMPDEST DUP4 DUP2 LT ISZERO PUSH2 0x20AF JUMPI DUP1 DUP3 ADD MLOAD DUP2 DUP5 ADD MSTORE PUSH1 0x20 DUP2 ADD SWAP1 POP PUSH2 0x2094 JUMP JUMPDEST DUP4 DUP2 GT ISZERO PUSH2 0x20BE JUMPI PUSH1 0x0 DUP5 DUP5 ADD MSTORE JUMPDEST POP POP POP POP JUMP JUMPDEST PUSH32 0x4E487B7100000000000000000000000000000000000000000000000000000000 PUSH1 0x0 MSTORE PUSH1 0x11 PUSH1 0x4 MSTORE PUSH1 0x24 PUSH1 0x0 REVERT JUMPDEST PUSH1 0x0 DUP1 REVERT JUMPDEST PUSH1 0x0 DUP1 REVERT JUMPDEST PUSH1 0x0 DUP1 REVERT JUMPDEST PUSH1 0x0 DUP1 REVERT JUMPDEST PUSH1 0x0 DUP1 REVERT JUMPDEST PUSH1 0x0 DUP1 REVERT JUMPDEST PUSH1 0x0 DUP1 REVERT JUMPDEST PUSH1 0x0 DUP1 REVERT JUMPDEST PUSH1 0x0 DUP1 REVERT JUMPDEST PUSH1 0x0 PUSH1 0x1F NOT PUSH1 0x1F DUP4 ADD AND SWAP1 POP SWAP2 SWAP1 POP JUMP JUMPDEST PUSH32 0x77726F6E67207461726765740000000000000000000000000000000000000000 PUSH1 0x0 DUP3 ADD MSTORE POP JUMP JUMPDEST PUSH32 0x73686F756C642068617665206E6F207061796D61737465724461746100000000 PUSH1 0x0 DUP3 ADD MSTORE POP JUMP JUMPDEST PUSH32 0x696E76616C696420666F7277617264657220666F7220726563697069656E7400 PUSH1 0x0 DUP3 ADD MSTORE POP JUMP JUMPDEST PUSH32 0x4F776E61626C653A206E6577206F776E657220697320746865207A65726F2061 PUSH1 0x0 DUP3 ADD MSTORE PUSH32 0x6464726573730000000000000000000000000000000000000000000000000000 PUSH1 0x20 DUP3 ADD MSTORE POP JUMP JUMPDEST PUSH32 0x697354727573746564466F727761726465723A20726576657274656400000000 PUSH1 0x0 DUP3 ADD MSTORE POP JUMP JUMPDEST PUSH32 0x72656C6179206875622061646472657373206E6F742073657400000000000000 PUSH1 0x0 DUP3 ADD MSTORE POP JUMP JUMPDEST PUSH32 0x466F72776172646572206973206E6F7420747275737465640000000000000000 PUSH1 0x0 DUP3 ADD MSTORE POP JUMP JUMPDEST PUSH32 0x746172676574206973206E6F7420612076616C69642049466F72776172646572 PUSH1 0x0 DUP3 ADD MSTORE POP JUMP JUMPDEST PUSH32 0x697354727573746564466F727761726465723A2062616420726573706F6E7365 PUSH1 0x0 DUP3 ADD MSTORE POP JUMP JUMPDEST PUSH32 0x4F776E61626C653A2063616C6C6572206973206E6F7420746865206F776E6572 PUSH1 0x0 DUP3 ADD MSTORE POP JUMP JUMPDEST PUSH32 0x746172676574206973206E6F7420612076616C6964204952656C617948756200 PUSH1 0x0 DUP3 ADD MSTORE POP JUMP JUMPDEST PUSH32 0x63616E206F6E6C792062652063616C6C65642062792052656C61794875620000 PUSH1 0x0 DUP3 ADD MSTORE POP JUMP JUMPDEST PUSH32 0x76616C7565207472616E73666572206E6F7420737570706F7274656400000000 PUSH1 0x0 DUP3 ADD MSTORE POP JUMP JUMPDEST PUSH32 0x73686F756C642068617665206E6F20617070726F76616C446174610000000000 PUSH1 0x0 DUP3 ADD MSTORE POP JUMP JUMPDEST PUSH2 0x239E DUP2 PUSH2 0x1FF9 JUMP JUMPDEST DUP2 EQ PUSH2 0x23A9 JUMPI PUSH1 0x0 DUP1 REVERT JUMPDEST POP JUMP JUMPDEST PUSH2 0x23B5 DUP2 PUSH2 0x200B JUMP JUMPDEST DUP2 EQ PUSH2 0x23C0 JUMPI PUSH1 0x0 DUP1 REVERT JUMPDEST POP JUMP JUMPDEST PUSH2 0x23CC DUP2 PUSH2 0x201D JUMP JUMPDEST DUP2 EQ PUSH2 0x23D7 JUMPI PUSH1 0x0 DUP1 REVERT JUMPDEST POP JUMP JUMPDEST PUSH2 0x23E3 DUP2 PUSH2 0x2029 JUMP JUMPDEST DUP2 EQ PUSH2 0x23EE JUMPI PUSH1 0x0 DUP1 REVERT JUMPDEST POP JUMP JUMPDEST PUSH2 0x23FA DUP2 PUSH2 0x2055 JUMP JUMPDEST DUP2 EQ PUSH2 0x2405 JUMPI PUSH1 0x0 DUP1 REVERT JUMPDEST POP JUMP JUMPDEST PUSH2 0x2411 DUP2 PUSH2 0x2087 JUMP JUMPDEST DUP2 EQ PUSH2 0x241C JUMPI PUSH1 0x0 DUP1 REVERT JUMPDEST POP JUMP INVALID CALLER 0x2E ADDRESS 0x2E ADDRESS 0x2D PUSH3 0x657461 0x2E CALLER 0x2B PUSH16 0x70656E67736E2E616363657074657665 PUSH19 0x797468696E672E697061796D6173746572A264 PUSH10 0x7066735822122021992C DUP5 0x2D LT 0xB6 0xCB EXTCODEHASH 0xE1 TIMESTAMP 0xA7 0xCE MLOAD 0xE6 0xEB 0xE6 PUSH16 0x472222CB4E4C035D07629C1B040F6473 PUSH16 0x6C634300080700330000000000000000 "
				},
				"gasEstimates": {
					"creation": {
						"codeDepositCost": "1869800",
						"executionCost": "infinite",
						"totalCost": "infinite"
					},
					"external": {
						"CALLDATA_SIZE_LIMIT()": "441",
						"FORWARDER_HUB_OVERHEAD()": "418",
						"PAYMASTER_ACCEPTANCE_BUDGET()": "infinite",
						"POST_RELAYED_CALL_GAS_LIMIT()": "440",
						"PRE_RELAYED_CALL_GAS_LIMIT()": "461",
						"getBalance()": "infinite",
						"getGasAndDataLimits()": "infinite",
						"getRelayHub()": "2633",
						"getTrustedForwarder()": "2544",
						"owner()": "2545",
						"postRelayedCall(bytes,bool,uint256,(uint256,uint256,uint256,address,address,address,bytes,uint256))": "3512",
						"preRelayedCall(((address,address,uint256,uint256,uint256,bytes,uint256),(uint256,uint256,uint256,address,address,address,bytes,uint256)),bytes,bytes,uint256)": "infinite",
						"renounceOwnership()": "30421",
						"setRelayHub(address)": "infinite",
						"setTarget(address)": "infinite",
						"setTrustedForwarder(address)": "infinite",
						"supportsInterface(bytes4)": "819",
						"target()": "2558",
						"transferOwnership(address)": "30857",
						"versionPaymaster()": "infinite",
						"withdrawRelayHubDepositTo(uint256,address)": "infinite"
					},
					"internal": {
						"_postRelayedCall(bytes calldata,bool,uint256,struct GsnTypes.RelayData calldata)": "19",
						"_preRelayedCall(struct GsnTypes.RelayRequest calldata,bytes calldata,bytes calldata,uint256)": "infinite"
					}
				},
				"methodIdentifiers": {
					"CALLDATA_SIZE_LIMIT()": "5c5e3db1",
					"FORWARDER_HUB_OVERHEAD()": "b90b41cf",
					"PAYMASTER_ACCEPTANCE_BUDGET()": "df463a66",
					"POST_RELAYED_CALL_GAS_LIMIT()": "bbdaa3c9",
					"PRE_RELAYED_CALL_GAS_LIMIT()": "f9c002f7",
					"getBalance()": "12065fe0",
					"getGasAndDataLimits()": "b039a88f",
					"getRelayHub()": "7bdf2ec7",
					"getTrustedForwarder()": "ce1b815f",
					"owner()": "8da5cb5b",
					"postRelayedCall(bytes,bool,uint256,(uint256,uint256,uint256,address,address,address,bytes,uint256))": "76fa01c3",
					"preRelayedCall(((address,address,uint256,uint256,uint256,bytes,uint256),(uint256,uint256,uint256,address,address,address,bytes,uint256)),bytes,bytes,uint256)": "00be5dd4",
					"renounceOwnership()": "715018a6",
					"setRelayHub(address)": "7bb05264",
					"setTarget(address)": "776d1a01",
					"setTrustedForwarder(address)": "da742228",
					"supportsInterface(bytes4)": "01ffc9a7",
					"target()": "d4b83992",
					"transferOwnership(address)": "f2fde38b",
					"versionPaymaster()": "921276ea",
					"withdrawRelayHubDepositTo(uint256,address)": "2d14c4b7"
				}
			},
			"storageLayout": {
				"storage": [
					{
						"astId": 1863,
						"contract": "testSinglePaymaster.sol:TestSinglePaymaster",
						"label": "_owner",
						"offset": 0,
						"slot": "0",
						"type": "t_address"
					},
					{
						"astId": 23,
						"contract": "testSinglePaymaster.sol:TestSinglePaymaster",
						"label": "relayHub",
						"offset": 0,
						"slot": "1",
						"type": "t_contract(IRelayHub)955"
					},
					{
						"astId": 25,
						"contract": "testSinglePaymaster.sol:TestSinglePaymaster",
						"label": "_trustedForwarder",
						"offset": 0,
						"slot": "2",
						"type": "t_address"
					},
					{
						"astId": 2310,
						"contract": "testSinglePaymaster.sol:TestSinglePaymaster",
						"label": "balance",
						"offset": 0,
						"slot": "3",
						"type": "t_uint256"
					},
					{
						"astId": 2312,
						"contract": "testSinglePaymaster.sol:TestSinglePaymaster",
						"label": "target",
						"offset": 0,
						"slot": "4",
						"type": "t_address"
					}
				],
				"types": {
					"t_address": {
						"encoding": "inplace",
						"label": "address",
						"numberOfBytes": "20"
					},
					"t_contract(IRelayHub)955": {
						"encoding": "inplace",
						"label": "contract IRelayHub",
						"numberOfBytes": "20"
					},
					"t_uint256": {
						"encoding": "inplace",
						"label": "uint256",
						"numberOfBytes": "32"
					}
				}
			},
			"userdoc": {
				"kind": "user",
				"methods": {
					"getGasAndDataLimits()": {
						"notice": "Return the Gas Limits for Paymaster's functions and maximum msg.data length values for this Paymaster. This function allows different paymasters to have different properties without changes to the RelayHub."
					},
					"getTrustedForwarder()": {
						"notice": ":warning: **Warning** :warning: using incorrect Forwarder may cause the Paymaster to agreeing to pay for invalid transactions."
					},
					"postRelayedCall(bytes,bool,uint256,(uint256,uint256,uint256,address,address,address,bytes,uint256))": {
						"notice": "This method is called after the actual relayed function call. It may be used to record the transaction (e.g. charge the caller by some contract logic) for this call. Revert in this functions causes a revert of the client's relayed call (and preRelayedCall(), but the Paymaster is still committed to pay the relay for the entire transaction."
					},
					"preRelayedCall(((address,address,uint256,uint256,uint256,bytes,uint256),(uint256,uint256,uint256,address,address,address,bytes,uint256)),bytes,bytes,uint256)": {
						"notice": "Called by the Relay in view mode and later by the `RelayHub` on-chain to validate that the Paymaster agrees to pay for this call. The request is considered to be rejected by the Paymaster in one of the following conditions:  - `preRelayedCall()` method reverts  - the `Forwarder` reverts because of nonce or signature error  - the `Paymaster` returned `rejectOnRecipientRevert: true` and the recipient contract reverted    (and all that did not consume more than `acceptanceBudget` gas). In any of the above cases, all Paymaster calls and the recipient call are reverted. In any other case the Paymaster will pay for the gas cost of the transaction. Note that even if `postRelayedCall` is reverted the Paymaster will be charged."
					},
					"setRelayHub(address)": {
						"notice": "The owner of the Paymaster can change the instance of the RelayHub this Paymaster works with. :warning: **Warning** :warning: The deposit on the previous RelayHub must be withdrawn first."
					},
					"setTrustedForwarder(address)": {
						"notice": "The owner of the Paymaster can change the instance of the Forwarder this Paymaster works with.the Recipients must trust this Forwarder as well in order for the configuration to remain functional."
					},
					"withdrawRelayHubDepositTo(uint256,address)": {
						"notice": "Withdraw deposit from the RelayHub."
					}
				},
				"version": 1
			}
		}
	}
}