{
	"testPaymaster.sol": {
		"TestPaymaster": {
			"abi": [
				{
					"anonymous": false,
					"inputs": [
						{
							"indexed": true,
							"internalType": "address",
							"name": "previousOwner",
							"type": "address"
						},
						{
							"indexed": true,
							"internalType": "address",
							"name": "newOwner",
							"type": "address"
						}
					],
					"name": "OwnershipTransferred",
					"type": "event"
				},
				{
					"inputs": [],
					"name": "CALLDATA_SIZE_LIMIT",
					"outputs": [
						{
							"internalType": "uint256",
							"name": "",
							"type": "uint256"
						}
					],
					"stateMutability": "view",
					"type": "function"
				},
				{
					"inputs": [],
					"name": "FORWARDER_HUB_OVERHEAD",
					"outputs": [
						{
							"internalType": "uint256",
							"name": "",
							"type": "uint256"
						}
					],
					"stateMutability": "view",
					"type": "function"
				},
				{
					"inputs": [],
					"name": "PAYMASTER_ACCEPTANCE_BUDGET",
					"outputs": [
						{
							"internalType": "uint256",
							"name": "",
							"type": "uint256"
						}
					],
					"stateMutability": "view",
					"type": "function"
				},
				{
					"inputs": [],
					"name": "POST_RELAYED_CALL_GAS_LIMIT",
					"outputs": [
						{
							"internalType": "uint256",
							"name": "",
							"type": "uint256"
						}
					],
					"stateMutability": "view",
					"type": "function"
				},
				{
					"inputs": [],
					"name": "PRE_RELAYED_CALL_GAS_LIMIT",
					"outputs": [
						{
							"internalType": "uint256",
							"name": "",
							"type": "uint256"
						}
					],
					"stateMutability": "view",
					"type": "function"
				},
				{
					"inputs": [],
					"name": "getBalanec",
					"outputs": [
						{
							"internalType": "uint256",
							"name": "",
							"type": "uint256"
						}
					],
					"stateMutability": "view",
					"type": "function"
				},
				{
					"inputs": [],
					"name": "getGasAndDataLimits",
					"outputs": [
						{
							"components": [
								{
									"internalType": "uint256",
									"name": "acceptanceBudget",
									"type": "uint256"
								},
								{
									"internalType": "uint256",
									"name": "preRelayedCallGasLimit",
									"type": "uint256"
								},
								{
									"internalType": "uint256",
									"name": "postRelayedCallGasLimit",
									"type": "uint256"
								},
								{
									"internalType": "uint256",
									"name": "calldataSizeLimit",
									"type": "uint256"
								}
							],
							"internalType": "struct IPaymaster.GasAndDataLimits",
							"name": "limits",
							"type": "tuple"
						}
					],
					"stateMutability": "view",
					"type": "function"
				},
				{
					"inputs": [],
					"name": "getRelayHub",
					"outputs": [
						{
							"internalType": "address",
							"name": "",
							"type": "address"
						}
					],
					"stateMutability": "view",
					"type": "function"
				},
				{
					"inputs": [],
					"name": "getTrustedForwarder",
					"outputs": [
						{
							"internalType": "address",
							"name": "",
							"type": "address"
						}
					],
					"stateMutability": "view",
					"type": "function"
				},
				{
					"inputs": [],
					"name": "owner",
					"outputs": [
						{
							"internalType": "address",
							"name": "",
							"type": "address"
						}
					],
					"stateMutability": "view",
					"type": "function"
				},
				{
					"inputs": [
						{
							"internalType": "bytes",
							"name": "context",
							"type": "bytes"
						},
						{
							"internalType": "bool",
							"name": "success",
							"type": "bool"
						},
						{
							"internalType": "uint256",
							"name": "gasUseWithoutPost",
							"type": "uint256"
						},
						{
							"components": [
								{
									"internalType": "uint256",
									"name": "maxFeePerGas",
									"type": "uint256"
								},
								{
									"internalType": "uint256",
									"name": "maxPriorityFeePerGas",
									"type": "uint256"
								},
								{
									"internalType": "uint256",
									"name": "transactionCalldataGasUsed",
									"type": "uint256"
								},
								{
									"internalType": "address",
									"name": "relayWorker",
									"type": "address"
								},
								{
									"internalType": "address",
									"name": "paymaster",
									"type": "address"
								},
								{
									"internalType": "address",
									"name": "forwarder",
									"type": "address"
								},
								{
									"internalType": "bytes",
									"name": "paymasterData",
									"type": "bytes"
								},
								{
									"internalType": "uint256",
									"name": "clientId",
									"type": "uint256"
								}
							],
							"internalType": "struct GsnTypes.RelayData",
							"name": "relayData",
							"type": "tuple"
						}
					],
					"name": "postRelayedCall",
					"outputs": [],
					"stateMutability": "nonpayable",
					"type": "function"
				},
				{
					"inputs": [
						{
							"components": [
								{
									"components": [
										{
											"internalType": "address",
											"name": "from",
											"type": "address"
										},
										{
											"internalType": "address",
											"name": "to",
											"type": "address"
										},
										{
											"internalType": "uint256",
											"name": "value",
											"type": "uint256"
										},
										{
											"internalType": "uint256",
											"name": "gas",
											"type": "uint256"
										},
										{
											"internalType": "uint256",
											"name": "nonce",
											"type": "uint256"
										},
										{
											"internalType": "bytes",
											"name": "data",
											"type": "bytes"
										},
										{
											"internalType": "uint256",
											"name": "validUntilTime",
											"type": "uint256"
										}
									],
									"internalType": "struct IForwarder.ForwardRequest",
									"name": "request",
									"type": "tuple"
								},
								{
									"components": [
										{
											"internalType": "uint256",
											"name": "maxFeePerGas",
											"type": "uint256"
										},
										{
											"internalType": "uint256",
											"name": "maxPriorityFeePerGas",
											"type": "uint256"
										},
										{
											"internalType": "uint256",
											"name": "transactionCalldataGasUsed",
											"type": "uint256"
										},
										{
											"internalType": "address",
											"name": "relayWorker",
											"type": "address"
										},
										{
											"internalType": "address",
											"name": "paymaster",
											"type": "address"
										},
										{
											"internalType": "address",
											"name": "forwarder",
											"type": "address"
										},
										{
											"internalType": "bytes",
											"name": "paymasterData",
											"type": "bytes"
										},
										{
											"internalType": "uint256",
											"name": "clientId",
											"type": "uint256"
										}
									],
									"internalType": "struct GsnTypes.RelayData",
									"name": "relayData",
									"type": "tuple"
								}
							],
							"internalType": "struct GsnTypes.RelayRequest",
							"name": "relayRequest",
							"type": "tuple"
						},
						{
							"internalType": "bytes",
							"name": "signature",
							"type": "bytes"
						},
						{
							"internalType": "bytes",
							"name": "approvalData",
							"type": "bytes"
						},
						{
							"internalType": "uint256",
							"name": "maxPossibleGas",
							"type": "uint256"
						}
					],
					"name": "preRelayedCall",
					"outputs": [
						{
							"internalType": "bytes",
							"name": "",
							"type": "bytes"
						},
						{
							"internalType": "bool",
							"name": "",
							"type": "bool"
						}
					],
					"stateMutability": "nonpayable",
					"type": "function"
				},
				{
					"inputs": [],
					"name": "renounceOwnership",
					"outputs": [],
					"stateMutability": "nonpayable",
					"type": "function"
				},
				{
					"inputs": [
						{
							"internalType": "contract IRelayHub",
							"name": "hub",
							"type": "address"
						}
					],
					"name": "setRelayHub",
					"outputs": [],
					"stateMutability": "nonpayable",
					"type": "function"
				},
				{
					"inputs": [
						{
							"internalType": "address",
							"name": "forwarder",
							"type": "address"
						}
					],
					"name": "setTrustedForwarder",
					"outputs": [],
					"stateMutability": "nonpayable",
					"type": "function"
				},
				{
					"inputs": [
						{
							"internalType": "bytes4",
							"name": "interfaceId",
							"type": "bytes4"
						}
					],
					"name": "supportsInterface",
					"outputs": [
						{
							"internalType": "bool",
							"name": "",
							"type": "bool"
						}
					],
					"stateMutability": "view",
					"type": "function"
				},
				{
					"inputs": [
						{
							"internalType": "address",
							"name": "newOwner",
							"type": "address"
						}
					],
					"name": "transferOwnership",
					"outputs": [],
					"stateMutability": "nonpayable",
					"type": "function"
				},
				{
					"inputs": [],
					"name": "versionPaymaster",
					"outputs": [
						{
							"internalType": "string",
							"name": "",
							"type": "string"
						}
					],
					"stateMutability": "view",
					"type": "function"
				},
				{
					"inputs": [
						{
							"internalType": "uint256",
							"name": "amount",
							"type": "uint256"
						},
						{
							"internalType": "address payable",
							"name": "target",
							"type": "address"
						}
					],
					"name": "withdrawRelayHubDepositTo",
					"outputs": [],
					"stateMutability": "nonpayable",
					"type": "function"
				},
				{
					"stateMutability": "payable",
					"type": "receive"
				}
			],
			"devdoc": {
				"kind": "dev",
				"methods": {
					"getGasAndDataLimits()": {
						"returns": {
							"limits": "An instance of the `GasAndDataLimits` struct ##### `acceptanceBudget` If the transactions consumes more than `acceptanceBudget` this Paymaster will be charged for gas no matter what. Transaction that gets rejected after consuming more than `acceptanceBudget` gas is on this Paymaster's expense. Should be set to an amount gas this Paymaster expects to spend deciding whether to accept or reject a request. This includes gas consumed by calculations in the `preRelayedCall`, `Forwarder` and the recipient contract. :warning: **Warning** :warning: As long this value is above `preRelayedCallGasLimit` (see defaults in `BasePaymaster`), the Paymaster is guaranteed it will never pay for rejected transactions. If this value is below `preRelayedCallGasLimit`, it might might make Paymaster open to a \"griefing\" attack. The relayers should prefer lower `acceptanceBudget`, as it improves their chances of being compensated. From a Relay's point of view, this is the highest gas value a bad Paymaster may cost the relay, since the paymaster will pay anything above that value regardless of whether the transaction succeeds or reverts. Specifying value too high might make the call rejected by relayers (see `maxAcceptanceBudget` in server config). ##### `preRelayedCallGasLimit` The max gas usage of preRelayedCall. Any revert of the `preRelayedCall` is a request rejection by the paymaster. As long as `acceptanceBudget` is above `preRelayedCallGasLimit`, any such revert is not payed by the paymaster. ##### `postRelayedCallGasLimit` The max gas usage of postRelayedCall. The Paymaster is not charged for the maximum, only for actually used gas. Note that an OOG will revert the inner transaction, but the paymaster will be charged for it anyway."
						}
					},
					"getRelayHub()": {
						"returns": {
							"_0": "The address of the `RelayHub` that is trusted by this Paymaster to execute the requests."
						}
					},
					"getTrustedForwarder()": {
						"returns": {
							"_0": "The address of the `Forwarder` that is trusted by this Paymaster to execute the requests."
						}
					},
					"owner()": {
						"details": "Returns the address of the current owner."
					},
					"postRelayedCall(bytes,bool,uint256,(uint256,uint256,uint256,address,address,address,bytes,uint256))": {
						"params": {
							"context": "The call context, as returned by the preRelayedCall",
							"gasUseWithoutPost": "The actual amount of gas used by the entire transaction, EXCEPT        the gas used by the postRelayedCall itself.",
							"relayData": "The relay params of the request. can be used by relayHub.calculateCharge()",
							"success": "`true` if the relayed call succeeded, false if it reverted"
						}
					},
					"preRelayedCall(((address,address,uint256,uint256,uint256,bytes,uint256),(uint256,uint256,uint256,address,address,address,bytes,uint256)),bytes,bytes,uint256)": {
						"params": {
							"approvalData": "- extra dapp-specific data (e.g. signature from trusted party)",
							"maxPossibleGas": "- based on values returned from `getGasAndDataLimits` the RelayHub will calculate the maximum possible amount of gas the user may be charged for. In order to convert this value to wei, the Paymaster has to call \"relayHub.calculateCharge()\"",
							"relayRequest": "- the full relay request structure",
							"signature": "- user's EIP712-compatible signature of the `relayRequest`. Note that in most cases the paymaster shouldn't try use it at all. It is always checked by the forwarder immediately after preRelayedCall returns."
						},
						"returns": {
							"_0": "A byte array to be passed to postRelayedCall. Can contain any data needed by this Paymaster in any form or be empty if no extra data is needed.",
							"_1": "The flag that allows a Paymaster to \"delegate\" the rejection to the recipient code. It also means the Paymaster trust the recipient to reject fast: both preRelayedCall, forwarder check and recipient checks must fit into the GasLimits.acceptanceBudget, otherwise the TX is paid by the Paymaster. `true` if the Paymaster wants to reject the TX if the recipient reverts. `false` if the Paymaster wants rejects by the recipient to be completed on chain and paid by the Paymaster."
						}
					},
					"renounceOwnership()": {
						"details": "Leaves the contract without owner. It will not be possible to call `onlyOwner` functions. Can only be called by the current owner. NOTE: Renouncing ownership will leave the contract without an owner, thereby disabling any functionality that is only available to the owner."
					},
					"supportsInterface(bytes4)": {
						"details": "Returns true if this contract implements the interface defined by `interfaceId`. See the corresponding https://eips.ethereum.org/EIPS/eip-165#how-interfaces-are-identified[EIP section] to learn more about how these ids are created. This function call must use less than 30 000 gas."
					},
					"transferOwnership(address)": {
						"details": "Transfers ownership of the contract to a new account (`newOwner`). Can only be called by the current owner."
					},
					"versionPaymaster()": {
						"returns": {
							"_0": "version The SemVer string of this Paymaster's version."
						}
					},
					"withdrawRelayHubDepositTo(uint256,address)": {
						"params": {
							"amount": "The amount to be subtracted from the sender.",
							"target": "The target to which the amount will be transferred."
						}
					}
				},
				"version": 1
			},
			"evm": {
				"assembly": "    /* \"testPaymaster.sol\":334:1495  contract TestPaymaster is BasePaymaster {\r... */\n  mstore(0x40, 0x80)\n    /* \"testPaymaster.sol\":399:400  0 */\n  0x00\n    /* \"testPaymaster.sol\":381:400  uint256 balance = 0 */\n  0x03\n  sstore\n    /* \"testPaymaster.sol\":334:1495  contract TestPaymaster is BasePaymaster {\r... */\n  callvalue\n  dup1\n  iszero\n  tag_1\n  jumpi\n  0x00\n  dup1\n  revert\ntag_1:\n  pop\n    /* \"@openzeppelin/contracts/access/Ownable.sol\":936:968  _transferOwnership(_msgSender()) */\n  tag_4\n    /* \"@openzeppelin/contracts/access/Ownable.sol\":955:967  _msgSender() */\n  tag_5\n    /* \"@openzeppelin/contracts/access/Ownable.sol\":955:965  _msgSender */\n  shl(0x20, tag_6)\n    /* \"@openzeppelin/contracts/access/Ownable.sol\":955:967  _msgSender() */\n  0x20\n  shr\n  jump\t// in\ntag_5:\n    /* \"@openzeppelin/contracts/access/Ownable.sol\":936:954  _transferOwnership */\n  shl(0x20, tag_7)\n    /* \"@openzeppelin/contracts/access/Ownable.sol\":936:968  _transferOwnership(_msgSender()) */\n  0x20\n  shr\n  jump\t// in\ntag_4:\n    /* \"testPaymaster.sol\":334:1495  contract TestPaymaster is BasePaymaster {\r... */\n  jump(tag_8)\n    /* \"@openzeppelin/contracts/utils/Context.sol\":640:736  function _msgSender() internal view virtual returns (address) {... */\ntag_6:\n    /* \"@openzeppelin/contracts/utils/Context.sol\":693:700  address */\n  0x00\n    /* \"@openzeppelin/contracts/utils/Context.sol\":719:729  msg.sender */\n  caller\n    /* \"@openzeppelin/contracts/utils/Context.sol\":712:729  return msg.sender */\n  swap1\n  pop\n    /* \"@openzeppelin/contracts/utils/Context.sol\":640:736  function _msgSender() internal view virtual returns (address) {... */\n  swap1\n  jump\t// out\n    /* \"@openzeppelin/contracts/access/Ownable.sol\":2426:2613  function _transferOwnership(address newOwner) internal virtual {... */\ntag_7:\n    /* \"@openzeppelin/contracts/access/Ownable.sol\":2499:2515  address oldOwner */\n  0x00\n    /* \"@openzeppelin/contracts/access/Ownable.sol\":2518:2524  _owner */\n  dup1\n  0x00\n  swap1\n  sload\n  swap1\n  0x0100\n  exp\n  swap1\n  div\n  0xffffffffffffffffffffffffffffffffffffffff\n  and\n    /* \"@openzeppelin/contracts/access/Ownable.sol\":2499:2524  address oldOwner = _owner */\n  swap1\n  pop\n    /* \"@openzeppelin/contracts/access/Ownable.sol\":2543:2551  newOwner */\n  dup2\n    /* \"@openzeppelin/contracts/access/Ownable.sol\":2534:2540  _owner */\n  0x00\n  dup1\n    /* \"@openzeppelin/contracts/access/Ownable.sol\":2534:2551  _owner = newOwner */\n  0x0100\n  exp\n  dup2\n  sload\n  dup2\n  0xffffffffffffffffffffffffffffffffffffffff\n  mul\n  not\n  and\n  swap1\n  dup4\n  0xffffffffffffffffffffffffffffffffffffffff\n  and\n  mul\n  or\n  swap1\n  sstore\n  pop\n    /* \"@openzeppelin/contracts/access/Ownable.sol\":2597:2605  newOwner */\n  dup2\n    /* \"@openzeppelin/contracts/access/Ownable.sol\":2566:2606  OwnershipTransferred(oldOwner, newOwner) */\n  0xffffffffffffffffffffffffffffffffffffffff\n  and\n    /* \"@openzeppelin/contracts/access/Ownable.sol\":2587:2595  oldOwner */\n  dup2\n    /* \"@openzeppelin/contracts/access/Ownable.sol\":2566:2606  OwnershipTransferred(oldOwner, newOwner) */\n  0xffffffffffffffffffffffffffffffffffffffff\n  and\n  0x8be0079c531659141344cd1fd0a4f28419497f9722a3daafe3b4186f6b6457e0\n  mload(0x40)\n  mload(0x40)\n  dup1\n  swap2\n  sub\n  swap1\n  log3\n    /* \"@openzeppelin/contracts/access/Ownable.sol\":2489:2613  {... */\n  pop\n    /* \"@openzeppelin/contracts/access/Ownable.sol\":2426:2613  function _transferOwnership(address newOwner) internal virtual {... */\n  pop\n  jump\t// out\n    /* \"testPaymaster.sol\":334:1495  contract TestPaymaster is BasePaymaster {\r... */\ntag_8:\n  dataSize(sub_0)\n  dup1\n  dataOffset(sub_0)\n  0x00\n  codecopy\n  0x00\n  return\nstop\n\nsub_0: assembly {\n        /* \"testPaymaster.sol\":334:1495  contract TestPaymaster is BasePaymaster {\r... */\n      mstore(0x40, 0x80)\n      jumpi(tag_1, lt(calldatasize, 0x04))\n      shr(0xe0, calldataload(0x00))\n      dup1\n      0x921276ea\n      gt\n      tag_22\n      jumpi\n      dup1\n      0xda742228\n      gt\n      tag_23\n      jumpi\n      dup1\n      0xda742228\n      eq\n      tag_17\n      jumpi\n      dup1\n      0xdf463a66\n      eq\n      tag_18\n      jumpi\n      dup1\n      0xea818772\n      eq\n      tag_19\n      jumpi\n      dup1\n      0xf2fde38b\n      eq\n      tag_20\n      jumpi\n      dup1\n      0xf9c002f7\n      eq\n      tag_21\n      jumpi\n      jump(tag_2)\n    tag_23:\n      dup1\n      0x921276ea\n      eq\n      tag_12\n      jumpi\n      dup1\n      0xb039a88f\n      eq\n      tag_13\n      jumpi\n      dup1\n      0xb90b41cf\n      eq\n      tag_14\n      jumpi\n      dup1\n      0xbbdaa3c9\n      eq\n      tag_15\n      jumpi\n      dup1\n      0xce1b815f\n      eq\n      tag_16\n      jumpi\n      jump(tag_2)\n    tag_22:\n      dup1\n      0x715018a6\n      gt\n      tag_24\n      jumpi\n      dup1\n      0x715018a6\n      eq\n      tag_7\n      jumpi\n      dup1\n      0x76fa01c3\n      eq\n      tag_8\n      jumpi\n      dup1\n      0x7bb05264\n      eq\n      tag_9\n      jumpi\n      dup1\n      0x7bdf2ec7\n      eq\n      tag_10\n      jumpi\n      dup1\n      0x8da5cb5b\n      eq\n      tag_11\n      jumpi\n      jump(tag_2)\n    tag_24:\n      dup1\n      0xbe5dd4\n      eq\n      tag_3\n      jumpi\n      dup1\n      0x01ffc9a7\n      eq\n      tag_4\n      jumpi\n      dup1\n      0x2d14c4b7\n      eq\n      tag_5\n      jumpi\n      dup1\n      0x5c5e3db1\n      eq\n      tag_6\n      jumpi\n      jump(tag_2)\n    tag_1:\n      jumpi(tag_2, calldatasize)\n        /* \"@opengsn/contracts/src/BasePaymaster.sol\":4662:4663  0 */\n      0x00\n        /* \"@opengsn/contracts/src/BasePaymaster.sol\":4633:4664  address(relayHub) != address(0) */\n      0xffffffffffffffffffffffffffffffffffffffff\n      and\n        /* \"@opengsn/contracts/src/BasePaymaster.sol\":4641:4649  relayHub */\n      0x01\n      0x00\n      swap1\n      sload\n      swap1\n      0x0100\n      exp\n      swap1\n      div\n      0xffffffffffffffffffffffffffffffffffffffff\n      and\n        /* \"@opengsn/contracts/src/BasePaymaster.sol\":4633:4664  address(relayHub) != address(0) */\n      0xffffffffffffffffffffffffffffffffffffffff\n      and\n      eq\n      iszero\n        /* \"@opengsn/contracts/src/BasePaymaster.sol\":4625:4694  require(address(relayHub) != address(0), \"relay hub address not set\") */\n      tag_27\n      jumpi\n      mload(0x40)\n      0x08c379a000000000000000000000000000000000000000000000000000000000\n      dup2\n      mstore\n      0x04\n      add\n      tag_28\n      swap1\n      tag_29\n      jump\t// in\n    tag_28:\n      mload(0x40)\n      dup1\n      swap2\n      sub\n      swap1\n      revert\n    tag_27:\n        /* \"@opengsn/contracts/src/BasePaymaster.sol\":4704:4712  relayHub */\n      0x01\n      0x00\n      swap1\n      sload\n      swap1\n      0x0100\n      exp\n      swap1\n      div\n      0xffffffffffffffffffffffffffffffffffffffff\n      and\n        /* \"@opengsn/contracts/src/BasePaymaster.sol\":4704:4723  relayHub.depositFor */\n      0xffffffffffffffffffffffffffffffffffffffff\n      and\n      0xaa67c919\n        /* \"@opengsn/contracts/src/BasePaymaster.sol\":4730:4739  msg.value */\n      callvalue\n        /* \"@opengsn/contracts/src/BasePaymaster.sol\":4749:4753  this */\n      address\n        /* \"@opengsn/contracts/src/BasePaymaster.sol\":4704:4755  relayHub.depositFor{value:msg.value}(address(this)) */\n      mload(0x40)\n      dup4\n      0xffffffff\n      and\n      0xe0\n      shl\n      dup2\n      mstore\n      0x04\n      add\n      tag_30\n      swap2\n      swap1\n      tag_31\n      jump\t// in\n    tag_30:\n      0x00\n      mload(0x40)\n      dup1\n      dup4\n      sub\n      dup2\n      dup6\n      dup9\n      dup1\n      extcodesize\n      iszero\n      dup1\n      iszero\n      tag_32\n      jumpi\n      0x00\n      dup1\n      revert\n    tag_32:\n      pop\n      gas\n      call\n      iszero\n      dup1\n      iszero\n      tag_34\n      jumpi\n      returndatasize\n      0x00\n      dup1\n      returndatacopy\n      revert(0x00, returndatasize)\n    tag_34:\n      pop\n      pop\n      pop\n      pop\n      pop\n        /* \"testPaymaster.sol\":334:1495  contract TestPaymaster is BasePaymaster {\r... */\n      stop\n    tag_2:\n      0x00\n      dup1\n      revert\n        /* \"@opengsn/contracts/src/BasePaymaster.sol\":5153:5686  function preRelayedCall(... */\n    tag_3:\n      callvalue\n      dup1\n      iszero\n      tag_35\n      jumpi\n      0x00\n      dup1\n      revert\n    tag_35:\n      pop\n      tag_36\n      0x04\n      dup1\n      calldatasize\n      sub\n      dup2\n      add\n      swap1\n      tag_37\n      swap2\n      swap1\n      tag_38\n      jump\t// in\n    tag_37:\n      tag_39\n      jump\t// in\n    tag_36:\n      mload(0x40)\n      tag_40\n      swap3\n      swap2\n      swap1\n      tag_41\n      jump\t// in\n    tag_40:\n      mload(0x40)\n      dup1\n      swap2\n      sub\n      swap1\n      return\n        /* \"@opengsn/contracts/src/BasePaymaster.sol\":1460:1743  function supportsInterface(bytes4 interfaceId) public view virtual override(IERC165, ERC165) returns (bool) {... */\n    tag_4:\n      callvalue\n      dup1\n      iszero\n      tag_42\n      jumpi\n      0x00\n      dup1\n      revert\n    tag_42:\n      pop\n      tag_43\n      0x04\n      dup1\n      calldatasize\n      sub\n      dup2\n      add\n      swap1\n      tag_44\n      swap2\n      swap1\n      tag_45\n      jump\t// in\n    tag_44:\n      tag_46\n      jump\t// in\n    tag_43:\n      mload(0x40)\n      tag_47\n      swap2\n      swap1\n      tag_48\n      jump\t// in\n    tag_47:\n      mload(0x40)\n      dup1\n      swap2\n      sub\n      swap1\n      return\n        /* \"@opengsn/contracts/src/BasePaymaster.sol\":4974:5116  function withdrawRelayHubDepositTo(uint256 amount, address payable target) public onlyOwner {... */\n    tag_5:\n      callvalue\n      dup1\n      iszero\n      tag_49\n      jumpi\n      0x00\n      dup1\n      revert\n    tag_49:\n      pop\n      tag_50\n      0x04\n      dup1\n      calldatasize\n      sub\n      dup2\n      add\n      swap1\n      tag_51\n      swap2\n      swap1\n      tag_52\n      jump\t// in\n    tag_51:\n      tag_53\n      jump\t// in\n    tag_50:\n      stop\n        /* \"@opengsn/contracts/src/BasePaymaster.sol\":1374:1425  uint256 constant public CALLDATA_SIZE_LIMIT = 10500 */\n    tag_6:\n      callvalue\n      dup1\n      iszero\n      tag_54\n      jumpi\n      0x00\n      dup1\n      revert\n    tag_54:\n      pop\n      tag_55\n      tag_56\n      jump\t// in\n    tag_55:\n      mload(0x40)\n      tag_57\n      swap2\n      swap1\n      tag_58\n      jump\t// in\n    tag_57:\n      mload(0x40)\n      dup1\n      swap2\n      sub\n      swap1\n      return\n        /* \"@openzeppelin/contracts/access/Ownable.sol\":1824:1925  function renounceOwnership() public virtual onlyOwner {... */\n    tag_7:\n      callvalue\n      dup1\n      iszero\n      tag_59\n      jumpi\n      0x00\n      dup1\n      revert\n    tag_59:\n      pop\n      tag_60\n      tag_61\n      jump\t// in\n    tag_60:\n      stop\n        /* \"@opengsn/contracts/src/BasePaymaster.sol\":6140:6449  function postRelayedCall(... */\n    tag_8:\n      callvalue\n      dup1\n      iszero\n      tag_62\n      jumpi\n      0x00\n      dup1\n      revert\n    tag_62:\n      pop\n      tag_63\n      0x04\n      dup1\n      calldatasize\n      sub\n      dup2\n      add\n      swap1\n      tag_64\n      swap2\n      swap1\n      tag_65\n      jump\t// in\n    tag_64:\n      tag_66\n      jump\t// in\n    tag_63:\n      stop\n        /* \"@opengsn/contracts/src/BasePaymaster.sol\":3550:3747  function setRelayHub(IRelayHub hub) public onlyOwner {... */\n    tag_9:\n      callvalue\n      dup1\n      iszero\n      tag_67\n      jumpi\n      0x00\n      dup1\n      revert\n    tag_67:\n      pop\n      tag_68\n      0x04\n      dup1\n      calldatasize\n      sub\n      dup2\n      add\n      swap1\n      tag_69\n      swap2\n      swap1\n      tag_70\n      jump\t// in\n    tag_69:\n      tag_71\n      jump\t// in\n    tag_68:\n      stop\n        /* \"@opengsn/contracts/src/BasePaymaster.sol\":828:931  function getRelayHub() public override view returns (address) {... */\n    tag_10:\n      callvalue\n      dup1\n      iszero\n      tag_72\n      jumpi\n      0x00\n      dup1\n      revert\n    tag_72:\n      pop\n      tag_73\n      tag_74\n      jump\t// in\n    tag_73:\n      mload(0x40)\n      tag_75\n      swap2\n      swap1\n      tag_31\n      jump\t// in\n    tag_75:\n      mload(0x40)\n      dup1\n      swap2\n      sub\n      swap1\n      return\n        /* \"@openzeppelin/contracts/access/Ownable.sol\":1201:1286  function owner() public view virtual returns (address) {... */\n    tag_11:\n      callvalue\n      dup1\n      iszero\n      tag_76\n      jumpi\n      0x00\n      dup1\n      revert\n    tag_76:\n      pop\n      tag_77\n      tag_78\n      jump\t// in\n    tag_77:\n      mload(0x40)\n      tag_79\n      swap2\n      swap1\n      tag_31\n      jump\t// in\n    tag_79:\n      mload(0x40)\n      dup1\n      swap2\n      sub\n      swap1\n      return\n        /* \"testPaymaster.sol\":409:567  function versionPaymaster() external view override virtual returns (string memory){\r... */\n    tag_12:\n      callvalue\n      dup1\n      iszero\n      tag_80\n      jumpi\n      0x00\n      dup1\n      revert\n    tag_80:\n      pop\n      tag_81\n      tag_82\n      jump\t// in\n    tag_81:\n      mload(0x40)\n      tag_83\n      swap2\n      swap1\n      tag_84\n      jump\t// in\n    tag_83:\n      mload(0x40)\n      dup1\n      swap2\n      sub\n      swap1\n      return\n        /* \"@opengsn/contracts/src/BasePaymaster.sol\":1780:2142  function getGasAndDataLimits()... */\n    tag_13:\n      callvalue\n      dup1\n      iszero\n      tag_85\n      jumpi\n      0x00\n      dup1\n      revert\n    tag_85:\n      pop\n      tag_86\n      tag_87\n      jump\t// in\n    tag_86:\n      mload(0x40)\n      tag_88\n      swap2\n      swap1\n      tag_89\n      jump\t// in\n    tag_88:\n      mload(0x40)\n      dup1\n      swap2\n      sub\n      swap1\n      return\n        /* \"@opengsn/contracts/src/BasePaymaster.sol\":1002:1056  uint256 constant public FORWARDER_HUB_OVERHEAD = 50000 */\n    tag_14:\n      callvalue\n      dup1\n      iszero\n      tag_90\n      jumpi\n      0x00\n      dup1\n      revert\n    tag_90:\n      pop\n      tag_91\n      tag_92\n      jump\t// in\n    tag_91:\n      mload(0x40)\n      tag_93\n      swap2\n      swap1\n      tag_58\n      jump\t// in\n    tag_93:\n      mload(0x40)\n      dup1\n      swap2\n      sub\n      swap1\n      return\n        /* \"@opengsn/contracts/src/BasePaymaster.sol\":1197:1257  uint256 constant public POST_RELAYED_CALL_GAS_LIMIT = 110000 */\n    tag_15:\n      callvalue\n      dup1\n      iszero\n      tag_94\n      jumpi\n      0x00\n      dup1\n      revert\n    tag_94:\n      pop\n      tag_95\n      tag_96\n      jump\t// in\n    tag_95:\n      mload(0x40)\n      tag_97\n      swap2\n      swap1\n      tag_58\n      jump\t// in\n    tag_97:\n      mload(0x40)\n      dup1\n      swap2\n      sub\n      swap1\n      return\n        /* \"@opengsn/contracts/src/BasePaymaster.sol\":4233:4351  function getTrustedForwarder() public virtual view override returns (address){... */\n    tag_16:\n      callvalue\n      dup1\n      iszero\n      tag_98\n      jumpi\n      0x00\n      dup1\n      revert\n    tag_98:\n      pop\n      tag_99\n      tag_100\n      jump\t// in\n    tag_99:\n      mload(0x40)\n      tag_101\n      swap2\n      swap1\n      tag_31\n      jump\t// in\n    tag_101:\n      mload(0x40)\n      dup1\n      swap2\n      sub\n      swap1\n      return\n        /* \"@opengsn/contracts/src/BasePaymaster.sol\":3996:4227  function setTrustedForwarder(address forwarder) public virtual onlyOwner {... */\n    tag_17:\n      callvalue\n      dup1\n      iszero\n      tag_102\n      jumpi\n      0x00\n      dup1\n      revert\n    tag_102:\n      pop\n      tag_103\n      0x04\n      dup1\n      calldatasize\n      sub\n      dup2\n      add\n      swap1\n      tag_104\n      swap2\n      swap1\n      tag_105\n      jump\t// in\n    tag_104:\n      tag_106\n      jump\t// in\n    tag_103:\n      stop\n        /* \"@opengsn/contracts/src/BasePaymaster.sol\":1263:1368  uint256 constant public PAYMASTER_ACCEPTANCE_BUDGET = PRE_RELAYED_CALL_GAS_LIMIT + FORWARDER_HUB_OVERHEAD */\n    tag_18:\n      callvalue\n      dup1\n      iszero\n      tag_107\n      jumpi\n      0x00\n      dup1\n      revert\n    tag_107:\n      pop\n      tag_108\n      tag_109\n      jump\t// in\n    tag_108:\n      mload(0x40)\n      tag_110\n      swap2\n      swap1\n      tag_58\n      jump\t// in\n    tag_110:\n      mload(0x40)\n      dup1\n      swap2\n      sub\n      swap1\n      return\n        /* \"testPaymaster.sol\":1394:1490  function getBalanec()public view returns(uint256){\r... */\n    tag_19:\n      callvalue\n      dup1\n      iszero\n      tag_111\n      jumpi\n      0x00\n      dup1\n      revert\n    tag_111:\n      pop\n      tag_112\n      tag_113\n      jump\t// in\n    tag_112:\n      mload(0x40)\n      tag_114\n      swap2\n      swap1\n      tag_58\n      jump\t// in\n    tag_114:\n      mload(0x40)\n      dup1\n      swap2\n      sub\n      swap1\n      return\n        /* \"@openzeppelin/contracts/access/Ownable.sol\":2074:2272  function transferOwnership(address newOwner) public virtual onlyOwner {... */\n    tag_20:\n      callvalue\n      dup1\n      iszero\n      tag_115\n      jumpi\n      0x00\n      dup1\n      revert\n    tag_115:\n      pop\n      tag_116\n      0x04\n      dup1\n      calldatasize\n      sub\n      dup2\n      add\n      swap1\n      tag_117\n      swap2\n      swap1\n      tag_105\n      jump\t// in\n    tag_117:\n      tag_118\n      jump\t// in\n    tag_116:\n      stop\n        /* \"@opengsn/contracts/src/BasePaymaster.sol\":1132:1191  uint256 constant public PRE_RELAYED_CALL_GAS_LIMIT = 100000 */\n    tag_21:\n      callvalue\n      dup1\n      iszero\n      tag_119\n      jumpi\n      0x00\n      dup1\n      revert\n    tag_119:\n      pop\n      tag_120\n      tag_121\n      jump\t// in\n    tag_120:\n      mload(0x40)\n      tag_122\n      swap2\n      swap1\n      tag_58\n      jump\t// in\n    tag_122:\n      mload(0x40)\n      dup1\n      swap2\n      sub\n      swap1\n      return\n        /* \"@opengsn/contracts/src/BasePaymaster.sol\":5153:5686  function preRelayedCall(... */\n    tag_39:\n        /* \"@opengsn/contracts/src/BasePaymaster.sol\":5378:5390  bytes memory */\n      0x60\n        /* \"@opengsn/contracts/src/BasePaymaster.sol\":5392:5396  bool */\n      0x00\n        /* \"@opengsn/contracts/src/BasePaymaster.sol\":5408:5429  _verifyRelayHubOnly() */\n      tag_124\n        /* \"@opengsn/contracts/src/BasePaymaster.sol\":5408:5427  _verifyRelayHubOnly */\n      tag_125\n        /* \"@opengsn/contracts/src/BasePaymaster.sol\":5408:5429  _verifyRelayHubOnly() */\n      jump\t// in\n    tag_124:\n        /* \"@opengsn/contracts/src/BasePaymaster.sol\":5439:5469  _verifyForwarder(relayRequest) */\n      tag_126\n        /* \"@opengsn/contracts/src/BasePaymaster.sol\":5456:5468  relayRequest */\n      dup9\n        /* \"@opengsn/contracts/src/BasePaymaster.sol\":5439:5455  _verifyForwarder */\n      tag_127\n        /* \"@opengsn/contracts/src/BasePaymaster.sol\":5439:5469  _verifyForwarder(relayRequest) */\n      jump\t// in\n    tag_126:\n        /* \"@opengsn/contracts/src/BasePaymaster.sol\":5479:5505  _verifyValue(relayRequest) */\n      tag_128\n        /* \"@opengsn/contracts/src/BasePaymaster.sol\":5492:5504  relayRequest */\n      dup9\n        /* \"@opengsn/contracts/src/BasePaymaster.sol\":5479:5491  _verifyValue */\n      tag_129\n        /* \"@opengsn/contracts/src/BasePaymaster.sol\":5479:5505  _verifyValue(relayRequest) */\n      jump\t// in\n    tag_128:\n        /* \"@opengsn/contracts/src/BasePaymaster.sol\":5515:5549  _verifyPaymasterData(relayRequest) */\n      tag_130\n        /* \"@opengsn/contracts/src/BasePaymaster.sol\":5536:5548  relayRequest */\n      dup9\n        /* \"@opengsn/contracts/src/BasePaymaster.sol\":5515:5535  _verifyPaymasterData */\n      tag_131\n        /* \"@opengsn/contracts/src/BasePaymaster.sol\":5515:5549  _verifyPaymasterData(relayRequest) */\n      jump\t// in\n    tag_130:\n        /* \"@opengsn/contracts/src/BasePaymaster.sol\":5559:5592  _verifyApprovalData(approvalData) */\n      tag_132\n        /* \"@opengsn/contracts/src/BasePaymaster.sol\":5579:5591  approvalData */\n      dup6\n      dup6\n        /* \"@opengsn/contracts/src/BasePaymaster.sol\":5559:5578  _verifyApprovalData */\n      tag_133\n        /* \"@opengsn/contracts/src/BasePaymaster.sol\":5559:5592  _verifyApprovalData(approvalData) */\n      jump\t// in\n    tag_132:\n        /* \"@opengsn/contracts/src/BasePaymaster.sol\":5609:5679  _preRelayedCall(relayRequest, signature, approvalData, maxPossibleGas) */\n      tag_134\n        /* \"@opengsn/contracts/src/BasePaymaster.sol\":5625:5637  relayRequest */\n      dup9\n        /* \"@opengsn/contracts/src/BasePaymaster.sol\":5639:5648  signature */\n      dup9\n      dup9\n        /* \"@opengsn/contracts/src/BasePaymaster.sol\":5650:5662  approvalData */\n      dup9\n      dup9\n        /* \"@opengsn/contracts/src/BasePaymaster.sol\":5664:5678  maxPossibleGas */\n      dup9\n        /* \"@opengsn/contracts/src/BasePaymaster.sol\":5609:5624  _preRelayedCall */\n      tag_135\n        /* \"@opengsn/contracts/src/BasePaymaster.sol\":5609:5679  _preRelayedCall(relayRequest, signature, approvalData, maxPossibleGas) */\n      jump\t// in\n    tag_134:\n        /* \"@opengsn/contracts/src/BasePaymaster.sol\":5602:5679  return _preRelayedCall(relayRequest, signature, approvalData, maxPossibleGas) */\n      swap2\n      pop\n      swap2\n      pop\n        /* \"@opengsn/contracts/src/BasePaymaster.sol\":5153:5686  function preRelayedCall(... */\n      swap7\n      pop\n      swap7\n      swap5\n      pop\n      pop\n      pop\n      pop\n      pop\n      jump\t// out\n        /* \"@opengsn/contracts/src/BasePaymaster.sol\":1460:1743  function supportsInterface(bytes4 interfaceId) public view virtual override(IERC165, ERC165) returns (bool) {... */\n    tag_46:\n        /* \"@opengsn/contracts/src/BasePaymaster.sol\":1562:1566  bool */\n      0x00\n        /* \"@opengsn/contracts/src/BasePaymaster.sol\":1600:1628  type(IPaymaster).interfaceId */\n      0xe1ab2dea00000000000000000000000000000000000000000000000000000000\n        /* \"@opengsn/contracts/src/BasePaymaster.sol\":1585:1628  interfaceId == type(IPaymaster).interfaceId */\n      not(0xffffffffffffffffffffffffffffffffffffffffffffffffffffffff)\n      and\n        /* \"@opengsn/contracts/src/BasePaymaster.sol\":1585:1596  interfaceId */\n      dup3\n        /* \"@opengsn/contracts/src/BasePaymaster.sol\":1585:1628  interfaceId == type(IPaymaster).interfaceId */\n      not(0xffffffffffffffffffffffffffffffffffffffffffffffffffffffff)\n      and\n      eq\n        /* \"@opengsn/contracts/src/BasePaymaster.sol\":1585:1684  interfaceId == type(IPaymaster).interfaceId ||... */\n      dup1\n      tag_137\n      jumpi\n      pop\n        /* \"@opengsn/contracts/src/BasePaymaster.sol\":1659:1684  type(Ownable).interfaceId */\n      0x0e08307600000000000000000000000000000000000000000000000000000000\n        /* \"@opengsn/contracts/src/BasePaymaster.sol\":1644:1684  interfaceId == type(Ownable).interfaceId */\n      not(0xffffffffffffffffffffffffffffffffffffffffffffffffffffffff)\n      and\n        /* \"@opengsn/contracts/src/BasePaymaster.sol\":1644:1655  interfaceId */\n      dup3\n        /* \"@opengsn/contracts/src/BasePaymaster.sol\":1644:1684  interfaceId == type(Ownable).interfaceId */\n      not(0xffffffffffffffffffffffffffffffffffffffffffffffffffffffff)\n      and\n      eq\n        /* \"@opengsn/contracts/src/BasePaymaster.sol\":1585:1684  interfaceId == type(IPaymaster).interfaceId ||... */\n    tag_137:\n        /* \"@opengsn/contracts/src/BasePaymaster.sol\":1585:1736  interfaceId == type(IPaymaster).interfaceId ||... */\n      dup1\n      tag_138\n      jumpi\n      pop\n        /* \"@opengsn/contracts/src/BasePaymaster.sol\":1700:1736  super.supportsInterface(interfaceId) */\n      tag_139\n        /* \"@opengsn/contracts/src/BasePaymaster.sol\":1724:1735  interfaceId */\n      dup3\n        /* \"@opengsn/contracts/src/BasePaymaster.sol\":1700:1723  super.supportsInterface */\n      tag_140\n        /* \"@opengsn/contracts/src/BasePaymaster.sol\":1700:1736  super.supportsInterface(interfaceId) */\n      jump\t// in\n    tag_139:\n        /* \"@opengsn/contracts/src/BasePaymaster.sol\":1585:1736  interfaceId == type(IPaymaster).interfaceId ||... */\n    tag_138:\n        /* \"@opengsn/contracts/src/BasePaymaster.sol\":1578:1736  return interfaceId == type(IPaymaster).interfaceId ||... */\n      swap1\n      pop\n        /* \"@opengsn/contracts/src/BasePaymaster.sol\":1460:1743  function supportsInterface(bytes4 interfaceId) public view virtual override(IERC165, ERC165) returns (bool) {... */\n      swap2\n      swap1\n      pop\n      jump\t// out\n        /* \"@opengsn/contracts/src/BasePaymaster.sol\":4974:5116  function withdrawRelayHubDepositTo(uint256 amount, address payable target) public onlyOwner {... */\n    tag_53:\n        /* \"@openzeppelin/contracts/access/Ownable.sol\":1094:1107  _checkOwner() */\n      tag_142\n        /* \"@openzeppelin/contracts/access/Ownable.sol\":1094:1105  _checkOwner */\n      tag_143\n        /* \"@openzeppelin/contracts/access/Ownable.sol\":1094:1107  _checkOwner() */\n      jump\t// in\n    tag_142:\n        /* \"@opengsn/contracts/src/BasePaymaster.sol\":5076:5084  relayHub */\n      0x01\n      0x00\n      swap1\n      sload\n      swap1\n      0x0100\n      exp\n      swap1\n      div\n      0xffffffffffffffffffffffffffffffffffffffff\n      and\n        /* \"@opengsn/contracts/src/BasePaymaster.sol\":5076:5093  relayHub.withdraw */\n      0xffffffffffffffffffffffffffffffffffffffff\n      and\n      0xf3fef3a3\n        /* \"@opengsn/contracts/src/BasePaymaster.sol\":5094:5100  target */\n      dup3\n        /* \"@opengsn/contracts/src/BasePaymaster.sol\":5102:5108  amount */\n      dup5\n        /* \"@opengsn/contracts/src/BasePaymaster.sol\":5076:5109  relayHub.withdraw(target, amount) */\n      mload(0x40)\n      dup4\n      0xffffffff\n      and\n      0xe0\n      shl\n      dup2\n      mstore\n      0x04\n      add\n      tag_145\n      swap3\n      swap2\n      swap1\n      tag_146\n      jump\t// in\n    tag_145:\n      0x00\n      mload(0x40)\n      dup1\n      dup4\n      sub\n      dup2\n      0x00\n      dup8\n      dup1\n      extcodesize\n      iszero\n      dup1\n      iszero\n      tag_147\n      jumpi\n      0x00\n      dup1\n      revert\n    tag_147:\n      pop\n      gas\n      call\n      iszero\n      dup1\n      iszero\n      tag_149\n      jumpi\n      returndatasize\n      0x00\n      dup1\n      returndatacopy\n      revert(0x00, returndatasize)\n    tag_149:\n      pop\n      pop\n      pop\n      pop\n        /* \"@opengsn/contracts/src/BasePaymaster.sol\":4974:5116  function withdrawRelayHubDepositTo(uint256 amount, address payable target) public onlyOwner {... */\n      pop\n      pop\n      jump\t// out\n        /* \"@opengsn/contracts/src/BasePaymaster.sol\":1374:1425  uint256 constant public CALLDATA_SIZE_LIMIT = 10500 */\n    tag_56:\n        /* \"@opengsn/contracts/src/BasePaymaster.sol\":1420:1425  10500 */\n      0x2904\n        /* \"@opengsn/contracts/src/BasePaymaster.sol\":1374:1425  uint256 constant public CALLDATA_SIZE_LIMIT = 10500 */\n      dup2\n      jump\t// out\n        /* \"@openzeppelin/contracts/access/Ownable.sol\":1824:1925  function renounceOwnership() public virtual onlyOwner {... */\n    tag_61:\n        /* \"@openzeppelin/contracts/access/Ownable.sol\":1094:1107  _checkOwner() */\n      tag_151\n        /* \"@openzeppelin/contracts/access/Ownable.sol\":1094:1105  _checkOwner */\n      tag_143\n        /* \"@openzeppelin/contracts/access/Ownable.sol\":1094:1107  _checkOwner() */\n      jump\t// in\n    tag_151:\n        /* \"@openzeppelin/contracts/access/Ownable.sol\":1888:1918  _transferOwnership(address(0)) */\n      tag_153\n        /* \"@openzeppelin/contracts/access/Ownable.sol\":1915:1916  0 */\n      0x00\n        /* \"@openzeppelin/contracts/access/Ownable.sol\":1888:1906  _transferOwnership */\n      tag_154\n        /* \"@openzeppelin/contracts/access/Ownable.sol\":1888:1918  _transferOwnership(address(0)) */\n      jump\t// in\n    tag_153:\n        /* \"@openzeppelin/contracts/access/Ownable.sol\":1824:1925  function renounceOwnership() public virtual onlyOwner {... */\n      jump\t// out\n        /* \"@opengsn/contracts/src/BasePaymaster.sol\":6140:6449  function postRelayedCall(... */\n    tag_66:\n        /* \"@opengsn/contracts/src/BasePaymaster.sol\":6347:6368  _verifyRelayHubOnly() */\n      tag_156\n        /* \"@opengsn/contracts/src/BasePaymaster.sol\":6347:6366  _verifyRelayHubOnly */\n      tag_125\n        /* \"@opengsn/contracts/src/BasePaymaster.sol\":6347:6368  _verifyRelayHubOnly() */\n      jump\t// in\n    tag_156:\n        /* \"@opengsn/contracts/src/BasePaymaster.sol\":6378:6442  _postRelayedCall(context, success, gasUseWithoutPost, relayData) */\n      tag_157\n        /* \"@opengsn/contracts/src/BasePaymaster.sol\":6395:6402  context */\n      dup6\n      dup6\n        /* \"@opengsn/contracts/src/BasePaymaster.sol\":6404:6411  success */\n      dup6\n        /* \"@opengsn/contracts/src/BasePaymaster.sol\":6413:6430  gasUseWithoutPost */\n      dup6\n        /* \"@opengsn/contracts/src/BasePaymaster.sol\":6432:6441  relayData */\n      dup6\n        /* \"@opengsn/contracts/src/BasePaymaster.sol\":6378:6394  _postRelayedCall */\n      tag_158\n        /* \"@opengsn/contracts/src/BasePaymaster.sol\":6378:6442  _postRelayedCall(context, success, gasUseWithoutPost, relayData) */\n      jump\t// in\n    tag_157:\n        /* \"@opengsn/contracts/src/BasePaymaster.sol\":6140:6449  function postRelayedCall(... */\n      pop\n      pop\n      pop\n      pop\n      pop\n      jump\t// out\n        /* \"@opengsn/contracts/src/BasePaymaster.sol\":3550:3747  function setRelayHub(IRelayHub hub) public onlyOwner {... */\n    tag_71:\n        /* \"@openzeppelin/contracts/access/Ownable.sol\":1094:1107  _checkOwner() */\n      tag_160\n        /* \"@openzeppelin/contracts/access/Ownable.sol\":1094:1105  _checkOwner */\n      tag_143\n        /* \"@openzeppelin/contracts/access/Ownable.sol\":1094:1107  _checkOwner() */\n      jump\t// in\n    tag_160:\n        /* \"@opengsn/contracts/src/BasePaymaster.sol\":3621:3680  address(hub).supportsInterface(type(IRelayHub).interfaceId) */\n      tag_162\n        /* \"@opengsn/contracts/src/BasePaymaster.sol\":3652:3679  type(IRelayHub).interfaceId */\n      0xe9fb30f700000000000000000000000000000000000000000000000000000000\n        /* \"@opengsn/contracts/src/BasePaymaster.sol\":3629:3632  hub */\n      dup3\n        /* \"@opengsn/contracts/src/BasePaymaster.sol\":3621:3651  address(hub).supportsInterface */\n      0xffffffffffffffffffffffffffffffffffffffff\n      and\n      tag_163\n      swap1\n        /* \"@opengsn/contracts/src/BasePaymaster.sol\":3621:3680  address(hub).supportsInterface(type(IRelayHub).interfaceId) */\n      swap2\n      swap1\n      0xffffffff\n      and\n      jump\t// in\n    tag_162:\n        /* \"@opengsn/contracts/src/BasePaymaster.sol\":3613:3716  require(address(hub).supportsInterface(type(IRelayHub).interfaceId), \"target is not a valid IRelayHub\") */\n      tag_164\n      jumpi\n      mload(0x40)\n      0x08c379a000000000000000000000000000000000000000000000000000000000\n      dup2\n      mstore\n      0x04\n      add\n      tag_165\n      swap1\n      tag_166\n      jump\t// in\n    tag_165:\n      mload(0x40)\n      dup1\n      swap2\n      sub\n      swap1\n      revert\n    tag_164:\n        /* \"@opengsn/contracts/src/BasePaymaster.sol\":3737:3740  hub */\n      dup1\n        /* \"@opengsn/contracts/src/BasePaymaster.sol\":3726:3734  relayHub */\n      0x01\n      0x00\n        /* \"@opengsn/contracts/src/BasePaymaster.sol\":3726:3740  relayHub = hub */\n      0x0100\n      exp\n      dup2\n      sload\n      dup2\n      0xffffffffffffffffffffffffffffffffffffffff\n      mul\n      not\n      and\n      swap1\n      dup4\n      0xffffffffffffffffffffffffffffffffffffffff\n      and\n      mul\n      or\n      swap1\n      sstore\n      pop\n        /* \"@opengsn/contracts/src/BasePaymaster.sol\":3550:3747  function setRelayHub(IRelayHub hub) public onlyOwner {... */\n      pop\n      jump\t// out\n        /* \"@opengsn/contracts/src/BasePaymaster.sol\":828:931  function getRelayHub() public override view returns (address) {... */\n    tag_74:\n        /* \"@opengsn/contracts/src/BasePaymaster.sol\":881:888  address */\n      0x00\n        /* \"@opengsn/contracts/src/BasePaymaster.sol\":915:923  relayHub */\n      0x01\n      0x00\n      swap1\n      sload\n      swap1\n      0x0100\n      exp\n      swap1\n      div\n      0xffffffffffffffffffffffffffffffffffffffff\n      and\n        /* \"@opengsn/contracts/src/BasePaymaster.sol\":900:924  return address(relayHub) */\n      swap1\n      pop\n        /* \"@opengsn/contracts/src/BasePaymaster.sol\":828:931  function getRelayHub() public override view returns (address) {... */\n      swap1\n      jump\t// out\n        /* \"@openzeppelin/contracts/access/Ownable.sol\":1201:1286  function owner() public view virtual returns (address) {... */\n    tag_78:\n        /* \"@openzeppelin/contracts/access/Ownable.sol\":1247:1254  address */\n      0x00\n        /* \"@openzeppelin/contracts/access/Ownable.sol\":1273:1279  _owner */\n      dup1\n      0x00\n      swap1\n      sload\n      swap1\n      0x0100\n      exp\n      swap1\n      div\n      0xffffffffffffffffffffffffffffffffffffffff\n      and\n        /* \"@openzeppelin/contracts/access/Ownable.sol\":1266:1279  return _owner */\n      swap1\n      pop\n        /* \"@openzeppelin/contracts/access/Ownable.sol\":1201:1286  function owner() public view virtual returns (address) {... */\n      swap1\n      jump\t// out\n        /* \"testPaymaster.sol\":409:567  function versionPaymaster() external view override virtual returns (string memory){\r... */\n    tag_82:\n        /* \"testPaymaster.sol\":477:490  string memory */\n      0x60\n        /* \"testPaymaster.sol\":502:559  return \"3.0.0-beta.3+opengsn.accepteverything.ipaymaster\" */\n      mload(0x40)\n      dup1\n      0x60\n      add\n      0x40\n      mstore\n      dup1\n      0x30\n      dup2\n      mstore\n      0x20\n      add\n      data_eb97c41b3f651080603cbd3c7c438c7324cd0069264d3abe764ec765afe6a3d8\n      0x30\n      swap2\n      codecopy\n      swap1\n      pop\n        /* \"testPaymaster.sol\":409:567  function versionPaymaster() external view override virtual returns (string memory){\r... */\n      swap1\n      jump\t// out\n        /* \"@opengsn/contracts/src/BasePaymaster.sol\":1780:2142  function getGasAndDataLimits()... */\n    tag_87:\n        /* \"@opengsn/contracts/src/BasePaymaster.sol\":1878:1919  IPaymaster.GasAndDataLimits memory limits */\n      tag_170\n      tag_171\n      jump\t// in\n    tag_170:\n        /* \"@opengsn/contracts/src/BasePaymaster.sol\":1943:2135  IPaymaster.GasAndDataLimits(... */\n      mload(0x40)\n      dup1\n      0x80\n      add\n      0x40\n      mstore\n      dup1\n        /* \"@opengsn/contracts/src/BasePaymaster.sol\":1051:1056  50000 */\n      0xc350\n        /* \"@opengsn/contracts/src/BasePaymaster.sol\":1185:1191  100000 */\n      0x0186a0\n        /* \"@opengsn/contracts/src/BasePaymaster.sol\":1317:1368  PRE_RELAYED_CALL_GAS_LIMIT + FORWARDER_HUB_OVERHEAD */\n      tag_173\n      swap2\n      swap1\n      tag_174\n      jump\t// in\n    tag_173:\n        /* \"@opengsn/contracts/src/BasePaymaster.sol\":1943:2135  IPaymaster.GasAndDataLimits(... */\n      dup2\n      mstore\n      0x20\n      add\n        /* \"@opengsn/contracts/src/BasePaymaster.sol\":1185:1191  100000 */\n      0x0186a0\n        /* \"@opengsn/contracts/src/BasePaymaster.sol\":1943:2135  IPaymaster.GasAndDataLimits(... */\n      dup2\n      mstore\n      0x20\n      add\n        /* \"@opengsn/contracts/src/BasePaymaster.sol\":1251:1257  110000 */\n      0x01adb0\n        /* \"@opengsn/contracts/src/BasePaymaster.sol\":1943:2135  IPaymaster.GasAndDataLimits(... */\n      dup2\n      mstore\n      0x20\n      add\n        /* \"@opengsn/contracts/src/BasePaymaster.sol\":1420:1425  10500 */\n      0x2904\n        /* \"@opengsn/contracts/src/BasePaymaster.sol\":1943:2135  IPaymaster.GasAndDataLimits(... */\n      dup2\n      mstore\n      pop\n        /* \"@opengsn/contracts/src/BasePaymaster.sol\":1936:2135  return IPaymaster.GasAndDataLimits(... */\n      swap1\n      pop\n        /* \"@opengsn/contracts/src/BasePaymaster.sol\":1780:2142  function getGasAndDataLimits()... */\n      swap1\n      jump\t// out\n        /* \"@opengsn/contracts/src/BasePaymaster.sol\":1002:1056  uint256 constant public FORWARDER_HUB_OVERHEAD = 50000 */\n    tag_92:\n        /* \"@opengsn/contracts/src/BasePaymaster.sol\":1051:1056  50000 */\n      0xc350\n        /* \"@opengsn/contracts/src/BasePaymaster.sol\":1002:1056  uint256 constant public FORWARDER_HUB_OVERHEAD = 50000 */\n      dup2\n      jump\t// out\n        /* \"@opengsn/contracts/src/BasePaymaster.sol\":1197:1257  uint256 constant public POST_RELAYED_CALL_GAS_LIMIT = 110000 */\n    tag_96:\n        /* \"@opengsn/contracts/src/BasePaymaster.sol\":1251:1257  110000 */\n      0x01adb0\n        /* \"@opengsn/contracts/src/BasePaymaster.sol\":1197:1257  uint256 constant public POST_RELAYED_CALL_GAS_LIMIT = 110000 */\n      dup2\n      jump\t// out\n        /* \"@opengsn/contracts/src/BasePaymaster.sol\":4233:4351  function getTrustedForwarder() public virtual view override returns (address){... */\n    tag_100:\n        /* \"@opengsn/contracts/src/BasePaymaster.sol\":4302:4309  address */\n      0x00\n        /* \"@opengsn/contracts/src/BasePaymaster.sol\":4327:4344  _trustedForwarder */\n      0x02\n      0x00\n      swap1\n      sload\n      swap1\n      0x0100\n      exp\n      swap1\n      div\n      0xffffffffffffffffffffffffffffffffffffffff\n      and\n        /* \"@opengsn/contracts/src/BasePaymaster.sol\":4320:4344  return _trustedForwarder */\n      swap1\n      pop\n        /* \"@opengsn/contracts/src/BasePaymaster.sol\":4233:4351  function getTrustedForwarder() public virtual view override returns (address){... */\n      swap1\n      jump\t// out\n        /* \"@opengsn/contracts/src/BasePaymaster.sol\":3996:4227  function setTrustedForwarder(address forwarder) public virtual onlyOwner {... */\n    tag_106:\n        /* \"@openzeppelin/contracts/access/Ownable.sol\":1094:1107  _checkOwner() */\n      tag_177\n        /* \"@openzeppelin/contracts/access/Ownable.sol\":1094:1105  _checkOwner */\n      tag_143\n        /* \"@openzeppelin/contracts/access/Ownable.sol\":1094:1107  _checkOwner() */\n      jump\t// in\n    tag_177:\n        /* \"@opengsn/contracts/src/BasePaymaster.sol\":4087:4144  forwarder.supportsInterface(type(IForwarder).interfaceId) */\n      tag_179\n        /* \"@opengsn/contracts/src/BasePaymaster.sol\":4115:4143  type(IForwarder).interfaceId */\n      0x25e23e6400000000000000000000000000000000000000000000000000000000\n        /* \"@opengsn/contracts/src/BasePaymaster.sol\":4087:4096  forwarder */\n      dup3\n        /* \"@opengsn/contracts/src/BasePaymaster.sol\":4087:4114  forwarder.supportsInterface */\n      0xffffffffffffffffffffffffffffffffffffffff\n      and\n      tag_163\n      swap1\n        /* \"@opengsn/contracts/src/BasePaymaster.sol\":4087:4144  forwarder.supportsInterface(type(IForwarder).interfaceId) */\n      swap2\n      swap1\n      0xffffffff\n      and\n      jump\t// in\n    tag_179:\n        /* \"@opengsn/contracts/src/BasePaymaster.sol\":4079:4181  require(forwarder.supportsInterface(type(IForwarder).interfaceId), \"target is not a valid IForwarder\") */\n      tag_180\n      jumpi\n      mload(0x40)\n      0x08c379a000000000000000000000000000000000000000000000000000000000\n      dup2\n      mstore\n      0x04\n      add\n      tag_181\n      swap1\n      tag_182\n      jump\t// in\n    tag_181:\n      mload(0x40)\n      dup1\n      swap2\n      sub\n      swap1\n      revert\n    tag_180:\n        /* \"@opengsn/contracts/src/BasePaymaster.sol\":4211:4220  forwarder */\n      dup1\n        /* \"@opengsn/contracts/src/BasePaymaster.sol\":4191:4208  _trustedForwarder */\n      0x02\n      0x00\n        /* \"@opengsn/contracts/src/BasePaymaster.sol\":4191:4220  _trustedForwarder = forwarder */\n      0x0100\n      exp\n      dup2\n      sload\n      dup2\n      0xffffffffffffffffffffffffffffffffffffffff\n      mul\n      not\n      and\n      swap1\n      dup4\n      0xffffffffffffffffffffffffffffffffffffffff\n      and\n      mul\n      or\n      swap1\n      sstore\n      pop\n        /* \"@opengsn/contracts/src/BasePaymaster.sol\":3996:4227  function setTrustedForwarder(address forwarder) public virtual onlyOwner {... */\n      pop\n      jump\t// out\n        /* \"@opengsn/contracts/src/BasePaymaster.sol\":1263:1368  uint256 constant public PAYMASTER_ACCEPTANCE_BUDGET = PRE_RELAYED_CALL_GAS_LIMIT + FORWARDER_HUB_OVERHEAD */\n    tag_109:\n        /* \"@opengsn/contracts/src/BasePaymaster.sol\":1051:1056  50000 */\n      0xc350\n        /* \"@opengsn/contracts/src/BasePaymaster.sol\":1185:1191  100000 */\n      0x0186a0\n        /* \"@opengsn/contracts/src/BasePaymaster.sol\":1317:1368  PRE_RELAYED_CALL_GAS_LIMIT + FORWARDER_HUB_OVERHEAD */\n      tag_183\n      swap2\n      swap1\n      tag_174\n      jump\t// in\n    tag_183:\n        /* \"@opengsn/contracts/src/BasePaymaster.sol\":1263:1368  uint256 constant public PAYMASTER_ACCEPTANCE_BUDGET = PRE_RELAYED_CALL_GAS_LIMIT + FORWARDER_HUB_OVERHEAD */\n      dup2\n      jump\t// out\n        /* \"testPaymaster.sol\":1394:1490  function getBalanec()public view returns(uint256){\r... */\n    tag_113:\n        /* \"testPaymaster.sol\":1435:1442  uint256 */\n      0x00\n        /* \"testPaymaster.sol\":1461:1482  address(this).balance */\n      selfbalance\n        /* \"testPaymaster.sol\":1454:1482  return address(this).balance */\n      swap1\n      pop\n        /* \"testPaymaster.sol\":1394:1490  function getBalanec()public view returns(uint256){\r... */\n      swap1\n      jump\t// out\n        /* \"@openzeppelin/contracts/access/Ownable.sol\":2074:2272  function transferOwnership(address newOwner) public virtual onlyOwner {... */\n    tag_118:\n        /* \"@openzeppelin/contracts/access/Ownable.sol\":1094:1107  _checkOwner() */\n      tag_186\n        /* \"@openzeppelin/contracts/access/Ownable.sol\":1094:1105  _checkOwner */\n      tag_143\n        /* \"@openzeppelin/contracts/access/Ownable.sol\":1094:1107  _checkOwner() */\n      jump\t// in\n    tag_186:\n        /* \"@openzeppelin/contracts/access/Ownable.sol\":2182:2183  0 */\n      0x00\n        /* \"@openzeppelin/contracts/access/Ownable.sol\":2162:2184  newOwner != address(0) */\n      0xffffffffffffffffffffffffffffffffffffffff\n      and\n        /* \"@openzeppelin/contracts/access/Ownable.sol\":2162:2170  newOwner */\n      dup2\n        /* \"@openzeppelin/contracts/access/Ownable.sol\":2162:2184  newOwner != address(0) */\n      0xffffffffffffffffffffffffffffffffffffffff\n      and\n      eq\n      iszero\n        /* \"@openzeppelin/contracts/access/Ownable.sol\":2154:2227  require(newOwner != address(0), \"Ownable: new owner is the zero address\") */\n      tag_188\n      jumpi\n      mload(0x40)\n      0x08c379a000000000000000000000000000000000000000000000000000000000\n      dup2\n      mstore\n      0x04\n      add\n      tag_189\n      swap1\n      tag_190\n      jump\t// in\n    tag_189:\n      mload(0x40)\n      dup1\n      swap2\n      sub\n      swap1\n      revert\n    tag_188:\n        /* \"@openzeppelin/contracts/access/Ownable.sol\":2237:2265  _transferOwnership(newOwner) */\n      tag_191\n        /* \"@openzeppelin/contracts/access/Ownable.sol\":2256:2264  newOwner */\n      dup2\n        /* \"@openzeppelin/contracts/access/Ownable.sol\":2237:2255  _transferOwnership */\n      tag_154\n        /* \"@openzeppelin/contracts/access/Ownable.sol\":2237:2265  _transferOwnership(newOwner) */\n      jump\t// in\n    tag_191:\n        /* \"@openzeppelin/contracts/access/Ownable.sol\":2074:2272  function transferOwnership(address newOwner) public virtual onlyOwner {... */\n      pop\n      jump\t// out\n        /* \"@opengsn/contracts/src/BasePaymaster.sol\":1132:1191  uint256 constant public PRE_RELAYED_CALL_GAS_LIMIT = 100000 */\n    tag_121:\n        /* \"@opengsn/contracts/src/BasePaymaster.sol\":1185:1191  100000 */\n      0x0186a0\n        /* \"@opengsn/contracts/src/BasePaymaster.sol\":1132:1191  uint256 constant public PRE_RELAYED_CALL_GAS_LIMIT = 100000 */\n      dup2\n      jump\t// out\n        /* \"@opengsn/contracts/src/BasePaymaster.sol\":2620:2760  function _verifyRelayHubOnly() internal virtual view {... */\n    tag_125:\n        /* \"@opengsn/contracts/src/BasePaymaster.sol\":2705:2718  getRelayHub() */\n      tag_193\n        /* \"@opengsn/contracts/src/BasePaymaster.sol\":2705:2716  getRelayHub */\n      tag_74\n        /* \"@opengsn/contracts/src/BasePaymaster.sol\":2705:2718  getRelayHub() */\n      jump\t// in\n    tag_193:\n        /* \"@opengsn/contracts/src/BasePaymaster.sol\":2691:2718  msg.sender == getRelayHub() */\n      0xffffffffffffffffffffffffffffffffffffffff\n      and\n        /* \"@opengsn/contracts/src/BasePaymaster.sol\":2691:2701  msg.sender */\n      caller\n        /* \"@opengsn/contracts/src/BasePaymaster.sol\":2691:2718  msg.sender == getRelayHub() */\n      0xffffffffffffffffffffffffffffffffffffffff\n      and\n      eq\n        /* \"@opengsn/contracts/src/BasePaymaster.sol\":2683:2753  require(msg.sender == getRelayHub(), \"can only be called by RelayHub\") */\n      tag_194\n      jumpi\n      mload(0x40)\n      0x08c379a000000000000000000000000000000000000000000000000000000000\n      dup2\n      mstore\n      0x04\n      add\n      tag_195\n      swap1\n      tag_196\n      jump\t// in\n    tag_195:\n      mload(0x40)\n      dup1\n      swap2\n      sub\n      swap1\n      revert\n    tag_194:\n        /* \"@opengsn/contracts/src/BasePaymaster.sol\":2620:2760  function _verifyRelayHubOnly() internal virtual view {... */\n      jump\t// out\n        /* \"@opengsn/contracts/src/BasePaymaster.sol\":2331:2614  function _verifyForwarder(GsnTypes.RelayRequest calldata relayRequest)... */\n    tag_127:\n        /* \"@opengsn/contracts/src/BasePaymaster.sol\":2483:2495  relayRequest */\n      dup1\n        /* \"@opengsn/contracts/src/BasePaymaster.sol\":2483:2505  relayRequest.relayData */\n      dup1\n      0x20\n      add\n      swap1\n      tag_198\n      swap2\n      swap1\n      tag_199\n      jump\t// in\n    tag_198:\n        /* \"@opengsn/contracts/src/BasePaymaster.sol\":2483:2515  relayRequest.relayData.forwarder */\n      0xa0\n      add\n      0x20\n      dup2\n      add\n      swap1\n      tag_200\n      swap2\n      swap1\n      tag_105\n      jump\t// in\n    tag_200:\n        /* \"@opengsn/contracts/src/BasePaymaster.sol\":2458:2515  getTrustedForwarder() == relayRequest.relayData.forwarder */\n      0xffffffffffffffffffffffffffffffffffffffff\n      and\n        /* \"@opengsn/contracts/src/BasePaymaster.sol\":2458:2479  getTrustedForwarder() */\n      tag_201\n        /* \"@opengsn/contracts/src/BasePaymaster.sol\":2458:2477  getTrustedForwarder */\n      tag_100\n        /* \"@opengsn/contracts/src/BasePaymaster.sol\":2458:2479  getTrustedForwarder() */\n      jump\t// in\n    tag_201:\n        /* \"@opengsn/contracts/src/BasePaymaster.sol\":2458:2515  getTrustedForwarder() == relayRequest.relayData.forwarder */\n      0xffffffffffffffffffffffffffffffffffffffff\n      and\n      eq\n        /* \"@opengsn/contracts/src/BasePaymaster.sol\":2450:2544  require(getTrustedForwarder() == relayRequest.relayData.forwarder, \"Forwarder is not trusted\") */\n      tag_202\n      jumpi\n      mload(0x40)\n      0x08c379a000000000000000000000000000000000000000000000000000000000\n      dup2\n      mstore\n      0x04\n      add\n      tag_203\n      swap1\n      tag_204\n      jump\t// in\n    tag_203:\n      mload(0x40)\n      dup1\n      swap2\n      sub\n      swap1\n      revert\n    tag_202:\n        /* \"@opengsn/contracts/src/BasePaymaster.sol\":2554:2607  GsnEip712Library.verifyForwarderTrusted(relayRequest) */\n      tag_205\n        /* \"@opengsn/contracts/src/BasePaymaster.sol\":2594:2606  relayRequest */\n      dup2\n        /* \"@opengsn/contracts/src/BasePaymaster.sol\":2554:2593  GsnEip712Library.verifyForwarderTrusted */\n      tag_206\n        /* \"@opengsn/contracts/src/BasePaymaster.sol\":2554:2607  GsnEip712Library.verifyForwarderTrusted(relayRequest) */\n      jump\t// in\n    tag_205:\n        /* \"@opengsn/contracts/src/BasePaymaster.sol\":2331:2614  function _verifyForwarder(GsnTypes.RelayRequest calldata relayRequest)... */\n      pop\n      jump\t// out\n        /* \"@opengsn/contracts/src/BasePaymaster.sol\":2766:2943  function _verifyValue(GsnTypes.RelayRequest calldata relayRequest) internal virtual view{... */\n    tag_129:\n        /* \"@opengsn/contracts/src/BasePaymaster.sol\":2902:2903  0 */\n      0x00\n        /* \"@opengsn/contracts/src/BasePaymaster.sol\":2872:2884  relayRequest */\n      dup2\n        /* \"@opengsn/contracts/src/BasePaymaster.sol\":2872:2892  relayRequest.request */\n      dup1\n      0x00\n      add\n      swap1\n      tag_208\n      swap2\n      swap1\n      tag_209\n      jump\t// in\n    tag_208:\n        /* \"@opengsn/contracts/src/BasePaymaster.sol\":2872:2898  relayRequest.request.value */\n      0x40\n      add\n      calldataload\n        /* \"@opengsn/contracts/src/BasePaymaster.sol\":2872:2903  relayRequest.request.value == 0 */\n      eq\n        /* \"@opengsn/contracts/src/BasePaymaster.sol\":2864:2936  require(relayRequest.request.value == 0, \"value transfer not supported\") */\n      tag_210\n      jumpi\n      mload(0x40)\n      0x08c379a000000000000000000000000000000000000000000000000000000000\n      dup2\n      mstore\n      0x04\n      add\n      tag_211\n      swap1\n      tag_212\n      jump\t// in\n    tag_211:\n      mload(0x40)\n      dup1\n      swap2\n      sub\n      swap1\n      revert\n    tag_210:\n        /* \"@opengsn/contracts/src/BasePaymaster.sol\":2766:2943  function _verifyValue(GsnTypes.RelayRequest calldata relayRequest) internal virtual view{... */\n      pop\n      jump\t// out\n        /* \"@opengsn/contracts/src/BasePaymaster.sol\":2949:3152  function _verifyPaymasterData(GsnTypes.RelayRequest calldata relayRequest) internal virtual view {... */\n    tag_131:\n        /* \"@opengsn/contracts/src/BasePaymaster.sol\":3111:3112  0 */\n      0x00\n        /* \"@opengsn/contracts/src/BasePaymaster.sol\":3064:3076  relayRequest */\n      dup2\n        /* \"@opengsn/contracts/src/BasePaymaster.sol\":3064:3086  relayRequest.relayData */\n      dup1\n      0x20\n      add\n      swap1\n      tag_214\n      swap2\n      swap1\n      tag_199\n      jump\t// in\n    tag_214:\n        /* \"@opengsn/contracts/src/BasePaymaster.sol\":3064:3100  relayRequest.relayData.paymasterData */\n      dup1\n      0xc0\n      add\n      swap1\n      tag_215\n      swap2\n      swap1\n      tag_216\n      jump\t// in\n    tag_215:\n        /* \"@opengsn/contracts/src/BasePaymaster.sol\":3064:3107  relayRequest.relayData.paymasterData.length */\n      swap1\n      pop\n        /* \"@opengsn/contracts/src/BasePaymaster.sol\":3064:3112  relayRequest.relayData.paymasterData.length == 0 */\n      eq\n        /* \"@opengsn/contracts/src/BasePaymaster.sol\":3056:3145  require(relayRequest.relayData.paymasterData.length == 0, \"should have no paymasterData\") */\n      tag_217\n      jumpi\n      mload(0x40)\n      0x08c379a000000000000000000000000000000000000000000000000000000000\n      dup2\n      mstore\n      0x04\n      add\n      tag_218\n      swap1\n      tag_219\n      jump\t// in\n    tag_218:\n      mload(0x40)\n      dup1\n      swap2\n      sub\n      swap1\n      revert\n    tag_217:\n        /* \"@opengsn/contracts/src/BasePaymaster.sol\":2949:3152  function _verifyPaymasterData(GsnTypes.RelayRequest calldata relayRequest) internal virtual view {... */\n      pop\n      jump\t// out\n        /* \"@opengsn/contracts/src/BasePaymaster.sol\":3158:3318  function _verifyApprovalData(bytes calldata approvalData) internal virtual view{... */\n    tag_133:\n        /* \"@opengsn/contracts/src/BasePaymaster.sol\":3278:3279  0 */\n      0x00\n        /* \"@opengsn/contracts/src/BasePaymaster.sol\":3255:3267  approvalData */\n      dup3\n      dup3\n        /* \"@opengsn/contracts/src/BasePaymaster.sol\":3255:3274  approvalData.length */\n      swap1\n      pop\n        /* \"@opengsn/contracts/src/BasePaymaster.sol\":3255:3279  approvalData.length == 0 */\n      eq\n        /* \"@opengsn/contracts/src/BasePaymaster.sol\":3247:3311  require(approvalData.length == 0, \"should have no approvalData\") */\n      tag_221\n      jumpi\n      mload(0x40)\n      0x08c379a000000000000000000000000000000000000000000000000000000000\n      dup2\n      mstore\n      0x04\n      add\n      tag_222\n      swap1\n      tag_223\n      jump\t// in\n    tag_222:\n      mload(0x40)\n      dup1\n      swap2\n      sub\n      swap1\n      revert\n    tag_221:\n        /* \"@opengsn/contracts/src/BasePaymaster.sol\":3158:3318  function _verifyApprovalData(bytes calldata approvalData) internal virtual view{... */\n      pop\n      pop\n      jump\t// out\n        /* \"testPaymaster.sol\":575:977  function _preRelayedCall(\r... */\n    tag_135:\n        /* \"testPaymaster.sol\":822:842  bytes memory context */\n      0x60\n        /* \"testPaymaster.sol\":844:872  bool revertOnRecipientRevert */\n      0x00\n        /* \"testPaymaster.sol\":963:968  false */\n      dup1\n        /* \"testPaymaster.sol\":951:969  return (\"\", false) */\n      mload(0x40)\n      dup1\n      0x20\n      add\n      0x40\n      mstore\n      dup1\n      0x00\n      dup2\n      mstore\n      pop\n      swap1\n      swap2\n      pop\n      swap2\n      pop\n        /* \"testPaymaster.sol\":575:977  function _preRelayedCall(\r... */\n      swap7\n      pop\n      swap7\n      swap5\n      pop\n      pop\n      pop\n      pop\n      pop\n      jump\t// out\n        /* \"@openzeppelin/contracts/utils/introspection/ERC165.sol\":829:984  function supportsInterface(bytes4 interfaceId) public view virtual override returns (bool) {... */\n    tag_140:\n        /* \"@openzeppelin/contracts/utils/introspection/ERC165.sol\":914:918  bool */\n      0x00\n        /* \"@openzeppelin/contracts/utils/introspection/ERC165.sol\":952:977  type(IERC165).interfaceId */\n      0x01ffc9a700000000000000000000000000000000000000000000000000000000\n        /* \"@openzeppelin/contracts/utils/introspection/ERC165.sol\":937:977  interfaceId == type(IERC165).interfaceId */\n      not(0xffffffffffffffffffffffffffffffffffffffffffffffffffffffff)\n      and\n        /* \"@openzeppelin/contracts/utils/introspection/ERC165.sol\":937:948  interfaceId */\n      dup3\n        /* \"@openzeppelin/contracts/utils/introspection/ERC165.sol\":937:977  interfaceId == type(IERC165).interfaceId */\n      not(0xffffffffffffffffffffffffffffffffffffffffffffffffffffffff)\n      and\n      eq\n        /* \"@openzeppelin/contracts/utils/introspection/ERC165.sol\":930:977  return interfaceId == type(IERC165).interfaceId */\n      swap1\n      pop\n        /* \"@openzeppelin/contracts/utils/introspection/ERC165.sol\":829:984  function supportsInterface(bytes4 interfaceId) public view virtual override returns (bool) {... */\n      swap2\n      swap1\n      pop\n      jump\t// out\n        /* \"@openzeppelin/contracts/access/Ownable.sol\":1359:1489  function _checkOwner() internal view virtual {... */\n    tag_143:\n        /* \"@openzeppelin/contracts/access/Ownable.sol\":1433:1445  _msgSender() */\n      tag_227\n        /* \"@openzeppelin/contracts/access/Ownable.sol\":1433:1443  _msgSender */\n      tag_228\n        /* \"@openzeppelin/contracts/access/Ownable.sol\":1433:1445  _msgSender() */\n      jump\t// in\n    tag_227:\n        /* \"@openzeppelin/contracts/access/Ownable.sol\":1422:1445  owner() == _msgSender() */\n      0xffffffffffffffffffffffffffffffffffffffff\n      and\n        /* \"@openzeppelin/contracts/access/Ownable.sol\":1422:1429  owner() */\n      tag_229\n        /* \"@openzeppelin/contracts/access/Ownable.sol\":1422:1427  owner */\n      tag_78\n        /* \"@openzeppelin/contracts/access/Ownable.sol\":1422:1429  owner() */\n      jump\t// in\n    tag_229:\n        /* \"@openzeppelin/contracts/access/Ownable.sol\":1422:1445  owner() == _msgSender() */\n      0xffffffffffffffffffffffffffffffffffffffff\n      and\n      eq\n        /* \"@openzeppelin/contracts/access/Ownable.sol\":1414:1482  require(owner() == _msgSender(), \"Ownable: caller is not the owner\") */\n      tag_230\n      jumpi\n      mload(0x40)\n      0x08c379a000000000000000000000000000000000000000000000000000000000\n      dup2\n      mstore\n      0x04\n      add\n      tag_231\n      swap1\n      tag_232\n      jump\t// in\n    tag_231:\n      mload(0x40)\n      dup1\n      swap2\n      sub\n      swap1\n      revert\n    tag_230:\n        /* \"@openzeppelin/contracts/access/Ownable.sol\":1359:1489  function _checkOwner() internal view virtual {... */\n      jump\t// out\n        /* \"@openzeppelin/contracts/access/Ownable.sol\":2426:2613  function _transferOwnership(address newOwner) internal virtual {... */\n    tag_154:\n        /* \"@openzeppelin/contracts/access/Ownable.sol\":2499:2515  address oldOwner */\n      0x00\n        /* \"@openzeppelin/contracts/access/Ownable.sol\":2518:2524  _owner */\n      dup1\n      0x00\n      swap1\n      sload\n      swap1\n      0x0100\n      exp\n      swap1\n      div\n      0xffffffffffffffffffffffffffffffffffffffff\n      and\n        /* \"@openzeppelin/contracts/access/Ownable.sol\":2499:2524  address oldOwner = _owner */\n      swap1\n      pop\n        /* \"@openzeppelin/contracts/access/Ownable.sol\":2543:2551  newOwner */\n      dup2\n        /* \"@openzeppelin/contracts/access/Ownable.sol\":2534:2540  _owner */\n      0x00\n      dup1\n        /* \"@openzeppelin/contracts/access/Ownable.sol\":2534:2551  _owner = newOwner */\n      0x0100\n      exp\n      dup2\n      sload\n      dup2\n      0xffffffffffffffffffffffffffffffffffffffff\n      mul\n      not\n      and\n      swap1\n      dup4\n      0xffffffffffffffffffffffffffffffffffffffff\n      and\n      mul\n      or\n      swap1\n      sstore\n      pop\n        /* \"@openzeppelin/contracts/access/Ownable.sol\":2597:2605  newOwner */\n      dup2\n        /* \"@openzeppelin/contracts/access/Ownable.sol\":2566:2606  OwnershipTransferred(oldOwner, newOwner) */\n      0xffffffffffffffffffffffffffffffffffffffff\n      and\n        /* \"@openzeppelin/contracts/access/Ownable.sol\":2587:2595  oldOwner */\n      dup2\n        /* \"@openzeppelin/contracts/access/Ownable.sol\":2566:2606  OwnershipTransferred(oldOwner, newOwner) */\n      0xffffffffffffffffffffffffffffffffffffffff\n      and\n      0x8be0079c531659141344cd1fd0a4f28419497f9722a3daafe3b4186f6b6457e0\n      mload(0x40)\n      mload(0x40)\n      dup1\n      swap2\n      sub\n      swap1\n      log3\n        /* \"@openzeppelin/contracts/access/Ownable.sol\":2489:2613  {... */\n      pop\n        /* \"@openzeppelin/contracts/access/Ownable.sol\":2426:2613  function _transferOwnership(address newOwner) internal virtual {... */\n      pop\n      jump\t// out\n        /* \"testPaymaster.sol\":985:1266  function _postRelayedCall(\r... */\n    tag_158:\n      pop\n      pop\n      pop\n      pop\n      pop\n      jump\t// out\n        /* \"@openzeppelin/contracts/utils/introspection/ERC165Checker.sol\":1349:1631  function supportsInterface(address account, bytes4 interfaceId) internal view returns (bool) {... */\n    tag_163:\n        /* \"@openzeppelin/contracts/utils/introspection/ERC165Checker.sol\":1436:1440  bool */\n      0x00\n        /* \"@openzeppelin/contracts/utils/introspection/ERC165Checker.sol\":1543:1566  supportsERC165(account) */\n      tag_236\n        /* \"@openzeppelin/contracts/utils/introspection/ERC165Checker.sol\":1558:1565  account */\n      dup4\n        /* \"@openzeppelin/contracts/utils/introspection/ERC165Checker.sol\":1543:1557  supportsERC165 */\n      tag_237\n        /* \"@openzeppelin/contracts/utils/introspection/ERC165Checker.sol\":1543:1566  supportsERC165(account) */\n      jump\t// in\n    tag_236:\n        /* \"@openzeppelin/contracts/utils/introspection/ERC165Checker.sol\":1543:1624  supportsERC165(account) && supportsERC165InterfaceUnchecked(account, interfaceId) */\n      dup1\n      iszero\n      tag_238\n      jumpi\n      pop\n        /* \"@openzeppelin/contracts/utils/introspection/ERC165Checker.sol\":1570:1624  supportsERC165InterfaceUnchecked(account, interfaceId) */\n      tag_239\n        /* \"@openzeppelin/contracts/utils/introspection/ERC165Checker.sol\":1603:1610  account */\n      dup4\n        /* \"@openzeppelin/contracts/utils/introspection/ERC165Checker.sol\":1612:1623  interfaceId */\n      dup4\n        /* \"@openzeppelin/contracts/utils/introspection/ERC165Checker.sol\":1570:1602  supportsERC165InterfaceUnchecked */\n      tag_240\n        /* \"@openzeppelin/contracts/utils/introspection/ERC165Checker.sol\":1570:1624  supportsERC165InterfaceUnchecked(account, interfaceId) */\n      jump\t// in\n    tag_239:\n        /* \"@openzeppelin/contracts/utils/introspection/ERC165Checker.sol\":1543:1624  supportsERC165(account) && supportsERC165InterfaceUnchecked(account, interfaceId) */\n    tag_238:\n        /* \"@openzeppelin/contracts/utils/introspection/ERC165Checker.sol\":1536:1624  return supportsERC165(account) && supportsERC165InterfaceUnchecked(account, interfaceId) */\n      swap1\n      pop\n        /* \"@openzeppelin/contracts/utils/introspection/ERC165Checker.sol\":1349:1631  function supportsInterface(address account, bytes4 interfaceId) internal view returns (bool) {... */\n      swap3\n      swap2\n      pop\n      pop\n      jump\t// out\n        /* \"@opengsn/contracts/src/utils/GsnEip712Library.sol\":2158:2698  function verifyForwarderTrusted(GsnTypes.RelayRequest calldata relayRequest) internal view {... */\n    tag_206:\n        /* \"@opengsn/contracts/src/utils/GsnEip712Library.sol\":2260:2272  bool success */\n      0x00\n        /* \"@opengsn/contracts/src/utils/GsnEip712Library.sol\":2274:2290  bytes memory ret */\n      dup1\n        /* \"@opengsn/contracts/src/utils/GsnEip712Library.sol\":2294:2306  relayRequest */\n      dup3\n        /* \"@opengsn/contracts/src/utils/GsnEip712Library.sol\":2294:2314  relayRequest.request */\n      dup1\n      0x00\n      add\n      swap1\n      tag_242\n      swap2\n      swap1\n      tag_209\n      jump\t// in\n    tag_242:\n        /* \"@opengsn/contracts/src/utils/GsnEip712Library.sol\":2294:2317  relayRequest.request.to */\n      0x20\n      add\n      0x20\n      dup2\n      add\n      swap1\n      tag_243\n      swap2\n      swap1\n      tag_105\n      jump\t// in\n    tag_243:\n        /* \"@opengsn/contracts/src/utils/GsnEip712Library.sol\":2294:2328  relayRequest.request.to.staticcall */\n      0xffffffffffffffffffffffffffffffffffffffff\n      and\n        /* \"@opengsn/contracts/src/utils/GsnEip712Library.sol\":2382:2427  IERC2771Recipient.isTrustedForwarder.selector */\n      shl(0xe0, 0x572b6c05)\n        /* \"@opengsn/contracts/src/utils/GsnEip712Library.sol\":2429:2441  relayRequest */\n      dup5\n        /* \"@opengsn/contracts/src/utils/GsnEip712Library.sol\":2429:2451  relayRequest.relayData */\n      dup1\n      0x20\n      add\n      swap1\n      tag_244\n      swap2\n      swap1\n      tag_199\n      jump\t// in\n    tag_244:\n        /* \"@opengsn/contracts/src/utils/GsnEip712Library.sol\":2429:2461  relayRequest.relayData.forwarder */\n      0xa0\n      add\n      0x20\n      dup2\n      add\n      swap1\n      tag_245\n      swap2\n      swap1\n      tag_105\n      jump\t// in\n    tag_245:\n        /* \"@opengsn/contracts/src/utils/GsnEip712Library.sol\":2342:2475  abi.encodeWithSelector(... */\n      add(0x24, mload(0x40))\n      tag_246\n      swap2\n      swap1\n      tag_31\n      jump\t// in\n    tag_246:\n      mload(0x40)\n      0x20\n      dup2\n      dup4\n      sub\n      sub\n      dup2\n      mstore\n      swap1\n      0x40\n      mstore\n      swap1\n      not(0xffffffffffffffffffffffffffffffffffffffffffffffffffffffff)\n      and\n      0x20\n      dup3\n      add\n      dup1\n      mload\n      0xffffffffffffffffffffffffffffffffffffffffffffffffffffffff\n      dup4\n      dup2\n      dup4\n      and\n      or\n      dup4\n      mstore\n      pop\n      pop\n      pop\n      pop\n        /* \"@opengsn/contracts/src/utils/GsnEip712Library.sol\":2294:2485  relayRequest.request.to.staticcall(... */\n      mload(0x40)\n      tag_247\n      swap2\n      swap1\n      tag_248\n      jump\t// in\n    tag_247:\n      0x00\n      mload(0x40)\n      dup1\n      dup4\n      sub\n      dup2\n      dup6\n      gas\n      staticcall\n      swap2\n      pop\n      pop\n      returndatasize\n      dup1\n      0x00\n      dup2\n      eq\n      tag_251\n      jumpi\n      mload(0x40)\n      swap2\n      pop\n      and(add(returndatasize, 0x3f), not(0x1f))\n      dup3\n      add\n      0x40\n      mstore\n      returndatasize\n      dup3\n      mstore\n      returndatasize\n      0x00\n      0x20\n      dup5\n      add\n      returndatacopy\n      jump(tag_250)\n    tag_251:\n      0x60\n      swap2\n      pop\n    tag_250:\n      pop\n        /* \"@opengsn/contracts/src/utils/GsnEip712Library.sol\":2259:2485  (bool success, bytes memory ret) = relayRequest.request.to.staticcall(... */\n      swap2\n      pop\n      swap2\n      pop\n        /* \"@opengsn/contracts/src/utils/GsnEip712Library.sol\":2503:2510  success */\n      dup2\n        /* \"@opengsn/contracts/src/utils/GsnEip712Library.sol\":2495:2543  require(success, \"isTrustedForwarder: reverted\") */\n      tag_252\n      jumpi\n      mload(0x40)\n      0x08c379a000000000000000000000000000000000000000000000000000000000\n      dup2\n      mstore\n      0x04\n      add\n      tag_253\n      swap1\n      tag_254\n      jump\t// in\n    tag_253:\n      mload(0x40)\n      dup1\n      swap2\n      sub\n      swap1\n      revert\n    tag_252:\n        /* \"@opengsn/contracts/src/utils/GsnEip712Library.sol\":2575:2577  32 */\n      0x20\n        /* \"@opengsn/contracts/src/utils/GsnEip712Library.sol\":2561:2564  ret */\n      dup2\n        /* \"@opengsn/contracts/src/utils/GsnEip712Library.sol\":2561:2571  ret.length */\n      mload\n        /* \"@opengsn/contracts/src/utils/GsnEip712Library.sol\":2561:2577  ret.length == 32 */\n      eq\n        /* \"@opengsn/contracts/src/utils/GsnEip712Library.sol\":2553:2614  require(ret.length == 32, \"isTrustedForwarder: bad response\") */\n      tag_255\n      jumpi\n      mload(0x40)\n      0x08c379a000000000000000000000000000000000000000000000000000000000\n      dup2\n      mstore\n      0x04\n      add\n      tag_256\n      swap1\n      tag_257\n      jump\t// in\n    tag_256:\n      mload(0x40)\n      dup1\n      swap2\n      sub\n      swap1\n      revert\n    tag_255:\n        /* \"@opengsn/contracts/src/utils/GsnEip712Library.sol\":2643:2646  ret */\n      dup1\n        /* \"@opengsn/contracts/src/utils/GsnEip712Library.sol\":2632:2655  abi.decode(ret, (bool)) */\n      dup1\n      0x20\n      add\n      swap1\n      mload\n      dup2\n      add\n      swap1\n      tag_258\n      swap2\n      swap1\n      tag_259\n      jump\t// in\n    tag_258:\n        /* \"@opengsn/contracts/src/utils/GsnEip712Library.sol\":2624:2691  require(abi.decode(ret, (bool)), \"invalid forwarder for recipient\") */\n      tag_260\n      jumpi\n      mload(0x40)\n      0x08c379a000000000000000000000000000000000000000000000000000000000\n      dup2\n      mstore\n      0x04\n      add\n      tag_261\n      swap1\n      tag_262\n      jump\t// in\n    tag_261:\n      mload(0x40)\n      dup1\n      swap2\n      sub\n      swap1\n      revert\n    tag_260:\n        /* \"@opengsn/contracts/src/utils/GsnEip712Library.sol\":2249:2698  {... */\n      pop\n      pop\n        /* \"@opengsn/contracts/src/utils/GsnEip712Library.sol\":2158:2698  function verifyForwarderTrusted(GsnTypes.RelayRequest calldata relayRequest) internal view {... */\n      pop\n      jump\t// out\n        /* \"@openzeppelin/contracts/utils/Context.sol\":640:736  function _msgSender() internal view virtual returns (address) {... */\n    tag_228:\n        /* \"@openzeppelin/contracts/utils/Context.sol\":693:700  address */\n      0x00\n        /* \"@openzeppelin/contracts/utils/Context.sol\":719:729  msg.sender */\n      caller\n        /* \"@openzeppelin/contracts/utils/Context.sol\":712:729  return msg.sender */\n      swap1\n      pop\n        /* \"@openzeppelin/contracts/utils/Context.sol\":640:736  function _msgSender() internal view virtual returns (address) {... */\n      swap1\n      jump\t// out\n        /* \"@openzeppelin/contracts/utils/introspection/ERC165Checker.sol\":704:1131  function supportsERC165(address account) internal view returns (bool) {... */\n    tag_237:\n        /* \"@openzeppelin/contracts/utils/introspection/ERC165Checker.sol\":768:772  bool */\n      0x00\n        /* \"@openzeppelin/contracts/utils/introspection/ERC165Checker.sol\":975:1043  supportsERC165InterfaceUnchecked(account, type(IERC165).interfaceId) */\n      tag_265\n        /* \"@openzeppelin/contracts/utils/introspection/ERC165Checker.sol\":1008:1015  account */\n      dup3\n        /* \"@openzeppelin/contracts/utils/introspection/ERC165Checker.sol\":1017:1042  type(IERC165).interfaceId */\n      0x01ffc9a700000000000000000000000000000000000000000000000000000000\n        /* \"@openzeppelin/contracts/utils/introspection/ERC165Checker.sol\":975:1007  supportsERC165InterfaceUnchecked */\n      tag_240\n        /* \"@openzeppelin/contracts/utils/introspection/ERC165Checker.sol\":975:1043  supportsERC165InterfaceUnchecked(account, type(IERC165).interfaceId) */\n      jump\t// in\n    tag_265:\n        /* \"@openzeppelin/contracts/utils/introspection/ERC165Checker.sol\":975:1124  supportsERC165InterfaceUnchecked(account, type(IERC165).interfaceId) &&... */\n      dup1\n      iszero\n      tag_266\n      jumpi\n      pop\n        /* \"@openzeppelin/contracts/utils/introspection/ERC165Checker.sol\":1060:1124  supportsERC165InterfaceUnchecked(account, _INTERFACE_ID_INVALID) */\n      tag_267\n        /* \"@openzeppelin/contracts/utils/introspection/ERC165Checker.sol\":1093:1100  account */\n      dup3\n        /* \"@openzeppelin/contracts/utils/introspection/ERC165Checker.sol\":599:609  0xffffffff */\n      0xffffffff\n        /* \"@openzeppelin/contracts/utils/introspection/ERC165Checker.sol\":1102:1123  _INTERFACE_ID_INVALID */\n      0xe0\n      shl\n        /* \"@openzeppelin/contracts/utils/introspection/ERC165Checker.sol\":1060:1092  supportsERC165InterfaceUnchecked */\n      tag_240\n        /* \"@openzeppelin/contracts/utils/introspection/ERC165Checker.sol\":1060:1124  supportsERC165InterfaceUnchecked(account, _INTERFACE_ID_INVALID) */\n      jump\t// in\n    tag_267:\n        /* \"@openzeppelin/contracts/utils/introspection/ERC165Checker.sol\":1059:1124  !supportsERC165InterfaceUnchecked(account, _INTERFACE_ID_INVALID) */\n      iszero\n        /* \"@openzeppelin/contracts/utils/introspection/ERC165Checker.sol\":975:1124  supportsERC165InterfaceUnchecked(account, type(IERC165).interfaceId) &&... */\n    tag_266:\n        /* \"@openzeppelin/contracts/utils/introspection/ERC165Checker.sol\":956:1124  return... */\n      swap1\n      pop\n        /* \"@openzeppelin/contracts/utils/introspection/ERC165Checker.sol\":704:1131  function supportsERC165(address account) internal view returns (bool) {... */\n      swap2\n      swap1\n      pop\n      jump\t// out\n        /* \"@openzeppelin/contracts/utils/introspection/ERC165Checker.sol\":4421:5068  function supportsERC165InterfaceUnchecked(address account, bytes4 interfaceId) internal view returns (bool) {... */\n    tag_240:\n        /* \"@openzeppelin/contracts/utils/introspection/ERC165Checker.sol\":4523:4527  bool */\n      0x00\n        /* \"@openzeppelin/contracts/utils/introspection/ERC165Checker.sol\":4563:4589  bytes memory encodedParams */\n      dup1\n        /* \"@openzeppelin/contracts/utils/introspection/ERC165Checker.sol\":4615:4649  IERC165.supportsInterface.selector */\n      shl(0xe0, 0x01ffc9a7)\n        /* \"@openzeppelin/contracts/utils/introspection/ERC165Checker.sol\":4651:4662  interfaceId */\n      dup4\n        /* \"@openzeppelin/contracts/utils/introspection/ERC165Checker.sol\":4592:4663  abi.encodeWithSelector(IERC165.supportsInterface.selector, interfaceId) */\n      add(0x24, mload(0x40))\n      tag_269\n      swap2\n      swap1\n      tag_270\n      jump\t// in\n    tag_269:\n      mload(0x40)\n      0x20\n      dup2\n      dup4\n      sub\n      sub\n      dup2\n      mstore\n      swap1\n      0x40\n      mstore\n      swap1\n      not(0xffffffffffffffffffffffffffffffffffffffffffffffffffffffff)\n      and\n      0x20\n      dup3\n      add\n      dup1\n      mload\n      0xffffffffffffffffffffffffffffffffffffffffffffffffffffffff\n      dup4\n      dup2\n      dup4\n      and\n      or\n      dup4\n      mstore\n      pop\n      pop\n      pop\n      pop\n        /* \"@openzeppelin/contracts/utils/introspection/ERC165Checker.sol\":4563:4663  bytes memory encodedParams = abi.encodeWithSelector(IERC165.supportsInterface.selector, interfaceId) */\n      swap1\n      pop\n        /* \"@openzeppelin/contracts/utils/introspection/ERC165Checker.sol\":4705:4717  bool success */\n      0x00\n        /* \"@openzeppelin/contracts/utils/introspection/ERC165Checker.sol\":4727:4745  uint256 returnSize */\n      dup1\n        /* \"@openzeppelin/contracts/utils/introspection/ERC165Checker.sol\":4755:4774  uint256 returnValue */\n      0x00\n        /* \"@openzeppelin/contracts/utils/introspection/ERC165Checker.sol\":4899:4903  0x20 */\n      0x20\n        /* \"@openzeppelin/contracts/utils/introspection/ERC165Checker.sol\":4893:4897  0x00 */\n      0x00\n        /* \"@openzeppelin/contracts/utils/introspection/ERC165Checker.sol\":4877:4890  encodedParams */\n      dup6\n        /* \"@openzeppelin/contracts/utils/introspection/ERC165Checker.sol\":4871:4891  mload(encodedParams) */\n      mload\n        /* \"@openzeppelin/contracts/utils/introspection/ERC165Checker.sol\":4864:4868  0x20 */\n      0x20\n        /* \"@openzeppelin/contracts/utils/introspection/ERC165Checker.sol\":4849:4862  encodedParams */\n      dup8\n        /* \"@openzeppelin/contracts/utils/introspection/ERC165Checker.sol\":4845:4869  add(encodedParams, 0x20) */\n      add\n        /* \"@openzeppelin/contracts/utils/introspection/ERC165Checker.sol\":4836:4843  account */\n      dup11\n        /* \"@openzeppelin/contracts/utils/introspection/ERC165Checker.sol\":4829:4834  30000 */\n      0x7530\n        /* \"@openzeppelin/contracts/utils/introspection/ERC165Checker.sol\":4818:4904  staticcall(30000, account, add(encodedParams, 0x20), mload(encodedParams), 0x00, 0x20) */\n      staticcall\n        /* \"@openzeppelin/contracts/utils/introspection/ERC165Checker.sol\":4807:4904  success := staticcall(30000, account, add(encodedParams, 0x20), mload(encodedParams), 0x00, 0x20) */\n      swap3\n      pop\n        /* \"@openzeppelin/contracts/utils/introspection/ERC165Checker.sol\":4931:4947  returndatasize() */\n      returndatasize\n        /* \"@openzeppelin/contracts/utils/introspection/ERC165Checker.sol\":4917:4947  returnSize := returndatasize() */\n      swap2\n      pop\n        /* \"@openzeppelin/contracts/utils/introspection/ERC165Checker.sol\":4981:4985  0x00 */\n      0x00\n        /* \"@openzeppelin/contracts/utils/introspection/ERC165Checker.sol\":4975:4986  mload(0x00) */\n      mload\n        /* \"@openzeppelin/contracts/utils/introspection/ERC165Checker.sol\":4960:4986  returnValue := mload(0x00) */\n      swap1\n      pop\n        /* \"@openzeppelin/contracts/utils/introspection/ERC165Checker.sol\":5013:5020  success */\n      dup3\n        /* \"@openzeppelin/contracts/utils/introspection/ERC165Checker.sol\":5013:5042  success && returnSize >= 0x20 */\n      dup1\n      iszero\n      tag_271\n      jumpi\n      pop\n        /* \"@openzeppelin/contracts/utils/introspection/ERC165Checker.sol\":5038:5042  0x20 */\n      0x20\n        /* \"@openzeppelin/contracts/utils/introspection/ERC165Checker.sol\":5024:5034  returnSize */\n      dup3\n        /* \"@openzeppelin/contracts/utils/introspection/ERC165Checker.sol\":5024:5042  returnSize >= 0x20 */\n      lt\n      iszero\n        /* \"@openzeppelin/contracts/utils/introspection/ERC165Checker.sol\":5013:5042  success && returnSize >= 0x20 */\n    tag_271:\n        /* \"@openzeppelin/contracts/utils/introspection/ERC165Checker.sol\":5013:5061  success && returnSize >= 0x20 && returnValue > 0 */\n      dup1\n      iszero\n      tag_272\n      jumpi\n      pop\n        /* \"@openzeppelin/contracts/utils/introspection/ERC165Checker.sol\":5060:5061  0 */\n      0x00\n        /* \"@openzeppelin/contracts/utils/introspection/ERC165Checker.sol\":5046:5057  returnValue */\n      dup2\n        /* \"@openzeppelin/contracts/utils/introspection/ERC165Checker.sol\":5046:5061  returnValue > 0 */\n      gt\n        /* \"@openzeppelin/contracts/utils/introspection/ERC165Checker.sol\":5013:5061  success && returnSize >= 0x20 && returnValue > 0 */\n    tag_272:\n        /* \"@openzeppelin/contracts/utils/introspection/ERC165Checker.sol\":5006:5061  return success && returnSize >= 0x20 && returnValue > 0 */\n      swap5\n      pop\n      pop\n      pop\n      pop\n      pop\n        /* \"@openzeppelin/contracts/utils/introspection/ERC165Checker.sol\":4421:5068  function supportsERC165InterfaceUnchecked(address account, bytes4 interfaceId) internal view returns (bool) {... */\n      swap3\n      swap2\n      pop\n      pop\n      jump\t// out\n    tag_171:\n      mload(0x40)\n      dup1\n      0x80\n      add\n      0x40\n      mstore\n      dup1\n      0x00\n      dup2\n      mstore\n      0x20\n      add\n      0x00\n      dup2\n      mstore\n      0x20\n      add\n      0x00\n      dup2\n      mstore\n      0x20\n      add\n      0x00\n      dup2\n      mstore\n      pop\n      swap1\n      jump\t// out\n        /* \"#utility.yul\":7:146   */\n    tag_274:\n        /* \"#utility.yul\":53:58   */\n      0x00\n        /* \"#utility.yul\":91:97   */\n      dup2\n        /* \"#utility.yul\":78:98   */\n      calldataload\n        /* \"#utility.yul\":69:98   */\n      swap1\n      pop\n        /* \"#utility.yul\":107:140   */\n      tag_276\n        /* \"#utility.yul\":134:139   */\n      dup2\n        /* \"#utility.yul\":107:140   */\n      tag_277\n      jump\t// in\n    tag_276:\n        /* \"#utility.yul\":7:146   */\n      swap3\n      swap2\n      pop\n      pop\n      jump\t// out\n        /* \"#utility.yul\":152:307   */\n    tag_278:\n        /* \"#utility.yul\":206:211   */\n      0x00\n        /* \"#utility.yul\":244:250   */\n      dup2\n        /* \"#utility.yul\":231:251   */\n      calldataload\n        /* \"#utility.yul\":222:251   */\n      swap1\n      pop\n        /* \"#utility.yul\":260:301   */\n      tag_280\n        /* \"#utility.yul\":295:300   */\n      dup2\n        /* \"#utility.yul\":260:301   */\n      tag_281\n      jump\t// in\n    tag_280:\n        /* \"#utility.yul\":152:307   */\n      swap3\n      swap2\n      pop\n      pop\n      jump\t// out\n        /* \"#utility.yul\":313:446   */\n    tag_282:\n        /* \"#utility.yul\":356:361   */\n      0x00\n        /* \"#utility.yul\":394:400   */\n      dup2\n        /* \"#utility.yul\":381:401   */\n      calldataload\n        /* \"#utility.yul\":372:401   */\n      swap1\n      pop\n        /* \"#utility.yul\":410:440   */\n      tag_284\n        /* \"#utility.yul\":434:439   */\n      dup2\n        /* \"#utility.yul\":410:440   */\n      tag_285\n      jump\t// in\n    tag_284:\n        /* \"#utility.yul\":313:446   */\n      swap3\n      swap2\n      pop\n      pop\n      jump\t// out\n        /* \"#utility.yul\":452:589   */\n    tag_286:\n        /* \"#utility.yul\":506:511   */\n      0x00\n        /* \"#utility.yul\":537:543   */\n      dup2\n        /* \"#utility.yul\":531:544   */\n      mload\n        /* \"#utility.yul\":522:544   */\n      swap1\n      pop\n        /* \"#utility.yul\":553:583   */\n      tag_288\n        /* \"#utility.yul\":577:582   */\n      dup2\n        /* \"#utility.yul\":553:583   */\n      tag_285\n      jump\t// in\n    tag_288:\n        /* \"#utility.yul\":452:589   */\n      swap3\n      swap2\n      pop\n      pop\n      jump\t// out\n        /* \"#utility.yul\":595:732   */\n    tag_289:\n        /* \"#utility.yul\":640:645   */\n      0x00\n        /* \"#utility.yul\":678:684   */\n      dup2\n        /* \"#utility.yul\":665:685   */\n      calldataload\n        /* \"#utility.yul\":656:685   */\n      swap1\n      pop\n        /* \"#utility.yul\":694:726   */\n      tag_291\n        /* \"#utility.yul\":720:725   */\n      dup2\n        /* \"#utility.yul\":694:726   */\n      tag_292\n      jump\t// in\n    tag_291:\n        /* \"#utility.yul\":595:732   */\n      swap3\n      swap2\n      pop\n      pop\n      jump\t// out\n        /* \"#utility.yul\":751:1303   */\n    tag_293:\n        /* \"#utility.yul\":808:816   */\n      0x00\n        /* \"#utility.yul\":818:824   */\n      dup1\n        /* \"#utility.yul\":868:871   */\n      dup4\n        /* \"#utility.yul\":861:865   */\n      0x1f\n        /* \"#utility.yul\":853:859   */\n      dup5\n        /* \"#utility.yul\":849:866   */\n      add\n        /* \"#utility.yul\":845:872   */\n      slt\n        /* \"#utility.yul\":835:957   */\n      tag_295\n      jumpi\n        /* \"#utility.yul\":876:955   */\n      tag_296\n      tag_297\n      jump\t// in\n    tag_296:\n        /* \"#utility.yul\":835:957   */\n    tag_295:\n        /* \"#utility.yul\":989:995   */\n      dup3\n        /* \"#utility.yul\":976:996   */\n      calldataload\n        /* \"#utility.yul\":966:996   */\n      swap1\n      pop\n        /* \"#utility.yul\":1019:1037   */\n      0xffffffffffffffff\n        /* \"#utility.yul\":1011:1017   */\n      dup2\n        /* \"#utility.yul\":1008:1038   */\n      gt\n        /* \"#utility.yul\":1005:1122   */\n      iszero\n      tag_298\n      jumpi\n        /* \"#utility.yul\":1041:1120   */\n      tag_299\n      tag_300\n      jump\t// in\n    tag_299:\n        /* \"#utility.yul\":1005:1122   */\n    tag_298:\n        /* \"#utility.yul\":1155:1159   */\n      0x20\n        /* \"#utility.yul\":1147:1153   */\n      dup4\n        /* \"#utility.yul\":1143:1160   */\n      add\n        /* \"#utility.yul\":1131:1160   */\n      swap2\n      pop\n        /* \"#utility.yul\":1209:1212   */\n      dup4\n        /* \"#utility.yul\":1201:1205   */\n      0x01\n        /* \"#utility.yul\":1193:1199   */\n      dup3\n        /* \"#utility.yul\":1189:1206   */\n      mul\n        /* \"#utility.yul\":1179:1187   */\n      dup4\n        /* \"#utility.yul\":1175:1207   */\n      add\n        /* \"#utility.yul\":1172:1213   */\n      gt\n        /* \"#utility.yul\":1169:1297   */\n      iszero\n      tag_301\n      jumpi\n        /* \"#utility.yul\":1216:1295   */\n      tag_302\n      tag_303\n      jump\t// in\n    tag_302:\n        /* \"#utility.yul\":1169:1297   */\n    tag_301:\n        /* \"#utility.yul\":751:1303   */\n      swap3\n      pop\n      swap3\n      swap1\n      pop\n      jump\t// out\n        /* \"#utility.yul\":1309:1482   */\n    tag_304:\n        /* \"#utility.yul\":1372:1377   */\n      0x00\n        /* \"#utility.yul\":1410:1416   */\n      dup2\n        /* \"#utility.yul\":1397:1417   */\n      calldataload\n        /* \"#utility.yul\":1388:1417   */\n      swap1\n      pop\n        /* \"#utility.yul\":1426:1476   */\n      tag_306\n        /* \"#utility.yul\":1470:1475   */\n      dup2\n        /* \"#utility.yul\":1426:1476   */\n      tag_307\n      jump\t// in\n    tag_306:\n        /* \"#utility.yul\":1309:1482   */\n      swap3\n      swap2\n      pop\n      pop\n      jump\t// out\n        /* \"#utility.yul\":1521:1755   */\n    tag_308:\n        /* \"#utility.yul\":1596:1601   */\n      0x00\n        /* \"#utility.yul\":1637:1640   */\n      0x0100\n        /* \"#utility.yul\":1628:1634   */\n      dup3\n        /* \"#utility.yul\":1623:1626   */\n      dup5\n        /* \"#utility.yul\":1619:1635   */\n      sub\n        /* \"#utility.yul\":1615:1641   */\n      slt\n        /* \"#utility.yul\":1612:1725   */\n      iszero\n      tag_310\n      jumpi\n        /* \"#utility.yul\":1644:1723   */\n      tag_311\n      tag_312\n      jump\t// in\n    tag_311:\n        /* \"#utility.yul\":1612:1725   */\n    tag_310:\n        /* \"#utility.yul\":1743:1749   */\n      dup2\n        /* \"#utility.yul\":1734:1749   */\n      swap1\n      pop\n        /* \"#utility.yul\":1521:1755   */\n      swap3\n      swap2\n      pop\n      pop\n      jump\t// out\n        /* \"#utility.yul\":1797:2033   */\n    tag_313:\n        /* \"#utility.yul\":1875:1880   */\n      0x00\n        /* \"#utility.yul\":1916:1918   */\n      0x40\n        /* \"#utility.yul\":1907:1913   */\n      dup3\n        /* \"#utility.yul\":1902:1905   */\n      dup5\n        /* \"#utility.yul\":1898:1914   */\n      sub\n        /* \"#utility.yul\":1894:1919   */\n      slt\n        /* \"#utility.yul\":1891:2003   */\n      iszero\n      tag_315\n      jumpi\n        /* \"#utility.yul\":1922:2001   */\n      tag_316\n      tag_312\n      jump\t// in\n    tag_316:\n        /* \"#utility.yul\":1891:2003   */\n    tag_315:\n        /* \"#utility.yul\":2021:2027   */\n      dup2\n        /* \"#utility.yul\":2012:2027   */\n      swap1\n      pop\n        /* \"#utility.yul\":1797:2033   */\n      swap3\n      swap2\n      pop\n      pop\n      jump\t// out\n        /* \"#utility.yul\":2039:2178   */\n    tag_317:\n        /* \"#utility.yul\":2085:2090   */\n      0x00\n        /* \"#utility.yul\":2123:2129   */\n      dup2\n        /* \"#utility.yul\":2110:2130   */\n      calldataload\n        /* \"#utility.yul\":2101:2130   */\n      swap1\n      pop\n        /* \"#utility.yul\":2139:2172   */\n      tag_319\n        /* \"#utility.yul\":2166:2171   */\n      dup2\n        /* \"#utility.yul\":2139:2172   */\n      tag_320\n      jump\t// in\n    tag_319:\n        /* \"#utility.yul\":2039:2178   */\n      swap3\n      swap2\n      pop\n      pop\n      jump\t// out\n        /* \"#utility.yul\":2184:2513   */\n    tag_105:\n        /* \"#utility.yul\":2243:2249   */\n      0x00\n        /* \"#utility.yul\":2292:2294   */\n      0x20\n        /* \"#utility.yul\":2280:2289   */\n      dup3\n        /* \"#utility.yul\":2271:2278   */\n      dup5\n        /* \"#utility.yul\":2267:2290   */\n      sub\n        /* \"#utility.yul\":2263:2295   */\n      slt\n        /* \"#utility.yul\":2260:2379   */\n      iszero\n      tag_322\n      jumpi\n        /* \"#utility.yul\":2298:2377   */\n      tag_323\n      tag_324\n      jump\t// in\n    tag_323:\n        /* \"#utility.yul\":2260:2379   */\n    tag_322:\n        /* \"#utility.yul\":2418:2419   */\n      0x00\n        /* \"#utility.yul\":2443:2496   */\n      tag_325\n        /* \"#utility.yul\":2488:2495   */\n      dup5\n        /* \"#utility.yul\":2479:2485   */\n      dup3\n        /* \"#utility.yul\":2468:2477   */\n      dup6\n        /* \"#utility.yul\":2464:2486   */\n      add\n        /* \"#utility.yul\":2443:2496   */\n      tag_274\n      jump\t// in\n    tag_325:\n        /* \"#utility.yul\":2433:2496   */\n      swap2\n      pop\n        /* \"#utility.yul\":2389:2506   */\n      pop\n        /* \"#utility.yul\":2184:2513   */\n      swap3\n      swap2\n      pop\n      pop\n      jump\t// out\n        /* \"#utility.yul\":2519:2864   */\n    tag_259:\n        /* \"#utility.yul\":2586:2592   */\n      0x00\n        /* \"#utility.yul\":2635:2637   */\n      0x20\n        /* \"#utility.yul\":2623:2632   */\n      dup3\n        /* \"#utility.yul\":2614:2621   */\n      dup5\n        /* \"#utility.yul\":2610:2633   */\n      sub\n        /* \"#utility.yul\":2606:2638   */\n      slt\n        /* \"#utility.yul\":2603:2722   */\n      iszero\n      tag_327\n      jumpi\n        /* \"#utility.yul\":2641:2720   */\n      tag_328\n      tag_324\n      jump\t// in\n    tag_328:\n        /* \"#utility.yul\":2603:2722   */\n    tag_327:\n        /* \"#utility.yul\":2761:2762   */\n      0x00\n        /* \"#utility.yul\":2786:2847   */\n      tag_329\n        /* \"#utility.yul\":2839:2846   */\n      dup5\n        /* \"#utility.yul\":2830:2836   */\n      dup3\n        /* \"#utility.yul\":2819:2828   */\n      dup6\n        /* \"#utility.yul\":2815:2837   */\n      add\n        /* \"#utility.yul\":2786:2847   */\n      tag_286\n      jump\t// in\n    tag_329:\n        /* \"#utility.yul\":2776:2847   */\n      swap2\n      pop\n        /* \"#utility.yul\":2732:2857   */\n      pop\n        /* \"#utility.yul\":2519:2864   */\n      swap3\n      swap2\n      pop\n      pop\n      jump\t// out\n        /* \"#utility.yul\":2870:3197   */\n    tag_45:\n        /* \"#utility.yul\":2928:2934   */\n      0x00\n        /* \"#utility.yul\":2977:2979   */\n      0x20\n        /* \"#utility.yul\":2965:2974   */\n      dup3\n        /* \"#utility.yul\":2956:2963   */\n      dup5\n        /* \"#utility.yul\":2952:2975   */\n      sub\n        /* \"#utility.yul\":2948:2980   */\n      slt\n        /* \"#utility.yul\":2945:3064   */\n      iszero\n      tag_331\n      jumpi\n        /* \"#utility.yul\":2983:3062   */\n      tag_332\n      tag_324\n      jump\t// in\n    tag_332:\n        /* \"#utility.yul\":2945:3064   */\n    tag_331:\n        /* \"#utility.yul\":3103:3104   */\n      0x00\n        /* \"#utility.yul\":3128:3180   */\n      tag_333\n        /* \"#utility.yul\":3172:3179   */\n      dup5\n        /* \"#utility.yul\":3163:3169   */\n      dup3\n        /* \"#utility.yul\":3152:3161   */\n      dup6\n        /* \"#utility.yul\":3148:3170   */\n      add\n        /* \"#utility.yul\":3128:3180   */\n      tag_289\n      jump\t// in\n    tag_333:\n        /* \"#utility.yul\":3118:3180   */\n      swap2\n      pop\n        /* \"#utility.yul\":3074:3190   */\n      pop\n        /* \"#utility.yul\":2870:3197   */\n      swap3\n      swap2\n      pop\n      pop\n      jump\t// out\n        /* \"#utility.yul\":3203:4378   */\n    tag_65:\n        /* \"#utility.yul\":3326:3332   */\n      0x00\n        /* \"#utility.yul\":3334:3340   */\n      dup1\n        /* \"#utility.yul\":3342:3348   */\n      0x00\n        /* \"#utility.yul\":3350:3356   */\n      dup1\n        /* \"#utility.yul\":3358:3364   */\n      0x00\n        /* \"#utility.yul\":3407:3410   */\n      0x80\n        /* \"#utility.yul\":3395:3404   */\n      dup7\n        /* \"#utility.yul\":3386:3393   */\n      dup9\n        /* \"#utility.yul\":3382:3405   */\n      sub\n        /* \"#utility.yul\":3378:3411   */\n      slt\n        /* \"#utility.yul\":3375:3495   */\n      iszero\n      tag_335\n      jumpi\n        /* \"#utility.yul\":3414:3493   */\n      tag_336\n      tag_324\n      jump\t// in\n    tag_336:\n        /* \"#utility.yul\":3375:3495   */\n    tag_335:\n        /* \"#utility.yul\":3562:3563   */\n      0x00\n        /* \"#utility.yul\":3551:3560   */\n      dup7\n        /* \"#utility.yul\":3547:3564   */\n      add\n        /* \"#utility.yul\":3534:3565   */\n      calldataload\n        /* \"#utility.yul\":3592:3610   */\n      0xffffffffffffffff\n        /* \"#utility.yul\":3584:3590   */\n      dup2\n        /* \"#utility.yul\":3581:3611   */\n      gt\n        /* \"#utility.yul\":3578:3695   */\n      iszero\n      tag_337\n      jumpi\n        /* \"#utility.yul\":3614:3693   */\n      tag_338\n      tag_339\n      jump\t// in\n    tag_338:\n        /* \"#utility.yul\":3578:3695   */\n    tag_337:\n        /* \"#utility.yul\":3727:3791   */\n      tag_340\n        /* \"#utility.yul\":3783:3790   */\n      dup9\n        /* \"#utility.yul\":3774:3780   */\n      dup3\n        /* \"#utility.yul\":3763:3772   */\n      dup10\n        /* \"#utility.yul\":3759:3781   */\n      add\n        /* \"#utility.yul\":3727:3791   */\n      tag_293\n      jump\t// in\n    tag_340:\n        /* \"#utility.yul\":3709:3791   */\n      swap6\n      pop\n      swap6\n      pop\n        /* \"#utility.yul\":3505:3801   */\n      pop\n        /* \"#utility.yul\":3840:3842   */\n      0x20\n        /* \"#utility.yul\":3866:3916   */\n      tag_341\n        /* \"#utility.yul\":3908:3915   */\n      dup9\n        /* \"#utility.yul\":3899:3905   */\n      dup3\n        /* \"#utility.yul\":3888:3897   */\n      dup10\n        /* \"#utility.yul\":3884:3906   */\n      add\n        /* \"#utility.yul\":3866:3916   */\n      tag_282\n      jump\t// in\n    tag_341:\n        /* \"#utility.yul\":3856:3916   */\n      swap4\n      pop\n        /* \"#utility.yul\":3811:3926   */\n      pop\n        /* \"#utility.yul\":3965:3967   */\n      0x40\n        /* \"#utility.yul\":3991:4044   */\n      tag_342\n        /* \"#utility.yul\":4036:4043   */\n      dup9\n        /* \"#utility.yul\":4027:4033   */\n      dup3\n        /* \"#utility.yul\":4016:4025   */\n      dup10\n        /* \"#utility.yul\":4012:4034   */\n      add\n        /* \"#utility.yul\":3991:4044   */\n      tag_317\n      jump\t// in\n    tag_342:\n        /* \"#utility.yul\":3981:4044   */\n      swap3\n      pop\n        /* \"#utility.yul\":3936:4054   */\n      pop\n        /* \"#utility.yul\":4121:4123   */\n      0x60\n        /* \"#utility.yul\":4110:4119   */\n      dup7\n        /* \"#utility.yul\":4106:4124   */\n      add\n        /* \"#utility.yul\":4093:4125   */\n      calldataload\n        /* \"#utility.yul\":4152:4170   */\n      0xffffffffffffffff\n        /* \"#utility.yul\":4144:4150   */\n      dup2\n        /* \"#utility.yul\":4141:4171   */\n      gt\n        /* \"#utility.yul\":4138:4255   */\n      iszero\n      tag_343\n      jumpi\n        /* \"#utility.yul\":4174:4253   */\n      tag_344\n      tag_339\n      jump\t// in\n    tag_344:\n        /* \"#utility.yul\":4138:4255   */\n    tag_343:\n        /* \"#utility.yul\":4279:4361   */\n      tag_345\n        /* \"#utility.yul\":4353:4360   */\n      dup9\n        /* \"#utility.yul\":4344:4350   */\n      dup3\n        /* \"#utility.yul\":4333:4342   */\n      dup10\n        /* \"#utility.yul\":4329:4351   */\n      add\n        /* \"#utility.yul\":4279:4361   */\n      tag_308\n      jump\t// in\n    tag_345:\n        /* \"#utility.yul\":4269:4361   */\n      swap2\n      pop\n        /* \"#utility.yul\":4064:4371   */\n      pop\n        /* \"#utility.yul\":3203:4378   */\n      swap3\n      swap6\n      pop\n      swap3\n      swap6\n      swap1\n      swap4\n      pop\n      jump\t// out\n        /* \"#utility.yul\":4384:4747   */\n    tag_70:\n        /* \"#utility.yul\":4460:4466   */\n      0x00\n        /* \"#utility.yul\":4509:4511   */\n      0x20\n        /* \"#utility.yul\":4497:4506   */\n      dup3\n        /* \"#utility.yul\":4488:4495   */\n      dup5\n        /* \"#utility.yul\":4484:4507   */\n      sub\n        /* \"#utility.yul\":4480:4512   */\n      slt\n        /* \"#utility.yul\":4477:4596   */\n      iszero\n      tag_347\n      jumpi\n        /* \"#utility.yul\":4515:4594   */\n      tag_348\n      tag_324\n      jump\t// in\n    tag_348:\n        /* \"#utility.yul\":4477:4596   */\n    tag_347:\n        /* \"#utility.yul\":4635:4636   */\n      0x00\n        /* \"#utility.yul\":4660:4730   */\n      tag_349\n        /* \"#utility.yul\":4722:4729   */\n      dup5\n        /* \"#utility.yul\":4713:4719   */\n      dup3\n        /* \"#utility.yul\":4702:4711   */\n      dup6\n        /* \"#utility.yul\":4698:4720   */\n      add\n        /* \"#utility.yul\":4660:4730   */\n      tag_304\n      jump\t// in\n    tag_349:\n        /* \"#utility.yul\":4650:4730   */\n      swap2\n      pop\n        /* \"#utility.yul\":4606:4740   */\n      pop\n        /* \"#utility.yul\":4384:4747   */\n      swap3\n      swap2\n      pop\n      pop\n      jump\t// out\n        /* \"#utility.yul\":4753:6138   */\n    tag_38:\n        /* \"#utility.yul\":4893:4899   */\n      0x00\n        /* \"#utility.yul\":4901:4907   */\n      dup1\n        /* \"#utility.yul\":4909:4915   */\n      0x00\n        /* \"#utility.yul\":4917:4923   */\n      dup1\n        /* \"#utility.yul\":4925:4931   */\n      0x00\n        /* \"#utility.yul\":4933:4939   */\n      dup1\n        /* \"#utility.yul\":4982:4985   */\n      0x80\n        /* \"#utility.yul\":4970:4979   */\n      dup8\n        /* \"#utility.yul\":4961:4968   */\n      dup10\n        /* \"#utility.yul\":4957:4980   */\n      sub\n        /* \"#utility.yul\":4953:4986   */\n      slt\n        /* \"#utility.yul\":4950:5070   */\n      iszero\n      tag_351\n      jumpi\n        /* \"#utility.yul\":4989:5068   */\n      tag_352\n      tag_324\n      jump\t// in\n    tag_352:\n        /* \"#utility.yul\":4950:5070   */\n    tag_351:\n        /* \"#utility.yul\":5137:5138   */\n      0x00\n        /* \"#utility.yul\":5126:5135   */\n      dup8\n        /* \"#utility.yul\":5122:5139   */\n      add\n        /* \"#utility.yul\":5109:5140   */\n      calldataload\n        /* \"#utility.yul\":5167:5185   */\n      0xffffffffffffffff\n        /* \"#utility.yul\":5159:5165   */\n      dup2\n        /* \"#utility.yul\":5156:5186   */\n      gt\n        /* \"#utility.yul\":5153:5270   */\n      iszero\n      tag_353\n      jumpi\n        /* \"#utility.yul\":5189:5268   */\n      tag_354\n      tag_339\n      jump\t// in\n    tag_354:\n        /* \"#utility.yul\":5153:5270   */\n    tag_353:\n        /* \"#utility.yul\":5294:5379   */\n      tag_355\n        /* \"#utility.yul\":5371:5378   */\n      dup10\n        /* \"#utility.yul\":5362:5368   */\n      dup3\n        /* \"#utility.yul\":5351:5360   */\n      dup11\n        /* \"#utility.yul\":5347:5369   */\n      add\n        /* \"#utility.yul\":5294:5379   */\n      tag_313\n      jump\t// in\n    tag_355:\n        /* \"#utility.yul\":5284:5379   */\n      swap7\n      pop\n        /* \"#utility.yul\":5080:5389   */\n      pop\n        /* \"#utility.yul\":5456:5458   */\n      0x20\n        /* \"#utility.yul\":5445:5454   */\n      dup8\n        /* \"#utility.yul\":5441:5459   */\n      add\n        /* \"#utility.yul\":5428:5460   */\n      calldataload\n        /* \"#utility.yul\":5487:5505   */\n      0xffffffffffffffff\n        /* \"#utility.yul\":5479:5485   */\n      dup2\n        /* \"#utility.yul\":5476:5506   */\n      gt\n        /* \"#utility.yul\":5473:5590   */\n      iszero\n      tag_356\n      jumpi\n        /* \"#utility.yul\":5509:5588   */\n      tag_357\n      tag_339\n      jump\t// in\n    tag_357:\n        /* \"#utility.yul\":5473:5590   */\n    tag_356:\n        /* \"#utility.yul\":5622:5686   */\n      tag_358\n        /* \"#utility.yul\":5678:5685   */\n      dup10\n        /* \"#utility.yul\":5669:5675   */\n      dup3\n        /* \"#utility.yul\":5658:5667   */\n      dup11\n        /* \"#utility.yul\":5654:5676   */\n      add\n        /* \"#utility.yul\":5622:5686   */\n      tag_293\n      jump\t// in\n    tag_358:\n        /* \"#utility.yul\":5604:5686   */\n      swap6\n      pop\n      swap6\n      pop\n        /* \"#utility.yul\":5399:5696   */\n      pop\n        /* \"#utility.yul\":5763:5765   */\n      0x40\n        /* \"#utility.yul\":5752:5761   */\n      dup8\n        /* \"#utility.yul\":5748:5766   */\n      add\n        /* \"#utility.yul\":5735:5767   */\n      calldataload\n        /* \"#utility.yul\":5794:5812   */\n      0xffffffffffffffff\n        /* \"#utility.yul\":5786:5792   */\n      dup2\n        /* \"#utility.yul\":5783:5813   */\n      gt\n        /* \"#utility.yul\":5780:5897   */\n      iszero\n      tag_359\n      jumpi\n        /* \"#utility.yul\":5816:5895   */\n      tag_360\n      tag_339\n      jump\t// in\n    tag_360:\n        /* \"#utility.yul\":5780:5897   */\n    tag_359:\n        /* \"#utility.yul\":5929:5993   */\n      tag_361\n        /* \"#utility.yul\":5985:5992   */\n      dup10\n        /* \"#utility.yul\":5976:5982   */\n      dup3\n        /* \"#utility.yul\":5965:5974   */\n      dup11\n        /* \"#utility.yul\":5961:5983   */\n      add\n        /* \"#utility.yul\":5929:5993   */\n      tag_293\n      jump\t// in\n    tag_361:\n        /* \"#utility.yul\":5911:5993   */\n      swap4\n      pop\n      swap4\n      pop\n        /* \"#utility.yul\":5706:6003   */\n      pop\n        /* \"#utility.yul\":6042:6044   */\n      0x60\n        /* \"#utility.yul\":6068:6121   */\n      tag_362\n        /* \"#utility.yul\":6113:6120   */\n      dup10\n        /* \"#utility.yul\":6104:6110   */\n      dup3\n        /* \"#utility.yul\":6093:6102   */\n      dup11\n        /* \"#utility.yul\":6089:6111   */\n      add\n        /* \"#utility.yul\":6068:6121   */\n      tag_317\n      jump\t// in\n    tag_362:\n        /* \"#utility.yul\":6058:6121   */\n      swap2\n      pop\n        /* \"#utility.yul\":6013:6131   */\n      pop\n        /* \"#utility.yul\":4753:6138   */\n      swap3\n      swap6\n      pop\n      swap3\n      swap6\n      pop\n      swap3\n      swap6\n      jump\t// out\n        /* \"#utility.yul\":6144:6634   */\n    tag_52:\n        /* \"#utility.yul\":6220:6226   */\n      0x00\n        /* \"#utility.yul\":6228:6234   */\n      dup1\n        /* \"#utility.yul\":6277:6279   */\n      0x40\n        /* \"#utility.yul\":6265:6274   */\n      dup4\n        /* \"#utility.yul\":6256:6263   */\n      dup6\n        /* \"#utility.yul\":6252:6275   */\n      sub\n        /* \"#utility.yul\":6248:6280   */\n      slt\n        /* \"#utility.yul\":6245:6364   */\n      iszero\n      tag_364\n      jumpi\n        /* \"#utility.yul\":6283:6362   */\n      tag_365\n      tag_324\n      jump\t// in\n    tag_365:\n        /* \"#utility.yul\":6245:6364   */\n    tag_364:\n        /* \"#utility.yul\":6403:6404   */\n      0x00\n        /* \"#utility.yul\":6428:6481   */\n      tag_366\n        /* \"#utility.yul\":6473:6480   */\n      dup6\n        /* \"#utility.yul\":6464:6470   */\n      dup3\n        /* \"#utility.yul\":6453:6462   */\n      dup7\n        /* \"#utility.yul\":6449:6471   */\n      add\n        /* \"#utility.yul\":6428:6481   */\n      tag_317\n      jump\t// in\n    tag_366:\n        /* \"#utility.yul\":6418:6481   */\n      swap3\n      pop\n        /* \"#utility.yul\":6374:6491   */\n      pop\n        /* \"#utility.yul\":6530:6532   */\n      0x20\n        /* \"#utility.yul\":6556:6617   */\n      tag_367\n        /* \"#utility.yul\":6609:6616   */\n      dup6\n        /* \"#utility.yul\":6600:6606   */\n      dup3\n        /* \"#utility.yul\":6589:6598   */\n      dup7\n        /* \"#utility.yul\":6585:6607   */\n      add\n        /* \"#utility.yul\":6556:6617   */\n      tag_278\n      jump\t// in\n    tag_367:\n        /* \"#utility.yul\":6546:6617   */\n      swap2\n      pop\n        /* \"#utility.yul\":6501:6627   */\n      pop\n        /* \"#utility.yul\":6144:6634   */\n      swap3\n      pop\n      swap3\n      swap1\n      pop\n      jump\t// out\n        /* \"#utility.yul\":6640:6782   */\n    tag_368:\n        /* \"#utility.yul\":6743:6775   */\n      tag_370\n        /* \"#utility.yul\":6769:6774   */\n      dup2\n        /* \"#utility.yul\":6743:6775   */\n      tag_371\n      jump\t// in\n    tag_370:\n        /* \"#utility.yul\":6738:6741   */\n      dup3\n        /* \"#utility.yul\":6731:6776   */\n      mstore\n        /* \"#utility.yul\":6640:6782   */\n      pop\n      pop\n      jump\t// out\n        /* \"#utility.yul\":6788:6906   */\n    tag_372:\n        /* \"#utility.yul\":6875:6899   */\n      tag_374\n        /* \"#utility.yul\":6893:6898   */\n      dup2\n        /* \"#utility.yul\":6875:6899   */\n      tag_375\n      jump\t// in\n    tag_374:\n        /* \"#utility.yul\":6870:6873   */\n      dup3\n        /* \"#utility.yul\":6863:6900   */\n      mstore\n        /* \"#utility.yul\":6788:6906   */\n      pop\n      pop\n      jump\t// out\n        /* \"#utility.yul\":6912:7021   */\n    tag_376:\n        /* \"#utility.yul\":6993:7014   */\n      tag_378\n        /* \"#utility.yul\":7008:7013   */\n      dup2\n        /* \"#utility.yul\":6993:7014   */\n      tag_379\n      jump\t// in\n    tag_378:\n        /* \"#utility.yul\":6988:6991   */\n      dup3\n        /* \"#utility.yul\":6981:7015   */\n      mstore\n        /* \"#utility.yul\":6912:7021   */\n      pop\n      pop\n      jump\t// out\n        /* \"#utility.yul\":7027:7142   */\n    tag_380:\n        /* \"#utility.yul\":7112:7135   */\n      tag_382\n        /* \"#utility.yul\":7129:7134   */\n      dup2\n        /* \"#utility.yul\":7112:7135   */\n      tag_383\n      jump\t// in\n    tag_382:\n        /* \"#utility.yul\":7107:7110   */\n      dup3\n        /* \"#utility.yul\":7100:7136   */\n      mstore\n        /* \"#utility.yul\":7027:7142   */\n      pop\n      pop\n      jump\t// out\n        /* \"#utility.yul\":7148:7508   */\n    tag_384:\n        /* \"#utility.yul\":7234:7237   */\n      0x00\n        /* \"#utility.yul\":7262:7300   */\n      tag_386\n        /* \"#utility.yul\":7294:7299   */\n      dup3\n        /* \"#utility.yul\":7262:7300   */\n      tag_387\n      jump\t// in\n    tag_386:\n        /* \"#utility.yul\":7316:7386   */\n      tag_388\n        /* \"#utility.yul\":7379:7385   */\n      dup2\n        /* \"#utility.yul\":7374:7377   */\n      dup6\n        /* \"#utility.yul\":7316:7386   */\n      tag_389\n      jump\t// in\n    tag_388:\n        /* \"#utility.yul\":7309:7386   */\n      swap4\n      pop\n        /* \"#utility.yul\":7395:7447   */\n      tag_390\n        /* \"#utility.yul\":7440:7446   */\n      dup2\n        /* \"#utility.yul\":7435:7438   */\n      dup6\n        /* \"#utility.yul\":7428:7432   */\n      0x20\n        /* \"#utility.yul\":7421:7426   */\n      dup7\n        /* \"#utility.yul\":7417:7433   */\n      add\n        /* \"#utility.yul\":7395:7447   */\n      tag_391\n      jump\t// in\n    tag_390:\n        /* \"#utility.yul\":7472:7501   */\n      tag_392\n        /* \"#utility.yul\":7494:7500   */\n      dup2\n        /* \"#utility.yul\":7472:7501   */\n      tag_393\n      jump\t// in\n    tag_392:\n        /* \"#utility.yul\":7467:7470   */\n      dup5\n        /* \"#utility.yul\":7463:7502   */\n      add\n        /* \"#utility.yul\":7456:7502   */\n      swap2\n      pop\n        /* \"#utility.yul\":7238:7508   */\n      pop\n        /* \"#utility.yul\":7148:7508   */\n      swap3\n      swap2\n      pop\n      pop\n      jump\t// out\n        /* \"#utility.yul\":7514:7887   */\n    tag_394:\n        /* \"#utility.yul\":7618:7621   */\n      0x00\n        /* \"#utility.yul\":7646:7684   */\n      tag_396\n        /* \"#utility.yul\":7678:7683   */\n      dup3\n        /* \"#utility.yul\":7646:7684   */\n      tag_387\n      jump\t// in\n    tag_396:\n        /* \"#utility.yul\":7700:7788   */\n      tag_397\n        /* \"#utility.yul\":7781:7787   */\n      dup2\n        /* \"#utility.yul\":7776:7779   */\n      dup6\n        /* \"#utility.yul\":7700:7788   */\n      tag_398\n      jump\t// in\n    tag_397:\n        /* \"#utility.yul\":7693:7788   */\n      swap4\n      pop\n        /* \"#utility.yul\":7797:7849   */\n      tag_399\n        /* \"#utility.yul\":7842:7848   */\n      dup2\n        /* \"#utility.yul\":7837:7840   */\n      dup6\n        /* \"#utility.yul\":7830:7834   */\n      0x20\n        /* \"#utility.yul\":7823:7828   */\n      dup7\n        /* \"#utility.yul\":7819:7835   */\n      add\n        /* \"#utility.yul\":7797:7849   */\n      tag_391\n      jump\t// in\n    tag_399:\n        /* \"#utility.yul\":7874:7880   */\n      dup1\n        /* \"#utility.yul\":7869:7872   */\n      dup5\n        /* \"#utility.yul\":7865:7881   */\n      add\n        /* \"#utility.yul\":7858:7881   */\n      swap2\n      pop\n        /* \"#utility.yul\":7622:7887   */\n      pop\n        /* \"#utility.yul\":7514:7887   */\n      swap3\n      swap2\n      pop\n      pop\n      jump\t// out\n        /* \"#utility.yul\":7893:8257   */\n    tag_400:\n        /* \"#utility.yul\":7981:7984   */\n      0x00\n        /* \"#utility.yul\":8009:8048   */\n      tag_402\n        /* \"#utility.yul\":8042:8047   */\n      dup3\n        /* \"#utility.yul\":8009:8048   */\n      tag_403\n      jump\t// in\n    tag_402:\n        /* \"#utility.yul\":8064:8135   */\n      tag_404\n        /* \"#utility.yul\":8128:8134   */\n      dup2\n        /* \"#utility.yul\":8123:8126   */\n      dup6\n        /* \"#utility.yul\":8064:8135   */\n      tag_405\n      jump\t// in\n    tag_404:\n        /* \"#utility.yul\":8057:8135   */\n      swap4\n      pop\n        /* \"#utility.yul\":8144:8196   */\n      tag_406\n        /* \"#utility.yul\":8189:8195   */\n      dup2\n        /* \"#utility.yul\":8184:8187   */\n      dup6\n        /* \"#utility.yul\":8177:8181   */\n      0x20\n        /* \"#utility.yul\":8170:8175   */\n      dup7\n        /* \"#utility.yul\":8166:8182   */\n      add\n        /* \"#utility.yul\":8144:8196   */\n      tag_391\n      jump\t// in\n    tag_406:\n        /* \"#utility.yul\":8221:8250   */\n      tag_407\n        /* \"#utility.yul\":8243:8249   */\n      dup2\n        /* \"#utility.yul\":8221:8250   */\n      tag_393\n      jump\t// in\n    tag_407:\n        /* \"#utility.yul\":8216:8219   */\n      dup5\n        /* \"#utility.yul\":8212:8251   */\n      add\n        /* \"#utility.yul\":8205:8251   */\n      swap2\n      pop\n        /* \"#utility.yul\":7985:8257   */\n      pop\n        /* \"#utility.yul\":7893:8257   */\n      swap3\n      swap2\n      pop\n      pop\n      jump\t// out\n        /* \"#utility.yul\":8263:8629   */\n    tag_408:\n        /* \"#utility.yul\":8405:8408   */\n      0x00\n        /* \"#utility.yul\":8426:8493   */\n      tag_410\n        /* \"#utility.yul\":8490:8492   */\n      0x1c\n        /* \"#utility.yul\":8485:8488   */\n      dup4\n        /* \"#utility.yul\":8426:8493   */\n      tag_405\n      jump\t// in\n    tag_410:\n        /* \"#utility.yul\":8419:8493   */\n      swap2\n      pop\n        /* \"#utility.yul\":8502:8595   */\n      tag_411\n        /* \"#utility.yul\":8591:8594   */\n      dup3\n        /* \"#utility.yul\":8502:8595   */\n      tag_412\n      jump\t// in\n    tag_411:\n        /* \"#utility.yul\":8620:8622   */\n      0x20\n        /* \"#utility.yul\":8615:8618   */\n      dup3\n        /* \"#utility.yul\":8611:8623   */\n      add\n        /* \"#utility.yul\":8604:8623   */\n      swap1\n      pop\n        /* \"#utility.yul\":8263:8629   */\n      swap2\n      swap1\n      pop\n      jump\t// out\n        /* \"#utility.yul\":8635:9001   */\n    tag_413:\n        /* \"#utility.yul\":8777:8780   */\n      0x00\n        /* \"#utility.yul\":8798:8865   */\n      tag_415\n        /* \"#utility.yul\":8862:8864   */\n      0x1f\n        /* \"#utility.yul\":8857:8860   */\n      dup4\n        /* \"#utility.yul\":8798:8865   */\n      tag_405\n      jump\t// in\n    tag_415:\n        /* \"#utility.yul\":8791:8865   */\n      swap2\n      pop\n        /* \"#utility.yul\":8874:8967   */\n      tag_416\n        /* \"#utility.yul\":8963:8966   */\n      dup3\n        /* \"#utility.yul\":8874:8967   */\n      tag_417\n      jump\t// in\n    tag_416:\n        /* \"#utility.yul\":8992:8994   */\n      0x20\n        /* \"#utility.yul\":8987:8990   */\n      dup3\n        /* \"#utility.yul\":8983:8995   */\n      add\n        /* \"#utility.yul\":8976:8995   */\n      swap1\n      pop\n        /* \"#utility.yul\":8635:9001   */\n      swap2\n      swap1\n      pop\n      jump\t// out\n        /* \"#utility.yul\":9007:9373   */\n    tag_418:\n        /* \"#utility.yul\":9149:9152   */\n      0x00\n        /* \"#utility.yul\":9170:9237   */\n      tag_420\n        /* \"#utility.yul\":9234:9236   */\n      0x26\n        /* \"#utility.yul\":9229:9232   */\n      dup4\n        /* \"#utility.yul\":9170:9237   */\n      tag_405\n      jump\t// in\n    tag_420:\n        /* \"#utility.yul\":9163:9237   */\n      swap2\n      pop\n        /* \"#utility.yul\":9246:9339   */\n      tag_421\n        /* \"#utility.yul\":9335:9338   */\n      dup3\n        /* \"#utility.yul\":9246:9339   */\n      tag_422\n      jump\t// in\n    tag_421:\n        /* \"#utility.yul\":9364:9366   */\n      0x40\n        /* \"#utility.yul\":9359:9362   */\n      dup3\n        /* \"#utility.yul\":9355:9367   */\n      add\n        /* \"#utility.yul\":9348:9367   */\n      swap1\n      pop\n        /* \"#utility.yul\":9007:9373   */\n      swap2\n      swap1\n      pop\n      jump\t// out\n        /* \"#utility.yul\":9379:9745   */\n    tag_423:\n        /* \"#utility.yul\":9521:9524   */\n      0x00\n        /* \"#utility.yul\":9542:9609   */\n      tag_425\n        /* \"#utility.yul\":9606:9608   */\n      0x1c\n        /* \"#utility.yul\":9601:9604   */\n      dup4\n        /* \"#utility.yul\":9542:9609   */\n      tag_405\n      jump\t// in\n    tag_425:\n        /* \"#utility.yul\":9535:9609   */\n      swap2\n      pop\n        /* \"#utility.yul\":9618:9711   */\n      tag_426\n        /* \"#utility.yul\":9707:9710   */\n      dup3\n        /* \"#utility.yul\":9618:9711   */\n      tag_427\n      jump\t// in\n    tag_426:\n        /* \"#utility.yul\":9736:9738   */\n      0x20\n        /* \"#utility.yul\":9731:9734   */\n      dup3\n        /* \"#utility.yul\":9727:9739   */\n      add\n        /* \"#utility.yul\":9720:9739   */\n      swap1\n      pop\n        /* \"#utility.yul\":9379:9745   */\n      swap2\n      swap1\n      pop\n      jump\t// out\n        /* \"#utility.yul\":9751:10117   */\n    tag_428:\n        /* \"#utility.yul\":9893:9896   */\n      0x00\n        /* \"#utility.yul\":9914:9981   */\n      tag_430\n        /* \"#utility.yul\":9978:9980   */\n      0x19\n        /* \"#utility.yul\":9973:9976   */\n      dup4\n        /* \"#utility.yul\":9914:9981   */\n      tag_405\n      jump\t// in\n    tag_430:\n        /* \"#utility.yul\":9907:9981   */\n      swap2\n      pop\n        /* \"#utility.yul\":9990:10083   */\n      tag_431\n        /* \"#utility.yul\":10079:10082   */\n      dup3\n        /* \"#utility.yul\":9990:10083   */\n      tag_432\n      jump\t// in\n    tag_431:\n        /* \"#utility.yul\":10108:10110   */\n      0x20\n        /* \"#utility.yul\":10103:10106   */\n      dup3\n        /* \"#utility.yul\":10099:10111   */\n      add\n        /* \"#utility.yul\":10092:10111   */\n      swap1\n      pop\n        /* \"#utility.yul\":9751:10117   */\n      swap2\n      swap1\n      pop\n      jump\t// out\n        /* \"#utility.yul\":10123:10489   */\n    tag_433:\n        /* \"#utility.yul\":10265:10268   */\n      0x00\n        /* \"#utility.yul\":10286:10353   */\n      tag_435\n        /* \"#utility.yul\":10350:10352   */\n      0x18\n        /* \"#utility.yul\":10345:10348   */\n      dup4\n        /* \"#utility.yul\":10286:10353   */\n      tag_405\n      jump\t// in\n    tag_435:\n        /* \"#utility.yul\":10279:10353   */\n      swap2\n      pop\n        /* \"#utility.yul\":10362:10455   */\n      tag_436\n        /* \"#utility.yul\":10451:10454   */\n      dup3\n        /* \"#utility.yul\":10362:10455   */\n      tag_437\n      jump\t// in\n    tag_436:\n        /* \"#utility.yul\":10480:10482   */\n      0x20\n        /* \"#utility.yul\":10475:10478   */\n      dup3\n        /* \"#utility.yul\":10471:10483   */\n      add\n        /* \"#utility.yul\":10464:10483   */\n      swap1\n      pop\n        /* \"#utility.yul\":10123:10489   */\n      swap2\n      swap1\n      pop\n      jump\t// out\n        /* \"#utility.yul\":10495:10861   */\n    tag_438:\n        /* \"#utility.yul\":10637:10640   */\n      0x00\n        /* \"#utility.yul\":10658:10725   */\n      tag_440\n        /* \"#utility.yul\":10722:10724   */\n      0x20\n        /* \"#utility.yul\":10717:10720   */\n      dup4\n        /* \"#utility.yul\":10658:10725   */\n      tag_405\n      jump\t// in\n    tag_440:\n        /* \"#utility.yul\":10651:10725   */\n      swap2\n      pop\n        /* \"#utility.yul\":10734:10827   */\n      tag_441\n        /* \"#utility.yul\":10823:10826   */\n      dup3\n        /* \"#utility.yul\":10734:10827   */\n      tag_442\n      jump\t// in\n    tag_441:\n        /* \"#utility.yul\":10852:10854   */\n      0x20\n        /* \"#utility.yul\":10847:10850   */\n      dup3\n        /* \"#utility.yul\":10843:10855   */\n      add\n        /* \"#utility.yul\":10836:10855   */\n      swap1\n      pop\n        /* \"#utility.yul\":10495:10861   */\n      swap2\n      swap1\n      pop\n      jump\t// out\n        /* \"#utility.yul\":10867:11233   */\n    tag_443:\n        /* \"#utility.yul\":11009:11012   */\n      0x00\n        /* \"#utility.yul\":11030:11097   */\n      tag_445\n        /* \"#utility.yul\":11094:11096   */\n      0x20\n        /* \"#utility.yul\":11089:11092   */\n      dup4\n        /* \"#utility.yul\":11030:11097   */\n      tag_405\n      jump\t// in\n    tag_445:\n        /* \"#utility.yul\":11023:11097   */\n      swap2\n      pop\n        /* \"#utility.yul\":11106:11199   */\n      tag_446\n        /* \"#utility.yul\":11195:11198   */\n      dup3\n        /* \"#utility.yul\":11106:11199   */\n      tag_447\n      jump\t// in\n    tag_446:\n        /* \"#utility.yul\":11224:11226   */\n      0x20\n        /* \"#utility.yul\":11219:11222   */\n      dup3\n        /* \"#utility.yul\":11215:11227   */\n      add\n        /* \"#utility.yul\":11208:11227   */\n      swap1\n      pop\n        /* \"#utility.yul\":10867:11233   */\n      swap2\n      swap1\n      pop\n      jump\t// out\n        /* \"#utility.yul\":11239:11605   */\n    tag_448:\n        /* \"#utility.yul\":11381:11384   */\n      0x00\n        /* \"#utility.yul\":11402:11469   */\n      tag_450\n        /* \"#utility.yul\":11466:11468   */\n      0x20\n        /* \"#utility.yul\":11461:11464   */\n      dup4\n        /* \"#utility.yul\":11402:11469   */\n      tag_405\n      jump\t// in\n    tag_450:\n        /* \"#utility.yul\":11395:11469   */\n      swap2\n      pop\n        /* \"#utility.yul\":11478:11571   */\n      tag_451\n        /* \"#utility.yul\":11567:11570   */\n      dup3\n        /* \"#utility.yul\":11478:11571   */\n      tag_452\n      jump\t// in\n    tag_451:\n        /* \"#utility.yul\":11596:11598   */\n      0x20\n        /* \"#utility.yul\":11591:11594   */\n      dup3\n        /* \"#utility.yul\":11587:11599   */\n      add\n        /* \"#utility.yul\":11580:11599   */\n      swap1\n      pop\n        /* \"#utility.yul\":11239:11605   */\n      swap2\n      swap1\n      pop\n      jump\t// out\n        /* \"#utility.yul\":11611:11977   */\n    tag_453:\n        /* \"#utility.yul\":11753:11756   */\n      0x00\n        /* \"#utility.yul\":11774:11841   */\n      tag_455\n        /* \"#utility.yul\":11838:11840   */\n      0x1f\n        /* \"#utility.yul\":11833:11836   */\n      dup4\n        /* \"#utility.yul\":11774:11841   */\n      tag_405\n      jump\t// in\n    tag_455:\n        /* \"#utility.yul\":11767:11841   */\n      swap2\n      pop\n        /* \"#utility.yul\":11850:11943   */\n      tag_456\n        /* \"#utility.yul\":11939:11942   */\n      dup3\n        /* \"#utility.yul\":11850:11943   */\n      tag_457\n      jump\t// in\n    tag_456:\n        /* \"#utility.yul\":11968:11970   */\n      0x20\n        /* \"#utility.yul\":11963:11966   */\n      dup3\n        /* \"#utility.yul\":11959:11971   */\n      add\n        /* \"#utility.yul\":11952:11971   */\n      swap1\n      pop\n        /* \"#utility.yul\":11611:11977   */\n      swap2\n      swap1\n      pop\n      jump\t// out\n        /* \"#utility.yul\":11983:12349   */\n    tag_458:\n        /* \"#utility.yul\":12125:12128   */\n      0x00\n        /* \"#utility.yul\":12146:12213   */\n      tag_460\n        /* \"#utility.yul\":12210:12212   */\n      0x1e\n        /* \"#utility.yul\":12205:12208   */\n      dup4\n        /* \"#utility.yul\":12146:12213   */\n      tag_405\n      jump\t// in\n    tag_460:\n        /* \"#utility.yul\":12139:12213   */\n      swap2\n      pop\n        /* \"#utility.yul\":12222:12315   */\n      tag_461\n        /* \"#utility.yul\":12311:12314   */\n      dup3\n        /* \"#utility.yul\":12222:12315   */\n      tag_462\n      jump\t// in\n    tag_461:\n        /* \"#utility.yul\":12340:12342   */\n      0x20\n        /* \"#utility.yul\":12335:12338   */\n      dup3\n        /* \"#utility.yul\":12331:12343   */\n      add\n        /* \"#utility.yul\":12324:12343   */\n      swap1\n      pop\n        /* \"#utility.yul\":11983:12349   */\n      swap2\n      swap1\n      pop\n      jump\t// out\n        /* \"#utility.yul\":12355:12721   */\n    tag_463:\n        /* \"#utility.yul\":12497:12500   */\n      0x00\n        /* \"#utility.yul\":12518:12585   */\n      tag_465\n        /* \"#utility.yul\":12582:12584   */\n      0x1c\n        /* \"#utility.yul\":12577:12580   */\n      dup4\n        /* \"#utility.yul\":12518:12585   */\n      tag_405\n      jump\t// in\n    tag_465:\n        /* \"#utility.yul\":12511:12585   */\n      swap2\n      pop\n        /* \"#utility.yul\":12594:12687   */\n      tag_466\n        /* \"#utility.yul\":12683:12686   */\n      dup3\n        /* \"#utility.yul\":12594:12687   */\n      tag_467\n      jump\t// in\n    tag_466:\n        /* \"#utility.yul\":12712:12714   */\n      0x20\n        /* \"#utility.yul\":12707:12710   */\n      dup3\n        /* \"#utility.yul\":12703:12715   */\n      add\n        /* \"#utility.yul\":12696:12715   */\n      swap1\n      pop\n        /* \"#utility.yul\":12355:12721   */\n      swap2\n      swap1\n      pop\n      jump\t// out\n        /* \"#utility.yul\":12727:13093   */\n    tag_468:\n        /* \"#utility.yul\":12869:12872   */\n      0x00\n        /* \"#utility.yul\":12890:12957   */\n      tag_470\n        /* \"#utility.yul\":12954:12956   */\n      0x1b\n        /* \"#utility.yul\":12949:12952   */\n      dup4\n        /* \"#utility.yul\":12890:12957   */\n      tag_405\n      jump\t// in\n    tag_470:\n        /* \"#utility.yul\":12883:12957   */\n      swap2\n      pop\n        /* \"#utility.yul\":12966:13059   */\n      tag_471\n        /* \"#utility.yul\":13055:13058   */\n      dup3\n        /* \"#utility.yul\":12966:13059   */\n      tag_472\n      jump\t// in\n    tag_471:\n        /* \"#utility.yul\":13084:13086   */\n      0x20\n        /* \"#utility.yul\":13079:13082   */\n      dup3\n        /* \"#utility.yul\":13075:13087   */\n      add\n        /* \"#utility.yul\":13068:13087   */\n      swap1\n      pop\n        /* \"#utility.yul\":12727:13093   */\n      swap2\n      swap1\n      pop\n      jump\t// out\n        /* \"#utility.yul\":13179:14112   */\n    tag_473:\n        /* \"#utility.yul\":13342:13346   */\n      0x80\n        /* \"#utility.yul\":13337:13340   */\n      dup3\n        /* \"#utility.yul\":13333:13347   */\n      add\n        /* \"#utility.yul\":13441:13445   */\n      0x00\n        /* \"#utility.yul\":13434:13439   */\n      dup3\n        /* \"#utility.yul\":13430:13446   */\n      add\n        /* \"#utility.yul\":13424:13447   */\n      mload\n        /* \"#utility.yul\":13460:13523   */\n      tag_475\n        /* \"#utility.yul\":13517:13521   */\n      0x00\n        /* \"#utility.yul\":13512:13515   */\n      dup6\n        /* \"#utility.yul\":13508:13522   */\n      add\n        /* \"#utility.yul\":13494:13506   */\n      dup3\n        /* \"#utility.yul\":13460:13523   */\n      tag_476\n      jump\t// in\n    tag_475:\n        /* \"#utility.yul\":13357:13533   */\n      pop\n        /* \"#utility.yul\":13633:13637   */\n      0x20\n        /* \"#utility.yul\":13626:13631   */\n      dup3\n        /* \"#utility.yul\":13622:13638   */\n      add\n        /* \"#utility.yul\":13616:13639   */\n      mload\n        /* \"#utility.yul\":13652:13715   */\n      tag_477\n        /* \"#utility.yul\":13709:13713   */\n      0x20\n        /* \"#utility.yul\":13704:13707   */\n      dup6\n        /* \"#utility.yul\":13700:13714   */\n      add\n        /* \"#utility.yul\":13686:13698   */\n      dup3\n        /* \"#utility.yul\":13652:13715   */\n      tag_476\n      jump\t// in\n    tag_477:\n        /* \"#utility.yul\":13543:13725   */\n      pop\n        /* \"#utility.yul\":13826:13830   */\n      0x40\n        /* \"#utility.yul\":13819:13824   */\n      dup3\n        /* \"#utility.yul\":13815:13831   */\n      add\n        /* \"#utility.yul\":13809:13832   */\n      mload\n        /* \"#utility.yul\":13845:13908   */\n      tag_478\n        /* \"#utility.yul\":13902:13906   */\n      0x40\n        /* \"#utility.yul\":13897:13900   */\n      dup6\n        /* \"#utility.yul\":13893:13907   */\n      add\n        /* \"#utility.yul\":13879:13891   */\n      dup3\n        /* \"#utility.yul\":13845:13908   */\n      tag_476\n      jump\t// in\n    tag_478:\n        /* \"#utility.yul\":13735:13918   */\n      pop\n        /* \"#utility.yul\":14013:14017   */\n      0x60\n        /* \"#utility.yul\":14006:14011   */\n      dup3\n        /* \"#utility.yul\":14002:14018   */\n      add\n        /* \"#utility.yul\":13996:14019   */\n      mload\n        /* \"#utility.yul\":14032:14095   */\n      tag_479\n        /* \"#utility.yul\":14089:14093   */\n      0x60\n        /* \"#utility.yul\":14084:14087   */\n      dup6\n        /* \"#utility.yul\":14080:14094   */\n      add\n        /* \"#utility.yul\":14066:14078   */\n      dup3\n        /* \"#utility.yul\":14032:14095   */\n      tag_476\n      jump\t// in\n    tag_479:\n        /* \"#utility.yul\":13928:14105   */\n      pop\n        /* \"#utility.yul\":13311:14112   */\n      pop\n        /* \"#utility.yul\":13179:14112   */\n      pop\n      pop\n      jump\t// out\n        /* \"#utility.yul\":14118:14226   */\n    tag_476:\n        /* \"#utility.yul\":14195:14219   */\n      tag_481\n        /* \"#utility.yul\":14213:14218   */\n      dup2\n        /* \"#utility.yul\":14195:14219   */\n      tag_482\n      jump\t// in\n    tag_481:\n        /* \"#utility.yul\":14190:14193   */\n      dup3\n        /* \"#utility.yul\":14183:14220   */\n      mstore\n        /* \"#utility.yul\":14118:14226   */\n      pop\n      pop\n      jump\t// out\n        /* \"#utility.yul\":14232:14350   */\n    tag_483:\n        /* \"#utility.yul\":14319:14343   */\n      tag_485\n        /* \"#utility.yul\":14337:14342   */\n      dup2\n        /* \"#utility.yul\":14319:14343   */\n      tag_482\n      jump\t// in\n    tag_485:\n        /* \"#utility.yul\":14314:14317   */\n      dup3\n        /* \"#utility.yul\":14307:14344   */\n      mstore\n        /* \"#utility.yul\":14232:14350   */\n      pop\n      pop\n      jump\t// out\n        /* \"#utility.yul\":14356:14627   */\n    tag_248:\n        /* \"#utility.yul\":14486:14489   */\n      0x00\n        /* \"#utility.yul\":14508:14601   */\n      tag_487\n        /* \"#utility.yul\":14597:14600   */\n      dup3\n        /* \"#utility.yul\":14588:14594   */\n      dup5\n        /* \"#utility.yul\":14508:14601   */\n      tag_394\n      jump\t// in\n    tag_487:\n        /* \"#utility.yul\":14501:14601   */\n      swap2\n      pop\n        /* \"#utility.yul\":14618:14621   */\n      dup2\n        /* \"#utility.yul\":14611:14621   */\n      swap1\n      pop\n        /* \"#utility.yul\":14356:14627   */\n      swap3\n      swap2\n      pop\n      pop\n      jump\t// out\n        /* \"#utility.yul\":14633:14855   */\n    tag_31:\n        /* \"#utility.yul\":14726:14730   */\n      0x00\n        /* \"#utility.yul\":14764:14766   */\n      0x20\n        /* \"#utility.yul\":14753:14762   */\n      dup3\n        /* \"#utility.yul\":14749:14767   */\n      add\n        /* \"#utility.yul\":14741:14767   */\n      swap1\n      pop\n        /* \"#utility.yul\":14777:14848   */\n      tag_489\n        /* \"#utility.yul\":14845:14846   */\n      0x00\n        /* \"#utility.yul\":14834:14843   */\n      dup4\n        /* \"#utility.yul\":14830:14847   */\n      add\n        /* \"#utility.yul\":14821:14827   */\n      dup5\n        /* \"#utility.yul\":14777:14848   */\n      tag_372\n      jump\t// in\n    tag_489:\n        /* \"#utility.yul\":14633:14855   */\n      swap3\n      swap2\n      pop\n      pop\n      jump\t// out\n        /* \"#utility.yul\":14861:15225   */\n    tag_146:\n        /* \"#utility.yul\":14998:15002   */\n      0x00\n        /* \"#utility.yul\":15036:15038   */\n      0x40\n        /* \"#utility.yul\":15025:15034   */\n      dup3\n        /* \"#utility.yul\":15021:15039   */\n      add\n        /* \"#utility.yul\":15013:15039   */\n      swap1\n      pop\n        /* \"#utility.yul\":15049:15136   */\n      tag_491\n        /* \"#utility.yul\":15133:15134   */\n      0x00\n        /* \"#utility.yul\":15122:15131   */\n      dup4\n        /* \"#utility.yul\":15118:15135   */\n      add\n        /* \"#utility.yul\":15109:15115   */\n      dup6\n        /* \"#utility.yul\":15049:15136   */\n      tag_368\n      jump\t// in\n    tag_491:\n        /* \"#utility.yul\":15146:15218   */\n      tag_492\n        /* \"#utility.yul\":15214:15216   */\n      0x20\n        /* \"#utility.yul\":15203:15212   */\n      dup4\n        /* \"#utility.yul\":15199:15217   */\n      add\n        /* \"#utility.yul\":15190:15196   */\n      dup5\n        /* \"#utility.yul\":15146:15218   */\n      tag_483\n      jump\t// in\n    tag_492:\n        /* \"#utility.yul\":14861:15225   */\n      swap4\n      swap3\n      pop\n      pop\n      pop\n      jump\t// out\n        /* \"#utility.yul\":15231:15441   */\n    tag_48:\n        /* \"#utility.yul\":15318:15322   */\n      0x00\n        /* \"#utility.yul\":15356:15358   */\n      0x20\n        /* \"#utility.yul\":15345:15354   */\n      dup3\n        /* \"#utility.yul\":15341:15359   */\n      add\n        /* \"#utility.yul\":15333:15359   */\n      swap1\n      pop\n        /* \"#utility.yul\":15369:15434   */\n      tag_494\n        /* \"#utility.yul\":15431:15432   */\n      0x00\n        /* \"#utility.yul\":15420:15429   */\n      dup4\n        /* \"#utility.yul\":15416:15433   */\n      add\n        /* \"#utility.yul\":15407:15413   */\n      dup5\n        /* \"#utility.yul\":15369:15434   */\n      tag_376\n      jump\t// in\n    tag_494:\n        /* \"#utility.yul\":15231:15441   */\n      swap3\n      swap2\n      pop\n      pop\n      jump\t// out\n        /* \"#utility.yul\":15447:15665   */\n    tag_270:\n        /* \"#utility.yul\":15538:15542   */\n      0x00\n        /* \"#utility.yul\":15576:15578   */\n      0x20\n        /* \"#utility.yul\":15565:15574   */\n      dup3\n        /* \"#utility.yul\":15561:15579   */\n      add\n        /* \"#utility.yul\":15553:15579   */\n      swap1\n      pop\n        /* \"#utility.yul\":15589:15658   */\n      tag_496\n        /* \"#utility.yul\":15655:15656   */\n      0x00\n        /* \"#utility.yul\":15644:15653   */\n      dup4\n        /* \"#utility.yul\":15640:15657   */\n      add\n        /* \"#utility.yul\":15631:15637   */\n      dup5\n        /* \"#utility.yul\":15589:15658   */\n      tag_380\n      jump\t// in\n    tag_496:\n        /* \"#utility.yul\":15447:15665   */\n      swap3\n      swap2\n      pop\n      pop\n      jump\t// out\n        /* \"#utility.yul\":15671:16078   */\n    tag_41:\n        /* \"#utility.yul\":15804:15808   */\n      0x00\n        /* \"#utility.yul\":15842:15844   */\n      0x40\n        /* \"#utility.yul\":15831:15840   */\n      dup3\n        /* \"#utility.yul\":15827:15845   */\n      add\n        /* \"#utility.yul\":15819:15845   */\n      swap1\n      pop\n        /* \"#utility.yul\":15891:15900   */\n      dup2\n        /* \"#utility.yul\":15885:15889   */\n      dup2\n        /* \"#utility.yul\":15881:15901   */\n      sub\n        /* \"#utility.yul\":15877:15878   */\n      0x00\n        /* \"#utility.yul\":15866:15875   */\n      dup4\n        /* \"#utility.yul\":15862:15879   */\n      add\n        /* \"#utility.yul\":15855:15902   */\n      mstore\n        /* \"#utility.yul\":15919:15995   */\n      tag_498\n        /* \"#utility.yul\":15990:15994   */\n      dup2\n        /* \"#utility.yul\":15981:15987   */\n      dup6\n        /* \"#utility.yul\":15919:15995   */\n      tag_384\n      jump\t// in\n    tag_498:\n        /* \"#utility.yul\":15911:15995   */\n      swap1\n      pop\n        /* \"#utility.yul\":16005:16071   */\n      tag_499\n        /* \"#utility.yul\":16067:16069   */\n      0x20\n        /* \"#utility.yul\":16056:16065   */\n      dup4\n        /* \"#utility.yul\":16052:16070   */\n      add\n        /* \"#utility.yul\":16043:16049   */\n      dup5\n        /* \"#utility.yul\":16005:16071   */\n      tag_376\n      jump\t// in\n    tag_499:\n        /* \"#utility.yul\":15671:16078   */\n      swap4\n      swap3\n      pop\n      pop\n      pop\n      jump\t// out\n        /* \"#utility.yul\":16084:16397   */\n    tag_84:\n        /* \"#utility.yul\":16197:16201   */\n      0x00\n        /* \"#utility.yul\":16235:16237   */\n      0x20\n        /* \"#utility.yul\":16224:16233   */\n      dup3\n        /* \"#utility.yul\":16220:16238   */\n      add\n        /* \"#utility.yul\":16212:16238   */\n      swap1\n      pop\n        /* \"#utility.yul\":16284:16293   */\n      dup2\n        /* \"#utility.yul\":16278:16282   */\n      dup2\n        /* \"#utility.yul\":16274:16294   */\n      sub\n        /* \"#utility.yul\":16270:16271   */\n      0x00\n        /* \"#utility.yul\":16259:16268   */\n      dup4\n        /* \"#utility.yul\":16255:16272   */\n      add\n        /* \"#utility.yul\":16248:16295   */\n      mstore\n        /* \"#utility.yul\":16312:16390   */\n      tag_501\n        /* \"#utility.yul\":16385:16389   */\n      dup2\n        /* \"#utility.yul\":16376:16382   */\n      dup5\n        /* \"#utility.yul\":16312:16390   */\n      tag_400\n      jump\t// in\n    tag_501:\n        /* \"#utility.yul\":16304:16390   */\n      swap1\n      pop\n        /* \"#utility.yul\":16084:16397   */\n      swap3\n      swap2\n      pop\n      pop\n      jump\t// out\n        /* \"#utility.yul\":16403:16822   */\n    tag_219:\n        /* \"#utility.yul\":16569:16573   */\n      0x00\n        /* \"#utility.yul\":16607:16609   */\n      0x20\n        /* \"#utility.yul\":16596:16605   */\n      dup3\n        /* \"#utility.yul\":16592:16610   */\n      add\n        /* \"#utility.yul\":16584:16610   */\n      swap1\n      pop\n        /* \"#utility.yul\":16656:16665   */\n      dup2\n        /* \"#utility.yul\":16650:16654   */\n      dup2\n        /* \"#utility.yul\":16646:16666   */\n      sub\n        /* \"#utility.yul\":16642:16643   */\n      0x00\n        /* \"#utility.yul\":16631:16640   */\n      dup4\n        /* \"#utility.yul\":16627:16644   */\n      add\n        /* \"#utility.yul\":16620:16667   */\n      mstore\n        /* \"#utility.yul\":16684:16815   */\n      tag_503\n        /* \"#utility.yul\":16810:16814   */\n      dup2\n        /* \"#utility.yul\":16684:16815   */\n      tag_408\n      jump\t// in\n    tag_503:\n        /* \"#utility.yul\":16676:16815   */\n      swap1\n      pop\n        /* \"#utility.yul\":16403:16822   */\n      swap2\n      swap1\n      pop\n      jump\t// out\n        /* \"#utility.yul\":16828:17247   */\n    tag_262:\n        /* \"#utility.yul\":16994:16998   */\n      0x00\n        /* \"#utility.yul\":17032:17034   */\n      0x20\n        /* \"#utility.yul\":17021:17030   */\n      dup3\n        /* \"#utility.yul\":17017:17035   */\n      add\n        /* \"#utility.yul\":17009:17035   */\n      swap1\n      pop\n        /* \"#utility.yul\":17081:17090   */\n      dup2\n        /* \"#utility.yul\":17075:17079   */\n      dup2\n        /* \"#utility.yul\":17071:17091   */\n      sub\n        /* \"#utility.yul\":17067:17068   */\n      0x00\n        /* \"#utility.yul\":17056:17065   */\n      dup4\n        /* \"#utility.yul\":17052:17069   */\n      add\n        /* \"#utility.yul\":17045:17092   */\n      mstore\n        /* \"#utility.yul\":17109:17240   */\n      tag_505\n        /* \"#utility.yul\":17235:17239   */\n      dup2\n        /* \"#utility.yul\":17109:17240   */\n      tag_413\n      jump\t// in\n    tag_505:\n        /* \"#utility.yul\":17101:17240   */\n      swap1\n      pop\n        /* \"#utility.yul\":16828:17247   */\n      swap2\n      swap1\n      pop\n      jump\t// out\n        /* \"#utility.yul\":17253:17672   */\n    tag_190:\n        /* \"#utility.yul\":17419:17423   */\n      0x00\n        /* \"#utility.yul\":17457:17459   */\n      0x20\n        /* \"#utility.yul\":17446:17455   */\n      dup3\n        /* \"#utility.yul\":17442:17460   */\n      add\n        /* \"#utility.yul\":17434:17460   */\n      swap1\n      pop\n        /* \"#utility.yul\":17506:17515   */\n      dup2\n        /* \"#utility.yul\":17500:17504   */\n      dup2\n        /* \"#utility.yul\":17496:17516   */\n      sub\n        /* \"#utility.yul\":17492:17493   */\n      0x00\n        /* \"#utility.yul\":17481:17490   */\n      dup4\n        /* \"#utility.yul\":17477:17494   */\n      add\n        /* \"#utility.yul\":17470:17517   */\n      mstore\n        /* \"#utility.yul\":17534:17665   */\n      tag_507\n        /* \"#utility.yul\":17660:17664   */\n      dup2\n        /* \"#utility.yul\":17534:17665   */\n      tag_418\n      jump\t// in\n    tag_507:\n        /* \"#utility.yul\":17526:17665   */\n      swap1\n      pop\n        /* \"#utility.yul\":17253:17672   */\n      swap2\n      swap1\n      pop\n      jump\t// out\n        /* \"#utility.yul\":17678:18097   */\n    tag_254:\n        /* \"#utility.yul\":17844:17848   */\n      0x00\n        /* \"#utility.yul\":17882:17884   */\n      0x20\n        /* \"#utility.yul\":17871:17880   */\n      dup3\n        /* \"#utility.yul\":17867:17885   */\n      add\n        /* \"#utility.yul\":17859:17885   */\n      swap1\n      pop\n        /* \"#utility.yul\":17931:17940   */\n      dup2\n        /* \"#utility.yul\":17925:17929   */\n      dup2\n        /* \"#utility.yul\":17921:17941   */\n      sub\n        /* \"#utility.yul\":17917:17918   */\n      0x00\n        /* \"#utility.yul\":17906:17915   */\n      dup4\n        /* \"#utility.yul\":17902:17919   */\n      add\n        /* \"#utility.yul\":17895:17942   */\n      mstore\n        /* \"#utility.yul\":17959:18090   */\n      tag_509\n        /* \"#utility.yul\":18085:18089   */\n      dup2\n        /* \"#utility.yul\":17959:18090   */\n      tag_423\n      jump\t// in\n    tag_509:\n        /* \"#utility.yul\":17951:18090   */\n      swap1\n      pop\n        /* \"#utility.yul\":17678:18097   */\n      swap2\n      swap1\n      pop\n      jump\t// out\n        /* \"#utility.yul\":18103:18522   */\n    tag_29:\n        /* \"#utility.yul\":18269:18273   */\n      0x00\n        /* \"#utility.yul\":18307:18309   */\n      0x20\n        /* \"#utility.yul\":18296:18305   */\n      dup3\n        /* \"#utility.yul\":18292:18310   */\n      add\n        /* \"#utility.yul\":18284:18310   */\n      swap1\n      pop\n        /* \"#utility.yul\":18356:18365   */\n      dup2\n        /* \"#utility.yul\":18350:18354   */\n      dup2\n        /* \"#utility.yul\":18346:18366   */\n      sub\n        /* \"#utility.yul\":18342:18343   */\n      0x00\n        /* \"#utility.yul\":18331:18340   */\n      dup4\n        /* \"#utility.yul\":18327:18344   */\n      add\n        /* \"#utility.yul\":18320:18367   */\n      mstore\n        /* \"#utility.yul\":18384:18515   */\n      tag_511\n        /* \"#utility.yul\":18510:18514   */\n      dup2\n        /* \"#utility.yul\":18384:18515   */\n      tag_428\n      jump\t// in\n    tag_511:\n        /* \"#utility.yul\":18376:18515   */\n      swap1\n      pop\n        /* \"#utility.yul\":18103:18522   */\n      swap2\n      swap1\n      pop\n      jump\t// out\n        /* \"#utility.yul\":18528:18947   */\n    tag_204:\n        /* \"#utility.yul\":18694:18698   */\n      0x00\n        /* \"#utility.yul\":18732:18734   */\n      0x20\n        /* \"#utility.yul\":18721:18730   */\n      dup3\n        /* \"#utility.yul\":18717:18735   */\n      add\n        /* \"#utility.yul\":18709:18735   */\n      swap1\n      pop\n        /* \"#utility.yul\":18781:18790   */\n      dup2\n        /* \"#utility.yul\":18775:18779   */\n      dup2\n        /* \"#utility.yul\":18771:18791   */\n      sub\n        /* \"#utility.yul\":18767:18768   */\n      0x00\n        /* \"#utility.yul\":18756:18765   */\n      dup4\n        /* \"#utility.yul\":18752:18769   */\n      add\n        /* \"#utility.yul\":18745:18792   */\n      mstore\n        /* \"#utility.yul\":18809:18940   */\n      tag_513\n        /* \"#utility.yul\":18935:18939   */\n      dup2\n        /* \"#utility.yul\":18809:18940   */\n      tag_433\n      jump\t// in\n    tag_513:\n        /* \"#utility.yul\":18801:18940   */\n      swap1\n      pop\n        /* \"#utility.yul\":18528:18947   */\n      swap2\n      swap1\n      pop\n      jump\t// out\n        /* \"#utility.yul\":18953:19372   */\n    tag_182:\n        /* \"#utility.yul\":19119:19123   */\n      0x00\n        /* \"#utility.yul\":19157:19159   */\n      0x20\n        /* \"#utility.yul\":19146:19155   */\n      dup3\n        /* \"#utility.yul\":19142:19160   */\n      add\n        /* \"#utility.yul\":19134:19160   */\n      swap1\n      pop\n        /* \"#utility.yul\":19206:19215   */\n      dup2\n        /* \"#utility.yul\":19200:19204   */\n      dup2\n        /* \"#utility.yul\":19196:19216   */\n      sub\n        /* \"#utility.yul\":19192:19193   */\n      0x00\n        /* \"#utility.yul\":19181:19190   */\n      dup4\n        /* \"#utility.yul\":19177:19194   */\n      add\n        /* \"#utility.yul\":19170:19217   */\n      mstore\n        /* \"#utility.yul\":19234:19365   */\n      tag_515\n        /* \"#utility.yul\":19360:19364   */\n      dup2\n        /* \"#utility.yul\":19234:19365   */\n      tag_438\n      jump\t// in\n    tag_515:\n        /* \"#utility.yul\":19226:19365   */\n      swap1\n      pop\n        /* \"#utility.yul\":18953:19372   */\n      swap2\n      swap1\n      pop\n      jump\t// out\n        /* \"#utility.yul\":19378:19797   */\n    tag_257:\n        /* \"#utility.yul\":19544:19548   */\n      0x00\n        /* \"#utility.yul\":19582:19584   */\n      0x20\n        /* \"#utility.yul\":19571:19580   */\n      dup3\n        /* \"#utility.yul\":19567:19585   */\n      add\n        /* \"#utility.yul\":19559:19585   */\n      swap1\n      pop\n        /* \"#utility.yul\":19631:19640   */\n      dup2\n        /* \"#utility.yul\":19625:19629   */\n      dup2\n        /* \"#utility.yul\":19621:19641   */\n      sub\n        /* \"#utility.yul\":19617:19618   */\n      0x00\n        /* \"#utility.yul\":19606:19615   */\n      dup4\n        /* \"#utility.yul\":19602:19619   */\n      add\n        /* \"#utility.yul\":19595:19642   */\n      mstore\n        /* \"#utility.yul\":19659:19790   */\n      tag_517\n        /* \"#utility.yul\":19785:19789   */\n      dup2\n        /* \"#utility.yul\":19659:19790   */\n      tag_443\n      jump\t// in\n    tag_517:\n        /* \"#utility.yul\":19651:19790   */\n      swap1\n      pop\n        /* \"#utility.yul\":19378:19797   */\n      swap2\n      swap1\n      pop\n      jump\t// out\n        /* \"#utility.yul\":19803:20222   */\n    tag_232:\n        /* \"#utility.yul\":19969:19973   */\n      0x00\n        /* \"#utility.yul\":20007:20009   */\n      0x20\n        /* \"#utility.yul\":19996:20005   */\n      dup3\n        /* \"#utility.yul\":19992:20010   */\n      add\n        /* \"#utility.yul\":19984:20010   */\n      swap1\n      pop\n        /* \"#utility.yul\":20056:20065   */\n      dup2\n        /* \"#utility.yul\":20050:20054   */\n      dup2\n        /* \"#utility.yul\":20046:20066   */\n      sub\n        /* \"#utility.yul\":20042:20043   */\n      0x00\n        /* \"#utility.yul\":20031:20040   */\n      dup4\n        /* \"#utility.yul\":20027:20044   */\n      add\n        /* \"#utility.yul\":20020:20067   */\n      mstore\n        /* \"#utility.yul\":20084:20215   */\n      tag_519\n        /* \"#utility.yul\":20210:20214   */\n      dup2\n        /* \"#utility.yul\":20084:20215   */\n      tag_448\n      jump\t// in\n    tag_519:\n        /* \"#utility.yul\":20076:20215   */\n      swap1\n      pop\n        /* \"#utility.yul\":19803:20222   */\n      swap2\n      swap1\n      pop\n      jump\t// out\n        /* \"#utility.yul\":20228:20647   */\n    tag_166:\n        /* \"#utility.yul\":20394:20398   */\n      0x00\n        /* \"#utility.yul\":20432:20434   */\n      0x20\n        /* \"#utility.yul\":20421:20430   */\n      dup3\n        /* \"#utility.yul\":20417:20435   */\n      add\n        /* \"#utility.yul\":20409:20435   */\n      swap1\n      pop\n        /* \"#utility.yul\":20481:20490   */\n      dup2\n        /* \"#utility.yul\":20475:20479   */\n      dup2\n        /* \"#utility.yul\":20471:20491   */\n      sub\n        /* \"#utility.yul\":20467:20468   */\n      0x00\n        /* \"#utility.yul\":20456:20465   */\n      dup4\n        /* \"#utility.yul\":20452:20469   */\n      add\n        /* \"#utility.yul\":20445:20492   */\n      mstore\n        /* \"#utility.yul\":20509:20640   */\n      tag_521\n        /* \"#utility.yul\":20635:20639   */\n      dup2\n        /* \"#utility.yul\":20509:20640   */\n      tag_453\n      jump\t// in\n    tag_521:\n        /* \"#utility.yul\":20501:20640   */\n      swap1\n      pop\n        /* \"#utility.yul\":20228:20647   */\n      swap2\n      swap1\n      pop\n      jump\t// out\n        /* \"#utility.yul\":20653:21072   */\n    tag_196:\n        /* \"#utility.yul\":20819:20823   */\n      0x00\n        /* \"#utility.yul\":20857:20859   */\n      0x20\n        /* \"#utility.yul\":20846:20855   */\n      dup3\n        /* \"#utility.yul\":20842:20860   */\n      add\n        /* \"#utility.yul\":20834:20860   */\n      swap1\n      pop\n        /* \"#utility.yul\":20906:20915   */\n      dup2\n        /* \"#utility.yul\":20900:20904   */\n      dup2\n        /* \"#utility.yul\":20896:20916   */\n      sub\n        /* \"#utility.yul\":20892:20893   */\n      0x00\n        /* \"#utility.yul\":20881:20890   */\n      dup4\n        /* \"#utility.yul\":20877:20894   */\n      add\n        /* \"#utility.yul\":20870:20917   */\n      mstore\n        /* \"#utility.yul\":20934:21065   */\n      tag_523\n        /* \"#utility.yul\":21060:21064   */\n      dup2\n        /* \"#utility.yul\":20934:21065   */\n      tag_458\n      jump\t// in\n    tag_523:\n        /* \"#utility.yul\":20926:21065   */\n      swap1\n      pop\n        /* \"#utility.yul\":20653:21072   */\n      swap2\n      swap1\n      pop\n      jump\t// out\n        /* \"#utility.yul\":21078:21497   */\n    tag_212:\n        /* \"#utility.yul\":21244:21248   */\n      0x00\n        /* \"#utility.yul\":21282:21284   */\n      0x20\n        /* \"#utility.yul\":21271:21280   */\n      dup3\n        /* \"#utility.yul\":21267:21285   */\n      add\n        /* \"#utility.yul\":21259:21285   */\n      swap1\n      pop\n        /* \"#utility.yul\":21331:21340   */\n      dup2\n        /* \"#utility.yul\":21325:21329   */\n      dup2\n        /* \"#utility.yul\":21321:21341   */\n      sub\n        /* \"#utility.yul\":21317:21318   */\n      0x00\n        /* \"#utility.yul\":21306:21315   */\n      dup4\n        /* \"#utility.yul\":21302:21319   */\n      add\n        /* \"#utility.yul\":21295:21342   */\n      mstore\n        /* \"#utility.yul\":21359:21490   */\n      tag_525\n        /* \"#utility.yul\":21485:21489   */\n      dup2\n        /* \"#utility.yul\":21359:21490   */\n      tag_463\n      jump\t// in\n    tag_525:\n        /* \"#utility.yul\":21351:21490   */\n      swap1\n      pop\n        /* \"#utility.yul\":21078:21497   */\n      swap2\n      swap1\n      pop\n      jump\t// out\n        /* \"#utility.yul\":21503:21922   */\n    tag_223:\n        /* \"#utility.yul\":21669:21673   */\n      0x00\n        /* \"#utility.yul\":21707:21709   */\n      0x20\n        /* \"#utility.yul\":21696:21705   */\n      dup3\n        /* \"#utility.yul\":21692:21710   */\n      add\n        /* \"#utility.yul\":21684:21710   */\n      swap1\n      pop\n        /* \"#utility.yul\":21756:21765   */\n      dup2\n        /* \"#utility.yul\":21750:21754   */\n      dup2\n        /* \"#utility.yul\":21746:21766   */\n      sub\n        /* \"#utility.yul\":21742:21743   */\n      0x00\n        /* \"#utility.yul\":21731:21740   */\n      dup4\n        /* \"#utility.yul\":21727:21744   */\n      add\n        /* \"#utility.yul\":21720:21767   */\n      mstore\n        /* \"#utility.yul\":21784:21915   */\n      tag_527\n        /* \"#utility.yul\":21910:21914   */\n      dup2\n        /* \"#utility.yul\":21784:21915   */\n      tag_468\n      jump\t// in\n    tag_527:\n        /* \"#utility.yul\":21776:21915   */\n      swap1\n      pop\n        /* \"#utility.yul\":21503:21922   */\n      swap2\n      swap1\n      pop\n      jump\t// out\n        /* \"#utility.yul\":21928:22283   */\n    tag_89:\n        /* \"#utility.yul\":22087:22091   */\n      0x00\n        /* \"#utility.yul\":22125:22128   */\n      0x80\n        /* \"#utility.yul\":22114:22123   */\n      dup3\n        /* \"#utility.yul\":22110:22129   */\n      add\n        /* \"#utility.yul\":22102:22129   */\n      swap1\n      pop\n        /* \"#utility.yul\":22139:22276   */\n      tag_529\n        /* \"#utility.yul\":22273:22274   */\n      0x00\n        /* \"#utility.yul\":22262:22271   */\n      dup4\n        /* \"#utility.yul\":22258:22275   */\n      add\n        /* \"#utility.yul\":22249:22255   */\n      dup5\n        /* \"#utility.yul\":22139:22276   */\n      tag_473\n      jump\t// in\n    tag_529:\n        /* \"#utility.yul\":21928:22283   */\n      swap3\n      swap2\n      pop\n      pop\n      jump\t// out\n        /* \"#utility.yul\":22289:22511   */\n    tag_58:\n        /* \"#utility.yul\":22382:22386   */\n      0x00\n        /* \"#utility.yul\":22420:22422   */\n      0x20\n        /* \"#utility.yul\":22409:22418   */\n      dup3\n        /* \"#utility.yul\":22405:22423   */\n      add\n        /* \"#utility.yul\":22397:22423   */\n      swap1\n      pop\n        /* \"#utility.yul\":22433:22504   */\n      tag_531\n        /* \"#utility.yul\":22501:22502   */\n      0x00\n        /* \"#utility.yul\":22490:22499   */\n      dup4\n        /* \"#utility.yul\":22486:22503   */\n      add\n        /* \"#utility.yul\":22477:22483   */\n      dup5\n        /* \"#utility.yul\":22433:22504   */\n      tag_483\n      jump\t// in\n    tag_531:\n        /* \"#utility.yul\":22289:22511   */\n      swap3\n      swap2\n      pop\n      pop\n      jump\t// out\n        /* \"#utility.yul\":22517:23241   */\n    tag_216:\n        /* \"#utility.yul\":22594:22598   */\n      0x00\n        /* \"#utility.yul\":22600:22606   */\n      dup1\n        /* \"#utility.yul\":22656:22667   */\n      dup4\n        /* \"#utility.yul\":22643:22668   */\n      calldataload\n        /* \"#utility.yul\":22756:22757   */\n      0x01\n        /* \"#utility.yul\":22750:22754   */\n      0x20\n        /* \"#utility.yul\":22746:22758   */\n      sub\n        /* \"#utility.yul\":22735:22743   */\n      dup5\n        /* \"#utility.yul\":22719:22733   */\n      calldatasize\n        /* \"#utility.yul\":22715:22744   */\n      sub\n        /* \"#utility.yul\":22711:22759   */\n      sub\n        /* \"#utility.yul\":22691:22709   */\n      dup2\n        /* \"#utility.yul\":22687:22760   */\n      slt\n        /* \"#utility.yul\":22677:22845   */\n      tag_533\n      jumpi\n        /* \"#utility.yul\":22764:22843   */\n      tag_534\n      tag_535\n      jump\t// in\n    tag_534:\n        /* \"#utility.yul\":22677:22845   */\n    tag_533:\n        /* \"#utility.yul\":22876:22894   */\n      dup1\n        /* \"#utility.yul\":22866:22874   */\n      dup5\n        /* \"#utility.yul\":22862:22895   */\n      add\n        /* \"#utility.yul\":22854:22895   */\n      swap3\n      pop\n        /* \"#utility.yul\":22928:22932   */\n      dup3\n        /* \"#utility.yul\":22915:22933   */\n      calldataload\n        /* \"#utility.yul\":22905:22933   */\n      swap2\n      pop\n        /* \"#utility.yul\":22956:22974   */\n      0xffffffffffffffff\n        /* \"#utility.yul\":22948:22954   */\n      dup3\n        /* \"#utility.yul\":22945:22975   */\n      gt\n        /* \"#utility.yul\":22942:23059   */\n      iszero\n      tag_536\n      jumpi\n        /* \"#utility.yul\":22978:23057   */\n      tag_537\n      tag_538\n      jump\t// in\n    tag_537:\n        /* \"#utility.yul\":22942:23059   */\n    tag_536:\n        /* \"#utility.yul\":23086:23088   */\n      0x20\n        /* \"#utility.yul\":23080:23084   */\n      dup4\n        /* \"#utility.yul\":23076:23089   */\n      add\n        /* \"#utility.yul\":23068:23089   */\n      swap3\n      pop\n        /* \"#utility.yul\":23143:23147   */\n      0x01\n        /* \"#utility.yul\":23135:23141   */\n      dup3\n        /* \"#utility.yul\":23131:23148   */\n      mul\n        /* \"#utility.yul\":23115:23129   */\n      calldatasize\n        /* \"#utility.yul\":23111:23149   */\n      sub\n        /* \"#utility.yul\":23105:23109   */\n      dup4\n        /* \"#utility.yul\":23101:23150   */\n      sgt\n        /* \"#utility.yul\":23098:23234   */\n      iszero\n      tag_539\n      jumpi\n        /* \"#utility.yul\":23153:23232   */\n      tag_540\n      tag_541\n      jump\t// in\n    tag_540:\n        /* \"#utility.yul\":23098:23234   */\n    tag_539:\n        /* \"#utility.yul\":22607:23241   */\n      pop\n        /* \"#utility.yul\":22517:23241   */\n      swap3\n      pop\n      swap3\n      swap1\n      pop\n      jump\t// out\n        /* \"#utility.yul\":23247:23646   */\n    tag_209:\n        /* \"#utility.yul\":23346:23350   */\n      0x00\n        /* \"#utility.yul\":23400:23411   */\n      dup3\n        /* \"#utility.yul\":23387:23412   */\n      calldataload\n        /* \"#utility.yul\":23500:23501   */\n      0x01\n        /* \"#utility.yul\":23494:23498   */\n      0xe0\n        /* \"#utility.yul\":23490:23502   */\n      sub\n        /* \"#utility.yul\":23479:23487   */\n      dup4\n        /* \"#utility.yul\":23463:23477   */\n      calldatasize\n        /* \"#utility.yul\":23459:23488   */\n      sub\n        /* \"#utility.yul\":23455:23503   */\n      sub\n        /* \"#utility.yul\":23435:23453   */\n      dup2\n        /* \"#utility.yul\":23431:23504   */\n      slt\n        /* \"#utility.yul\":23421:23589   */\n      tag_543\n      jumpi\n        /* \"#utility.yul\":23508:23587   */\n      tag_544\n      tag_535\n      jump\t// in\n    tag_544:\n        /* \"#utility.yul\":23421:23589   */\n    tag_543:\n        /* \"#utility.yul\":23620:23638   */\n      dup1\n        /* \"#utility.yul\":23610:23618   */\n      dup4\n        /* \"#utility.yul\":23606:23639   */\n      add\n        /* \"#utility.yul\":23598:23639   */\n      swap2\n      pop\n        /* \"#utility.yul\":23351:23646   */\n      pop\n        /* \"#utility.yul\":23247:23646   */\n      swap3\n      swap2\n      pop\n      pop\n      jump\t// out\n        /* \"#utility.yul\":23652:24049   */\n    tag_199:\n        /* \"#utility.yul\":23747:23751   */\n      0x00\n        /* \"#utility.yul\":23801:23812   */\n      dup3\n        /* \"#utility.yul\":23788:23813   */\n      calldataload\n        /* \"#utility.yul\":23903:23904   */\n      0x01\n        /* \"#utility.yul\":23895:23901   */\n      0x0100\n        /* \"#utility.yul\":23891:23905   */\n      sub\n        /* \"#utility.yul\":23880:23888   */\n      dup4\n        /* \"#utility.yul\":23864:23878   */\n      calldatasize\n        /* \"#utility.yul\":23860:23889   */\n      sub\n        /* \"#utility.yul\":23856:23906   */\n      sub\n        /* \"#utility.yul\":23836:23854   */\n      dup2\n        /* \"#utility.yul\":23832:23907   */\n      slt\n        /* \"#utility.yul\":23822:23992   */\n      tag_546\n      jumpi\n        /* \"#utility.yul\":23911:23990   */\n      tag_547\n      tag_535\n      jump\t// in\n    tag_547:\n        /* \"#utility.yul\":23822:23992   */\n    tag_546:\n        /* \"#utility.yul\":24023:24041   */\n      dup1\n        /* \"#utility.yul\":24013:24021   */\n      dup4\n        /* \"#utility.yul\":24009:24042   */\n      add\n        /* \"#utility.yul\":24001:24042   */\n      swap2\n      pop\n        /* \"#utility.yul\":23752:24049   */\n      pop\n        /* \"#utility.yul\":23652:24049   */\n      swap3\n      swap2\n      pop\n      pop\n      jump\t// out\n        /* \"#utility.yul\":24136:24234   */\n    tag_387:\n        /* \"#utility.yul\":24187:24193   */\n      0x00\n        /* \"#utility.yul\":24221:24226   */\n      dup2\n        /* \"#utility.yul\":24215:24227   */\n      mload\n        /* \"#utility.yul\":24205:24227   */\n      swap1\n      pop\n        /* \"#utility.yul\":24136:24234   */\n      swap2\n      swap1\n      pop\n      jump\t// out\n        /* \"#utility.yul\":24240:24339   */\n    tag_403:\n        /* \"#utility.yul\":24292:24298   */\n      0x00\n        /* \"#utility.yul\":24326:24331   */\n      dup2\n        /* \"#utility.yul\":24320:24332   */\n      mload\n        /* \"#utility.yul\":24310:24332   */\n      swap1\n      pop\n        /* \"#utility.yul\":24240:24339   */\n      swap2\n      swap1\n      pop\n      jump\t// out\n        /* \"#utility.yul\":24345:24513   */\n    tag_389:\n        /* \"#utility.yul\":24428:24439   */\n      0x00\n        /* \"#utility.yul\":24462:24468   */\n      dup3\n        /* \"#utility.yul\":24457:24460   */\n      dup3\n        /* \"#utility.yul\":24450:24469   */\n      mstore\n        /* \"#utility.yul\":24502:24506   */\n      0x20\n        /* \"#utility.yul\":24497:24500   */\n      dup3\n        /* \"#utility.yul\":24493:24507   */\n      add\n        /* \"#utility.yul\":24478:24507   */\n      swap1\n      pop\n        /* \"#utility.yul\":24345:24513   */\n      swap3\n      swap2\n      pop\n      pop\n      jump\t// out\n        /* \"#utility.yul\":24519:24666   */\n    tag_398:\n        /* \"#utility.yul\":24620:24631   */\n      0x00\n        /* \"#utility.yul\":24657:24660   */\n      dup2\n        /* \"#utility.yul\":24642:24660   */\n      swap1\n      pop\n        /* \"#utility.yul\":24519:24666   */\n      swap3\n      swap2\n      pop\n      pop\n      jump\t// out\n        /* \"#utility.yul\":24672:24841   */\n    tag_405:\n        /* \"#utility.yul\":24756:24767   */\n      0x00\n        /* \"#utility.yul\":24790:24796   */\n      dup3\n        /* \"#utility.yul\":24785:24788   */\n      dup3\n        /* \"#utility.yul\":24778:24797   */\n      mstore\n        /* \"#utility.yul\":24830:24834   */\n      0x20\n        /* \"#utility.yul\":24825:24828   */\n      dup3\n        /* \"#utility.yul\":24821:24835   */\n      add\n        /* \"#utility.yul\":24806:24835   */\n      swap1\n      pop\n        /* \"#utility.yul\":24672:24841   */\n      swap3\n      swap2\n      pop\n      pop\n      jump\t// out\n        /* \"#utility.yul\":24847:25152   */\n    tag_174:\n        /* \"#utility.yul\":24887:24890   */\n      0x00\n        /* \"#utility.yul\":24906:24926   */\n      tag_556\n        /* \"#utility.yul\":24924:24925   */\n      dup3\n        /* \"#utility.yul\":24906:24926   */\n      tag_482\n      jump\t// in\n    tag_556:\n        /* \"#utility.yul\":24901:24926   */\n      swap2\n      pop\n        /* \"#utility.yul\":24940:24960   */\n      tag_557\n        /* \"#utility.yul\":24958:24959   */\n      dup4\n        /* \"#utility.yul\":24940:24960   */\n      tag_482\n      jump\t// in\n    tag_557:\n        /* \"#utility.yul\":24935:24960   */\n      swap3\n      pop\n        /* \"#utility.yul\":25094:25095   */\n      dup3\n        /* \"#utility.yul\":25026:25092   */\n      0xffffffffffffffffffffffffffffffffffffffffffffffffffffffffffffffff\n        /* \"#utility.yul\":25022:25096   */\n      sub\n        /* \"#utility.yul\":25019:25020   */\n      dup3\n        /* \"#utility.yul\":25016:25097   */\n      gt\n        /* \"#utility.yul\":25013:25120   */\n      iszero\n      tag_558\n      jumpi\n        /* \"#utility.yul\":25100:25118   */\n      tag_559\n      tag_560\n      jump\t// in\n    tag_559:\n        /* \"#utility.yul\":25013:25120   */\n    tag_558:\n        /* \"#utility.yul\":25144:25145   */\n      dup3\n        /* \"#utility.yul\":25141:25142   */\n      dup3\n        /* \"#utility.yul\":25137:25146   */\n      add\n        /* \"#utility.yul\":25130:25146   */\n      swap1\n      pop\n        /* \"#utility.yul\":24847:25152   */\n      swap3\n      swap2\n      pop\n      pop\n      jump\t// out\n        /* \"#utility.yul\":25158:25254   */\n    tag_375:\n        /* \"#utility.yul\":25195:25202   */\n      0x00\n        /* \"#utility.yul\":25224:25248   */\n      tag_562\n        /* \"#utility.yul\":25242:25247   */\n      dup3\n        /* \"#utility.yul\":25224:25248   */\n      tag_563\n      jump\t// in\n    tag_562:\n        /* \"#utility.yul\":25213:25248   */\n      swap1\n      pop\n        /* \"#utility.yul\":25158:25254   */\n      swap2\n      swap1\n      pop\n      jump\t// out\n        /* \"#utility.yul\":25260:25364   */\n    tag_371:\n        /* \"#utility.yul\":25305:25312   */\n      0x00\n        /* \"#utility.yul\":25334:25358   */\n      tag_565\n        /* \"#utility.yul\":25352:25357   */\n      dup3\n        /* \"#utility.yul\":25334:25358   */\n      tag_563\n      jump\t// in\n    tag_565:\n        /* \"#utility.yul\":25323:25358   */\n      swap1\n      pop\n        /* \"#utility.yul\":25260:25364   */\n      swap2\n      swap1\n      pop\n      jump\t// out\n        /* \"#utility.yul\":25370:25460   */\n    tag_379:\n        /* \"#utility.yul\":25404:25411   */\n      0x00\n        /* \"#utility.yul\":25447:25452   */\n      dup2\n        /* \"#utility.yul\":25440:25453   */\n      iszero\n        /* \"#utility.yul\":25433:25454   */\n      iszero\n        /* \"#utility.yul\":25422:25454   */\n      swap1\n      pop\n        /* \"#utility.yul\":25370:25460   */\n      swap2\n      swap1\n      pop\n      jump\t// out\n        /* \"#utility.yul\":25466:25615   */\n    tag_383:\n        /* \"#utility.yul\":25502:25509   */\n      0x00\n        /* \"#utility.yul\":25542:25608   */\n      0xffffffff00000000000000000000000000000000000000000000000000000000\n        /* \"#utility.yul\":25535:25540   */\n      dup3\n        /* \"#utility.yul\":25531:25609   */\n      and\n        /* \"#utility.yul\":25520:25609   */\n      swap1\n      pop\n        /* \"#utility.yul\":25466:25615   */\n      swap2\n      swap1\n      pop\n      jump\t// out\n        /* \"#utility.yul\":25621:25734   */\n    tag_568:\n        /* \"#utility.yul\":25675:25682   */\n      0x00\n        /* \"#utility.yul\":25704:25728   */\n      tag_570\n        /* \"#utility.yul\":25722:25727   */\n      dup3\n        /* \"#utility.yul\":25704:25728   */\n      tag_375\n      jump\t// in\n    tag_570:\n        /* \"#utility.yul\":25693:25728   */\n      swap1\n      pop\n        /* \"#utility.yul\":25621:25734   */\n      swap2\n      swap1\n      pop\n      jump\t// out\n        /* \"#utility.yul\":25740:25866   */\n    tag_563:\n        /* \"#utility.yul\":25777:25784   */\n      0x00\n        /* \"#utility.yul\":25817:25859   */\n      0xffffffffffffffffffffffffffffffffffffffff\n        /* \"#utility.yul\":25810:25815   */\n      dup3\n        /* \"#utility.yul\":25806:25860   */\n      and\n        /* \"#utility.yul\":25795:25860   */\n      swap1\n      pop\n        /* \"#utility.yul\":25740:25866   */\n      swap2\n      swap1\n      pop\n      jump\t// out\n        /* \"#utility.yul\":25872:25949   */\n    tag_482:\n        /* \"#utility.yul\":25909:25916   */\n      0x00\n        /* \"#utility.yul\":25938:25943   */\n      dup2\n        /* \"#utility.yul\":25927:25943   */\n      swap1\n      pop\n        /* \"#utility.yul\":25872:25949   */\n      swap2\n      swap1\n      pop\n      jump\t// out\n        /* \"#utility.yul\":25955:26262   */\n    tag_391:\n        /* \"#utility.yul\":26023:26024   */\n      0x00\n        /* \"#utility.yul\":26033:26146   */\n    tag_574:\n        /* \"#utility.yul\":26047:26053   */\n      dup4\n        /* \"#utility.yul\":26044:26045   */\n      dup2\n        /* \"#utility.yul\":26041:26054   */\n      lt\n        /* \"#utility.yul\":26033:26146   */\n      iszero\n      tag_576\n      jumpi\n        /* \"#utility.yul\":26132:26133   */\n      dup1\n        /* \"#utility.yul\":26127:26130   */\n      dup3\n        /* \"#utility.yul\":26123:26134   */\n      add\n        /* \"#utility.yul\":26117:26135   */\n      mload\n        /* \"#utility.yul\":26113:26114   */\n      dup2\n        /* \"#utility.yul\":26108:26111   */\n      dup5\n        /* \"#utility.yul\":26104:26115   */\n      add\n        /* \"#utility.yul\":26097:26136   */\n      mstore\n        /* \"#utility.yul\":26069:26071   */\n      0x20\n        /* \"#utility.yul\":26066:26067   */\n      dup2\n        /* \"#utility.yul\":26062:26072   */\n      add\n        /* \"#utility.yul\":26057:26072   */\n      swap1\n      pop\n        /* \"#utility.yul\":26033:26146   */\n      jump(tag_574)\n    tag_576:\n        /* \"#utility.yul\":26164:26170   */\n      dup4\n        /* \"#utility.yul\":26161:26162   */\n      dup2\n        /* \"#utility.yul\":26158:26171   */\n      gt\n        /* \"#utility.yul\":26155:26256   */\n      iszero\n      tag_577\n      jumpi\n        /* \"#utility.yul\":26244:26245   */\n      0x00\n        /* \"#utility.yul\":26235:26241   */\n      dup5\n        /* \"#utility.yul\":26230:26233   */\n      dup5\n        /* \"#utility.yul\":26226:26242   */\n      add\n        /* \"#utility.yul\":26219:26246   */\n      mstore\n        /* \"#utility.yul\":26155:26256   */\n    tag_577:\n        /* \"#utility.yul\":26004:26262   */\n      pop\n        /* \"#utility.yul\":25955:26262   */\n      pop\n      pop\n      pop\n      jump\t// out\n        /* \"#utility.yul\":26268:26448   */\n    tag_560:\n        /* \"#utility.yul\":26316:26393   */\n      0x4e487b7100000000000000000000000000000000000000000000000000000000\n        /* \"#utility.yul\":26313:26314   */\n      0x00\n        /* \"#utility.yul\":26306:26394   */\n      mstore\n        /* \"#utility.yul\":26413:26417   */\n      0x11\n        /* \"#utility.yul\":26410:26411   */\n      0x04\n        /* \"#utility.yul\":26403:26418   */\n      mstore\n        /* \"#utility.yul\":26437:26441   */\n      0x24\n        /* \"#utility.yul\":26434:26435   */\n      0x00\n        /* \"#utility.yul\":26427:26442   */\n      revert\n        /* \"#utility.yul\":26454:26571   */\n    tag_300:\n        /* \"#utility.yul\":26563:26564   */\n      0x00\n        /* \"#utility.yul\":26560:26561   */\n      dup1\n        /* \"#utility.yul\":26553:26565   */\n      revert\n        /* \"#utility.yul\":26577:26694   */\n    tag_297:\n        /* \"#utility.yul\":26686:26687   */\n      0x00\n        /* \"#utility.yul\":26683:26684   */\n      dup1\n        /* \"#utility.yul\":26676:26688   */\n      revert\n        /* \"#utility.yul\":26700:26817   */\n    tag_538:\n        /* \"#utility.yul\":26809:26810   */\n      0x00\n        /* \"#utility.yul\":26806:26807   */\n      dup1\n        /* \"#utility.yul\":26799:26811   */\n      revert\n        /* \"#utility.yul\":26823:26940   */\n    tag_312:\n        /* \"#utility.yul\":26932:26933   */\n      0x00\n        /* \"#utility.yul\":26929:26930   */\n      dup1\n        /* \"#utility.yul\":26922:26934   */\n      revert\n        /* \"#utility.yul\":26946:27063   */\n    tag_535:\n        /* \"#utility.yul\":27055:27056   */\n      0x00\n        /* \"#utility.yul\":27052:27053   */\n      dup1\n        /* \"#utility.yul\":27045:27057   */\n      revert\n        /* \"#utility.yul\":27069:27186   */\n    tag_303:\n        /* \"#utility.yul\":27178:27179   */\n      0x00\n        /* \"#utility.yul\":27175:27176   */\n      dup1\n        /* \"#utility.yul\":27168:27180   */\n      revert\n        /* \"#utility.yul\":27192:27309   */\n    tag_541:\n        /* \"#utility.yul\":27301:27302   */\n      0x00\n        /* \"#utility.yul\":27298:27299   */\n      dup1\n        /* \"#utility.yul\":27291:27303   */\n      revert\n        /* \"#utility.yul\":27315:27432   */\n    tag_339:\n        /* \"#utility.yul\":27424:27425   */\n      0x00\n        /* \"#utility.yul\":27421:27422   */\n      dup1\n        /* \"#utility.yul\":27414:27426   */\n      revert\n        /* \"#utility.yul\":27438:27555   */\n    tag_324:\n        /* \"#utility.yul\":27547:27548   */\n      0x00\n        /* \"#utility.yul\":27544:27545   */\n      dup1\n        /* \"#utility.yul\":27537:27549   */\n      revert\n        /* \"#utility.yul\":27561:27663   */\n    tag_393:\n        /* \"#utility.yul\":27602:27608   */\n      0x00\n        /* \"#utility.yul\":27653:27655   */\n      0x1f\n        /* \"#utility.yul\":27649:27656   */\n      not\n        /* \"#utility.yul\":27644:27646   */\n      0x1f\n        /* \"#utility.yul\":27637:27642   */\n      dup4\n        /* \"#utility.yul\":27633:27647   */\n      add\n        /* \"#utility.yul\":27629:27657   */\n      and\n        /* \"#utility.yul\":27619:27657   */\n      swap1\n      pop\n        /* \"#utility.yul\":27561:27663   */\n      swap2\n      swap1\n      pop\n      jump\t// out\n        /* \"#utility.yul\":27669:27847   */\n    tag_412:\n        /* \"#utility.yul\":27809:27839   */\n      0x73686f756c642068617665206e6f207061796d61737465724461746100000000\n        /* \"#utility.yul\":27805:27806   */\n      0x00\n        /* \"#utility.yul\":27797:27803   */\n      dup3\n        /* \"#utility.yul\":27793:27807   */\n      add\n        /* \"#utility.yul\":27786:27840   */\n      mstore\n        /* \"#utility.yul\":27669:27847   */\n      pop\n      jump\t// out\n        /* \"#utility.yul\":27853:28034   */\n    tag_417:\n        /* \"#utility.yul\":27993:28026   */\n      0x696e76616c696420666f7277617264657220666f7220726563697069656e7400\n        /* \"#utility.yul\":27989:27990   */\n      0x00\n        /* \"#utility.yul\":27981:27987   */\n      dup3\n        /* \"#utility.yul\":27977:27991   */\n      add\n        /* \"#utility.yul\":27970:28027   */\n      mstore\n        /* \"#utility.yul\":27853:28034   */\n      pop\n      jump\t// out\n        /* \"#utility.yul\":28040:28265   */\n    tag_422:\n        /* \"#utility.yul\":28180:28214   */\n      0x4f776e61626c653a206e6577206f776e657220697320746865207a65726f2061\n        /* \"#utility.yul\":28176:28177   */\n      0x00\n        /* \"#utility.yul\":28168:28174   */\n      dup3\n        /* \"#utility.yul\":28164:28178   */\n      add\n        /* \"#utility.yul\":28157:28215   */\n      mstore\n        /* \"#utility.yul\":28249:28257   */\n      0x6464726573730000000000000000000000000000000000000000000000000000\n        /* \"#utility.yul\":28244:28246   */\n      0x20\n        /* \"#utility.yul\":28236:28242   */\n      dup3\n        /* \"#utility.yul\":28232:28247   */\n      add\n        /* \"#utility.yul\":28225:28258   */\n      mstore\n        /* \"#utility.yul\":28040:28265   */\n      pop\n      jump\t// out\n        /* \"#utility.yul\":28271:28449   */\n    tag_427:\n        /* \"#utility.yul\":28411:28441   */\n      0x697354727573746564466f727761726465723a20726576657274656400000000\n        /* \"#utility.yul\":28407:28408   */\n      0x00\n        /* \"#utility.yul\":28399:28405   */\n      dup3\n        /* \"#utility.yul\":28395:28409   */\n      add\n        /* \"#utility.yul\":28388:28442   */\n      mstore\n        /* \"#utility.yul\":28271:28449   */\n      pop\n      jump\t// out\n        /* \"#utility.yul\":28455:28630   */\n    tag_432:\n        /* \"#utility.yul\":28595:28622   */\n      0x72656c6179206875622061646472657373206e6f742073657400000000000000\n        /* \"#utility.yul\":28591:28592   */\n      0x00\n        /* \"#utility.yul\":28583:28589   */\n      dup3\n        /* \"#utility.yul\":28579:28593   */\n      add\n        /* \"#utility.yul\":28572:28623   */\n      mstore\n        /* \"#utility.yul\":28455:28630   */\n      pop\n      jump\t// out\n        /* \"#utility.yul\":28636:28810   */\n    tag_437:\n        /* \"#utility.yul\":28776:28802   */\n      0x466f72776172646572206973206e6f7420747275737465640000000000000000\n        /* \"#utility.yul\":28772:28773   */\n      0x00\n        /* \"#utility.yul\":28764:28770   */\n      dup3\n        /* \"#utility.yul\":28760:28774   */\n      add\n        /* \"#utility.yul\":28753:28803   */\n      mstore\n        /* \"#utility.yul\":28636:28810   */\n      pop\n      jump\t// out\n        /* \"#utility.yul\":28816:28998   */\n    tag_442:\n        /* \"#utility.yul\":28956:28990   */\n      0x746172676574206973206e6f7420612076616c69642049466f72776172646572\n        /* \"#utility.yul\":28952:28953   */\n      0x00\n        /* \"#utility.yul\":28944:28950   */\n      dup3\n        /* \"#utility.yul\":28940:28954   */\n      add\n        /* \"#utility.yul\":28933:28991   */\n      mstore\n        /* \"#utility.yul\":28816:28998   */\n      pop\n      jump\t// out\n        /* \"#utility.yul\":29004:29186   */\n    tag_447:\n        /* \"#utility.yul\":29144:29178   */\n      0x697354727573746564466f727761726465723a2062616420726573706f6e7365\n        /* \"#utility.yul\":29140:29141   */\n      0x00\n        /* \"#utility.yul\":29132:29138   */\n      dup3\n        /* \"#utility.yul\":29128:29142   */\n      add\n        /* \"#utility.yul\":29121:29179   */\n      mstore\n        /* \"#utility.yul\":29004:29186   */\n      pop\n      jump\t// out\n        /* \"#utility.yul\":29192:29374   */\n    tag_452:\n        /* \"#utility.yul\":29332:29366   */\n      0x4f776e61626c653a2063616c6c6572206973206e6f7420746865206f776e6572\n        /* \"#utility.yul\":29328:29329   */\n      0x00\n        /* \"#utility.yul\":29320:29326   */\n      dup3\n        /* \"#utility.yul\":29316:29330   */\n      add\n        /* \"#utility.yul\":29309:29367   */\n      mstore\n        /* \"#utility.yul\":29192:29374   */\n      pop\n      jump\t// out\n        /* \"#utility.yul\":29380:29561   */\n    tag_457:\n        /* \"#utility.yul\":29520:29553   */\n      0x746172676574206973206e6f7420612076616c6964204952656c617948756200\n        /* \"#utility.yul\":29516:29517   */\n      0x00\n        /* \"#utility.yul\":29508:29514   */\n      dup3\n        /* \"#utility.yul\":29504:29518   */\n      add\n        /* \"#utility.yul\":29497:29554   */\n      mstore\n        /* \"#utility.yul\":29380:29561   */\n      pop\n      jump\t// out\n        /* \"#utility.yul\":29567:29747   */\n    tag_462:\n        /* \"#utility.yul\":29707:29739   */\n      0x63616e206f6e6c792062652063616c6c65642062792052656c61794875620000\n        /* \"#utility.yul\":29703:29704   */\n      0x00\n        /* \"#utility.yul\":29695:29701   */\n      dup3\n        /* \"#utility.yul\":29691:29705   */\n      add\n        /* \"#utility.yul\":29684:29740   */\n      mstore\n        /* \"#utility.yul\":29567:29747   */\n      pop\n      jump\t// out\n        /* \"#utility.yul\":29753:29931   */\n    tag_467:\n        /* \"#utility.yul\":29893:29923   */\n      0x76616c7565207472616e73666572206e6f7420737570706f7274656400000000\n        /* \"#utility.yul\":29889:29890   */\n      0x00\n        /* \"#utility.yul\":29881:29887   */\n      dup3\n        /* \"#utility.yul\":29877:29891   */\n      add\n        /* \"#utility.yul\":29870:29924   */\n      mstore\n        /* \"#utility.yul\":29753:29931   */\n      pop\n      jump\t// out\n        /* \"#utility.yul\":29937:30114   */\n    tag_472:\n        /* \"#utility.yul\":30077:30106   */\n      0x73686f756c642068617665206e6f20617070726f76616c446174610000000000\n        /* \"#utility.yul\":30073:30074   */\n      0x00\n        /* \"#utility.yul\":30065:30071   */\n      dup3\n        /* \"#utility.yul\":30061:30075   */\n      add\n        /* \"#utility.yul\":30054:30107   */\n      mstore\n        /* \"#utility.yul\":29937:30114   */\n      pop\n      jump\t// out\n        /* \"#utility.yul\":30120:30242   */\n    tag_277:\n        /* \"#utility.yul\":30193:30217   */\n      tag_603\n        /* \"#utility.yul\":30211:30216   */\n      dup2\n        /* \"#utility.yul\":30193:30217   */\n      tag_375\n      jump\t// in\n    tag_603:\n        /* \"#utility.yul\":30186:30191   */\n      dup2\n        /* \"#utility.yul\":30183:30218   */\n      eq\n        /* \"#utility.yul\":30173:30236   */\n      tag_604\n      jumpi\n        /* \"#utility.yul\":30232:30233   */\n      0x00\n        /* \"#utility.yul\":30229:30230   */\n      dup1\n        /* \"#utility.yul\":30222:30234   */\n      revert\n        /* \"#utility.yul\":30173:30236   */\n    tag_604:\n        /* \"#utility.yul\":30120:30242   */\n      pop\n      jump\t// out\n        /* \"#utility.yul\":30248:30386   */\n    tag_281:\n        /* \"#utility.yul\":30329:30361   */\n      tag_606\n        /* \"#utility.yul\":30355:30360   */\n      dup2\n        /* \"#utility.yul\":30329:30361   */\n      tag_371\n      jump\t// in\n    tag_606:\n        /* \"#utility.yul\":30322:30327   */\n      dup2\n        /* \"#utility.yul\":30319:30362   */\n      eq\n        /* \"#utility.yul\":30309:30380   */\n      tag_607\n      jumpi\n        /* \"#utility.yul\":30376:30377   */\n      0x00\n        /* \"#utility.yul\":30373:30374   */\n      dup1\n        /* \"#utility.yul\":30366:30378   */\n      revert\n        /* \"#utility.yul\":30309:30380   */\n    tag_607:\n        /* \"#utility.yul\":30248:30386   */\n      pop\n      jump\t// out\n        /* \"#utility.yul\":30392:30508   */\n    tag_285:\n        /* \"#utility.yul\":30462:30483   */\n      tag_609\n        /* \"#utility.yul\":30477:30482   */\n      dup2\n        /* \"#utility.yul\":30462:30483   */\n      tag_379\n      jump\t// in\n    tag_609:\n        /* \"#utility.yul\":30455:30460   */\n      dup2\n        /* \"#utility.yul\":30452:30484   */\n      eq\n        /* \"#utility.yul\":30442:30502   */\n      tag_610\n      jumpi\n        /* \"#utility.yul\":30498:30499   */\n      0x00\n        /* \"#utility.yul\":30495:30496   */\n      dup1\n        /* \"#utility.yul\":30488:30500   */\n      revert\n        /* \"#utility.yul\":30442:30502   */\n    tag_610:\n        /* \"#utility.yul\":30392:30508   */\n      pop\n      jump\t// out\n        /* \"#utility.yul\":30514:30634   */\n    tag_292:\n        /* \"#utility.yul\":30586:30609   */\n      tag_612\n        /* \"#utility.yul\":30603:30608   */\n      dup2\n        /* \"#utility.yul\":30586:30609   */\n      tag_383\n      jump\t// in\n    tag_612:\n        /* \"#utility.yul\":30579:30584   */\n      dup2\n        /* \"#utility.yul\":30576:30610   */\n      eq\n        /* \"#utility.yul\":30566:30628   */\n      tag_613\n      jumpi\n        /* \"#utility.yul\":30624:30625   */\n      0x00\n        /* \"#utility.yul\":30621:30622   */\n      dup1\n        /* \"#utility.yul\":30614:30626   */\n      revert\n        /* \"#utility.yul\":30566:30628   */\n    tag_613:\n        /* \"#utility.yul\":30514:30634   */\n      pop\n      jump\t// out\n        /* \"#utility.yul\":30640:30796   */\n    tag_307:\n        /* \"#utility.yul\":30730:30771   */\n      tag_615\n        /* \"#utility.yul\":30765:30770   */\n      dup2\n        /* \"#utility.yul\":30730:30771   */\n      tag_568\n      jump\t// in\n    tag_615:\n        /* \"#utility.yul\":30723:30728   */\n      dup2\n        /* \"#utility.yul\":30720:30772   */\n      eq\n        /* \"#utility.yul\":30710:30790   */\n      tag_616\n      jumpi\n        /* \"#utility.yul\":30786:30787   */\n      0x00\n        /* \"#utility.yul\":30783:30784   */\n      dup1\n        /* \"#utility.yul\":30776:30788   */\n      revert\n        /* \"#utility.yul\":30710:30790   */\n    tag_616:\n        /* \"#utility.yul\":30640:30796   */\n      pop\n      jump\t// out\n        /* \"#utility.yul\":30802:30924   */\n    tag_320:\n        /* \"#utility.yul\":30875:30899   */\n      tag_618\n        /* \"#utility.yul\":30893:30898   */\n      dup2\n        /* \"#utility.yul\":30875:30899   */\n      tag_482\n      jump\t// in\n    tag_618:\n        /* \"#utility.yul\":30868:30873   */\n      dup2\n        /* \"#utility.yul\":30865:30900   */\n      eq\n        /* \"#utility.yul\":30855:30918   */\n      tag_619\n      jumpi\n        /* \"#utility.yul\":30914:30915   */\n      0x00\n        /* \"#utility.yul\":30911:30912   */\n      dup1\n        /* \"#utility.yul\":30904:30916   */\n      revert\n        /* \"#utility.yul\":30855:30918   */\n    tag_619:\n        /* \"#utility.yul\":30802:30924   */\n      pop\n      jump\t// out\n    stop\n    data_eb97c41b3f651080603cbd3c7c438c7324cd0069264d3abe764ec765afe6a3d8 332e302e302d626574612e332b6f70656e67736e2e61636365707465766572797468696e672e697061796d6173746572\n\n    auxdata: 0xa2646970667358221220eef08ced155bb15e7a92612e604e9729d36e80c6645b9826393e3340e95c097364736f6c63430008070033\n}\n",
				"bytecode": {
					"linkReferences": {},
					"object": "6080604052600060035534801561001557600080fd5b5061003261002761003760201b60201c565b61003f60201b60201c565b610103565b600033905090565b60008060009054906101000a900473ffffffffffffffffffffffffffffffffffffffff169050816000806101000a81548173ffffffffffffffffffffffffffffffffffffffff021916908373ffffffffffffffffffffffffffffffffffffffff1602179055508173ffffffffffffffffffffffffffffffffffffffff168173ffffffffffffffffffffffffffffffffffffffff167f8be0079c531659141344cd1fd0a4f28419497f9722a3daafe3b4186f6b6457e060405160405180910390a35050565b61211b80620001136000396000f3fe6080604052600436106101175760003560e01c8063921276ea116100a0578063da74222811610064578063da742228146104a8578063df463a66146104d1578063ea818772146104fc578063f2fde38b14610527578063f9c002f7146105505761023e565b8063921276ea146103d1578063b039a88f146103fc578063b90b41cf14610427578063bbdaa3c914610452578063ce1b815f1461047d5761023e565b8063715018a6116100e7578063715018a61461031257806376fa01c3146103295780637bb05264146103525780637bdf2ec71461037b5780638da5cb5b146103a65761023e565b8062be5dd41461024357806301ffc9a7146102815780632d14c4b7146102be5780635c5e3db1146102e75761023e565b3661023e57600073ffffffffffffffffffffffffffffffffffffffff16600160009054906101000a900473ffffffffffffffffffffffffffffffffffffffff1673ffffffffffffffffffffffffffffffffffffffff1614156101ae576040517f08c379a00000000000000000000000000000000000000000000000000000000081526004016101a590611a15565b60405180910390fd5b600160009054906101000a900473ffffffffffffffffffffffffffffffffffffffff1673ffffffffffffffffffffffffffffffffffffffff1663aa67c91934306040518363ffffffff1660e01b815260040161020a91906118c9565b6000604051808303818588803b15801561022357600080fd5b505af1158015610237573d6000803e3d6000fd5b5050505050005b600080fd5b34801561024f57600080fd5b5061026a60048036038101906102659190611496565b61057b565b604051610278929190611943565b60405180910390f35b34801561028d57600080fd5b506102a860048036038101906102a39190611398565b6105c9565b6040516102b5919061190d565b60405180910390f35b3480156102ca57600080fd5b506102e560048036038101906102e09190611559565b6106ab565b005b3480156102f357600080fd5b506102fc610746565b6040516103099190611b50565b60405180910390f35b34801561031e57600080fd5b5061032761074c565b005b34801561033557600080fd5b50610350600480360381019061034b91906113c5565b610760565b005b34801561035e57600080fd5b5061037960048036038101906103749190611469565b61077c565b005b34801561038757600080fd5b50610390610850565b60405161039d91906118c9565b60405180910390f35b3480156103b257600080fd5b506103bb61087a565b6040516103c891906118c9565b60405180910390f35b3480156103dd57600080fd5b506103e66108a3565b6040516103f39190611973565b60405180910390f35b34801561040857600080fd5b506104116108c3565b60405161041e9190611b35565b60405180910390f35b34801561043357600080fd5b5061043c610909565b6040516104499190611b50565b60405180910390f35b34801561045e57600080fd5b5061046761090f565b6040516104749190611b50565b60405180910390f35b34801561048957600080fd5b50610492610916565b60405161049f91906118c9565b60405180910390f35b3480156104b457600080fd5b506104cf60048036038101906104ca919061133e565b610940565b005b3480156104dd57600080fd5b506104e6610a14565b6040516104f39190611b50565b60405180910390f35b34801561050857600080fd5b50610511610a28565b60405161051e9190611b50565b60405180910390f35b34801561053357600080fd5b5061054e6004803603810190610549919061133e565b610a30565b005b34801561055c57600080fd5b50610565610ab4565b6040516105729190611b50565b60405180910390f35b60606000610587610abb565b61059088610b32565b61059988610bd4565b6105a288610c2d565b6105ac8585610c93565b6105ba888888888888610cdd565b91509150965096945050505050565b60007fe1ab2dea000000000000000000000000000000000000000000000000000000007bffffffffffffffffffffffffffffffffffffffffffffffffffffffff1916827bffffffffffffffffffffffffffffffffffffffffffffffffffffffff1916148061069457507f0e083076000000000000000000000000000000000000000000000000000000007bffffffffffffffffffffffffffffffffffffffffffffffffffffffff1916827bffffffffffffffffffffffffffffffffffffffffffffffffffffffff1916145b806106a457506106a382610d02565b5b9050919050565b6106b3610d6c565b600160009054906101000a900473ffffffffffffffffffffffffffffffffffffffff1673ffffffffffffffffffffffffffffffffffffffff1663f3fef3a382846040518363ffffffff1660e01b81526004016107109291906118e4565b600060405180830381600087803b15801561072a57600080fd5b505af115801561073e573d6000803e3d6000fd5b505050505050565b61290481565b610754610d6c565b61075e6000610dea565b565b610768610abb565b6107758585858585610eae565b5050505050565b610784610d6c565b6107cd7fe9fb30f7000000000000000000000000000000000000000000000000000000008273ffffffffffffffffffffffffffffffffffffffff16610eb590919063ffffffff16565b61080c576040517f08c379a000000000000000000000000000000000000000000000000000000000815260040161080390611ab5565b60405180910390fd5b80600160006101000a81548173ffffffffffffffffffffffffffffffffffffffff021916908373ffffffffffffffffffffffffffffffffffffffff16021790555050565b6000600160009054906101000a900473ffffffffffffffffffffffffffffffffffffffff16905090565b60008060009054906101000a900473ffffffffffffffffffffffffffffffffffffffff16905090565b60606040518060600160405280603081526020016120b660309139905090565b6108cb6111ee565b604051806080016040528061c350620186a06108e79190611c62565b8152602001620186a081526020016201adb08152602001612904815250905090565b61c35081565b6201adb081565b6000600260009054906101000a900473ffffffffffffffffffffffffffffffffffffffff16905090565b610948610d6c565b6109917f25e23e64000000000000000000000000000000000000000000000000000000008273ffffffffffffffffffffffffffffffffffffffff16610eb590919063ffffffff16565b6109d0576040517f08c379a00000000000000000000000000000000000000000000000000000000081526004016109c790611a55565b60405180910390fd5b80600260006101000a81548173ffffffffffffffffffffffffffffffffffffffff021916908373ffffffffffffffffffffffffffffffffffffffff16021790555050565b61c350620186a0610a259190611c62565b81565b600047905090565b610a38610d6c565b600073ffffffffffffffffffffffffffffffffffffffff168173ffffffffffffffffffffffffffffffffffffffff161415610aa8576040517f08c379a0000000000000000000000000000000000000000000000000000000008152600401610a9f906119d5565b60405180910390fd5b610ab181610dea565b50565b620186a081565b610ac3610850565b73ffffffffffffffffffffffffffffffffffffffff163373ffffffffffffffffffffffffffffffffffffffff1614610b30576040517f08c379a0000000000000000000000000000000000000000000000000000000008152600401610b2790611ad5565b60405180910390fd5b565b808060200190610b429190611bf6565b60a0016020810190610b54919061133e565b73ffffffffffffffffffffffffffffffffffffffff16610b72610916565b73ffffffffffffffffffffffffffffffffffffffff1614610bc8576040517f08c379a0000000000000000000000000000000000000000000000000000000008152600401610bbf90611a35565b60405180910390fd5b610bd181610eda565b50565b6000818060000190610be69190611bce565b6040013514610c2a576040517f08c379a0000000000000000000000000000000000000000000000000000000008152600401610c2190611af5565b60405180910390fd5b50565b6000818060200190610c3f9190611bf6565b8060c00190610c4e9190611b6b565b905014610c90576040517f08c379a0000000000000000000000000000000000000000000000000000000008152600401610c8790611995565b60405180910390fd5b50565b60008282905014610cd9576040517f08c379a0000000000000000000000000000000000000000000000000000000008152600401610cd090611b15565b60405180910390fd5b5050565b6060600080604051806020016040528060008152509091509150965096945050505050565b60007f01ffc9a7000000000000000000000000000000000000000000000000000000007bffffffffffffffffffffffffffffffffffffffffffffffffffffffff1916827bffffffffffffffffffffffffffffffffffffffffffffffffffffffff1916149050919050565b610d746110da565b73ffffffffffffffffffffffffffffffffffffffff16610d9261087a565b73ffffffffffffffffffffffffffffffffffffffff1614610de8576040517f08c379a0000000000000000000000000000000000000000000000000000000008152600401610ddf90611a95565b60405180910390fd5b565b60008060009054906101000a900473ffffffffffffffffffffffffffffffffffffffff169050816000806101000a81548173ffffffffffffffffffffffffffffffffffffffff021916908373ffffffffffffffffffffffffffffffffffffffff1602179055508173ffffffffffffffffffffffffffffffffffffffff168173ffffffffffffffffffffffffffffffffffffffff167f8be0079c531659141344cd1fd0a4f28419497f9722a3daafe3b4186f6b6457e060405160405180910390a35050565b5050505050565b6000610ec0836110e2565b8015610ed25750610ed1838361112f565b5b905092915050565b600080828060000190610eed9190611bce565b6020016020810190610eff919061133e565b73ffffffffffffffffffffffffffffffffffffffff1663572b6c0560e01b848060200190610f2d9190611bf6565b60a0016020810190610f3f919061133e565b604051602401610f4f91906118c9565b604051602081830303815290604052907bffffffffffffffffffffffffffffffffffffffffffffffffffffffff19166020820180517bffffffffffffffffffffffffffffffffffffffffffffffffffffffff8381831617835250505050604051610fb991906118b2565b600060405180830381855afa9150503d8060008114610ff4576040519150601f19603f3d011682016040523d82523d6000602084013e610ff9565b606091505b50915091508161103e576040517f08c379a0000000000000000000000000000000000000000000000000000000008152600401611035906119f5565b60405180910390fd5b6020815114611082576040517f08c379a000000000000000000000000000000000000000000000000000000000815260040161107990611a75565b60405180910390fd5b80806020019051810190611096919061136b565b6110d5576040517f08c379a00000000000000000000000000000000000000000000000000000000081526004016110cc906119b5565b60405180910390fd5b505050565b600033905090565b600061110e827f01ffc9a70000000000000000000000000000000000000000000000000000000061112f565b801561112857506111268263ffffffff60e01b61112f565b155b9050919050565b6000806301ffc9a760e01b8360405160240161114b9190611928565b604051602081830303815290604052907bffffffffffffffffffffffffffffffffffffffffffffffffffffffff19166020820180517bffffffffffffffffffffffffffffffffffffffffffffffffffffffff838183161783525050505090506000806000602060008551602087018a617530fa92503d915060005190508280156111d6575060208210155b80156111e25750600081115b94505050505092915050565b6040518060800160405280600081526020016000815260200160008152602001600081525090565b6000813590506112258161202b565b92915050565b60008135905061123a81612042565b92915050565b60008135905061124f81612059565b92915050565b60008151905061126481612059565b92915050565b60008135905061127981612070565b92915050565b60008083601f84011261129557611294611db7565b5b8235905067ffffffffffffffff8111156112b2576112b1611db2565b5b6020830191508360018202830111156112ce576112cd611dcb565b5b9250929050565b6000813590506112e481612087565b92915050565b6000610100828403121561130157611300611dc1565b5b81905092915050565b6000604082840312156113205761131f611dc1565b5b81905092915050565b6000813590506113388161209e565b92915050565b60006020828403121561135457611353611dda565b5b600061136284828501611216565b91505092915050565b60006020828403121561138157611380611dda565b5b600061138f84828501611255565b91505092915050565b6000602082840312156113ae576113ad611dda565b5b60006113bc8482850161126a565b91505092915050565b6000806000806000608086880312156113e1576113e0611dda565b5b600086013567ffffffffffffffff8111156113ff576113fe611dd5565b5b61140b8882890161127f565b9550955050602061141e88828901611240565b935050604061142f88828901611329565b925050606086013567ffffffffffffffff8111156114505761144f611dd5565b5b61145c888289016112ea565b9150509295509295909350565b60006020828403121561147f5761147e611dda565b5b600061148d848285016112d5565b91505092915050565b600080600080600080608087890312156114b3576114b2611dda565b5b600087013567ffffffffffffffff8111156114d1576114d0611dd5565b5b6114dd89828a0161130a565b965050602087013567ffffffffffffffff8111156114fe576114fd611dd5565b5b61150a89828a0161127f565b9550955050604087013567ffffffffffffffff81111561152d5761152c611dd5565b5b61153989828a0161127f565b9350935050606061154c89828a01611329565b9150509295509295509295565b600080604083850312156115705761156f611dda565b5b600061157e85828601611329565b925050602061158f8582860161122b565b9150509250929050565b6115a281611cca565b82525050565b6115b181611cb8565b82525050565b6115c081611cdc565b82525050565b6115cf81611ce8565b82525050565b60006115e082611c1f565b6115ea8185611c35565b93506115fa818560208601611d50565b61160381611ddf565b840191505092915050565b600061161982611c1f565b6116238185611c46565b9350611633818560208601611d50565b80840191505092915050565b600061164a82611c2a565b6116548185611c51565b9350611664818560208601611d50565b61166d81611ddf565b840191505092915050565b6000611685601c83611c51565b915061169082611df0565b602082019050919050565b60006116a8601f83611c51565b91506116b382611e19565b602082019050919050565b60006116cb602683611c51565b91506116d682611e42565b604082019050919050565b60006116ee601c83611c51565b91506116f982611e91565b602082019050919050565b6000611711601983611c51565b915061171c82611eba565b602082019050919050565b6000611734601883611c51565b915061173f82611ee3565b602082019050919050565b6000611757602083611c51565b915061176282611f0c565b602082019050919050565b600061177a602083611c51565b915061178582611f35565b602082019050919050565b600061179d602083611c51565b91506117a882611f5e565b602082019050919050565b60006117c0601f83611c51565b91506117cb82611f87565b602082019050919050565b60006117e3601e83611c51565b91506117ee82611fb0565b602082019050919050565b6000611806601c83611c51565b915061181182611fd9565b602082019050919050565b6000611829601b83611c51565b915061183482612002565b602082019050919050565b6080820160008201516118556000850182611894565b5060208201516118686020850182611894565b50604082015161187b6040850182611894565b50606082015161188e6060850182611894565b50505050565b61189d81611d46565b82525050565b6118ac81611d46565b82525050565b60006118be828461160e565b915081905092915050565b60006020820190506118de60008301846115a8565b92915050565b60006040820190506118f96000830185611599565b61190660208301846118a3565b9392505050565b600060208201905061192260008301846115b7565b92915050565b600060208201905061193d60008301846115c6565b92915050565b6000604082019050818103600083015261195d81856115d5565b905061196c60208301846115b7565b9392505050565b6000602082019050818103600083015261198d818461163f565b905092915050565b600060208201905081810360008301526119ae81611678565b9050919050565b600060208201905081810360008301526119ce8161169b565b9050919050565b600060208201905081810360008301526119ee816116be565b9050919050565b60006020820190508181036000830152611a0e816116e1565b9050919050565b60006020820190508181036000830152611a2e81611704565b9050919050565b60006020820190508181036000830152611a4e81611727565b9050919050565b60006020820190508181036000830152611a6e8161174a565b9050919050565b60006020820190508181036000830152611a8e8161176d565b9050919050565b60006020820190508181036000830152611aae81611790565b9050919050565b60006020820190508181036000830152611ace816117b3565b9050919050565b60006020820190508181036000830152611aee816117d6565b9050919050565b60006020820190508181036000830152611b0e816117f9565b9050919050565b60006020820190508181036000830152611b2e8161181c565b9050919050565b6000608082019050611b4a600083018461183f565b92915050565b6000602082019050611b6560008301846118a3565b92915050565b60008083356001602003843603038112611b8857611b87611dc6565b5b80840192508235915067ffffffffffffffff821115611baa57611ba9611dbc565b5b602083019250600182023603831315611bc657611bc5611dd0565b5b509250929050565b60008235600160e003833603038112611bea57611be9611dc6565b5b80830191505092915050565b60008235600161010003833603038112611c1357611c12611dc6565b5b80830191505092915050565b600081519050919050565b600081519050919050565b600082825260208201905092915050565b600081905092915050565b600082825260208201905092915050565b6000611c6d82611d46565b9150611c7883611d46565b9250827fffffffffffffffffffffffffffffffffffffffffffffffffffffffffffffffff03821115611cad57611cac611d83565b5b828201905092915050565b6000611cc382611d26565b9050919050565b6000611cd582611d26565b9050919050565b60008115159050919050565b60007fffffffff0000000000000000000000000000000000000000000000000000000082169050919050565b6000611d1f82611cb8565b9050919050565b600073ffffffffffffffffffffffffffffffffffffffff82169050919050565b6000819050919050565b60005b83811015611d6e578082015181840152602081019050611d53565b83811115611d7d576000848401525b50505050565b7f4e487b7100000000000000000000000000000000000000000000000000000000600052601160045260246000fd5b600080fd5b600080fd5b600080fd5b600080fd5b600080fd5b600080fd5b600080fd5b600080fd5b600080fd5b6000601f19601f8301169050919050565b7f73686f756c642068617665206e6f207061796d61737465724461746100000000600082015250565b7f696e76616c696420666f7277617264657220666f7220726563697069656e7400600082015250565b7f4f776e61626c653a206e6577206f776e657220697320746865207a65726f206160008201527f6464726573730000000000000000000000000000000000000000000000000000602082015250565b7f697354727573746564466f727761726465723a20726576657274656400000000600082015250565b7f72656c6179206875622061646472657373206e6f742073657400000000000000600082015250565b7f466f72776172646572206973206e6f7420747275737465640000000000000000600082015250565b7f746172676574206973206e6f7420612076616c69642049466f72776172646572600082015250565b7f697354727573746564466f727761726465723a2062616420726573706f6e7365600082015250565b7f4f776e61626c653a2063616c6c6572206973206e6f7420746865206f776e6572600082015250565b7f746172676574206973206e6f7420612076616c6964204952656c617948756200600082015250565b7f63616e206f6e6c792062652063616c6c65642062792052656c61794875620000600082015250565b7f76616c7565207472616e73666572206e6f7420737570706f7274656400000000600082015250565b7f73686f756c642068617665206e6f20617070726f76616c446174610000000000600082015250565b61203481611cb8565b811461203f57600080fd5b50565b61204b81611cca565b811461205657600080fd5b50565b61206281611cdc565b811461206d57600080fd5b50565b61207981611ce8565b811461208457600080fd5b50565b61209081611d14565b811461209b57600080fd5b50565b6120a781611d46565b81146120b257600080fd5b5056fe332e302e302d626574612e332b6f70656e67736e2e61636365707465766572797468696e672e697061796d6173746572a2646970667358221220eef08ced155bb15e7a92612e604e9729d36e80c6645b9826393e3340e95c097364736f6c63430008070033",
					"opcodes": "PUSH1 0x80 PUSH1 0x40 MSTORE PUSH1 0x0 PUSH1 0x3 SSTORE CALLVALUE DUP1 ISZERO PUSH2 0x15 JUMPI PUSH1 0x0 DUP1 REVERT JUMPDEST POP PUSH2 0x32 PUSH2 0x27 PUSH2 0x37 PUSH1 0x20 SHL PUSH1 0x20 SHR JUMP JUMPDEST PUSH2 0x3F PUSH1 0x20 SHL PUSH1 0x20 SHR JUMP JUMPDEST PUSH2 0x103 JUMP JUMPDEST PUSH1 0x0 CALLER SWAP1 POP SWAP1 JUMP JUMPDEST PUSH1 0x0 DUP1 PUSH1 0x0 SWAP1 SLOAD SWAP1 PUSH2 0x100 EXP SWAP1 DIV PUSH20 0xFFFFFFFFFFFFFFFFFFFFFFFFFFFFFFFFFFFFFFFF AND SWAP1 POP DUP2 PUSH1 0x0 DUP1 PUSH2 0x100 EXP DUP2 SLOAD DUP2 PUSH20 0xFFFFFFFFFFFFFFFFFFFFFFFFFFFFFFFFFFFFFFFF MUL NOT AND SWAP1 DUP4 PUSH20 0xFFFFFFFFFFFFFFFFFFFFFFFFFFFFFFFFFFFFFFFF AND MUL OR SWAP1 SSTORE POP DUP2 PUSH20 0xFFFFFFFFFFFFFFFFFFFFFFFFFFFFFFFFFFFFFFFF AND DUP2 PUSH20 0xFFFFFFFFFFFFFFFFFFFFFFFFFFFFFFFFFFFFFFFF AND PUSH32 0x8BE0079C531659141344CD1FD0A4F28419497F9722A3DAAFE3B4186F6B6457E0 PUSH1 0x40 MLOAD PUSH1 0x40 MLOAD DUP1 SWAP2 SUB SWAP1 LOG3 POP POP JUMP JUMPDEST PUSH2 0x211B DUP1 PUSH3 0x113 PUSH1 0x0 CODECOPY PUSH1 0x0 RETURN INVALID PUSH1 0x80 PUSH1 0x40 MSTORE PUSH1 0x4 CALLDATASIZE LT PUSH2 0x117 JUMPI PUSH1 0x0 CALLDATALOAD PUSH1 0xE0 SHR DUP1 PUSH4 0x921276EA GT PUSH2 0xA0 JUMPI DUP1 PUSH4 0xDA742228 GT PUSH2 0x64 JUMPI DUP1 PUSH4 0xDA742228 EQ PUSH2 0x4A8 JUMPI DUP1 PUSH4 0xDF463A66 EQ PUSH2 0x4D1 JUMPI DUP1 PUSH4 0xEA818772 EQ PUSH2 0x4FC JUMPI DUP1 PUSH4 0xF2FDE38B EQ PUSH2 0x527 JUMPI DUP1 PUSH4 0xF9C002F7 EQ PUSH2 0x550 JUMPI PUSH2 0x23E JUMP JUMPDEST DUP1 PUSH4 0x921276EA EQ PUSH2 0x3D1 JUMPI DUP1 PUSH4 0xB039A88F EQ PUSH2 0x3FC JUMPI DUP1 PUSH4 0xB90B41CF EQ PUSH2 0x427 JUMPI DUP1 PUSH4 0xBBDAA3C9 EQ PUSH2 0x452 JUMPI DUP1 PUSH4 0xCE1B815F EQ PUSH2 0x47D JUMPI PUSH2 0x23E JUMP JUMPDEST DUP1 PUSH4 0x715018A6 GT PUSH2 0xE7 JUMPI DUP1 PUSH4 0x715018A6 EQ PUSH2 0x312 JUMPI DUP1 PUSH4 0x76FA01C3 EQ PUSH2 0x329 JUMPI DUP1 PUSH4 0x7BB05264 EQ PUSH2 0x352 JUMPI DUP1 PUSH4 0x7BDF2EC7 EQ PUSH2 0x37B JUMPI DUP1 PUSH4 0x8DA5CB5B EQ PUSH2 0x3A6 JUMPI PUSH2 0x23E JUMP JUMPDEST DUP1 PUSH3 0xBE5DD4 EQ PUSH2 0x243 JUMPI DUP1 PUSH4 0x1FFC9A7 EQ PUSH2 0x281 JUMPI DUP1 PUSH4 0x2D14C4B7 EQ PUSH2 0x2BE JUMPI DUP1 PUSH4 0x5C5E3DB1 EQ PUSH2 0x2E7 JUMPI PUSH2 0x23E JUMP JUMPDEST CALLDATASIZE PUSH2 0x23E JUMPI PUSH1 0x0 PUSH20 0xFFFFFFFFFFFFFFFFFFFFFFFFFFFFFFFFFFFFFFFF AND PUSH1 0x1 PUSH1 0x0 SWAP1 SLOAD SWAP1 PUSH2 0x100 EXP SWAP1 DIV PUSH20 0xFFFFFFFFFFFFFFFFFFFFFFFFFFFFFFFFFFFFFFFF AND PUSH20 0xFFFFFFFFFFFFFFFFFFFFFFFFFFFFFFFFFFFFFFFF AND EQ ISZERO PUSH2 0x1AE JUMPI PUSH1 0x40 MLOAD PUSH32 0x8C379A000000000000000000000000000000000000000000000000000000000 DUP2 MSTORE PUSH1 0x4 ADD PUSH2 0x1A5 SWAP1 PUSH2 0x1A15 JUMP JUMPDEST PUSH1 0x40 MLOAD DUP1 SWAP2 SUB SWAP1 REVERT JUMPDEST PUSH1 0x1 PUSH1 0x0 SWAP1 SLOAD SWAP1 PUSH2 0x100 EXP SWAP1 DIV PUSH20 0xFFFFFFFFFFFFFFFFFFFFFFFFFFFFFFFFFFFFFFFF AND PUSH20 0xFFFFFFFFFFFFFFFFFFFFFFFFFFFFFFFFFFFFFFFF AND PUSH4 0xAA67C919 CALLVALUE ADDRESS PUSH1 0x40 MLOAD DUP4 PUSH4 0xFFFFFFFF AND PUSH1 0xE0 SHL DUP2 MSTORE PUSH1 0x4 ADD PUSH2 0x20A SWAP2 SWAP1 PUSH2 0x18C9 JUMP JUMPDEST PUSH1 0x0 PUSH1 0x40 MLOAD DUP1 DUP4 SUB DUP2 DUP6 DUP9 DUP1 EXTCODESIZE ISZERO DUP1 ISZERO PUSH2 0x223 JUMPI PUSH1 0x0 DUP1 REVERT JUMPDEST POP GAS CALL ISZERO DUP1 ISZERO PUSH2 0x237 JUMPI RETURNDATASIZE PUSH1 0x0 DUP1 RETURNDATACOPY RETURNDATASIZE PUSH1 0x0 REVERT JUMPDEST POP POP POP POP POP STOP JUMPDEST PUSH1 0x0 DUP1 REVERT JUMPDEST CALLVALUE DUP1 ISZERO PUSH2 0x24F JUMPI PUSH1 0x0 DUP1 REVERT JUMPDEST POP PUSH2 0x26A PUSH1 0x4 DUP1 CALLDATASIZE SUB DUP2 ADD SWAP1 PUSH2 0x265 SWAP2 SWAP1 PUSH2 0x1496 JUMP JUMPDEST PUSH2 0x57B JUMP JUMPDEST PUSH1 0x40 MLOAD PUSH2 0x278 SWAP3 SWAP2 SWAP1 PUSH2 0x1943 JUMP JUMPDEST PUSH1 0x40 MLOAD DUP1 SWAP2 SUB SWAP1 RETURN JUMPDEST CALLVALUE DUP1 ISZERO PUSH2 0x28D JUMPI PUSH1 0x0 DUP1 REVERT JUMPDEST POP PUSH2 0x2A8 PUSH1 0x4 DUP1 CALLDATASIZE SUB DUP2 ADD SWAP1 PUSH2 0x2A3 SWAP2 SWAP1 PUSH2 0x1398 JUMP JUMPDEST PUSH2 0x5C9 JUMP JUMPDEST PUSH1 0x40 MLOAD PUSH2 0x2B5 SWAP2 SWAP1 PUSH2 0x190D JUMP JUMPDEST PUSH1 0x40 MLOAD DUP1 SWAP2 SUB SWAP1 RETURN JUMPDEST CALLVALUE DUP1 ISZERO PUSH2 0x2CA JUMPI PUSH1 0x0 DUP1 REVERT JUMPDEST POP PUSH2 0x2E5 PUSH1 0x4 DUP1 CALLDATASIZE SUB DUP2 ADD SWAP1 PUSH2 0x2E0 SWAP2 SWAP1 PUSH2 0x1559 JUMP JUMPDEST PUSH2 0x6AB JUMP JUMPDEST STOP JUMPDEST CALLVALUE DUP1 ISZERO PUSH2 0x2F3 JUMPI PUSH1 0x0 DUP1 REVERT JUMPDEST POP PUSH2 0x2FC PUSH2 0x746 JUMP JUMPDEST PUSH1 0x40 MLOAD PUSH2 0x309 SWAP2 SWAP1 PUSH2 0x1B50 JUMP JUMPDEST PUSH1 0x40 MLOAD DUP1 SWAP2 SUB SWAP1 RETURN JUMPDEST CALLVALUE DUP1 ISZERO PUSH2 0x31E JUMPI PUSH1 0x0 DUP1 REVERT JUMPDEST POP PUSH2 0x327 PUSH2 0x74C JUMP JUMPDEST STOP JUMPDEST CALLVALUE DUP1 ISZERO PUSH2 0x335 JUMPI PUSH1 0x0 DUP1 REVERT JUMPDEST POP PUSH2 0x350 PUSH1 0x4 DUP1 CALLDATASIZE SUB DUP2 ADD SWAP1 PUSH2 0x34B SWAP2 SWAP1 PUSH2 0x13C5 JUMP JUMPDEST PUSH2 0x760 JUMP JUMPDEST STOP JUMPDEST CALLVALUE DUP1 ISZERO PUSH2 0x35E JUMPI PUSH1 0x0 DUP1 REVERT JUMPDEST POP PUSH2 0x379 PUSH1 0x4 DUP1 CALLDATASIZE SUB DUP2 ADD SWAP1 PUSH2 0x374 SWAP2 SWAP1 PUSH2 0x1469 JUMP JUMPDEST PUSH2 0x77C JUMP JUMPDEST STOP JUMPDEST CALLVALUE DUP1 ISZERO PUSH2 0x387 JUMPI PUSH1 0x0 DUP1 REVERT JUMPDEST POP PUSH2 0x390 PUSH2 0x850 JUMP JUMPDEST PUSH1 0x40 MLOAD PUSH2 0x39D SWAP2 SWAP1 PUSH2 0x18C9 JUMP JUMPDEST PUSH1 0x40 MLOAD DUP1 SWAP2 SUB SWAP1 RETURN JUMPDEST CALLVALUE DUP1 ISZERO PUSH2 0x3B2 JUMPI PUSH1 0x0 DUP1 REVERT JUMPDEST POP PUSH2 0x3BB PUSH2 0x87A JUMP JUMPDEST PUSH1 0x40 MLOAD PUSH2 0x3C8 SWAP2 SWAP1 PUSH2 0x18C9 JUMP JUMPDEST PUSH1 0x40 MLOAD DUP1 SWAP2 SUB SWAP1 RETURN JUMPDEST CALLVALUE DUP1 ISZERO PUSH2 0x3DD JUMPI PUSH1 0x0 DUP1 REVERT JUMPDEST POP PUSH2 0x3E6 PUSH2 0x8A3 JUMP JUMPDEST PUSH1 0x40 MLOAD PUSH2 0x3F3 SWAP2 SWAP1 PUSH2 0x1973 JUMP JUMPDEST PUSH1 0x40 MLOAD DUP1 SWAP2 SUB SWAP1 RETURN JUMPDEST CALLVALUE DUP1 ISZERO PUSH2 0x408 JUMPI PUSH1 0x0 DUP1 REVERT JUMPDEST POP PUSH2 0x411 PUSH2 0x8C3 JUMP JUMPDEST PUSH1 0x40 MLOAD PUSH2 0x41E SWAP2 SWAP1 PUSH2 0x1B35 JUMP JUMPDEST PUSH1 0x40 MLOAD DUP1 SWAP2 SUB SWAP1 RETURN JUMPDEST CALLVALUE DUP1 ISZERO PUSH2 0x433 JUMPI PUSH1 0x0 DUP1 REVERT JUMPDEST POP PUSH2 0x43C PUSH2 0x909 JUMP JUMPDEST PUSH1 0x40 MLOAD PUSH2 0x449 SWAP2 SWAP1 PUSH2 0x1B50 JUMP JUMPDEST PUSH1 0x40 MLOAD DUP1 SWAP2 SUB SWAP1 RETURN JUMPDEST CALLVALUE DUP1 ISZERO PUSH2 0x45E JUMPI PUSH1 0x0 DUP1 REVERT JUMPDEST POP PUSH2 0x467 PUSH2 0x90F JUMP JUMPDEST PUSH1 0x40 MLOAD PUSH2 0x474 SWAP2 SWAP1 PUSH2 0x1B50 JUMP JUMPDEST PUSH1 0x40 MLOAD DUP1 SWAP2 SUB SWAP1 RETURN JUMPDEST CALLVALUE DUP1 ISZERO PUSH2 0x489 JUMPI PUSH1 0x0 DUP1 REVERT JUMPDEST POP PUSH2 0x492 PUSH2 0x916 JUMP JUMPDEST PUSH1 0x40 MLOAD PUSH2 0x49F SWAP2 SWAP1 PUSH2 0x18C9 JUMP JUMPDEST PUSH1 0x40 MLOAD DUP1 SWAP2 SUB SWAP1 RETURN JUMPDEST CALLVALUE DUP1 ISZERO PUSH2 0x4B4 JUMPI PUSH1 0x0 DUP1 REVERT JUMPDEST POP PUSH2 0x4CF PUSH1 0x4 DUP1 CALLDATASIZE SUB DUP2 ADD SWAP1 PUSH2 0x4CA SWAP2 SWAP1 PUSH2 0x133E JUMP JUMPDEST PUSH2 0x940 JUMP JUMPDEST STOP JUMPDEST CALLVALUE DUP1 ISZERO PUSH2 0x4DD JUMPI PUSH1 0x0 DUP1 REVERT JUMPDEST POP PUSH2 0x4E6 PUSH2 0xA14 JUMP JUMPDEST PUSH1 0x40 MLOAD PUSH2 0x4F3 SWAP2 SWAP1 PUSH2 0x1B50 JUMP JUMPDEST PUSH1 0x40 MLOAD DUP1 SWAP2 SUB SWAP1 RETURN JUMPDEST CALLVALUE DUP1 ISZERO PUSH2 0x508 JUMPI PUSH1 0x0 DUP1 REVERT JUMPDEST POP PUSH2 0x511 PUSH2 0xA28 JUMP JUMPDEST PUSH1 0x40 MLOAD PUSH2 0x51E SWAP2 SWAP1 PUSH2 0x1B50 JUMP JUMPDEST PUSH1 0x40 MLOAD DUP1 SWAP2 SUB SWAP1 RETURN JUMPDEST CALLVALUE DUP1 ISZERO PUSH2 0x533 JUMPI PUSH1 0x0 DUP1 REVERT JUMPDEST POP PUSH2 0x54E PUSH1 0x4 DUP1 CALLDATASIZE SUB DUP2 ADD SWAP1 PUSH2 0x549 SWAP2 SWAP1 PUSH2 0x133E JUMP JUMPDEST PUSH2 0xA30 JUMP JUMPDEST STOP JUMPDEST CALLVALUE DUP1 ISZERO PUSH2 0x55C JUMPI PUSH1 0x0 DUP1 REVERT JUMPDEST POP PUSH2 0x565 PUSH2 0xAB4 JUMP JUMPDEST PUSH1 0x40 MLOAD PUSH2 0x572 SWAP2 SWAP1 PUSH2 0x1B50 JUMP JUMPDEST PUSH1 0x40 MLOAD DUP1 SWAP2 SUB SWAP1 RETURN JUMPDEST PUSH1 0x60 PUSH1 0x0 PUSH2 0x587 PUSH2 0xABB JUMP JUMPDEST PUSH2 0x590 DUP9 PUSH2 0xB32 JUMP JUMPDEST PUSH2 0x599 DUP9 PUSH2 0xBD4 JUMP JUMPDEST PUSH2 0x5A2 DUP9 PUSH2 0xC2D JUMP JUMPDEST PUSH2 0x5AC DUP6 DUP6 PUSH2 0xC93 JUMP JUMPDEST PUSH2 0x5BA DUP9 DUP9 DUP9 DUP9 DUP9 DUP9 PUSH2 0xCDD JUMP JUMPDEST SWAP2 POP SWAP2 POP SWAP7 POP SWAP7 SWAP5 POP POP POP POP POP JUMP JUMPDEST PUSH1 0x0 PUSH32 0xE1AB2DEA00000000000000000000000000000000000000000000000000000000 PUSH28 0xFFFFFFFFFFFFFFFFFFFFFFFFFFFFFFFFFFFFFFFFFFFFFFFFFFFFFFFF NOT AND DUP3 PUSH28 0xFFFFFFFFFFFFFFFFFFFFFFFFFFFFFFFFFFFFFFFFFFFFFFFFFFFFFFFF NOT AND EQ DUP1 PUSH2 0x694 JUMPI POP PUSH32 0xE08307600000000000000000000000000000000000000000000000000000000 PUSH28 0xFFFFFFFFFFFFFFFFFFFFFFFFFFFFFFFFFFFFFFFFFFFFFFFFFFFFFFFF NOT AND DUP3 PUSH28 0xFFFFFFFFFFFFFFFFFFFFFFFFFFFFFFFFFFFFFFFFFFFFFFFFFFFFFFFF NOT AND EQ JUMPDEST DUP1 PUSH2 0x6A4 JUMPI POP PUSH2 0x6A3 DUP3 PUSH2 0xD02 JUMP JUMPDEST JUMPDEST SWAP1 POP SWAP2 SWAP1 POP JUMP JUMPDEST PUSH2 0x6B3 PUSH2 0xD6C JUMP JUMPDEST PUSH1 0x1 PUSH1 0x0 SWAP1 SLOAD SWAP1 PUSH2 0x100 EXP SWAP1 DIV PUSH20 0xFFFFFFFFFFFFFFFFFFFFFFFFFFFFFFFFFFFFFFFF AND PUSH20 0xFFFFFFFFFFFFFFFFFFFFFFFFFFFFFFFFFFFFFFFF AND PUSH4 0xF3FEF3A3 DUP3 DUP5 PUSH1 0x40 MLOAD DUP4 PUSH4 0xFFFFFFFF AND PUSH1 0xE0 SHL DUP2 MSTORE PUSH1 0x4 ADD PUSH2 0x710 SWAP3 SWAP2 SWAP1 PUSH2 0x18E4 JUMP JUMPDEST PUSH1 0x0 PUSH1 0x40 MLOAD DUP1 DUP4 SUB DUP2 PUSH1 0x0 DUP8 DUP1 EXTCODESIZE ISZERO DUP1 ISZERO PUSH2 0x72A JUMPI PUSH1 0x0 DUP1 REVERT JUMPDEST POP GAS CALL ISZERO DUP1 ISZERO PUSH2 0x73E JUMPI RETURNDATASIZE PUSH1 0x0 DUP1 RETURNDATACOPY RETURNDATASIZE PUSH1 0x0 REVERT JUMPDEST POP POP POP POP POP POP JUMP JUMPDEST PUSH2 0x2904 DUP2 JUMP JUMPDEST PUSH2 0x754 PUSH2 0xD6C JUMP JUMPDEST PUSH2 0x75E PUSH1 0x0 PUSH2 0xDEA JUMP JUMPDEST JUMP JUMPDEST PUSH2 0x768 PUSH2 0xABB JUMP JUMPDEST PUSH2 0x775 DUP6 DUP6 DUP6 DUP6 DUP6 PUSH2 0xEAE JUMP JUMPDEST POP POP POP POP POP JUMP JUMPDEST PUSH2 0x784 PUSH2 0xD6C JUMP JUMPDEST PUSH2 0x7CD PUSH32 0xE9FB30F700000000000000000000000000000000000000000000000000000000 DUP3 PUSH20 0xFFFFFFFFFFFFFFFFFFFFFFFFFFFFFFFFFFFFFFFF AND PUSH2 0xEB5 SWAP1 SWAP2 SWAP1 PUSH4 0xFFFFFFFF AND JUMP JUMPDEST PUSH2 0x80C JUMPI PUSH1 0x40 MLOAD PUSH32 0x8C379A000000000000000000000000000000000000000000000000000000000 DUP2 MSTORE PUSH1 0x4 ADD PUSH2 0x803 SWAP1 PUSH2 0x1AB5 JUMP JUMPDEST PUSH1 0x40 MLOAD DUP1 SWAP2 SUB SWAP1 REVERT JUMPDEST DUP1 PUSH1 0x1 PUSH1 0x0 PUSH2 0x100 EXP DUP2 SLOAD DUP2 PUSH20 0xFFFFFFFFFFFFFFFFFFFFFFFFFFFFFFFFFFFFFFFF MUL NOT AND SWAP1 DUP4 PUSH20 0xFFFFFFFFFFFFFFFFFFFFFFFFFFFFFFFFFFFFFFFF AND MUL OR SWAP1 SSTORE POP POP JUMP JUMPDEST PUSH1 0x0 PUSH1 0x1 PUSH1 0x0 SWAP1 SLOAD SWAP1 PUSH2 0x100 EXP SWAP1 DIV PUSH20 0xFFFFFFFFFFFFFFFFFFFFFFFFFFFFFFFFFFFFFFFF AND SWAP1 POP SWAP1 JUMP JUMPDEST PUSH1 0x0 DUP1 PUSH1 0x0 SWAP1 SLOAD SWAP1 PUSH2 0x100 EXP SWAP1 DIV PUSH20 0xFFFFFFFFFFFFFFFFFFFFFFFFFFFFFFFFFFFFFFFF AND SWAP1 POP SWAP1 JUMP JUMPDEST PUSH1 0x60 PUSH1 0x40 MLOAD DUP1 PUSH1 0x60 ADD PUSH1 0x40 MSTORE DUP1 PUSH1 0x30 DUP2 MSTORE PUSH1 0x20 ADD PUSH2 0x20B6 PUSH1 0x30 SWAP2 CODECOPY SWAP1 POP SWAP1 JUMP JUMPDEST PUSH2 0x8CB PUSH2 0x11EE JUMP JUMPDEST PUSH1 0x40 MLOAD DUP1 PUSH1 0x80 ADD PUSH1 0x40 MSTORE DUP1 PUSH2 0xC350 PUSH3 0x186A0 PUSH2 0x8E7 SWAP2 SWAP1 PUSH2 0x1C62 JUMP JUMPDEST DUP2 MSTORE PUSH1 0x20 ADD PUSH3 0x186A0 DUP2 MSTORE PUSH1 0x20 ADD PUSH3 0x1ADB0 DUP2 MSTORE PUSH1 0x20 ADD PUSH2 0x2904 DUP2 MSTORE POP SWAP1 POP SWAP1 JUMP JUMPDEST PUSH2 0xC350 DUP2 JUMP JUMPDEST PUSH3 0x1ADB0 DUP2 JUMP JUMPDEST PUSH1 0x0 PUSH1 0x2 PUSH1 0x0 SWAP1 SLOAD SWAP1 PUSH2 0x100 EXP SWAP1 DIV PUSH20 0xFFFFFFFFFFFFFFFFFFFFFFFFFFFFFFFFFFFFFFFF AND SWAP1 POP SWAP1 JUMP JUMPDEST PUSH2 0x948 PUSH2 0xD6C JUMP JUMPDEST PUSH2 0x991 PUSH32 0x25E23E6400000000000000000000000000000000000000000000000000000000 DUP3 PUSH20 0xFFFFFFFFFFFFFFFFFFFFFFFFFFFFFFFFFFFFFFFF AND PUSH2 0xEB5 SWAP1 SWAP2 SWAP1 PUSH4 0xFFFFFFFF AND JUMP JUMPDEST PUSH2 0x9D0 JUMPI PUSH1 0x40 MLOAD PUSH32 0x8C379A000000000000000000000000000000000000000000000000000000000 DUP2 MSTORE PUSH1 0x4 ADD PUSH2 0x9C7 SWAP1 PUSH2 0x1A55 JUMP JUMPDEST PUSH1 0x40 MLOAD DUP1 SWAP2 SUB SWAP1 REVERT JUMPDEST DUP1 PUSH1 0x2 PUSH1 0x0 PUSH2 0x100 EXP DUP2 SLOAD DUP2 PUSH20 0xFFFFFFFFFFFFFFFFFFFFFFFFFFFFFFFFFFFFFFFF MUL NOT AND SWAP1 DUP4 PUSH20 0xFFFFFFFFFFFFFFFFFFFFFFFFFFFFFFFFFFFFFFFF AND MUL OR SWAP1 SSTORE POP POP JUMP JUMPDEST PUSH2 0xC350 PUSH3 0x186A0 PUSH2 0xA25 SWAP2 SWAP1 PUSH2 0x1C62 JUMP JUMPDEST DUP2 JUMP JUMPDEST PUSH1 0x0 SELFBALANCE SWAP1 POP SWAP1 JUMP JUMPDEST PUSH2 0xA38 PUSH2 0xD6C JUMP JUMPDEST PUSH1 0x0 PUSH20 0xFFFFFFFFFFFFFFFFFFFFFFFFFFFFFFFFFFFFFFFF AND DUP2 PUSH20 0xFFFFFFFFFFFFFFFFFFFFFFFFFFFFFFFFFFFFFFFF AND EQ ISZERO PUSH2 0xAA8 JUMPI PUSH1 0x40 MLOAD PUSH32 0x8C379A000000000000000000000000000000000000000000000000000000000 DUP2 MSTORE PUSH1 0x4 ADD PUSH2 0xA9F SWAP1 PUSH2 0x19D5 JUMP JUMPDEST PUSH1 0x40 MLOAD DUP1 SWAP2 SUB SWAP1 REVERT JUMPDEST PUSH2 0xAB1 DUP2 PUSH2 0xDEA JUMP JUMPDEST POP JUMP JUMPDEST PUSH3 0x186A0 DUP2 JUMP JUMPDEST PUSH2 0xAC3 PUSH2 0x850 JUMP JUMPDEST PUSH20 0xFFFFFFFFFFFFFFFFFFFFFFFFFFFFFFFFFFFFFFFF AND CALLER PUSH20 0xFFFFFFFFFFFFFFFFFFFFFFFFFFFFFFFFFFFFFFFF AND EQ PUSH2 0xB30 JUMPI PUSH1 0x40 MLOAD PUSH32 0x8C379A000000000000000000000000000000000000000000000000000000000 DUP2 MSTORE PUSH1 0x4 ADD PUSH2 0xB27 SWAP1 PUSH2 0x1AD5 JUMP JUMPDEST PUSH1 0x40 MLOAD DUP1 SWAP2 SUB SWAP1 REVERT JUMPDEST JUMP JUMPDEST DUP1 DUP1 PUSH1 0x20 ADD SWAP1 PUSH2 0xB42 SWAP2 SWAP1 PUSH2 0x1BF6 JUMP JUMPDEST PUSH1 0xA0 ADD PUSH1 0x20 DUP2 ADD SWAP1 PUSH2 0xB54 SWAP2 SWAP1 PUSH2 0x133E JUMP JUMPDEST PUSH20 0xFFFFFFFFFFFFFFFFFFFFFFFFFFFFFFFFFFFFFFFF AND PUSH2 0xB72 PUSH2 0x916 JUMP JUMPDEST PUSH20 0xFFFFFFFFFFFFFFFFFFFFFFFFFFFFFFFFFFFFFFFF AND EQ PUSH2 0xBC8 JUMPI PUSH1 0x40 MLOAD PUSH32 0x8C379A000000000000000000000000000000000000000000000000000000000 DUP2 MSTORE PUSH1 0x4 ADD PUSH2 0xBBF SWAP1 PUSH2 0x1A35 JUMP JUMPDEST PUSH1 0x40 MLOAD DUP1 SWAP2 SUB SWAP1 REVERT JUMPDEST PUSH2 0xBD1 DUP2 PUSH2 0xEDA JUMP JUMPDEST POP JUMP JUMPDEST PUSH1 0x0 DUP2 DUP1 PUSH1 0x0 ADD SWAP1 PUSH2 0xBE6 SWAP2 SWAP1 PUSH2 0x1BCE JUMP JUMPDEST PUSH1 0x40 ADD CALLDATALOAD EQ PUSH2 0xC2A JUMPI PUSH1 0x40 MLOAD PUSH32 0x8C379A000000000000000000000000000000000000000000000000000000000 DUP2 MSTORE PUSH1 0x4 ADD PUSH2 0xC21 SWAP1 PUSH2 0x1AF5 JUMP JUMPDEST PUSH1 0x40 MLOAD DUP1 SWAP2 SUB SWAP1 REVERT JUMPDEST POP JUMP JUMPDEST PUSH1 0x0 DUP2 DUP1 PUSH1 0x20 ADD SWAP1 PUSH2 0xC3F SWAP2 SWAP1 PUSH2 0x1BF6 JUMP JUMPDEST DUP1 PUSH1 0xC0 ADD SWAP1 PUSH2 0xC4E SWAP2 SWAP1 PUSH2 0x1B6B JUMP JUMPDEST SWAP1 POP EQ PUSH2 0xC90 JUMPI PUSH1 0x40 MLOAD PUSH32 0x8C379A000000000000000000000000000000000000000000000000000000000 DUP2 MSTORE PUSH1 0x4 ADD PUSH2 0xC87 SWAP1 PUSH2 0x1995 JUMP JUMPDEST PUSH1 0x40 MLOAD DUP1 SWAP2 SUB SWAP1 REVERT JUMPDEST POP JUMP JUMPDEST PUSH1 0x0 DUP3 DUP3 SWAP1 POP EQ PUSH2 0xCD9 JUMPI PUSH1 0x40 MLOAD PUSH32 0x8C379A000000000000000000000000000000000000000000000000000000000 DUP2 MSTORE PUSH1 0x4 ADD PUSH2 0xCD0 SWAP1 PUSH2 0x1B15 JUMP JUMPDEST PUSH1 0x40 MLOAD DUP1 SWAP2 SUB SWAP1 REVERT JUMPDEST POP POP JUMP JUMPDEST PUSH1 0x60 PUSH1 0x0 DUP1 PUSH1 0x40 MLOAD DUP1 PUSH1 0x20 ADD PUSH1 0x40 MSTORE DUP1 PUSH1 0x0 DUP2 MSTORE POP SWAP1 SWAP2 POP SWAP2 POP SWAP7 POP SWAP7 SWAP5 POP POP POP POP POP JUMP JUMPDEST PUSH1 0x0 PUSH32 0x1FFC9A700000000000000000000000000000000000000000000000000000000 PUSH28 0xFFFFFFFFFFFFFFFFFFFFFFFFFFFFFFFFFFFFFFFFFFFFFFFFFFFFFFFF NOT AND DUP3 PUSH28 0xFFFFFFFFFFFFFFFFFFFFFFFFFFFFFFFFFFFFFFFFFFFFFFFFFFFFFFFF NOT AND EQ SWAP1 POP SWAP2 SWAP1 POP JUMP JUMPDEST PUSH2 0xD74 PUSH2 0x10DA JUMP JUMPDEST PUSH20 0xFFFFFFFFFFFFFFFFFFFFFFFFFFFFFFFFFFFFFFFF AND PUSH2 0xD92 PUSH2 0x87A JUMP JUMPDEST PUSH20 0xFFFFFFFFFFFFFFFFFFFFFFFFFFFFFFFFFFFFFFFF AND EQ PUSH2 0xDE8 JUMPI PUSH1 0x40 MLOAD PUSH32 0x8C379A000000000000000000000000000000000000000000000000000000000 DUP2 MSTORE PUSH1 0x4 ADD PUSH2 0xDDF SWAP1 PUSH2 0x1A95 JUMP JUMPDEST PUSH1 0x40 MLOAD DUP1 SWAP2 SUB SWAP1 REVERT JUMPDEST JUMP JUMPDEST PUSH1 0x0 DUP1 PUSH1 0x0 SWAP1 SLOAD SWAP1 PUSH2 0x100 EXP SWAP1 DIV PUSH20 0xFFFFFFFFFFFFFFFFFFFFFFFFFFFFFFFFFFFFFFFF AND SWAP1 POP DUP2 PUSH1 0x0 DUP1 PUSH2 0x100 EXP DUP2 SLOAD DUP2 PUSH20 0xFFFFFFFFFFFFFFFFFFFFFFFFFFFFFFFFFFFFFFFF MUL NOT AND SWAP1 DUP4 PUSH20 0xFFFFFFFFFFFFFFFFFFFFFFFFFFFFFFFFFFFFFFFF AND MUL OR SWAP1 SSTORE POP DUP2 PUSH20 0xFFFFFFFFFFFFFFFFFFFFFFFFFFFFFFFFFFFFFFFF AND DUP2 PUSH20 0xFFFFFFFFFFFFFFFFFFFFFFFFFFFFFFFFFFFFFFFF AND PUSH32 0x8BE0079C531659141344CD1FD0A4F28419497F9722A3DAAFE3B4186F6B6457E0 PUSH1 0x40 MLOAD PUSH1 0x40 MLOAD DUP1 SWAP2 SUB SWAP1 LOG3 POP POP JUMP JUMPDEST POP POP POP POP POP JUMP JUMPDEST PUSH1 0x0 PUSH2 0xEC0 DUP4 PUSH2 0x10E2 JUMP JUMPDEST DUP1 ISZERO PUSH2 0xED2 JUMPI POP PUSH2 0xED1 DUP4 DUP4 PUSH2 0x112F JUMP JUMPDEST JUMPDEST SWAP1 POP SWAP3 SWAP2 POP POP JUMP JUMPDEST PUSH1 0x0 DUP1 DUP3 DUP1 PUSH1 0x0 ADD SWAP1 PUSH2 0xEED SWAP2 SWAP1 PUSH2 0x1BCE JUMP JUMPDEST PUSH1 0x20 ADD PUSH1 0x20 DUP2 ADD SWAP1 PUSH2 0xEFF SWAP2 SWAP1 PUSH2 0x133E JUMP JUMPDEST PUSH20 0xFFFFFFFFFFFFFFFFFFFFFFFFFFFFFFFFFFFFFFFF AND PUSH4 0x572B6C05 PUSH1 0xE0 SHL DUP5 DUP1 PUSH1 0x20 ADD SWAP1 PUSH2 0xF2D SWAP2 SWAP1 PUSH2 0x1BF6 JUMP JUMPDEST PUSH1 0xA0 ADD PUSH1 0x20 DUP2 ADD SWAP1 PUSH2 0xF3F SWAP2 SWAP1 PUSH2 0x133E JUMP JUMPDEST PUSH1 0x40 MLOAD PUSH1 0x24 ADD PUSH2 0xF4F SWAP2 SWAP1 PUSH2 0x18C9 JUMP JUMPDEST PUSH1 0x40 MLOAD PUSH1 0x20 DUP2 DUP4 SUB SUB DUP2 MSTORE SWAP1 PUSH1 0x40 MSTORE SWAP1 PUSH28 0xFFFFFFFFFFFFFFFFFFFFFFFFFFFFFFFFFFFFFFFFFFFFFFFFFFFFFFFF NOT AND PUSH1 0x20 DUP3 ADD DUP1 MLOAD PUSH28 0xFFFFFFFFFFFFFFFFFFFFFFFFFFFFFFFFFFFFFFFFFFFFFFFFFFFFFFFF DUP4 DUP2 DUP4 AND OR DUP4 MSTORE POP POP POP POP PUSH1 0x40 MLOAD PUSH2 0xFB9 SWAP2 SWAP1 PUSH2 0x18B2 JUMP JUMPDEST PUSH1 0x0 PUSH1 0x40 MLOAD DUP1 DUP4 SUB DUP2 DUP6 GAS STATICCALL SWAP2 POP POP RETURNDATASIZE DUP1 PUSH1 0x0 DUP2 EQ PUSH2 0xFF4 JUMPI PUSH1 0x40 MLOAD SWAP2 POP PUSH1 0x1F NOT PUSH1 0x3F RETURNDATASIZE ADD AND DUP3 ADD PUSH1 0x40 MSTORE RETURNDATASIZE DUP3 MSTORE RETURNDATASIZE PUSH1 0x0 PUSH1 0x20 DUP5 ADD RETURNDATACOPY PUSH2 0xFF9 JUMP JUMPDEST PUSH1 0x60 SWAP2 POP JUMPDEST POP SWAP2 POP SWAP2 POP DUP2 PUSH2 0x103E JUMPI PUSH1 0x40 MLOAD PUSH32 0x8C379A000000000000000000000000000000000000000000000000000000000 DUP2 MSTORE PUSH1 0x4 ADD PUSH2 0x1035 SWAP1 PUSH2 0x19F5 JUMP JUMPDEST PUSH1 0x40 MLOAD DUP1 SWAP2 SUB SWAP1 REVERT JUMPDEST PUSH1 0x20 DUP2 MLOAD EQ PUSH2 0x1082 JUMPI PUSH1 0x40 MLOAD PUSH32 0x8C379A000000000000000000000000000000000000000000000000000000000 DUP2 MSTORE PUSH1 0x4 ADD PUSH2 0x1079 SWAP1 PUSH2 0x1A75 JUMP JUMPDEST PUSH1 0x40 MLOAD DUP1 SWAP2 SUB SWAP1 REVERT JUMPDEST DUP1 DUP1 PUSH1 0x20 ADD SWAP1 MLOAD DUP2 ADD SWAP1 PUSH2 0x1096 SWAP2 SWAP1 PUSH2 0x136B JUMP JUMPDEST PUSH2 0x10D5 JUMPI PUSH1 0x40 MLOAD PUSH32 0x8C379A000000000000000000000000000000000000000000000000000000000 DUP2 MSTORE PUSH1 0x4 ADD PUSH2 0x10CC SWAP1 PUSH2 0x19B5 JUMP JUMPDEST PUSH1 0x40 MLOAD DUP1 SWAP2 SUB SWAP1 REVERT JUMPDEST POP POP POP JUMP JUMPDEST PUSH1 0x0 CALLER SWAP1 POP SWAP1 JUMP JUMPDEST PUSH1 0x0 PUSH2 0x110E DUP3 PUSH32 0x1FFC9A700000000000000000000000000000000000000000000000000000000 PUSH2 0x112F JUMP JUMPDEST DUP1 ISZERO PUSH2 0x1128 JUMPI POP PUSH2 0x1126 DUP3 PUSH4 0xFFFFFFFF PUSH1 0xE0 SHL PUSH2 0x112F JUMP JUMPDEST ISZERO JUMPDEST SWAP1 POP SWAP2 SWAP1 POP JUMP JUMPDEST PUSH1 0x0 DUP1 PUSH4 0x1FFC9A7 PUSH1 0xE0 SHL DUP4 PUSH1 0x40 MLOAD PUSH1 0x24 ADD PUSH2 0x114B SWAP2 SWAP1 PUSH2 0x1928 JUMP JUMPDEST PUSH1 0x40 MLOAD PUSH1 0x20 DUP2 DUP4 SUB SUB DUP2 MSTORE SWAP1 PUSH1 0x40 MSTORE SWAP1 PUSH28 0xFFFFFFFFFFFFFFFFFFFFFFFFFFFFFFFFFFFFFFFFFFFFFFFFFFFFFFFF NOT AND PUSH1 0x20 DUP3 ADD DUP1 MLOAD PUSH28 0xFFFFFFFFFFFFFFFFFFFFFFFFFFFFFFFFFFFFFFFFFFFFFFFFFFFFFFFF DUP4 DUP2 DUP4 AND OR DUP4 MSTORE POP POP POP POP SWAP1 POP PUSH1 0x0 DUP1 PUSH1 0x0 PUSH1 0x20 PUSH1 0x0 DUP6 MLOAD PUSH1 0x20 DUP8 ADD DUP11 PUSH2 0x7530 STATICCALL SWAP3 POP RETURNDATASIZE SWAP2 POP PUSH1 0x0 MLOAD SWAP1 POP DUP3 DUP1 ISZERO PUSH2 0x11D6 JUMPI POP PUSH1 0x20 DUP3 LT ISZERO JUMPDEST DUP1 ISZERO PUSH2 0x11E2 JUMPI POP PUSH1 0x0 DUP2 GT JUMPDEST SWAP5 POP POP POP POP POP SWAP3 SWAP2 POP POP JUMP JUMPDEST PUSH1 0x40 MLOAD DUP1 PUSH1 0x80 ADD PUSH1 0x40 MSTORE DUP1 PUSH1 0x0 DUP2 MSTORE PUSH1 0x20 ADD PUSH1 0x0 DUP2 MSTORE PUSH1 0x20 ADD PUSH1 0x0 DUP2 MSTORE PUSH1 0x20 ADD PUSH1 0x0 DUP2 MSTORE POP SWAP1 JUMP JUMPDEST PUSH1 0x0 DUP2 CALLDATALOAD SWAP1 POP PUSH2 0x1225 DUP2 PUSH2 0x202B JUMP JUMPDEST SWAP3 SWAP2 POP POP JUMP JUMPDEST PUSH1 0x0 DUP2 CALLDATALOAD SWAP1 POP PUSH2 0x123A DUP2 PUSH2 0x2042 JUMP JUMPDEST SWAP3 SWAP2 POP POP JUMP JUMPDEST PUSH1 0x0 DUP2 CALLDATALOAD SWAP1 POP PUSH2 0x124F DUP2 PUSH2 0x2059 JUMP JUMPDEST SWAP3 SWAP2 POP POP JUMP JUMPDEST PUSH1 0x0 DUP2 MLOAD SWAP1 POP PUSH2 0x1264 DUP2 PUSH2 0x2059 JUMP JUMPDEST SWAP3 SWAP2 POP POP JUMP JUMPDEST PUSH1 0x0 DUP2 CALLDATALOAD SWAP1 POP PUSH2 0x1279 DUP2 PUSH2 0x2070 JUMP JUMPDEST SWAP3 SWAP2 POP POP JUMP JUMPDEST PUSH1 0x0 DUP1 DUP4 PUSH1 0x1F DUP5 ADD SLT PUSH2 0x1295 JUMPI PUSH2 0x1294 PUSH2 0x1DB7 JUMP JUMPDEST JUMPDEST DUP3 CALLDATALOAD SWAP1 POP PUSH8 0xFFFFFFFFFFFFFFFF DUP2 GT ISZERO PUSH2 0x12B2 JUMPI PUSH2 0x12B1 PUSH2 0x1DB2 JUMP JUMPDEST JUMPDEST PUSH1 0x20 DUP4 ADD SWAP2 POP DUP4 PUSH1 0x1 DUP3 MUL DUP4 ADD GT ISZERO PUSH2 0x12CE JUMPI PUSH2 0x12CD PUSH2 0x1DCB JUMP JUMPDEST JUMPDEST SWAP3 POP SWAP3 SWAP1 POP JUMP JUMPDEST PUSH1 0x0 DUP2 CALLDATALOAD SWAP1 POP PUSH2 0x12E4 DUP2 PUSH2 0x2087 JUMP JUMPDEST SWAP3 SWAP2 POP POP JUMP JUMPDEST PUSH1 0x0 PUSH2 0x100 DUP3 DUP5 SUB SLT ISZERO PUSH2 0x1301 JUMPI PUSH2 0x1300 PUSH2 0x1DC1 JUMP JUMPDEST JUMPDEST DUP2 SWAP1 POP SWAP3 SWAP2 POP POP JUMP JUMPDEST PUSH1 0x0 PUSH1 0x40 DUP3 DUP5 SUB SLT ISZERO PUSH2 0x1320 JUMPI PUSH2 0x131F PUSH2 0x1DC1 JUMP JUMPDEST JUMPDEST DUP2 SWAP1 POP SWAP3 SWAP2 POP POP JUMP JUMPDEST PUSH1 0x0 DUP2 CALLDATALOAD SWAP1 POP PUSH2 0x1338 DUP2 PUSH2 0x209E JUMP JUMPDEST SWAP3 SWAP2 POP POP JUMP JUMPDEST PUSH1 0x0 PUSH1 0x20 DUP3 DUP5 SUB SLT ISZERO PUSH2 0x1354 JUMPI PUSH2 0x1353 PUSH2 0x1DDA JUMP JUMPDEST JUMPDEST PUSH1 0x0 PUSH2 0x1362 DUP5 DUP3 DUP6 ADD PUSH2 0x1216 JUMP JUMPDEST SWAP2 POP POP SWAP3 SWAP2 POP POP JUMP JUMPDEST PUSH1 0x0 PUSH1 0x20 DUP3 DUP5 SUB SLT ISZERO PUSH2 0x1381 JUMPI PUSH2 0x1380 PUSH2 0x1DDA JUMP JUMPDEST JUMPDEST PUSH1 0x0 PUSH2 0x138F DUP5 DUP3 DUP6 ADD PUSH2 0x1255 JUMP JUMPDEST SWAP2 POP POP SWAP3 SWAP2 POP POP JUMP JUMPDEST PUSH1 0x0 PUSH1 0x20 DUP3 DUP5 SUB SLT ISZERO PUSH2 0x13AE JUMPI PUSH2 0x13AD PUSH2 0x1DDA JUMP JUMPDEST JUMPDEST PUSH1 0x0 PUSH2 0x13BC DUP5 DUP3 DUP6 ADD PUSH2 0x126A JUMP JUMPDEST SWAP2 POP POP SWAP3 SWAP2 POP POP JUMP JUMPDEST PUSH1 0x0 DUP1 PUSH1 0x0 DUP1 PUSH1 0x0 PUSH1 0x80 DUP7 DUP9 SUB SLT ISZERO PUSH2 0x13E1 JUMPI PUSH2 0x13E0 PUSH2 0x1DDA JUMP JUMPDEST JUMPDEST PUSH1 0x0 DUP7 ADD CALLDATALOAD PUSH8 0xFFFFFFFFFFFFFFFF DUP2 GT ISZERO PUSH2 0x13FF JUMPI PUSH2 0x13FE PUSH2 0x1DD5 JUMP JUMPDEST JUMPDEST PUSH2 0x140B DUP9 DUP3 DUP10 ADD PUSH2 0x127F JUMP JUMPDEST SWAP6 POP SWAP6 POP POP PUSH1 0x20 PUSH2 0x141E DUP9 DUP3 DUP10 ADD PUSH2 0x1240 JUMP JUMPDEST SWAP4 POP POP PUSH1 0x40 PUSH2 0x142F DUP9 DUP3 DUP10 ADD PUSH2 0x1329 JUMP JUMPDEST SWAP3 POP POP PUSH1 0x60 DUP7 ADD CALLDATALOAD PUSH8 0xFFFFFFFFFFFFFFFF DUP2 GT ISZERO PUSH2 0x1450 JUMPI PUSH2 0x144F PUSH2 0x1DD5 JUMP JUMPDEST JUMPDEST PUSH2 0x145C DUP9 DUP3 DUP10 ADD PUSH2 0x12EA JUMP JUMPDEST SWAP2 POP POP SWAP3 SWAP6 POP SWAP3 SWAP6 SWAP1 SWAP4 POP JUMP JUMPDEST PUSH1 0x0 PUSH1 0x20 DUP3 DUP5 SUB SLT ISZERO PUSH2 0x147F JUMPI PUSH2 0x147E PUSH2 0x1DDA JUMP JUMPDEST JUMPDEST PUSH1 0x0 PUSH2 0x148D DUP5 DUP3 DUP6 ADD PUSH2 0x12D5 JUMP JUMPDEST SWAP2 POP POP SWAP3 SWAP2 POP POP JUMP JUMPDEST PUSH1 0x0 DUP1 PUSH1 0x0 DUP1 PUSH1 0x0 DUP1 PUSH1 0x80 DUP8 DUP10 SUB SLT ISZERO PUSH2 0x14B3 JUMPI PUSH2 0x14B2 PUSH2 0x1DDA JUMP JUMPDEST JUMPDEST PUSH1 0x0 DUP8 ADD CALLDATALOAD PUSH8 0xFFFFFFFFFFFFFFFF DUP2 GT ISZERO PUSH2 0x14D1 JUMPI PUSH2 0x14D0 PUSH2 0x1DD5 JUMP JUMPDEST JUMPDEST PUSH2 0x14DD DUP10 DUP3 DUP11 ADD PUSH2 0x130A JUMP JUMPDEST SWAP7 POP POP PUSH1 0x20 DUP8 ADD CALLDATALOAD PUSH8 0xFFFFFFFFFFFFFFFF DUP2 GT ISZERO PUSH2 0x14FE JUMPI PUSH2 0x14FD PUSH2 0x1DD5 JUMP JUMPDEST JUMPDEST PUSH2 0x150A DUP10 DUP3 DUP11 ADD PUSH2 0x127F JUMP JUMPDEST SWAP6 POP SWAP6 POP POP PUSH1 0x40 DUP8 ADD CALLDATALOAD PUSH8 0xFFFFFFFFFFFFFFFF DUP2 GT ISZERO PUSH2 0x152D JUMPI PUSH2 0x152C PUSH2 0x1DD5 JUMP JUMPDEST JUMPDEST PUSH2 0x1539 DUP10 DUP3 DUP11 ADD PUSH2 0x127F JUMP JUMPDEST SWAP4 POP SWAP4 POP POP PUSH1 0x60 PUSH2 0x154C DUP10 DUP3 DUP11 ADD PUSH2 0x1329 JUMP JUMPDEST SWAP2 POP POP SWAP3 SWAP6 POP SWAP3 SWAP6 POP SWAP3 SWAP6 JUMP JUMPDEST PUSH1 0x0 DUP1 PUSH1 0x40 DUP4 DUP6 SUB SLT ISZERO PUSH2 0x1570 JUMPI PUSH2 0x156F PUSH2 0x1DDA JUMP JUMPDEST JUMPDEST PUSH1 0x0 PUSH2 0x157E DUP6 DUP3 DUP7 ADD PUSH2 0x1329 JUMP JUMPDEST SWAP3 POP POP PUSH1 0x20 PUSH2 0x158F DUP6 DUP3 DUP7 ADD PUSH2 0x122B JUMP JUMPDEST SWAP2 POP POP SWAP3 POP SWAP3 SWAP1 POP JUMP JUMPDEST PUSH2 0x15A2 DUP2 PUSH2 0x1CCA JUMP JUMPDEST DUP3 MSTORE POP POP JUMP JUMPDEST PUSH2 0x15B1 DUP2 PUSH2 0x1CB8 JUMP JUMPDEST DUP3 MSTORE POP POP JUMP JUMPDEST PUSH2 0x15C0 DUP2 PUSH2 0x1CDC JUMP JUMPDEST DUP3 MSTORE POP POP JUMP JUMPDEST PUSH2 0x15CF DUP2 PUSH2 0x1CE8 JUMP JUMPDEST DUP3 MSTORE POP POP JUMP JUMPDEST PUSH1 0x0 PUSH2 0x15E0 DUP3 PUSH2 0x1C1F JUMP JUMPDEST PUSH2 0x15EA DUP2 DUP6 PUSH2 0x1C35 JUMP JUMPDEST SWAP4 POP PUSH2 0x15FA DUP2 DUP6 PUSH1 0x20 DUP7 ADD PUSH2 0x1D50 JUMP JUMPDEST PUSH2 0x1603 DUP2 PUSH2 0x1DDF JUMP JUMPDEST DUP5 ADD SWAP2 POP POP SWAP3 SWAP2 POP POP JUMP JUMPDEST PUSH1 0x0 PUSH2 0x1619 DUP3 PUSH2 0x1C1F JUMP JUMPDEST PUSH2 0x1623 DUP2 DUP6 PUSH2 0x1C46 JUMP JUMPDEST SWAP4 POP PUSH2 0x1633 DUP2 DUP6 PUSH1 0x20 DUP7 ADD PUSH2 0x1D50 JUMP JUMPDEST DUP1 DUP5 ADD SWAP2 POP POP SWAP3 SWAP2 POP POP JUMP JUMPDEST PUSH1 0x0 PUSH2 0x164A DUP3 PUSH2 0x1C2A JUMP JUMPDEST PUSH2 0x1654 DUP2 DUP6 PUSH2 0x1C51 JUMP JUMPDEST SWAP4 POP PUSH2 0x1664 DUP2 DUP6 PUSH1 0x20 DUP7 ADD PUSH2 0x1D50 JUMP JUMPDEST PUSH2 0x166D DUP2 PUSH2 0x1DDF JUMP JUMPDEST DUP5 ADD SWAP2 POP POP SWAP3 SWAP2 POP POP JUMP JUMPDEST PUSH1 0x0 PUSH2 0x1685 PUSH1 0x1C DUP4 PUSH2 0x1C51 JUMP JUMPDEST SWAP2 POP PUSH2 0x1690 DUP3 PUSH2 0x1DF0 JUMP JUMPDEST PUSH1 0x20 DUP3 ADD SWAP1 POP SWAP2 SWAP1 POP JUMP JUMPDEST PUSH1 0x0 PUSH2 0x16A8 PUSH1 0x1F DUP4 PUSH2 0x1C51 JUMP JUMPDEST SWAP2 POP PUSH2 0x16B3 DUP3 PUSH2 0x1E19 JUMP JUMPDEST PUSH1 0x20 DUP3 ADD SWAP1 POP SWAP2 SWAP1 POP JUMP JUMPDEST PUSH1 0x0 PUSH2 0x16CB PUSH1 0x26 DUP4 PUSH2 0x1C51 JUMP JUMPDEST SWAP2 POP PUSH2 0x16D6 DUP3 PUSH2 0x1E42 JUMP JUMPDEST PUSH1 0x40 DUP3 ADD SWAP1 POP SWAP2 SWAP1 POP JUMP JUMPDEST PUSH1 0x0 PUSH2 0x16EE PUSH1 0x1C DUP4 PUSH2 0x1C51 JUMP JUMPDEST SWAP2 POP PUSH2 0x16F9 DUP3 PUSH2 0x1E91 JUMP JUMPDEST PUSH1 0x20 DUP3 ADD SWAP1 POP SWAP2 SWAP1 POP JUMP JUMPDEST PUSH1 0x0 PUSH2 0x1711 PUSH1 0x19 DUP4 PUSH2 0x1C51 JUMP JUMPDEST SWAP2 POP PUSH2 0x171C DUP3 PUSH2 0x1EBA JUMP JUMPDEST PUSH1 0x20 DUP3 ADD SWAP1 POP SWAP2 SWAP1 POP JUMP JUMPDEST PUSH1 0x0 PUSH2 0x1734 PUSH1 0x18 DUP4 PUSH2 0x1C51 JUMP JUMPDEST SWAP2 POP PUSH2 0x173F DUP3 PUSH2 0x1EE3 JUMP JUMPDEST PUSH1 0x20 DUP3 ADD SWAP1 POP SWAP2 SWAP1 POP JUMP JUMPDEST PUSH1 0x0 PUSH2 0x1757 PUSH1 0x20 DUP4 PUSH2 0x1C51 JUMP JUMPDEST SWAP2 POP PUSH2 0x1762 DUP3 PUSH2 0x1F0C JUMP JUMPDEST PUSH1 0x20 DUP3 ADD SWAP1 POP SWAP2 SWAP1 POP JUMP JUMPDEST PUSH1 0x0 PUSH2 0x177A PUSH1 0x20 DUP4 PUSH2 0x1C51 JUMP JUMPDEST SWAP2 POP PUSH2 0x1785 DUP3 PUSH2 0x1F35 JUMP JUMPDEST PUSH1 0x20 DUP3 ADD SWAP1 POP SWAP2 SWAP1 POP JUMP JUMPDEST PUSH1 0x0 PUSH2 0x179D PUSH1 0x20 DUP4 PUSH2 0x1C51 JUMP JUMPDEST SWAP2 POP PUSH2 0x17A8 DUP3 PUSH2 0x1F5E JUMP JUMPDEST PUSH1 0x20 DUP3 ADD SWAP1 POP SWAP2 SWAP1 POP JUMP JUMPDEST PUSH1 0x0 PUSH2 0x17C0 PUSH1 0x1F DUP4 PUSH2 0x1C51 JUMP JUMPDEST SWAP2 POP PUSH2 0x17CB DUP3 PUSH2 0x1F87 JUMP JUMPDEST PUSH1 0x20 DUP3 ADD SWAP1 POP SWAP2 SWAP1 POP JUMP JUMPDEST PUSH1 0x0 PUSH2 0x17E3 PUSH1 0x1E DUP4 PUSH2 0x1C51 JUMP JUMPDEST SWAP2 POP PUSH2 0x17EE DUP3 PUSH2 0x1FB0 JUMP JUMPDEST PUSH1 0x20 DUP3 ADD SWAP1 POP SWAP2 SWAP1 POP JUMP JUMPDEST PUSH1 0x0 PUSH2 0x1806 PUSH1 0x1C DUP4 PUSH2 0x1C51 JUMP JUMPDEST SWAP2 POP PUSH2 0x1811 DUP3 PUSH2 0x1FD9 JUMP JUMPDEST PUSH1 0x20 DUP3 ADD SWAP1 POP SWAP2 SWAP1 POP JUMP JUMPDEST PUSH1 0x0 PUSH2 0x1829 PUSH1 0x1B DUP4 PUSH2 0x1C51 JUMP JUMPDEST SWAP2 POP PUSH2 0x1834 DUP3 PUSH2 0x2002 JUMP JUMPDEST PUSH1 0x20 DUP3 ADD SWAP1 POP SWAP2 SWAP1 POP JUMP JUMPDEST PUSH1 0x80 DUP3 ADD PUSH1 0x0 DUP3 ADD MLOAD PUSH2 0x1855 PUSH1 0x0 DUP6 ADD DUP3 PUSH2 0x1894 JUMP JUMPDEST POP PUSH1 0x20 DUP3 ADD MLOAD PUSH2 0x1868 PUSH1 0x20 DUP6 ADD DUP3 PUSH2 0x1894 JUMP JUMPDEST POP PUSH1 0x40 DUP3 ADD MLOAD PUSH2 0x187B PUSH1 0x40 DUP6 ADD DUP3 PUSH2 0x1894 JUMP JUMPDEST POP PUSH1 0x60 DUP3 ADD MLOAD PUSH2 0x188E PUSH1 0x60 DUP6 ADD DUP3 PUSH2 0x1894 JUMP JUMPDEST POP POP POP POP JUMP JUMPDEST PUSH2 0x189D DUP2 PUSH2 0x1D46 JUMP JUMPDEST DUP3 MSTORE POP POP JUMP JUMPDEST PUSH2 0x18AC DUP2 PUSH2 0x1D46 JUMP JUMPDEST DUP3 MSTORE POP POP JUMP JUMPDEST PUSH1 0x0 PUSH2 0x18BE DUP3 DUP5 PUSH2 0x160E JUMP JUMPDEST SWAP2 POP DUP2 SWAP1 POP SWAP3 SWAP2 POP POP JUMP JUMPDEST PUSH1 0x0 PUSH1 0x20 DUP3 ADD SWAP1 POP PUSH2 0x18DE PUSH1 0x0 DUP4 ADD DUP5 PUSH2 0x15A8 JUMP JUMPDEST SWAP3 SWAP2 POP POP JUMP JUMPDEST PUSH1 0x0 PUSH1 0x40 DUP3 ADD SWAP1 POP PUSH2 0x18F9 PUSH1 0x0 DUP4 ADD DUP6 PUSH2 0x1599 JUMP JUMPDEST PUSH2 0x1906 PUSH1 0x20 DUP4 ADD DUP5 PUSH2 0x18A3 JUMP JUMPDEST SWAP4 SWAP3 POP POP POP JUMP JUMPDEST PUSH1 0x0 PUSH1 0x20 DUP3 ADD SWAP1 POP PUSH2 0x1922 PUSH1 0x0 DUP4 ADD DUP5 PUSH2 0x15B7 JUMP JUMPDEST SWAP3 SWAP2 POP POP JUMP JUMPDEST PUSH1 0x0 PUSH1 0x20 DUP3 ADD SWAP1 POP PUSH2 0x193D PUSH1 0x0 DUP4 ADD DUP5 PUSH2 0x15C6 JUMP JUMPDEST SWAP3 SWAP2 POP POP JUMP JUMPDEST PUSH1 0x0 PUSH1 0x40 DUP3 ADD SWAP1 POP DUP2 DUP2 SUB PUSH1 0x0 DUP4 ADD MSTORE PUSH2 0x195D DUP2 DUP6 PUSH2 0x15D5 JUMP JUMPDEST SWAP1 POP PUSH2 0x196C PUSH1 0x20 DUP4 ADD DUP5 PUSH2 0x15B7 JUMP JUMPDEST SWAP4 SWAP3 POP POP POP JUMP JUMPDEST PUSH1 0x0 PUSH1 0x20 DUP3 ADD SWAP1 POP DUP2 DUP2 SUB PUSH1 0x0 DUP4 ADD MSTORE PUSH2 0x198D DUP2 DUP5 PUSH2 0x163F JUMP JUMPDEST SWAP1 POP SWAP3 SWAP2 POP POP JUMP JUMPDEST PUSH1 0x0 PUSH1 0x20 DUP3 ADD SWAP1 POP DUP2 DUP2 SUB PUSH1 0x0 DUP4 ADD MSTORE PUSH2 0x19AE DUP2 PUSH2 0x1678 JUMP JUMPDEST SWAP1 POP SWAP2 SWAP1 POP JUMP JUMPDEST PUSH1 0x0 PUSH1 0x20 DUP3 ADD SWAP1 POP DUP2 DUP2 SUB PUSH1 0x0 DUP4 ADD MSTORE PUSH2 0x19CE DUP2 PUSH2 0x169B JUMP JUMPDEST SWAP1 POP SWAP2 SWAP1 POP JUMP JUMPDEST PUSH1 0x0 PUSH1 0x20 DUP3 ADD SWAP1 POP DUP2 DUP2 SUB PUSH1 0x0 DUP4 ADD MSTORE PUSH2 0x19EE DUP2 PUSH2 0x16BE JUMP JUMPDEST SWAP1 POP SWAP2 SWAP1 POP JUMP JUMPDEST PUSH1 0x0 PUSH1 0x20 DUP3 ADD SWAP1 POP DUP2 DUP2 SUB PUSH1 0x0 DUP4 ADD MSTORE PUSH2 0x1A0E DUP2 PUSH2 0x16E1 JUMP JUMPDEST SWAP1 POP SWAP2 SWAP1 POP JUMP JUMPDEST PUSH1 0x0 PUSH1 0x20 DUP3 ADD SWAP1 POP DUP2 DUP2 SUB PUSH1 0x0 DUP4 ADD MSTORE PUSH2 0x1A2E DUP2 PUSH2 0x1704 JUMP JUMPDEST SWAP1 POP SWAP2 SWAP1 POP JUMP JUMPDEST PUSH1 0x0 PUSH1 0x20 DUP3 ADD SWAP1 POP DUP2 DUP2 SUB PUSH1 0x0 DUP4 ADD MSTORE PUSH2 0x1A4E DUP2 PUSH2 0x1727 JUMP JUMPDEST SWAP1 POP SWAP2 SWAP1 POP JUMP JUMPDEST PUSH1 0x0 PUSH1 0x20 DUP3 ADD SWAP1 POP DUP2 DUP2 SUB PUSH1 0x0 DUP4 ADD MSTORE PUSH2 0x1A6E DUP2 PUSH2 0x174A JUMP JUMPDEST SWAP1 POP SWAP2 SWAP1 POP JUMP JUMPDEST PUSH1 0x0 PUSH1 0x20 DUP3 ADD SWAP1 POP DUP2 DUP2 SUB PUSH1 0x0 DUP4 ADD MSTORE PUSH2 0x1A8E DUP2 PUSH2 0x176D JUMP JUMPDEST SWAP1 POP SWAP2 SWAP1 POP JUMP JUMPDEST PUSH1 0x0 PUSH1 0x20 DUP3 ADD SWAP1 POP DUP2 DUP2 SUB PUSH1 0x0 DUP4 ADD MSTORE PUSH2 0x1AAE DUP2 PUSH2 0x1790 JUMP JUMPDEST SWAP1 POP SWAP2 SWAP1 POP JUMP JUMPDEST PUSH1 0x0 PUSH1 0x20 DUP3 ADD SWAP1 POP DUP2 DUP2 SUB PUSH1 0x0 DUP4 ADD MSTORE PUSH2 0x1ACE DUP2 PUSH2 0x17B3 JUMP JUMPDEST SWAP1 POP SWAP2 SWAP1 POP JUMP JUMPDEST PUSH1 0x0 PUSH1 0x20 DUP3 ADD SWAP1 POP DUP2 DUP2 SUB PUSH1 0x0 DUP4 ADD MSTORE PUSH2 0x1AEE DUP2 PUSH2 0x17D6 JUMP JUMPDEST SWAP1 POP SWAP2 SWAP1 POP JUMP JUMPDEST PUSH1 0x0 PUSH1 0x20 DUP3 ADD SWAP1 POP DUP2 DUP2 SUB PUSH1 0x0 DUP4 ADD MSTORE PUSH2 0x1B0E DUP2 PUSH2 0x17F9 JUMP JUMPDEST SWAP1 POP SWAP2 SWAP1 POP JUMP JUMPDEST PUSH1 0x0 PUSH1 0x20 DUP3 ADD SWAP1 POP DUP2 DUP2 SUB PUSH1 0x0 DUP4 ADD MSTORE PUSH2 0x1B2E DUP2 PUSH2 0x181C JUMP JUMPDEST SWAP1 POP SWAP2 SWAP1 POP JUMP JUMPDEST PUSH1 0x0 PUSH1 0x80 DUP3 ADD SWAP1 POP PUSH2 0x1B4A PUSH1 0x0 DUP4 ADD DUP5 PUSH2 0x183F JUMP JUMPDEST SWAP3 SWAP2 POP POP JUMP JUMPDEST PUSH1 0x0 PUSH1 0x20 DUP3 ADD SWAP1 POP PUSH2 0x1B65 PUSH1 0x0 DUP4 ADD DUP5 PUSH2 0x18A3 JUMP JUMPDEST SWAP3 SWAP2 POP POP JUMP JUMPDEST PUSH1 0x0 DUP1 DUP4 CALLDATALOAD PUSH1 0x1 PUSH1 0x20 SUB DUP5 CALLDATASIZE SUB SUB DUP2 SLT PUSH2 0x1B88 JUMPI PUSH2 0x1B87 PUSH2 0x1DC6 JUMP JUMPDEST JUMPDEST DUP1 DUP5 ADD SWAP3 POP DUP3 CALLDATALOAD SWAP2 POP PUSH8 0xFFFFFFFFFFFFFFFF DUP3 GT ISZERO PUSH2 0x1BAA JUMPI PUSH2 0x1BA9 PUSH2 0x1DBC JUMP JUMPDEST JUMPDEST PUSH1 0x20 DUP4 ADD SWAP3 POP PUSH1 0x1 DUP3 MUL CALLDATASIZE SUB DUP4 SGT ISZERO PUSH2 0x1BC6 JUMPI PUSH2 0x1BC5 PUSH2 0x1DD0 JUMP JUMPDEST JUMPDEST POP SWAP3 POP SWAP3 SWAP1 POP JUMP JUMPDEST PUSH1 0x0 DUP3 CALLDATALOAD PUSH1 0x1 PUSH1 0xE0 SUB DUP4 CALLDATASIZE SUB SUB DUP2 SLT PUSH2 0x1BEA JUMPI PUSH2 0x1BE9 PUSH2 0x1DC6 JUMP JUMPDEST JUMPDEST DUP1 DUP4 ADD SWAP2 POP POP SWAP3 SWAP2 POP POP JUMP JUMPDEST PUSH1 0x0 DUP3 CALLDATALOAD PUSH1 0x1 PUSH2 0x100 SUB DUP4 CALLDATASIZE SUB SUB DUP2 SLT PUSH2 0x1C13 JUMPI PUSH2 0x1C12 PUSH2 0x1DC6 JUMP JUMPDEST JUMPDEST DUP1 DUP4 ADD SWAP2 POP POP SWAP3 SWAP2 POP POP JUMP JUMPDEST PUSH1 0x0 DUP2 MLOAD SWAP1 POP SWAP2 SWAP1 POP JUMP JUMPDEST PUSH1 0x0 DUP2 MLOAD SWAP1 POP SWAP2 SWAP1 POP JUMP JUMPDEST PUSH1 0x0 DUP3 DUP3 MSTORE PUSH1 0x20 DUP3 ADD SWAP1 POP SWAP3 SWAP2 POP POP JUMP JUMPDEST PUSH1 0x0 DUP2 SWAP1 POP SWAP3 SWAP2 POP POP JUMP JUMPDEST PUSH1 0x0 DUP3 DUP3 MSTORE PUSH1 0x20 DUP3 ADD SWAP1 POP SWAP3 SWAP2 POP POP JUMP JUMPDEST PUSH1 0x0 PUSH2 0x1C6D DUP3 PUSH2 0x1D46 JUMP JUMPDEST SWAP2 POP PUSH2 0x1C78 DUP4 PUSH2 0x1D46 JUMP JUMPDEST SWAP3 POP DUP3 PUSH32 0xFFFFFFFFFFFFFFFFFFFFFFFFFFFFFFFFFFFFFFFFFFFFFFFFFFFFFFFFFFFFFFFF SUB DUP3 GT ISZERO PUSH2 0x1CAD JUMPI PUSH2 0x1CAC PUSH2 0x1D83 JUMP JUMPDEST JUMPDEST DUP3 DUP3 ADD SWAP1 POP SWAP3 SWAP2 POP POP JUMP JUMPDEST PUSH1 0x0 PUSH2 0x1CC3 DUP3 PUSH2 0x1D26 JUMP JUMPDEST SWAP1 POP SWAP2 SWAP1 POP JUMP JUMPDEST PUSH1 0x0 PUSH2 0x1CD5 DUP3 PUSH2 0x1D26 JUMP JUMPDEST SWAP1 POP SWAP2 SWAP1 POP JUMP JUMPDEST PUSH1 0x0 DUP2 ISZERO ISZERO SWAP1 POP SWAP2 SWAP1 POP JUMP JUMPDEST PUSH1 0x0 PUSH32 0xFFFFFFFF00000000000000000000000000000000000000000000000000000000 DUP3 AND SWAP1 POP SWAP2 SWAP1 POP JUMP JUMPDEST PUSH1 0x0 PUSH2 0x1D1F DUP3 PUSH2 0x1CB8 JUMP JUMPDEST SWAP1 POP SWAP2 SWAP1 POP JUMP JUMPDEST PUSH1 0x0 PUSH20 0xFFFFFFFFFFFFFFFFFFFFFFFFFFFFFFFFFFFFFFFF DUP3 AND SWAP1 POP SWAP2 SWAP1 POP JUMP JUMPDEST PUSH1 0x0 DUP2 SWAP1 POP SWAP2 SWAP1 POP JUMP JUMPDEST PUSH1 0x0 JUMPDEST DUP4 DUP2 LT ISZERO PUSH2 0x1D6E JUMPI DUP1 DUP3 ADD MLOAD DUP2 DUP5 ADD MSTORE PUSH1 0x20 DUP2 ADD SWAP1 POP PUSH2 0x1D53 JUMP JUMPDEST DUP4 DUP2 GT ISZERO PUSH2 0x1D7D JUMPI PUSH1 0x0 DUP5 DUP5 ADD MSTORE JUMPDEST POP POP POP POP JUMP JUMPDEST PUSH32 0x4E487B7100000000000000000000000000000000000000000000000000000000 PUSH1 0x0 MSTORE PUSH1 0x11 PUSH1 0x4 MSTORE PUSH1 0x24 PUSH1 0x0 REVERT JUMPDEST PUSH1 0x0 DUP1 REVERT JUMPDEST PUSH1 0x0 DUP1 REVERT JUMPDEST PUSH1 0x0 DUP1 REVERT JUMPDEST PUSH1 0x0 DUP1 REVERT JUMPDEST PUSH1 0x0 DUP1 REVERT JUMPDEST PUSH1 0x0 DUP1 REVERT JUMPDEST PUSH1 0x0 DUP1 REVERT JUMPDEST PUSH1 0x0 DUP1 REVERT JUMPDEST PUSH1 0x0 DUP1 REVERT JUMPDEST PUSH1 0x0 PUSH1 0x1F NOT PUSH1 0x1F DUP4 ADD AND SWAP1 POP SWAP2 SWAP1 POP JUMP JUMPDEST PUSH32 0x73686F756C642068617665206E6F207061796D61737465724461746100000000 PUSH1 0x0 DUP3 ADD MSTORE POP JUMP JUMPDEST PUSH32 0x696E76616C696420666F7277617264657220666F7220726563697069656E7400 PUSH1 0x0 DUP3 ADD MSTORE POP JUMP JUMPDEST PUSH32 0x4F776E61626C653A206E6577206F776E657220697320746865207A65726F2061 PUSH1 0x0 DUP3 ADD MSTORE PUSH32 0x6464726573730000000000000000000000000000000000000000000000000000 PUSH1 0x20 DUP3 ADD MSTORE POP JUMP JUMPDEST PUSH32 0x697354727573746564466F727761726465723A20726576657274656400000000 PUSH1 0x0 DUP3 ADD MSTORE POP JUMP JUMPDEST PUSH32 0x72656C6179206875622061646472657373206E6F742073657400000000000000 PUSH1 0x0 DUP3 ADD MSTORE POP JUMP JUMPDEST PUSH32 0x466F72776172646572206973206E6F7420747275737465640000000000000000 PUSH1 0x0 DUP3 ADD MSTORE POP JUMP JUMPDEST PUSH32 0x746172676574206973206E6F7420612076616C69642049466F72776172646572 PUSH1 0x0 DUP3 ADD MSTORE POP JUMP JUMPDEST PUSH32 0x697354727573746564466F727761726465723A2062616420726573706F6E7365 PUSH1 0x0 DUP3 ADD MSTORE POP JUMP JUMPDEST PUSH32 0x4F776E61626C653A2063616C6C6572206973206E6F7420746865206F776E6572 PUSH1 0x0 DUP3 ADD MSTORE POP JUMP JUMPDEST PUSH32 0x746172676574206973206E6F7420612076616C6964204952656C617948756200 PUSH1 0x0 DUP3 ADD MSTORE POP JUMP JUMPDEST PUSH32 0x63616E206F6E6C792062652063616C6C65642062792052656C61794875620000 PUSH1 0x0 DUP3 ADD MSTORE POP JUMP JUMPDEST PUSH32 0x76616C7565207472616E73666572206E6F7420737570706F7274656400000000 PUSH1 0x0 DUP3 ADD MSTORE POP JUMP JUMPDEST PUSH32 0x73686F756C642068617665206E6F20617070726F76616C446174610000000000 PUSH1 0x0 DUP3 ADD MSTORE POP JUMP JUMPDEST PUSH2 0x2034 DUP2 PUSH2 0x1CB8 JUMP JUMPDEST DUP2 EQ PUSH2 0x203F JUMPI PUSH1 0x0 DUP1 REVERT JUMPDEST POP JUMP JUMPDEST PUSH2 0x204B DUP2 PUSH2 0x1CCA JUMP JUMPDEST DUP2 EQ PUSH2 0x2056 JUMPI PUSH1 0x0 DUP1 REVERT JUMPDEST POP JUMP JUMPDEST PUSH2 0x2062 DUP2 PUSH2 0x1CDC JUMP JUMPDEST DUP2 EQ PUSH2 0x206D JUMPI PUSH1 0x0 DUP1 REVERT JUMPDEST POP JUMP JUMPDEST PUSH2 0x2079 DUP2 PUSH2 0x1CE8 JUMP JUMPDEST DUP2 EQ PUSH2 0x2084 JUMPI PUSH1 0x0 DUP1 REVERT JUMPDEST POP JUMP JUMPDEST PUSH2 0x2090 DUP2 PUSH2 0x1D14 JUMP JUMPDEST DUP2 EQ PUSH2 0x209B JUMPI PUSH1 0x0 DUP1 REVERT JUMPDEST POP JUMP JUMPDEST PUSH2 0x20A7 DUP2 PUSH2 0x1D46 JUMP JUMPDEST DUP2 EQ PUSH2 0x20B2 JUMPI PUSH1 0x0 DUP1 REVERT JUMPDEST POP JUMP INVALID CALLER 0x2E ADDRESS 0x2E ADDRESS 0x2D PUSH3 0x657461 0x2E CALLER 0x2B PUSH16 0x70656E67736E2E616363657074657665 PUSH19 0x797468696E672E697061796D6173746572A264 PUSH10 0x70667358221220EEF08C 0xED ISZERO JUMPDEST 0xB1 0x5E PUSH27 0x92612E604E9729D36E80C6645B9826393E3340E95C097364736F6C PUSH4 0x43000807 STOP CALLER "
				},
				"gasEstimates": {
					"creation": {
						"codeDepositCost": "1695000",
						"executionCost": "infinite",
						"totalCost": "infinite"
					},
					"external": {
						"CALLDATA_SIZE_LIMIT()": "419",
						"FORWARDER_HUB_OVERHEAD()": "396",
						"PAYMASTER_ACCEPTANCE_BUDGET()": "infinite",
						"POST_RELAYED_CALL_GAS_LIMIT()": "418",
						"PRE_RELAYED_CALL_GAS_LIMIT()": "439",
						"getBalanec()": "405",
						"getGasAndDataLimits()": "infinite",
						"getRelayHub()": "2611",
						"getTrustedForwarder()": "2633",
						"owner()": "2633",
						"postRelayedCall(bytes,bool,uint256,(uint256,uint256,uint256,address,address,address,bytes,uint256))": "3512",
						"preRelayedCall(((address,address,uint256,uint256,uint256,bytes,uint256),(uint256,uint256,uint256,address,address,address,bytes,uint256)),bytes,bytes,uint256)": "infinite",
						"renounceOwnership()": "30421",
						"setRelayHub(address)": "infinite",
						"setTrustedForwarder(address)": "infinite",
						"supportsInterface(bytes4)": "819",
						"transferOwnership(address)": "30835",
						"versionPaymaster()": "infinite",
						"withdrawRelayHubDepositTo(uint256,address)": "infinite"
					},
					"internal": {
						"_postRelayedCall(bytes calldata,bool,uint256,struct GsnTypes.RelayData calldata)": "19",
						"_preRelayedCall(struct GsnTypes.RelayRequest calldata,bytes calldata,bytes calldata,uint256)": "infinite",
						"deposit()": "infinite"
					}
				},
				"methodIdentifiers": {
					"CALLDATA_SIZE_LIMIT()": "5c5e3db1",
					"FORWARDER_HUB_OVERHEAD()": "b90b41cf",
					"PAYMASTER_ACCEPTANCE_BUDGET()": "df463a66",
					"POST_RELAYED_CALL_GAS_LIMIT()": "bbdaa3c9",
					"PRE_RELAYED_CALL_GAS_LIMIT()": "f9c002f7",
					"getBalanec()": "ea818772",
					"getGasAndDataLimits()": "b039a88f",
					"getRelayHub()": "7bdf2ec7",
					"getTrustedForwarder()": "ce1b815f",
					"owner()": "8da5cb5b",
					"postRelayedCall(bytes,bool,uint256,(uint256,uint256,uint256,address,address,address,bytes,uint256))": "76fa01c3",
					"preRelayedCall(((address,address,uint256,uint256,uint256,bytes,uint256),(uint256,uint256,uint256,address,address,address,bytes,uint256)),bytes,bytes,uint256)": "00be5dd4",
					"renounceOwnership()": "715018a6",
					"setRelayHub(address)": "7bb05264",
					"setTrustedForwarder(address)": "da742228",
					"supportsInterface(bytes4)": "01ffc9a7",
					"transferOwnership(address)": "f2fde38b",
					"versionPaymaster()": "921276ea",
					"withdrawRelayHubDepositTo(uint256,address)": "2d14c4b7"
				}
			},
			"storageLayout": {
				"storage": [
					{
						"astId": 1863,
						"contract": "testPaymaster.sol:TestPaymaster",
						"label": "_owner",
						"offset": 0,
						"slot": "0",
						"type": "t_address"
					},
					{
						"astId": 23,
						"contract": "testPaymaster.sol:TestPaymaster",
						"label": "relayHub",
						"offset": 0,
						"slot": "1",
						"type": "t_contract(IRelayHub)955"
					},
					{
						"astId": 25,
						"contract": "testPaymaster.sol:TestPaymaster",
						"label": "_trustedForwarder",
						"offset": 0,
						"slot": "2",
						"type": "t_address"
					},
					{
						"astId": 2310,
						"contract": "testPaymaster.sol:TestPaymaster",
						"label": "balance",
						"offset": 0,
						"slot": "3",
						"type": "t_uint256"
					}
				],
				"types": {
					"t_address": {
						"encoding": "inplace",
						"label": "address",
						"numberOfBytes": "20"
					},
					"t_contract(IRelayHub)955": {
						"encoding": "inplace",
						"label": "contract IRelayHub",
						"numberOfBytes": "20"
					},
					"t_uint256": {
						"encoding": "inplace",
						"label": "uint256",
						"numberOfBytes": "32"
					}
				}
			},
			"userdoc": {
				"kind": "user",
				"methods": {
					"getGasAndDataLimits()": {
						"notice": "Return the Gas Limits for Paymaster's functions and maximum msg.data length values for this Paymaster. This function allows different paymasters to have different properties without changes to the RelayHub."
					},
					"getTrustedForwarder()": {
						"notice": ":warning: **Warning** :warning: using incorrect Forwarder may cause the Paymaster to agreeing to pay for invalid transactions."
					},
					"postRelayedCall(bytes,bool,uint256,(uint256,uint256,uint256,address,address,address,bytes,uint256))": {
						"notice": "This method is called after the actual relayed function call. It may be used to record the transaction (e.g. charge the caller by some contract logic) for this call. Revert in this functions causes a revert of the client's relayed call (and preRelayedCall(), but the Paymaster is still committed to pay the relay for the entire transaction."
					},
					"preRelayedCall(((address,address,uint256,uint256,uint256,bytes,uint256),(uint256,uint256,uint256,address,address,address,bytes,uint256)),bytes,bytes,uint256)": {
						"notice": "Called by the Relay in view mode and later by the `RelayHub` on-chain to validate that the Paymaster agrees to pay for this call. The request is considered to be rejected by the Paymaster in one of the following conditions:  - `preRelayedCall()` method reverts  - the `Forwarder` reverts because of nonce or signature error  - the `Paymaster` returned `rejectOnRecipientRevert: true` and the recipient contract reverted    (and all that did not consume more than `acceptanceBudget` gas). In any of the above cases, all Paymaster calls and the recipient call are reverted. In any other case the Paymaster will pay for the gas cost of the transaction. Note that even if `postRelayedCall` is reverted the Paymaster will be charged."
					},
					"setRelayHub(address)": {
						"notice": "The owner of the Paymaster can change the instance of the RelayHub this Paymaster works with. :warning: **Warning** :warning: The deposit on the previous RelayHub must be withdrawn first."
					},
					"setTrustedForwarder(address)": {
						"notice": "The owner of the Paymaster can change the instance of the Forwarder this Paymaster works with.the Recipients must trust this Forwarder as well in order for the configuration to remain functional."
					},
					"withdrawRelayHubDepositTo(uint256,address)": {
						"notice": "Withdraw deposit from the RelayHub."
					}
				},
				"version": 1
			}
		}
	}
}