{
	"testTarget.sol": {
		"BalanceChecker": {
			"abi": [
				{
					"inputs": [],
					"stateMutability": "nonpayable",
					"type": "constructor"
				},
				{
					"inputs": [],
					"name": "getBalanec",
					"outputs": [
						{
							"internalType": "uint256",
							"name": "",
							"type": "uint256"
						}
					],
					"stateMutability": "view",
					"type": "function"
				},
				{
					"inputs": [
						{
							"internalType": "uint256",
							"name": "_amount",
							"type": "uint256"
						}
					],
					"name": "withdraw",
					"outputs": [],
					"stateMutability": "nonpayable",
					"type": "function"
				},
				{
					"stateMutability": "payable",
					"type": "receive"
				}
			],
			"devdoc": {
				"kind": "dev",
				"methods": {},
				"version": 1
			},
			"evm": {
				"assembly": "    /* \"testTarget.sol\":27:788  contract BalanceChecker {\r... */\n  mstore(0x40, 0x80)\n    /* \"testTarget.sol\":349:350  0 */\n  0x00\n    /* \"testTarget.sol\":331:350  uint256 balance = 0 */\n  0x01\n  sstore\n    /* \"testTarget.sol\":80:128  constructor(){\r... */\n  callvalue\n  dup1\n  iszero\n  tag_1\n  jumpi\n  0x00\n  dup1\n  revert\ntag_1:\n  pop\n    /* \"testTarget.sol\":110:120  msg.sender */\n  caller\n    /* \"testTarget.sol\":104:109  owner */\n  0x00\n  dup1\n    /* \"testTarget.sol\":104:120  owner=msg.sender */\n  0x0100\n  exp\n  dup2\n  sload\n  dup2\n  0xffffffffffffffffffffffffffffffffffffffff\n  mul\n  not\n  and\n  swap1\n  dup4\n  0xffffffffffffffffffffffffffffffffffffffff\n  and\n  mul\n  or\n  swap1\n  sstore\n  pop\n    /* \"testTarget.sol\":27:788  contract BalanceChecker {\r... */\n  dataSize(sub_0)\n  dup1\n  dataOffset(sub_0)\n  0x00\n  codecopy\n  0x00\n  return\nstop\n\nsub_0: assembly {\n        /* \"testTarget.sol\":27:788  contract BalanceChecker {\r... */\n      mstore(0x40, 0x80)\n      jumpi(tag_1, lt(calldatasize, 0x04))\n      shr(0xe0, calldataload(0x00))\n      dup1\n      0x2e1a7d4d\n      eq\n      tag_3\n      jumpi\n      dup1\n      0xea818772\n      eq\n      tag_4\n      jumpi\n      jump(tag_2)\n    tag_1:\n      jumpi(tag_2, calldatasize)\n        /* \"testTarget.sol\":766:775  deposit() */\n      tag_7\n        /* \"testTarget.sol\":766:773  deposit */\n      tag_8\n        /* \"testTarget.sol\":766:775  deposit() */\n      jump\t// in\n    tag_7:\n        /* \"testTarget.sol\":27:788  contract BalanceChecker {\r... */\n      stop\n    tag_2:\n      0x00\n      dup1\n      revert\n        /* \"testTarget.sol\":431:616  function withdraw(uint256 _amount) public onlyOwner{\r... */\n    tag_3:\n      callvalue\n      dup1\n      iszero\n      tag_9\n      jumpi\n      0x00\n      dup1\n      revert\n    tag_9:\n      pop\n      tag_10\n      0x04\n      dup1\n      calldatasize\n      sub\n      dup2\n      add\n      swap1\n      tag_11\n      swap2\n      swap1\n      tag_12\n      jump\t// in\n    tag_11:\n      tag_13\n      jump\t// in\n    tag_10:\n      stop\n        /* \"testTarget.sol\":624:720  function getBalanec()public view returns(uint256){\r... */\n    tag_4:\n      callvalue\n      dup1\n      iszero\n      tag_14\n      jumpi\n      0x00\n      dup1\n      revert\n    tag_14:\n      pop\n      tag_15\n      tag_16\n      jump\t// in\n    tag_15:\n      mload(0x40)\n      tag_17\n      swap2\n      swap1\n      tag_18\n      jump\t// in\n    tag_17:\n      mload(0x40)\n      dup1\n      swap2\n      sub\n      swap1\n      return\n        /* \"testTarget.sol\":357:423  function deposit() private {\r... */\n    tag_8:\n        /* \"testTarget.sol\":406:415  msg.value */\n      callvalue\n        /* \"testTarget.sol\":395:402  balance */\n      0x01\n      0x00\n        /* \"testTarget.sol\":395:415  balance += msg.value */\n      dup3\n      dup3\n      sload\n      tag_20\n      swap2\n      swap1\n      tag_21\n      jump\t// in\n    tag_20:\n      swap3\n      pop\n      pop\n      dup2\n      swap1\n      sstore\n      pop\n        /* \"testTarget.sol\":357:423  function deposit() private {\r... */\n      jump\t// out\n        /* \"testTarget.sol\":431:616  function withdraw(uint256 _amount) public onlyOwner{\r... */\n    tag_13:\n        /* \"testTarget.sol\":297:302  owner */\n      0x00\n      dup1\n      sload\n      swap1\n      0x0100\n      exp\n      swap1\n      div\n      0xffffffffffffffffffffffffffffffffffffffff\n      and\n        /* \"testTarget.sol\":283:302  msg.sender == owner */\n      0xffffffffffffffffffffffffffffffffffffffff\n      and\n        /* \"testTarget.sol\":283:293  msg.sender */\n      caller\n        /* \"testTarget.sol\":283:302  msg.sender == owner */\n      0xffffffffffffffffffffffffffffffffffffffff\n      and\n      eq\n        /* \"testTarget.sol\":275:303  require(msg.sender == owner) */\n      tag_23\n      jumpi\n      0x00\n      dup1\n      revert\n    tag_23:\n        /* \"testTarget.sol\":512:519  _amount */\n      dup1\n        /* \"testTarget.sol\":501:508  balance */\n      sload(0x01)\n        /* \"testTarget.sol\":501:519  balance >= _amount */\n      lt\n      iszero\n        /* \"testTarget.sol\":493:524  require(balance >= _amount, \"\") */\n      tag_25\n      jumpi\n      mload(0x40)\n      0x08c379a000000000000000000000000000000000000000000000000000000000\n      dup2\n      mstore\n      0x04\n      add\n      tag_26\n      swap1\n      tag_27\n      jump\t// in\n    tag_26:\n      mload(0x40)\n      dup1\n      swap2\n      sub\n      swap1\n      revert\n    tag_25:\n        /* \"testTarget.sol\":546:553  _amount */\n      dup1\n        /* \"testTarget.sol\":535:542  balance */\n      0x01\n      0x00\n        /* \"testTarget.sol\":535:553  balance -= _amount */\n      dup3\n      dup3\n      sload\n      tag_28\n      swap2\n      swap1\n      tag_29\n      jump\t// in\n    tag_28:\n      swap3\n      pop\n      pop\n      dup2\n      swap1\n      sstore\n      pop\n        /* \"testTarget.sol\":187:229  0x71633bE32E07dB4a645CE85418D64484B39AB692 */\n      0x71633be32e07db4a645ce85418d64484b39ab692\n        /* \"testTarget.sol\":564:599  payable(RBX_ESCROW_WALLET).transfer */\n      0xffffffffffffffffffffffffffffffffffffffff\n      and\n        /* \"testTarget.sol\":564:608  payable(RBX_ESCROW_WALLET).transfer(_amount) */\n      0x08fc\n        /* \"testTarget.sol\":600:607  _amount */\n      dup3\n        /* \"testTarget.sol\":564:608  payable(RBX_ESCROW_WALLET).transfer(_amount) */\n      swap1\n      dup2\n      iszero\n      mul\n      swap1\n      mload(0x40)\n      0x00\n      mload(0x40)\n      dup1\n      dup4\n      sub\n      dup2\n      dup6\n      dup9\n      dup9\n      call\n      swap4\n      pop\n      pop\n      pop\n      pop\n      iszero\n      dup1\n      iszero\n      tag_31\n      jumpi\n      returndatasize\n      0x00\n      dup1\n      returndatacopy\n      revert(0x00, returndatasize)\n    tag_31:\n      pop\n        /* \"testTarget.sol\":431:616  function withdraw(uint256 _amount) public onlyOwner{\r... */\n      pop\n      jump\t// out\n        /* \"testTarget.sol\":624:720  function getBalanec()public view returns(uint256){\r... */\n    tag_16:\n        /* \"testTarget.sol\":665:672  uint256 */\n      0x00\n        /* \"testTarget.sol\":691:712  address(this).balance */\n      selfbalance\n        /* \"testTarget.sol\":684:712  return address(this).balance */\n      swap1\n      pop\n        /* \"testTarget.sol\":624:720  function getBalanec()public view returns(uint256){\r... */\n      swap1\n      jump\t// out\n        /* \"#utility.yul\":7:146   */\n    tag_34:\n        /* \"#utility.yul\":53:58   */\n      0x00\n        /* \"#utility.yul\":91:97   */\n      dup2\n        /* \"#utility.yul\":78:98   */\n      calldataload\n        /* \"#utility.yul\":69:98   */\n      swap1\n      pop\n        /* \"#utility.yul\":107:140   */\n      tag_36\n        /* \"#utility.yul\":134:139   */\n      dup2\n        /* \"#utility.yul\":107:140   */\n      tag_37\n      jump\t// in\n    tag_36:\n        /* \"#utility.yul\":7:146   */\n      swap3\n      swap2\n      pop\n      pop\n      jump\t// out\n        /* \"#utility.yul\":152:481   */\n    tag_12:\n        /* \"#utility.yul\":211:217   */\n      0x00\n        /* \"#utility.yul\":260:262   */\n      0x20\n        /* \"#utility.yul\":248:257   */\n      dup3\n        /* \"#utility.yul\":239:246   */\n      dup5\n        /* \"#utility.yul\":235:258   */\n      sub\n        /* \"#utility.yul\":231:263   */\n      slt\n        /* \"#utility.yul\":228:347   */\n      iszero\n      tag_39\n      jumpi\n        /* \"#utility.yul\":266:345   */\n      tag_40\n      tag_41\n      jump\t// in\n    tag_40:\n        /* \"#utility.yul\":228:347   */\n    tag_39:\n        /* \"#utility.yul\":386:387   */\n      0x00\n        /* \"#utility.yul\":411:464   */\n      tag_42\n        /* \"#utility.yul\":456:463   */\n      dup5\n        /* \"#utility.yul\":447:453   */\n      dup3\n        /* \"#utility.yul\":436:445   */\n      dup6\n        /* \"#utility.yul\":432:454   */\n      add\n        /* \"#utility.yul\":411:464   */\n      tag_34\n      jump\t// in\n    tag_42:\n        /* \"#utility.yul\":401:464   */\n      swap2\n      pop\n        /* \"#utility.yul\":357:474   */\n      pop\n        /* \"#utility.yul\":152:481   */\n      swap3\n      swap2\n      pop\n      pop\n      jump\t// out\n        /* \"#utility.yul\":487:851   */\n    tag_43:\n        /* \"#utility.yul\":629:632   */\n      0x00\n        /* \"#utility.yul\":650:716   */\n      tag_45\n        /* \"#utility.yul\":714:715   */\n      0x00\n        /* \"#utility.yul\":709:712   */\n      dup4\n        /* \"#utility.yul\":650:716   */\n      tag_46\n      jump\t// in\n    tag_45:\n        /* \"#utility.yul\":643:716   */\n      swap2\n      pop\n        /* \"#utility.yul\":725:818   */\n      tag_47\n        /* \"#utility.yul\":814:817   */\n      dup3\n        /* \"#utility.yul\":725:818   */\n      tag_48\n      jump\t// in\n    tag_47:\n        /* \"#utility.yul\":843:844   */\n      0x00\n        /* \"#utility.yul\":838:841   */\n      dup3\n        /* \"#utility.yul\":834:845   */\n      add\n        /* \"#utility.yul\":827:845   */\n      swap1\n      pop\n        /* \"#utility.yul\":487:851   */\n      swap2\n      swap1\n      pop\n      jump\t// out\n        /* \"#utility.yul\":857:975   */\n    tag_49:\n        /* \"#utility.yul\":944:968   */\n      tag_51\n        /* \"#utility.yul\":962:967   */\n      dup2\n        /* \"#utility.yul\":944:968   */\n      tag_52\n      jump\t// in\n    tag_51:\n        /* \"#utility.yul\":939:942   */\n      dup3\n        /* \"#utility.yul\":932:969   */\n      mstore\n        /* \"#utility.yul\":857:975   */\n      pop\n      pop\n      jump\t// out\n        /* \"#utility.yul\":981:1400   */\n    tag_27:\n        /* \"#utility.yul\":1147:1151   */\n      0x00\n        /* \"#utility.yul\":1185:1187   */\n      0x20\n        /* \"#utility.yul\":1174:1183   */\n      dup3\n        /* \"#utility.yul\":1170:1188   */\n      add\n        /* \"#utility.yul\":1162:1188   */\n      swap1\n      pop\n        /* \"#utility.yul\":1234:1243   */\n      dup2\n        /* \"#utility.yul\":1228:1232   */\n      dup2\n        /* \"#utility.yul\":1224:1244   */\n      sub\n        /* \"#utility.yul\":1220:1221   */\n      0x00\n        /* \"#utility.yul\":1209:1218   */\n      dup4\n        /* \"#utility.yul\":1205:1222   */\n      add\n        /* \"#utility.yul\":1198:1245   */\n      mstore\n        /* \"#utility.yul\":1262:1393   */\n      tag_54\n        /* \"#utility.yul\":1388:1392   */\n      dup2\n        /* \"#utility.yul\":1262:1393   */\n      tag_43\n      jump\t// in\n    tag_54:\n        /* \"#utility.yul\":1254:1393   */\n      swap1\n      pop\n        /* \"#utility.yul\":981:1400   */\n      swap2\n      swap1\n      pop\n      jump\t// out\n        /* \"#utility.yul\":1406:1628   */\n    tag_18:\n        /* \"#utility.yul\":1499:1503   */\n      0x00\n        /* \"#utility.yul\":1537:1539   */\n      0x20\n        /* \"#utility.yul\":1526:1535   */\n      dup3\n        /* \"#utility.yul\":1522:1540   */\n      add\n        /* \"#utility.yul\":1514:1540   */\n      swap1\n      pop\n        /* \"#utility.yul\":1550:1621   */\n      tag_56\n        /* \"#utility.yul\":1618:1619   */\n      0x00\n        /* \"#utility.yul\":1607:1616   */\n      dup4\n        /* \"#utility.yul\":1603:1620   */\n      add\n        /* \"#utility.yul\":1594:1600   */\n      dup5\n        /* \"#utility.yul\":1550:1621   */\n      tag_49\n      jump\t// in\n    tag_56:\n        /* \"#utility.yul\":1406:1628   */\n      swap3\n      swap2\n      pop\n      pop\n      jump\t// out\n        /* \"#utility.yul\":1715:1884   */\n    tag_46:\n        /* \"#utility.yul\":1799:1810   */\n      0x00\n        /* \"#utility.yul\":1833:1839   */\n      dup3\n        /* \"#utility.yul\":1828:1831   */\n      dup3\n        /* \"#utility.yul\":1821:1840   */\n      mstore\n        /* \"#utility.yul\":1873:1877   */\n      0x20\n        /* \"#utility.yul\":1868:1871   */\n      dup3\n        /* \"#utility.yul\":1864:1878   */\n      add\n        /* \"#utility.yul\":1849:1878   */\n      swap1\n      pop\n        /* \"#utility.yul\":1715:1884   */\n      swap3\n      swap2\n      pop\n      pop\n      jump\t// out\n        /* \"#utility.yul\":1890:2195   */\n    tag_21:\n        /* \"#utility.yul\":1930:1933   */\n      0x00\n        /* \"#utility.yul\":1949:1969   */\n      tag_61\n        /* \"#utility.yul\":1967:1968   */\n      dup3\n        /* \"#utility.yul\":1949:1969   */\n      tag_52\n      jump\t// in\n    tag_61:\n        /* \"#utility.yul\":1944:1969   */\n      swap2\n      pop\n        /* \"#utility.yul\":1983:2003   */\n      tag_62\n        /* \"#utility.yul\":2001:2002   */\n      dup4\n        /* \"#utility.yul\":1983:2003   */\n      tag_52\n      jump\t// in\n    tag_62:\n        /* \"#utility.yul\":1978:2003   */\n      swap3\n      pop\n        /* \"#utility.yul\":2137:2138   */\n      dup3\n        /* \"#utility.yul\":2069:2135   */\n      0xffffffffffffffffffffffffffffffffffffffffffffffffffffffffffffffff\n        /* \"#utility.yul\":2065:2139   */\n      sub\n        /* \"#utility.yul\":2062:2063   */\n      dup3\n        /* \"#utility.yul\":2059:2140   */\n      gt\n        /* \"#utility.yul\":2056:2163   */\n      iszero\n      tag_63\n      jumpi\n        /* \"#utility.yul\":2143:2161   */\n      tag_64\n      tag_65\n      jump\t// in\n    tag_64:\n        /* \"#utility.yul\":2056:2163   */\n    tag_63:\n        /* \"#utility.yul\":2187:2188   */\n      dup3\n        /* \"#utility.yul\":2184:2185   */\n      dup3\n        /* \"#utility.yul\":2180:2189   */\n      add\n        /* \"#utility.yul\":2173:2189   */\n      swap1\n      pop\n        /* \"#utility.yul\":1890:2195   */\n      swap3\n      swap2\n      pop\n      pop\n      jump\t// out\n        /* \"#utility.yul\":2201:2392   */\n    tag_29:\n        /* \"#utility.yul\":2241:2245   */\n      0x00\n        /* \"#utility.yul\":2261:2281   */\n      tag_67\n        /* \"#utility.yul\":2279:2280   */\n      dup3\n        /* \"#utility.yul\":2261:2281   */\n      tag_52\n      jump\t// in\n    tag_67:\n        /* \"#utility.yul\":2256:2281   */\n      swap2\n      pop\n        /* \"#utility.yul\":2295:2315   */\n      tag_68\n        /* \"#utility.yul\":2313:2314   */\n      dup4\n        /* \"#utility.yul\":2295:2315   */\n      tag_52\n      jump\t// in\n    tag_68:\n        /* \"#utility.yul\":2290:2315   */\n      swap3\n      pop\n        /* \"#utility.yul\":2334:2335   */\n      dup3\n        /* \"#utility.yul\":2331:2332   */\n      dup3\n        /* \"#utility.yul\":2328:2336   */\n      lt\n        /* \"#utility.yul\":2325:2359   */\n      iszero\n      tag_69\n      jumpi\n        /* \"#utility.yul\":2339:2357   */\n      tag_70\n      tag_65\n      jump\t// in\n    tag_70:\n        /* \"#utility.yul\":2325:2359   */\n    tag_69:\n        /* \"#utility.yul\":2384:2385   */\n      dup3\n        /* \"#utility.yul\":2381:2382   */\n      dup3\n        /* \"#utility.yul\":2377:2386   */\n      sub\n        /* \"#utility.yul\":2369:2386   */\n      swap1\n      pop\n        /* \"#utility.yul\":2201:2392   */\n      swap3\n      swap2\n      pop\n      pop\n      jump\t// out\n        /* \"#utility.yul\":2398:2475   */\n    tag_52:\n        /* \"#utility.yul\":2435:2442   */\n      0x00\n        /* \"#utility.yul\":2464:2469   */\n      dup2\n        /* \"#utility.yul\":2453:2469   */\n      swap1\n      pop\n        /* \"#utility.yul\":2398:2475   */\n      swap2\n      swap1\n      pop\n      jump\t// out\n        /* \"#utility.yul\":2481:2661   */\n    tag_65:\n        /* \"#utility.yul\":2529:2606   */\n      0x4e487b7100000000000000000000000000000000000000000000000000000000\n        /* \"#utility.yul\":2526:2527   */\n      0x00\n        /* \"#utility.yul\":2519:2607   */\n      mstore\n        /* \"#utility.yul\":2626:2630   */\n      0x11\n        /* \"#utility.yul\":2623:2624   */\n      0x04\n        /* \"#utility.yul\":2616:2631   */\n      mstore\n        /* \"#utility.yul\":2650:2654   */\n      0x24\n        /* \"#utility.yul\":2647:2648   */\n      0x00\n        /* \"#utility.yul\":2640:2655   */\n      revert\n        /* \"#utility.yul\":2790:2907   */\n    tag_41:\n        /* \"#utility.yul\":2899:2900   */\n      0x00\n        /* \"#utility.yul\":2896:2897   */\n      dup1\n        /* \"#utility.yul\":2889:2901   */\n      revert\n        /* \"#utility.yul\":2913:3027   */\n    tag_48:\n      pop\n      jump\t// out\n        /* \"#utility.yul\":3033:3155   */\n    tag_37:\n        /* \"#utility.yul\":3106:3130   */\n      tag_78\n        /* \"#utility.yul\":3124:3129   */\n      dup2\n        /* \"#utility.yul\":3106:3130   */\n      tag_52\n      jump\t// in\n    tag_78:\n        /* \"#utility.yul\":3099:3104   */\n      dup2\n        /* \"#utility.yul\":3096:3131   */\n      eq\n        /* \"#utility.yul\":3086:3149   */\n      tag_79\n      jumpi\n        /* \"#utility.yul\":3145:3146   */\n      0x00\n        /* \"#utility.yul\":3142:3143   */\n      dup1\n        /* \"#utility.yul\":3135:3147   */\n      revert\n        /* \"#utility.yul\":3086:3149   */\n    tag_79:\n        /* \"#utility.yul\":3033:3155   */\n      pop\n      jump\t// out\n\n    auxdata: 0xa2646970667358221220191870e9074314f9c49772a89bc56fd87bcb482b80443c950ca7290dd94a5d6464736f6c63430008070033\n}\n",
				"bytecode": {
					"linkReferences": {},
					"object": "6080604052600060015534801561001557600080fd5b50336000806101000a81548173ffffffffffffffffffffffffffffffffffffffff021916908373ffffffffffffffffffffffffffffffffffffffff1602179055506103a4806100656000396000f3fe60806040526004361061002d5760003560e01c80632e1a7d4d14610041578063ea8187721461006a5761003c565b3661003c5761003a610095565b005b600080fd5b34801561004d57600080fd5b50610068600480360381019061006391906101e1565b6100b0565b005b34801561007657600080fd5b5061007f6101c4565b60405161008c9190610260565b60405180910390f35b34600160008282546100a7919061028c565b92505081905550565b60008054906101000a900473ffffffffffffffffffffffffffffffffffffffff1673ffffffffffffffffffffffffffffffffffffffff163373ffffffffffffffffffffffffffffffffffffffff161461010857600080fd5b80600154101561014d576040517f08c379a000000000000000000000000000000000000000000000000000000000815260040161014490610240565b60405180910390fd5b806001600082825461015f91906102e2565b925050819055507371633be32e07db4a645ce85418d64484b39ab69273ffffffffffffffffffffffffffffffffffffffff166108fc829081150290604051600060405180830381858888f193505050501580156101c0573d6000803e3d6000fd5b5050565b600047905090565b6000813590506101db81610357565b92915050565b6000602082840312156101f7576101f661034f565b5b6000610205848285016101cc565b91505092915050565b600061021b60008361027b565b915061022682610354565b600082019050919050565b61023a81610316565b82525050565b600060208201905081810360008301526102598161020e565b9050919050565b60006020820190506102756000830184610231565b92915050565b600082825260208201905092915050565b600061029782610316565b91506102a283610316565b9250827fffffffffffffffffffffffffffffffffffffffffffffffffffffffffffffffff038211156102d7576102d6610320565b5b828201905092915050565b60006102ed82610316565b91506102f883610316565b92508282101561030b5761030a610320565b5b828203905092915050565b6000819050919050565b7f4e487b7100000000000000000000000000000000000000000000000000000000600052601160045260246000fd5b600080fd5b50565b61036081610316565b811461036b57600080fd5b5056fea2646970667358221220191870e9074314f9c49772a89bc56fd87bcb482b80443c950ca7290dd94a5d6464736f6c63430008070033",
					"opcodes": "PUSH1 0x80 PUSH1 0x40 MSTORE PUSH1 0x0 PUSH1 0x1 SSTORE CALLVALUE DUP1 ISZERO PUSH2 0x15 JUMPI PUSH1 0x0 DUP1 REVERT JUMPDEST POP CALLER PUSH1 0x0 DUP1 PUSH2 0x100 EXP DUP2 SLOAD DUP2 PUSH20 0xFFFFFFFFFFFFFFFFFFFFFFFFFFFFFFFFFFFFFFFF MUL NOT AND SWAP1 DUP4 PUSH20 0xFFFFFFFFFFFFFFFFFFFFFFFFFFFFFFFFFFFFFFFF AND MUL OR SWAP1 SSTORE POP PUSH2 0x3A4 DUP1 PUSH2 0x65 PUSH1 0x0 CODECOPY PUSH1 0x0 RETURN INVALID PUSH1 0x80 PUSH1 0x40 MSTORE PUSH1 0x4 CALLDATASIZE LT PUSH2 0x2D JUMPI PUSH1 0x0 CALLDATALOAD PUSH1 0xE0 SHR DUP1 PUSH4 0x2E1A7D4D EQ PUSH2 0x41 JUMPI DUP1 PUSH4 0xEA818772 EQ PUSH2 0x6A JUMPI PUSH2 0x3C JUMP JUMPDEST CALLDATASIZE PUSH2 0x3C JUMPI PUSH2 0x3A PUSH2 0x95 JUMP JUMPDEST STOP JUMPDEST PUSH1 0x0 DUP1 REVERT JUMPDEST CALLVALUE DUP1 ISZERO PUSH2 0x4D JUMPI PUSH1 0x0 DUP1 REVERT JUMPDEST POP PUSH2 0x68 PUSH1 0x4 DUP1 CALLDATASIZE SUB DUP2 ADD SWAP1 PUSH2 0x63 SWAP2 SWAP1 PUSH2 0x1E1 JUMP JUMPDEST PUSH2 0xB0 JUMP JUMPDEST STOP JUMPDEST CALLVALUE DUP1 ISZERO PUSH2 0x76 JUMPI PUSH1 0x0 DUP1 REVERT JUMPDEST POP PUSH2 0x7F PUSH2 0x1C4 JUMP JUMPDEST PUSH1 0x40 MLOAD PUSH2 0x8C SWAP2 SWAP1 PUSH2 0x260 JUMP JUMPDEST PUSH1 0x40 MLOAD DUP1 SWAP2 SUB SWAP1 RETURN JUMPDEST CALLVALUE PUSH1 0x1 PUSH1 0x0 DUP3 DUP3 SLOAD PUSH2 0xA7 SWAP2 SWAP1 PUSH2 0x28C JUMP JUMPDEST SWAP3 POP POP DUP2 SWAP1 SSTORE POP JUMP JUMPDEST PUSH1 0x0 DUP1 SLOAD SWAP1 PUSH2 0x100 EXP SWAP1 DIV PUSH20 0xFFFFFFFFFFFFFFFFFFFFFFFFFFFFFFFFFFFFFFFF AND PUSH20 0xFFFFFFFFFFFFFFFFFFFFFFFFFFFFFFFFFFFFFFFF AND CALLER PUSH20 0xFFFFFFFFFFFFFFFFFFFFFFFFFFFFFFFFFFFFFFFF AND EQ PUSH2 0x108 JUMPI PUSH1 0x0 DUP1 REVERT JUMPDEST DUP1 PUSH1 0x1 SLOAD LT ISZERO PUSH2 0x14D JUMPI PUSH1 0x40 MLOAD PUSH32 0x8C379A000000000000000000000000000000000000000000000000000000000 DUP2 MSTORE PUSH1 0x4 ADD PUSH2 0x144 SWAP1 PUSH2 0x240 JUMP JUMPDEST PUSH1 0x40 MLOAD DUP1 SWAP2 SUB SWAP1 REVERT JUMPDEST DUP1 PUSH1 0x1 PUSH1 0x0 DUP3 DUP3 SLOAD PUSH2 0x15F SWAP2 SWAP1 PUSH2 0x2E2 JUMP JUMPDEST SWAP3 POP POP DUP2 SWAP1 SSTORE POP PUSH20 0x71633BE32E07DB4A645CE85418D64484B39AB692 PUSH20 0xFFFFFFFFFFFFFFFFFFFFFFFFFFFFFFFFFFFFFFFF AND PUSH2 0x8FC DUP3 SWAP1 DUP2 ISZERO MUL SWAP1 PUSH1 0x40 MLOAD PUSH1 0x0 PUSH1 0x40 MLOAD DUP1 DUP4 SUB DUP2 DUP6 DUP9 DUP9 CALL SWAP4 POP POP POP POP ISZERO DUP1 ISZERO PUSH2 0x1C0 JUMPI RETURNDATASIZE PUSH1 0x0 DUP1 RETURNDATACOPY RETURNDATASIZE PUSH1 0x0 REVERT JUMPDEST POP POP JUMP JUMPDEST PUSH1 0x0 SELFBALANCE SWAP1 POP SWAP1 JUMP JUMPDEST PUSH1 0x0 DUP2 CALLDATALOAD SWAP1 POP PUSH2 0x1DB DUP2 PUSH2 0x357 JUMP JUMPDEST SWAP3 SWAP2 POP POP JUMP JUMPDEST PUSH1 0x0 PUSH1 0x20 DUP3 DUP5 SUB SLT ISZERO PUSH2 0x1F7 JUMPI PUSH2 0x1F6 PUSH2 0x34F JUMP JUMPDEST JUMPDEST PUSH1 0x0 PUSH2 0x205 DUP5 DUP3 DUP6 ADD PUSH2 0x1CC JUMP JUMPDEST SWAP2 POP POP SWAP3 SWAP2 POP POP JUMP JUMPDEST PUSH1 0x0 PUSH2 0x21B PUSH1 0x0 DUP4 PUSH2 0x27B JUMP JUMPDEST SWAP2 POP PUSH2 0x226 DUP3 PUSH2 0x354 JUMP JUMPDEST PUSH1 0x0 DUP3 ADD SWAP1 POP SWAP2 SWAP1 POP JUMP JUMPDEST PUSH2 0x23A DUP2 PUSH2 0x316 JUMP JUMPDEST DUP3 MSTORE POP POP JUMP JUMPDEST PUSH1 0x0 PUSH1 0x20 DUP3 ADD SWAP1 POP DUP2 DUP2 SUB PUSH1 0x0 DUP4 ADD MSTORE PUSH2 0x259 DUP2 PUSH2 0x20E JUMP JUMPDEST SWAP1 POP SWAP2 SWAP1 POP JUMP JUMPDEST PUSH1 0x0 PUSH1 0x20 DUP3 ADD SWAP1 POP PUSH2 0x275 PUSH1 0x0 DUP4 ADD DUP5 PUSH2 0x231 JUMP JUMPDEST SWAP3 SWAP2 POP POP JUMP JUMPDEST PUSH1 0x0 DUP3 DUP3 MSTORE PUSH1 0x20 DUP3 ADD SWAP1 POP SWAP3 SWAP2 POP POP JUMP JUMPDEST PUSH1 0x0 PUSH2 0x297 DUP3 PUSH2 0x316 JUMP JUMPDEST SWAP2 POP PUSH2 0x2A2 DUP4 PUSH2 0x316 JUMP JUMPDEST SWAP3 POP DUP3 PUSH32 0xFFFFFFFFFFFFFFFFFFFFFFFFFFFFFFFFFFFFFFFFFFFFFFFFFFFFFFFFFFFFFFFF SUB DUP3 GT ISZERO PUSH2 0x2D7 JUMPI PUSH2 0x2D6 PUSH2 0x320 JUMP JUMPDEST JUMPDEST DUP3 DUP3 ADD SWAP1 POP SWAP3 SWAP2 POP POP JUMP JUMPDEST PUSH1 0x0 PUSH2 0x2ED DUP3 PUSH2 0x316 JUMP JUMPDEST SWAP2 POP PUSH2 0x2F8 DUP4 PUSH2 0x316 JUMP JUMPDEST SWAP3 POP DUP3 DUP3 LT ISZERO PUSH2 0x30B JUMPI PUSH2 0x30A PUSH2 0x320 JUMP JUMPDEST JUMPDEST DUP3 DUP3 SUB SWAP1 POP SWAP3 SWAP2 POP POP JUMP JUMPDEST PUSH1 0x0 DUP2 SWAP1 POP SWAP2 SWAP1 POP JUMP JUMPDEST PUSH32 0x4E487B7100000000000000000000000000000000000000000000000000000000 PUSH1 0x0 MSTORE PUSH1 0x11 PUSH1 0x4 MSTORE PUSH1 0x24 PUSH1 0x0 REVERT JUMPDEST PUSH1 0x0 DUP1 REVERT JUMPDEST POP JUMP JUMPDEST PUSH2 0x360 DUP2 PUSH2 0x316 JUMP JUMPDEST DUP2 EQ PUSH2 0x36B JUMPI PUSH1 0x0 DUP1 REVERT JUMPDEST POP JUMP INVALID LOG2 PUSH5 0x6970667358 0x22 SLT KECCAK256 NOT XOR PUSH17 0xE9074314F9C49772A89BC56FD87BCB482B DUP1 DIFFICULTY EXTCODECOPY SWAP6 0xC 0xA7 0x29 0xD 0xD9 0x4A 0x5D PUSH5 0x64736F6C63 NUMBER STOP ADDMOD SMOD STOP CALLER "
				},
				"gasEstimates": {
					"creation": {
						"codeDepositCost": "186400",
						"executionCost": "29504",
						"totalCost": "215904"
					},
					"external": {
						"getBalanec()": "339",
						"withdraw(uint256)": "infinite"
					},
					"internal": {
						"deposit()": "infinite"
					}
				},
				"methodIdentifiers": {
					"getBalanec()": "ea818772",
					"withdraw(uint256)": "2e1a7d4d"
				}
			},
			"storageLayout": {
				"storage": [
					{
						"astId": 3,
						"contract": "testTarget.sol:BalanceChecker",
						"label": "owner",
						"offset": 0,
						"slot": "0",
						"type": "t_address"
					},
					{
						"astId": 32,
						"contract": "testTarget.sol:BalanceChecker",
						"label": "balance",
						"offset": 0,
						"slot": "1",
						"type": "t_uint256"
					}
				],
				"types": {
					"t_address": {
						"encoding": "inplace",
						"label": "address",
						"numberOfBytes": "20"
					},
					"t_uint256": {
						"encoding": "inplace",
						"label": "uint256",
						"numberOfBytes": "32"
					}
				}
			},
			"userdoc": {
				"kind": "user",
				"methods": {},
				"version": 1
			}
		}
	}
}