{
	"testEverythingPaymaster.sol": {
		"TestEverythingPaymaster": {
			"abi": [
				{
					"anonymous": false,
					"inputs": [
						{
							"indexed": true,
							"internalType": "address",
							"name": "previousOwner",
							"type": "address"
						},
						{
							"indexed": true,
							"internalType": "address",
							"name": "newOwner",
							"type": "address"
						}
					],
					"name": "OwnershipTransferred",
					"type": "event"
				},
				{
					"inputs": [],
					"name": "CALLDATA_SIZE_LIMIT",
					"outputs": [
						{
							"internalType": "uint256",
							"name": "",
							"type": "uint256"
						}
					],
					"stateMutability": "view",
					"type": "function"
				},
				{
					"inputs": [],
					"name": "FORWARDER_HUB_OVERHEAD",
					"outputs": [
						{
							"internalType": "uint256",
							"name": "",
							"type": "uint256"
						}
					],
					"stateMutability": "view",
					"type": "function"
				},
				{
					"inputs": [],
					"name": "PAYMASTER_ACCEPTANCE_BUDGET",
					"outputs": [
						{
							"internalType": "uint256",
							"name": "",
							"type": "uint256"
						}
					],
					"stateMutability": "view",
					"type": "function"
				},
				{
					"inputs": [],
					"name": "POST_RELAYED_CALL_GAS_LIMIT",
					"outputs": [
						{
							"internalType": "uint256",
							"name": "",
							"type": "uint256"
						}
					],
					"stateMutability": "view",
					"type": "function"
				},
				{
					"inputs": [],
					"name": "PRE_RELAYED_CALL_GAS_LIMIT",
					"outputs": [
						{
							"internalType": "uint256",
							"name": "",
							"type": "uint256"
						}
					],
					"stateMutability": "view",
					"type": "function"
				},
				{
					"inputs": [],
					"name": "getBalance",
					"outputs": [
						{
							"internalType": "uint256",
							"name": "",
							"type": "uint256"
						}
					],
					"stateMutability": "view",
					"type": "function"
				},
				{
					"inputs": [],
					"name": "getGasAndDataLimits",
					"outputs": [
						{
							"components": [
								{
									"internalType": "uint256",
									"name": "acceptanceBudget",
									"type": "uint256"
								},
								{
									"internalType": "uint256",
									"name": "preRelayedCallGasLimit",
									"type": "uint256"
								},
								{
									"internalType": "uint256",
									"name": "postRelayedCallGasLimit",
									"type": "uint256"
								},
								{
									"internalType": "uint256",
									"name": "calldataSizeLimit",
									"type": "uint256"
								}
							],
							"internalType": "struct IPaymaster.GasAndDataLimits",
							"name": "limits",
							"type": "tuple"
						}
					],
					"stateMutability": "view",
					"type": "function"
				},
				{
					"inputs": [],
					"name": "getRelayHub",
					"outputs": [
						{
							"internalType": "address",
							"name": "",
							"type": "address"
						}
					],
					"stateMutability": "view",
					"type": "function"
				},
				{
					"inputs": [],
					"name": "getTrustedForwarder",
					"outputs": [
						{
							"internalType": "address",
							"name": "",
							"type": "address"
						}
					],
					"stateMutability": "view",
					"type": "function"
				},
				{
					"inputs": [],
					"name": "owner",
					"outputs": [
						{
							"internalType": "address",
							"name": "",
							"type": "address"
						}
					],
					"stateMutability": "view",
					"type": "function"
				},
				{
					"inputs": [
						{
							"internalType": "bytes",
							"name": "context",
							"type": "bytes"
						},
						{
							"internalType": "bool",
							"name": "success",
							"type": "bool"
						},
						{
							"internalType": "uint256",
							"name": "gasUseWithoutPost",
							"type": "uint256"
						},
						{
							"components": [
								{
									"internalType": "uint256",
									"name": "maxFeePerGas",
									"type": "uint256"
								},
								{
									"internalType": "uint256",
									"name": "maxPriorityFeePerGas",
									"type": "uint256"
								},
								{
									"internalType": "uint256",
									"name": "transactionCalldataGasUsed",
									"type": "uint256"
								},
								{
									"internalType": "address",
									"name": "relayWorker",
									"type": "address"
								},
								{
									"internalType": "address",
									"name": "paymaster",
									"type": "address"
								},
								{
									"internalType": "address",
									"name": "forwarder",
									"type": "address"
								},
								{
									"internalType": "bytes",
									"name": "paymasterData",
									"type": "bytes"
								},
								{
									"internalType": "uint256",
									"name": "clientId",
									"type": "uint256"
								}
							],
							"internalType": "struct GsnTypes.RelayData",
							"name": "relayData",
							"type": "tuple"
						}
					],
					"name": "postRelayedCall",
					"outputs": [],
					"stateMutability": "nonpayable",
					"type": "function"
				},
				{
					"inputs": [
						{
							"components": [
								{
									"components": [
										{
											"internalType": "address",
											"name": "from",
											"type": "address"
										},
										{
											"internalType": "address",
											"name": "to",
											"type": "address"
										},
										{
											"internalType": "uint256",
											"name": "value",
											"type": "uint256"
										},
										{
											"internalType": "uint256",
											"name": "gas",
											"type": "uint256"
										},
										{
											"internalType": "uint256",
											"name": "nonce",
											"type": "uint256"
										},
										{
											"internalType": "bytes",
											"name": "data",
											"type": "bytes"
										},
										{
											"internalType": "uint256",
											"name": "validUntilTime",
											"type": "uint256"
										}
									],
									"internalType": "struct IForwarder.ForwardRequest",
									"name": "request",
									"type": "tuple"
								},
								{
									"components": [
										{
											"internalType": "uint256",
											"name": "maxFeePerGas",
											"type": "uint256"
										},
										{
											"internalType": "uint256",
											"name": "maxPriorityFeePerGas",
											"type": "uint256"
										},
										{
											"internalType": "uint256",
											"name": "transactionCalldataGasUsed",
											"type": "uint256"
										},
										{
											"internalType": "address",
											"name": "relayWorker",
											"type": "address"
										},
										{
											"internalType": "address",
											"name": "paymaster",
											"type": "address"
										},
										{
											"internalType": "address",
											"name": "forwarder",
											"type": "address"
										},
										{
											"internalType": "bytes",
											"name": "paymasterData",
											"type": "bytes"
										},
										{
											"internalType": "uint256",
											"name": "clientId",
											"type": "uint256"
										}
									],
									"internalType": "struct GsnTypes.RelayData",
									"name": "relayData",
									"type": "tuple"
								}
							],
							"internalType": "struct GsnTypes.RelayRequest",
							"name": "relayRequest",
							"type": "tuple"
						},
						{
							"internalType": "bytes",
							"name": "signature",
							"type": "bytes"
						},
						{
							"internalType": "bytes",
							"name": "approvalData",
							"type": "bytes"
						},
						{
							"internalType": "uint256",
							"name": "maxPossibleGas",
							"type": "uint256"
						}
					],
					"name": "preRelayedCall",
					"outputs": [
						{
							"internalType": "bytes",
							"name": "",
							"type": "bytes"
						},
						{
							"internalType": "bool",
							"name": "",
							"type": "bool"
						}
					],
					"stateMutability": "nonpayable",
					"type": "function"
				},
				{
					"inputs": [],
					"name": "renounceOwnership",
					"outputs": [],
					"stateMutability": "nonpayable",
					"type": "function"
				},
				{
					"inputs": [
						{
							"internalType": "contract IRelayHub",
							"name": "hub",
							"type": "address"
						}
					],
					"name": "setRelayHub",
					"outputs": [],
					"stateMutability": "nonpayable",
					"type": "function"
				},
				{
					"inputs": [
						{
							"internalType": "address",
							"name": "forwarder",
							"type": "address"
						}
					],
					"name": "setTrustedForwarder",
					"outputs": [],
					"stateMutability": "nonpayable",
					"type": "function"
				},
				{
					"inputs": [
						{
							"internalType": "bytes4",
							"name": "interfaceId",
							"type": "bytes4"
						}
					],
					"name": "supportsInterface",
					"outputs": [
						{
							"internalType": "bool",
							"name": "",
							"type": "bool"
						}
					],
					"stateMutability": "view",
					"type": "function"
				},
				{
					"inputs": [
						{
							"internalType": "address",
							"name": "newOwner",
							"type": "address"
						}
					],
					"name": "transferOwnership",
					"outputs": [],
					"stateMutability": "nonpayable",
					"type": "function"
				},
				{
					"inputs": [],
					"name": "versionPaymaster",
					"outputs": [
						{
							"internalType": "string",
							"name": "",
							"type": "string"
						}
					],
					"stateMutability": "view",
					"type": "function"
				},
				{
					"inputs": [
						{
							"internalType": "uint256",
							"name": "amount",
							"type": "uint256"
						},
						{
							"internalType": "address payable",
							"name": "target",
							"type": "address"
						}
					],
					"name": "withdrawRelayHubDepositTo",
					"outputs": [],
					"stateMutability": "nonpayable",
					"type": "function"
				},
				{
					"stateMutability": "payable",
					"type": "receive"
				}
			],
			"devdoc": {
				"kind": "dev",
				"methods": {
					"getGasAndDataLimits()": {
						"returns": {
							"limits": "An instance of the `GasAndDataLimits` struct ##### `acceptanceBudget` If the transactions consumes more than `acceptanceBudget` this Paymaster will be charged for gas no matter what. Transaction that gets rejected after consuming more than `acceptanceBudget` gas is on this Paymaster's expense. Should be set to an amount gas this Paymaster expects to spend deciding whether to accept or reject a request. This includes gas consumed by calculations in the `preRelayedCall`, `Forwarder` and the recipient contract. :warning: **Warning** :warning: As long this value is above `preRelayedCallGasLimit` (see defaults in `BasePaymaster`), the Paymaster is guaranteed it will never pay for rejected transactions. If this value is below `preRelayedCallGasLimit`, it might might make Paymaster open to a \"griefing\" attack. The relayers should prefer lower `acceptanceBudget`, as it improves their chances of being compensated. From a Relay's point of view, this is the highest gas value a bad Paymaster may cost the relay, since the paymaster will pay anything above that value regardless of whether the transaction succeeds or reverts. Specifying value too high might make the call rejected by relayers (see `maxAcceptanceBudget` in server config). ##### `preRelayedCallGasLimit` The max gas usage of preRelayedCall. Any revert of the `preRelayedCall` is a request rejection by the paymaster. As long as `acceptanceBudget` is above `preRelayedCallGasLimit`, any such revert is not payed by the paymaster. ##### `postRelayedCallGasLimit` The max gas usage of postRelayedCall. The Paymaster is not charged for the maximum, only for actually used gas. Note that an OOG will revert the inner transaction, but the paymaster will be charged for it anyway."
						}
					},
					"getRelayHub()": {
						"returns": {
							"_0": "The address of the `RelayHub` that is trusted by this Paymaster to execute the requests."
						}
					},
					"getTrustedForwarder()": {
						"returns": {
							"_0": "The address of the `Forwarder` that is trusted by this Paymaster to execute the requests."
						}
					},
					"owner()": {
						"details": "Returns the address of the current owner."
					},
					"postRelayedCall(bytes,bool,uint256,(uint256,uint256,uint256,address,address,address,bytes,uint256))": {
						"params": {
							"context": "The call context, as returned by the preRelayedCall",
							"gasUseWithoutPost": "The actual amount of gas used by the entire transaction, EXCEPT        the gas used by the postRelayedCall itself.",
							"relayData": "The relay params of the request. can be used by relayHub.calculateCharge()",
							"success": "`true` if the relayed call succeeded, false if it reverted"
						}
					},
					"preRelayedCall(((address,address,uint256,uint256,uint256,bytes,uint256),(uint256,uint256,uint256,address,address,address,bytes,uint256)),bytes,bytes,uint256)": {
						"params": {
							"approvalData": "- extra dapp-specific data (e.g. signature from trusted party)",
							"maxPossibleGas": "- based on values returned from `getGasAndDataLimits` the RelayHub will calculate the maximum possible amount of gas the user may be charged for. In order to convert this value to wei, the Paymaster has to call \"relayHub.calculateCharge()\"",
							"relayRequest": "- the full relay request structure",
							"signature": "- user's EIP712-compatible signature of the `relayRequest`. Note that in most cases the paymaster shouldn't try use it at all. It is always checked by the forwarder immediately after preRelayedCall returns."
						},
						"returns": {
							"_0": "A byte array to be passed to postRelayedCall. Can contain any data needed by this Paymaster in any form or be empty if no extra data is needed.",
							"_1": "The flag that allows a Paymaster to \"delegate\" the rejection to the recipient code. It also means the Paymaster trust the recipient to reject fast: both preRelayedCall, forwarder check and recipient checks must fit into the GasLimits.acceptanceBudget, otherwise the TX is paid by the Paymaster. `true` if the Paymaster wants to reject the TX if the recipient reverts. `false` if the Paymaster wants rejects by the recipient to be completed on chain and paid by the Paymaster."
						}
					},
					"renounceOwnership()": {
						"details": "Leaves the contract without owner. It will not be possible to call `onlyOwner` functions. Can only be called by the current owner. NOTE: Renouncing ownership will leave the contract without an owner, thereby disabling any functionality that is only available to the owner."
					},
					"supportsInterface(bytes4)": {
						"details": "Returns true if this contract implements the interface defined by `interfaceId`. See the corresponding https://eips.ethereum.org/EIPS/eip-165#how-interfaces-are-identified[EIP section] to learn more about how these ids are created. This function call must use less than 30 000 gas."
					},
					"transferOwnership(address)": {
						"details": "Transfers ownership of the contract to a new account (`newOwner`). Can only be called by the current owner."
					},
					"versionPaymaster()": {
						"returns": {
							"_0": "version The SemVer string of this Paymaster's version."
						}
					},
					"withdrawRelayHubDepositTo(uint256,address)": {
						"params": {
							"amount": "The amount to be subtracted from the sender.",
							"target": "The target to which the amount will be transferred."
						}
					}
				},
				"version": 1
			},
			"evm": {
				"assembly": "    /* \"testEverythingPaymaster.sol\":334:1396  contract TestEverythingPaymaster is BasePaymaster {\r... */\n  mstore(0x40, 0x80)\n    /* \"testEverythingPaymaster.sol\":409:410  0 */\n  0x00\n    /* \"testEverythingPaymaster.sol\":391:410  uint256 balance = 0 */\n  0x03\n  sstore\n    /* \"testEverythingPaymaster.sol\":334:1396  contract TestEverythingPaymaster is BasePaymaster {\r... */\n  callvalue\n  dup1\n  iszero\n  tag_1\n  jumpi\n  0x00\n  dup1\n  revert\ntag_1:\n  pop\n    /* \"@openzeppelin/contracts/access/Ownable.sol\":936:968  _transferOwnership(_msgSender()) */\n  tag_4\n    /* \"@openzeppelin/contracts/access/Ownable.sol\":955:967  _msgSender() */\n  tag_5\n    /* \"@openzeppelin/contracts/access/Ownable.sol\":955:965  _msgSender */\n  shl(0x20, tag_6)\n    /* \"@openzeppelin/contracts/access/Ownable.sol\":955:967  _msgSender() */\n  0x20\n  shr\n  jump\t// in\ntag_5:\n    /* \"@openzeppelin/contracts/access/Ownable.sol\":936:954  _transferOwnership */\n  shl(0x20, tag_7)\n    /* \"@openzeppelin/contracts/access/Ownable.sol\":936:968  _transferOwnership(_msgSender()) */\n  0x20\n  shr\n  jump\t// in\ntag_4:\n    /* \"testEverythingPaymaster.sol\":334:1396  contract TestEverythingPaymaster is BasePaymaster {\r... */\n  jump(tag_8)\n    /* \"@openzeppelin/contracts/utils/Context.sol\":640:736  function _msgSender() internal view virtual returns (address) {... */\ntag_6:\n    /* \"@openzeppelin/contracts/utils/Context.sol\":693:700  address */\n  0x00\n    /* \"@openzeppelin/contracts/utils/Context.sol\":719:729  msg.sender */\n  caller\n    /* \"@openzeppelin/contracts/utils/Context.sol\":712:729  return msg.sender */\n  swap1\n  pop\n    /* \"@openzeppelin/contracts/utils/Context.sol\":640:736  function _msgSender() internal view virtual returns (address) {... */\n  swap1\n  jump\t// out\n    /* \"@openzeppelin/contracts/access/Ownable.sol\":2426:2613  function _transferOwnership(address newOwner) internal virtual {... */\ntag_7:\n    /* \"@openzeppelin/contracts/access/Ownable.sol\":2499:2515  address oldOwner */\n  0x00\n    /* \"@openzeppelin/contracts/access/Ownable.sol\":2518:2524  _owner */\n  dup1\n  0x00\n  swap1\n  sload\n  swap1\n  0x0100\n  exp\n  swap1\n  div\n  0xffffffffffffffffffffffffffffffffffffffff\n  and\n    /* \"@openzeppelin/contracts/access/Ownable.sol\":2499:2524  address oldOwner = _owner */\n  swap1\n  pop\n    /* \"@openzeppelin/contracts/access/Ownable.sol\":2543:2551  newOwner */\n  dup2\n    /* \"@openzeppelin/contracts/access/Ownable.sol\":2534:2540  _owner */\n  0x00\n  dup1\n    /* \"@openzeppelin/contracts/access/Ownable.sol\":2534:2551  _owner = newOwner */\n  0x0100\n  exp\n  dup2\n  sload\n  dup2\n  0xffffffffffffffffffffffffffffffffffffffff\n  mul\n  not\n  and\n  swap1\n  dup4\n  0xffffffffffffffffffffffffffffffffffffffff\n  and\n  mul\n  or\n  swap1\n  sstore\n  pop\n    /* \"@openzeppelin/contracts/access/Ownable.sol\":2597:2605  newOwner */\n  dup2\n    /* \"@openzeppelin/contracts/access/Ownable.sol\":2566:2606  OwnershipTransferred(oldOwner, newOwner) */\n  0xffffffffffffffffffffffffffffffffffffffff\n  and\n    /* \"@openzeppelin/contracts/access/Ownable.sol\":2587:2595  oldOwner */\n  dup2\n    /* \"@openzeppelin/contracts/access/Ownable.sol\":2566:2606  OwnershipTransferred(oldOwner, newOwner) */\n  0xffffffffffffffffffffffffffffffffffffffff\n  and\n  0x8be0079c531659141344cd1fd0a4f28419497f9722a3daafe3b4186f6b6457e0\n  mload(0x40)\n  mload(0x40)\n  dup1\n  swap2\n  sub\n  swap1\n  log3\n    /* \"@openzeppelin/contracts/access/Ownable.sol\":2489:2613  {... */\n  pop\n    /* \"@openzeppelin/contracts/access/Ownable.sol\":2426:2613  function _transferOwnership(address newOwner) internal virtual {... */\n  pop\n  jump\t// out\n    /* \"testEverythingPaymaster.sol\":334:1396  contract TestEverythingPaymaster is BasePaymaster {\r... */\ntag_8:\n  dataSize(sub_0)\n  dup1\n  dataOffset(sub_0)\n  0x00\n  codecopy\n  0x00\n  return\nstop\n\nsub_0: assembly {\n        /* \"testEverythingPaymaster.sol\":334:1396  contract TestEverythingPaymaster is BasePaymaster {\r... */\n      mstore(0x40, 0x80)\n      jumpi(tag_1, lt(calldatasize, 0x04))\n      shr(0xe0, calldataload(0x00))\n      dup1\n      0x8da5cb5b\n      gt\n      tag_22\n      jumpi\n      dup1\n      0xce1b815f\n      gt\n      tag_23\n      jumpi\n      dup1\n      0xce1b815f\n      eq\n      tag_17\n      jumpi\n      dup1\n      0xda742228\n      eq\n      tag_18\n      jumpi\n      dup1\n      0xdf463a66\n      eq\n      tag_19\n      jumpi\n      dup1\n      0xf2fde38b\n      eq\n      tag_20\n      jumpi\n      dup1\n      0xf9c002f7\n      eq\n      tag_21\n      jumpi\n      jump(tag_2)\n    tag_23:\n      dup1\n      0x8da5cb5b\n      eq\n      tag_12\n      jumpi\n      dup1\n      0x921276ea\n      eq\n      tag_13\n      jumpi\n      dup1\n      0xb039a88f\n      eq\n      tag_14\n      jumpi\n      dup1\n      0xb90b41cf\n      eq\n      tag_15\n      jumpi\n      dup1\n      0xbbdaa3c9\n      eq\n      tag_16\n      jumpi\n      jump(tag_2)\n    tag_22:\n      dup1\n      0x5c5e3db1\n      gt\n      tag_24\n      jumpi\n      dup1\n      0x5c5e3db1\n      eq\n      tag_7\n      jumpi\n      dup1\n      0x715018a6\n      eq\n      tag_8\n      jumpi\n      dup1\n      0x76fa01c3\n      eq\n      tag_9\n      jumpi\n      dup1\n      0x7bb05264\n      eq\n      tag_10\n      jumpi\n      dup1\n      0x7bdf2ec7\n      eq\n      tag_11\n      jumpi\n      jump(tag_2)\n    tag_24:\n      dup1\n      0xbe5dd4\n      eq\n      tag_3\n      jumpi\n      dup1\n      0x01ffc9a7\n      eq\n      tag_4\n      jumpi\n      dup1\n      0x12065fe0\n      eq\n      tag_5\n      jumpi\n      dup1\n      0x2d14c4b7\n      eq\n      tag_6\n      jumpi\n      jump(tag_2)\n    tag_1:\n      jumpi(tag_2, calldatasize)\n        /* \"@opengsn/contracts/src/BasePaymaster.sol\":4662:4663  0 */\n      0x00\n        /* \"@opengsn/contracts/src/BasePaymaster.sol\":4633:4664  address(relayHub) != address(0) */\n      0xffffffffffffffffffffffffffffffffffffffff\n      and\n        /* \"@opengsn/contracts/src/BasePaymaster.sol\":4641:4649  relayHub */\n      0x01\n      0x00\n      swap1\n      sload\n      swap1\n      0x0100\n      exp\n      swap1\n      div\n      0xffffffffffffffffffffffffffffffffffffffff\n      and\n        /* \"@opengsn/contracts/src/BasePaymaster.sol\":4633:4664  address(relayHub) != address(0) */\n      0xffffffffffffffffffffffffffffffffffffffff\n      and\n      eq\n      iszero\n        /* \"@opengsn/contracts/src/BasePaymaster.sol\":4625:4694  require(address(relayHub) != address(0), \"relay hub address not set\") */\n      tag_27\n      jumpi\n      mload(0x40)\n      0x08c379a000000000000000000000000000000000000000000000000000000000\n      dup2\n      mstore\n      0x04\n      add\n      tag_28\n      swap1\n      tag_29\n      jump\t// in\n    tag_28:\n      mload(0x40)\n      dup1\n      swap2\n      sub\n      swap1\n      revert\n    tag_27:\n        /* \"@opengsn/contracts/src/BasePaymaster.sol\":4704:4712  relayHub */\n      0x01\n      0x00\n      swap1\n      sload\n      swap1\n      0x0100\n      exp\n      swap1\n      div\n      0xffffffffffffffffffffffffffffffffffffffff\n      and\n        /* \"@opengsn/contracts/src/BasePaymaster.sol\":4704:4723  relayHub.depositFor */\n      0xffffffffffffffffffffffffffffffffffffffff\n      and\n      0xaa67c919\n        /* \"@opengsn/contracts/src/BasePaymaster.sol\":4730:4739  msg.value */\n      callvalue\n        /* \"@opengsn/contracts/src/BasePaymaster.sol\":4749:4753  this */\n      address\n        /* \"@opengsn/contracts/src/BasePaymaster.sol\":4704:4755  relayHub.depositFor{value:msg.value}(address(this)) */\n      mload(0x40)\n      dup4\n      0xffffffff\n      and\n      0xe0\n      shl\n      dup2\n      mstore\n      0x04\n      add\n      tag_30\n      swap2\n      swap1\n      tag_31\n      jump\t// in\n    tag_30:\n      0x00\n      mload(0x40)\n      dup1\n      dup4\n      sub\n      dup2\n      dup6\n      dup9\n      dup1\n      extcodesize\n      iszero\n      dup1\n      iszero\n      tag_32\n      jumpi\n      0x00\n      dup1\n      revert\n    tag_32:\n      pop\n      gas\n      call\n      iszero\n      dup1\n      iszero\n      tag_34\n      jumpi\n      returndatasize\n      0x00\n      dup1\n      returndatacopy\n      revert(0x00, returndatasize)\n    tag_34:\n      pop\n      pop\n      pop\n      pop\n      pop\n        /* \"testEverythingPaymaster.sol\":334:1396  contract TestEverythingPaymaster is BasePaymaster {\r... */\n      stop\n    tag_2:\n      0x00\n      dup1\n      revert\n        /* \"@opengsn/contracts/src/BasePaymaster.sol\":5153:5686  function preRelayedCall(... */\n    tag_3:\n      callvalue\n      dup1\n      iszero\n      tag_35\n      jumpi\n      0x00\n      dup1\n      revert\n    tag_35:\n      pop\n      tag_36\n      0x04\n      dup1\n      calldatasize\n      sub\n      dup2\n      add\n      swap1\n      tag_37\n      swap2\n      swap1\n      tag_38\n      jump\t// in\n    tag_37:\n      tag_39\n      jump\t// in\n    tag_36:\n      mload(0x40)\n      tag_40\n      swap3\n      swap2\n      swap1\n      tag_41\n      jump\t// in\n    tag_40:\n      mload(0x40)\n      dup1\n      swap2\n      sub\n      swap1\n      return\n        /* \"@opengsn/contracts/src/BasePaymaster.sol\":1460:1743  function supportsInterface(bytes4 interfaceId) public view virtual override(IERC165, ERC165) returns (bool) {... */\n    tag_4:\n      callvalue\n      dup1\n      iszero\n      tag_42\n      jumpi\n      0x00\n      dup1\n      revert\n    tag_42:\n      pop\n      tag_43\n      0x04\n      dup1\n      calldatasize\n      sub\n      dup2\n      add\n      swap1\n      tag_44\n      swap2\n      swap1\n      tag_45\n      jump\t// in\n    tag_44:\n      tag_46\n      jump\t// in\n    tag_43:\n      mload(0x40)\n      tag_47\n      swap2\n      swap1\n      tag_48\n      jump\t// in\n    tag_47:\n      mload(0x40)\n      dup1\n      swap2\n      sub\n      swap1\n      return\n        /* \"testEverythingPaymaster.sol\":1286:1393  function getBalance()public view returns(uint256){\r... */\n    tag_5:\n      callvalue\n      dup1\n      iszero\n      tag_49\n      jumpi\n      0x00\n      dup1\n      revert\n    tag_49:\n      pop\n      tag_50\n      tag_51\n      jump\t// in\n    tag_50:\n      mload(0x40)\n      tag_52\n      swap2\n      swap1\n      tag_53\n      jump\t// in\n    tag_52:\n      mload(0x40)\n      dup1\n      swap2\n      sub\n      swap1\n      return\n        /* \"@opengsn/contracts/src/BasePaymaster.sol\":4974:5116  function withdrawRelayHubDepositTo(uint256 amount, address payable target) public onlyOwner {... */\n    tag_6:\n      callvalue\n      dup1\n      iszero\n      tag_54\n      jumpi\n      0x00\n      dup1\n      revert\n    tag_54:\n      pop\n      tag_55\n      0x04\n      dup1\n      calldatasize\n      sub\n      dup2\n      add\n      swap1\n      tag_56\n      swap2\n      swap1\n      tag_57\n      jump\t// in\n    tag_56:\n      tag_58\n      jump\t// in\n    tag_55:\n      stop\n        /* \"@opengsn/contracts/src/BasePaymaster.sol\":1374:1425  uint256 constant public CALLDATA_SIZE_LIMIT = 10500 */\n    tag_7:\n      callvalue\n      dup1\n      iszero\n      tag_59\n      jumpi\n      0x00\n      dup1\n      revert\n    tag_59:\n      pop\n      tag_60\n      tag_61\n      jump\t// in\n    tag_60:\n      mload(0x40)\n      tag_62\n      swap2\n      swap1\n      tag_53\n      jump\t// in\n    tag_62:\n      mload(0x40)\n      dup1\n      swap2\n      sub\n      swap1\n      return\n        /* \"@openzeppelin/contracts/access/Ownable.sol\":1824:1925  function renounceOwnership() public virtual onlyOwner {... */\n    tag_8:\n      callvalue\n      dup1\n      iszero\n      tag_63\n      jumpi\n      0x00\n      dup1\n      revert\n    tag_63:\n      pop\n      tag_64\n      tag_65\n      jump\t// in\n    tag_64:\n      stop\n        /* \"@opengsn/contracts/src/BasePaymaster.sol\":6140:6449  function postRelayedCall(... */\n    tag_9:\n      callvalue\n      dup1\n      iszero\n      tag_66\n      jumpi\n      0x00\n      dup1\n      revert\n    tag_66:\n      pop\n      tag_67\n      0x04\n      dup1\n      calldatasize\n      sub\n      dup2\n      add\n      swap1\n      tag_68\n      swap2\n      swap1\n      tag_69\n      jump\t// in\n    tag_68:\n      tag_70\n      jump\t// in\n    tag_67:\n      stop\n        /* \"@opengsn/contracts/src/BasePaymaster.sol\":3550:3747  function setRelayHub(IRelayHub hub) public onlyOwner {... */\n    tag_10:\n      callvalue\n      dup1\n      iszero\n      tag_71\n      jumpi\n      0x00\n      dup1\n      revert\n    tag_71:\n      pop\n      tag_72\n      0x04\n      dup1\n      calldatasize\n      sub\n      dup2\n      add\n      swap1\n      tag_73\n      swap2\n      swap1\n      tag_74\n      jump\t// in\n    tag_73:\n      tag_75\n      jump\t// in\n    tag_72:\n      stop\n        /* \"@opengsn/contracts/src/BasePaymaster.sol\":828:931  function getRelayHub() public override view returns (address) {... */\n    tag_11:\n      callvalue\n      dup1\n      iszero\n      tag_76\n      jumpi\n      0x00\n      dup1\n      revert\n    tag_76:\n      pop\n      tag_77\n      tag_78\n      jump\t// in\n    tag_77:\n      mload(0x40)\n      tag_79\n      swap2\n      swap1\n      tag_31\n      jump\t// in\n    tag_79:\n      mload(0x40)\n      dup1\n      swap2\n      sub\n      swap1\n      return\n        /* \"@openzeppelin/contracts/access/Ownable.sol\":1201:1286  function owner() public view virtual returns (address) {... */\n    tag_12:\n      callvalue\n      dup1\n      iszero\n      tag_80\n      jumpi\n      0x00\n      dup1\n      revert\n    tag_80:\n      pop\n      tag_81\n      tag_82\n      jump\t// in\n    tag_81:\n      mload(0x40)\n      tag_83\n      swap2\n      swap1\n      tag_31\n      jump\t// in\n    tag_83:\n      mload(0x40)\n      dup1\n      swap2\n      sub\n      swap1\n      return\n        /* \"testEverythingPaymaster.sol\":419:577  function versionPaymaster() external view override virtual returns (string memory){\r... */\n    tag_13:\n      callvalue\n      dup1\n      iszero\n      tag_84\n      jumpi\n      0x00\n      dup1\n      revert\n    tag_84:\n      pop\n      tag_85\n      tag_86\n      jump\t// in\n    tag_85:\n      mload(0x40)\n      tag_87\n      swap2\n      swap1\n      tag_88\n      jump\t// in\n    tag_87:\n      mload(0x40)\n      dup1\n      swap2\n      sub\n      swap1\n      return\n        /* \"@opengsn/contracts/src/BasePaymaster.sol\":1780:2142  function getGasAndDataLimits()... */\n    tag_14:\n      callvalue\n      dup1\n      iszero\n      tag_89\n      jumpi\n      0x00\n      dup1\n      revert\n    tag_89:\n      pop\n      tag_90\n      tag_91\n      jump\t// in\n    tag_90:\n      mload(0x40)\n      tag_92\n      swap2\n      swap1\n      tag_93\n      jump\t// in\n    tag_92:\n      mload(0x40)\n      dup1\n      swap2\n      sub\n      swap1\n      return\n        /* \"@opengsn/contracts/src/BasePaymaster.sol\":1002:1056  uint256 constant public FORWARDER_HUB_OVERHEAD = 50000 */\n    tag_15:\n      callvalue\n      dup1\n      iszero\n      tag_94\n      jumpi\n      0x00\n      dup1\n      revert\n    tag_94:\n      pop\n      tag_95\n      tag_96\n      jump\t// in\n    tag_95:\n      mload(0x40)\n      tag_97\n      swap2\n      swap1\n      tag_53\n      jump\t// in\n    tag_97:\n      mload(0x40)\n      dup1\n      swap2\n      sub\n      swap1\n      return\n        /* \"@opengsn/contracts/src/BasePaymaster.sol\":1197:1257  uint256 constant public POST_RELAYED_CALL_GAS_LIMIT = 110000 */\n    tag_16:\n      callvalue\n      dup1\n      iszero\n      tag_98\n      jumpi\n      0x00\n      dup1\n      revert\n    tag_98:\n      pop\n      tag_99\n      tag_100\n      jump\t// in\n    tag_99:\n      mload(0x40)\n      tag_101\n      swap2\n      swap1\n      tag_53\n      jump\t// in\n    tag_101:\n      mload(0x40)\n      dup1\n      swap2\n      sub\n      swap1\n      return\n        /* \"@opengsn/contracts/src/BasePaymaster.sol\":4233:4351  function getTrustedForwarder() public virtual view override returns (address){... */\n    tag_17:\n      callvalue\n      dup1\n      iszero\n      tag_102\n      jumpi\n      0x00\n      dup1\n      revert\n    tag_102:\n      pop\n      tag_103\n      tag_104\n      jump\t// in\n    tag_103:\n      mload(0x40)\n      tag_105\n      swap2\n      swap1\n      tag_31\n      jump\t// in\n    tag_105:\n      mload(0x40)\n      dup1\n      swap2\n      sub\n      swap1\n      return\n        /* \"@opengsn/contracts/src/BasePaymaster.sol\":3996:4227  function setTrustedForwarder(address forwarder) public virtual onlyOwner {... */\n    tag_18:\n      callvalue\n      dup1\n      iszero\n      tag_106\n      jumpi\n      0x00\n      dup1\n      revert\n    tag_106:\n      pop\n      tag_107\n      0x04\n      dup1\n      calldatasize\n      sub\n      dup2\n      add\n      swap1\n      tag_108\n      swap2\n      swap1\n      tag_109\n      jump\t// in\n    tag_108:\n      tag_110\n      jump\t// in\n    tag_107:\n      stop\n        /* \"@opengsn/contracts/src/BasePaymaster.sol\":1263:1368  uint256 constant public PAYMASTER_ACCEPTANCE_BUDGET = PRE_RELAYED_CALL_GAS_LIMIT + FORWARDER_HUB_OVERHEAD */\n    tag_19:\n      callvalue\n      dup1\n      iszero\n      tag_111\n      jumpi\n      0x00\n      dup1\n      revert\n    tag_111:\n      pop\n      tag_112\n      tag_113\n      jump\t// in\n    tag_112:\n      mload(0x40)\n      tag_114\n      swap2\n      swap1\n      tag_53\n      jump\t// in\n    tag_114:\n      mload(0x40)\n      dup1\n      swap2\n      sub\n      swap1\n      return\n        /* \"@openzeppelin/contracts/access/Ownable.sol\":2074:2272  function transferOwnership(address newOwner) public virtual onlyOwner {... */\n    tag_20:\n      callvalue\n      dup1\n      iszero\n      tag_115\n      jumpi\n      0x00\n      dup1\n      revert\n    tag_115:\n      pop\n      tag_116\n      0x04\n      dup1\n      calldatasize\n      sub\n      dup2\n      add\n      swap1\n      tag_117\n      swap2\n      swap1\n      tag_109\n      jump\t// in\n    tag_117:\n      tag_118\n      jump\t// in\n    tag_116:\n      stop\n        /* \"@opengsn/contracts/src/BasePaymaster.sol\":1132:1191  uint256 constant public PRE_RELAYED_CALL_GAS_LIMIT = 100000 */\n    tag_21:\n      callvalue\n      dup1\n      iszero\n      tag_119\n      jumpi\n      0x00\n      dup1\n      revert\n    tag_119:\n      pop\n      tag_120\n      tag_121\n      jump\t// in\n    tag_120:\n      mload(0x40)\n      tag_122\n      swap2\n      swap1\n      tag_53\n      jump\t// in\n    tag_122:\n      mload(0x40)\n      dup1\n      swap2\n      sub\n      swap1\n      return\n        /* \"@opengsn/contracts/src/BasePaymaster.sol\":5153:5686  function preRelayedCall(... */\n    tag_39:\n        /* \"@opengsn/contracts/src/BasePaymaster.sol\":5378:5390  bytes memory */\n      0x60\n        /* \"@opengsn/contracts/src/BasePaymaster.sol\":5392:5396  bool */\n      0x00\n        /* \"@opengsn/contracts/src/BasePaymaster.sol\":5408:5429  _verifyRelayHubOnly() */\n      tag_124\n        /* \"@opengsn/contracts/src/BasePaymaster.sol\":5408:5427  _verifyRelayHubOnly */\n      tag_125\n        /* \"@opengsn/contracts/src/BasePaymaster.sol\":5408:5429  _verifyRelayHubOnly() */\n      jump\t// in\n    tag_124:\n        /* \"@opengsn/contracts/src/BasePaymaster.sol\":5439:5469  _verifyForwarder(relayRequest) */\n      tag_126\n        /* \"@opengsn/contracts/src/BasePaymaster.sol\":5456:5468  relayRequest */\n      dup9\n        /* \"@opengsn/contracts/src/BasePaymaster.sol\":5439:5455  _verifyForwarder */\n      tag_127\n        /* \"@opengsn/contracts/src/BasePaymaster.sol\":5439:5469  _verifyForwarder(relayRequest) */\n      jump\t// in\n    tag_126:\n        /* \"@opengsn/contracts/src/BasePaymaster.sol\":5479:5505  _verifyValue(relayRequest) */\n      tag_128\n        /* \"@opengsn/contracts/src/BasePaymaster.sol\":5492:5504  relayRequest */\n      dup9\n        /* \"@opengsn/contracts/src/BasePaymaster.sol\":5479:5491  _verifyValue */\n      tag_129\n        /* \"@opengsn/contracts/src/BasePaymaster.sol\":5479:5505  _verifyValue(relayRequest) */\n      jump\t// in\n    tag_128:\n        /* \"@opengsn/contracts/src/BasePaymaster.sol\":5515:5549  _verifyPaymasterData(relayRequest) */\n      tag_130\n        /* \"@opengsn/contracts/src/BasePaymaster.sol\":5536:5548  relayRequest */\n      dup9\n        /* \"@opengsn/contracts/src/BasePaymaster.sol\":5515:5535  _verifyPaymasterData */\n      tag_131\n        /* \"@opengsn/contracts/src/BasePaymaster.sol\":5515:5549  _verifyPaymasterData(relayRequest) */\n      jump\t// in\n    tag_130:\n        /* \"@opengsn/contracts/src/BasePaymaster.sol\":5559:5592  _verifyApprovalData(approvalData) */\n      tag_132\n        /* \"@opengsn/contracts/src/BasePaymaster.sol\":5579:5591  approvalData */\n      dup6\n      dup6\n        /* \"@opengsn/contracts/src/BasePaymaster.sol\":5559:5578  _verifyApprovalData */\n      tag_133\n        /* \"@opengsn/contracts/src/BasePaymaster.sol\":5559:5592  _verifyApprovalData(approvalData) */\n      jump\t// in\n    tag_132:\n        /* \"@opengsn/contracts/src/BasePaymaster.sol\":5609:5679  _preRelayedCall(relayRequest, signature, approvalData, maxPossibleGas) */\n      tag_134\n        /* \"@opengsn/contracts/src/BasePaymaster.sol\":5625:5637  relayRequest */\n      dup9\n        /* \"@opengsn/contracts/src/BasePaymaster.sol\":5639:5648  signature */\n      dup9\n      dup9\n        /* \"@opengsn/contracts/src/BasePaymaster.sol\":5650:5662  approvalData */\n      dup9\n      dup9\n        /* \"@opengsn/contracts/src/BasePaymaster.sol\":5664:5678  maxPossibleGas */\n      dup9\n        /* \"@opengsn/contracts/src/BasePaymaster.sol\":5609:5624  _preRelayedCall */\n      tag_135\n        /* \"@opengsn/contracts/src/BasePaymaster.sol\":5609:5679  _preRelayedCall(relayRequest, signature, approvalData, maxPossibleGas) */\n      jump\t// in\n    tag_134:\n        /* \"@opengsn/contracts/src/BasePaymaster.sol\":5602:5679  return _preRelayedCall(relayRequest, signature, approvalData, maxPossibleGas) */\n      swap2\n      pop\n      swap2\n      pop\n        /* \"@opengsn/contracts/src/BasePaymaster.sol\":5153:5686  function preRelayedCall(... */\n      swap7\n      pop\n      swap7\n      swap5\n      pop\n      pop\n      pop\n      pop\n      pop\n      jump\t// out\n        /* \"@opengsn/contracts/src/BasePaymaster.sol\":1460:1743  function supportsInterface(bytes4 interfaceId) public view virtual override(IERC165, ERC165) returns (bool) {... */\n    tag_46:\n        /* \"@opengsn/contracts/src/BasePaymaster.sol\":1562:1566  bool */\n      0x00\n        /* \"@opengsn/contracts/src/BasePaymaster.sol\":1600:1628  type(IPaymaster).interfaceId */\n      0xe1ab2dea00000000000000000000000000000000000000000000000000000000\n        /* \"@opengsn/contracts/src/BasePaymaster.sol\":1585:1628  interfaceId == type(IPaymaster).interfaceId */\n      not(0xffffffffffffffffffffffffffffffffffffffffffffffffffffffff)\n      and\n        /* \"@opengsn/contracts/src/BasePaymaster.sol\":1585:1596  interfaceId */\n      dup3\n        /* \"@opengsn/contracts/src/BasePaymaster.sol\":1585:1628  interfaceId == type(IPaymaster).interfaceId */\n      not(0xffffffffffffffffffffffffffffffffffffffffffffffffffffffff)\n      and\n      eq\n        /* \"@opengsn/contracts/src/BasePaymaster.sol\":1585:1684  interfaceId == type(IPaymaster).interfaceId ||... */\n      dup1\n      tag_137\n      jumpi\n      pop\n        /* \"@opengsn/contracts/src/BasePaymaster.sol\":1659:1684  type(Ownable).interfaceId */\n      0x0e08307600000000000000000000000000000000000000000000000000000000\n        /* \"@opengsn/contracts/src/BasePaymaster.sol\":1644:1684  interfaceId == type(Ownable).interfaceId */\n      not(0xffffffffffffffffffffffffffffffffffffffffffffffffffffffff)\n      and\n        /* \"@opengsn/contracts/src/BasePaymaster.sol\":1644:1655  interfaceId */\n      dup3\n        /* \"@opengsn/contracts/src/BasePaymaster.sol\":1644:1684  interfaceId == type(Ownable).interfaceId */\n      not(0xffffffffffffffffffffffffffffffffffffffffffffffffffffffff)\n      and\n      eq\n        /* \"@opengsn/contracts/src/BasePaymaster.sol\":1585:1684  interfaceId == type(IPaymaster).interfaceId ||... */\n    tag_137:\n        /* \"@opengsn/contracts/src/BasePaymaster.sol\":1585:1736  interfaceId == type(IPaymaster).interfaceId ||... */\n      dup1\n      tag_138\n      jumpi\n      pop\n        /* \"@opengsn/contracts/src/BasePaymaster.sol\":1700:1736  super.supportsInterface(interfaceId) */\n      tag_139\n        /* \"@opengsn/contracts/src/BasePaymaster.sol\":1724:1735  interfaceId */\n      dup3\n        /* \"@opengsn/contracts/src/BasePaymaster.sol\":1700:1723  super.supportsInterface */\n      tag_140\n        /* \"@opengsn/contracts/src/BasePaymaster.sol\":1700:1736  super.supportsInterface(interfaceId) */\n      jump\t// in\n    tag_139:\n        /* \"@opengsn/contracts/src/BasePaymaster.sol\":1585:1736  interfaceId == type(IPaymaster).interfaceId ||... */\n    tag_138:\n        /* \"@opengsn/contracts/src/BasePaymaster.sol\":1578:1736  return interfaceId == type(IPaymaster).interfaceId ||... */\n      swap1\n      pop\n        /* \"@opengsn/contracts/src/BasePaymaster.sol\":1460:1743  function supportsInterface(bytes4 interfaceId) public view virtual override(IERC165, ERC165) returns (bool) {... */\n      swap2\n      swap1\n      pop\n      jump\t// out\n        /* \"testEverythingPaymaster.sol\":1286:1393  function getBalance()public view returns(uint256){\r... */\n    tag_51:\n        /* \"testEverythingPaymaster.sol\":1327:1334  uint256 */\n      0x00\n        /* \"testEverythingPaymaster.sol\":1352:1360  relayHub */\n      0x01\n      0x00\n      swap1\n      sload\n      swap1\n      0x0100\n      exp\n      swap1\n      div\n      0xffffffffffffffffffffffffffffffffffffffff\n      and\n        /* \"testEverythingPaymaster.sol\":1352:1370  relayHub.balanceOf */\n      0xffffffffffffffffffffffffffffffffffffffff\n      and\n      0x70a08231\n        /* \"testEverythingPaymaster.sol\":1379:1383  this */\n      address\n        /* \"testEverythingPaymaster.sol\":1352:1385  relayHub.balanceOf(address(this)) */\n      mload(0x40)\n      dup3\n      0xffffffff\n      and\n      0xe0\n      shl\n      dup2\n      mstore\n      0x04\n      add\n      tag_142\n      swap2\n      swap1\n      tag_31\n      jump\t// in\n    tag_142:\n      0x20\n      mload(0x40)\n      dup1\n      dup4\n      sub\n      dup2\n      dup7\n      dup1\n      extcodesize\n      iszero\n      dup1\n      iszero\n      tag_143\n      jumpi\n      0x00\n      dup1\n      revert\n    tag_143:\n      pop\n      gas\n      staticcall\n      iszero\n      dup1\n      iszero\n      tag_145\n      jumpi\n      returndatasize\n      0x00\n      dup1\n      returndatacopy\n      revert(0x00, returndatasize)\n    tag_145:\n      pop\n      pop\n      pop\n      pop\n      mload(0x40)\n      returndatasize\n      not(0x1f)\n      0x1f\n      dup3\n      add\n      and\n      dup3\n      add\n      dup1\n      0x40\n      mstore\n      pop\n      dup2\n      add\n      swap1\n      tag_146\n      swap2\n      swap1\n      tag_147\n      jump\t// in\n    tag_146:\n        /* \"testEverythingPaymaster.sol\":1345:1385  return relayHub.balanceOf(address(this)) */\n      swap1\n      pop\n        /* \"testEverythingPaymaster.sol\":1286:1393  function getBalance()public view returns(uint256){\r... */\n      swap1\n      jump\t// out\n        /* \"@opengsn/contracts/src/BasePaymaster.sol\":4974:5116  function withdrawRelayHubDepositTo(uint256 amount, address payable target) public onlyOwner {... */\n    tag_58:\n        /* \"@openzeppelin/contracts/access/Ownable.sol\":1094:1107  _checkOwner() */\n      tag_149\n        /* \"@openzeppelin/contracts/access/Ownable.sol\":1094:1105  _checkOwner */\n      tag_150\n        /* \"@openzeppelin/contracts/access/Ownable.sol\":1094:1107  _checkOwner() */\n      jump\t// in\n    tag_149:\n        /* \"@opengsn/contracts/src/BasePaymaster.sol\":5076:5084  relayHub */\n      0x01\n      0x00\n      swap1\n      sload\n      swap1\n      0x0100\n      exp\n      swap1\n      div\n      0xffffffffffffffffffffffffffffffffffffffff\n      and\n        /* \"@opengsn/contracts/src/BasePaymaster.sol\":5076:5093  relayHub.withdraw */\n      0xffffffffffffffffffffffffffffffffffffffff\n      and\n      0xf3fef3a3\n        /* \"@opengsn/contracts/src/BasePaymaster.sol\":5094:5100  target */\n      dup3\n        /* \"@opengsn/contracts/src/BasePaymaster.sol\":5102:5108  amount */\n      dup5\n        /* \"@opengsn/contracts/src/BasePaymaster.sol\":5076:5109  relayHub.withdraw(target, amount) */\n      mload(0x40)\n      dup4\n      0xffffffff\n      and\n      0xe0\n      shl\n      dup2\n      mstore\n      0x04\n      add\n      tag_152\n      swap3\n      swap2\n      swap1\n      tag_153\n      jump\t// in\n    tag_152:\n      0x00\n      mload(0x40)\n      dup1\n      dup4\n      sub\n      dup2\n      0x00\n      dup8\n      dup1\n      extcodesize\n      iszero\n      dup1\n      iszero\n      tag_154\n      jumpi\n      0x00\n      dup1\n      revert\n    tag_154:\n      pop\n      gas\n      call\n      iszero\n      dup1\n      iszero\n      tag_156\n      jumpi\n      returndatasize\n      0x00\n      dup1\n      returndatacopy\n      revert(0x00, returndatasize)\n    tag_156:\n      pop\n      pop\n      pop\n      pop\n        /* \"@opengsn/contracts/src/BasePaymaster.sol\":4974:5116  function withdrawRelayHubDepositTo(uint256 amount, address payable target) public onlyOwner {... */\n      pop\n      pop\n      jump\t// out\n        /* \"@opengsn/contracts/src/BasePaymaster.sol\":1374:1425  uint256 constant public CALLDATA_SIZE_LIMIT = 10500 */\n    tag_61:\n        /* \"@opengsn/contracts/src/BasePaymaster.sol\":1420:1425  10500 */\n      0x2904\n        /* \"@opengsn/contracts/src/BasePaymaster.sol\":1374:1425  uint256 constant public CALLDATA_SIZE_LIMIT = 10500 */\n      dup2\n      jump\t// out\n        /* \"@openzeppelin/contracts/access/Ownable.sol\":1824:1925  function renounceOwnership() public virtual onlyOwner {... */\n    tag_65:\n        /* \"@openzeppelin/contracts/access/Ownable.sol\":1094:1107  _checkOwner() */\n      tag_158\n        /* \"@openzeppelin/contracts/access/Ownable.sol\":1094:1105  _checkOwner */\n      tag_150\n        /* \"@openzeppelin/contracts/access/Ownable.sol\":1094:1107  _checkOwner() */\n      jump\t// in\n    tag_158:\n        /* \"@openzeppelin/contracts/access/Ownable.sol\":1888:1918  _transferOwnership(address(0)) */\n      tag_160\n        /* \"@openzeppelin/contracts/access/Ownable.sol\":1915:1916  0 */\n      0x00\n        /* \"@openzeppelin/contracts/access/Ownable.sol\":1888:1906  _transferOwnership */\n      tag_161\n        /* \"@openzeppelin/contracts/access/Ownable.sol\":1888:1918  _transferOwnership(address(0)) */\n      jump\t// in\n    tag_160:\n        /* \"@openzeppelin/contracts/access/Ownable.sol\":1824:1925  function renounceOwnership() public virtual onlyOwner {... */\n      jump\t// out\n        /* \"@opengsn/contracts/src/BasePaymaster.sol\":6140:6449  function postRelayedCall(... */\n    tag_70:\n        /* \"@opengsn/contracts/src/BasePaymaster.sol\":6347:6368  _verifyRelayHubOnly() */\n      tag_163\n        /* \"@opengsn/contracts/src/BasePaymaster.sol\":6347:6366  _verifyRelayHubOnly */\n      tag_125\n        /* \"@opengsn/contracts/src/BasePaymaster.sol\":6347:6368  _verifyRelayHubOnly() */\n      jump\t// in\n    tag_163:\n        /* \"@opengsn/contracts/src/BasePaymaster.sol\":6378:6442  _postRelayedCall(context, success, gasUseWithoutPost, relayData) */\n      tag_164\n        /* \"@opengsn/contracts/src/BasePaymaster.sol\":6395:6402  context */\n      dup6\n      dup6\n        /* \"@opengsn/contracts/src/BasePaymaster.sol\":6404:6411  success */\n      dup6\n        /* \"@opengsn/contracts/src/BasePaymaster.sol\":6413:6430  gasUseWithoutPost */\n      dup6\n        /* \"@opengsn/contracts/src/BasePaymaster.sol\":6432:6441  relayData */\n      dup6\n        /* \"@opengsn/contracts/src/BasePaymaster.sol\":6378:6394  _postRelayedCall */\n      tag_165\n        /* \"@opengsn/contracts/src/BasePaymaster.sol\":6378:6442  _postRelayedCall(context, success, gasUseWithoutPost, relayData) */\n      jump\t// in\n    tag_164:\n        /* \"@opengsn/contracts/src/BasePaymaster.sol\":6140:6449  function postRelayedCall(... */\n      pop\n      pop\n      pop\n      pop\n      pop\n      jump\t// out\n        /* \"@opengsn/contracts/src/BasePaymaster.sol\":3550:3747  function setRelayHub(IRelayHub hub) public onlyOwner {... */\n    tag_75:\n        /* \"@openzeppelin/contracts/access/Ownable.sol\":1094:1107  _checkOwner() */\n      tag_167\n        /* \"@openzeppelin/contracts/access/Ownable.sol\":1094:1105  _checkOwner */\n      tag_150\n        /* \"@openzeppelin/contracts/access/Ownable.sol\":1094:1107  _checkOwner() */\n      jump\t// in\n    tag_167:\n        /* \"@opengsn/contracts/src/BasePaymaster.sol\":3621:3680  address(hub).supportsInterface(type(IRelayHub).interfaceId) */\n      tag_169\n        /* \"@opengsn/contracts/src/BasePaymaster.sol\":3652:3679  type(IRelayHub).interfaceId */\n      0xe9fb30f700000000000000000000000000000000000000000000000000000000\n        /* \"@opengsn/contracts/src/BasePaymaster.sol\":3629:3632  hub */\n      dup3\n        /* \"@opengsn/contracts/src/BasePaymaster.sol\":3621:3651  address(hub).supportsInterface */\n      0xffffffffffffffffffffffffffffffffffffffff\n      and\n      tag_170\n      swap1\n        /* \"@opengsn/contracts/src/BasePaymaster.sol\":3621:3680  address(hub).supportsInterface(type(IRelayHub).interfaceId) */\n      swap2\n      swap1\n      0xffffffff\n      and\n      jump\t// in\n    tag_169:\n        /* \"@opengsn/contracts/src/BasePaymaster.sol\":3613:3716  require(address(hub).supportsInterface(type(IRelayHub).interfaceId), \"target is not a valid IRelayHub\") */\n      tag_171\n      jumpi\n      mload(0x40)\n      0x08c379a000000000000000000000000000000000000000000000000000000000\n      dup2\n      mstore\n      0x04\n      add\n      tag_172\n      swap1\n      tag_173\n      jump\t// in\n    tag_172:\n      mload(0x40)\n      dup1\n      swap2\n      sub\n      swap1\n      revert\n    tag_171:\n        /* \"@opengsn/contracts/src/BasePaymaster.sol\":3737:3740  hub */\n      dup1\n        /* \"@opengsn/contracts/src/BasePaymaster.sol\":3726:3734  relayHub */\n      0x01\n      0x00\n        /* \"@opengsn/contracts/src/BasePaymaster.sol\":3726:3740  relayHub = hub */\n      0x0100\n      exp\n      dup2\n      sload\n      dup2\n      0xffffffffffffffffffffffffffffffffffffffff\n      mul\n      not\n      and\n      swap1\n      dup4\n      0xffffffffffffffffffffffffffffffffffffffff\n      and\n      mul\n      or\n      swap1\n      sstore\n      pop\n        /* \"@opengsn/contracts/src/BasePaymaster.sol\":3550:3747  function setRelayHub(IRelayHub hub) public onlyOwner {... */\n      pop\n      jump\t// out\n        /* \"@opengsn/contracts/src/BasePaymaster.sol\":828:931  function getRelayHub() public override view returns (address) {... */\n    tag_78:\n        /* \"@opengsn/contracts/src/BasePaymaster.sol\":881:888  address */\n      0x00\n        /* \"@opengsn/contracts/src/BasePaymaster.sol\":915:923  relayHub */\n      0x01\n      0x00\n      swap1\n      sload\n      swap1\n      0x0100\n      exp\n      swap1\n      div\n      0xffffffffffffffffffffffffffffffffffffffff\n      and\n        /* \"@opengsn/contracts/src/BasePaymaster.sol\":900:924  return address(relayHub) */\n      swap1\n      pop\n        /* \"@opengsn/contracts/src/BasePaymaster.sol\":828:931  function getRelayHub() public override view returns (address) {... */\n      swap1\n      jump\t// out\n        /* \"@openzeppelin/contracts/access/Ownable.sol\":1201:1286  function owner() public view virtual returns (address) {... */\n    tag_82:\n        /* \"@openzeppelin/contracts/access/Ownable.sol\":1247:1254  address */\n      0x00\n        /* \"@openzeppelin/contracts/access/Ownable.sol\":1273:1279  _owner */\n      dup1\n      0x00\n      swap1\n      sload\n      swap1\n      0x0100\n      exp\n      swap1\n      div\n      0xffffffffffffffffffffffffffffffffffffffff\n      and\n        /* \"@openzeppelin/contracts/access/Ownable.sol\":1266:1279  return _owner */\n      swap1\n      pop\n        /* \"@openzeppelin/contracts/access/Ownable.sol\":1201:1286  function owner() public view virtual returns (address) {... */\n      swap1\n      jump\t// out\n        /* \"testEverythingPaymaster.sol\":419:577  function versionPaymaster() external view override virtual returns (string memory){\r... */\n    tag_86:\n        /* \"testEverythingPaymaster.sol\":487:500  string memory */\n      0x60\n        /* \"testEverythingPaymaster.sol\":512:569  return \"3.0.0-beta.3+opengsn.accepteverything.ipaymaster\" */\n      mload(0x40)\n      dup1\n      0x60\n      add\n      0x40\n      mstore\n      dup1\n      0x30\n      dup2\n      mstore\n      0x20\n      add\n      data_eb97c41b3f651080603cbd3c7c438c7324cd0069264d3abe764ec765afe6a3d8\n      0x30\n      swap2\n      codecopy\n      swap1\n      pop\n        /* \"testEverythingPaymaster.sol\":419:577  function versionPaymaster() external view override virtual returns (string memory){\r... */\n      swap1\n      jump\t// out\n        /* \"@opengsn/contracts/src/BasePaymaster.sol\":1780:2142  function getGasAndDataLimits()... */\n    tag_91:\n        /* \"@opengsn/contracts/src/BasePaymaster.sol\":1878:1919  IPaymaster.GasAndDataLimits memory limits */\n      tag_177\n      tag_178\n      jump\t// in\n    tag_177:\n        /* \"@opengsn/contracts/src/BasePaymaster.sol\":1943:2135  IPaymaster.GasAndDataLimits(... */\n      mload(0x40)\n      dup1\n      0x80\n      add\n      0x40\n      mstore\n      dup1\n        /* \"@opengsn/contracts/src/BasePaymaster.sol\":1051:1056  50000 */\n      0xc350\n        /* \"@opengsn/contracts/src/BasePaymaster.sol\":1185:1191  100000 */\n      0x0186a0\n        /* \"@opengsn/contracts/src/BasePaymaster.sol\":1317:1368  PRE_RELAYED_CALL_GAS_LIMIT + FORWARDER_HUB_OVERHEAD */\n      tag_180\n      swap2\n      swap1\n      tag_181\n      jump\t// in\n    tag_180:\n        /* \"@opengsn/contracts/src/BasePaymaster.sol\":1943:2135  IPaymaster.GasAndDataLimits(... */\n      dup2\n      mstore\n      0x20\n      add\n        /* \"@opengsn/contracts/src/BasePaymaster.sol\":1185:1191  100000 */\n      0x0186a0\n        /* \"@opengsn/contracts/src/BasePaymaster.sol\":1943:2135  IPaymaster.GasAndDataLimits(... */\n      dup2\n      mstore\n      0x20\n      add\n        /* \"@opengsn/contracts/src/BasePaymaster.sol\":1251:1257  110000 */\n      0x01adb0\n        /* \"@opengsn/contracts/src/BasePaymaster.sol\":1943:2135  IPaymaster.GasAndDataLimits(... */\n      dup2\n      mstore\n      0x20\n      add\n        /* \"@opengsn/contracts/src/BasePaymaster.sol\":1420:1425  10500 */\n      0x2904\n        /* \"@opengsn/contracts/src/BasePaymaster.sol\":1943:2135  IPaymaster.GasAndDataLimits(... */\n      dup2\n      mstore\n      pop\n        /* \"@opengsn/contracts/src/BasePaymaster.sol\":1936:2135  return IPaymaster.GasAndDataLimits(... */\n      swap1\n      pop\n        /* \"@opengsn/contracts/src/BasePaymaster.sol\":1780:2142  function getGasAndDataLimits()... */\n      swap1\n      jump\t// out\n        /* \"@opengsn/contracts/src/BasePaymaster.sol\":1002:1056  uint256 constant public FORWARDER_HUB_OVERHEAD = 50000 */\n    tag_96:\n        /* \"@opengsn/contracts/src/BasePaymaster.sol\":1051:1056  50000 */\n      0xc350\n        /* \"@opengsn/contracts/src/BasePaymaster.sol\":1002:1056  uint256 constant public FORWARDER_HUB_OVERHEAD = 50000 */\n      dup2\n      jump\t// out\n        /* \"@opengsn/contracts/src/BasePaymaster.sol\":1197:1257  uint256 constant public POST_RELAYED_CALL_GAS_LIMIT = 110000 */\n    tag_100:\n        /* \"@opengsn/contracts/src/BasePaymaster.sol\":1251:1257  110000 */\n      0x01adb0\n        /* \"@opengsn/contracts/src/BasePaymaster.sol\":1197:1257  uint256 constant public POST_RELAYED_CALL_GAS_LIMIT = 110000 */\n      dup2\n      jump\t// out\n        /* \"@opengsn/contracts/src/BasePaymaster.sol\":4233:4351  function getTrustedForwarder() public virtual view override returns (address){... */\n    tag_104:\n        /* \"@opengsn/contracts/src/BasePaymaster.sol\":4302:4309  address */\n      0x00\n        /* \"@opengsn/contracts/src/BasePaymaster.sol\":4327:4344  _trustedForwarder */\n      0x02\n      0x00\n      swap1\n      sload\n      swap1\n      0x0100\n      exp\n      swap1\n      div\n      0xffffffffffffffffffffffffffffffffffffffff\n      and\n        /* \"@opengsn/contracts/src/BasePaymaster.sol\":4320:4344  return _trustedForwarder */\n      swap1\n      pop\n        /* \"@opengsn/contracts/src/BasePaymaster.sol\":4233:4351  function getTrustedForwarder() public virtual view override returns (address){... */\n      swap1\n      jump\t// out\n        /* \"@opengsn/contracts/src/BasePaymaster.sol\":3996:4227  function setTrustedForwarder(address forwarder) public virtual onlyOwner {... */\n    tag_110:\n        /* \"@openzeppelin/contracts/access/Ownable.sol\":1094:1107  _checkOwner() */\n      tag_184\n        /* \"@openzeppelin/contracts/access/Ownable.sol\":1094:1105  _checkOwner */\n      tag_150\n        /* \"@openzeppelin/contracts/access/Ownable.sol\":1094:1107  _checkOwner() */\n      jump\t// in\n    tag_184:\n        /* \"@opengsn/contracts/src/BasePaymaster.sol\":4087:4144  forwarder.supportsInterface(type(IForwarder).interfaceId) */\n      tag_186\n        /* \"@opengsn/contracts/src/BasePaymaster.sol\":4115:4143  type(IForwarder).interfaceId */\n      0x25e23e6400000000000000000000000000000000000000000000000000000000\n        /* \"@opengsn/contracts/src/BasePaymaster.sol\":4087:4096  forwarder */\n      dup3\n        /* \"@opengsn/contracts/src/BasePaymaster.sol\":4087:4114  forwarder.supportsInterface */\n      0xffffffffffffffffffffffffffffffffffffffff\n      and\n      tag_170\n      swap1\n        /* \"@opengsn/contracts/src/BasePaymaster.sol\":4087:4144  forwarder.supportsInterface(type(IForwarder).interfaceId) */\n      swap2\n      swap1\n      0xffffffff\n      and\n      jump\t// in\n    tag_186:\n        /* \"@opengsn/contracts/src/BasePaymaster.sol\":4079:4181  require(forwarder.supportsInterface(type(IForwarder).interfaceId), \"target is not a valid IForwarder\") */\n      tag_187\n      jumpi\n      mload(0x40)\n      0x08c379a000000000000000000000000000000000000000000000000000000000\n      dup2\n      mstore\n      0x04\n      add\n      tag_188\n      swap1\n      tag_189\n      jump\t// in\n    tag_188:\n      mload(0x40)\n      dup1\n      swap2\n      sub\n      swap1\n      revert\n    tag_187:\n        /* \"@opengsn/contracts/src/BasePaymaster.sol\":4211:4220  forwarder */\n      dup1\n        /* \"@opengsn/contracts/src/BasePaymaster.sol\":4191:4208  _trustedForwarder */\n      0x02\n      0x00\n        /* \"@opengsn/contracts/src/BasePaymaster.sol\":4191:4220  _trustedForwarder = forwarder */\n      0x0100\n      exp\n      dup2\n      sload\n      dup2\n      0xffffffffffffffffffffffffffffffffffffffff\n      mul\n      not\n      and\n      swap1\n      dup4\n      0xffffffffffffffffffffffffffffffffffffffff\n      and\n      mul\n      or\n      swap1\n      sstore\n      pop\n        /* \"@opengsn/contracts/src/BasePaymaster.sol\":3996:4227  function setTrustedForwarder(address forwarder) public virtual onlyOwner {... */\n      pop\n      jump\t// out\n        /* \"@opengsn/contracts/src/BasePaymaster.sol\":1263:1368  uint256 constant public PAYMASTER_ACCEPTANCE_BUDGET = PRE_RELAYED_CALL_GAS_LIMIT + FORWARDER_HUB_OVERHEAD */\n    tag_113:\n        /* \"@opengsn/contracts/src/BasePaymaster.sol\":1051:1056  50000 */\n      0xc350\n        /* \"@opengsn/contracts/src/BasePaymaster.sol\":1185:1191  100000 */\n      0x0186a0\n        /* \"@opengsn/contracts/src/BasePaymaster.sol\":1317:1368  PRE_RELAYED_CALL_GAS_LIMIT + FORWARDER_HUB_OVERHEAD */\n      tag_190\n      swap2\n      swap1\n      tag_181\n      jump\t// in\n    tag_190:\n        /* \"@opengsn/contracts/src/BasePaymaster.sol\":1263:1368  uint256 constant public PAYMASTER_ACCEPTANCE_BUDGET = PRE_RELAYED_CALL_GAS_LIMIT + FORWARDER_HUB_OVERHEAD */\n      dup2\n      jump\t// out\n        /* \"@openzeppelin/contracts/access/Ownable.sol\":2074:2272  function transferOwnership(address newOwner) public virtual onlyOwner {... */\n    tag_118:\n        /* \"@openzeppelin/contracts/access/Ownable.sol\":1094:1107  _checkOwner() */\n      tag_192\n        /* \"@openzeppelin/contracts/access/Ownable.sol\":1094:1105  _checkOwner */\n      tag_150\n        /* \"@openzeppelin/contracts/access/Ownable.sol\":1094:1107  _checkOwner() */\n      jump\t// in\n    tag_192:\n        /* \"@openzeppelin/contracts/access/Ownable.sol\":2182:2183  0 */\n      0x00\n        /* \"@openzeppelin/contracts/access/Ownable.sol\":2162:2184  newOwner != address(0) */\n      0xffffffffffffffffffffffffffffffffffffffff\n      and\n        /* \"@openzeppelin/contracts/access/Ownable.sol\":2162:2170  newOwner */\n      dup2\n        /* \"@openzeppelin/contracts/access/Ownable.sol\":2162:2184  newOwner != address(0) */\n      0xffffffffffffffffffffffffffffffffffffffff\n      and\n      eq\n      iszero\n        /* \"@openzeppelin/contracts/access/Ownable.sol\":2154:2227  require(newOwner != address(0), \"Ownable: new owner is the zero address\") */\n      tag_194\n      jumpi\n      mload(0x40)\n      0x08c379a000000000000000000000000000000000000000000000000000000000\n      dup2\n      mstore\n      0x04\n      add\n      tag_195\n      swap1\n      tag_196\n      jump\t// in\n    tag_195:\n      mload(0x40)\n      dup1\n      swap2\n      sub\n      swap1\n      revert\n    tag_194:\n        /* \"@openzeppelin/contracts/access/Ownable.sol\":2237:2265  _transferOwnership(newOwner) */\n      tag_197\n        /* \"@openzeppelin/contracts/access/Ownable.sol\":2256:2264  newOwner */\n      dup2\n        /* \"@openzeppelin/contracts/access/Ownable.sol\":2237:2255  _transferOwnership */\n      tag_161\n        /* \"@openzeppelin/contracts/access/Ownable.sol\":2237:2265  _transferOwnership(newOwner) */\n      jump\t// in\n    tag_197:\n        /* \"@openzeppelin/contracts/access/Ownable.sol\":2074:2272  function transferOwnership(address newOwner) public virtual onlyOwner {... */\n      pop\n      jump\t// out\n        /* \"@opengsn/contracts/src/BasePaymaster.sol\":1132:1191  uint256 constant public PRE_RELAYED_CALL_GAS_LIMIT = 100000 */\n    tag_121:\n        /* \"@opengsn/contracts/src/BasePaymaster.sol\":1185:1191  100000 */\n      0x0186a0\n        /* \"@opengsn/contracts/src/BasePaymaster.sol\":1132:1191  uint256 constant public PRE_RELAYED_CALL_GAS_LIMIT = 100000 */\n      dup2\n      jump\t// out\n        /* \"@opengsn/contracts/src/BasePaymaster.sol\":2620:2760  function _verifyRelayHubOnly() internal virtual view {... */\n    tag_125:\n        /* \"@opengsn/contracts/src/BasePaymaster.sol\":2705:2718  getRelayHub() */\n      tag_199\n        /* \"@opengsn/contracts/src/BasePaymaster.sol\":2705:2716  getRelayHub */\n      tag_78\n        /* \"@opengsn/contracts/src/BasePaymaster.sol\":2705:2718  getRelayHub() */\n      jump\t// in\n    tag_199:\n        /* \"@opengsn/contracts/src/BasePaymaster.sol\":2691:2718  msg.sender == getRelayHub() */\n      0xffffffffffffffffffffffffffffffffffffffff\n      and\n        /* \"@opengsn/contracts/src/BasePaymaster.sol\":2691:2701  msg.sender */\n      caller\n        /* \"@opengsn/contracts/src/BasePaymaster.sol\":2691:2718  msg.sender == getRelayHub() */\n      0xffffffffffffffffffffffffffffffffffffffff\n      and\n      eq\n        /* \"@opengsn/contracts/src/BasePaymaster.sol\":2683:2753  require(msg.sender == getRelayHub(), \"can only be called by RelayHub\") */\n      tag_200\n      jumpi\n      mload(0x40)\n      0x08c379a000000000000000000000000000000000000000000000000000000000\n      dup2\n      mstore\n      0x04\n      add\n      tag_201\n      swap1\n      tag_202\n      jump\t// in\n    tag_201:\n      mload(0x40)\n      dup1\n      swap2\n      sub\n      swap1\n      revert\n    tag_200:\n        /* \"@opengsn/contracts/src/BasePaymaster.sol\":2620:2760  function _verifyRelayHubOnly() internal virtual view {... */\n      jump\t// out\n        /* \"@opengsn/contracts/src/BasePaymaster.sol\":2331:2614  function _verifyForwarder(GsnTypes.RelayRequest calldata relayRequest)... */\n    tag_127:\n        /* \"@opengsn/contracts/src/BasePaymaster.sol\":2483:2495  relayRequest */\n      dup1\n        /* \"@opengsn/contracts/src/BasePaymaster.sol\":2483:2505  relayRequest.relayData */\n      dup1\n      0x20\n      add\n      swap1\n      tag_204\n      swap2\n      swap1\n      tag_205\n      jump\t// in\n    tag_204:\n        /* \"@opengsn/contracts/src/BasePaymaster.sol\":2483:2515  relayRequest.relayData.forwarder */\n      0xa0\n      add\n      0x20\n      dup2\n      add\n      swap1\n      tag_206\n      swap2\n      swap1\n      tag_109\n      jump\t// in\n    tag_206:\n        /* \"@opengsn/contracts/src/BasePaymaster.sol\":2458:2515  getTrustedForwarder() == relayRequest.relayData.forwarder */\n      0xffffffffffffffffffffffffffffffffffffffff\n      and\n        /* \"@opengsn/contracts/src/BasePaymaster.sol\":2458:2479  getTrustedForwarder() */\n      tag_207\n        /* \"@opengsn/contracts/src/BasePaymaster.sol\":2458:2477  getTrustedForwarder */\n      tag_104\n        /* \"@opengsn/contracts/src/BasePaymaster.sol\":2458:2479  getTrustedForwarder() */\n      jump\t// in\n    tag_207:\n        /* \"@opengsn/contracts/src/BasePaymaster.sol\":2458:2515  getTrustedForwarder() == relayRequest.relayData.forwarder */\n      0xffffffffffffffffffffffffffffffffffffffff\n      and\n      eq\n        /* \"@opengsn/contracts/src/BasePaymaster.sol\":2450:2544  require(getTrustedForwarder() == relayRequest.relayData.forwarder, \"Forwarder is not trusted\") */\n      tag_208\n      jumpi\n      mload(0x40)\n      0x08c379a000000000000000000000000000000000000000000000000000000000\n      dup2\n      mstore\n      0x04\n      add\n      tag_209\n      swap1\n      tag_210\n      jump\t// in\n    tag_209:\n      mload(0x40)\n      dup1\n      swap2\n      sub\n      swap1\n      revert\n    tag_208:\n        /* \"@opengsn/contracts/src/BasePaymaster.sol\":2554:2607  GsnEip712Library.verifyForwarderTrusted(relayRequest) */\n      tag_211\n        /* \"@opengsn/contracts/src/BasePaymaster.sol\":2594:2606  relayRequest */\n      dup2\n        /* \"@opengsn/contracts/src/BasePaymaster.sol\":2554:2593  GsnEip712Library.verifyForwarderTrusted */\n      tag_212\n        /* \"@opengsn/contracts/src/BasePaymaster.sol\":2554:2607  GsnEip712Library.verifyForwarderTrusted(relayRequest) */\n      jump\t// in\n    tag_211:\n        /* \"@opengsn/contracts/src/BasePaymaster.sol\":2331:2614  function _verifyForwarder(GsnTypes.RelayRequest calldata relayRequest)... */\n      pop\n      jump\t// out\n        /* \"@opengsn/contracts/src/BasePaymaster.sol\":2766:2943  function _verifyValue(GsnTypes.RelayRequest calldata relayRequest) internal virtual view{... */\n    tag_129:\n        /* \"@opengsn/contracts/src/BasePaymaster.sol\":2902:2903  0 */\n      0x00\n        /* \"@opengsn/contracts/src/BasePaymaster.sol\":2872:2884  relayRequest */\n      dup2\n        /* \"@opengsn/contracts/src/BasePaymaster.sol\":2872:2892  relayRequest.request */\n      dup1\n      0x00\n      add\n      swap1\n      tag_214\n      swap2\n      swap1\n      tag_215\n      jump\t// in\n    tag_214:\n        /* \"@opengsn/contracts/src/BasePaymaster.sol\":2872:2898  relayRequest.request.value */\n      0x40\n      add\n      calldataload\n        /* \"@opengsn/contracts/src/BasePaymaster.sol\":2872:2903  relayRequest.request.value == 0 */\n      eq\n        /* \"@opengsn/contracts/src/BasePaymaster.sol\":2864:2936  require(relayRequest.request.value == 0, \"value transfer not supported\") */\n      tag_216\n      jumpi\n      mload(0x40)\n      0x08c379a000000000000000000000000000000000000000000000000000000000\n      dup2\n      mstore\n      0x04\n      add\n      tag_217\n      swap1\n      tag_218\n      jump\t// in\n    tag_217:\n      mload(0x40)\n      dup1\n      swap2\n      sub\n      swap1\n      revert\n    tag_216:\n        /* \"@opengsn/contracts/src/BasePaymaster.sol\":2766:2943  function _verifyValue(GsnTypes.RelayRequest calldata relayRequest) internal virtual view{... */\n      pop\n      jump\t// out\n        /* \"@opengsn/contracts/src/BasePaymaster.sol\":2949:3152  function _verifyPaymasterData(GsnTypes.RelayRequest calldata relayRequest) internal virtual view {... */\n    tag_131:\n        /* \"@opengsn/contracts/src/BasePaymaster.sol\":3111:3112  0 */\n      0x00\n        /* \"@opengsn/contracts/src/BasePaymaster.sol\":3064:3076  relayRequest */\n      dup2\n        /* \"@opengsn/contracts/src/BasePaymaster.sol\":3064:3086  relayRequest.relayData */\n      dup1\n      0x20\n      add\n      swap1\n      tag_220\n      swap2\n      swap1\n      tag_205\n      jump\t// in\n    tag_220:\n        /* \"@opengsn/contracts/src/BasePaymaster.sol\":3064:3100  relayRequest.relayData.paymasterData */\n      dup1\n      0xc0\n      add\n      swap1\n      tag_221\n      swap2\n      swap1\n      tag_222\n      jump\t// in\n    tag_221:\n        /* \"@opengsn/contracts/src/BasePaymaster.sol\":3064:3107  relayRequest.relayData.paymasterData.length */\n      swap1\n      pop\n        /* \"@opengsn/contracts/src/BasePaymaster.sol\":3064:3112  relayRequest.relayData.paymasterData.length == 0 */\n      eq\n        /* \"@opengsn/contracts/src/BasePaymaster.sol\":3056:3145  require(relayRequest.relayData.paymasterData.length == 0, \"should have no paymasterData\") */\n      tag_223\n      jumpi\n      mload(0x40)\n      0x08c379a000000000000000000000000000000000000000000000000000000000\n      dup2\n      mstore\n      0x04\n      add\n      tag_224\n      swap1\n      tag_225\n      jump\t// in\n    tag_224:\n      mload(0x40)\n      dup1\n      swap2\n      sub\n      swap1\n      revert\n    tag_223:\n        /* \"@opengsn/contracts/src/BasePaymaster.sol\":2949:3152  function _verifyPaymasterData(GsnTypes.RelayRequest calldata relayRequest) internal virtual view {... */\n      pop\n      jump\t// out\n        /* \"@opengsn/contracts/src/BasePaymaster.sol\":3158:3318  function _verifyApprovalData(bytes calldata approvalData) internal virtual view{... */\n    tag_133:\n        /* \"@opengsn/contracts/src/BasePaymaster.sol\":3278:3279  0 */\n      0x00\n        /* \"@opengsn/contracts/src/BasePaymaster.sol\":3255:3267  approvalData */\n      dup3\n      dup3\n        /* \"@opengsn/contracts/src/BasePaymaster.sol\":3255:3274  approvalData.length */\n      swap1\n      pop\n        /* \"@opengsn/contracts/src/BasePaymaster.sol\":3255:3279  approvalData.length == 0 */\n      eq\n        /* \"@opengsn/contracts/src/BasePaymaster.sol\":3247:3311  require(approvalData.length == 0, \"should have no approvalData\") */\n      tag_227\n      jumpi\n      mload(0x40)\n      0x08c379a000000000000000000000000000000000000000000000000000000000\n      dup2\n      mstore\n      0x04\n      add\n      tag_228\n      swap1\n      tag_229\n      jump\t// in\n    tag_228:\n      mload(0x40)\n      dup1\n      swap2\n      sub\n      swap1\n      revert\n    tag_227:\n        /* \"@opengsn/contracts/src/BasePaymaster.sol\":3158:3318  function _verifyApprovalData(bytes calldata approvalData) internal virtual view{... */\n      pop\n      pop\n      jump\t// out\n        /* \"testEverythingPaymaster.sol\":585:987  function _preRelayedCall(\r... */\n    tag_135:\n        /* \"testEverythingPaymaster.sol\":832:852  bytes memory context */\n      0x60\n        /* \"testEverythingPaymaster.sol\":854:882  bool revertOnRecipientRevert */\n      0x00\n        /* \"testEverythingPaymaster.sol\":973:978  false */\n      dup1\n        /* \"testEverythingPaymaster.sol\":961:979  return (\"\", false) */\n      mload(0x40)\n      dup1\n      0x20\n      add\n      0x40\n      mstore\n      dup1\n      0x00\n      dup2\n      mstore\n      pop\n      swap1\n      swap2\n      pop\n      swap2\n      pop\n        /* \"testEverythingPaymaster.sol\":585:987  function _preRelayedCall(\r... */\n      swap7\n      pop\n      swap7\n      swap5\n      pop\n      pop\n      pop\n      pop\n      pop\n      jump\t// out\n        /* \"@openzeppelin/contracts/utils/introspection/ERC165.sol\":829:984  function supportsInterface(bytes4 interfaceId) public view virtual override returns (bool) {... */\n    tag_140:\n        /* \"@openzeppelin/contracts/utils/introspection/ERC165.sol\":914:918  bool */\n      0x00\n        /* \"@openzeppelin/contracts/utils/introspection/ERC165.sol\":952:977  type(IERC165).interfaceId */\n      0x01ffc9a700000000000000000000000000000000000000000000000000000000\n        /* \"@openzeppelin/contracts/utils/introspection/ERC165.sol\":937:977  interfaceId == type(IERC165).interfaceId */\n      not(0xffffffffffffffffffffffffffffffffffffffffffffffffffffffff)\n      and\n        /* \"@openzeppelin/contracts/utils/introspection/ERC165.sol\":937:948  interfaceId */\n      dup3\n        /* \"@openzeppelin/contracts/utils/introspection/ERC165.sol\":937:977  interfaceId == type(IERC165).interfaceId */\n      not(0xffffffffffffffffffffffffffffffffffffffffffffffffffffffff)\n      and\n      eq\n        /* \"@openzeppelin/contracts/utils/introspection/ERC165.sol\":930:977  return interfaceId == type(IERC165).interfaceId */\n      swap1\n      pop\n        /* \"@openzeppelin/contracts/utils/introspection/ERC165.sol\":829:984  function supportsInterface(bytes4 interfaceId) public view virtual override returns (bool) {... */\n      swap2\n      swap1\n      pop\n      jump\t// out\n        /* \"@openzeppelin/contracts/access/Ownable.sol\":1359:1489  function _checkOwner() internal view virtual {... */\n    tag_150:\n        /* \"@openzeppelin/contracts/access/Ownable.sol\":1433:1445  _msgSender() */\n      tag_233\n        /* \"@openzeppelin/contracts/access/Ownable.sol\":1433:1443  _msgSender */\n      tag_234\n        /* \"@openzeppelin/contracts/access/Ownable.sol\":1433:1445  _msgSender() */\n      jump\t// in\n    tag_233:\n        /* \"@openzeppelin/contracts/access/Ownable.sol\":1422:1445  owner() == _msgSender() */\n      0xffffffffffffffffffffffffffffffffffffffff\n      and\n        /* \"@openzeppelin/contracts/access/Ownable.sol\":1422:1429  owner() */\n      tag_235\n        /* \"@openzeppelin/contracts/access/Ownable.sol\":1422:1427  owner */\n      tag_82\n        /* \"@openzeppelin/contracts/access/Ownable.sol\":1422:1429  owner() */\n      jump\t// in\n    tag_235:\n        /* \"@openzeppelin/contracts/access/Ownable.sol\":1422:1445  owner() == _msgSender() */\n      0xffffffffffffffffffffffffffffffffffffffff\n      and\n      eq\n        /* \"@openzeppelin/contracts/access/Ownable.sol\":1414:1482  require(owner() == _msgSender(), \"Ownable: caller is not the owner\") */\n      tag_236\n      jumpi\n      mload(0x40)\n      0x08c379a000000000000000000000000000000000000000000000000000000000\n      dup2\n      mstore\n      0x04\n      add\n      tag_237\n      swap1\n      tag_238\n      jump\t// in\n    tag_237:\n      mload(0x40)\n      dup1\n      swap2\n      sub\n      swap1\n      revert\n    tag_236:\n        /* \"@openzeppelin/contracts/access/Ownable.sol\":1359:1489  function _checkOwner() internal view virtual {... */\n      jump\t// out\n        /* \"@openzeppelin/contracts/access/Ownable.sol\":2426:2613  function _transferOwnership(address newOwner) internal virtual {... */\n    tag_161:\n        /* \"@openzeppelin/contracts/access/Ownable.sol\":2499:2515  address oldOwner */\n      0x00\n        /* \"@openzeppelin/contracts/access/Ownable.sol\":2518:2524  _owner */\n      dup1\n      0x00\n      swap1\n      sload\n      swap1\n      0x0100\n      exp\n      swap1\n      div\n      0xffffffffffffffffffffffffffffffffffffffff\n      and\n        /* \"@openzeppelin/contracts/access/Ownable.sol\":2499:2524  address oldOwner = _owner */\n      swap1\n      pop\n        /* \"@openzeppelin/contracts/access/Ownable.sol\":2543:2551  newOwner */\n      dup2\n        /* \"@openzeppelin/contracts/access/Ownable.sol\":2534:2540  _owner */\n      0x00\n      dup1\n        /* \"@openzeppelin/contracts/access/Ownable.sol\":2534:2551  _owner = newOwner */\n      0x0100\n      exp\n      dup2\n      sload\n      dup2\n      0xffffffffffffffffffffffffffffffffffffffff\n      mul\n      not\n      and\n      swap1\n      dup4\n      0xffffffffffffffffffffffffffffffffffffffff\n      and\n      mul\n      or\n      swap1\n      sstore\n      pop\n        /* \"@openzeppelin/contracts/access/Ownable.sol\":2597:2605  newOwner */\n      dup2\n        /* \"@openzeppelin/contracts/access/Ownable.sol\":2566:2606  OwnershipTransferred(oldOwner, newOwner) */\n      0xffffffffffffffffffffffffffffffffffffffff\n      and\n        /* \"@openzeppelin/contracts/access/Ownable.sol\":2587:2595  oldOwner */\n      dup2\n        /* \"@openzeppelin/contracts/access/Ownable.sol\":2566:2606  OwnershipTransferred(oldOwner, newOwner) */\n      0xffffffffffffffffffffffffffffffffffffffff\n      and\n      0x8be0079c531659141344cd1fd0a4f28419497f9722a3daafe3b4186f6b6457e0\n      mload(0x40)\n      mload(0x40)\n      dup1\n      swap2\n      sub\n      swap1\n      log3\n        /* \"@openzeppelin/contracts/access/Ownable.sol\":2489:2613  {... */\n      pop\n        /* \"@openzeppelin/contracts/access/Ownable.sol\":2426:2613  function _transferOwnership(address newOwner) internal virtual {... */\n      pop\n      jump\t// out\n        /* \"testEverythingPaymaster.sol\":995:1276  function _postRelayedCall(\r... */\n    tag_165:\n      pop\n      pop\n      pop\n      pop\n      pop\n      jump\t// out\n        /* \"@openzeppelin/contracts/utils/introspection/ERC165Checker.sol\":1349:1631  function supportsInterface(address account, bytes4 interfaceId) internal view returns (bool) {... */\n    tag_170:\n        /* \"@openzeppelin/contracts/utils/introspection/ERC165Checker.sol\":1436:1440  bool */\n      0x00\n        /* \"@openzeppelin/contracts/utils/introspection/ERC165Checker.sol\":1543:1566  supportsERC165(account) */\n      tag_242\n        /* \"@openzeppelin/contracts/utils/introspection/ERC165Checker.sol\":1558:1565  account */\n      dup4\n        /* \"@openzeppelin/contracts/utils/introspection/ERC165Checker.sol\":1543:1557  supportsERC165 */\n      tag_243\n        /* \"@openzeppelin/contracts/utils/introspection/ERC165Checker.sol\":1543:1566  supportsERC165(account) */\n      jump\t// in\n    tag_242:\n        /* \"@openzeppelin/contracts/utils/introspection/ERC165Checker.sol\":1543:1624  supportsERC165(account) && supportsERC165InterfaceUnchecked(account, interfaceId) */\n      dup1\n      iszero\n      tag_244\n      jumpi\n      pop\n        /* \"@openzeppelin/contracts/utils/introspection/ERC165Checker.sol\":1570:1624  supportsERC165InterfaceUnchecked(account, interfaceId) */\n      tag_245\n        /* \"@openzeppelin/contracts/utils/introspection/ERC165Checker.sol\":1603:1610  account */\n      dup4\n        /* \"@openzeppelin/contracts/utils/introspection/ERC165Checker.sol\":1612:1623  interfaceId */\n      dup4\n        /* \"@openzeppelin/contracts/utils/introspection/ERC165Checker.sol\":1570:1602  supportsERC165InterfaceUnchecked */\n      tag_246\n        /* \"@openzeppelin/contracts/utils/introspection/ERC165Checker.sol\":1570:1624  supportsERC165InterfaceUnchecked(account, interfaceId) */\n      jump\t// in\n    tag_245:\n        /* \"@openzeppelin/contracts/utils/introspection/ERC165Checker.sol\":1543:1624  supportsERC165(account) && supportsERC165InterfaceUnchecked(account, interfaceId) */\n    tag_244:\n        /* \"@openzeppelin/contracts/utils/introspection/ERC165Checker.sol\":1536:1624  return supportsERC165(account) && supportsERC165InterfaceUnchecked(account, interfaceId) */\n      swap1\n      pop\n        /* \"@openzeppelin/contracts/utils/introspection/ERC165Checker.sol\":1349:1631  function supportsInterface(address account, bytes4 interfaceId) internal view returns (bool) {... */\n      swap3\n      swap2\n      pop\n      pop\n      jump\t// out\n        /* \"@opengsn/contracts/src/utils/GsnEip712Library.sol\":2158:2698  function verifyForwarderTrusted(GsnTypes.RelayRequest calldata relayRequest) internal view {... */\n    tag_212:\n        /* \"@opengsn/contracts/src/utils/GsnEip712Library.sol\":2260:2272  bool success */\n      0x00\n        /* \"@opengsn/contracts/src/utils/GsnEip712Library.sol\":2274:2290  bytes memory ret */\n      dup1\n        /* \"@opengsn/contracts/src/utils/GsnEip712Library.sol\":2294:2306  relayRequest */\n      dup3\n        /* \"@opengsn/contracts/src/utils/GsnEip712Library.sol\":2294:2314  relayRequest.request */\n      dup1\n      0x00\n      add\n      swap1\n      tag_248\n      swap2\n      swap1\n      tag_215\n      jump\t// in\n    tag_248:\n        /* \"@opengsn/contracts/src/utils/GsnEip712Library.sol\":2294:2317  relayRequest.request.to */\n      0x20\n      add\n      0x20\n      dup2\n      add\n      swap1\n      tag_249\n      swap2\n      swap1\n      tag_109\n      jump\t// in\n    tag_249:\n        /* \"@opengsn/contracts/src/utils/GsnEip712Library.sol\":2294:2328  relayRequest.request.to.staticcall */\n      0xffffffffffffffffffffffffffffffffffffffff\n      and\n        /* \"@opengsn/contracts/src/utils/GsnEip712Library.sol\":2382:2427  IERC2771Recipient.isTrustedForwarder.selector */\n      shl(0xe0, 0x572b6c05)\n        /* \"@opengsn/contracts/src/utils/GsnEip712Library.sol\":2429:2441  relayRequest */\n      dup5\n        /* \"@opengsn/contracts/src/utils/GsnEip712Library.sol\":2429:2451  relayRequest.relayData */\n      dup1\n      0x20\n      add\n      swap1\n      tag_250\n      swap2\n      swap1\n      tag_205\n      jump\t// in\n    tag_250:\n        /* \"@opengsn/contracts/src/utils/GsnEip712Library.sol\":2429:2461  relayRequest.relayData.forwarder */\n      0xa0\n      add\n      0x20\n      dup2\n      add\n      swap1\n      tag_251\n      swap2\n      swap1\n      tag_109\n      jump\t// in\n    tag_251:\n        /* \"@opengsn/contracts/src/utils/GsnEip712Library.sol\":2342:2475  abi.encodeWithSelector(... */\n      add(0x24, mload(0x40))\n      tag_252\n      swap2\n      swap1\n      tag_31\n      jump\t// in\n    tag_252:\n      mload(0x40)\n      0x20\n      dup2\n      dup4\n      sub\n      sub\n      dup2\n      mstore\n      swap1\n      0x40\n      mstore\n      swap1\n      not(0xffffffffffffffffffffffffffffffffffffffffffffffffffffffff)\n      and\n      0x20\n      dup3\n      add\n      dup1\n      mload\n      0xffffffffffffffffffffffffffffffffffffffffffffffffffffffff\n      dup4\n      dup2\n      dup4\n      and\n      or\n      dup4\n      mstore\n      pop\n      pop\n      pop\n      pop\n        /* \"@opengsn/contracts/src/utils/GsnEip712Library.sol\":2294:2485  relayRequest.request.to.staticcall(... */\n      mload(0x40)\n      tag_253\n      swap2\n      swap1\n      tag_254\n      jump\t// in\n    tag_253:\n      0x00\n      mload(0x40)\n      dup1\n      dup4\n      sub\n      dup2\n      dup6\n      gas\n      staticcall\n      swap2\n      pop\n      pop\n      returndatasize\n      dup1\n      0x00\n      dup2\n      eq\n      tag_257\n      jumpi\n      mload(0x40)\n      swap2\n      pop\n      and(add(returndatasize, 0x3f), not(0x1f))\n      dup3\n      add\n      0x40\n      mstore\n      returndatasize\n      dup3\n      mstore\n      returndatasize\n      0x00\n      0x20\n      dup5\n      add\n      returndatacopy\n      jump(tag_256)\n    tag_257:\n      0x60\n      swap2\n      pop\n    tag_256:\n      pop\n        /* \"@opengsn/contracts/src/utils/GsnEip712Library.sol\":2259:2485  (bool success, bytes memory ret) = relayRequest.request.to.staticcall(... */\n      swap2\n      pop\n      swap2\n      pop\n        /* \"@opengsn/contracts/src/utils/GsnEip712Library.sol\":2503:2510  success */\n      dup2\n        /* \"@opengsn/contracts/src/utils/GsnEip712Library.sol\":2495:2543  require(success, \"isTrustedForwarder: reverted\") */\n      tag_258\n      jumpi\n      mload(0x40)\n      0x08c379a000000000000000000000000000000000000000000000000000000000\n      dup2\n      mstore\n      0x04\n      add\n      tag_259\n      swap1\n      tag_260\n      jump\t// in\n    tag_259:\n      mload(0x40)\n      dup1\n      swap2\n      sub\n      swap1\n      revert\n    tag_258:\n        /* \"@opengsn/contracts/src/utils/GsnEip712Library.sol\":2575:2577  32 */\n      0x20\n        /* \"@opengsn/contracts/src/utils/GsnEip712Library.sol\":2561:2564  ret */\n      dup2\n        /* \"@opengsn/contracts/src/utils/GsnEip712Library.sol\":2561:2571  ret.length */\n      mload\n        /* \"@opengsn/contracts/src/utils/GsnEip712Library.sol\":2561:2577  ret.length == 32 */\n      eq\n        /* \"@opengsn/contracts/src/utils/GsnEip712Library.sol\":2553:2614  require(ret.length == 32, \"isTrustedForwarder: bad response\") */\n      tag_261\n      jumpi\n      mload(0x40)\n      0x08c379a000000000000000000000000000000000000000000000000000000000\n      dup2\n      mstore\n      0x04\n      add\n      tag_262\n      swap1\n      tag_263\n      jump\t// in\n    tag_262:\n      mload(0x40)\n      dup1\n      swap2\n      sub\n      swap1\n      revert\n    tag_261:\n        /* \"@opengsn/contracts/src/utils/GsnEip712Library.sol\":2643:2646  ret */\n      dup1\n        /* \"@opengsn/contracts/src/utils/GsnEip712Library.sol\":2632:2655  abi.decode(ret, (bool)) */\n      dup1\n      0x20\n      add\n      swap1\n      mload\n      dup2\n      add\n      swap1\n      tag_264\n      swap2\n      swap1\n      tag_265\n      jump\t// in\n    tag_264:\n        /* \"@opengsn/contracts/src/utils/GsnEip712Library.sol\":2624:2691  require(abi.decode(ret, (bool)), \"invalid forwarder for recipient\") */\n      tag_266\n      jumpi\n      mload(0x40)\n      0x08c379a000000000000000000000000000000000000000000000000000000000\n      dup2\n      mstore\n      0x04\n      add\n      tag_267\n      swap1\n      tag_268\n      jump\t// in\n    tag_267:\n      mload(0x40)\n      dup1\n      swap2\n      sub\n      swap1\n      revert\n    tag_266:\n        /* \"@opengsn/contracts/src/utils/GsnEip712Library.sol\":2249:2698  {... */\n      pop\n      pop\n        /* \"@opengsn/contracts/src/utils/GsnEip712Library.sol\":2158:2698  function verifyForwarderTrusted(GsnTypes.RelayRequest calldata relayRequest) internal view {... */\n      pop\n      jump\t// out\n        /* \"@openzeppelin/contracts/utils/Context.sol\":640:736  function _msgSender() internal view virtual returns (address) {... */\n    tag_234:\n        /* \"@openzeppelin/contracts/utils/Context.sol\":693:700  address */\n      0x00\n        /* \"@openzeppelin/contracts/utils/Context.sol\":719:729  msg.sender */\n      caller\n        /* \"@openzeppelin/contracts/utils/Context.sol\":712:729  return msg.sender */\n      swap1\n      pop\n        /* \"@openzeppelin/contracts/utils/Context.sol\":640:736  function _msgSender() internal view virtual returns (address) {... */\n      swap1\n      jump\t// out\n        /* \"@openzeppelin/contracts/utils/introspection/ERC165Checker.sol\":704:1131  function supportsERC165(address account) internal view returns (bool) {... */\n    tag_243:\n        /* \"@openzeppelin/contracts/utils/introspection/ERC165Checker.sol\":768:772  bool */\n      0x00\n        /* \"@openzeppelin/contracts/utils/introspection/ERC165Checker.sol\":975:1043  supportsERC165InterfaceUnchecked(account, type(IERC165).interfaceId) */\n      tag_271\n        /* \"@openzeppelin/contracts/utils/introspection/ERC165Checker.sol\":1008:1015  account */\n      dup3\n        /* \"@openzeppelin/contracts/utils/introspection/ERC165Checker.sol\":1017:1042  type(IERC165).interfaceId */\n      0x01ffc9a700000000000000000000000000000000000000000000000000000000\n        /* \"@openzeppelin/contracts/utils/introspection/ERC165Checker.sol\":975:1007  supportsERC165InterfaceUnchecked */\n      tag_246\n        /* \"@openzeppelin/contracts/utils/introspection/ERC165Checker.sol\":975:1043  supportsERC165InterfaceUnchecked(account, type(IERC165).interfaceId) */\n      jump\t// in\n    tag_271:\n        /* \"@openzeppelin/contracts/utils/introspection/ERC165Checker.sol\":975:1124  supportsERC165InterfaceUnchecked(account, type(IERC165).interfaceId) &&... */\n      dup1\n      iszero\n      tag_272\n      jumpi\n      pop\n        /* \"@openzeppelin/contracts/utils/introspection/ERC165Checker.sol\":1060:1124  supportsERC165InterfaceUnchecked(account, _INTERFACE_ID_INVALID) */\n      tag_273\n        /* \"@openzeppelin/contracts/utils/introspection/ERC165Checker.sol\":1093:1100  account */\n      dup3\n        /* \"@openzeppelin/contracts/utils/introspection/ERC165Checker.sol\":599:609  0xffffffff */\n      0xffffffff\n        /* \"@openzeppelin/contracts/utils/introspection/ERC165Checker.sol\":1102:1123  _INTERFACE_ID_INVALID */\n      0xe0\n      shl\n        /* \"@openzeppelin/contracts/utils/introspection/ERC165Checker.sol\":1060:1092  supportsERC165InterfaceUnchecked */\n      tag_246\n        /* \"@openzeppelin/contracts/utils/introspection/ERC165Checker.sol\":1060:1124  supportsERC165InterfaceUnchecked(account, _INTERFACE_ID_INVALID) */\n      jump\t// in\n    tag_273:\n        /* \"@openzeppelin/contracts/utils/introspection/ERC165Checker.sol\":1059:1124  !supportsERC165InterfaceUnchecked(account, _INTERFACE_ID_INVALID) */\n      iszero\n        /* \"@openzeppelin/contracts/utils/introspection/ERC165Checker.sol\":975:1124  supportsERC165InterfaceUnchecked(account, type(IERC165).interfaceId) &&... */\n    tag_272:\n        /* \"@openzeppelin/contracts/utils/introspection/ERC165Checker.sol\":956:1124  return... */\n      swap1\n      pop\n        /* \"@openzeppelin/contracts/utils/introspection/ERC165Checker.sol\":704:1131  function supportsERC165(address account) internal view returns (bool) {... */\n      swap2\n      swap1\n      pop\n      jump\t// out\n        /* \"@openzeppelin/contracts/utils/introspection/ERC165Checker.sol\":4421:5068  function supportsERC165InterfaceUnchecked(address account, bytes4 interfaceId) internal view returns (bool) {... */\n    tag_246:\n        /* \"@openzeppelin/contracts/utils/introspection/ERC165Checker.sol\":4523:4527  bool */\n      0x00\n        /* \"@openzeppelin/contracts/utils/introspection/ERC165Checker.sol\":4563:4589  bytes memory encodedParams */\n      dup1\n        /* \"@openzeppelin/contracts/utils/introspection/ERC165Checker.sol\":4615:4649  IERC165.supportsInterface.selector */\n      shl(0xe0, 0x01ffc9a7)\n        /* \"@openzeppelin/contracts/utils/introspection/ERC165Checker.sol\":4651:4662  interfaceId */\n      dup4\n        /* \"@openzeppelin/contracts/utils/introspection/ERC165Checker.sol\":4592:4663  abi.encodeWithSelector(IERC165.supportsInterface.selector, interfaceId) */\n      add(0x24, mload(0x40))\n      tag_275\n      swap2\n      swap1\n      tag_276\n      jump\t// in\n    tag_275:\n      mload(0x40)\n      0x20\n      dup2\n      dup4\n      sub\n      sub\n      dup2\n      mstore\n      swap1\n      0x40\n      mstore\n      swap1\n      not(0xffffffffffffffffffffffffffffffffffffffffffffffffffffffff)\n      and\n      0x20\n      dup3\n      add\n      dup1\n      mload\n      0xffffffffffffffffffffffffffffffffffffffffffffffffffffffff\n      dup4\n      dup2\n      dup4\n      and\n      or\n      dup4\n      mstore\n      pop\n      pop\n      pop\n      pop\n        /* \"@openzeppelin/contracts/utils/introspection/ERC165Checker.sol\":4563:4663  bytes memory encodedParams = abi.encodeWithSelector(IERC165.supportsInterface.selector, interfaceId) */\n      swap1\n      pop\n        /* \"@openzeppelin/contracts/utils/introspection/ERC165Checker.sol\":4705:4717  bool success */\n      0x00\n        /* \"@openzeppelin/contracts/utils/introspection/ERC165Checker.sol\":4727:4745  uint256 returnSize */\n      dup1\n        /* \"@openzeppelin/contracts/utils/introspection/ERC165Checker.sol\":4755:4774  uint256 returnValue */\n      0x00\n        /* \"@openzeppelin/contracts/utils/introspection/ERC165Checker.sol\":4899:4903  0x20 */\n      0x20\n        /* \"@openzeppelin/contracts/utils/introspection/ERC165Checker.sol\":4893:4897  0x00 */\n      0x00\n        /* \"@openzeppelin/contracts/utils/introspection/ERC165Checker.sol\":4877:4890  encodedParams */\n      dup6\n        /* \"@openzeppelin/contracts/utils/introspection/ERC165Checker.sol\":4871:4891  mload(encodedParams) */\n      mload\n        /* \"@openzeppelin/contracts/utils/introspection/ERC165Checker.sol\":4864:4868  0x20 */\n      0x20\n        /* \"@openzeppelin/contracts/utils/introspection/ERC165Checker.sol\":4849:4862  encodedParams */\n      dup8\n        /* \"@openzeppelin/contracts/utils/introspection/ERC165Checker.sol\":4845:4869  add(encodedParams, 0x20) */\n      add\n        /* \"@openzeppelin/contracts/utils/introspection/ERC165Checker.sol\":4836:4843  account */\n      dup11\n        /* \"@openzeppelin/contracts/utils/introspection/ERC165Checker.sol\":4829:4834  30000 */\n      0x7530\n        /* \"@openzeppelin/contracts/utils/introspection/ERC165Checker.sol\":4818:4904  staticcall(30000, account, add(encodedParams, 0x20), mload(encodedParams), 0x00, 0x20) */\n      staticcall\n        /* \"@openzeppelin/contracts/utils/introspection/ERC165Checker.sol\":4807:4904  success := staticcall(30000, account, add(encodedParams, 0x20), mload(encodedParams), 0x00, 0x20) */\n      swap3\n      pop\n        /* \"@openzeppelin/contracts/utils/introspection/ERC165Checker.sol\":4931:4947  returndatasize() */\n      returndatasize\n        /* \"@openzeppelin/contracts/utils/introspection/ERC165Checker.sol\":4917:4947  returnSize := returndatasize() */\n      swap2\n      pop\n        /* \"@openzeppelin/contracts/utils/introspection/ERC165Checker.sol\":4981:4985  0x00 */\n      0x00\n        /* \"@openzeppelin/contracts/utils/introspection/ERC165Checker.sol\":4975:4986  mload(0x00) */\n      mload\n        /* \"@openzeppelin/contracts/utils/introspection/ERC165Checker.sol\":4960:4986  returnValue := mload(0x00) */\n      swap1\n      pop\n        /* \"@openzeppelin/contracts/utils/introspection/ERC165Checker.sol\":5013:5020  success */\n      dup3\n        /* \"@openzeppelin/contracts/utils/introspection/ERC165Checker.sol\":5013:5042  success && returnSize >= 0x20 */\n      dup1\n      iszero\n      tag_277\n      jumpi\n      pop\n        /* \"@openzeppelin/contracts/utils/introspection/ERC165Checker.sol\":5038:5042  0x20 */\n      0x20\n        /* \"@openzeppelin/contracts/utils/introspection/ERC165Checker.sol\":5024:5034  returnSize */\n      dup3\n        /* \"@openzeppelin/contracts/utils/introspection/ERC165Checker.sol\":5024:5042  returnSize >= 0x20 */\n      lt\n      iszero\n        /* \"@openzeppelin/contracts/utils/introspection/ERC165Checker.sol\":5013:5042  success && returnSize >= 0x20 */\n    tag_277:\n        /* \"@openzeppelin/contracts/utils/introspection/ERC165Checker.sol\":5013:5061  success && returnSize >= 0x20 && returnValue > 0 */\n      dup1\n      iszero\n      tag_278\n      jumpi\n      pop\n        /* \"@openzeppelin/contracts/utils/introspection/ERC165Checker.sol\":5060:5061  0 */\n      0x00\n        /* \"@openzeppelin/contracts/utils/introspection/ERC165Checker.sol\":5046:5057  returnValue */\n      dup2\n        /* \"@openzeppelin/contracts/utils/introspection/ERC165Checker.sol\":5046:5061  returnValue > 0 */\n      gt\n        /* \"@openzeppelin/contracts/utils/introspection/ERC165Checker.sol\":5013:5061  success && returnSize >= 0x20 && returnValue > 0 */\n    tag_278:\n        /* \"@openzeppelin/contracts/utils/introspection/ERC165Checker.sol\":5006:5061  return success && returnSize >= 0x20 && returnValue > 0 */\n      swap5\n      pop\n      pop\n      pop\n      pop\n      pop\n        /* \"@openzeppelin/contracts/utils/introspection/ERC165Checker.sol\":4421:5068  function supportsERC165InterfaceUnchecked(address account, bytes4 interfaceId) internal view returns (bool) {... */\n      swap3\n      swap2\n      pop\n      pop\n      jump\t// out\n    tag_178:\n      mload(0x40)\n      dup1\n      0x80\n      add\n      0x40\n      mstore\n      dup1\n      0x00\n      dup2\n      mstore\n      0x20\n      add\n      0x00\n      dup2\n      mstore\n      0x20\n      add\n      0x00\n      dup2\n      mstore\n      0x20\n      add\n      0x00\n      dup2\n      mstore\n      pop\n      swap1\n      jump\t// out\n        /* \"#utility.yul\":7:146   */\n    tag_280:\n        /* \"#utility.yul\":53:58   */\n      0x00\n        /* \"#utility.yul\":91:97   */\n      dup2\n        /* \"#utility.yul\":78:98   */\n      calldataload\n        /* \"#utility.yul\":69:98   */\n      swap1\n      pop\n        /* \"#utility.yul\":107:140   */\n      tag_282\n        /* \"#utility.yul\":134:139   */\n      dup2\n        /* \"#utility.yul\":107:140   */\n      tag_283\n      jump\t// in\n    tag_282:\n        /* \"#utility.yul\":7:146   */\n      swap3\n      swap2\n      pop\n      pop\n      jump\t// out\n        /* \"#utility.yul\":152:307   */\n    tag_284:\n        /* \"#utility.yul\":206:211   */\n      0x00\n        /* \"#utility.yul\":244:250   */\n      dup2\n        /* \"#utility.yul\":231:251   */\n      calldataload\n        /* \"#utility.yul\":222:251   */\n      swap1\n      pop\n        /* \"#utility.yul\":260:301   */\n      tag_286\n        /* \"#utility.yul\":295:300   */\n      dup2\n        /* \"#utility.yul\":260:301   */\n      tag_287\n      jump\t// in\n    tag_286:\n        /* \"#utility.yul\":152:307   */\n      swap3\n      swap2\n      pop\n      pop\n      jump\t// out\n        /* \"#utility.yul\":313:446   */\n    tag_288:\n        /* \"#utility.yul\":356:361   */\n      0x00\n        /* \"#utility.yul\":394:400   */\n      dup2\n        /* \"#utility.yul\":381:401   */\n      calldataload\n        /* \"#utility.yul\":372:401   */\n      swap1\n      pop\n        /* \"#utility.yul\":410:440   */\n      tag_290\n        /* \"#utility.yul\":434:439   */\n      dup2\n        /* \"#utility.yul\":410:440   */\n      tag_291\n      jump\t// in\n    tag_290:\n        /* \"#utility.yul\":313:446   */\n      swap3\n      swap2\n      pop\n      pop\n      jump\t// out\n        /* \"#utility.yul\":452:589   */\n    tag_292:\n        /* \"#utility.yul\":506:511   */\n      0x00\n        /* \"#utility.yul\":537:543   */\n      dup2\n        /* \"#utility.yul\":531:544   */\n      mload\n        /* \"#utility.yul\":522:544   */\n      swap1\n      pop\n        /* \"#utility.yul\":553:583   */\n      tag_294\n        /* \"#utility.yul\":577:582   */\n      dup2\n        /* \"#utility.yul\":553:583   */\n      tag_291\n      jump\t// in\n    tag_294:\n        /* \"#utility.yul\":452:589   */\n      swap3\n      swap2\n      pop\n      pop\n      jump\t// out\n        /* \"#utility.yul\":595:732   */\n    tag_295:\n        /* \"#utility.yul\":640:645   */\n      0x00\n        /* \"#utility.yul\":678:684   */\n      dup2\n        /* \"#utility.yul\":665:685   */\n      calldataload\n        /* \"#utility.yul\":656:685   */\n      swap1\n      pop\n        /* \"#utility.yul\":694:726   */\n      tag_297\n        /* \"#utility.yul\":720:725   */\n      dup2\n        /* \"#utility.yul\":694:726   */\n      tag_298\n      jump\t// in\n    tag_297:\n        /* \"#utility.yul\":595:732   */\n      swap3\n      swap2\n      pop\n      pop\n      jump\t// out\n        /* \"#utility.yul\":751:1303   */\n    tag_299:\n        /* \"#utility.yul\":808:816   */\n      0x00\n        /* \"#utility.yul\":818:824   */\n      dup1\n        /* \"#utility.yul\":868:871   */\n      dup4\n        /* \"#utility.yul\":861:865   */\n      0x1f\n        /* \"#utility.yul\":853:859   */\n      dup5\n        /* \"#utility.yul\":849:866   */\n      add\n        /* \"#utility.yul\":845:872   */\n      slt\n        /* \"#utility.yul\":835:957   */\n      tag_301\n      jumpi\n        /* \"#utility.yul\":876:955   */\n      tag_302\n      tag_303\n      jump\t// in\n    tag_302:\n        /* \"#utility.yul\":835:957   */\n    tag_301:\n        /* \"#utility.yul\":989:995   */\n      dup3\n        /* \"#utility.yul\":976:996   */\n      calldataload\n        /* \"#utility.yul\":966:996   */\n      swap1\n      pop\n        /* \"#utility.yul\":1019:1037   */\n      0xffffffffffffffff\n        /* \"#utility.yul\":1011:1017   */\n      dup2\n        /* \"#utility.yul\":1008:1038   */\n      gt\n        /* \"#utility.yul\":1005:1122   */\n      iszero\n      tag_304\n      jumpi\n        /* \"#utility.yul\":1041:1120   */\n      tag_305\n      tag_306\n      jump\t// in\n    tag_305:\n        /* \"#utility.yul\":1005:1122   */\n    tag_304:\n        /* \"#utility.yul\":1155:1159   */\n      0x20\n        /* \"#utility.yul\":1147:1153   */\n      dup4\n        /* \"#utility.yul\":1143:1160   */\n      add\n        /* \"#utility.yul\":1131:1160   */\n      swap2\n      pop\n        /* \"#utility.yul\":1209:1212   */\n      dup4\n        /* \"#utility.yul\":1201:1205   */\n      0x01\n        /* \"#utility.yul\":1193:1199   */\n      dup3\n        /* \"#utility.yul\":1189:1206   */\n      mul\n        /* \"#utility.yul\":1179:1187   */\n      dup4\n        /* \"#utility.yul\":1175:1207   */\n      add\n        /* \"#utility.yul\":1172:1213   */\n      gt\n        /* \"#utility.yul\":1169:1297   */\n      iszero\n      tag_307\n      jumpi\n        /* \"#utility.yul\":1216:1295   */\n      tag_308\n      tag_309\n      jump\t// in\n    tag_308:\n        /* \"#utility.yul\":1169:1297   */\n    tag_307:\n        /* \"#utility.yul\":751:1303   */\n      swap3\n      pop\n      swap3\n      swap1\n      pop\n      jump\t// out\n        /* \"#utility.yul\":1309:1482   */\n    tag_310:\n        /* \"#utility.yul\":1372:1377   */\n      0x00\n        /* \"#utility.yul\":1410:1416   */\n      dup2\n        /* \"#utility.yul\":1397:1417   */\n      calldataload\n        /* \"#utility.yul\":1388:1417   */\n      swap1\n      pop\n        /* \"#utility.yul\":1426:1476   */\n      tag_312\n        /* \"#utility.yul\":1470:1475   */\n      dup2\n        /* \"#utility.yul\":1426:1476   */\n      tag_313\n      jump\t// in\n    tag_312:\n        /* \"#utility.yul\":1309:1482   */\n      swap3\n      swap2\n      pop\n      pop\n      jump\t// out\n        /* \"#utility.yul\":1521:1755   */\n    tag_314:\n        /* \"#utility.yul\":1596:1601   */\n      0x00\n        /* \"#utility.yul\":1637:1640   */\n      0x0100\n        /* \"#utility.yul\":1628:1634   */\n      dup3\n        /* \"#utility.yul\":1623:1626   */\n      dup5\n        /* \"#utility.yul\":1619:1635   */\n      sub\n        /* \"#utility.yul\":1615:1641   */\n      slt\n        /* \"#utility.yul\":1612:1725   */\n      iszero\n      tag_316\n      jumpi\n        /* \"#utility.yul\":1644:1723   */\n      tag_317\n      tag_318\n      jump\t// in\n    tag_317:\n        /* \"#utility.yul\":1612:1725   */\n    tag_316:\n        /* \"#utility.yul\":1743:1749   */\n      dup2\n        /* \"#utility.yul\":1734:1749   */\n      swap1\n      pop\n        /* \"#utility.yul\":1521:1755   */\n      swap3\n      swap2\n      pop\n      pop\n      jump\t// out\n        /* \"#utility.yul\":1797:2033   */\n    tag_319:\n        /* \"#utility.yul\":1875:1880   */\n      0x00\n        /* \"#utility.yul\":1916:1918   */\n      0x40\n        /* \"#utility.yul\":1907:1913   */\n      dup3\n        /* \"#utility.yul\":1902:1905   */\n      dup5\n        /* \"#utility.yul\":1898:1914   */\n      sub\n        /* \"#utility.yul\":1894:1919   */\n      slt\n        /* \"#utility.yul\":1891:2003   */\n      iszero\n      tag_321\n      jumpi\n        /* \"#utility.yul\":1922:2001   */\n      tag_322\n      tag_318\n      jump\t// in\n    tag_322:\n        /* \"#utility.yul\":1891:2003   */\n    tag_321:\n        /* \"#utility.yul\":2021:2027   */\n      dup2\n        /* \"#utility.yul\":2012:2027   */\n      swap1\n      pop\n        /* \"#utility.yul\":1797:2033   */\n      swap3\n      swap2\n      pop\n      pop\n      jump\t// out\n        /* \"#utility.yul\":2039:2178   */\n    tag_323:\n        /* \"#utility.yul\":2085:2090   */\n      0x00\n        /* \"#utility.yul\":2123:2129   */\n      dup2\n        /* \"#utility.yul\":2110:2130   */\n      calldataload\n        /* \"#utility.yul\":2101:2130   */\n      swap1\n      pop\n        /* \"#utility.yul\":2139:2172   */\n      tag_325\n        /* \"#utility.yul\":2166:2171   */\n      dup2\n        /* \"#utility.yul\":2139:2172   */\n      tag_326\n      jump\t// in\n    tag_325:\n        /* \"#utility.yul\":2039:2178   */\n      swap3\n      swap2\n      pop\n      pop\n      jump\t// out\n        /* \"#utility.yul\":2184:2327   */\n    tag_327:\n        /* \"#utility.yul\":2241:2246   */\n      0x00\n        /* \"#utility.yul\":2272:2278   */\n      dup2\n        /* \"#utility.yul\":2266:2279   */\n      mload\n        /* \"#utility.yul\":2257:2279   */\n      swap1\n      pop\n        /* \"#utility.yul\":2288:2321   */\n      tag_329\n        /* \"#utility.yul\":2315:2320   */\n      dup2\n        /* \"#utility.yul\":2288:2321   */\n      tag_326\n      jump\t// in\n    tag_329:\n        /* \"#utility.yul\":2184:2327   */\n      swap3\n      swap2\n      pop\n      pop\n      jump\t// out\n        /* \"#utility.yul\":2333:2662   */\n    tag_109:\n        /* \"#utility.yul\":2392:2398   */\n      0x00\n        /* \"#utility.yul\":2441:2443   */\n      0x20\n        /* \"#utility.yul\":2429:2438   */\n      dup3\n        /* \"#utility.yul\":2420:2427   */\n      dup5\n        /* \"#utility.yul\":2416:2439   */\n      sub\n        /* \"#utility.yul\":2412:2444   */\n      slt\n        /* \"#utility.yul\":2409:2528   */\n      iszero\n      tag_331\n      jumpi\n        /* \"#utility.yul\":2447:2526   */\n      tag_332\n      tag_333\n      jump\t// in\n    tag_332:\n        /* \"#utility.yul\":2409:2528   */\n    tag_331:\n        /* \"#utility.yul\":2567:2568   */\n      0x00\n        /* \"#utility.yul\":2592:2645   */\n      tag_334\n        /* \"#utility.yul\":2637:2644   */\n      dup5\n        /* \"#utility.yul\":2628:2634   */\n      dup3\n        /* \"#utility.yul\":2617:2626   */\n      dup6\n        /* \"#utility.yul\":2613:2635   */\n      add\n        /* \"#utility.yul\":2592:2645   */\n      tag_280\n      jump\t// in\n    tag_334:\n        /* \"#utility.yul\":2582:2645   */\n      swap2\n      pop\n        /* \"#utility.yul\":2538:2655   */\n      pop\n        /* \"#utility.yul\":2333:2662   */\n      swap3\n      swap2\n      pop\n      pop\n      jump\t// out\n        /* \"#utility.yul\":2668:3013   */\n    tag_265:\n        /* \"#utility.yul\":2735:2741   */\n      0x00\n        /* \"#utility.yul\":2784:2786   */\n      0x20\n        /* \"#utility.yul\":2772:2781   */\n      dup3\n        /* \"#utility.yul\":2763:2770   */\n      dup5\n        /* \"#utility.yul\":2759:2782   */\n      sub\n        /* \"#utility.yul\":2755:2787   */\n      slt\n        /* \"#utility.yul\":2752:2871   */\n      iszero\n      tag_336\n      jumpi\n        /* \"#utility.yul\":2790:2869   */\n      tag_337\n      tag_333\n      jump\t// in\n    tag_337:\n        /* \"#utility.yul\":2752:2871   */\n    tag_336:\n        /* \"#utility.yul\":2910:2911   */\n      0x00\n        /* \"#utility.yul\":2935:2996   */\n      tag_338\n        /* \"#utility.yul\":2988:2995   */\n      dup5\n        /* \"#utility.yul\":2979:2985   */\n      dup3\n        /* \"#utility.yul\":2968:2977   */\n      dup6\n        /* \"#utility.yul\":2964:2986   */\n      add\n        /* \"#utility.yul\":2935:2996   */\n      tag_292\n      jump\t// in\n    tag_338:\n        /* \"#utility.yul\":2925:2996   */\n      swap2\n      pop\n        /* \"#utility.yul\":2881:3006   */\n      pop\n        /* \"#utility.yul\":2668:3013   */\n      swap3\n      swap2\n      pop\n      pop\n      jump\t// out\n        /* \"#utility.yul\":3019:3346   */\n    tag_45:\n        /* \"#utility.yul\":3077:3083   */\n      0x00\n        /* \"#utility.yul\":3126:3128   */\n      0x20\n        /* \"#utility.yul\":3114:3123   */\n      dup3\n        /* \"#utility.yul\":3105:3112   */\n      dup5\n        /* \"#utility.yul\":3101:3124   */\n      sub\n        /* \"#utility.yul\":3097:3129   */\n      slt\n        /* \"#utility.yul\":3094:3213   */\n      iszero\n      tag_340\n      jumpi\n        /* \"#utility.yul\":3132:3211   */\n      tag_341\n      tag_333\n      jump\t// in\n    tag_341:\n        /* \"#utility.yul\":3094:3213   */\n    tag_340:\n        /* \"#utility.yul\":3252:3253   */\n      0x00\n        /* \"#utility.yul\":3277:3329   */\n      tag_342\n        /* \"#utility.yul\":3321:3328   */\n      dup5\n        /* \"#utility.yul\":3312:3318   */\n      dup3\n        /* \"#utility.yul\":3301:3310   */\n      dup6\n        /* \"#utility.yul\":3297:3319   */\n      add\n        /* \"#utility.yul\":3277:3329   */\n      tag_295\n      jump\t// in\n    tag_342:\n        /* \"#utility.yul\":3267:3329   */\n      swap2\n      pop\n        /* \"#utility.yul\":3223:3339   */\n      pop\n        /* \"#utility.yul\":3019:3346   */\n      swap3\n      swap2\n      pop\n      pop\n      jump\t// out\n        /* \"#utility.yul\":3352:4527   */\n    tag_69:\n        /* \"#utility.yul\":3475:3481   */\n      0x00\n        /* \"#utility.yul\":3483:3489   */\n      dup1\n        /* \"#utility.yul\":3491:3497   */\n      0x00\n        /* \"#utility.yul\":3499:3505   */\n      dup1\n        /* \"#utility.yul\":3507:3513   */\n      0x00\n        /* \"#utility.yul\":3556:3559   */\n      0x80\n        /* \"#utility.yul\":3544:3553   */\n      dup7\n        /* \"#utility.yul\":3535:3542   */\n      dup9\n        /* \"#utility.yul\":3531:3554   */\n      sub\n        /* \"#utility.yul\":3527:3560   */\n      slt\n        /* \"#utility.yul\":3524:3644   */\n      iszero\n      tag_344\n      jumpi\n        /* \"#utility.yul\":3563:3642   */\n      tag_345\n      tag_333\n      jump\t// in\n    tag_345:\n        /* \"#utility.yul\":3524:3644   */\n    tag_344:\n        /* \"#utility.yul\":3711:3712   */\n      0x00\n        /* \"#utility.yul\":3700:3709   */\n      dup7\n        /* \"#utility.yul\":3696:3713   */\n      add\n        /* \"#utility.yul\":3683:3714   */\n      calldataload\n        /* \"#utility.yul\":3741:3759   */\n      0xffffffffffffffff\n        /* \"#utility.yul\":3733:3739   */\n      dup2\n        /* \"#utility.yul\":3730:3760   */\n      gt\n        /* \"#utility.yul\":3727:3844   */\n      iszero\n      tag_346\n      jumpi\n        /* \"#utility.yul\":3763:3842   */\n      tag_347\n      tag_348\n      jump\t// in\n    tag_347:\n        /* \"#utility.yul\":3727:3844   */\n    tag_346:\n        /* \"#utility.yul\":3876:3940   */\n      tag_349\n        /* \"#utility.yul\":3932:3939   */\n      dup9\n        /* \"#utility.yul\":3923:3929   */\n      dup3\n        /* \"#utility.yul\":3912:3921   */\n      dup10\n        /* \"#utility.yul\":3908:3930   */\n      add\n        /* \"#utility.yul\":3876:3940   */\n      tag_299\n      jump\t// in\n    tag_349:\n        /* \"#utility.yul\":3858:3940   */\n      swap6\n      pop\n      swap6\n      pop\n        /* \"#utility.yul\":3654:3950   */\n      pop\n        /* \"#utility.yul\":3989:3991   */\n      0x20\n        /* \"#utility.yul\":4015:4065   */\n      tag_350\n        /* \"#utility.yul\":4057:4064   */\n      dup9\n        /* \"#utility.yul\":4048:4054   */\n      dup3\n        /* \"#utility.yul\":4037:4046   */\n      dup10\n        /* \"#utility.yul\":4033:4055   */\n      add\n        /* \"#utility.yul\":4015:4065   */\n      tag_288\n      jump\t// in\n    tag_350:\n        /* \"#utility.yul\":4005:4065   */\n      swap4\n      pop\n        /* \"#utility.yul\":3960:4075   */\n      pop\n        /* \"#utility.yul\":4114:4116   */\n      0x40\n        /* \"#utility.yul\":4140:4193   */\n      tag_351\n        /* \"#utility.yul\":4185:4192   */\n      dup9\n        /* \"#utility.yul\":4176:4182   */\n      dup3\n        /* \"#utility.yul\":4165:4174   */\n      dup10\n        /* \"#utility.yul\":4161:4183   */\n      add\n        /* \"#utility.yul\":4140:4193   */\n      tag_323\n      jump\t// in\n    tag_351:\n        /* \"#utility.yul\":4130:4193   */\n      swap3\n      pop\n        /* \"#utility.yul\":4085:4203   */\n      pop\n        /* \"#utility.yul\":4270:4272   */\n      0x60\n        /* \"#utility.yul\":4259:4268   */\n      dup7\n        /* \"#utility.yul\":4255:4273   */\n      add\n        /* \"#utility.yul\":4242:4274   */\n      calldataload\n        /* \"#utility.yul\":4301:4319   */\n      0xffffffffffffffff\n        /* \"#utility.yul\":4293:4299   */\n      dup2\n        /* \"#utility.yul\":4290:4320   */\n      gt\n        /* \"#utility.yul\":4287:4404   */\n      iszero\n      tag_352\n      jumpi\n        /* \"#utility.yul\":4323:4402   */\n      tag_353\n      tag_348\n      jump\t// in\n    tag_353:\n        /* \"#utility.yul\":4287:4404   */\n    tag_352:\n        /* \"#utility.yul\":4428:4510   */\n      tag_354\n        /* \"#utility.yul\":4502:4509   */\n      dup9\n        /* \"#utility.yul\":4493:4499   */\n      dup3\n        /* \"#utility.yul\":4482:4491   */\n      dup10\n        /* \"#utility.yul\":4478:4500   */\n      add\n        /* \"#utility.yul\":4428:4510   */\n      tag_314\n      jump\t// in\n    tag_354:\n        /* \"#utility.yul\":4418:4510   */\n      swap2\n      pop\n        /* \"#utility.yul\":4213:4520   */\n      pop\n        /* \"#utility.yul\":3352:4527   */\n      swap3\n      swap6\n      pop\n      swap3\n      swap6\n      swap1\n      swap4\n      pop\n      jump\t// out\n        /* \"#utility.yul\":4533:4896   */\n    tag_74:\n        /* \"#utility.yul\":4609:4615   */\n      0x00\n        /* \"#utility.yul\":4658:4660   */\n      0x20\n        /* \"#utility.yul\":4646:4655   */\n      dup3\n        /* \"#utility.yul\":4637:4644   */\n      dup5\n        /* \"#utility.yul\":4633:4656   */\n      sub\n        /* \"#utility.yul\":4629:4661   */\n      slt\n        /* \"#utility.yul\":4626:4745   */\n      iszero\n      tag_356\n      jumpi\n        /* \"#utility.yul\":4664:4743   */\n      tag_357\n      tag_333\n      jump\t// in\n    tag_357:\n        /* \"#utility.yul\":4626:4745   */\n    tag_356:\n        /* \"#utility.yul\":4784:4785   */\n      0x00\n        /* \"#utility.yul\":4809:4879   */\n      tag_358\n        /* \"#utility.yul\":4871:4878   */\n      dup5\n        /* \"#utility.yul\":4862:4868   */\n      dup3\n        /* \"#utility.yul\":4851:4860   */\n      dup6\n        /* \"#utility.yul\":4847:4869   */\n      add\n        /* \"#utility.yul\":4809:4879   */\n      tag_310\n      jump\t// in\n    tag_358:\n        /* \"#utility.yul\":4799:4879   */\n      swap2\n      pop\n        /* \"#utility.yul\":4755:4889   */\n      pop\n        /* \"#utility.yul\":4533:4896   */\n      swap3\n      swap2\n      pop\n      pop\n      jump\t// out\n        /* \"#utility.yul\":4902:6287   */\n    tag_38:\n        /* \"#utility.yul\":5042:5048   */\n      0x00\n        /* \"#utility.yul\":5050:5056   */\n      dup1\n        /* \"#utility.yul\":5058:5064   */\n      0x00\n        /* \"#utility.yul\":5066:5072   */\n      dup1\n        /* \"#utility.yul\":5074:5080   */\n      0x00\n        /* \"#utility.yul\":5082:5088   */\n      dup1\n        /* \"#utility.yul\":5131:5134   */\n      0x80\n        /* \"#utility.yul\":5119:5128   */\n      dup8\n        /* \"#utility.yul\":5110:5117   */\n      dup10\n        /* \"#utility.yul\":5106:5129   */\n      sub\n        /* \"#utility.yul\":5102:5135   */\n      slt\n        /* \"#utility.yul\":5099:5219   */\n      iszero\n      tag_360\n      jumpi\n        /* \"#utility.yul\":5138:5217   */\n      tag_361\n      tag_333\n      jump\t// in\n    tag_361:\n        /* \"#utility.yul\":5099:5219   */\n    tag_360:\n        /* \"#utility.yul\":5286:5287   */\n      0x00\n        /* \"#utility.yul\":5275:5284   */\n      dup8\n        /* \"#utility.yul\":5271:5288   */\n      add\n        /* \"#utility.yul\":5258:5289   */\n      calldataload\n        /* \"#utility.yul\":5316:5334   */\n      0xffffffffffffffff\n        /* \"#utility.yul\":5308:5314   */\n      dup2\n        /* \"#utility.yul\":5305:5335   */\n      gt\n        /* \"#utility.yul\":5302:5419   */\n      iszero\n      tag_362\n      jumpi\n        /* \"#utility.yul\":5338:5417   */\n      tag_363\n      tag_348\n      jump\t// in\n    tag_363:\n        /* \"#utility.yul\":5302:5419   */\n    tag_362:\n        /* \"#utility.yul\":5443:5528   */\n      tag_364\n        /* \"#utility.yul\":5520:5527   */\n      dup10\n        /* \"#utility.yul\":5511:5517   */\n      dup3\n        /* \"#utility.yul\":5500:5509   */\n      dup11\n        /* \"#utility.yul\":5496:5518   */\n      add\n        /* \"#utility.yul\":5443:5528   */\n      tag_319\n      jump\t// in\n    tag_364:\n        /* \"#utility.yul\":5433:5528   */\n      swap7\n      pop\n        /* \"#utility.yul\":5229:5538   */\n      pop\n        /* \"#utility.yul\":5605:5607   */\n      0x20\n        /* \"#utility.yul\":5594:5603   */\n      dup8\n        /* \"#utility.yul\":5590:5608   */\n      add\n        /* \"#utility.yul\":5577:5609   */\n      calldataload\n        /* \"#utility.yul\":5636:5654   */\n      0xffffffffffffffff\n        /* \"#utility.yul\":5628:5634   */\n      dup2\n        /* \"#utility.yul\":5625:5655   */\n      gt\n        /* \"#utility.yul\":5622:5739   */\n      iszero\n      tag_365\n      jumpi\n        /* \"#utility.yul\":5658:5737   */\n      tag_366\n      tag_348\n      jump\t// in\n    tag_366:\n        /* \"#utility.yul\":5622:5739   */\n    tag_365:\n        /* \"#utility.yul\":5771:5835   */\n      tag_367\n        /* \"#utility.yul\":5827:5834   */\n      dup10\n        /* \"#utility.yul\":5818:5824   */\n      dup3\n        /* \"#utility.yul\":5807:5816   */\n      dup11\n        /* \"#utility.yul\":5803:5825   */\n      add\n        /* \"#utility.yul\":5771:5835   */\n      tag_299\n      jump\t// in\n    tag_367:\n        /* \"#utility.yul\":5753:5835   */\n      swap6\n      pop\n      swap6\n      pop\n        /* \"#utility.yul\":5548:5845   */\n      pop\n        /* \"#utility.yul\":5912:5914   */\n      0x40\n        /* \"#utility.yul\":5901:5910   */\n      dup8\n        /* \"#utility.yul\":5897:5915   */\n      add\n        /* \"#utility.yul\":5884:5916   */\n      calldataload\n        /* \"#utility.yul\":5943:5961   */\n      0xffffffffffffffff\n        /* \"#utility.yul\":5935:5941   */\n      dup2\n        /* \"#utility.yul\":5932:5962   */\n      gt\n        /* \"#utility.yul\":5929:6046   */\n      iszero\n      tag_368\n      jumpi\n        /* \"#utility.yul\":5965:6044   */\n      tag_369\n      tag_348\n      jump\t// in\n    tag_369:\n        /* \"#utility.yul\":5929:6046   */\n    tag_368:\n        /* \"#utility.yul\":6078:6142   */\n      tag_370\n        /* \"#utility.yul\":6134:6141   */\n      dup10\n        /* \"#utility.yul\":6125:6131   */\n      dup3\n        /* \"#utility.yul\":6114:6123   */\n      dup11\n        /* \"#utility.yul\":6110:6132   */\n      add\n        /* \"#utility.yul\":6078:6142   */\n      tag_299\n      jump\t// in\n    tag_370:\n        /* \"#utility.yul\":6060:6142   */\n      swap4\n      pop\n      swap4\n      pop\n        /* \"#utility.yul\":5855:6152   */\n      pop\n        /* \"#utility.yul\":6191:6193   */\n      0x60\n        /* \"#utility.yul\":6217:6270   */\n      tag_371\n        /* \"#utility.yul\":6262:6269   */\n      dup10\n        /* \"#utility.yul\":6253:6259   */\n      dup3\n        /* \"#utility.yul\":6242:6251   */\n      dup11\n        /* \"#utility.yul\":6238:6260   */\n      add\n        /* \"#utility.yul\":6217:6270   */\n      tag_323\n      jump\t// in\n    tag_371:\n        /* \"#utility.yul\":6207:6270   */\n      swap2\n      pop\n        /* \"#utility.yul\":6162:6280   */\n      pop\n        /* \"#utility.yul\":4902:6287   */\n      swap3\n      swap6\n      pop\n      swap3\n      swap6\n      pop\n      swap3\n      swap6\n      jump\t// out\n        /* \"#utility.yul\":6293:6644   */\n    tag_147:\n        /* \"#utility.yul\":6363:6369   */\n      0x00\n        /* \"#utility.yul\":6412:6414   */\n      0x20\n        /* \"#utility.yul\":6400:6409   */\n      dup3\n        /* \"#utility.yul\":6391:6398   */\n      dup5\n        /* \"#utility.yul\":6387:6410   */\n      sub\n        /* \"#utility.yul\":6383:6415   */\n      slt\n        /* \"#utility.yul\":6380:6499   */\n      iszero\n      tag_373\n      jumpi\n        /* \"#utility.yul\":6418:6497   */\n      tag_374\n      tag_333\n      jump\t// in\n    tag_374:\n        /* \"#utility.yul\":6380:6499   */\n    tag_373:\n        /* \"#utility.yul\":6538:6539   */\n      0x00\n        /* \"#utility.yul\":6563:6627   */\n      tag_375\n        /* \"#utility.yul\":6619:6626   */\n      dup5\n        /* \"#utility.yul\":6610:6616   */\n      dup3\n        /* \"#utility.yul\":6599:6608   */\n      dup6\n        /* \"#utility.yul\":6595:6617   */\n      add\n        /* \"#utility.yul\":6563:6627   */\n      tag_327\n      jump\t// in\n    tag_375:\n        /* \"#utility.yul\":6553:6627   */\n      swap2\n      pop\n        /* \"#utility.yul\":6509:6637   */\n      pop\n        /* \"#utility.yul\":6293:6644   */\n      swap3\n      swap2\n      pop\n      pop\n      jump\t// out\n        /* \"#utility.yul\":6650:7140   */\n    tag_57:\n        /* \"#utility.yul\":6726:6732   */\n      0x00\n        /* \"#utility.yul\":6734:6740   */\n      dup1\n        /* \"#utility.yul\":6783:6785   */\n      0x40\n        /* \"#utility.yul\":6771:6780   */\n      dup4\n        /* \"#utility.yul\":6762:6769   */\n      dup6\n        /* \"#utility.yul\":6758:6781   */\n      sub\n        /* \"#utility.yul\":6754:6786   */\n      slt\n        /* \"#utility.yul\":6751:6870   */\n      iszero\n      tag_377\n      jumpi\n        /* \"#utility.yul\":6789:6868   */\n      tag_378\n      tag_333\n      jump\t// in\n    tag_378:\n        /* \"#utility.yul\":6751:6870   */\n    tag_377:\n        /* \"#utility.yul\":6909:6910   */\n      0x00\n        /* \"#utility.yul\":6934:6987   */\n      tag_379\n        /* \"#utility.yul\":6979:6986   */\n      dup6\n        /* \"#utility.yul\":6970:6976   */\n      dup3\n        /* \"#utility.yul\":6959:6968   */\n      dup7\n        /* \"#utility.yul\":6955:6977   */\n      add\n        /* \"#utility.yul\":6934:6987   */\n      tag_323\n      jump\t// in\n    tag_379:\n        /* \"#utility.yul\":6924:6987   */\n      swap3\n      pop\n        /* \"#utility.yul\":6880:6997   */\n      pop\n        /* \"#utility.yul\":7036:7038   */\n      0x20\n        /* \"#utility.yul\":7062:7123   */\n      tag_380\n        /* \"#utility.yul\":7115:7122   */\n      dup6\n        /* \"#utility.yul\":7106:7112   */\n      dup3\n        /* \"#utility.yul\":7095:7104   */\n      dup7\n        /* \"#utility.yul\":7091:7113   */\n      add\n        /* \"#utility.yul\":7062:7123   */\n      tag_284\n      jump\t// in\n    tag_380:\n        /* \"#utility.yul\":7052:7123   */\n      swap2\n      pop\n        /* \"#utility.yul\":7007:7133   */\n      pop\n        /* \"#utility.yul\":6650:7140   */\n      swap3\n      pop\n      swap3\n      swap1\n      pop\n      jump\t// out\n        /* \"#utility.yul\":7146:7288   */\n    tag_381:\n        /* \"#utility.yul\":7249:7281   */\n      tag_383\n        /* \"#utility.yul\":7275:7280   */\n      dup2\n        /* \"#utility.yul\":7249:7281   */\n      tag_384\n      jump\t// in\n    tag_383:\n        /* \"#utility.yul\":7244:7247   */\n      dup3\n        /* \"#utility.yul\":7237:7282   */\n      mstore\n        /* \"#utility.yul\":7146:7288   */\n      pop\n      pop\n      jump\t// out\n        /* \"#utility.yul\":7294:7412   */\n    tag_385:\n        /* \"#utility.yul\":7381:7405   */\n      tag_387\n        /* \"#utility.yul\":7399:7404   */\n      dup2\n        /* \"#utility.yul\":7381:7405   */\n      tag_388\n      jump\t// in\n    tag_387:\n        /* \"#utility.yul\":7376:7379   */\n      dup3\n        /* \"#utility.yul\":7369:7406   */\n      mstore\n        /* \"#utility.yul\":7294:7412   */\n      pop\n      pop\n      jump\t// out\n        /* \"#utility.yul\":7418:7527   */\n    tag_389:\n        /* \"#utility.yul\":7499:7520   */\n      tag_391\n        /* \"#utility.yul\":7514:7519   */\n      dup2\n        /* \"#utility.yul\":7499:7520   */\n      tag_392\n      jump\t// in\n    tag_391:\n        /* \"#utility.yul\":7494:7497   */\n      dup3\n        /* \"#utility.yul\":7487:7521   */\n      mstore\n        /* \"#utility.yul\":7418:7527   */\n      pop\n      pop\n      jump\t// out\n        /* \"#utility.yul\":7533:7648   */\n    tag_393:\n        /* \"#utility.yul\":7618:7641   */\n      tag_395\n        /* \"#utility.yul\":7635:7640   */\n      dup2\n        /* \"#utility.yul\":7618:7641   */\n      tag_396\n      jump\t// in\n    tag_395:\n        /* \"#utility.yul\":7613:7616   */\n      dup3\n        /* \"#utility.yul\":7606:7642   */\n      mstore\n        /* \"#utility.yul\":7533:7648   */\n      pop\n      pop\n      jump\t// out\n        /* \"#utility.yul\":7654:8014   */\n    tag_397:\n        /* \"#utility.yul\":7740:7743   */\n      0x00\n        /* \"#utility.yul\":7768:7806   */\n      tag_399\n        /* \"#utility.yul\":7800:7805   */\n      dup3\n        /* \"#utility.yul\":7768:7806   */\n      tag_400\n      jump\t// in\n    tag_399:\n        /* \"#utility.yul\":7822:7892   */\n      tag_401\n        /* \"#utility.yul\":7885:7891   */\n      dup2\n        /* \"#utility.yul\":7880:7883   */\n      dup6\n        /* \"#utility.yul\":7822:7892   */\n      tag_402\n      jump\t// in\n    tag_401:\n        /* \"#utility.yul\":7815:7892   */\n      swap4\n      pop\n        /* \"#utility.yul\":7901:7953   */\n      tag_403\n        /* \"#utility.yul\":7946:7952   */\n      dup2\n        /* \"#utility.yul\":7941:7944   */\n      dup6\n        /* \"#utility.yul\":7934:7938   */\n      0x20\n        /* \"#utility.yul\":7927:7932   */\n      dup7\n        /* \"#utility.yul\":7923:7939   */\n      add\n        /* \"#utility.yul\":7901:7953   */\n      tag_404\n      jump\t// in\n    tag_403:\n        /* \"#utility.yul\":7978:8007   */\n      tag_405\n        /* \"#utility.yul\":8000:8006   */\n      dup2\n        /* \"#utility.yul\":7978:8007   */\n      tag_406\n      jump\t// in\n    tag_405:\n        /* \"#utility.yul\":7973:7976   */\n      dup5\n        /* \"#utility.yul\":7969:8008   */\n      add\n        /* \"#utility.yul\":7962:8008   */\n      swap2\n      pop\n        /* \"#utility.yul\":7744:8014   */\n      pop\n        /* \"#utility.yul\":7654:8014   */\n      swap3\n      swap2\n      pop\n      pop\n      jump\t// out\n        /* \"#utility.yul\":8020:8393   */\n    tag_407:\n        /* \"#utility.yul\":8124:8127   */\n      0x00\n        /* \"#utility.yul\":8152:8190   */\n      tag_409\n        /* \"#utility.yul\":8184:8189   */\n      dup3\n        /* \"#utility.yul\":8152:8190   */\n      tag_400\n      jump\t// in\n    tag_409:\n        /* \"#utility.yul\":8206:8294   */\n      tag_410\n        /* \"#utility.yul\":8287:8293   */\n      dup2\n        /* \"#utility.yul\":8282:8285   */\n      dup6\n        /* \"#utility.yul\":8206:8294   */\n      tag_411\n      jump\t// in\n    tag_410:\n        /* \"#utility.yul\":8199:8294   */\n      swap4\n      pop\n        /* \"#utility.yul\":8303:8355   */\n      tag_412\n        /* \"#utility.yul\":8348:8354   */\n      dup2\n        /* \"#utility.yul\":8343:8346   */\n      dup6\n        /* \"#utility.yul\":8336:8340   */\n      0x20\n        /* \"#utility.yul\":8329:8334   */\n      dup7\n        /* \"#utility.yul\":8325:8341   */\n      add\n        /* \"#utility.yul\":8303:8355   */\n      tag_404\n      jump\t// in\n    tag_412:\n        /* \"#utility.yul\":8380:8386   */\n      dup1\n        /* \"#utility.yul\":8375:8378   */\n      dup5\n        /* \"#utility.yul\":8371:8387   */\n      add\n        /* \"#utility.yul\":8364:8387   */\n      swap2\n      pop\n        /* \"#utility.yul\":8128:8393   */\n      pop\n        /* \"#utility.yul\":8020:8393   */\n      swap3\n      swap2\n      pop\n      pop\n      jump\t// out\n        /* \"#utility.yul\":8399:8763   */\n    tag_413:\n        /* \"#utility.yul\":8487:8490   */\n      0x00\n        /* \"#utility.yul\":8515:8554   */\n      tag_415\n        /* \"#utility.yul\":8548:8553   */\n      dup3\n        /* \"#utility.yul\":8515:8554   */\n      tag_416\n      jump\t// in\n    tag_415:\n        /* \"#utility.yul\":8570:8641   */\n      tag_417\n        /* \"#utility.yul\":8634:8640   */\n      dup2\n        /* \"#utility.yul\":8629:8632   */\n      dup6\n        /* \"#utility.yul\":8570:8641   */\n      tag_418\n      jump\t// in\n    tag_417:\n        /* \"#utility.yul\":8563:8641   */\n      swap4\n      pop\n        /* \"#utility.yul\":8650:8702   */\n      tag_419\n        /* \"#utility.yul\":8695:8701   */\n      dup2\n        /* \"#utility.yul\":8690:8693   */\n      dup6\n        /* \"#utility.yul\":8683:8687   */\n      0x20\n        /* \"#utility.yul\":8676:8681   */\n      dup7\n        /* \"#utility.yul\":8672:8688   */\n      add\n        /* \"#utility.yul\":8650:8702   */\n      tag_404\n      jump\t// in\n    tag_419:\n        /* \"#utility.yul\":8727:8756   */\n      tag_420\n        /* \"#utility.yul\":8749:8755   */\n      dup2\n        /* \"#utility.yul\":8727:8756   */\n      tag_406\n      jump\t// in\n    tag_420:\n        /* \"#utility.yul\":8722:8725   */\n      dup5\n        /* \"#utility.yul\":8718:8757   */\n      add\n        /* \"#utility.yul\":8711:8757   */\n      swap2\n      pop\n        /* \"#utility.yul\":8491:8763   */\n      pop\n        /* \"#utility.yul\":8399:8763   */\n      swap3\n      swap2\n      pop\n      pop\n      jump\t// out\n        /* \"#utility.yul\":8769:9135   */\n    tag_421:\n        /* \"#utility.yul\":8911:8914   */\n      0x00\n        /* \"#utility.yul\":8932:8999   */\n      tag_423\n        /* \"#utility.yul\":8996:8998   */\n      0x1c\n        /* \"#utility.yul\":8991:8994   */\n      dup4\n        /* \"#utility.yul\":8932:8999   */\n      tag_418\n      jump\t// in\n    tag_423:\n        /* \"#utility.yul\":8925:8999   */\n      swap2\n      pop\n        /* \"#utility.yul\":9008:9101   */\n      tag_424\n        /* \"#utility.yul\":9097:9100   */\n      dup3\n        /* \"#utility.yul\":9008:9101   */\n      tag_425\n      jump\t// in\n    tag_424:\n        /* \"#utility.yul\":9126:9128   */\n      0x20\n        /* \"#utility.yul\":9121:9124   */\n      dup3\n        /* \"#utility.yul\":9117:9129   */\n      add\n        /* \"#utility.yul\":9110:9129   */\n      swap1\n      pop\n        /* \"#utility.yul\":8769:9135   */\n      swap2\n      swap1\n      pop\n      jump\t// out\n        /* \"#utility.yul\":9141:9507   */\n    tag_426:\n        /* \"#utility.yul\":9283:9286   */\n      0x00\n        /* \"#utility.yul\":9304:9371   */\n      tag_428\n        /* \"#utility.yul\":9368:9370   */\n      0x1f\n        /* \"#utility.yul\":9363:9366   */\n      dup4\n        /* \"#utility.yul\":9304:9371   */\n      tag_418\n      jump\t// in\n    tag_428:\n        /* \"#utility.yul\":9297:9371   */\n      swap2\n      pop\n        /* \"#utility.yul\":9380:9473   */\n      tag_429\n        /* \"#utility.yul\":9469:9472   */\n      dup3\n        /* \"#utility.yul\":9380:9473   */\n      tag_430\n      jump\t// in\n    tag_429:\n        /* \"#utility.yul\":9498:9500   */\n      0x20\n        /* \"#utility.yul\":9493:9496   */\n      dup3\n        /* \"#utility.yul\":9489:9501   */\n      add\n        /* \"#utility.yul\":9482:9501   */\n      swap1\n      pop\n        /* \"#utility.yul\":9141:9507   */\n      swap2\n      swap1\n      pop\n      jump\t// out\n        /* \"#utility.yul\":9513:9879   */\n    tag_431:\n        /* \"#utility.yul\":9655:9658   */\n      0x00\n        /* \"#utility.yul\":9676:9743   */\n      tag_433\n        /* \"#utility.yul\":9740:9742   */\n      0x26\n        /* \"#utility.yul\":9735:9738   */\n      dup4\n        /* \"#utility.yul\":9676:9743   */\n      tag_418\n      jump\t// in\n    tag_433:\n        /* \"#utility.yul\":9669:9743   */\n      swap2\n      pop\n        /* \"#utility.yul\":9752:9845   */\n      tag_434\n        /* \"#utility.yul\":9841:9844   */\n      dup3\n        /* \"#utility.yul\":9752:9845   */\n      tag_435\n      jump\t// in\n    tag_434:\n        /* \"#utility.yul\":9870:9872   */\n      0x40\n        /* \"#utility.yul\":9865:9868   */\n      dup3\n        /* \"#utility.yul\":9861:9873   */\n      add\n        /* \"#utility.yul\":9854:9873   */\n      swap1\n      pop\n        /* \"#utility.yul\":9513:9879   */\n      swap2\n      swap1\n      pop\n      jump\t// out\n        /* \"#utility.yul\":9885:10251   */\n    tag_436:\n        /* \"#utility.yul\":10027:10030   */\n      0x00\n        /* \"#utility.yul\":10048:10115   */\n      tag_438\n        /* \"#utility.yul\":10112:10114   */\n      0x1c\n        /* \"#utility.yul\":10107:10110   */\n      dup4\n        /* \"#utility.yul\":10048:10115   */\n      tag_418\n      jump\t// in\n    tag_438:\n        /* \"#utility.yul\":10041:10115   */\n      swap2\n      pop\n        /* \"#utility.yul\":10124:10217   */\n      tag_439\n        /* \"#utility.yul\":10213:10216   */\n      dup3\n        /* \"#utility.yul\":10124:10217   */\n      tag_440\n      jump\t// in\n    tag_439:\n        /* \"#utility.yul\":10242:10244   */\n      0x20\n        /* \"#utility.yul\":10237:10240   */\n      dup3\n        /* \"#utility.yul\":10233:10245   */\n      add\n        /* \"#utility.yul\":10226:10245   */\n      swap1\n      pop\n        /* \"#utility.yul\":9885:10251   */\n      swap2\n      swap1\n      pop\n      jump\t// out\n        /* \"#utility.yul\":10257:10623   */\n    tag_441:\n        /* \"#utility.yul\":10399:10402   */\n      0x00\n        /* \"#utility.yul\":10420:10487   */\n      tag_443\n        /* \"#utility.yul\":10484:10486   */\n      0x19\n        /* \"#utility.yul\":10479:10482   */\n      dup4\n        /* \"#utility.yul\":10420:10487   */\n      tag_418\n      jump\t// in\n    tag_443:\n        /* \"#utility.yul\":10413:10487   */\n      swap2\n      pop\n        /* \"#utility.yul\":10496:10589   */\n      tag_444\n        /* \"#utility.yul\":10585:10588   */\n      dup3\n        /* \"#utility.yul\":10496:10589   */\n      tag_445\n      jump\t// in\n    tag_444:\n        /* \"#utility.yul\":10614:10616   */\n      0x20\n        /* \"#utility.yul\":10609:10612   */\n      dup3\n        /* \"#utility.yul\":10605:10617   */\n      add\n        /* \"#utility.yul\":10598:10617   */\n      swap1\n      pop\n        /* \"#utility.yul\":10257:10623   */\n      swap2\n      swap1\n      pop\n      jump\t// out\n        /* \"#utility.yul\":10629:10995   */\n    tag_446:\n        /* \"#utility.yul\":10771:10774   */\n      0x00\n        /* \"#utility.yul\":10792:10859   */\n      tag_448\n        /* \"#utility.yul\":10856:10858   */\n      0x18\n        /* \"#utility.yul\":10851:10854   */\n      dup4\n        /* \"#utility.yul\":10792:10859   */\n      tag_418\n      jump\t// in\n    tag_448:\n        /* \"#utility.yul\":10785:10859   */\n      swap2\n      pop\n        /* \"#utility.yul\":10868:10961   */\n      tag_449\n        /* \"#utility.yul\":10957:10960   */\n      dup3\n        /* \"#utility.yul\":10868:10961   */\n      tag_450\n      jump\t// in\n    tag_449:\n        /* \"#utility.yul\":10986:10988   */\n      0x20\n        /* \"#utility.yul\":10981:10984   */\n      dup3\n        /* \"#utility.yul\":10977:10989   */\n      add\n        /* \"#utility.yul\":10970:10989   */\n      swap1\n      pop\n        /* \"#utility.yul\":10629:10995   */\n      swap2\n      swap1\n      pop\n      jump\t// out\n        /* \"#utility.yul\":11001:11367   */\n    tag_451:\n        /* \"#utility.yul\":11143:11146   */\n      0x00\n        /* \"#utility.yul\":11164:11231   */\n      tag_453\n        /* \"#utility.yul\":11228:11230   */\n      0x20\n        /* \"#utility.yul\":11223:11226   */\n      dup4\n        /* \"#utility.yul\":11164:11231   */\n      tag_418\n      jump\t// in\n    tag_453:\n        /* \"#utility.yul\":11157:11231   */\n      swap2\n      pop\n        /* \"#utility.yul\":11240:11333   */\n      tag_454\n        /* \"#utility.yul\":11329:11332   */\n      dup3\n        /* \"#utility.yul\":11240:11333   */\n      tag_455\n      jump\t// in\n    tag_454:\n        /* \"#utility.yul\":11358:11360   */\n      0x20\n        /* \"#utility.yul\":11353:11356   */\n      dup3\n        /* \"#utility.yul\":11349:11361   */\n      add\n        /* \"#utility.yul\":11342:11361   */\n      swap1\n      pop\n        /* \"#utility.yul\":11001:11367   */\n      swap2\n      swap1\n      pop\n      jump\t// out\n        /* \"#utility.yul\":11373:11739   */\n    tag_456:\n        /* \"#utility.yul\":11515:11518   */\n      0x00\n        /* \"#utility.yul\":11536:11603   */\n      tag_458\n        /* \"#utility.yul\":11600:11602   */\n      0x20\n        /* \"#utility.yul\":11595:11598   */\n      dup4\n        /* \"#utility.yul\":11536:11603   */\n      tag_418\n      jump\t// in\n    tag_458:\n        /* \"#utility.yul\":11529:11603   */\n      swap2\n      pop\n        /* \"#utility.yul\":11612:11705   */\n      tag_459\n        /* \"#utility.yul\":11701:11704   */\n      dup3\n        /* \"#utility.yul\":11612:11705   */\n      tag_460\n      jump\t// in\n    tag_459:\n        /* \"#utility.yul\":11730:11732   */\n      0x20\n        /* \"#utility.yul\":11725:11728   */\n      dup3\n        /* \"#utility.yul\":11721:11733   */\n      add\n        /* \"#utility.yul\":11714:11733   */\n      swap1\n      pop\n        /* \"#utility.yul\":11373:11739   */\n      swap2\n      swap1\n      pop\n      jump\t// out\n        /* \"#utility.yul\":11745:12111   */\n    tag_461:\n        /* \"#utility.yul\":11887:11890   */\n      0x00\n        /* \"#utility.yul\":11908:11975   */\n      tag_463\n        /* \"#utility.yul\":11972:11974   */\n      0x20\n        /* \"#utility.yul\":11967:11970   */\n      dup4\n        /* \"#utility.yul\":11908:11975   */\n      tag_418\n      jump\t// in\n    tag_463:\n        /* \"#utility.yul\":11901:11975   */\n      swap2\n      pop\n        /* \"#utility.yul\":11984:12077   */\n      tag_464\n        /* \"#utility.yul\":12073:12076   */\n      dup3\n        /* \"#utility.yul\":11984:12077   */\n      tag_465\n      jump\t// in\n    tag_464:\n        /* \"#utility.yul\":12102:12104   */\n      0x20\n        /* \"#utility.yul\":12097:12100   */\n      dup3\n        /* \"#utility.yul\":12093:12105   */\n      add\n        /* \"#utility.yul\":12086:12105   */\n      swap1\n      pop\n        /* \"#utility.yul\":11745:12111   */\n      swap2\n      swap1\n      pop\n      jump\t// out\n        /* \"#utility.yul\":12117:12483   */\n    tag_466:\n        /* \"#utility.yul\":12259:12262   */\n      0x00\n        /* \"#utility.yul\":12280:12347   */\n      tag_468\n        /* \"#utility.yul\":12344:12346   */\n      0x1f\n        /* \"#utility.yul\":12339:12342   */\n      dup4\n        /* \"#utility.yul\":12280:12347   */\n      tag_418\n      jump\t// in\n    tag_468:\n        /* \"#utility.yul\":12273:12347   */\n      swap2\n      pop\n        /* \"#utility.yul\":12356:12449   */\n      tag_469\n        /* \"#utility.yul\":12445:12448   */\n      dup3\n        /* \"#utility.yul\":12356:12449   */\n      tag_470\n      jump\t// in\n    tag_469:\n        /* \"#utility.yul\":12474:12476   */\n      0x20\n        /* \"#utility.yul\":12469:12472   */\n      dup3\n        /* \"#utility.yul\":12465:12477   */\n      add\n        /* \"#utility.yul\":12458:12477   */\n      swap1\n      pop\n        /* \"#utility.yul\":12117:12483   */\n      swap2\n      swap1\n      pop\n      jump\t// out\n        /* \"#utility.yul\":12489:12855   */\n    tag_471:\n        /* \"#utility.yul\":12631:12634   */\n      0x00\n        /* \"#utility.yul\":12652:12719   */\n      tag_473\n        /* \"#utility.yul\":12716:12718   */\n      0x1e\n        /* \"#utility.yul\":12711:12714   */\n      dup4\n        /* \"#utility.yul\":12652:12719   */\n      tag_418\n      jump\t// in\n    tag_473:\n        /* \"#utility.yul\":12645:12719   */\n      swap2\n      pop\n        /* \"#utility.yul\":12728:12821   */\n      tag_474\n        /* \"#utility.yul\":12817:12820   */\n      dup3\n        /* \"#utility.yul\":12728:12821   */\n      tag_475\n      jump\t// in\n    tag_474:\n        /* \"#utility.yul\":12846:12848   */\n      0x20\n        /* \"#utility.yul\":12841:12844   */\n      dup3\n        /* \"#utility.yul\":12837:12849   */\n      add\n        /* \"#utility.yul\":12830:12849   */\n      swap1\n      pop\n        /* \"#utility.yul\":12489:12855   */\n      swap2\n      swap1\n      pop\n      jump\t// out\n        /* \"#utility.yul\":12861:13227   */\n    tag_476:\n        /* \"#utility.yul\":13003:13006   */\n      0x00\n        /* \"#utility.yul\":13024:13091   */\n      tag_478\n        /* \"#utility.yul\":13088:13090   */\n      0x1c\n        /* \"#utility.yul\":13083:13086   */\n      dup4\n        /* \"#utility.yul\":13024:13091   */\n      tag_418\n      jump\t// in\n    tag_478:\n        /* \"#utility.yul\":13017:13091   */\n      swap2\n      pop\n        /* \"#utility.yul\":13100:13193   */\n      tag_479\n        /* \"#utility.yul\":13189:13192   */\n      dup3\n        /* \"#utility.yul\":13100:13193   */\n      tag_480\n      jump\t// in\n    tag_479:\n        /* \"#utility.yul\":13218:13220   */\n      0x20\n        /* \"#utility.yul\":13213:13216   */\n      dup3\n        /* \"#utility.yul\":13209:13221   */\n      add\n        /* \"#utility.yul\":13202:13221   */\n      swap1\n      pop\n        /* \"#utility.yul\":12861:13227   */\n      swap2\n      swap1\n      pop\n      jump\t// out\n        /* \"#utility.yul\":13233:13599   */\n    tag_481:\n        /* \"#utility.yul\":13375:13378   */\n      0x00\n        /* \"#utility.yul\":13396:13463   */\n      tag_483\n        /* \"#utility.yul\":13460:13462   */\n      0x1b\n        /* \"#utility.yul\":13455:13458   */\n      dup4\n        /* \"#utility.yul\":13396:13463   */\n      tag_418\n      jump\t// in\n    tag_483:\n        /* \"#utility.yul\":13389:13463   */\n      swap2\n      pop\n        /* \"#utility.yul\":13472:13565   */\n      tag_484\n        /* \"#utility.yul\":13561:13564   */\n      dup3\n        /* \"#utility.yul\":13472:13565   */\n      tag_485\n      jump\t// in\n    tag_484:\n        /* \"#utility.yul\":13590:13592   */\n      0x20\n        /* \"#utility.yul\":13585:13588   */\n      dup3\n        /* \"#utility.yul\":13581:13593   */\n      add\n        /* \"#utility.yul\":13574:13593   */\n      swap1\n      pop\n        /* \"#utility.yul\":13233:13599   */\n      swap2\n      swap1\n      pop\n      jump\t// out\n        /* \"#utility.yul\":13685:14618   */\n    tag_486:\n        /* \"#utility.yul\":13848:13852   */\n      0x80\n        /* \"#utility.yul\":13843:13846   */\n      dup3\n        /* \"#utility.yul\":13839:13853   */\n      add\n        /* \"#utility.yul\":13947:13951   */\n      0x00\n        /* \"#utility.yul\":13940:13945   */\n      dup3\n        /* \"#utility.yul\":13936:13952   */\n      add\n        /* \"#utility.yul\":13930:13953   */\n      mload\n        /* \"#utility.yul\":13966:14029   */\n      tag_488\n        /* \"#utility.yul\":14023:14027   */\n      0x00\n        /* \"#utility.yul\":14018:14021   */\n      dup6\n        /* \"#utility.yul\":14014:14028   */\n      add\n        /* \"#utility.yul\":14000:14012   */\n      dup3\n        /* \"#utility.yul\":13966:14029   */\n      tag_489\n      jump\t// in\n    tag_488:\n        /* \"#utility.yul\":13863:14039   */\n      pop\n        /* \"#utility.yul\":14139:14143   */\n      0x20\n        /* \"#utility.yul\":14132:14137   */\n      dup3\n        /* \"#utility.yul\":14128:14144   */\n      add\n        /* \"#utility.yul\":14122:14145   */\n      mload\n        /* \"#utility.yul\":14158:14221   */\n      tag_490\n        /* \"#utility.yul\":14215:14219   */\n      0x20\n        /* \"#utility.yul\":14210:14213   */\n      dup6\n        /* \"#utility.yul\":14206:14220   */\n      add\n        /* \"#utility.yul\":14192:14204   */\n      dup3\n        /* \"#utility.yul\":14158:14221   */\n      tag_489\n      jump\t// in\n    tag_490:\n        /* \"#utility.yul\":14049:14231   */\n      pop\n        /* \"#utility.yul\":14332:14336   */\n      0x40\n        /* \"#utility.yul\":14325:14330   */\n      dup3\n        /* \"#utility.yul\":14321:14337   */\n      add\n        /* \"#utility.yul\":14315:14338   */\n      mload\n        /* \"#utility.yul\":14351:14414   */\n      tag_491\n        /* \"#utility.yul\":14408:14412   */\n      0x40\n        /* \"#utility.yul\":14403:14406   */\n      dup6\n        /* \"#utility.yul\":14399:14413   */\n      add\n        /* \"#utility.yul\":14385:14397   */\n      dup3\n        /* \"#utility.yul\":14351:14414   */\n      tag_489\n      jump\t// in\n    tag_491:\n        /* \"#utility.yul\":14241:14424   */\n      pop\n        /* \"#utility.yul\":14519:14523   */\n      0x60\n        /* \"#utility.yul\":14512:14517   */\n      dup3\n        /* \"#utility.yul\":14508:14524   */\n      add\n        /* \"#utility.yul\":14502:14525   */\n      mload\n        /* \"#utility.yul\":14538:14601   */\n      tag_492\n        /* \"#utility.yul\":14595:14599   */\n      0x60\n        /* \"#utility.yul\":14590:14593   */\n      dup6\n        /* \"#utility.yul\":14586:14600   */\n      add\n        /* \"#utility.yul\":14572:14584   */\n      dup3\n        /* \"#utility.yul\":14538:14601   */\n      tag_489\n      jump\t// in\n    tag_492:\n        /* \"#utility.yul\":14434:14611   */\n      pop\n        /* \"#utility.yul\":13817:14618   */\n      pop\n        /* \"#utility.yul\":13685:14618   */\n      pop\n      pop\n      jump\t// out\n        /* \"#utility.yul\":14624:14732   */\n    tag_489:\n        /* \"#utility.yul\":14701:14725   */\n      tag_494\n        /* \"#utility.yul\":14719:14724   */\n      dup2\n        /* \"#utility.yul\":14701:14725   */\n      tag_495\n      jump\t// in\n    tag_494:\n        /* \"#utility.yul\":14696:14699   */\n      dup3\n        /* \"#utility.yul\":14689:14726   */\n      mstore\n        /* \"#utility.yul\":14624:14732   */\n      pop\n      pop\n      jump\t// out\n        /* \"#utility.yul\":14738:14856   */\n    tag_496:\n        /* \"#utility.yul\":14825:14849   */\n      tag_498\n        /* \"#utility.yul\":14843:14848   */\n      dup2\n        /* \"#utility.yul\":14825:14849   */\n      tag_495\n      jump\t// in\n    tag_498:\n        /* \"#utility.yul\":14820:14823   */\n      dup3\n        /* \"#utility.yul\":14813:14850   */\n      mstore\n        /* \"#utility.yul\":14738:14856   */\n      pop\n      pop\n      jump\t// out\n        /* \"#utility.yul\":14862:15133   */\n    tag_254:\n        /* \"#utility.yul\":14992:14995   */\n      0x00\n        /* \"#utility.yul\":15014:15107   */\n      tag_500\n        /* \"#utility.yul\":15103:15106   */\n      dup3\n        /* \"#utility.yul\":15094:15100   */\n      dup5\n        /* \"#utility.yul\":15014:15107   */\n      tag_407\n      jump\t// in\n    tag_500:\n        /* \"#utility.yul\":15007:15107   */\n      swap2\n      pop\n        /* \"#utility.yul\":15124:15127   */\n      dup2\n        /* \"#utility.yul\":15117:15127   */\n      swap1\n      pop\n        /* \"#utility.yul\":14862:15133   */\n      swap3\n      swap2\n      pop\n      pop\n      jump\t// out\n        /* \"#utility.yul\":15139:15361   */\n    tag_31:\n        /* \"#utility.yul\":15232:15236   */\n      0x00\n        /* \"#utility.yul\":15270:15272   */\n      0x20\n        /* \"#utility.yul\":15259:15268   */\n      dup3\n        /* \"#utility.yul\":15255:15273   */\n      add\n        /* \"#utility.yul\":15247:15273   */\n      swap1\n      pop\n        /* \"#utility.yul\":15283:15354   */\n      tag_502\n        /* \"#utility.yul\":15351:15352   */\n      0x00\n        /* \"#utility.yul\":15340:15349   */\n      dup4\n        /* \"#utility.yul\":15336:15353   */\n      add\n        /* \"#utility.yul\":15327:15333   */\n      dup5\n        /* \"#utility.yul\":15283:15354   */\n      tag_385\n      jump\t// in\n    tag_502:\n        /* \"#utility.yul\":15139:15361   */\n      swap3\n      swap2\n      pop\n      pop\n      jump\t// out\n        /* \"#utility.yul\":15367:15731   */\n    tag_153:\n        /* \"#utility.yul\":15504:15508   */\n      0x00\n        /* \"#utility.yul\":15542:15544   */\n      0x40\n        /* \"#utility.yul\":15531:15540   */\n      dup3\n        /* \"#utility.yul\":15527:15545   */\n      add\n        /* \"#utility.yul\":15519:15545   */\n      swap1\n      pop\n        /* \"#utility.yul\":15555:15642   */\n      tag_504\n        /* \"#utility.yul\":15639:15640   */\n      0x00\n        /* \"#utility.yul\":15628:15637   */\n      dup4\n        /* \"#utility.yul\":15624:15641   */\n      add\n        /* \"#utility.yul\":15615:15621   */\n      dup6\n        /* \"#utility.yul\":15555:15642   */\n      tag_381\n      jump\t// in\n    tag_504:\n        /* \"#utility.yul\":15652:15724   */\n      tag_505\n        /* \"#utility.yul\":15720:15722   */\n      0x20\n        /* \"#utility.yul\":15709:15718   */\n      dup4\n        /* \"#utility.yul\":15705:15723   */\n      add\n        /* \"#utility.yul\":15696:15702   */\n      dup5\n        /* \"#utility.yul\":15652:15724   */\n      tag_496\n      jump\t// in\n    tag_505:\n        /* \"#utility.yul\":15367:15731   */\n      swap4\n      swap3\n      pop\n      pop\n      pop\n      jump\t// out\n        /* \"#utility.yul\":15737:15947   */\n    tag_48:\n        /* \"#utility.yul\":15824:15828   */\n      0x00\n        /* \"#utility.yul\":15862:15864   */\n      0x20\n        /* \"#utility.yul\":15851:15860   */\n      dup3\n        /* \"#utility.yul\":15847:15865   */\n      add\n        /* \"#utility.yul\":15839:15865   */\n      swap1\n      pop\n        /* \"#utility.yul\":15875:15940   */\n      tag_507\n        /* \"#utility.yul\":15937:15938   */\n      0x00\n        /* \"#utility.yul\":15926:15935   */\n      dup4\n        /* \"#utility.yul\":15922:15939   */\n      add\n        /* \"#utility.yul\":15913:15919   */\n      dup5\n        /* \"#utility.yul\":15875:15940   */\n      tag_389\n      jump\t// in\n    tag_507:\n        /* \"#utility.yul\":15737:15947   */\n      swap3\n      swap2\n      pop\n      pop\n      jump\t// out\n        /* \"#utility.yul\":15953:16171   */\n    tag_276:\n        /* \"#utility.yul\":16044:16048   */\n      0x00\n        /* \"#utility.yul\":16082:16084   */\n      0x20\n        /* \"#utility.yul\":16071:16080   */\n      dup3\n        /* \"#utility.yul\":16067:16085   */\n      add\n        /* \"#utility.yul\":16059:16085   */\n      swap1\n      pop\n        /* \"#utility.yul\":16095:16164   */\n      tag_509\n        /* \"#utility.yul\":16161:16162   */\n      0x00\n        /* \"#utility.yul\":16150:16159   */\n      dup4\n        /* \"#utility.yul\":16146:16163   */\n      add\n        /* \"#utility.yul\":16137:16143   */\n      dup5\n        /* \"#utility.yul\":16095:16164   */\n      tag_393\n      jump\t// in\n    tag_509:\n        /* \"#utility.yul\":15953:16171   */\n      swap3\n      swap2\n      pop\n      pop\n      jump\t// out\n        /* \"#utility.yul\":16177:16584   */\n    tag_41:\n        /* \"#utility.yul\":16310:16314   */\n      0x00\n        /* \"#utility.yul\":16348:16350   */\n      0x40\n        /* \"#utility.yul\":16337:16346   */\n      dup3\n        /* \"#utility.yul\":16333:16351   */\n      add\n        /* \"#utility.yul\":16325:16351   */\n      swap1\n      pop\n        /* \"#utility.yul\":16397:16406   */\n      dup2\n        /* \"#utility.yul\":16391:16395   */\n      dup2\n        /* \"#utility.yul\":16387:16407   */\n      sub\n        /* \"#utility.yul\":16383:16384   */\n      0x00\n        /* \"#utility.yul\":16372:16381   */\n      dup4\n        /* \"#utility.yul\":16368:16385   */\n      add\n        /* \"#utility.yul\":16361:16408   */\n      mstore\n        /* \"#utility.yul\":16425:16501   */\n      tag_511\n        /* \"#utility.yul\":16496:16500   */\n      dup2\n        /* \"#utility.yul\":16487:16493   */\n      dup6\n        /* \"#utility.yul\":16425:16501   */\n      tag_397\n      jump\t// in\n    tag_511:\n        /* \"#utility.yul\":16417:16501   */\n      swap1\n      pop\n        /* \"#utility.yul\":16511:16577   */\n      tag_512\n        /* \"#utility.yul\":16573:16575   */\n      0x20\n        /* \"#utility.yul\":16562:16571   */\n      dup4\n        /* \"#utility.yul\":16558:16576   */\n      add\n        /* \"#utility.yul\":16549:16555   */\n      dup5\n        /* \"#utility.yul\":16511:16577   */\n      tag_389\n      jump\t// in\n    tag_512:\n        /* \"#utility.yul\":16177:16584   */\n      swap4\n      swap3\n      pop\n      pop\n      pop\n      jump\t// out\n        /* \"#utility.yul\":16590:16903   */\n    tag_88:\n        /* \"#utility.yul\":16703:16707   */\n      0x00\n        /* \"#utility.yul\":16741:16743   */\n      0x20\n        /* \"#utility.yul\":16730:16739   */\n      dup3\n        /* \"#utility.yul\":16726:16744   */\n      add\n        /* \"#utility.yul\":16718:16744   */\n      swap1\n      pop\n        /* \"#utility.yul\":16790:16799   */\n      dup2\n        /* \"#utility.yul\":16784:16788   */\n      dup2\n        /* \"#utility.yul\":16780:16800   */\n      sub\n        /* \"#utility.yul\":16776:16777   */\n      0x00\n        /* \"#utility.yul\":16765:16774   */\n      dup4\n        /* \"#utility.yul\":16761:16778   */\n      add\n        /* \"#utility.yul\":16754:16801   */\n      mstore\n        /* \"#utility.yul\":16818:16896   */\n      tag_514\n        /* \"#utility.yul\":16891:16895   */\n      dup2\n        /* \"#utility.yul\":16882:16888   */\n      dup5\n        /* \"#utility.yul\":16818:16896   */\n      tag_413\n      jump\t// in\n    tag_514:\n        /* \"#utility.yul\":16810:16896   */\n      swap1\n      pop\n        /* \"#utility.yul\":16590:16903   */\n      swap3\n      swap2\n      pop\n      pop\n      jump\t// out\n        /* \"#utility.yul\":16909:17328   */\n    tag_225:\n        /* \"#utility.yul\":17075:17079   */\n      0x00\n        /* \"#utility.yul\":17113:17115   */\n      0x20\n        /* \"#utility.yul\":17102:17111   */\n      dup3\n        /* \"#utility.yul\":17098:17116   */\n      add\n        /* \"#utility.yul\":17090:17116   */\n      swap1\n      pop\n        /* \"#utility.yul\":17162:17171   */\n      dup2\n        /* \"#utility.yul\":17156:17160   */\n      dup2\n        /* \"#utility.yul\":17152:17172   */\n      sub\n        /* \"#utility.yul\":17148:17149   */\n      0x00\n        /* \"#utility.yul\":17137:17146   */\n      dup4\n        /* \"#utility.yul\":17133:17150   */\n      add\n        /* \"#utility.yul\":17126:17173   */\n      mstore\n        /* \"#utility.yul\":17190:17321   */\n      tag_516\n        /* \"#utility.yul\":17316:17320   */\n      dup2\n        /* \"#utility.yul\":17190:17321   */\n      tag_421\n      jump\t// in\n    tag_516:\n        /* \"#utility.yul\":17182:17321   */\n      swap1\n      pop\n        /* \"#utility.yul\":16909:17328   */\n      swap2\n      swap1\n      pop\n      jump\t// out\n        /* \"#utility.yul\":17334:17753   */\n    tag_268:\n        /* \"#utility.yul\":17500:17504   */\n      0x00\n        /* \"#utility.yul\":17538:17540   */\n      0x20\n        /* \"#utility.yul\":17527:17536   */\n      dup3\n        /* \"#utility.yul\":17523:17541   */\n      add\n        /* \"#utility.yul\":17515:17541   */\n      swap1\n      pop\n        /* \"#utility.yul\":17587:17596   */\n      dup2\n        /* \"#utility.yul\":17581:17585   */\n      dup2\n        /* \"#utility.yul\":17577:17597   */\n      sub\n        /* \"#utility.yul\":17573:17574   */\n      0x00\n        /* \"#utility.yul\":17562:17571   */\n      dup4\n        /* \"#utility.yul\":17558:17575   */\n      add\n        /* \"#utility.yul\":17551:17598   */\n      mstore\n        /* \"#utility.yul\":17615:17746   */\n      tag_518\n        /* \"#utility.yul\":17741:17745   */\n      dup2\n        /* \"#utility.yul\":17615:17746   */\n      tag_426\n      jump\t// in\n    tag_518:\n        /* \"#utility.yul\":17607:17746   */\n      swap1\n      pop\n        /* \"#utility.yul\":17334:17753   */\n      swap2\n      swap1\n      pop\n      jump\t// out\n        /* \"#utility.yul\":17759:18178   */\n    tag_196:\n        /* \"#utility.yul\":17925:17929   */\n      0x00\n        /* \"#utility.yul\":17963:17965   */\n      0x20\n        /* \"#utility.yul\":17952:17961   */\n      dup3\n        /* \"#utility.yul\":17948:17966   */\n      add\n        /* \"#utility.yul\":17940:17966   */\n      swap1\n      pop\n        /* \"#utility.yul\":18012:18021   */\n      dup2\n        /* \"#utility.yul\":18006:18010   */\n      dup2\n        /* \"#utility.yul\":18002:18022   */\n      sub\n        /* \"#utility.yul\":17998:17999   */\n      0x00\n        /* \"#utility.yul\":17987:17996   */\n      dup4\n        /* \"#utility.yul\":17983:18000   */\n      add\n        /* \"#utility.yul\":17976:18023   */\n      mstore\n        /* \"#utility.yul\":18040:18171   */\n      tag_520\n        /* \"#utility.yul\":18166:18170   */\n      dup2\n        /* \"#utility.yul\":18040:18171   */\n      tag_431\n      jump\t// in\n    tag_520:\n        /* \"#utility.yul\":18032:18171   */\n      swap1\n      pop\n        /* \"#utility.yul\":17759:18178   */\n      swap2\n      swap1\n      pop\n      jump\t// out\n        /* \"#utility.yul\":18184:18603   */\n    tag_260:\n        /* \"#utility.yul\":18350:18354   */\n      0x00\n        /* \"#utility.yul\":18388:18390   */\n      0x20\n        /* \"#utility.yul\":18377:18386   */\n      dup3\n        /* \"#utility.yul\":18373:18391   */\n      add\n        /* \"#utility.yul\":18365:18391   */\n      swap1\n      pop\n        /* \"#utility.yul\":18437:18446   */\n      dup2\n        /* \"#utility.yul\":18431:18435   */\n      dup2\n        /* \"#utility.yul\":18427:18447   */\n      sub\n        /* \"#utility.yul\":18423:18424   */\n      0x00\n        /* \"#utility.yul\":18412:18421   */\n      dup4\n        /* \"#utility.yul\":18408:18425   */\n      add\n        /* \"#utility.yul\":18401:18448   */\n      mstore\n        /* \"#utility.yul\":18465:18596   */\n      tag_522\n        /* \"#utility.yul\":18591:18595   */\n      dup2\n        /* \"#utility.yul\":18465:18596   */\n      tag_436\n      jump\t// in\n    tag_522:\n        /* \"#utility.yul\":18457:18596   */\n      swap1\n      pop\n        /* \"#utility.yul\":18184:18603   */\n      swap2\n      swap1\n      pop\n      jump\t// out\n        /* \"#utility.yul\":18609:19028   */\n    tag_29:\n        /* \"#utility.yul\":18775:18779   */\n      0x00\n        /* \"#utility.yul\":18813:18815   */\n      0x20\n        /* \"#utility.yul\":18802:18811   */\n      dup3\n        /* \"#utility.yul\":18798:18816   */\n      add\n        /* \"#utility.yul\":18790:18816   */\n      swap1\n      pop\n        /* \"#utility.yul\":18862:18871   */\n      dup2\n        /* \"#utility.yul\":18856:18860   */\n      dup2\n        /* \"#utility.yul\":18852:18872   */\n      sub\n        /* \"#utility.yul\":18848:18849   */\n      0x00\n        /* \"#utility.yul\":18837:18846   */\n      dup4\n        /* \"#utility.yul\":18833:18850   */\n      add\n        /* \"#utility.yul\":18826:18873   */\n      mstore\n        /* \"#utility.yul\":18890:19021   */\n      tag_524\n        /* \"#utility.yul\":19016:19020   */\n      dup2\n        /* \"#utility.yul\":18890:19021   */\n      tag_441\n      jump\t// in\n    tag_524:\n        /* \"#utility.yul\":18882:19021   */\n      swap1\n      pop\n        /* \"#utility.yul\":18609:19028   */\n      swap2\n      swap1\n      pop\n      jump\t// out\n        /* \"#utility.yul\":19034:19453   */\n    tag_210:\n        /* \"#utility.yul\":19200:19204   */\n      0x00\n        /* \"#utility.yul\":19238:19240   */\n      0x20\n        /* \"#utility.yul\":19227:19236   */\n      dup3\n        /* \"#utility.yul\":19223:19241   */\n      add\n        /* \"#utility.yul\":19215:19241   */\n      swap1\n      pop\n        /* \"#utility.yul\":19287:19296   */\n      dup2\n        /* \"#utility.yul\":19281:19285   */\n      dup2\n        /* \"#utility.yul\":19277:19297   */\n      sub\n        /* \"#utility.yul\":19273:19274   */\n      0x00\n        /* \"#utility.yul\":19262:19271   */\n      dup4\n        /* \"#utility.yul\":19258:19275   */\n      add\n        /* \"#utility.yul\":19251:19298   */\n      mstore\n        /* \"#utility.yul\":19315:19446   */\n      tag_526\n        /* \"#utility.yul\":19441:19445   */\n      dup2\n        /* \"#utility.yul\":19315:19446   */\n      tag_446\n      jump\t// in\n    tag_526:\n        /* \"#utility.yul\":19307:19446   */\n      swap1\n      pop\n        /* \"#utility.yul\":19034:19453   */\n      swap2\n      swap1\n      pop\n      jump\t// out\n        /* \"#utility.yul\":19459:19878   */\n    tag_189:\n        /* \"#utility.yul\":19625:19629   */\n      0x00\n        /* \"#utility.yul\":19663:19665   */\n      0x20\n        /* \"#utility.yul\":19652:19661   */\n      dup3\n        /* \"#utility.yul\":19648:19666   */\n      add\n        /* \"#utility.yul\":19640:19666   */\n      swap1\n      pop\n        /* \"#utility.yul\":19712:19721   */\n      dup2\n        /* \"#utility.yul\":19706:19710   */\n      dup2\n        /* \"#utility.yul\":19702:19722   */\n      sub\n        /* \"#utility.yul\":19698:19699   */\n      0x00\n        /* \"#utility.yul\":19687:19696   */\n      dup4\n        /* \"#utility.yul\":19683:19700   */\n      add\n        /* \"#utility.yul\":19676:19723   */\n      mstore\n        /* \"#utility.yul\":19740:19871   */\n      tag_528\n        /* \"#utility.yul\":19866:19870   */\n      dup2\n        /* \"#utility.yul\":19740:19871   */\n      tag_451\n      jump\t// in\n    tag_528:\n        /* \"#utility.yul\":19732:19871   */\n      swap1\n      pop\n        /* \"#utility.yul\":19459:19878   */\n      swap2\n      swap1\n      pop\n      jump\t// out\n        /* \"#utility.yul\":19884:20303   */\n    tag_263:\n        /* \"#utility.yul\":20050:20054   */\n      0x00\n        /* \"#utility.yul\":20088:20090   */\n      0x20\n        /* \"#utility.yul\":20077:20086   */\n      dup3\n        /* \"#utility.yul\":20073:20091   */\n      add\n        /* \"#utility.yul\":20065:20091   */\n      swap1\n      pop\n        /* \"#utility.yul\":20137:20146   */\n      dup2\n        /* \"#utility.yul\":20131:20135   */\n      dup2\n        /* \"#utility.yul\":20127:20147   */\n      sub\n        /* \"#utility.yul\":20123:20124   */\n      0x00\n        /* \"#utility.yul\":20112:20121   */\n      dup4\n        /* \"#utility.yul\":20108:20125   */\n      add\n        /* \"#utility.yul\":20101:20148   */\n      mstore\n        /* \"#utility.yul\":20165:20296   */\n      tag_530\n        /* \"#utility.yul\":20291:20295   */\n      dup2\n        /* \"#utility.yul\":20165:20296   */\n      tag_456\n      jump\t// in\n    tag_530:\n        /* \"#utility.yul\":20157:20296   */\n      swap1\n      pop\n        /* \"#utility.yul\":19884:20303   */\n      swap2\n      swap1\n      pop\n      jump\t// out\n        /* \"#utility.yul\":20309:20728   */\n    tag_238:\n        /* \"#utility.yul\":20475:20479   */\n      0x00\n        /* \"#utility.yul\":20513:20515   */\n      0x20\n        /* \"#utility.yul\":20502:20511   */\n      dup3\n        /* \"#utility.yul\":20498:20516   */\n      add\n        /* \"#utility.yul\":20490:20516   */\n      swap1\n      pop\n        /* \"#utility.yul\":20562:20571   */\n      dup2\n        /* \"#utility.yul\":20556:20560   */\n      dup2\n        /* \"#utility.yul\":20552:20572   */\n      sub\n        /* \"#utility.yul\":20548:20549   */\n      0x00\n        /* \"#utility.yul\":20537:20546   */\n      dup4\n        /* \"#utility.yul\":20533:20550   */\n      add\n        /* \"#utility.yul\":20526:20573   */\n      mstore\n        /* \"#utility.yul\":20590:20721   */\n      tag_532\n        /* \"#utility.yul\":20716:20720   */\n      dup2\n        /* \"#utility.yul\":20590:20721   */\n      tag_461\n      jump\t// in\n    tag_532:\n        /* \"#utility.yul\":20582:20721   */\n      swap1\n      pop\n        /* \"#utility.yul\":20309:20728   */\n      swap2\n      swap1\n      pop\n      jump\t// out\n        /* \"#utility.yul\":20734:21153   */\n    tag_173:\n        /* \"#utility.yul\":20900:20904   */\n      0x00\n        /* \"#utility.yul\":20938:20940   */\n      0x20\n        /* \"#utility.yul\":20927:20936   */\n      dup3\n        /* \"#utility.yul\":20923:20941   */\n      add\n        /* \"#utility.yul\":20915:20941   */\n      swap1\n      pop\n        /* \"#utility.yul\":20987:20996   */\n      dup2\n        /* \"#utility.yul\":20981:20985   */\n      dup2\n        /* \"#utility.yul\":20977:20997   */\n      sub\n        /* \"#utility.yul\":20973:20974   */\n      0x00\n        /* \"#utility.yul\":20962:20971   */\n      dup4\n        /* \"#utility.yul\":20958:20975   */\n      add\n        /* \"#utility.yul\":20951:20998   */\n      mstore\n        /* \"#utility.yul\":21015:21146   */\n      tag_534\n        /* \"#utility.yul\":21141:21145   */\n      dup2\n        /* \"#utility.yul\":21015:21146   */\n      tag_466\n      jump\t// in\n    tag_534:\n        /* \"#utility.yul\":21007:21146   */\n      swap1\n      pop\n        /* \"#utility.yul\":20734:21153   */\n      swap2\n      swap1\n      pop\n      jump\t// out\n        /* \"#utility.yul\":21159:21578   */\n    tag_202:\n        /* \"#utility.yul\":21325:21329   */\n      0x00\n        /* \"#utility.yul\":21363:21365   */\n      0x20\n        /* \"#utility.yul\":21352:21361   */\n      dup3\n        /* \"#utility.yul\":21348:21366   */\n      add\n        /* \"#utility.yul\":21340:21366   */\n      swap1\n      pop\n        /* \"#utility.yul\":21412:21421   */\n      dup2\n        /* \"#utility.yul\":21406:21410   */\n      dup2\n        /* \"#utility.yul\":21402:21422   */\n      sub\n        /* \"#utility.yul\":21398:21399   */\n      0x00\n        /* \"#utility.yul\":21387:21396   */\n      dup4\n        /* \"#utility.yul\":21383:21400   */\n      add\n        /* \"#utility.yul\":21376:21423   */\n      mstore\n        /* \"#utility.yul\":21440:21571   */\n      tag_536\n        /* \"#utility.yul\":21566:21570   */\n      dup2\n        /* \"#utility.yul\":21440:21571   */\n      tag_471\n      jump\t// in\n    tag_536:\n        /* \"#utility.yul\":21432:21571   */\n      swap1\n      pop\n        /* \"#utility.yul\":21159:21578   */\n      swap2\n      swap1\n      pop\n      jump\t// out\n        /* \"#utility.yul\":21584:22003   */\n    tag_218:\n        /* \"#utility.yul\":21750:21754   */\n      0x00\n        /* \"#utility.yul\":21788:21790   */\n      0x20\n        /* \"#utility.yul\":21777:21786   */\n      dup3\n        /* \"#utility.yul\":21773:21791   */\n      add\n        /* \"#utility.yul\":21765:21791   */\n      swap1\n      pop\n        /* \"#utility.yul\":21837:21846   */\n      dup2\n        /* \"#utility.yul\":21831:21835   */\n      dup2\n        /* \"#utility.yul\":21827:21847   */\n      sub\n        /* \"#utility.yul\":21823:21824   */\n      0x00\n        /* \"#utility.yul\":21812:21821   */\n      dup4\n        /* \"#utility.yul\":21808:21825   */\n      add\n        /* \"#utility.yul\":21801:21848   */\n      mstore\n        /* \"#utility.yul\":21865:21996   */\n      tag_538\n        /* \"#utility.yul\":21991:21995   */\n      dup2\n        /* \"#utility.yul\":21865:21996   */\n      tag_476\n      jump\t// in\n    tag_538:\n        /* \"#utility.yul\":21857:21996   */\n      swap1\n      pop\n        /* \"#utility.yul\":21584:22003   */\n      swap2\n      swap1\n      pop\n      jump\t// out\n        /* \"#utility.yul\":22009:22428   */\n    tag_229:\n        /* \"#utility.yul\":22175:22179   */\n      0x00\n        /* \"#utility.yul\":22213:22215   */\n      0x20\n        /* \"#utility.yul\":22202:22211   */\n      dup3\n        /* \"#utility.yul\":22198:22216   */\n      add\n        /* \"#utility.yul\":22190:22216   */\n      swap1\n      pop\n        /* \"#utility.yul\":22262:22271   */\n      dup2\n        /* \"#utility.yul\":22256:22260   */\n      dup2\n        /* \"#utility.yul\":22252:22272   */\n      sub\n        /* \"#utility.yul\":22248:22249   */\n      0x00\n        /* \"#utility.yul\":22237:22246   */\n      dup4\n        /* \"#utility.yul\":22233:22250   */\n      add\n        /* \"#utility.yul\":22226:22273   */\n      mstore\n        /* \"#utility.yul\":22290:22421   */\n      tag_540\n        /* \"#utility.yul\":22416:22420   */\n      dup2\n        /* \"#utility.yul\":22290:22421   */\n      tag_481\n      jump\t// in\n    tag_540:\n        /* \"#utility.yul\":22282:22421   */\n      swap1\n      pop\n        /* \"#utility.yul\":22009:22428   */\n      swap2\n      swap1\n      pop\n      jump\t// out\n        /* \"#utility.yul\":22434:22789   */\n    tag_93:\n        /* \"#utility.yul\":22593:22597   */\n      0x00\n        /* \"#utility.yul\":22631:22634   */\n      0x80\n        /* \"#utility.yul\":22620:22629   */\n      dup3\n        /* \"#utility.yul\":22616:22635   */\n      add\n        /* \"#utility.yul\":22608:22635   */\n      swap1\n      pop\n        /* \"#utility.yul\":22645:22782   */\n      tag_542\n        /* \"#utility.yul\":22779:22780   */\n      0x00\n        /* \"#utility.yul\":22768:22777   */\n      dup4\n        /* \"#utility.yul\":22764:22781   */\n      add\n        /* \"#utility.yul\":22755:22761   */\n      dup5\n        /* \"#utility.yul\":22645:22782   */\n      tag_486\n      jump\t// in\n    tag_542:\n        /* \"#utility.yul\":22434:22789   */\n      swap3\n      swap2\n      pop\n      pop\n      jump\t// out\n        /* \"#utility.yul\":22795:23017   */\n    tag_53:\n        /* \"#utility.yul\":22888:22892   */\n      0x00\n        /* \"#utility.yul\":22926:22928   */\n      0x20\n        /* \"#utility.yul\":22915:22924   */\n      dup3\n        /* \"#utility.yul\":22911:22929   */\n      add\n        /* \"#utility.yul\":22903:22929   */\n      swap1\n      pop\n        /* \"#utility.yul\":22939:23010   */\n      tag_544\n        /* \"#utility.yul\":23007:23008   */\n      0x00\n        /* \"#utility.yul\":22996:23005   */\n      dup4\n        /* \"#utility.yul\":22992:23009   */\n      add\n        /* \"#utility.yul\":22983:22989   */\n      dup5\n        /* \"#utility.yul\":22939:23010   */\n      tag_496\n      jump\t// in\n    tag_544:\n        /* \"#utility.yul\":22795:23017   */\n      swap3\n      swap2\n      pop\n      pop\n      jump\t// out\n        /* \"#utility.yul\":23023:23747   */\n    tag_222:\n        /* \"#utility.yul\":23100:23104   */\n      0x00\n        /* \"#utility.yul\":23106:23112   */\n      dup1\n        /* \"#utility.yul\":23162:23173   */\n      dup4\n        /* \"#utility.yul\":23149:23174   */\n      calldataload\n        /* \"#utility.yul\":23262:23263   */\n      0x01\n        /* \"#utility.yul\":23256:23260   */\n      0x20\n        /* \"#utility.yul\":23252:23264   */\n      sub\n        /* \"#utility.yul\":23241:23249   */\n      dup5\n        /* \"#utility.yul\":23225:23239   */\n      calldatasize\n        /* \"#utility.yul\":23221:23250   */\n      sub\n        /* \"#utility.yul\":23217:23265   */\n      sub\n        /* \"#utility.yul\":23197:23215   */\n      dup2\n        /* \"#utility.yul\":23193:23266   */\n      slt\n        /* \"#utility.yul\":23183:23351   */\n      tag_546\n      jumpi\n        /* \"#utility.yul\":23270:23349   */\n      tag_547\n      tag_548\n      jump\t// in\n    tag_547:\n        /* \"#utility.yul\":23183:23351   */\n    tag_546:\n        /* \"#utility.yul\":23382:23400   */\n      dup1\n        /* \"#utility.yul\":23372:23380   */\n      dup5\n        /* \"#utility.yul\":23368:23401   */\n      add\n        /* \"#utility.yul\":23360:23401   */\n      swap3\n      pop\n        /* \"#utility.yul\":23434:23438   */\n      dup3\n        /* \"#utility.yul\":23421:23439   */\n      calldataload\n        /* \"#utility.yul\":23411:23439   */\n      swap2\n      pop\n        /* \"#utility.yul\":23462:23480   */\n      0xffffffffffffffff\n        /* \"#utility.yul\":23454:23460   */\n      dup3\n        /* \"#utility.yul\":23451:23481   */\n      gt\n        /* \"#utility.yul\":23448:23565   */\n      iszero\n      tag_549\n      jumpi\n        /* \"#utility.yul\":23484:23563   */\n      tag_550\n      tag_551\n      jump\t// in\n    tag_550:\n        /* \"#utility.yul\":23448:23565   */\n    tag_549:\n        /* \"#utility.yul\":23592:23594   */\n      0x20\n        /* \"#utility.yul\":23586:23590   */\n      dup4\n        /* \"#utility.yul\":23582:23595   */\n      add\n        /* \"#utility.yul\":23574:23595   */\n      swap3\n      pop\n        /* \"#utility.yul\":23649:23653   */\n      0x01\n        /* \"#utility.yul\":23641:23647   */\n      dup3\n        /* \"#utility.yul\":23637:23654   */\n      mul\n        /* \"#utility.yul\":23621:23635   */\n      calldatasize\n        /* \"#utility.yul\":23617:23655   */\n      sub\n        /* \"#utility.yul\":23611:23615   */\n      dup4\n        /* \"#utility.yul\":23607:23656   */\n      sgt\n        /* \"#utility.yul\":23604:23740   */\n      iszero\n      tag_552\n      jumpi\n        /* \"#utility.yul\":23659:23738   */\n      tag_553\n      tag_554\n      jump\t// in\n    tag_553:\n        /* \"#utility.yul\":23604:23740   */\n    tag_552:\n        /* \"#utility.yul\":23113:23747   */\n      pop\n        /* \"#utility.yul\":23023:23747   */\n      swap3\n      pop\n      swap3\n      swap1\n      pop\n      jump\t// out\n        /* \"#utility.yul\":23753:24152   */\n    tag_215:\n        /* \"#utility.yul\":23852:23856   */\n      0x00\n        /* \"#utility.yul\":23906:23917   */\n      dup3\n        /* \"#utility.yul\":23893:23918   */\n      calldataload\n        /* \"#utility.yul\":24006:24007   */\n      0x01\n        /* \"#utility.yul\":24000:24004   */\n      0xe0\n        /* \"#utility.yul\":23996:24008   */\n      sub\n        /* \"#utility.yul\":23985:23993   */\n      dup4\n        /* \"#utility.yul\":23969:23983   */\n      calldatasize\n        /* \"#utility.yul\":23965:23994   */\n      sub\n        /* \"#utility.yul\":23961:24009   */\n      sub\n        /* \"#utility.yul\":23941:23959   */\n      dup2\n        /* \"#utility.yul\":23937:24010   */\n      slt\n        /* \"#utility.yul\":23927:24095   */\n      tag_556\n      jumpi\n        /* \"#utility.yul\":24014:24093   */\n      tag_557\n      tag_548\n      jump\t// in\n    tag_557:\n        /* \"#utility.yul\":23927:24095   */\n    tag_556:\n        /* \"#utility.yul\":24126:24144   */\n      dup1\n        /* \"#utility.yul\":24116:24124   */\n      dup4\n        /* \"#utility.yul\":24112:24145   */\n      add\n        /* \"#utility.yul\":24104:24145   */\n      swap2\n      pop\n        /* \"#utility.yul\":23857:24152   */\n      pop\n        /* \"#utility.yul\":23753:24152   */\n      swap3\n      swap2\n      pop\n      pop\n      jump\t// out\n        /* \"#utility.yul\":24158:24555   */\n    tag_205:\n        /* \"#utility.yul\":24253:24257   */\n      0x00\n        /* \"#utility.yul\":24307:24318   */\n      dup3\n        /* \"#utility.yul\":24294:24319   */\n      calldataload\n        /* \"#utility.yul\":24409:24410   */\n      0x01\n        /* \"#utility.yul\":24401:24407   */\n      0x0100\n        /* \"#utility.yul\":24397:24411   */\n      sub\n        /* \"#utility.yul\":24386:24394   */\n      dup4\n        /* \"#utility.yul\":24370:24384   */\n      calldatasize\n        /* \"#utility.yul\":24366:24395   */\n      sub\n        /* \"#utility.yul\":24362:24412   */\n      sub\n        /* \"#utility.yul\":24342:24360   */\n      dup2\n        /* \"#utility.yul\":24338:24413   */\n      slt\n        /* \"#utility.yul\":24328:24498   */\n      tag_559\n      jumpi\n        /* \"#utility.yul\":24417:24496   */\n      tag_560\n      tag_548\n      jump\t// in\n    tag_560:\n        /* \"#utility.yul\":24328:24498   */\n    tag_559:\n        /* \"#utility.yul\":24529:24547   */\n      dup1\n        /* \"#utility.yul\":24519:24527   */\n      dup4\n        /* \"#utility.yul\":24515:24548   */\n      add\n        /* \"#utility.yul\":24507:24548   */\n      swap2\n      pop\n        /* \"#utility.yul\":24258:24555   */\n      pop\n        /* \"#utility.yul\":24158:24555   */\n      swap3\n      swap2\n      pop\n      pop\n      jump\t// out\n        /* \"#utility.yul\":24642:24740   */\n    tag_400:\n        /* \"#utility.yul\":24693:24699   */\n      0x00\n        /* \"#utility.yul\":24727:24732   */\n      dup2\n        /* \"#utility.yul\":24721:24733   */\n      mload\n        /* \"#utility.yul\":24711:24733   */\n      swap1\n      pop\n        /* \"#utility.yul\":24642:24740   */\n      swap2\n      swap1\n      pop\n      jump\t// out\n        /* \"#utility.yul\":24746:24845   */\n    tag_416:\n        /* \"#utility.yul\":24798:24804   */\n      0x00\n        /* \"#utility.yul\":24832:24837   */\n      dup2\n        /* \"#utility.yul\":24826:24838   */\n      mload\n        /* \"#utility.yul\":24816:24838   */\n      swap1\n      pop\n        /* \"#utility.yul\":24746:24845   */\n      swap2\n      swap1\n      pop\n      jump\t// out\n        /* \"#utility.yul\":24851:25019   */\n    tag_402:\n        /* \"#utility.yul\":24934:24945   */\n      0x00\n        /* \"#utility.yul\":24968:24974   */\n      dup3\n        /* \"#utility.yul\":24963:24966   */\n      dup3\n        /* \"#utility.yul\":24956:24975   */\n      mstore\n        /* \"#utility.yul\":25008:25012   */\n      0x20\n        /* \"#utility.yul\":25003:25006   */\n      dup3\n        /* \"#utility.yul\":24999:25013   */\n      add\n        /* \"#utility.yul\":24984:25013   */\n      swap1\n      pop\n        /* \"#utility.yul\":24851:25019   */\n      swap3\n      swap2\n      pop\n      pop\n      jump\t// out\n        /* \"#utility.yul\":25025:25172   */\n    tag_411:\n        /* \"#utility.yul\":25126:25137   */\n      0x00\n        /* \"#utility.yul\":25163:25166   */\n      dup2\n        /* \"#utility.yul\":25148:25166   */\n      swap1\n      pop\n        /* \"#utility.yul\":25025:25172   */\n      swap3\n      swap2\n      pop\n      pop\n      jump\t// out\n        /* \"#utility.yul\":25178:25347   */\n    tag_418:\n        /* \"#utility.yul\":25262:25273   */\n      0x00\n        /* \"#utility.yul\":25296:25302   */\n      dup3\n        /* \"#utility.yul\":25291:25294   */\n      dup3\n        /* \"#utility.yul\":25284:25303   */\n      mstore\n        /* \"#utility.yul\":25336:25340   */\n      0x20\n        /* \"#utility.yul\":25331:25334   */\n      dup3\n        /* \"#utility.yul\":25327:25341   */\n      add\n        /* \"#utility.yul\":25312:25341   */\n      swap1\n      pop\n        /* \"#utility.yul\":25178:25347   */\n      swap3\n      swap2\n      pop\n      pop\n      jump\t// out\n        /* \"#utility.yul\":25353:25658   */\n    tag_181:\n        /* \"#utility.yul\":25393:25396   */\n      0x00\n        /* \"#utility.yul\":25412:25432   */\n      tag_569\n        /* \"#utility.yul\":25430:25431   */\n      dup3\n        /* \"#utility.yul\":25412:25432   */\n      tag_495\n      jump\t// in\n    tag_569:\n        /* \"#utility.yul\":25407:25432   */\n      swap2\n      pop\n        /* \"#utility.yul\":25446:25466   */\n      tag_570\n        /* \"#utility.yul\":25464:25465   */\n      dup4\n        /* \"#utility.yul\":25446:25466   */\n      tag_495\n      jump\t// in\n    tag_570:\n        /* \"#utility.yul\":25441:25466   */\n      swap3\n      pop\n        /* \"#utility.yul\":25600:25601   */\n      dup3\n        /* \"#utility.yul\":25532:25598   */\n      0xffffffffffffffffffffffffffffffffffffffffffffffffffffffffffffffff\n        /* \"#utility.yul\":25528:25602   */\n      sub\n        /* \"#utility.yul\":25525:25526   */\n      dup3\n        /* \"#utility.yul\":25522:25603   */\n      gt\n        /* \"#utility.yul\":25519:25626   */\n      iszero\n      tag_571\n      jumpi\n        /* \"#utility.yul\":25606:25624   */\n      tag_572\n      tag_573\n      jump\t// in\n    tag_572:\n        /* \"#utility.yul\":25519:25626   */\n    tag_571:\n        /* \"#utility.yul\":25650:25651   */\n      dup3\n        /* \"#utility.yul\":25647:25648   */\n      dup3\n        /* \"#utility.yul\":25643:25652   */\n      add\n        /* \"#utility.yul\":25636:25652   */\n      swap1\n      pop\n        /* \"#utility.yul\":25353:25658   */\n      swap3\n      swap2\n      pop\n      pop\n      jump\t// out\n        /* \"#utility.yul\":25664:25760   */\n    tag_388:\n        /* \"#utility.yul\":25701:25708   */\n      0x00\n        /* \"#utility.yul\":25730:25754   */\n      tag_575\n        /* \"#utility.yul\":25748:25753   */\n      dup3\n        /* \"#utility.yul\":25730:25754   */\n      tag_576\n      jump\t// in\n    tag_575:\n        /* \"#utility.yul\":25719:25754   */\n      swap1\n      pop\n        /* \"#utility.yul\":25664:25760   */\n      swap2\n      swap1\n      pop\n      jump\t// out\n        /* \"#utility.yul\":25766:25870   */\n    tag_384:\n        /* \"#utility.yul\":25811:25818   */\n      0x00\n        /* \"#utility.yul\":25840:25864   */\n      tag_578\n        /* \"#utility.yul\":25858:25863   */\n      dup3\n        /* \"#utility.yul\":25840:25864   */\n      tag_576\n      jump\t// in\n    tag_578:\n        /* \"#utility.yul\":25829:25864   */\n      swap1\n      pop\n        /* \"#utility.yul\":25766:25870   */\n      swap2\n      swap1\n      pop\n      jump\t// out\n        /* \"#utility.yul\":25876:25966   */\n    tag_392:\n        /* \"#utility.yul\":25910:25917   */\n      0x00\n        /* \"#utility.yul\":25953:25958   */\n      dup2\n        /* \"#utility.yul\":25946:25959   */\n      iszero\n        /* \"#utility.yul\":25939:25960   */\n      iszero\n        /* \"#utility.yul\":25928:25960   */\n      swap1\n      pop\n        /* \"#utility.yul\":25876:25966   */\n      swap2\n      swap1\n      pop\n      jump\t// out\n        /* \"#utility.yul\":25972:26121   */\n    tag_396:\n        /* \"#utility.yul\":26008:26015   */\n      0x00\n        /* \"#utility.yul\":26048:26114   */\n      0xffffffff00000000000000000000000000000000000000000000000000000000\n        /* \"#utility.yul\":26041:26046   */\n      dup3\n        /* \"#utility.yul\":26037:26115   */\n      and\n        /* \"#utility.yul\":26026:26115   */\n      swap1\n      pop\n        /* \"#utility.yul\":25972:26121   */\n      swap2\n      swap1\n      pop\n      jump\t// out\n        /* \"#utility.yul\":26127:26240   */\n    tag_581:\n        /* \"#utility.yul\":26181:26188   */\n      0x00\n        /* \"#utility.yul\":26210:26234   */\n      tag_583\n        /* \"#utility.yul\":26228:26233   */\n      dup3\n        /* \"#utility.yul\":26210:26234   */\n      tag_388\n      jump\t// in\n    tag_583:\n        /* \"#utility.yul\":26199:26234   */\n      swap1\n      pop\n        /* \"#utility.yul\":26127:26240   */\n      swap2\n      swap1\n      pop\n      jump\t// out\n        /* \"#utility.yul\":26246:26372   */\n    tag_576:\n        /* \"#utility.yul\":26283:26290   */\n      0x00\n        /* \"#utility.yul\":26323:26365   */\n      0xffffffffffffffffffffffffffffffffffffffff\n        /* \"#utility.yul\":26316:26321   */\n      dup3\n        /* \"#utility.yul\":26312:26366   */\n      and\n        /* \"#utility.yul\":26301:26366   */\n      swap1\n      pop\n        /* \"#utility.yul\":26246:26372   */\n      swap2\n      swap1\n      pop\n      jump\t// out\n        /* \"#utility.yul\":26378:26455   */\n    tag_495:\n        /* \"#utility.yul\":26415:26422   */\n      0x00\n        /* \"#utility.yul\":26444:26449   */\n      dup2\n        /* \"#utility.yul\":26433:26449   */\n      swap1\n      pop\n        /* \"#utility.yul\":26378:26455   */\n      swap2\n      swap1\n      pop\n      jump\t// out\n        /* \"#utility.yul\":26461:26768   */\n    tag_404:\n        /* \"#utility.yul\":26529:26530   */\n      0x00\n        /* \"#utility.yul\":26539:26652   */\n    tag_587:\n        /* \"#utility.yul\":26553:26559   */\n      dup4\n        /* \"#utility.yul\":26550:26551   */\n      dup2\n        /* \"#utility.yul\":26547:26560   */\n      lt\n        /* \"#utility.yul\":26539:26652   */\n      iszero\n      tag_589\n      jumpi\n        /* \"#utility.yul\":26638:26639   */\n      dup1\n        /* \"#utility.yul\":26633:26636   */\n      dup3\n        /* \"#utility.yul\":26629:26640   */\n      add\n        /* \"#utility.yul\":26623:26641   */\n      mload\n        /* \"#utility.yul\":26619:26620   */\n      dup2\n        /* \"#utility.yul\":26614:26617   */\n      dup5\n        /* \"#utility.yul\":26610:26621   */\n      add\n        /* \"#utility.yul\":26603:26642   */\n      mstore\n        /* \"#utility.yul\":26575:26577   */\n      0x20\n        /* \"#utility.yul\":26572:26573   */\n      dup2\n        /* \"#utility.yul\":26568:26578   */\n      add\n        /* \"#utility.yul\":26563:26578   */\n      swap1\n      pop\n        /* \"#utility.yul\":26539:26652   */\n      jump(tag_587)\n    tag_589:\n        /* \"#utility.yul\":26670:26676   */\n      dup4\n        /* \"#utility.yul\":26667:26668   */\n      dup2\n        /* \"#utility.yul\":26664:26677   */\n      gt\n        /* \"#utility.yul\":26661:26762   */\n      iszero\n      tag_590\n      jumpi\n        /* \"#utility.yul\":26750:26751   */\n      0x00\n        /* \"#utility.yul\":26741:26747   */\n      dup5\n        /* \"#utility.yul\":26736:26739   */\n      dup5\n        /* \"#utility.yul\":26732:26748   */\n      add\n        /* \"#utility.yul\":26725:26752   */\n      mstore\n        /* \"#utility.yul\":26661:26762   */\n    tag_590:\n        /* \"#utility.yul\":26510:26768   */\n      pop\n        /* \"#utility.yul\":26461:26768   */\n      pop\n      pop\n      pop\n      jump\t// out\n        /* \"#utility.yul\":26774:26954   */\n    tag_573:\n        /* \"#utility.yul\":26822:26899   */\n      0x4e487b7100000000000000000000000000000000000000000000000000000000\n        /* \"#utility.yul\":26819:26820   */\n      0x00\n        /* \"#utility.yul\":26812:26900   */\n      mstore\n        /* \"#utility.yul\":26919:26923   */\n      0x11\n        /* \"#utility.yul\":26916:26917   */\n      0x04\n        /* \"#utility.yul\":26909:26924   */\n      mstore\n        /* \"#utility.yul\":26943:26947   */\n      0x24\n        /* \"#utility.yul\":26940:26941   */\n      0x00\n        /* \"#utility.yul\":26933:26948   */\n      revert\n        /* \"#utility.yul\":26960:27077   */\n    tag_306:\n        /* \"#utility.yul\":27069:27070   */\n      0x00\n        /* \"#utility.yul\":27066:27067   */\n      dup1\n        /* \"#utility.yul\":27059:27071   */\n      revert\n        /* \"#utility.yul\":27083:27200   */\n    tag_303:\n        /* \"#utility.yul\":27192:27193   */\n      0x00\n        /* \"#utility.yul\":27189:27190   */\n      dup1\n        /* \"#utility.yul\":27182:27194   */\n      revert\n        /* \"#utility.yul\":27206:27323   */\n    tag_551:\n        /* \"#utility.yul\":27315:27316   */\n      0x00\n        /* \"#utility.yul\":27312:27313   */\n      dup1\n        /* \"#utility.yul\":27305:27317   */\n      revert\n        /* \"#utility.yul\":27329:27446   */\n    tag_318:\n        /* \"#utility.yul\":27438:27439   */\n      0x00\n        /* \"#utility.yul\":27435:27436   */\n      dup1\n        /* \"#utility.yul\":27428:27440   */\n      revert\n        /* \"#utility.yul\":27452:27569   */\n    tag_548:\n        /* \"#utility.yul\":27561:27562   */\n      0x00\n        /* \"#utility.yul\":27558:27559   */\n      dup1\n        /* \"#utility.yul\":27551:27563   */\n      revert\n        /* \"#utility.yul\":27575:27692   */\n    tag_309:\n        /* \"#utility.yul\":27684:27685   */\n      0x00\n        /* \"#utility.yul\":27681:27682   */\n      dup1\n        /* \"#utility.yul\":27674:27686   */\n      revert\n        /* \"#utility.yul\":27698:27815   */\n    tag_554:\n        /* \"#utility.yul\":27807:27808   */\n      0x00\n        /* \"#utility.yul\":27804:27805   */\n      dup1\n        /* \"#utility.yul\":27797:27809   */\n      revert\n        /* \"#utility.yul\":27821:27938   */\n    tag_348:\n        /* \"#utility.yul\":27930:27931   */\n      0x00\n        /* \"#utility.yul\":27927:27928   */\n      dup1\n        /* \"#utility.yul\":27920:27932   */\n      revert\n        /* \"#utility.yul\":27944:28061   */\n    tag_333:\n        /* \"#utility.yul\":28053:28054   */\n      0x00\n        /* \"#utility.yul\":28050:28051   */\n      dup1\n        /* \"#utility.yul\":28043:28055   */\n      revert\n        /* \"#utility.yul\":28067:28169   */\n    tag_406:\n        /* \"#utility.yul\":28108:28114   */\n      0x00\n        /* \"#utility.yul\":28159:28161   */\n      0x1f\n        /* \"#utility.yul\":28155:28162   */\n      not\n        /* \"#utility.yul\":28150:28152   */\n      0x1f\n        /* \"#utility.yul\":28143:28148   */\n      dup4\n        /* \"#utility.yul\":28139:28153   */\n      add\n        /* \"#utility.yul\":28135:28163   */\n      and\n        /* \"#utility.yul\":28125:28163   */\n      swap1\n      pop\n        /* \"#utility.yul\":28067:28169   */\n      swap2\n      swap1\n      pop\n      jump\t// out\n        /* \"#utility.yul\":28175:28353   */\n    tag_425:\n        /* \"#utility.yul\":28315:28345   */\n      0x73686f756c642068617665206e6f207061796d61737465724461746100000000\n        /* \"#utility.yul\":28311:28312   */\n      0x00\n        /* \"#utility.yul\":28303:28309   */\n      dup3\n        /* \"#utility.yul\":28299:28313   */\n      add\n        /* \"#utility.yul\":28292:28346   */\n      mstore\n        /* \"#utility.yul\":28175:28353   */\n      pop\n      jump\t// out\n        /* \"#utility.yul\":28359:28540   */\n    tag_430:\n        /* \"#utility.yul\":28499:28532   */\n      0x696e76616c696420666f7277617264657220666f7220726563697069656e7400\n        /* \"#utility.yul\":28495:28496   */\n      0x00\n        /* \"#utility.yul\":28487:28493   */\n      dup3\n        /* \"#utility.yul\":28483:28497   */\n      add\n        /* \"#utility.yul\":28476:28533   */\n      mstore\n        /* \"#utility.yul\":28359:28540   */\n      pop\n      jump\t// out\n        /* \"#utility.yul\":28546:28771   */\n    tag_435:\n        /* \"#utility.yul\":28686:28720   */\n      0x4f776e61626c653a206e6577206f776e657220697320746865207a65726f2061\n        /* \"#utility.yul\":28682:28683   */\n      0x00\n        /* \"#utility.yul\":28674:28680   */\n      dup3\n        /* \"#utility.yul\":28670:28684   */\n      add\n        /* \"#utility.yul\":28663:28721   */\n      mstore\n        /* \"#utility.yul\":28755:28763   */\n      0x6464726573730000000000000000000000000000000000000000000000000000\n        /* \"#utility.yul\":28750:28752   */\n      0x20\n        /* \"#utility.yul\":28742:28748   */\n      dup3\n        /* \"#utility.yul\":28738:28753   */\n      add\n        /* \"#utility.yul\":28731:28764   */\n      mstore\n        /* \"#utility.yul\":28546:28771   */\n      pop\n      jump\t// out\n        /* \"#utility.yul\":28777:28955   */\n    tag_440:\n        /* \"#utility.yul\":28917:28947   */\n      0x697354727573746564466f727761726465723a20726576657274656400000000\n        /* \"#utility.yul\":28913:28914   */\n      0x00\n        /* \"#utility.yul\":28905:28911   */\n      dup3\n        /* \"#utility.yul\":28901:28915   */\n      add\n        /* \"#utility.yul\":28894:28948   */\n      mstore\n        /* \"#utility.yul\":28777:28955   */\n      pop\n      jump\t// out\n        /* \"#utility.yul\":28961:29136   */\n    tag_445:\n        /* \"#utility.yul\":29101:29128   */\n      0x72656c6179206875622061646472657373206e6f742073657400000000000000\n        /* \"#utility.yul\":29097:29098   */\n      0x00\n        /* \"#utility.yul\":29089:29095   */\n      dup3\n        /* \"#utility.yul\":29085:29099   */\n      add\n        /* \"#utility.yul\":29078:29129   */\n      mstore\n        /* \"#utility.yul\":28961:29136   */\n      pop\n      jump\t// out\n        /* \"#utility.yul\":29142:29316   */\n    tag_450:\n        /* \"#utility.yul\":29282:29308   */\n      0x466f72776172646572206973206e6f7420747275737465640000000000000000\n        /* \"#utility.yul\":29278:29279   */\n      0x00\n        /* \"#utility.yul\":29270:29276   */\n      dup3\n        /* \"#utility.yul\":29266:29280   */\n      add\n        /* \"#utility.yul\":29259:29309   */\n      mstore\n        /* \"#utility.yul\":29142:29316   */\n      pop\n      jump\t// out\n        /* \"#utility.yul\":29322:29504   */\n    tag_455:\n        /* \"#utility.yul\":29462:29496   */\n      0x746172676574206973206e6f7420612076616c69642049466f72776172646572\n        /* \"#utility.yul\":29458:29459   */\n      0x00\n        /* \"#utility.yul\":29450:29456   */\n      dup3\n        /* \"#utility.yul\":29446:29460   */\n      add\n        /* \"#utility.yul\":29439:29497   */\n      mstore\n        /* \"#utility.yul\":29322:29504   */\n      pop\n      jump\t// out\n        /* \"#utility.yul\":29510:29692   */\n    tag_460:\n        /* \"#utility.yul\":29650:29684   */\n      0x697354727573746564466f727761726465723a2062616420726573706f6e7365\n        /* \"#utility.yul\":29646:29647   */\n      0x00\n        /* \"#utility.yul\":29638:29644   */\n      dup3\n        /* \"#utility.yul\":29634:29648   */\n      add\n        /* \"#utility.yul\":29627:29685   */\n      mstore\n        /* \"#utility.yul\":29510:29692   */\n      pop\n      jump\t// out\n        /* \"#utility.yul\":29698:29880   */\n    tag_465:\n        /* \"#utility.yul\":29838:29872   */\n      0x4f776e61626c653a2063616c6c6572206973206e6f7420746865206f776e6572\n        /* \"#utility.yul\":29834:29835   */\n      0x00\n        /* \"#utility.yul\":29826:29832   */\n      dup3\n        /* \"#utility.yul\":29822:29836   */\n      add\n        /* \"#utility.yul\":29815:29873   */\n      mstore\n        /* \"#utility.yul\":29698:29880   */\n      pop\n      jump\t// out\n        /* \"#utility.yul\":29886:30067   */\n    tag_470:\n        /* \"#utility.yul\":30026:30059   */\n      0x746172676574206973206e6f7420612076616c6964204952656c617948756200\n        /* \"#utility.yul\":30022:30023   */\n      0x00\n        /* \"#utility.yul\":30014:30020   */\n      dup3\n        /* \"#utility.yul\":30010:30024   */\n      add\n        /* \"#utility.yul\":30003:30060   */\n      mstore\n        /* \"#utility.yul\":29886:30067   */\n      pop\n      jump\t// out\n        /* \"#utility.yul\":30073:30253   */\n    tag_475:\n        /* \"#utility.yul\":30213:30245   */\n      0x63616e206f6e6c792062652063616c6c65642062792052656c61794875620000\n        /* \"#utility.yul\":30209:30210   */\n      0x00\n        /* \"#utility.yul\":30201:30207   */\n      dup3\n        /* \"#utility.yul\":30197:30211   */\n      add\n        /* \"#utility.yul\":30190:30246   */\n      mstore\n        /* \"#utility.yul\":30073:30253   */\n      pop\n      jump\t// out\n        /* \"#utility.yul\":30259:30437   */\n    tag_480:\n        /* \"#utility.yul\":30399:30429   */\n      0x76616c7565207472616e73666572206e6f7420737570706f7274656400000000\n        /* \"#utility.yul\":30395:30396   */\n      0x00\n        /* \"#utility.yul\":30387:30393   */\n      dup3\n        /* \"#utility.yul\":30383:30397   */\n      add\n        /* \"#utility.yul\":30376:30430   */\n      mstore\n        /* \"#utility.yul\":30259:30437   */\n      pop\n      jump\t// out\n        /* \"#utility.yul\":30443:30620   */\n    tag_485:\n        /* \"#utility.yul\":30583:30612   */\n      0x73686f756c642068617665206e6f20617070726f76616c446174610000000000\n        /* \"#utility.yul\":30579:30580   */\n      0x00\n        /* \"#utility.yul\":30571:30577   */\n      dup3\n        /* \"#utility.yul\":30567:30581   */\n      add\n        /* \"#utility.yul\":30560:30613   */\n      mstore\n        /* \"#utility.yul\":30443:30620   */\n      pop\n      jump\t// out\n        /* \"#utility.yul\":30626:30748   */\n    tag_283:\n        /* \"#utility.yul\":30699:30723   */\n      tag_616\n        /* \"#utility.yul\":30717:30722   */\n      dup2\n        /* \"#utility.yul\":30699:30723   */\n      tag_388\n      jump\t// in\n    tag_616:\n        /* \"#utility.yul\":30692:30697   */\n      dup2\n        /* \"#utility.yul\":30689:30724   */\n      eq\n        /* \"#utility.yul\":30679:30742   */\n      tag_617\n      jumpi\n        /* \"#utility.yul\":30738:30739   */\n      0x00\n        /* \"#utility.yul\":30735:30736   */\n      dup1\n        /* \"#utility.yul\":30728:30740   */\n      revert\n        /* \"#utility.yul\":30679:30742   */\n    tag_617:\n        /* \"#utility.yul\":30626:30748   */\n      pop\n      jump\t// out\n        /* \"#utility.yul\":30754:30892   */\n    tag_287:\n        /* \"#utility.yul\":30835:30867   */\n      tag_619\n        /* \"#utility.yul\":30861:30866   */\n      dup2\n        /* \"#utility.yul\":30835:30867   */\n      tag_384\n      jump\t// in\n    tag_619:\n        /* \"#utility.yul\":30828:30833   */\n      dup2\n        /* \"#utility.yul\":30825:30868   */\n      eq\n        /* \"#utility.yul\":30815:30886   */\n      tag_620\n      jumpi\n        /* \"#utility.yul\":30882:30883   */\n      0x00\n        /* \"#utility.yul\":30879:30880   */\n      dup1\n        /* \"#utility.yul\":30872:30884   */\n      revert\n        /* \"#utility.yul\":30815:30886   */\n    tag_620:\n        /* \"#utility.yul\":30754:30892   */\n      pop\n      jump\t// out\n        /* \"#utility.yul\":30898:31014   */\n    tag_291:\n        /* \"#utility.yul\":30968:30989   */\n      tag_622\n        /* \"#utility.yul\":30983:30988   */\n      dup2\n        /* \"#utility.yul\":30968:30989   */\n      tag_392\n      jump\t// in\n    tag_622:\n        /* \"#utility.yul\":30961:30966   */\n      dup2\n        /* \"#utility.yul\":30958:30990   */\n      eq\n        /* \"#utility.yul\":30948:31008   */\n      tag_623\n      jumpi\n        /* \"#utility.yul\":31004:31005   */\n      0x00\n        /* \"#utility.yul\":31001:31002   */\n      dup1\n        /* \"#utility.yul\":30994:31006   */\n      revert\n        /* \"#utility.yul\":30948:31008   */\n    tag_623:\n        /* \"#utility.yul\":30898:31014   */\n      pop\n      jump\t// out\n        /* \"#utility.yul\":31020:31140   */\n    tag_298:\n        /* \"#utility.yul\":31092:31115   */\n      tag_625\n        /* \"#utility.yul\":31109:31114   */\n      dup2\n        /* \"#utility.yul\":31092:31115   */\n      tag_396\n      jump\t// in\n    tag_625:\n        /* \"#utility.yul\":31085:31090   */\n      dup2\n        /* \"#utility.yul\":31082:31116   */\n      eq\n        /* \"#utility.yul\":31072:31134   */\n      tag_626\n      jumpi\n        /* \"#utility.yul\":31130:31131   */\n      0x00\n        /* \"#utility.yul\":31127:31128   */\n      dup1\n        /* \"#utility.yul\":31120:31132   */\n      revert\n        /* \"#utility.yul\":31072:31134   */\n    tag_626:\n        /* \"#utility.yul\":31020:31140   */\n      pop\n      jump\t// out\n        /* \"#utility.yul\":31146:31302   */\n    tag_313:\n        /* \"#utility.yul\":31236:31277   */\n      tag_628\n        /* \"#utility.yul\":31271:31276   */\n      dup2\n        /* \"#utility.yul\":31236:31277   */\n      tag_581\n      jump\t// in\n    tag_628:\n        /* \"#utility.yul\":31229:31234   */\n      dup2\n        /* \"#utility.yul\":31226:31278   */\n      eq\n        /* \"#utility.yul\":31216:31296   */\n      tag_629\n      jumpi\n        /* \"#utility.yul\":31292:31293   */\n      0x00\n        /* \"#utility.yul\":31289:31290   */\n      dup1\n        /* \"#utility.yul\":31282:31294   */\n      revert\n        /* \"#utility.yul\":31216:31296   */\n    tag_629:\n        /* \"#utility.yul\":31146:31302   */\n      pop\n      jump\t// out\n        /* \"#utility.yul\":31308:31430   */\n    tag_326:\n        /* \"#utility.yul\":31381:31405   */\n      tag_631\n        /* \"#utility.yul\":31399:31404   */\n      dup2\n        /* \"#utility.yul\":31381:31405   */\n      tag_495\n      jump\t// in\n    tag_631:\n        /* \"#utility.yul\":31374:31379   */\n      dup2\n        /* \"#utility.yul\":31371:31406   */\n      eq\n        /* \"#utility.yul\":31361:31424   */\n      tag_632\n      jumpi\n        /* \"#utility.yul\":31420:31421   */\n      0x00\n        /* \"#utility.yul\":31417:31418   */\n      dup1\n        /* \"#utility.yul\":31410:31422   */\n      revert\n        /* \"#utility.yul\":31361:31424   */\n    tag_632:\n        /* \"#utility.yul\":31308:31430   */\n      pop\n      jump\t// out\n    stop\n    data_eb97c41b3f651080603cbd3c7c438c7324cd0069264d3abe764ec765afe6a3d8 332e302e302d626574612e332b6f70656e67736e2e61636365707465766572797468696e672e697061796d6173746572\n\n    auxdata: 0xa264697066735822122012ee77f9b77e33f515347c9611b25c36ac06df89a6a9dc2a82e6ea0ec1a63a2264736f6c63430008070033\n}\n",
				"bytecode": {
					"linkReferences": {},
					"object": "6080604052600060035534801561001557600080fd5b5061003261002761003760201b60201c565b61003f60201b60201c565b610103565b600033905090565b60008060009054906101000a900473ffffffffffffffffffffffffffffffffffffffff169050816000806101000a81548173ffffffffffffffffffffffffffffffffffffffff021916908373ffffffffffffffffffffffffffffffffffffffff1602179055508173ffffffffffffffffffffffffffffffffffffffff168173ffffffffffffffffffffffffffffffffffffffff167f8be0079c531659141344cd1fd0a4f28419497f9722a3daafe3b4186f6b6457e060405160405180910390a35050565b61220780620001136000396000f3fe6080604052600436106101175760003560e01c80638da5cb5b116100a0578063ce1b815f11610064578063ce1b815f146104a8578063da742228146104d3578063df463a66146104fc578063f2fde38b14610527578063f9c002f7146105505761023e565b80638da5cb5b146103d1578063921276ea146103fc578063b039a88f14610427578063b90b41cf14610452578063bbdaa3c91461047d5761023e565b80635c5e3db1116100e75780635c5e3db114610312578063715018a61461033d57806376fa01c3146103545780637bb052641461037d5780637bdf2ec7146103a65761023e565b8062be5dd41461024357806301ffc9a71461028157806312065fe0146102be5780632d14c4b7146102e95761023e565b3661023e57600073ffffffffffffffffffffffffffffffffffffffff16600160009054906101000a900473ffffffffffffffffffffffffffffffffffffffff1673ffffffffffffffffffffffffffffffffffffffff1614156101ae576040517f08c379a00000000000000000000000000000000000000000000000000000000081526004016101a590611b01565b60405180910390fd5b600160009054906101000a900473ffffffffffffffffffffffffffffffffffffffff1673ffffffffffffffffffffffffffffffffffffffff1663aa67c91934306040518363ffffffff1660e01b815260040161020a91906119b5565b6000604051808303818588803b15801561022357600080fd5b505af1158015610237573d6000803e3d6000fd5b5050505050005b600080fd5b34801561024f57600080fd5b5061026a60048036038101906102659190611555565b61057b565b604051610278929190611a2f565b60405180910390f35b34801561028d57600080fd5b506102a860048036038101906102a39190611457565b6105c9565b6040516102b591906119f9565b60405180910390f35b3480156102ca57600080fd5b506102d36106ab565b6040516102e09190611c3c565b60405180910390f35b3480156102f557600080fd5b50610310600480360381019061030b9190611645565b61075d565b005b34801561031e57600080fd5b506103276107f8565b6040516103349190611c3c565b60405180910390f35b34801561034957600080fd5b506103526107fe565b005b34801561036057600080fd5b5061037b60048036038101906103769190611484565b610812565b005b34801561038957600080fd5b506103a4600480360381019061039f9190611528565b61082e565b005b3480156103b257600080fd5b506103bb610902565b6040516103c891906119b5565b60405180910390f35b3480156103dd57600080fd5b506103e661092c565b6040516103f391906119b5565b60405180910390f35b34801561040857600080fd5b50610411610955565b60405161041e9190611a5f565b60405180910390f35b34801561043357600080fd5b5061043c610975565b6040516104499190611c21565b60405180910390f35b34801561045e57600080fd5b506104676109bb565b6040516104749190611c3c565b60405180910390f35b34801561048957600080fd5b506104926109c1565b60405161049f9190611c3c565b60405180910390f35b3480156104b457600080fd5b506104bd6109c8565b6040516104ca91906119b5565b60405180910390f35b3480156104df57600080fd5b506104fa60048036038101906104f591906113fd565b6109f2565b005b34801561050857600080fd5b50610511610ac6565b60405161051e9190611c3c565b60405180910390f35b34801561053357600080fd5b5061054e600480360381019061054991906113fd565b610ada565b005b34801561055c57600080fd5b50610565610b5e565b6040516105729190611c3c565b60405180910390f35b60606000610587610b65565b61059088610bdc565b61059988610c7e565b6105a288610cd7565b6105ac8585610d3d565b6105ba888888888888610d87565b91509150965096945050505050565b60007fe1ab2dea000000000000000000000000000000000000000000000000000000007bffffffffffffffffffffffffffffffffffffffffffffffffffffffff1916827bffffffffffffffffffffffffffffffffffffffffffffffffffffffff1916148061069457507f0e083076000000000000000000000000000000000000000000000000000000007bffffffffffffffffffffffffffffffffffffffffffffffffffffffff1916827bffffffffffffffffffffffffffffffffffffffffffffffffffffffff1916145b806106a457506106a382610dac565b5b9050919050565b6000600160009054906101000a900473ffffffffffffffffffffffffffffffffffffffff1673ffffffffffffffffffffffffffffffffffffffff166370a08231306040518263ffffffff1660e01b815260040161070891906119b5565b60206040518083038186803b15801561072057600080fd5b505afa158015610734573d6000803e3d6000fd5b505050506040513d601f19601f820116820180604052508101906107589190611618565b905090565b610765610e16565b600160009054906101000a900473ffffffffffffffffffffffffffffffffffffffff1673ffffffffffffffffffffffffffffffffffffffff1663f3fef3a382846040518363ffffffff1660e01b81526004016107c29291906119d0565b600060405180830381600087803b1580156107dc57600080fd5b505af11580156107f0573d6000803e3d6000fd5b505050505050565b61290481565b610806610e16565b6108106000610e94565b565b61081a610b65565b6108278585858585610f58565b5050505050565b610836610e16565b61087f7fe9fb30f7000000000000000000000000000000000000000000000000000000008273ffffffffffffffffffffffffffffffffffffffff16610f5f90919063ffffffff16565b6108be576040517f08c379a00000000000000000000000000000000000000000000000000000000081526004016108b590611ba1565b60405180910390fd5b80600160006101000a81548173ffffffffffffffffffffffffffffffffffffffff021916908373ffffffffffffffffffffffffffffffffffffffff16021790555050565b6000600160009054906101000a900473ffffffffffffffffffffffffffffffffffffffff16905090565b60008060009054906101000a900473ffffffffffffffffffffffffffffffffffffffff16905090565b60606040518060600160405280603081526020016121a260309139905090565b61097d611298565b604051806080016040528061c350620186a06109999190611d4e565b8152602001620186a081526020016201adb08152602001612904815250905090565b61c35081565b6201adb081565b6000600260009054906101000a900473ffffffffffffffffffffffffffffffffffffffff16905090565b6109fa610e16565b610a437f25e23e64000000000000000000000000000000000000000000000000000000008273ffffffffffffffffffffffffffffffffffffffff16610f5f90919063ffffffff16565b610a82576040517f08c379a0000000000000000000000000000000000000000000000000000000008152600401610a7990611b41565b60405180910390fd5b80600260006101000a81548173ffffffffffffffffffffffffffffffffffffffff021916908373ffffffffffffffffffffffffffffffffffffffff16021790555050565b61c350620186a0610ad79190611d4e565b81565b610ae2610e16565b600073ffffffffffffffffffffffffffffffffffffffff168173ffffffffffffffffffffffffffffffffffffffff161415610b52576040517f08c379a0000000000000000000000000000000000000000000000000000000008152600401610b4990611ac1565b60405180910390fd5b610b5b81610e94565b50565b620186a081565b610b6d610902565b73ffffffffffffffffffffffffffffffffffffffff163373ffffffffffffffffffffffffffffffffffffffff1614610bda576040517f08c379a0000000000000000000000000000000000000000000000000000000008152600401610bd190611bc1565b60405180910390fd5b565b808060200190610bec9190611ce2565b60a0016020810190610bfe91906113fd565b73ffffffffffffffffffffffffffffffffffffffff16610c1c6109c8565b73ffffffffffffffffffffffffffffffffffffffff1614610c72576040517f08c379a0000000000000000000000000000000000000000000000000000000008152600401610c6990611b21565b60405180910390fd5b610c7b81610f84565b50565b6000818060000190610c909190611cba565b6040013514610cd4576040517f08c379a0000000000000000000000000000000000000000000000000000000008152600401610ccb90611be1565b60405180910390fd5b50565b6000818060200190610ce99190611ce2565b8060c00190610cf89190611c57565b905014610d3a576040517f08c379a0000000000000000000000000000000000000000000000000000000008152600401610d3190611a81565b60405180910390fd5b50565b60008282905014610d83576040517f08c379a0000000000000000000000000000000000000000000000000000000008152600401610d7a90611c01565b60405180910390fd5b5050565b6060600080604051806020016040528060008152509091509150965096945050505050565b60007f01ffc9a7000000000000000000000000000000000000000000000000000000007bffffffffffffffffffffffffffffffffffffffffffffffffffffffff1916827bffffffffffffffffffffffffffffffffffffffffffffffffffffffff1916149050919050565b610e1e611184565b73ffffffffffffffffffffffffffffffffffffffff16610e3c61092c565b73ffffffffffffffffffffffffffffffffffffffff1614610e92576040517f08c379a0000000000000000000000000000000000000000000000000000000008152600401610e8990611b81565b60405180910390fd5b565b60008060009054906101000a900473ffffffffffffffffffffffffffffffffffffffff169050816000806101000a81548173ffffffffffffffffffffffffffffffffffffffff021916908373ffffffffffffffffffffffffffffffffffffffff1602179055508173ffffffffffffffffffffffffffffffffffffffff168173ffffffffffffffffffffffffffffffffffffffff167f8be0079c531659141344cd1fd0a4f28419497f9722a3daafe3b4186f6b6457e060405160405180910390a35050565b5050505050565b6000610f6a8361118c565b8015610f7c5750610f7b83836111d9565b5b905092915050565b600080828060000190610f979190611cba565b6020016020810190610fa991906113fd565b73ffffffffffffffffffffffffffffffffffffffff1663572b6c0560e01b848060200190610fd79190611ce2565b60a0016020810190610fe991906113fd565b604051602401610ff991906119b5565b604051602081830303815290604052907bffffffffffffffffffffffffffffffffffffffffffffffffffffffff19166020820180517bffffffffffffffffffffffffffffffffffffffffffffffffffffffff8381831617835250505050604051611063919061199e565b600060405180830381855afa9150503d806000811461109e576040519150601f19603f3d011682016040523d82523d6000602084013e6110a3565b606091505b5091509150816110e8576040517f08c379a00000000000000000000000000000000000000000000000000000000081526004016110df90611ae1565b60405180910390fd5b602081511461112c576040517f08c379a000000000000000000000000000000000000000000000000000000000815260040161112390611b61565b60405180910390fd5b80806020019051810190611140919061142a565b61117f576040517f08c379a000000000000000000000000000000000000000000000000000000000815260040161117690611aa1565b60405180910390fd5b505050565b600033905090565b60006111b8827f01ffc9a7000000000000000000000000000000000000000000000000000000006111d9565b80156111d257506111d08263ffffffff60e01b6111d9565b155b9050919050565b6000806301ffc9a760e01b836040516024016111f59190611a14565b604051602081830303815290604052907bffffffffffffffffffffffffffffffffffffffffffffffffffffffff19166020820180517bffffffffffffffffffffffffffffffffffffffffffffffffffffffff838183161783525050505090506000806000602060008551602087018a617530fa92503d91506000519050828015611280575060208210155b801561128c5750600081115b94505050505092915050565b6040518060800160405280600081526020016000815260200160008152602001600081525090565b6000813590506112cf81612117565b92915050565b6000813590506112e48161212e565b92915050565b6000813590506112f981612145565b92915050565b60008151905061130e81612145565b92915050565b6000813590506113238161215c565b92915050565b60008083601f84011261133f5761133e611ea3565b5b8235905067ffffffffffffffff81111561135c5761135b611e9e565b5b60208301915083600182028301111561137857611377611eb7565b5b9250929050565b60008135905061138e81612173565b92915050565b600061010082840312156113ab576113aa611ead565b5b81905092915050565b6000604082840312156113ca576113c9611ead565b5b81905092915050565b6000813590506113e28161218a565b92915050565b6000815190506113f78161218a565b92915050565b60006020828403121561141357611412611ec6565b5b6000611421848285016112c0565b91505092915050565b6000602082840312156114405761143f611ec6565b5b600061144e848285016112ff565b91505092915050565b60006020828403121561146d5761146c611ec6565b5b600061147b84828501611314565b91505092915050565b6000806000806000608086880312156114a05761149f611ec6565b5b600086013567ffffffffffffffff8111156114be576114bd611ec1565b5b6114ca88828901611329565b955095505060206114dd888289016112ea565b93505060406114ee888289016113d3565b925050606086013567ffffffffffffffff81111561150f5761150e611ec1565b5b61151b88828901611394565b9150509295509295909350565b60006020828403121561153e5761153d611ec6565b5b600061154c8482850161137f565b91505092915050565b6000806000806000806080878903121561157257611571611ec6565b5b600087013567ffffffffffffffff8111156115905761158f611ec1565b5b61159c89828a016113b4565b965050602087013567ffffffffffffffff8111156115bd576115bc611ec1565b5b6115c989828a01611329565b9550955050604087013567ffffffffffffffff8111156115ec576115eb611ec1565b5b6115f889828a01611329565b9350935050606061160b89828a016113d3565b9150509295509295509295565b60006020828403121561162e5761162d611ec6565b5b600061163c848285016113e8565b91505092915050565b6000806040838503121561165c5761165b611ec6565b5b600061166a858286016113d3565b925050602061167b858286016112d5565b9150509250929050565b61168e81611db6565b82525050565b61169d81611da4565b82525050565b6116ac81611dc8565b82525050565b6116bb81611dd4565b82525050565b60006116cc82611d0b565b6116d68185611d21565b93506116e6818560208601611e3c565b6116ef81611ecb565b840191505092915050565b600061170582611d0b565b61170f8185611d32565b935061171f818560208601611e3c565b80840191505092915050565b600061173682611d16565b6117408185611d3d565b9350611750818560208601611e3c565b61175981611ecb565b840191505092915050565b6000611771601c83611d3d565b915061177c82611edc565b602082019050919050565b6000611794601f83611d3d565b915061179f82611f05565b602082019050919050565b60006117b7602683611d3d565b91506117c282611f2e565b604082019050919050565b60006117da601c83611d3d565b91506117e582611f7d565b602082019050919050565b60006117fd601983611d3d565b915061180882611fa6565b602082019050919050565b6000611820601883611d3d565b915061182b82611fcf565b602082019050919050565b6000611843602083611d3d565b915061184e82611ff8565b602082019050919050565b6000611866602083611d3d565b915061187182612021565b602082019050919050565b6000611889602083611d3d565b91506118948261204a565b602082019050919050565b60006118ac601f83611d3d565b91506118b782612073565b602082019050919050565b60006118cf601e83611d3d565b91506118da8261209c565b602082019050919050565b60006118f2601c83611d3d565b91506118fd826120c5565b602082019050919050565b6000611915601b83611d3d565b9150611920826120ee565b602082019050919050565b6080820160008201516119416000850182611980565b5060208201516119546020850182611980565b5060408201516119676040850182611980565b50606082015161197a6060850182611980565b50505050565b61198981611e32565b82525050565b61199881611e32565b82525050565b60006119aa82846116fa565b915081905092915050565b60006020820190506119ca6000830184611694565b92915050565b60006040820190506119e56000830185611685565b6119f2602083018461198f565b9392505050565b6000602082019050611a0e60008301846116a3565b92915050565b6000602082019050611a2960008301846116b2565b92915050565b60006040820190508181036000830152611a4981856116c1565b9050611a5860208301846116a3565b9392505050565b60006020820190508181036000830152611a79818461172b565b905092915050565b60006020820190508181036000830152611a9a81611764565b9050919050565b60006020820190508181036000830152611aba81611787565b9050919050565b60006020820190508181036000830152611ada816117aa565b9050919050565b60006020820190508181036000830152611afa816117cd565b9050919050565b60006020820190508181036000830152611b1a816117f0565b9050919050565b60006020820190508181036000830152611b3a81611813565b9050919050565b60006020820190508181036000830152611b5a81611836565b9050919050565b60006020820190508181036000830152611b7a81611859565b9050919050565b60006020820190508181036000830152611b9a8161187c565b9050919050565b60006020820190508181036000830152611bba8161189f565b9050919050565b60006020820190508181036000830152611bda816118c2565b9050919050565b60006020820190508181036000830152611bfa816118e5565b9050919050565b60006020820190508181036000830152611c1a81611908565b9050919050565b6000608082019050611c36600083018461192b565b92915050565b6000602082019050611c51600083018461198f565b92915050565b60008083356001602003843603038112611c7457611c73611eb2565b5b80840192508235915067ffffffffffffffff821115611c9657611c95611ea8565b5b602083019250600182023603831315611cb257611cb1611ebc565b5b509250929050565b60008235600160e003833603038112611cd657611cd5611eb2565b5b80830191505092915050565b60008235600161010003833603038112611cff57611cfe611eb2565b5b80830191505092915050565b600081519050919050565b600081519050919050565b600082825260208201905092915050565b600081905092915050565b600082825260208201905092915050565b6000611d5982611e32565b9150611d6483611e32565b9250827fffffffffffffffffffffffffffffffffffffffffffffffffffffffffffffffff03821115611d9957611d98611e6f565b5b828201905092915050565b6000611daf82611e12565b9050919050565b6000611dc182611e12565b9050919050565b60008115159050919050565b60007fffffffff0000000000000000000000000000000000000000000000000000000082169050919050565b6000611e0b82611da4565b9050919050565b600073ffffffffffffffffffffffffffffffffffffffff82169050919050565b6000819050919050565b60005b83811015611e5a578082015181840152602081019050611e3f565b83811115611e69576000848401525b50505050565b7f4e487b7100000000000000000000000000000000000000000000000000000000600052601160045260246000fd5b600080fd5b600080fd5b600080fd5b600080fd5b600080fd5b600080fd5b600080fd5b600080fd5b600080fd5b6000601f19601f8301169050919050565b7f73686f756c642068617665206e6f207061796d61737465724461746100000000600082015250565b7f696e76616c696420666f7277617264657220666f7220726563697069656e7400600082015250565b7f4f776e61626c653a206e6577206f776e657220697320746865207a65726f206160008201527f6464726573730000000000000000000000000000000000000000000000000000602082015250565b7f697354727573746564466f727761726465723a20726576657274656400000000600082015250565b7f72656c6179206875622061646472657373206e6f742073657400000000000000600082015250565b7f466f72776172646572206973206e6f7420747275737465640000000000000000600082015250565b7f746172676574206973206e6f7420612076616c69642049466f72776172646572600082015250565b7f697354727573746564466f727761726465723a2062616420726573706f6e7365600082015250565b7f4f776e61626c653a2063616c6c6572206973206e6f7420746865206f776e6572600082015250565b7f746172676574206973206e6f7420612076616c6964204952656c617948756200600082015250565b7f63616e206f6e6c792062652063616c6c65642062792052656c61794875620000600082015250565b7f76616c7565207472616e73666572206e6f7420737570706f7274656400000000600082015250565b7f73686f756c642068617665206e6f20617070726f76616c446174610000000000600082015250565b61212081611da4565b811461212b57600080fd5b50565b61213781611db6565b811461214257600080fd5b50565b61214e81611dc8565b811461215957600080fd5b50565b61216581611dd4565b811461217057600080fd5b50565b61217c81611e00565b811461218757600080fd5b50565b61219381611e32565b811461219e57600080fd5b5056fe332e302e302d626574612e332b6f70656e67736e2e61636365707465766572797468696e672e697061796d6173746572a264697066735822122012ee77f9b77e33f515347c9611b25c36ac06df89a6a9dc2a82e6ea0ec1a63a2264736f6c63430008070033",
					"opcodes": "PUSH1 0x80 PUSH1 0x40 MSTORE PUSH1 0x0 PUSH1 0x3 SSTORE CALLVALUE DUP1 ISZERO PUSH2 0x15 JUMPI PUSH1 0x0 DUP1 REVERT JUMPDEST POP PUSH2 0x32 PUSH2 0x27 PUSH2 0x37 PUSH1 0x20 SHL PUSH1 0x20 SHR JUMP JUMPDEST PUSH2 0x3F PUSH1 0x20 SHL PUSH1 0x20 SHR JUMP JUMPDEST PUSH2 0x103 JUMP JUMPDEST PUSH1 0x0 CALLER SWAP1 POP SWAP1 JUMP JUMPDEST PUSH1 0x0 DUP1 PUSH1 0x0 SWAP1 SLOAD SWAP1 PUSH2 0x100 EXP SWAP1 DIV PUSH20 0xFFFFFFFFFFFFFFFFFFFFFFFFFFFFFFFFFFFFFFFF AND SWAP1 POP DUP2 PUSH1 0x0 DUP1 PUSH2 0x100 EXP DUP2 SLOAD DUP2 PUSH20 0xFFFFFFFFFFFFFFFFFFFFFFFFFFFFFFFFFFFFFFFF MUL NOT AND SWAP1 DUP4 PUSH20 0xFFFFFFFFFFFFFFFFFFFFFFFFFFFFFFFFFFFFFFFF AND MUL OR SWAP1 SSTORE POP DUP2 PUSH20 0xFFFFFFFFFFFFFFFFFFFFFFFFFFFFFFFFFFFFFFFF AND DUP2 PUSH20 0xFFFFFFFFFFFFFFFFFFFFFFFFFFFFFFFFFFFFFFFF AND PUSH32 0x8BE0079C531659141344CD1FD0A4F28419497F9722A3DAAFE3B4186F6B6457E0 PUSH1 0x40 MLOAD PUSH1 0x40 MLOAD DUP1 SWAP2 SUB SWAP1 LOG3 POP POP JUMP JUMPDEST PUSH2 0x2207 DUP1 PUSH3 0x113 PUSH1 0x0 CODECOPY PUSH1 0x0 RETURN INVALID PUSH1 0x80 PUSH1 0x40 MSTORE PUSH1 0x4 CALLDATASIZE LT PUSH2 0x117 JUMPI PUSH1 0x0 CALLDATALOAD PUSH1 0xE0 SHR DUP1 PUSH4 0x8DA5CB5B GT PUSH2 0xA0 JUMPI DUP1 PUSH4 0xCE1B815F GT PUSH2 0x64 JUMPI DUP1 PUSH4 0xCE1B815F EQ PUSH2 0x4A8 JUMPI DUP1 PUSH4 0xDA742228 EQ PUSH2 0x4D3 JUMPI DUP1 PUSH4 0xDF463A66 EQ PUSH2 0x4FC JUMPI DUP1 PUSH4 0xF2FDE38B EQ PUSH2 0x527 JUMPI DUP1 PUSH4 0xF9C002F7 EQ PUSH2 0x550 JUMPI PUSH2 0x23E JUMP JUMPDEST DUP1 PUSH4 0x8DA5CB5B EQ PUSH2 0x3D1 JUMPI DUP1 PUSH4 0x921276EA EQ PUSH2 0x3FC JUMPI DUP1 PUSH4 0xB039A88F EQ PUSH2 0x427 JUMPI DUP1 PUSH4 0xB90B41CF EQ PUSH2 0x452 JUMPI DUP1 PUSH4 0xBBDAA3C9 EQ PUSH2 0x47D JUMPI PUSH2 0x23E JUMP JUMPDEST DUP1 PUSH4 0x5C5E3DB1 GT PUSH2 0xE7 JUMPI DUP1 PUSH4 0x5C5E3DB1 EQ PUSH2 0x312 JUMPI DUP1 PUSH4 0x715018A6 EQ PUSH2 0x33D JUMPI DUP1 PUSH4 0x76FA01C3 EQ PUSH2 0x354 JUMPI DUP1 PUSH4 0x7BB05264 EQ PUSH2 0x37D JUMPI DUP1 PUSH4 0x7BDF2EC7 EQ PUSH2 0x3A6 JUMPI PUSH2 0x23E JUMP JUMPDEST DUP1 PUSH3 0xBE5DD4 EQ PUSH2 0x243 JUMPI DUP1 PUSH4 0x1FFC9A7 EQ PUSH2 0x281 JUMPI DUP1 PUSH4 0x12065FE0 EQ PUSH2 0x2BE JUMPI DUP1 PUSH4 0x2D14C4B7 EQ PUSH2 0x2E9 JUMPI PUSH2 0x23E JUMP JUMPDEST CALLDATASIZE PUSH2 0x23E JUMPI PUSH1 0x0 PUSH20 0xFFFFFFFFFFFFFFFFFFFFFFFFFFFFFFFFFFFFFFFF AND PUSH1 0x1 PUSH1 0x0 SWAP1 SLOAD SWAP1 PUSH2 0x100 EXP SWAP1 DIV PUSH20 0xFFFFFFFFFFFFFFFFFFFFFFFFFFFFFFFFFFFFFFFF AND PUSH20 0xFFFFFFFFFFFFFFFFFFFFFFFFFFFFFFFFFFFFFFFF AND EQ ISZERO PUSH2 0x1AE JUMPI PUSH1 0x40 MLOAD PUSH32 0x8C379A000000000000000000000000000000000000000000000000000000000 DUP2 MSTORE PUSH1 0x4 ADD PUSH2 0x1A5 SWAP1 PUSH2 0x1B01 JUMP JUMPDEST PUSH1 0x40 MLOAD DUP1 SWAP2 SUB SWAP1 REVERT JUMPDEST PUSH1 0x1 PUSH1 0x0 SWAP1 SLOAD SWAP1 PUSH2 0x100 EXP SWAP1 DIV PUSH20 0xFFFFFFFFFFFFFFFFFFFFFFFFFFFFFFFFFFFFFFFF AND PUSH20 0xFFFFFFFFFFFFFFFFFFFFFFFFFFFFFFFFFFFFFFFF AND PUSH4 0xAA67C919 CALLVALUE ADDRESS PUSH1 0x40 MLOAD DUP4 PUSH4 0xFFFFFFFF AND PUSH1 0xE0 SHL DUP2 MSTORE PUSH1 0x4 ADD PUSH2 0x20A SWAP2 SWAP1 PUSH2 0x19B5 JUMP JUMPDEST PUSH1 0x0 PUSH1 0x40 MLOAD DUP1 DUP4 SUB DUP2 DUP6 DUP9 DUP1 EXTCODESIZE ISZERO DUP1 ISZERO PUSH2 0x223 JUMPI PUSH1 0x0 DUP1 REVERT JUMPDEST POP GAS CALL ISZERO DUP1 ISZERO PUSH2 0x237 JUMPI RETURNDATASIZE PUSH1 0x0 DUP1 RETURNDATACOPY RETURNDATASIZE PUSH1 0x0 REVERT JUMPDEST POP POP POP POP POP STOP JUMPDEST PUSH1 0x0 DUP1 REVERT JUMPDEST CALLVALUE DUP1 ISZERO PUSH2 0x24F JUMPI PUSH1 0x0 DUP1 REVERT JUMPDEST POP PUSH2 0x26A PUSH1 0x4 DUP1 CALLDATASIZE SUB DUP2 ADD SWAP1 PUSH2 0x265 SWAP2 SWAP1 PUSH2 0x1555 JUMP JUMPDEST PUSH2 0x57B JUMP JUMPDEST PUSH1 0x40 MLOAD PUSH2 0x278 SWAP3 SWAP2 SWAP1 PUSH2 0x1A2F JUMP JUMPDEST PUSH1 0x40 MLOAD DUP1 SWAP2 SUB SWAP1 RETURN JUMPDEST CALLVALUE DUP1 ISZERO PUSH2 0x28D JUMPI PUSH1 0x0 DUP1 REVERT JUMPDEST POP PUSH2 0x2A8 PUSH1 0x4 DUP1 CALLDATASIZE SUB DUP2 ADD SWAP1 PUSH2 0x2A3 SWAP2 SWAP1 PUSH2 0x1457 JUMP JUMPDEST PUSH2 0x5C9 JUMP JUMPDEST PUSH1 0x40 MLOAD PUSH2 0x2B5 SWAP2 SWAP1 PUSH2 0x19F9 JUMP JUMPDEST PUSH1 0x40 MLOAD DUP1 SWAP2 SUB SWAP1 RETURN JUMPDEST CALLVALUE DUP1 ISZERO PUSH2 0x2CA JUMPI PUSH1 0x0 DUP1 REVERT JUMPDEST POP PUSH2 0x2D3 PUSH2 0x6AB JUMP JUMPDEST PUSH1 0x40 MLOAD PUSH2 0x2E0 SWAP2 SWAP1 PUSH2 0x1C3C JUMP JUMPDEST PUSH1 0x40 MLOAD DUP1 SWAP2 SUB SWAP1 RETURN JUMPDEST CALLVALUE DUP1 ISZERO PUSH2 0x2F5 JUMPI PUSH1 0x0 DUP1 REVERT JUMPDEST POP PUSH2 0x310 PUSH1 0x4 DUP1 CALLDATASIZE SUB DUP2 ADD SWAP1 PUSH2 0x30B SWAP2 SWAP1 PUSH2 0x1645 JUMP JUMPDEST PUSH2 0x75D JUMP JUMPDEST STOP JUMPDEST CALLVALUE DUP1 ISZERO PUSH2 0x31E JUMPI PUSH1 0x0 DUP1 REVERT JUMPDEST POP PUSH2 0x327 PUSH2 0x7F8 JUMP JUMPDEST PUSH1 0x40 MLOAD PUSH2 0x334 SWAP2 SWAP1 PUSH2 0x1C3C JUMP JUMPDEST PUSH1 0x40 MLOAD DUP1 SWAP2 SUB SWAP1 RETURN JUMPDEST CALLVALUE DUP1 ISZERO PUSH2 0x349 JUMPI PUSH1 0x0 DUP1 REVERT JUMPDEST POP PUSH2 0x352 PUSH2 0x7FE JUMP JUMPDEST STOP JUMPDEST CALLVALUE DUP1 ISZERO PUSH2 0x360 JUMPI PUSH1 0x0 DUP1 REVERT JUMPDEST POP PUSH2 0x37B PUSH1 0x4 DUP1 CALLDATASIZE SUB DUP2 ADD SWAP1 PUSH2 0x376 SWAP2 SWAP1 PUSH2 0x1484 JUMP JUMPDEST PUSH2 0x812 JUMP JUMPDEST STOP JUMPDEST CALLVALUE DUP1 ISZERO PUSH2 0x389 JUMPI PUSH1 0x0 DUP1 REVERT JUMPDEST POP PUSH2 0x3A4 PUSH1 0x4 DUP1 CALLDATASIZE SUB DUP2 ADD SWAP1 PUSH2 0x39F SWAP2 SWAP1 PUSH2 0x1528 JUMP JUMPDEST PUSH2 0x82E JUMP JUMPDEST STOP JUMPDEST CALLVALUE DUP1 ISZERO PUSH2 0x3B2 JUMPI PUSH1 0x0 DUP1 REVERT JUMPDEST POP PUSH2 0x3BB PUSH2 0x902 JUMP JUMPDEST PUSH1 0x40 MLOAD PUSH2 0x3C8 SWAP2 SWAP1 PUSH2 0x19B5 JUMP JUMPDEST PUSH1 0x40 MLOAD DUP1 SWAP2 SUB SWAP1 RETURN JUMPDEST CALLVALUE DUP1 ISZERO PUSH2 0x3DD JUMPI PUSH1 0x0 DUP1 REVERT JUMPDEST POP PUSH2 0x3E6 PUSH2 0x92C JUMP JUMPDEST PUSH1 0x40 MLOAD PUSH2 0x3F3 SWAP2 SWAP1 PUSH2 0x19B5 JUMP JUMPDEST PUSH1 0x40 MLOAD DUP1 SWAP2 SUB SWAP1 RETURN JUMPDEST CALLVALUE DUP1 ISZERO PUSH2 0x408 JUMPI PUSH1 0x0 DUP1 REVERT JUMPDEST POP PUSH2 0x411 PUSH2 0x955 JUMP JUMPDEST PUSH1 0x40 MLOAD PUSH2 0x41E SWAP2 SWAP1 PUSH2 0x1A5F JUMP JUMPDEST PUSH1 0x40 MLOAD DUP1 SWAP2 SUB SWAP1 RETURN JUMPDEST CALLVALUE DUP1 ISZERO PUSH2 0x433 JUMPI PUSH1 0x0 DUP1 REVERT JUMPDEST POP PUSH2 0x43C PUSH2 0x975 JUMP JUMPDEST PUSH1 0x40 MLOAD PUSH2 0x449 SWAP2 SWAP1 PUSH2 0x1C21 JUMP JUMPDEST PUSH1 0x40 MLOAD DUP1 SWAP2 SUB SWAP1 RETURN JUMPDEST CALLVALUE DUP1 ISZERO PUSH2 0x45E JUMPI PUSH1 0x0 DUP1 REVERT JUMPDEST POP PUSH2 0x467 PUSH2 0x9BB JUMP JUMPDEST PUSH1 0x40 MLOAD PUSH2 0x474 SWAP2 SWAP1 PUSH2 0x1C3C JUMP JUMPDEST PUSH1 0x40 MLOAD DUP1 SWAP2 SUB SWAP1 RETURN JUMPDEST CALLVALUE DUP1 ISZERO PUSH2 0x489 JUMPI PUSH1 0x0 DUP1 REVERT JUMPDEST POP PUSH2 0x492 PUSH2 0x9C1 JUMP JUMPDEST PUSH1 0x40 MLOAD PUSH2 0x49F SWAP2 SWAP1 PUSH2 0x1C3C JUMP JUMPDEST PUSH1 0x40 MLOAD DUP1 SWAP2 SUB SWAP1 RETURN JUMPDEST CALLVALUE DUP1 ISZERO PUSH2 0x4B4 JUMPI PUSH1 0x0 DUP1 REVERT JUMPDEST POP PUSH2 0x4BD PUSH2 0x9C8 JUMP JUMPDEST PUSH1 0x40 MLOAD PUSH2 0x4CA SWAP2 SWAP1 PUSH2 0x19B5 JUMP JUMPDEST PUSH1 0x40 MLOAD DUP1 SWAP2 SUB SWAP1 RETURN JUMPDEST CALLVALUE DUP1 ISZERO PUSH2 0x4DF JUMPI PUSH1 0x0 DUP1 REVERT JUMPDEST POP PUSH2 0x4FA PUSH1 0x4 DUP1 CALLDATASIZE SUB DUP2 ADD SWAP1 PUSH2 0x4F5 SWAP2 SWAP1 PUSH2 0x13FD JUMP JUMPDEST PUSH2 0x9F2 JUMP JUMPDEST STOP JUMPDEST CALLVALUE DUP1 ISZERO PUSH2 0x508 JUMPI PUSH1 0x0 DUP1 REVERT JUMPDEST POP PUSH2 0x511 PUSH2 0xAC6 JUMP JUMPDEST PUSH1 0x40 MLOAD PUSH2 0x51E SWAP2 SWAP1 PUSH2 0x1C3C JUMP JUMPDEST PUSH1 0x40 MLOAD DUP1 SWAP2 SUB SWAP1 RETURN JUMPDEST CALLVALUE DUP1 ISZERO PUSH2 0x533 JUMPI PUSH1 0x0 DUP1 REVERT JUMPDEST POP PUSH2 0x54E PUSH1 0x4 DUP1 CALLDATASIZE SUB DUP2 ADD SWAP1 PUSH2 0x549 SWAP2 SWAP1 PUSH2 0x13FD JUMP JUMPDEST PUSH2 0xADA JUMP JUMPDEST STOP JUMPDEST CALLVALUE DUP1 ISZERO PUSH2 0x55C JUMPI PUSH1 0x0 DUP1 REVERT JUMPDEST POP PUSH2 0x565 PUSH2 0xB5E JUMP JUMPDEST PUSH1 0x40 MLOAD PUSH2 0x572 SWAP2 SWAP1 PUSH2 0x1C3C JUMP JUMPDEST PUSH1 0x40 MLOAD DUP1 SWAP2 SUB SWAP1 RETURN JUMPDEST PUSH1 0x60 PUSH1 0x0 PUSH2 0x587 PUSH2 0xB65 JUMP JUMPDEST PUSH2 0x590 DUP9 PUSH2 0xBDC JUMP JUMPDEST PUSH2 0x599 DUP9 PUSH2 0xC7E JUMP JUMPDEST PUSH2 0x5A2 DUP9 PUSH2 0xCD7 JUMP JUMPDEST PUSH2 0x5AC DUP6 DUP6 PUSH2 0xD3D JUMP JUMPDEST PUSH2 0x5BA DUP9 DUP9 DUP9 DUP9 DUP9 DUP9 PUSH2 0xD87 JUMP JUMPDEST SWAP2 POP SWAP2 POP SWAP7 POP SWAP7 SWAP5 POP POP POP POP POP JUMP JUMPDEST PUSH1 0x0 PUSH32 0xE1AB2DEA00000000000000000000000000000000000000000000000000000000 PUSH28 0xFFFFFFFFFFFFFFFFFFFFFFFFFFFFFFFFFFFFFFFFFFFFFFFFFFFFFFFF NOT AND DUP3 PUSH28 0xFFFFFFFFFFFFFFFFFFFFFFFFFFFFFFFFFFFFFFFFFFFFFFFFFFFFFFFF NOT AND EQ DUP1 PUSH2 0x694 JUMPI POP PUSH32 0xE08307600000000000000000000000000000000000000000000000000000000 PUSH28 0xFFFFFFFFFFFFFFFFFFFFFFFFFFFFFFFFFFFFFFFFFFFFFFFFFFFFFFFF NOT AND DUP3 PUSH28 0xFFFFFFFFFFFFFFFFFFFFFFFFFFFFFFFFFFFFFFFFFFFFFFFFFFFFFFFF NOT AND EQ JUMPDEST DUP1 PUSH2 0x6A4 JUMPI POP PUSH2 0x6A3 DUP3 PUSH2 0xDAC JUMP JUMPDEST JUMPDEST SWAP1 POP SWAP2 SWAP1 POP JUMP JUMPDEST PUSH1 0x0 PUSH1 0x1 PUSH1 0x0 SWAP1 SLOAD SWAP1 PUSH2 0x100 EXP SWAP1 DIV PUSH20 0xFFFFFFFFFFFFFFFFFFFFFFFFFFFFFFFFFFFFFFFF AND PUSH20 0xFFFFFFFFFFFFFFFFFFFFFFFFFFFFFFFFFFFFFFFF AND PUSH4 0x70A08231 ADDRESS PUSH1 0x40 MLOAD DUP3 PUSH4 0xFFFFFFFF AND PUSH1 0xE0 SHL DUP2 MSTORE PUSH1 0x4 ADD PUSH2 0x708 SWAP2 SWAP1 PUSH2 0x19B5 JUMP JUMPDEST PUSH1 0x20 PUSH1 0x40 MLOAD DUP1 DUP4 SUB DUP2 DUP7 DUP1 EXTCODESIZE ISZERO DUP1 ISZERO PUSH2 0x720 JUMPI PUSH1 0x0 DUP1 REVERT JUMPDEST POP GAS STATICCALL ISZERO DUP1 ISZERO PUSH2 0x734 JUMPI RETURNDATASIZE PUSH1 0x0 DUP1 RETURNDATACOPY RETURNDATASIZE PUSH1 0x0 REVERT JUMPDEST POP POP POP POP PUSH1 0x40 MLOAD RETURNDATASIZE PUSH1 0x1F NOT PUSH1 0x1F DUP3 ADD AND DUP3 ADD DUP1 PUSH1 0x40 MSTORE POP DUP2 ADD SWAP1 PUSH2 0x758 SWAP2 SWAP1 PUSH2 0x1618 JUMP JUMPDEST SWAP1 POP SWAP1 JUMP JUMPDEST PUSH2 0x765 PUSH2 0xE16 JUMP JUMPDEST PUSH1 0x1 PUSH1 0x0 SWAP1 SLOAD SWAP1 PUSH2 0x100 EXP SWAP1 DIV PUSH20 0xFFFFFFFFFFFFFFFFFFFFFFFFFFFFFFFFFFFFFFFF AND PUSH20 0xFFFFFFFFFFFFFFFFFFFFFFFFFFFFFFFFFFFFFFFF AND PUSH4 0xF3FEF3A3 DUP3 DUP5 PUSH1 0x40 MLOAD DUP4 PUSH4 0xFFFFFFFF AND PUSH1 0xE0 SHL DUP2 MSTORE PUSH1 0x4 ADD PUSH2 0x7C2 SWAP3 SWAP2 SWAP1 PUSH2 0x19D0 JUMP JUMPDEST PUSH1 0x0 PUSH1 0x40 MLOAD DUP1 DUP4 SUB DUP2 PUSH1 0x0 DUP8 DUP1 EXTCODESIZE ISZERO DUP1 ISZERO PUSH2 0x7DC JUMPI PUSH1 0x0 DUP1 REVERT JUMPDEST POP GAS CALL ISZERO DUP1 ISZERO PUSH2 0x7F0 JUMPI RETURNDATASIZE PUSH1 0x0 DUP1 RETURNDATACOPY RETURNDATASIZE PUSH1 0x0 REVERT JUMPDEST POP POP POP POP POP POP JUMP JUMPDEST PUSH2 0x2904 DUP2 JUMP JUMPDEST PUSH2 0x806 PUSH2 0xE16 JUMP JUMPDEST PUSH2 0x810 PUSH1 0x0 PUSH2 0xE94 JUMP JUMPDEST JUMP JUMPDEST PUSH2 0x81A PUSH2 0xB65 JUMP JUMPDEST PUSH2 0x827 DUP6 DUP6 DUP6 DUP6 DUP6 PUSH2 0xF58 JUMP JUMPDEST POP POP POP POP POP JUMP JUMPDEST PUSH2 0x836 PUSH2 0xE16 JUMP JUMPDEST PUSH2 0x87F PUSH32 0xE9FB30F700000000000000000000000000000000000000000000000000000000 DUP3 PUSH20 0xFFFFFFFFFFFFFFFFFFFFFFFFFFFFFFFFFFFFFFFF AND PUSH2 0xF5F SWAP1 SWAP2 SWAP1 PUSH4 0xFFFFFFFF AND JUMP JUMPDEST PUSH2 0x8BE JUMPI PUSH1 0x40 MLOAD PUSH32 0x8C379A000000000000000000000000000000000000000000000000000000000 DUP2 MSTORE PUSH1 0x4 ADD PUSH2 0x8B5 SWAP1 PUSH2 0x1BA1 JUMP JUMPDEST PUSH1 0x40 MLOAD DUP1 SWAP2 SUB SWAP1 REVERT JUMPDEST DUP1 PUSH1 0x1 PUSH1 0x0 PUSH2 0x100 EXP DUP2 SLOAD DUP2 PUSH20 0xFFFFFFFFFFFFFFFFFFFFFFFFFFFFFFFFFFFFFFFF MUL NOT AND SWAP1 DUP4 PUSH20 0xFFFFFFFFFFFFFFFFFFFFFFFFFFFFFFFFFFFFFFFF AND MUL OR SWAP1 SSTORE POP POP JUMP JUMPDEST PUSH1 0x0 PUSH1 0x1 PUSH1 0x0 SWAP1 SLOAD SWAP1 PUSH2 0x100 EXP SWAP1 DIV PUSH20 0xFFFFFFFFFFFFFFFFFFFFFFFFFFFFFFFFFFFFFFFF AND SWAP1 POP SWAP1 JUMP JUMPDEST PUSH1 0x0 DUP1 PUSH1 0x0 SWAP1 SLOAD SWAP1 PUSH2 0x100 EXP SWAP1 DIV PUSH20 0xFFFFFFFFFFFFFFFFFFFFFFFFFFFFFFFFFFFFFFFF AND SWAP1 POP SWAP1 JUMP JUMPDEST PUSH1 0x60 PUSH1 0x40 MLOAD DUP1 PUSH1 0x60 ADD PUSH1 0x40 MSTORE DUP1 PUSH1 0x30 DUP2 MSTORE PUSH1 0x20 ADD PUSH2 0x21A2 PUSH1 0x30 SWAP2 CODECOPY SWAP1 POP SWAP1 JUMP JUMPDEST PUSH2 0x97D PUSH2 0x1298 JUMP JUMPDEST PUSH1 0x40 MLOAD DUP1 PUSH1 0x80 ADD PUSH1 0x40 MSTORE DUP1 PUSH2 0xC350 PUSH3 0x186A0 PUSH2 0x999 SWAP2 SWAP1 PUSH2 0x1D4E JUMP JUMPDEST DUP2 MSTORE PUSH1 0x20 ADD PUSH3 0x186A0 DUP2 MSTORE PUSH1 0x20 ADD PUSH3 0x1ADB0 DUP2 MSTORE PUSH1 0x20 ADD PUSH2 0x2904 DUP2 MSTORE POP SWAP1 POP SWAP1 JUMP JUMPDEST PUSH2 0xC350 DUP2 JUMP JUMPDEST PUSH3 0x1ADB0 DUP2 JUMP JUMPDEST PUSH1 0x0 PUSH1 0x2 PUSH1 0x0 SWAP1 SLOAD SWAP1 PUSH2 0x100 EXP SWAP1 DIV PUSH20 0xFFFFFFFFFFFFFFFFFFFFFFFFFFFFFFFFFFFFFFFF AND SWAP1 POP SWAP1 JUMP JUMPDEST PUSH2 0x9FA PUSH2 0xE16 JUMP JUMPDEST PUSH2 0xA43 PUSH32 0x25E23E6400000000000000000000000000000000000000000000000000000000 DUP3 PUSH20 0xFFFFFFFFFFFFFFFFFFFFFFFFFFFFFFFFFFFFFFFF AND PUSH2 0xF5F SWAP1 SWAP2 SWAP1 PUSH4 0xFFFFFFFF AND JUMP JUMPDEST PUSH2 0xA82 JUMPI PUSH1 0x40 MLOAD PUSH32 0x8C379A000000000000000000000000000000000000000000000000000000000 DUP2 MSTORE PUSH1 0x4 ADD PUSH2 0xA79 SWAP1 PUSH2 0x1B41 JUMP JUMPDEST PUSH1 0x40 MLOAD DUP1 SWAP2 SUB SWAP1 REVERT JUMPDEST DUP1 PUSH1 0x2 PUSH1 0x0 PUSH2 0x100 EXP DUP2 SLOAD DUP2 PUSH20 0xFFFFFFFFFFFFFFFFFFFFFFFFFFFFFFFFFFFFFFFF MUL NOT AND SWAP1 DUP4 PUSH20 0xFFFFFFFFFFFFFFFFFFFFFFFFFFFFFFFFFFFFFFFF AND MUL OR SWAP1 SSTORE POP POP JUMP JUMPDEST PUSH2 0xC350 PUSH3 0x186A0 PUSH2 0xAD7 SWAP2 SWAP1 PUSH2 0x1D4E JUMP JUMPDEST DUP2 JUMP JUMPDEST PUSH2 0xAE2 PUSH2 0xE16 JUMP JUMPDEST PUSH1 0x0 PUSH20 0xFFFFFFFFFFFFFFFFFFFFFFFFFFFFFFFFFFFFFFFF AND DUP2 PUSH20 0xFFFFFFFFFFFFFFFFFFFFFFFFFFFFFFFFFFFFFFFF AND EQ ISZERO PUSH2 0xB52 JUMPI PUSH1 0x40 MLOAD PUSH32 0x8C379A000000000000000000000000000000000000000000000000000000000 DUP2 MSTORE PUSH1 0x4 ADD PUSH2 0xB49 SWAP1 PUSH2 0x1AC1 JUMP JUMPDEST PUSH1 0x40 MLOAD DUP1 SWAP2 SUB SWAP1 REVERT JUMPDEST PUSH2 0xB5B DUP2 PUSH2 0xE94 JUMP JUMPDEST POP JUMP JUMPDEST PUSH3 0x186A0 DUP2 JUMP JUMPDEST PUSH2 0xB6D PUSH2 0x902 JUMP JUMPDEST PUSH20 0xFFFFFFFFFFFFFFFFFFFFFFFFFFFFFFFFFFFFFFFF AND CALLER PUSH20 0xFFFFFFFFFFFFFFFFFFFFFFFFFFFFFFFFFFFFFFFF AND EQ PUSH2 0xBDA JUMPI PUSH1 0x40 MLOAD PUSH32 0x8C379A000000000000000000000000000000000000000000000000000000000 DUP2 MSTORE PUSH1 0x4 ADD PUSH2 0xBD1 SWAP1 PUSH2 0x1BC1 JUMP JUMPDEST PUSH1 0x40 MLOAD DUP1 SWAP2 SUB SWAP1 REVERT JUMPDEST JUMP JUMPDEST DUP1 DUP1 PUSH1 0x20 ADD SWAP1 PUSH2 0xBEC SWAP2 SWAP1 PUSH2 0x1CE2 JUMP JUMPDEST PUSH1 0xA0 ADD PUSH1 0x20 DUP2 ADD SWAP1 PUSH2 0xBFE SWAP2 SWAP1 PUSH2 0x13FD JUMP JUMPDEST PUSH20 0xFFFFFFFFFFFFFFFFFFFFFFFFFFFFFFFFFFFFFFFF AND PUSH2 0xC1C PUSH2 0x9C8 JUMP JUMPDEST PUSH20 0xFFFFFFFFFFFFFFFFFFFFFFFFFFFFFFFFFFFFFFFF AND EQ PUSH2 0xC72 JUMPI PUSH1 0x40 MLOAD PUSH32 0x8C379A000000000000000000000000000000000000000000000000000000000 DUP2 MSTORE PUSH1 0x4 ADD PUSH2 0xC69 SWAP1 PUSH2 0x1B21 JUMP JUMPDEST PUSH1 0x40 MLOAD DUP1 SWAP2 SUB SWAP1 REVERT JUMPDEST PUSH2 0xC7B DUP2 PUSH2 0xF84 JUMP JUMPDEST POP JUMP JUMPDEST PUSH1 0x0 DUP2 DUP1 PUSH1 0x0 ADD SWAP1 PUSH2 0xC90 SWAP2 SWAP1 PUSH2 0x1CBA JUMP JUMPDEST PUSH1 0x40 ADD CALLDATALOAD EQ PUSH2 0xCD4 JUMPI PUSH1 0x40 MLOAD PUSH32 0x8C379A000000000000000000000000000000000000000000000000000000000 DUP2 MSTORE PUSH1 0x4 ADD PUSH2 0xCCB SWAP1 PUSH2 0x1BE1 JUMP JUMPDEST PUSH1 0x40 MLOAD DUP1 SWAP2 SUB SWAP1 REVERT JUMPDEST POP JUMP JUMPDEST PUSH1 0x0 DUP2 DUP1 PUSH1 0x20 ADD SWAP1 PUSH2 0xCE9 SWAP2 SWAP1 PUSH2 0x1CE2 JUMP JUMPDEST DUP1 PUSH1 0xC0 ADD SWAP1 PUSH2 0xCF8 SWAP2 SWAP1 PUSH2 0x1C57 JUMP JUMPDEST SWAP1 POP EQ PUSH2 0xD3A JUMPI PUSH1 0x40 MLOAD PUSH32 0x8C379A000000000000000000000000000000000000000000000000000000000 DUP2 MSTORE PUSH1 0x4 ADD PUSH2 0xD31 SWAP1 PUSH2 0x1A81 JUMP JUMPDEST PUSH1 0x40 MLOAD DUP1 SWAP2 SUB SWAP1 REVERT JUMPDEST POP JUMP JUMPDEST PUSH1 0x0 DUP3 DUP3 SWAP1 POP EQ PUSH2 0xD83 JUMPI PUSH1 0x40 MLOAD PUSH32 0x8C379A000000000000000000000000000000000000000000000000000000000 DUP2 MSTORE PUSH1 0x4 ADD PUSH2 0xD7A SWAP1 PUSH2 0x1C01 JUMP JUMPDEST PUSH1 0x40 MLOAD DUP1 SWAP2 SUB SWAP1 REVERT JUMPDEST POP POP JUMP JUMPDEST PUSH1 0x60 PUSH1 0x0 DUP1 PUSH1 0x40 MLOAD DUP1 PUSH1 0x20 ADD PUSH1 0x40 MSTORE DUP1 PUSH1 0x0 DUP2 MSTORE POP SWAP1 SWAP2 POP SWAP2 POP SWAP7 POP SWAP7 SWAP5 POP POP POP POP POP JUMP JUMPDEST PUSH1 0x0 PUSH32 0x1FFC9A700000000000000000000000000000000000000000000000000000000 PUSH28 0xFFFFFFFFFFFFFFFFFFFFFFFFFFFFFFFFFFFFFFFFFFFFFFFFFFFFFFFF NOT AND DUP3 PUSH28 0xFFFFFFFFFFFFFFFFFFFFFFFFFFFFFFFFFFFFFFFFFFFFFFFFFFFFFFFF NOT AND EQ SWAP1 POP SWAP2 SWAP1 POP JUMP JUMPDEST PUSH2 0xE1E PUSH2 0x1184 JUMP JUMPDEST PUSH20 0xFFFFFFFFFFFFFFFFFFFFFFFFFFFFFFFFFFFFFFFF AND PUSH2 0xE3C PUSH2 0x92C JUMP JUMPDEST PUSH20 0xFFFFFFFFFFFFFFFFFFFFFFFFFFFFFFFFFFFFFFFF AND EQ PUSH2 0xE92 JUMPI PUSH1 0x40 MLOAD PUSH32 0x8C379A000000000000000000000000000000000000000000000000000000000 DUP2 MSTORE PUSH1 0x4 ADD PUSH2 0xE89 SWAP1 PUSH2 0x1B81 JUMP JUMPDEST PUSH1 0x40 MLOAD DUP1 SWAP2 SUB SWAP1 REVERT JUMPDEST JUMP JUMPDEST PUSH1 0x0 DUP1 PUSH1 0x0 SWAP1 SLOAD SWAP1 PUSH2 0x100 EXP SWAP1 DIV PUSH20 0xFFFFFFFFFFFFFFFFFFFFFFFFFFFFFFFFFFFFFFFF AND SWAP1 POP DUP2 PUSH1 0x0 DUP1 PUSH2 0x100 EXP DUP2 SLOAD DUP2 PUSH20 0xFFFFFFFFFFFFFFFFFFFFFFFFFFFFFFFFFFFFFFFF MUL NOT AND SWAP1 DUP4 PUSH20 0xFFFFFFFFFFFFFFFFFFFFFFFFFFFFFFFFFFFFFFFF AND MUL OR SWAP1 SSTORE POP DUP2 PUSH20 0xFFFFFFFFFFFFFFFFFFFFFFFFFFFFFFFFFFFFFFFF AND DUP2 PUSH20 0xFFFFFFFFFFFFFFFFFFFFFFFFFFFFFFFFFFFFFFFF AND PUSH32 0x8BE0079C531659141344CD1FD0A4F28419497F9722A3DAAFE3B4186F6B6457E0 PUSH1 0x40 MLOAD PUSH1 0x40 MLOAD DUP1 SWAP2 SUB SWAP1 LOG3 POP POP JUMP JUMPDEST POP POP POP POP POP JUMP JUMPDEST PUSH1 0x0 PUSH2 0xF6A DUP4 PUSH2 0x118C JUMP JUMPDEST DUP1 ISZERO PUSH2 0xF7C JUMPI POP PUSH2 0xF7B DUP4 DUP4 PUSH2 0x11D9 JUMP JUMPDEST JUMPDEST SWAP1 POP SWAP3 SWAP2 POP POP JUMP JUMPDEST PUSH1 0x0 DUP1 DUP3 DUP1 PUSH1 0x0 ADD SWAP1 PUSH2 0xF97 SWAP2 SWAP1 PUSH2 0x1CBA JUMP JUMPDEST PUSH1 0x20 ADD PUSH1 0x20 DUP2 ADD SWAP1 PUSH2 0xFA9 SWAP2 SWAP1 PUSH2 0x13FD JUMP JUMPDEST PUSH20 0xFFFFFFFFFFFFFFFFFFFFFFFFFFFFFFFFFFFFFFFF AND PUSH4 0x572B6C05 PUSH1 0xE0 SHL DUP5 DUP1 PUSH1 0x20 ADD SWAP1 PUSH2 0xFD7 SWAP2 SWAP1 PUSH2 0x1CE2 JUMP JUMPDEST PUSH1 0xA0 ADD PUSH1 0x20 DUP2 ADD SWAP1 PUSH2 0xFE9 SWAP2 SWAP1 PUSH2 0x13FD JUMP JUMPDEST PUSH1 0x40 MLOAD PUSH1 0x24 ADD PUSH2 0xFF9 SWAP2 SWAP1 PUSH2 0x19B5 JUMP JUMPDEST PUSH1 0x40 MLOAD PUSH1 0x20 DUP2 DUP4 SUB SUB DUP2 MSTORE SWAP1 PUSH1 0x40 MSTORE SWAP1 PUSH28 0xFFFFFFFFFFFFFFFFFFFFFFFFFFFFFFFFFFFFFFFFFFFFFFFFFFFFFFFF NOT AND PUSH1 0x20 DUP3 ADD DUP1 MLOAD PUSH28 0xFFFFFFFFFFFFFFFFFFFFFFFFFFFFFFFFFFFFFFFFFFFFFFFFFFFFFFFF DUP4 DUP2 DUP4 AND OR DUP4 MSTORE POP POP POP POP PUSH1 0x40 MLOAD PUSH2 0x1063 SWAP2 SWAP1 PUSH2 0x199E JUMP JUMPDEST PUSH1 0x0 PUSH1 0x40 MLOAD DUP1 DUP4 SUB DUP2 DUP6 GAS STATICCALL SWAP2 POP POP RETURNDATASIZE DUP1 PUSH1 0x0 DUP2 EQ PUSH2 0x109E JUMPI PUSH1 0x40 MLOAD SWAP2 POP PUSH1 0x1F NOT PUSH1 0x3F RETURNDATASIZE ADD AND DUP3 ADD PUSH1 0x40 MSTORE RETURNDATASIZE DUP3 MSTORE RETURNDATASIZE PUSH1 0x0 PUSH1 0x20 DUP5 ADD RETURNDATACOPY PUSH2 0x10A3 JUMP JUMPDEST PUSH1 0x60 SWAP2 POP JUMPDEST POP SWAP2 POP SWAP2 POP DUP2 PUSH2 0x10E8 JUMPI PUSH1 0x40 MLOAD PUSH32 0x8C379A000000000000000000000000000000000000000000000000000000000 DUP2 MSTORE PUSH1 0x4 ADD PUSH2 0x10DF SWAP1 PUSH2 0x1AE1 JUMP JUMPDEST PUSH1 0x40 MLOAD DUP1 SWAP2 SUB SWAP1 REVERT JUMPDEST PUSH1 0x20 DUP2 MLOAD EQ PUSH2 0x112C JUMPI PUSH1 0x40 MLOAD PUSH32 0x8C379A000000000000000000000000000000000000000000000000000000000 DUP2 MSTORE PUSH1 0x4 ADD PUSH2 0x1123 SWAP1 PUSH2 0x1B61 JUMP JUMPDEST PUSH1 0x40 MLOAD DUP1 SWAP2 SUB SWAP1 REVERT JUMPDEST DUP1 DUP1 PUSH1 0x20 ADD SWAP1 MLOAD DUP2 ADD SWAP1 PUSH2 0x1140 SWAP2 SWAP1 PUSH2 0x142A JUMP JUMPDEST PUSH2 0x117F JUMPI PUSH1 0x40 MLOAD PUSH32 0x8C379A000000000000000000000000000000000000000000000000000000000 DUP2 MSTORE PUSH1 0x4 ADD PUSH2 0x1176 SWAP1 PUSH2 0x1AA1 JUMP JUMPDEST PUSH1 0x40 MLOAD DUP1 SWAP2 SUB SWAP1 REVERT JUMPDEST POP POP POP JUMP JUMPDEST PUSH1 0x0 CALLER SWAP1 POP SWAP1 JUMP JUMPDEST PUSH1 0x0 PUSH2 0x11B8 DUP3 PUSH32 0x1FFC9A700000000000000000000000000000000000000000000000000000000 PUSH2 0x11D9 JUMP JUMPDEST DUP1 ISZERO PUSH2 0x11D2 JUMPI POP PUSH2 0x11D0 DUP3 PUSH4 0xFFFFFFFF PUSH1 0xE0 SHL PUSH2 0x11D9 JUMP JUMPDEST ISZERO JUMPDEST SWAP1 POP SWAP2 SWAP1 POP JUMP JUMPDEST PUSH1 0x0 DUP1 PUSH4 0x1FFC9A7 PUSH1 0xE0 SHL DUP4 PUSH1 0x40 MLOAD PUSH1 0x24 ADD PUSH2 0x11F5 SWAP2 SWAP1 PUSH2 0x1A14 JUMP JUMPDEST PUSH1 0x40 MLOAD PUSH1 0x20 DUP2 DUP4 SUB SUB DUP2 MSTORE SWAP1 PUSH1 0x40 MSTORE SWAP1 PUSH28 0xFFFFFFFFFFFFFFFFFFFFFFFFFFFFFFFFFFFFFFFFFFFFFFFFFFFFFFFF NOT AND PUSH1 0x20 DUP3 ADD DUP1 MLOAD PUSH28 0xFFFFFFFFFFFFFFFFFFFFFFFFFFFFFFFFFFFFFFFFFFFFFFFFFFFFFFFF DUP4 DUP2 DUP4 AND OR DUP4 MSTORE POP POP POP POP SWAP1 POP PUSH1 0x0 DUP1 PUSH1 0x0 PUSH1 0x20 PUSH1 0x0 DUP6 MLOAD PUSH1 0x20 DUP8 ADD DUP11 PUSH2 0x7530 STATICCALL SWAP3 POP RETURNDATASIZE SWAP2 POP PUSH1 0x0 MLOAD SWAP1 POP DUP3 DUP1 ISZERO PUSH2 0x1280 JUMPI POP PUSH1 0x20 DUP3 LT ISZERO JUMPDEST DUP1 ISZERO PUSH2 0x128C JUMPI POP PUSH1 0x0 DUP2 GT JUMPDEST SWAP5 POP POP POP POP POP SWAP3 SWAP2 POP POP JUMP JUMPDEST PUSH1 0x40 MLOAD DUP1 PUSH1 0x80 ADD PUSH1 0x40 MSTORE DUP1 PUSH1 0x0 DUP2 MSTORE PUSH1 0x20 ADD PUSH1 0x0 DUP2 MSTORE PUSH1 0x20 ADD PUSH1 0x0 DUP2 MSTORE PUSH1 0x20 ADD PUSH1 0x0 DUP2 MSTORE POP SWAP1 JUMP JUMPDEST PUSH1 0x0 DUP2 CALLDATALOAD SWAP1 POP PUSH2 0x12CF DUP2 PUSH2 0x2117 JUMP JUMPDEST SWAP3 SWAP2 POP POP JUMP JUMPDEST PUSH1 0x0 DUP2 CALLDATALOAD SWAP1 POP PUSH2 0x12E4 DUP2 PUSH2 0x212E JUMP JUMPDEST SWAP3 SWAP2 POP POP JUMP JUMPDEST PUSH1 0x0 DUP2 CALLDATALOAD SWAP1 POP PUSH2 0x12F9 DUP2 PUSH2 0x2145 JUMP JUMPDEST SWAP3 SWAP2 POP POP JUMP JUMPDEST PUSH1 0x0 DUP2 MLOAD SWAP1 POP PUSH2 0x130E DUP2 PUSH2 0x2145 JUMP JUMPDEST SWAP3 SWAP2 POP POP JUMP JUMPDEST PUSH1 0x0 DUP2 CALLDATALOAD SWAP1 POP PUSH2 0x1323 DUP2 PUSH2 0x215C JUMP JUMPDEST SWAP3 SWAP2 POP POP JUMP JUMPDEST PUSH1 0x0 DUP1 DUP4 PUSH1 0x1F DUP5 ADD SLT PUSH2 0x133F JUMPI PUSH2 0x133E PUSH2 0x1EA3 JUMP JUMPDEST JUMPDEST DUP3 CALLDATALOAD SWAP1 POP PUSH8 0xFFFFFFFFFFFFFFFF DUP2 GT ISZERO PUSH2 0x135C JUMPI PUSH2 0x135B PUSH2 0x1E9E JUMP JUMPDEST JUMPDEST PUSH1 0x20 DUP4 ADD SWAP2 POP DUP4 PUSH1 0x1 DUP3 MUL DUP4 ADD GT ISZERO PUSH2 0x1378 JUMPI PUSH2 0x1377 PUSH2 0x1EB7 JUMP JUMPDEST JUMPDEST SWAP3 POP SWAP3 SWAP1 POP JUMP JUMPDEST PUSH1 0x0 DUP2 CALLDATALOAD SWAP1 POP PUSH2 0x138E DUP2 PUSH2 0x2173 JUMP JUMPDEST SWAP3 SWAP2 POP POP JUMP JUMPDEST PUSH1 0x0 PUSH2 0x100 DUP3 DUP5 SUB SLT ISZERO PUSH2 0x13AB JUMPI PUSH2 0x13AA PUSH2 0x1EAD JUMP JUMPDEST JUMPDEST DUP2 SWAP1 POP SWAP3 SWAP2 POP POP JUMP JUMPDEST PUSH1 0x0 PUSH1 0x40 DUP3 DUP5 SUB SLT ISZERO PUSH2 0x13CA JUMPI PUSH2 0x13C9 PUSH2 0x1EAD JUMP JUMPDEST JUMPDEST DUP2 SWAP1 POP SWAP3 SWAP2 POP POP JUMP JUMPDEST PUSH1 0x0 DUP2 CALLDATALOAD SWAP1 POP PUSH2 0x13E2 DUP2 PUSH2 0x218A JUMP JUMPDEST SWAP3 SWAP2 POP POP JUMP JUMPDEST PUSH1 0x0 DUP2 MLOAD SWAP1 POP PUSH2 0x13F7 DUP2 PUSH2 0x218A JUMP JUMPDEST SWAP3 SWAP2 POP POP JUMP JUMPDEST PUSH1 0x0 PUSH1 0x20 DUP3 DUP5 SUB SLT ISZERO PUSH2 0x1413 JUMPI PUSH2 0x1412 PUSH2 0x1EC6 JUMP JUMPDEST JUMPDEST PUSH1 0x0 PUSH2 0x1421 DUP5 DUP3 DUP6 ADD PUSH2 0x12C0 JUMP JUMPDEST SWAP2 POP POP SWAP3 SWAP2 POP POP JUMP JUMPDEST PUSH1 0x0 PUSH1 0x20 DUP3 DUP5 SUB SLT ISZERO PUSH2 0x1440 JUMPI PUSH2 0x143F PUSH2 0x1EC6 JUMP JUMPDEST JUMPDEST PUSH1 0x0 PUSH2 0x144E DUP5 DUP3 DUP6 ADD PUSH2 0x12FF JUMP JUMPDEST SWAP2 POP POP SWAP3 SWAP2 POP POP JUMP JUMPDEST PUSH1 0x0 PUSH1 0x20 DUP3 DUP5 SUB SLT ISZERO PUSH2 0x146D JUMPI PUSH2 0x146C PUSH2 0x1EC6 JUMP JUMPDEST JUMPDEST PUSH1 0x0 PUSH2 0x147B DUP5 DUP3 DUP6 ADD PUSH2 0x1314 JUMP JUMPDEST SWAP2 POP POP SWAP3 SWAP2 POP POP JUMP JUMPDEST PUSH1 0x0 DUP1 PUSH1 0x0 DUP1 PUSH1 0x0 PUSH1 0x80 DUP7 DUP9 SUB SLT ISZERO PUSH2 0x14A0 JUMPI PUSH2 0x149F PUSH2 0x1EC6 JUMP JUMPDEST JUMPDEST PUSH1 0x0 DUP7 ADD CALLDATALOAD PUSH8 0xFFFFFFFFFFFFFFFF DUP2 GT ISZERO PUSH2 0x14BE JUMPI PUSH2 0x14BD PUSH2 0x1EC1 JUMP JUMPDEST JUMPDEST PUSH2 0x14CA DUP9 DUP3 DUP10 ADD PUSH2 0x1329 JUMP JUMPDEST SWAP6 POP SWAP6 POP POP PUSH1 0x20 PUSH2 0x14DD DUP9 DUP3 DUP10 ADD PUSH2 0x12EA JUMP JUMPDEST SWAP4 POP POP PUSH1 0x40 PUSH2 0x14EE DUP9 DUP3 DUP10 ADD PUSH2 0x13D3 JUMP JUMPDEST SWAP3 POP POP PUSH1 0x60 DUP7 ADD CALLDATALOAD PUSH8 0xFFFFFFFFFFFFFFFF DUP2 GT ISZERO PUSH2 0x150F JUMPI PUSH2 0x150E PUSH2 0x1EC1 JUMP JUMPDEST JUMPDEST PUSH2 0x151B DUP9 DUP3 DUP10 ADD PUSH2 0x1394 JUMP JUMPDEST SWAP2 POP POP SWAP3 SWAP6 POP SWAP3 SWAP6 SWAP1 SWAP4 POP JUMP JUMPDEST PUSH1 0x0 PUSH1 0x20 DUP3 DUP5 SUB SLT ISZERO PUSH2 0x153E JUMPI PUSH2 0x153D PUSH2 0x1EC6 JUMP JUMPDEST JUMPDEST PUSH1 0x0 PUSH2 0x154C DUP5 DUP3 DUP6 ADD PUSH2 0x137F JUMP JUMPDEST SWAP2 POP POP SWAP3 SWAP2 POP POP JUMP JUMPDEST PUSH1 0x0 DUP1 PUSH1 0x0 DUP1 PUSH1 0x0 DUP1 PUSH1 0x80 DUP8 DUP10 SUB SLT ISZERO PUSH2 0x1572 JUMPI PUSH2 0x1571 PUSH2 0x1EC6 JUMP JUMPDEST JUMPDEST PUSH1 0x0 DUP8 ADD CALLDATALOAD PUSH8 0xFFFFFFFFFFFFFFFF DUP2 GT ISZERO PUSH2 0x1590 JUMPI PUSH2 0x158F PUSH2 0x1EC1 JUMP JUMPDEST JUMPDEST PUSH2 0x159C DUP10 DUP3 DUP11 ADD PUSH2 0x13B4 JUMP JUMPDEST SWAP7 POP POP PUSH1 0x20 DUP8 ADD CALLDATALOAD PUSH8 0xFFFFFFFFFFFFFFFF DUP2 GT ISZERO PUSH2 0x15BD JUMPI PUSH2 0x15BC PUSH2 0x1EC1 JUMP JUMPDEST JUMPDEST PUSH2 0x15C9 DUP10 DUP3 DUP11 ADD PUSH2 0x1329 JUMP JUMPDEST SWAP6 POP SWAP6 POP POP PUSH1 0x40 DUP8 ADD CALLDATALOAD PUSH8 0xFFFFFFFFFFFFFFFF DUP2 GT ISZERO PUSH2 0x15EC JUMPI PUSH2 0x15EB PUSH2 0x1EC1 JUMP JUMPDEST JUMPDEST PUSH2 0x15F8 DUP10 DUP3 DUP11 ADD PUSH2 0x1329 JUMP JUMPDEST SWAP4 POP SWAP4 POP POP PUSH1 0x60 PUSH2 0x160B DUP10 DUP3 DUP11 ADD PUSH2 0x13D3 JUMP JUMPDEST SWAP2 POP POP SWAP3 SWAP6 POP SWAP3 SWAP6 POP SWAP3 SWAP6 JUMP JUMPDEST PUSH1 0x0 PUSH1 0x20 DUP3 DUP5 SUB SLT ISZERO PUSH2 0x162E JUMPI PUSH2 0x162D PUSH2 0x1EC6 JUMP JUMPDEST JUMPDEST PUSH1 0x0 PUSH2 0x163C DUP5 DUP3 DUP6 ADD PUSH2 0x13E8 JUMP JUMPDEST SWAP2 POP POP SWAP3 SWAP2 POP POP JUMP JUMPDEST PUSH1 0x0 DUP1 PUSH1 0x40 DUP4 DUP6 SUB SLT ISZERO PUSH2 0x165C JUMPI PUSH2 0x165B PUSH2 0x1EC6 JUMP JUMPDEST JUMPDEST PUSH1 0x0 PUSH2 0x166A DUP6 DUP3 DUP7 ADD PUSH2 0x13D3 JUMP JUMPDEST SWAP3 POP POP PUSH1 0x20 PUSH2 0x167B DUP6 DUP3 DUP7 ADD PUSH2 0x12D5 JUMP JUMPDEST SWAP2 POP POP SWAP3 POP SWAP3 SWAP1 POP JUMP JUMPDEST PUSH2 0x168E DUP2 PUSH2 0x1DB6 JUMP JUMPDEST DUP3 MSTORE POP POP JUMP JUMPDEST PUSH2 0x169D DUP2 PUSH2 0x1DA4 JUMP JUMPDEST DUP3 MSTORE POP POP JUMP JUMPDEST PUSH2 0x16AC DUP2 PUSH2 0x1DC8 JUMP JUMPDEST DUP3 MSTORE POP POP JUMP JUMPDEST PUSH2 0x16BB DUP2 PUSH2 0x1DD4 JUMP JUMPDEST DUP3 MSTORE POP POP JUMP JUMPDEST PUSH1 0x0 PUSH2 0x16CC DUP3 PUSH2 0x1D0B JUMP JUMPDEST PUSH2 0x16D6 DUP2 DUP6 PUSH2 0x1D21 JUMP JUMPDEST SWAP4 POP PUSH2 0x16E6 DUP2 DUP6 PUSH1 0x20 DUP7 ADD PUSH2 0x1E3C JUMP JUMPDEST PUSH2 0x16EF DUP2 PUSH2 0x1ECB JUMP JUMPDEST DUP5 ADD SWAP2 POP POP SWAP3 SWAP2 POP POP JUMP JUMPDEST PUSH1 0x0 PUSH2 0x1705 DUP3 PUSH2 0x1D0B JUMP JUMPDEST PUSH2 0x170F DUP2 DUP6 PUSH2 0x1D32 JUMP JUMPDEST SWAP4 POP PUSH2 0x171F DUP2 DUP6 PUSH1 0x20 DUP7 ADD PUSH2 0x1E3C JUMP JUMPDEST DUP1 DUP5 ADD SWAP2 POP POP SWAP3 SWAP2 POP POP JUMP JUMPDEST PUSH1 0x0 PUSH2 0x1736 DUP3 PUSH2 0x1D16 JUMP JUMPDEST PUSH2 0x1740 DUP2 DUP6 PUSH2 0x1D3D JUMP JUMPDEST SWAP4 POP PUSH2 0x1750 DUP2 DUP6 PUSH1 0x20 DUP7 ADD PUSH2 0x1E3C JUMP JUMPDEST PUSH2 0x1759 DUP2 PUSH2 0x1ECB JUMP JUMPDEST DUP5 ADD SWAP2 POP POP SWAP3 SWAP2 POP POP JUMP JUMPDEST PUSH1 0x0 PUSH2 0x1771 PUSH1 0x1C DUP4 PUSH2 0x1D3D JUMP JUMPDEST SWAP2 POP PUSH2 0x177C DUP3 PUSH2 0x1EDC JUMP JUMPDEST PUSH1 0x20 DUP3 ADD SWAP1 POP SWAP2 SWAP1 POP JUMP JUMPDEST PUSH1 0x0 PUSH2 0x1794 PUSH1 0x1F DUP4 PUSH2 0x1D3D JUMP JUMPDEST SWAP2 POP PUSH2 0x179F DUP3 PUSH2 0x1F05 JUMP JUMPDEST PUSH1 0x20 DUP3 ADD SWAP1 POP SWAP2 SWAP1 POP JUMP JUMPDEST PUSH1 0x0 PUSH2 0x17B7 PUSH1 0x26 DUP4 PUSH2 0x1D3D JUMP JUMPDEST SWAP2 POP PUSH2 0x17C2 DUP3 PUSH2 0x1F2E JUMP JUMPDEST PUSH1 0x40 DUP3 ADD SWAP1 POP SWAP2 SWAP1 POP JUMP JUMPDEST PUSH1 0x0 PUSH2 0x17DA PUSH1 0x1C DUP4 PUSH2 0x1D3D JUMP JUMPDEST SWAP2 POP PUSH2 0x17E5 DUP3 PUSH2 0x1F7D JUMP JUMPDEST PUSH1 0x20 DUP3 ADD SWAP1 POP SWAP2 SWAP1 POP JUMP JUMPDEST PUSH1 0x0 PUSH2 0x17FD PUSH1 0x19 DUP4 PUSH2 0x1D3D JUMP JUMPDEST SWAP2 POP PUSH2 0x1808 DUP3 PUSH2 0x1FA6 JUMP JUMPDEST PUSH1 0x20 DUP3 ADD SWAP1 POP SWAP2 SWAP1 POP JUMP JUMPDEST PUSH1 0x0 PUSH2 0x1820 PUSH1 0x18 DUP4 PUSH2 0x1D3D JUMP JUMPDEST SWAP2 POP PUSH2 0x182B DUP3 PUSH2 0x1FCF JUMP JUMPDEST PUSH1 0x20 DUP3 ADD SWAP1 POP SWAP2 SWAP1 POP JUMP JUMPDEST PUSH1 0x0 PUSH2 0x1843 PUSH1 0x20 DUP4 PUSH2 0x1D3D JUMP JUMPDEST SWAP2 POP PUSH2 0x184E DUP3 PUSH2 0x1FF8 JUMP JUMPDEST PUSH1 0x20 DUP3 ADD SWAP1 POP SWAP2 SWAP1 POP JUMP JUMPDEST PUSH1 0x0 PUSH2 0x1866 PUSH1 0x20 DUP4 PUSH2 0x1D3D JUMP JUMPDEST SWAP2 POP PUSH2 0x1871 DUP3 PUSH2 0x2021 JUMP JUMPDEST PUSH1 0x20 DUP3 ADD SWAP1 POP SWAP2 SWAP1 POP JUMP JUMPDEST PUSH1 0x0 PUSH2 0x1889 PUSH1 0x20 DUP4 PUSH2 0x1D3D JUMP JUMPDEST SWAP2 POP PUSH2 0x1894 DUP3 PUSH2 0x204A JUMP JUMPDEST PUSH1 0x20 DUP3 ADD SWAP1 POP SWAP2 SWAP1 POP JUMP JUMPDEST PUSH1 0x0 PUSH2 0x18AC PUSH1 0x1F DUP4 PUSH2 0x1D3D JUMP JUMPDEST SWAP2 POP PUSH2 0x18B7 DUP3 PUSH2 0x2073 JUMP JUMPDEST PUSH1 0x20 DUP3 ADD SWAP1 POP SWAP2 SWAP1 POP JUMP JUMPDEST PUSH1 0x0 PUSH2 0x18CF PUSH1 0x1E DUP4 PUSH2 0x1D3D JUMP JUMPDEST SWAP2 POP PUSH2 0x18DA DUP3 PUSH2 0x209C JUMP JUMPDEST PUSH1 0x20 DUP3 ADD SWAP1 POP SWAP2 SWAP1 POP JUMP JUMPDEST PUSH1 0x0 PUSH2 0x18F2 PUSH1 0x1C DUP4 PUSH2 0x1D3D JUMP JUMPDEST SWAP2 POP PUSH2 0x18FD DUP3 PUSH2 0x20C5 JUMP JUMPDEST PUSH1 0x20 DUP3 ADD SWAP1 POP SWAP2 SWAP1 POP JUMP JUMPDEST PUSH1 0x0 PUSH2 0x1915 PUSH1 0x1B DUP4 PUSH2 0x1D3D JUMP JUMPDEST SWAP2 POP PUSH2 0x1920 DUP3 PUSH2 0x20EE JUMP JUMPDEST PUSH1 0x20 DUP3 ADD SWAP1 POP SWAP2 SWAP1 POP JUMP JUMPDEST PUSH1 0x80 DUP3 ADD PUSH1 0x0 DUP3 ADD MLOAD PUSH2 0x1941 PUSH1 0x0 DUP6 ADD DUP3 PUSH2 0x1980 JUMP JUMPDEST POP PUSH1 0x20 DUP3 ADD MLOAD PUSH2 0x1954 PUSH1 0x20 DUP6 ADD DUP3 PUSH2 0x1980 JUMP JUMPDEST POP PUSH1 0x40 DUP3 ADD MLOAD PUSH2 0x1967 PUSH1 0x40 DUP6 ADD DUP3 PUSH2 0x1980 JUMP JUMPDEST POP PUSH1 0x60 DUP3 ADD MLOAD PUSH2 0x197A PUSH1 0x60 DUP6 ADD DUP3 PUSH2 0x1980 JUMP JUMPDEST POP POP POP POP JUMP JUMPDEST PUSH2 0x1989 DUP2 PUSH2 0x1E32 JUMP JUMPDEST DUP3 MSTORE POP POP JUMP JUMPDEST PUSH2 0x1998 DUP2 PUSH2 0x1E32 JUMP JUMPDEST DUP3 MSTORE POP POP JUMP JUMPDEST PUSH1 0x0 PUSH2 0x19AA DUP3 DUP5 PUSH2 0x16FA JUMP JUMPDEST SWAP2 POP DUP2 SWAP1 POP SWAP3 SWAP2 POP POP JUMP JUMPDEST PUSH1 0x0 PUSH1 0x20 DUP3 ADD SWAP1 POP PUSH2 0x19CA PUSH1 0x0 DUP4 ADD DUP5 PUSH2 0x1694 JUMP JUMPDEST SWAP3 SWAP2 POP POP JUMP JUMPDEST PUSH1 0x0 PUSH1 0x40 DUP3 ADD SWAP1 POP PUSH2 0x19E5 PUSH1 0x0 DUP4 ADD DUP6 PUSH2 0x1685 JUMP JUMPDEST PUSH2 0x19F2 PUSH1 0x20 DUP4 ADD DUP5 PUSH2 0x198F JUMP JUMPDEST SWAP4 SWAP3 POP POP POP JUMP JUMPDEST PUSH1 0x0 PUSH1 0x20 DUP3 ADD SWAP1 POP PUSH2 0x1A0E PUSH1 0x0 DUP4 ADD DUP5 PUSH2 0x16A3 JUMP JUMPDEST SWAP3 SWAP2 POP POP JUMP JUMPDEST PUSH1 0x0 PUSH1 0x20 DUP3 ADD SWAP1 POP PUSH2 0x1A29 PUSH1 0x0 DUP4 ADD DUP5 PUSH2 0x16B2 JUMP JUMPDEST SWAP3 SWAP2 POP POP JUMP JUMPDEST PUSH1 0x0 PUSH1 0x40 DUP3 ADD SWAP1 POP DUP2 DUP2 SUB PUSH1 0x0 DUP4 ADD MSTORE PUSH2 0x1A49 DUP2 DUP6 PUSH2 0x16C1 JUMP JUMPDEST SWAP1 POP PUSH2 0x1A58 PUSH1 0x20 DUP4 ADD DUP5 PUSH2 0x16A3 JUMP JUMPDEST SWAP4 SWAP3 POP POP POP JUMP JUMPDEST PUSH1 0x0 PUSH1 0x20 DUP3 ADD SWAP1 POP DUP2 DUP2 SUB PUSH1 0x0 DUP4 ADD MSTORE PUSH2 0x1A79 DUP2 DUP5 PUSH2 0x172B JUMP JUMPDEST SWAP1 POP SWAP3 SWAP2 POP POP JUMP JUMPDEST PUSH1 0x0 PUSH1 0x20 DUP3 ADD SWAP1 POP DUP2 DUP2 SUB PUSH1 0x0 DUP4 ADD MSTORE PUSH2 0x1A9A DUP2 PUSH2 0x1764 JUMP JUMPDEST SWAP1 POP SWAP2 SWAP1 POP JUMP JUMPDEST PUSH1 0x0 PUSH1 0x20 DUP3 ADD SWAP1 POP DUP2 DUP2 SUB PUSH1 0x0 DUP4 ADD MSTORE PUSH2 0x1ABA DUP2 PUSH2 0x1787 JUMP JUMPDEST SWAP1 POP SWAP2 SWAP1 POP JUMP JUMPDEST PUSH1 0x0 PUSH1 0x20 DUP3 ADD SWAP1 POP DUP2 DUP2 SUB PUSH1 0x0 DUP4 ADD MSTORE PUSH2 0x1ADA DUP2 PUSH2 0x17AA JUMP JUMPDEST SWAP1 POP SWAP2 SWAP1 POP JUMP JUMPDEST PUSH1 0x0 PUSH1 0x20 DUP3 ADD SWAP1 POP DUP2 DUP2 SUB PUSH1 0x0 DUP4 ADD MSTORE PUSH2 0x1AFA DUP2 PUSH2 0x17CD JUMP JUMPDEST SWAP1 POP SWAP2 SWAP1 POP JUMP JUMPDEST PUSH1 0x0 PUSH1 0x20 DUP3 ADD SWAP1 POP DUP2 DUP2 SUB PUSH1 0x0 DUP4 ADD MSTORE PUSH2 0x1B1A DUP2 PUSH2 0x17F0 JUMP JUMPDEST SWAP1 POP SWAP2 SWAP1 POP JUMP JUMPDEST PUSH1 0x0 PUSH1 0x20 DUP3 ADD SWAP1 POP DUP2 DUP2 SUB PUSH1 0x0 DUP4 ADD MSTORE PUSH2 0x1B3A DUP2 PUSH2 0x1813 JUMP JUMPDEST SWAP1 POP SWAP2 SWAP1 POP JUMP JUMPDEST PUSH1 0x0 PUSH1 0x20 DUP3 ADD SWAP1 POP DUP2 DUP2 SUB PUSH1 0x0 DUP4 ADD MSTORE PUSH2 0x1B5A DUP2 PUSH2 0x1836 JUMP JUMPDEST SWAP1 POP SWAP2 SWAP1 POP JUMP JUMPDEST PUSH1 0x0 PUSH1 0x20 DUP3 ADD SWAP1 POP DUP2 DUP2 SUB PUSH1 0x0 DUP4 ADD MSTORE PUSH2 0x1B7A DUP2 PUSH2 0x1859 JUMP JUMPDEST SWAP1 POP SWAP2 SWAP1 POP JUMP JUMPDEST PUSH1 0x0 PUSH1 0x20 DUP3 ADD SWAP1 POP DUP2 DUP2 SUB PUSH1 0x0 DUP4 ADD MSTORE PUSH2 0x1B9A DUP2 PUSH2 0x187C JUMP JUMPDEST SWAP1 POP SWAP2 SWAP1 POP JUMP JUMPDEST PUSH1 0x0 PUSH1 0x20 DUP3 ADD SWAP1 POP DUP2 DUP2 SUB PUSH1 0x0 DUP4 ADD MSTORE PUSH2 0x1BBA DUP2 PUSH2 0x189F JUMP JUMPDEST SWAP1 POP SWAP2 SWAP1 POP JUMP JUMPDEST PUSH1 0x0 PUSH1 0x20 DUP3 ADD SWAP1 POP DUP2 DUP2 SUB PUSH1 0x0 DUP4 ADD MSTORE PUSH2 0x1BDA DUP2 PUSH2 0x18C2 JUMP JUMPDEST SWAP1 POP SWAP2 SWAP1 POP JUMP JUMPDEST PUSH1 0x0 PUSH1 0x20 DUP3 ADD SWAP1 POP DUP2 DUP2 SUB PUSH1 0x0 DUP4 ADD MSTORE PUSH2 0x1BFA DUP2 PUSH2 0x18E5 JUMP JUMPDEST SWAP1 POP SWAP2 SWAP1 POP JUMP JUMPDEST PUSH1 0x0 PUSH1 0x20 DUP3 ADD SWAP1 POP DUP2 DUP2 SUB PUSH1 0x0 DUP4 ADD MSTORE PUSH2 0x1C1A DUP2 PUSH2 0x1908 JUMP JUMPDEST SWAP1 POP SWAP2 SWAP1 POP JUMP JUMPDEST PUSH1 0x0 PUSH1 0x80 DUP3 ADD SWAP1 POP PUSH2 0x1C36 PUSH1 0x0 DUP4 ADD DUP5 PUSH2 0x192B JUMP JUMPDEST SWAP3 SWAP2 POP POP JUMP JUMPDEST PUSH1 0x0 PUSH1 0x20 DUP3 ADD SWAP1 POP PUSH2 0x1C51 PUSH1 0x0 DUP4 ADD DUP5 PUSH2 0x198F JUMP JUMPDEST SWAP3 SWAP2 POP POP JUMP JUMPDEST PUSH1 0x0 DUP1 DUP4 CALLDATALOAD PUSH1 0x1 PUSH1 0x20 SUB DUP5 CALLDATASIZE SUB SUB DUP2 SLT PUSH2 0x1C74 JUMPI PUSH2 0x1C73 PUSH2 0x1EB2 JUMP JUMPDEST JUMPDEST DUP1 DUP5 ADD SWAP3 POP DUP3 CALLDATALOAD SWAP2 POP PUSH8 0xFFFFFFFFFFFFFFFF DUP3 GT ISZERO PUSH2 0x1C96 JUMPI PUSH2 0x1C95 PUSH2 0x1EA8 JUMP JUMPDEST JUMPDEST PUSH1 0x20 DUP4 ADD SWAP3 POP PUSH1 0x1 DUP3 MUL CALLDATASIZE SUB DUP4 SGT ISZERO PUSH2 0x1CB2 JUMPI PUSH2 0x1CB1 PUSH2 0x1EBC JUMP JUMPDEST JUMPDEST POP SWAP3 POP SWAP3 SWAP1 POP JUMP JUMPDEST PUSH1 0x0 DUP3 CALLDATALOAD PUSH1 0x1 PUSH1 0xE0 SUB DUP4 CALLDATASIZE SUB SUB DUP2 SLT PUSH2 0x1CD6 JUMPI PUSH2 0x1CD5 PUSH2 0x1EB2 JUMP JUMPDEST JUMPDEST DUP1 DUP4 ADD SWAP2 POP POP SWAP3 SWAP2 POP POP JUMP JUMPDEST PUSH1 0x0 DUP3 CALLDATALOAD PUSH1 0x1 PUSH2 0x100 SUB DUP4 CALLDATASIZE SUB SUB DUP2 SLT PUSH2 0x1CFF JUMPI PUSH2 0x1CFE PUSH2 0x1EB2 JUMP JUMPDEST JUMPDEST DUP1 DUP4 ADD SWAP2 POP POP SWAP3 SWAP2 POP POP JUMP JUMPDEST PUSH1 0x0 DUP2 MLOAD SWAP1 POP SWAP2 SWAP1 POP JUMP JUMPDEST PUSH1 0x0 DUP2 MLOAD SWAP1 POP SWAP2 SWAP1 POP JUMP JUMPDEST PUSH1 0x0 DUP3 DUP3 MSTORE PUSH1 0x20 DUP3 ADD SWAP1 POP SWAP3 SWAP2 POP POP JUMP JUMPDEST PUSH1 0x0 DUP2 SWAP1 POP SWAP3 SWAP2 POP POP JUMP JUMPDEST PUSH1 0x0 DUP3 DUP3 MSTORE PUSH1 0x20 DUP3 ADD SWAP1 POP SWAP3 SWAP2 POP POP JUMP JUMPDEST PUSH1 0x0 PUSH2 0x1D59 DUP3 PUSH2 0x1E32 JUMP JUMPDEST SWAP2 POP PUSH2 0x1D64 DUP4 PUSH2 0x1E32 JUMP JUMPDEST SWAP3 POP DUP3 PUSH32 0xFFFFFFFFFFFFFFFFFFFFFFFFFFFFFFFFFFFFFFFFFFFFFFFFFFFFFFFFFFFFFFFF SUB DUP3 GT ISZERO PUSH2 0x1D99 JUMPI PUSH2 0x1D98 PUSH2 0x1E6F JUMP JUMPDEST JUMPDEST DUP3 DUP3 ADD SWAP1 POP SWAP3 SWAP2 POP POP JUMP JUMPDEST PUSH1 0x0 PUSH2 0x1DAF DUP3 PUSH2 0x1E12 JUMP JUMPDEST SWAP1 POP SWAP2 SWAP1 POP JUMP JUMPDEST PUSH1 0x0 PUSH2 0x1DC1 DUP3 PUSH2 0x1E12 JUMP JUMPDEST SWAP1 POP SWAP2 SWAP1 POP JUMP JUMPDEST PUSH1 0x0 DUP2 ISZERO ISZERO SWAP1 POP SWAP2 SWAP1 POP JUMP JUMPDEST PUSH1 0x0 PUSH32 0xFFFFFFFF00000000000000000000000000000000000000000000000000000000 DUP3 AND SWAP1 POP SWAP2 SWAP1 POP JUMP JUMPDEST PUSH1 0x0 PUSH2 0x1E0B DUP3 PUSH2 0x1DA4 JUMP JUMPDEST SWAP1 POP SWAP2 SWAP1 POP JUMP JUMPDEST PUSH1 0x0 PUSH20 0xFFFFFFFFFFFFFFFFFFFFFFFFFFFFFFFFFFFFFFFF DUP3 AND SWAP1 POP SWAP2 SWAP1 POP JUMP JUMPDEST PUSH1 0x0 DUP2 SWAP1 POP SWAP2 SWAP1 POP JUMP JUMPDEST PUSH1 0x0 JUMPDEST DUP4 DUP2 LT ISZERO PUSH2 0x1E5A JUMPI DUP1 DUP3 ADD MLOAD DUP2 DUP5 ADD MSTORE PUSH1 0x20 DUP2 ADD SWAP1 POP PUSH2 0x1E3F JUMP JUMPDEST DUP4 DUP2 GT ISZERO PUSH2 0x1E69 JUMPI PUSH1 0x0 DUP5 DUP5 ADD MSTORE JUMPDEST POP POP POP POP JUMP JUMPDEST PUSH32 0x4E487B7100000000000000000000000000000000000000000000000000000000 PUSH1 0x0 MSTORE PUSH1 0x11 PUSH1 0x4 MSTORE PUSH1 0x24 PUSH1 0x0 REVERT JUMPDEST PUSH1 0x0 DUP1 REVERT JUMPDEST PUSH1 0x0 DUP1 REVERT JUMPDEST PUSH1 0x0 DUP1 REVERT JUMPDEST PUSH1 0x0 DUP1 REVERT JUMPDEST PUSH1 0x0 DUP1 REVERT JUMPDEST PUSH1 0x0 DUP1 REVERT JUMPDEST PUSH1 0x0 DUP1 REVERT JUMPDEST PUSH1 0x0 DUP1 REVERT JUMPDEST PUSH1 0x0 DUP1 REVERT JUMPDEST PUSH1 0x0 PUSH1 0x1F NOT PUSH1 0x1F DUP4 ADD AND SWAP1 POP SWAP2 SWAP1 POP JUMP JUMPDEST PUSH32 0x73686F756C642068617665206E6F207061796D61737465724461746100000000 PUSH1 0x0 DUP3 ADD MSTORE POP JUMP JUMPDEST PUSH32 0x696E76616C696420666F7277617264657220666F7220726563697069656E7400 PUSH1 0x0 DUP3 ADD MSTORE POP JUMP JUMPDEST PUSH32 0x4F776E61626C653A206E6577206F776E657220697320746865207A65726F2061 PUSH1 0x0 DUP3 ADD MSTORE PUSH32 0x6464726573730000000000000000000000000000000000000000000000000000 PUSH1 0x20 DUP3 ADD MSTORE POP JUMP JUMPDEST PUSH32 0x697354727573746564466F727761726465723A20726576657274656400000000 PUSH1 0x0 DUP3 ADD MSTORE POP JUMP JUMPDEST PUSH32 0x72656C6179206875622061646472657373206E6F742073657400000000000000 PUSH1 0x0 DUP3 ADD MSTORE POP JUMP JUMPDEST PUSH32 0x466F72776172646572206973206E6F7420747275737465640000000000000000 PUSH1 0x0 DUP3 ADD MSTORE POP JUMP JUMPDEST PUSH32 0x746172676574206973206E6F7420612076616C69642049466F72776172646572 PUSH1 0x0 DUP3 ADD MSTORE POP JUMP JUMPDEST PUSH32 0x697354727573746564466F727761726465723A2062616420726573706F6E7365 PUSH1 0x0 DUP3 ADD MSTORE POP JUMP JUMPDEST PUSH32 0x4F776E61626C653A2063616C6C6572206973206E6F7420746865206F776E6572 PUSH1 0x0 DUP3 ADD MSTORE POP JUMP JUMPDEST PUSH32 0x746172676574206973206E6F7420612076616C6964204952656C617948756200 PUSH1 0x0 DUP3 ADD MSTORE POP JUMP JUMPDEST PUSH32 0x63616E206F6E6C792062652063616C6C65642062792052656C61794875620000 PUSH1 0x0 DUP3 ADD MSTORE POP JUMP JUMPDEST PUSH32 0x76616C7565207472616E73666572206E6F7420737570706F7274656400000000 PUSH1 0x0 DUP3 ADD MSTORE POP JUMP JUMPDEST PUSH32 0x73686F756C642068617665206E6F20617070726F76616C446174610000000000 PUSH1 0x0 DUP3 ADD MSTORE POP JUMP JUMPDEST PUSH2 0x2120 DUP2 PUSH2 0x1DA4 JUMP JUMPDEST DUP2 EQ PUSH2 0x212B JUMPI PUSH1 0x0 DUP1 REVERT JUMPDEST POP JUMP JUMPDEST PUSH2 0x2137 DUP2 PUSH2 0x1DB6 JUMP JUMPDEST DUP2 EQ PUSH2 0x2142 JUMPI PUSH1 0x0 DUP1 REVERT JUMPDEST POP JUMP JUMPDEST PUSH2 0x214E DUP2 PUSH2 0x1DC8 JUMP JUMPDEST DUP2 EQ PUSH2 0x2159 JUMPI PUSH1 0x0 DUP1 REVERT JUMPDEST POP JUMP JUMPDEST PUSH2 0x2165 DUP2 PUSH2 0x1DD4 JUMP JUMPDEST DUP2 EQ PUSH2 0x2170 JUMPI PUSH1 0x0 DUP1 REVERT JUMPDEST POP JUMP JUMPDEST PUSH2 0x217C DUP2 PUSH2 0x1E00 JUMP JUMPDEST DUP2 EQ PUSH2 0x2187 JUMPI PUSH1 0x0 DUP1 REVERT JUMPDEST POP JUMP JUMPDEST PUSH2 0x2193 DUP2 PUSH2 0x1E32 JUMP JUMPDEST DUP2 EQ PUSH2 0x219E JUMPI PUSH1 0x0 DUP1 REVERT JUMPDEST POP JUMP INVALID CALLER 0x2E ADDRESS 0x2E ADDRESS 0x2D PUSH3 0x657461 0x2E CALLER 0x2B PUSH16 0x70656E67736E2E616363657074657665 PUSH19 0x797468696E672E697061796D6173746572A264 PUSH10 0x7066735822122012EE77 0xF9 0xB7 PUSH31 0x33F515347C9611B25C36AC06DF89A6A9DC2A82E6EA0EC1A63A2264736F6C63 NUMBER STOP ADDMOD SMOD STOP CALLER "
				},
				"gasEstimates": {
					"creation": {
						"codeDepositCost": "1742200",
						"executionCost": "infinite",
						"totalCost": "infinite"
					},
					"external": {
						"CALLDATA_SIZE_LIMIT()": "352",
						"FORWARDER_HUB_OVERHEAD()": "418",
						"PAYMASTER_ACCEPTANCE_BUDGET()": "infinite",
						"POST_RELAYED_CALL_GAS_LIMIT()": "440",
						"PRE_RELAYED_CALL_GAS_LIMIT()": "439",
						"getBalance()": "infinite",
						"getGasAndDataLimits()": "infinite",
						"getRelayHub()": "2633",
						"getTrustedForwarder()": "2544",
						"owner()": "2545",
						"postRelayedCall(bytes,bool,uint256,(uint256,uint256,uint256,address,address,address,bytes,uint256))": "3534",
						"preRelayedCall(((address,address,uint256,uint256,uint256,bytes,uint256),(uint256,uint256,uint256,address,address,address,bytes,uint256)),bytes,bytes,uint256)": "infinite",
						"renounceOwnership()": "30443",
						"setRelayHub(address)": "infinite",
						"setTrustedForwarder(address)": "infinite",
						"supportsInterface(bytes4)": "819",
						"transferOwnership(address)": "30835",
						"versionPaymaster()": "infinite",
						"withdrawRelayHubDepositTo(uint256,address)": "infinite"
					},
					"internal": {
						"_postRelayedCall(bytes calldata,bool,uint256,struct GsnTypes.RelayData calldata)": "19",
						"_preRelayedCall(struct GsnTypes.RelayRequest calldata,bytes calldata,bytes calldata,uint256)": "infinite"
					}
				},
				"methodIdentifiers": {
					"CALLDATA_SIZE_LIMIT()": "5c5e3db1",
					"FORWARDER_HUB_OVERHEAD()": "b90b41cf",
					"PAYMASTER_ACCEPTANCE_BUDGET()": "df463a66",
					"POST_RELAYED_CALL_GAS_LIMIT()": "bbdaa3c9",
					"PRE_RELAYED_CALL_GAS_LIMIT()": "f9c002f7",
					"getBalance()": "12065fe0",
					"getGasAndDataLimits()": "b039a88f",
					"getRelayHub()": "7bdf2ec7",
					"getTrustedForwarder()": "ce1b815f",
					"owner()": "8da5cb5b",
					"postRelayedCall(bytes,bool,uint256,(uint256,uint256,uint256,address,address,address,bytes,uint256))": "76fa01c3",
					"preRelayedCall(((address,address,uint256,uint256,uint256,bytes,uint256),(uint256,uint256,uint256,address,address,address,bytes,uint256)),bytes,bytes,uint256)": "00be5dd4",
					"renounceOwnership()": "715018a6",
					"setRelayHub(address)": "7bb05264",
					"setTrustedForwarder(address)": "da742228",
					"supportsInterface(bytes4)": "01ffc9a7",
					"transferOwnership(address)": "f2fde38b",
					"versionPaymaster()": "921276ea",
					"withdrawRelayHubDepositTo(uint256,address)": "2d14c4b7"
				}
			},
			"storageLayout": {
				"storage": [
					{
						"astId": 1863,
						"contract": "testEverythingPaymaster.sol:TestEverythingPaymaster",
						"label": "_owner",
						"offset": 0,
						"slot": "0",
						"type": "t_address"
					},
					{
						"astId": 23,
						"contract": "testEverythingPaymaster.sol:TestEverythingPaymaster",
						"label": "relayHub",
						"offset": 0,
						"slot": "1",
						"type": "t_contract(IRelayHub)955"
					},
					{
						"astId": 25,
						"contract": "testEverythingPaymaster.sol:TestEverythingPaymaster",
						"label": "_trustedForwarder",
						"offset": 0,
						"slot": "2",
						"type": "t_address"
					},
					{
						"astId": 2310,
						"contract": "testEverythingPaymaster.sol:TestEverythingPaymaster",
						"label": "balance",
						"offset": 0,
						"slot": "3",
						"type": "t_uint256"
					}
				],
				"types": {
					"t_address": {
						"encoding": "inplace",
						"label": "address",
						"numberOfBytes": "20"
					},
					"t_contract(IRelayHub)955": {
						"encoding": "inplace",
						"label": "contract IRelayHub",
						"numberOfBytes": "20"
					},
					"t_uint256": {
						"encoding": "inplace",
						"label": "uint256",
						"numberOfBytes": "32"
					}
				}
			},
			"userdoc": {
				"kind": "user",
				"methods": {
					"getGasAndDataLimits()": {
						"notice": "Return the Gas Limits for Paymaster's functions and maximum msg.data length values for this Paymaster. This function allows different paymasters to have different properties without changes to the RelayHub."
					},
					"getTrustedForwarder()": {
						"notice": ":warning: **Warning** :warning: using incorrect Forwarder may cause the Paymaster to agreeing to pay for invalid transactions."
					},
					"postRelayedCall(bytes,bool,uint256,(uint256,uint256,uint256,address,address,address,bytes,uint256))": {
						"notice": "This method is called after the actual relayed function call. It may be used to record the transaction (e.g. charge the caller by some contract logic) for this call. Revert in this functions causes a revert of the client's relayed call (and preRelayedCall(), but the Paymaster is still committed to pay the relay for the entire transaction."
					},
					"preRelayedCall(((address,address,uint256,uint256,uint256,bytes,uint256),(uint256,uint256,uint256,address,address,address,bytes,uint256)),bytes,bytes,uint256)": {
						"notice": "Called by the Relay in view mode and later by the `RelayHub` on-chain to validate that the Paymaster agrees to pay for this call. The request is considered to be rejected by the Paymaster in one of the following conditions:  - `preRelayedCall()` method reverts  - the `Forwarder` reverts because of nonce or signature error  - the `Paymaster` returned `rejectOnRecipientRevert: true` and the recipient contract reverted    (and all that did not consume more than `acceptanceBudget` gas). In any of the above cases, all Paymaster calls and the recipient call are reverted. In any other case the Paymaster will pay for the gas cost of the transaction. Note that even if `postRelayedCall` is reverted the Paymaster will be charged."
					},
					"setRelayHub(address)": {
						"notice": "The owner of the Paymaster can change the instance of the RelayHub this Paymaster works with. :warning: **Warning** :warning: The deposit on the previous RelayHub must be withdrawn first."
					},
					"setTrustedForwarder(address)": {
						"notice": "The owner of the Paymaster can change the instance of the Forwarder this Paymaster works with.the Recipients must trust this Forwarder as well in order for the configuration to remain functional."
					},
					"withdrawRelayHubDepositTo(uint256,address)": {
						"notice": "Withdraw deposit from the RelayHub."
					}
				},
				"version": 1
			}
		}
	}
}