{
	"@opengsn/contracts/src/utils/GsnEip712Library.sol": {
		"GsnEip712Library": {
			"abi": [
				{
					"inputs": [],
					"name": "EIP712DOMAIN_TYPEHASH",
					"outputs": [
						{
							"internalType": "bytes32",
							"name": "",
							"type": "bytes32"
						}
					],
					"stateMutability": "view",
					"type": "function"
				},
				{
					"inputs": [],
					"name": "GENERIC_PARAMS",
					"outputs": [
						{
							"internalType": "string",
							"name": "",
							"type": "string"
						}
					],
					"stateMutability": "view",
					"type": "function"
				},
				{
					"inputs": [],
					"name": "RELAYDATA_TYPE",
					"outputs": [
						{
							"internalType": "bytes",
							"name": "",
							"type": "bytes"
						}
					],
					"stateMutability": "view",
					"type": "function"
				},
				{
					"inputs": [],
					"name": "RELAYDATA_TYPEHASH",
					"outputs": [
						{
							"internalType": "bytes32",
							"name": "",
							"type": "bytes32"
						}
					],
					"stateMutability": "view",
					"type": "function"
				},
				{
					"inputs": [],
					"name": "RELAY_REQUEST_NAME",
					"outputs": [
						{
							"internalType": "string",
							"name": "",
							"type": "string"
						}
					],
					"stateMutability": "view",
					"type": "function"
				},
				{
					"inputs": [],
					"name": "RELAY_REQUEST_SUFFIX",
					"outputs": [
						{
							"internalType": "string",
							"name": "",
							"type": "string"
						}
					],
					"stateMutability": "view",
					"type": "function"
				},
				{
					"inputs": [],
					"name": "RELAY_REQUEST_TYPE",
					"outputs": [
						{
							"internalType": "bytes",
							"name": "",
							"type": "bytes"
						}
					],
					"stateMutability": "view",
					"type": "function"
				},
				{
					"inputs": [],
					"name": "RELAY_REQUEST_TYPEHASH",
					"outputs": [
						{
							"internalType": "bytes32",
							"name": "",
							"type": "bytes32"
						}
					],
					"stateMutability": "view",
					"type": "function"
				}
			],
			"devdoc": {
				"kind": "dev",
				"methods": {},
				"title": "The ERC-712 Library for GSN",
				"version": 1
			},
			"evm": {
				"assembly": "    /* \"@opengsn/contracts/src/utils/GsnEip712Library.sol\":380:6124  library GsnEip712Library {... */\n  dataSize(sub_0)\n  dataOffset(sub_0)\n  0x0b\n  dup3\n  dup3\n  dup3\n  codecopy\n  dup1\n  mload\n  0x00\n  byte\n  0x73\n  eq\n  tag_1\n  jumpi\n  mstore(0x00, 0x4e487b7100000000000000000000000000000000000000000000000000000000)\n  mstore(0x04, 0x00)\n  revert(0x00, 0x24)\ntag_1:\n  mstore(0x00, address)\n  0x73\n  dup2\n  mstore8\n  dup3\n  dup2\n  return\nstop\n\nsub_0: assembly {\n        /* \"@opengsn/contracts/src/utils/GsnEip712Library.sol\":380:6124  library GsnEip712Library {... */\n      eq(address, deployTimeAddress())\n      mstore(0x40, 0x80)\n      jumpi(tag_1, lt(calldatasize, 0x04))\n      shr(0xe0, calldataload(0x00))\n      dup1\n      0xabf0d3f4\n      gt\n      tag_10\n      jumpi\n      dup1\n      0xabf0d3f4\n      eq\n      tag_6\n      jumpi\n      dup1\n      0xc46cf83f\n      eq\n      tag_7\n      jumpi\n      dup1\n      0xc49f91d3\n      eq\n      tag_8\n      jumpi\n      dup1\n      0xcc0c62b2\n      eq\n      tag_9\n      jumpi\n      jump(tag_1)\n    tag_10:\n      dup1\n      0x066a310c\n      eq\n      tag_2\n      jumpi\n      dup1\n      0x6225e61b\n      eq\n      tag_3\n      jumpi\n      dup1\n      0x931cd38f\n      eq\n      tag_4\n      jumpi\n      dup1\n      0x987673f7\n      eq\n      tag_5\n      jumpi\n    tag_1:\n      0x00\n      dup1\n      revert\n        /* \"@opengsn/contracts/src/utils/GsnEip712Library.sol\":662:801  string public constant GENERIC_PARAMS = \"address from,address to,uint256 value,uint256 gas,uint256 nonce,bytes data,uint256 validUntilTime\" */\n    tag_2:\n      tag_11\n      tag_12\n      jump\t// in\n    tag_11:\n      mload(0x40)\n      tag_13\n      swap2\n      swap1\n      tag_14\n      jump\t// in\n    tag_13:\n      mload(0x40)\n      dup1\n      swap2\n      sub\n      swap1\n      return\n        /* \"@opengsn/contracts/src/utils/GsnEip712Library.sol\":1225:1358  bytes public constant RELAY_REQUEST_TYPE = abi.encodePacked(... */\n    tag_3:\n      tag_15\n      tag_16\n      jump\t// in\n    tag_15:\n      mload(0x40)\n      tag_17\n      swap2\n      swap1\n      tag_18\n      jump\t// in\n    tag_17:\n      mload(0x40)\n      dup1\n      swap2\n      sub\n      swap1\n      return\n        /* \"@opengsn/contracts/src/utils/GsnEip712Library.sol\":1108:1218  string public constant RELAY_REQUEST_SUFFIX = string(abi.encodePacked(\"RelayData relayData)\", RELAYDATA_TYPE)) */\n    tag_4:\n      tag_19\n      tag_20\n      jump\t// in\n    tag_19:\n      mload(0x40)\n      tag_21\n      swap2\n      swap1\n      tag_14\n      jump\t// in\n    tag_21:\n      mload(0x40)\n      dup1\n      swap2\n      sub\n      swap1\n      return\n        /* \"@opengsn/contracts/src/utils/GsnEip712Library.sol\":1044:1102  string public constant RELAY_REQUEST_NAME = \"RelayRequest\" */\n    tag_5:\n      tag_22\n      tag_23\n      jump\t// in\n    tag_22:\n      mload(0x40)\n      tag_24\n      swap2\n      swap1\n      tag_14\n      jump\t// in\n    tag_24:\n      mload(0x40)\n      dup1\n      swap2\n      sub\n      swap1\n      return\n        /* \"@opengsn/contracts/src/utils/GsnEip712Library.sol\":1441:1519  bytes32 public constant RELAY_REQUEST_TYPEHASH = keccak256(RELAY_REQUEST_TYPE) */\n    tag_6:\n      tag_25\n      tag_26\n      jump\t// in\n    tag_25:\n      mload(0x40)\n      tag_27\n      swap2\n      swap1\n      tag_28\n      jump\t// in\n    tag_27:\n      mload(0x40)\n      dup1\n      swap2\n      sub\n      swap1\n      return\n        /* \"@opengsn/contracts/src/utils/GsnEip712Library.sol\":808:1037  bytes public constant RELAYDATA_TYPE = \"RelayData(uint256 maxFeePerGas,uint256 maxPriorityFeePerGas,uint256 transactionCalldataGasUsed,address relayWorker,address paymaster,address forwarder,bytes paymasterData,uint256 clientId)\" */\n    tag_7:\n      tag_29\n      tag_30\n      jump\t// in\n    tag_29:\n      mload(0x40)\n      tag_31\n      swap2\n      swap1\n      tag_18\n      jump\t// in\n    tag_31:\n      mload(0x40)\n      dup1\n      swap2\n      sub\n      swap1\n      return\n        /* \"@opengsn/contracts/src/utils/GsnEip712Library.sol\":1665:1822  bytes32 public constant EIP712DOMAIN_TYPEHASH = keccak256(... */\n    tag_8:\n      tag_32\n      tag_33\n      jump\t// in\n    tag_32:\n      mload(0x40)\n      tag_34\n      swap2\n      swap1\n      tag_28\n      jump\t// in\n    tag_34:\n      mload(0x40)\n      dup1\n      swap2\n      sub\n      swap1\n      return\n        /* \"@opengsn/contracts/src/utils/GsnEip712Library.sol\":1365:1435  bytes32 public constant RELAYDATA_TYPEHASH = keccak256(RELAYDATA_TYPE) */\n    tag_9:\n      tag_35\n      tag_36\n      jump\t// in\n    tag_35:\n      mload(0x40)\n      tag_37\n      swap2\n      swap1\n      tag_28\n      jump\t// in\n    tag_37:\n      mload(0x40)\n      dup1\n      swap2\n      sub\n      swap1\n      return\n        /* \"@opengsn/contracts/src/utils/GsnEip712Library.sol\":662:801  string public constant GENERIC_PARAMS = \"address from,address to,uint256 value,uint256 gas,uint256 nonce,bytes data,uint256 validUntilTime\" */\n    tag_12:\n      mload(0x40)\n      dup1\n      0xa0\n      add\n      0x40\n      mstore\n      dup1\n      0x61\n      dup2\n      mstore\n      0x20\n      add\n      data_33f12fe95872be7be9c474c0e99a56a1b0cad386a14d26df2bb11622e5368f9b\n      0x61\n      swap2\n      codecopy\n      dup2\n      jump\t// out\n        /* \"@opengsn/contracts/src/utils/GsnEip712Library.sol\":1225:1358  bytes public constant RELAY_REQUEST_TYPE = abi.encodePacked(... */\n    tag_16:\n        /* \"@opengsn/contracts/src/utils/GsnEip712Library.sol\":1294:1312  RELAY_REQUEST_NAME */\n      mload(0x40)\n      dup1\n      0x40\n      add\n      0x40\n      mstore\n      dup1\n      0x0c\n      dup2\n      mstore\n      0x20\n      add\n      0x52656c6179526571756573740000000000000000000000000000000000000000\n      dup2\n      mstore\n      pop\n        /* \"@opengsn/contracts/src/utils/GsnEip712Library.sol\":1317:1331  GENERIC_PARAMS */\n      mload(0x40)\n      dup1\n      0xa0\n      add\n      0x40\n      mstore\n      dup1\n      0x61\n      dup2\n      mstore\n      0x20\n      add\n      data_33f12fe95872be7be9c474c0e99a56a1b0cad386a14d26df2bb11622e5368f9b\n      0x61\n      swap2\n      codecopy\n        /* \"@opengsn/contracts/src/utils/GsnEip712Library.sol\":1202:1216  RELAYDATA_TYPE */\n      mload(0x40)\n      dup1\n      0xe0\n      add\n      0x40\n      mstore\n      dup1\n      0xbc\n      dup2\n      mstore\n      0x20\n      add\n      data_c5ea90dda9219120f9d08877180c718e673bc3e452715c45f7d7c9bd6548dacf\n      0xbc\n      swap2\n      codecopy\n        /* \"@opengsn/contracts/src/utils/GsnEip712Library.sol\":1161:1217  abi.encodePacked(\"RelayData relayData)\", RELAYDATA_TYPE) */\n      add(0x20, mload(0x40))\n      tag_38\n      swap2\n      swap1\n      tag_39\n      jump\t// in\n    tag_38:\n      mload(0x40)\n      0x20\n      dup2\n      dup4\n      sub\n      sub\n      dup2\n      mstore\n      swap1\n      0x40\n      mstore\n        /* \"@opengsn/contracts/src/utils/GsnEip712Library.sol\":1268:1358  abi.encodePacked(... */\n      add(0x20, mload(0x40))\n      tag_40\n      swap4\n      swap3\n      swap2\n      swap1\n      tag_41\n      jump\t// in\n    tag_40:\n      mload(0x40)\n      0x20\n      dup2\n      dup4\n      sub\n      sub\n      dup2\n      mstore\n      swap1\n      0x40\n      mstore\n        /* \"@opengsn/contracts/src/utils/GsnEip712Library.sol\":1225:1358  bytes public constant RELAY_REQUEST_TYPE = abi.encodePacked(... */\n      dup2\n      jump\t// out\n        /* \"@opengsn/contracts/src/utils/GsnEip712Library.sol\":1108:1218  string public constant RELAY_REQUEST_SUFFIX = string(abi.encodePacked(\"RelayData relayData)\", RELAYDATA_TYPE)) */\n    tag_20:\n        /* \"@opengsn/contracts/src/utils/GsnEip712Library.sol\":1202:1216  RELAYDATA_TYPE */\n      mload(0x40)\n      dup1\n      0xe0\n      add\n      0x40\n      mstore\n      dup1\n      0xbc\n      dup2\n      mstore\n      0x20\n      add\n      data_c5ea90dda9219120f9d08877180c718e673bc3e452715c45f7d7c9bd6548dacf\n      0xbc\n      swap2\n      codecopy\n        /* \"@opengsn/contracts/src/utils/GsnEip712Library.sol\":1161:1217  abi.encodePacked(\"RelayData relayData)\", RELAYDATA_TYPE) */\n      add(0x20, mload(0x40))\n      tag_42\n      swap2\n      swap1\n      tag_39\n      jump\t// in\n    tag_42:\n      mload(0x40)\n      0x20\n      dup2\n      dup4\n      sub\n      sub\n      dup2\n      mstore\n      swap1\n      0x40\n      mstore\n        /* \"@opengsn/contracts/src/utils/GsnEip712Library.sol\":1108:1218  string public constant RELAY_REQUEST_SUFFIX = string(abi.encodePacked(\"RelayData relayData)\", RELAYDATA_TYPE)) */\n      dup2\n      jump\t// out\n        /* \"@opengsn/contracts/src/utils/GsnEip712Library.sol\":1044:1102  string public constant RELAY_REQUEST_NAME = \"RelayRequest\" */\n    tag_23:\n      mload(0x40)\n      dup1\n      0x40\n      add\n      0x40\n      mstore\n      dup1\n      0x0c\n      dup2\n      mstore\n      0x20\n      add\n      0x52656c6179526571756573740000000000000000000000000000000000000000\n      dup2\n      mstore\n      pop\n      dup2\n      jump\t// out\n        /* \"@opengsn/contracts/src/utils/GsnEip712Library.sol\":1441:1519  bytes32 public constant RELAY_REQUEST_TYPEHASH = keccak256(RELAY_REQUEST_TYPE) */\n    tag_26:\n        /* \"@opengsn/contracts/src/utils/GsnEip712Library.sol\":1294:1312  RELAY_REQUEST_NAME */\n      mload(0x40)\n      dup1\n      0x40\n      add\n      0x40\n      mstore\n      dup1\n      0x0c\n      dup2\n      mstore\n      0x20\n      add\n      0x52656c6179526571756573740000000000000000000000000000000000000000\n      dup2\n      mstore\n      pop\n        /* \"@opengsn/contracts/src/utils/GsnEip712Library.sol\":1317:1331  GENERIC_PARAMS */\n      mload(0x40)\n      dup1\n      0xa0\n      add\n      0x40\n      mstore\n      dup1\n      0x61\n      dup2\n      mstore\n      0x20\n      add\n      data_33f12fe95872be7be9c474c0e99a56a1b0cad386a14d26df2bb11622e5368f9b\n      0x61\n      swap2\n      codecopy\n        /* \"@opengsn/contracts/src/utils/GsnEip712Library.sol\":1202:1216  RELAYDATA_TYPE */\n      mload(0x40)\n      dup1\n      0xe0\n      add\n      0x40\n      mstore\n      dup1\n      0xbc\n      dup2\n      mstore\n      0x20\n      add\n      data_c5ea90dda9219120f9d08877180c718e673bc3e452715c45f7d7c9bd6548dacf\n      0xbc\n      swap2\n      codecopy\n        /* \"@opengsn/contracts/src/utils/GsnEip712Library.sol\":1161:1217  abi.encodePacked(\"RelayData relayData)\", RELAYDATA_TYPE) */\n      add(0x20, mload(0x40))\n      tag_43\n      swap2\n      swap1\n      tag_39\n      jump\t// in\n    tag_43:\n      mload(0x40)\n      0x20\n      dup2\n      dup4\n      sub\n      sub\n      dup2\n      mstore\n      swap1\n      0x40\n      mstore\n        /* \"@opengsn/contracts/src/utils/GsnEip712Library.sol\":1268:1358  abi.encodePacked(... */\n      add(0x20, mload(0x40))\n      tag_44\n      swap4\n      swap3\n      swap2\n      swap1\n      tag_41\n      jump\t// in\n    tag_44:\n      mload(0x40)\n      0x20\n      dup2\n      dup4\n      sub\n      sub\n      dup2\n      mstore\n      swap1\n      0x40\n      mstore\n        /* \"@opengsn/contracts/src/utils/GsnEip712Library.sol\":1490:1519  keccak256(RELAY_REQUEST_TYPE) */\n      dup1\n      mload\n      swap1\n      0x20\n      add\n      keccak256\n        /* \"@opengsn/contracts/src/utils/GsnEip712Library.sol\":1441:1519  bytes32 public constant RELAY_REQUEST_TYPEHASH = keccak256(RELAY_REQUEST_TYPE) */\n      dup2\n      jump\t// out\n        /* \"@opengsn/contracts/src/utils/GsnEip712Library.sol\":808:1037  bytes public constant RELAYDATA_TYPE = \"RelayData(uint256 maxFeePerGas,uint256 maxPriorityFeePerGas,uint256 transactionCalldataGasUsed,address relayWorker,address paymaster,address forwarder,bytes paymasterData,uint256 clientId)\" */\n    tag_30:\n      mload(0x40)\n      dup1\n      0xe0\n      add\n      0x40\n      mstore\n      dup1\n      0xbc\n      dup2\n      mstore\n      0x20\n      add\n      data_c5ea90dda9219120f9d08877180c718e673bc3e452715c45f7d7c9bd6548dacf\n      0xbc\n      swap2\n      codecopy\n      dup2\n      jump\t// out\n        /* \"@opengsn/contracts/src/utils/GsnEip712Library.sol\":1665:1822  bytes32 public constant EIP712DOMAIN_TYPEHASH = keccak256(... */\n    tag_33:\n        /* \"@opengsn/contracts/src/utils/GsnEip712Library.sol\":1713:1822  keccak256(... */\n      0x8b73c3c69bb8fe3d512ecc4cf759cc79239f7b179b0ffacaa9a75d522b39400f\n        /* \"@opengsn/contracts/src/utils/GsnEip712Library.sol\":1665:1822  bytes32 public constant EIP712DOMAIN_TYPEHASH = keccak256(... */\n      dup2\n      jump\t// out\n        /* \"@opengsn/contracts/src/utils/GsnEip712Library.sol\":1365:1435  bytes32 public constant RELAYDATA_TYPEHASH = keccak256(RELAYDATA_TYPE) */\n    tag_36:\n        /* \"@opengsn/contracts/src/utils/GsnEip712Library.sol\":1420:1434  RELAYDATA_TYPE */\n      mload(0x40)\n      dup1\n      0xe0\n      add\n      0x40\n      mstore\n      dup1\n      0xbc\n      dup2\n      mstore\n      0x20\n      add\n      data_c5ea90dda9219120f9d08877180c718e673bc3e452715c45f7d7c9bd6548dacf\n      0xbc\n      swap2\n      codecopy\n        /* \"@opengsn/contracts/src/utils/GsnEip712Library.sol\":1410:1435  keccak256(RELAYDATA_TYPE) */\n      dup1\n      mload\n      swap1\n      0x20\n      add\n      keccak256\n        /* \"@opengsn/contracts/src/utils/GsnEip712Library.sol\":1365:1435  bytes32 public constant RELAYDATA_TYPEHASH = keccak256(RELAYDATA_TYPE) */\n      dup2\n      jump\t// out\n        /* \"#utility.yul\":7:133   */\n    tag_46:\n        /* \"#utility.yul\":102:126   */\n      tag_48\n        /* \"#utility.yul\":120:125   */\n      dup2\n        /* \"#utility.yul\":102:126   */\n      tag_49\n      jump\t// in\n    tag_48:\n        /* \"#utility.yul\":97:100   */\n      dup3\n        /* \"#utility.yul\":90:127   */\n      mstore\n        /* \"#utility.yul\":7:133   */\n      pop\n      pop\n      jump\t// out\n        /* \"#utility.yul\":139:515   */\n    tag_50:\n        /* \"#utility.yul\":233:236   */\n      0x00\n        /* \"#utility.yul\":261:299   */\n      tag_52\n        /* \"#utility.yul\":293:298   */\n      dup3\n        /* \"#utility.yul\":261:299   */\n      tag_53\n      jump\t// in\n    tag_52:\n        /* \"#utility.yul\":315:393   */\n      tag_54\n        /* \"#utility.yul\":386:392   */\n      dup2\n        /* \"#utility.yul\":381:384   */\n      dup6\n        /* \"#utility.yul\":315:393   */\n      tag_55\n      jump\t// in\n    tag_54:\n        /* \"#utility.yul\":308:393   */\n      swap4\n      pop\n        /* \"#utility.yul\":402:454   */\n      tag_56\n        /* \"#utility.yul\":447:453   */\n      dup2\n        /* \"#utility.yul\":442:445   */\n      dup6\n        /* \"#utility.yul\":435:439   */\n      0x20\n        /* \"#utility.yul\":428:433   */\n      dup7\n        /* \"#utility.yul\":424:440   */\n      add\n        /* \"#utility.yul\":402:454   */\n      tag_57\n      jump\t// in\n    tag_56:\n        /* \"#utility.yul\":479:508   */\n      tag_58\n        /* \"#utility.yul\":501:507   */\n      dup2\n        /* \"#utility.yul\":479:508   */\n      tag_59\n      jump\t// in\n    tag_58:\n        /* \"#utility.yul\":474:477   */\n      dup5\n        /* \"#utility.yul\":470:509   */\n      add\n        /* \"#utility.yul\":463:509   */\n      swap2\n      pop\n        /* \"#utility.yul\":237:515   */\n      pop\n        /* \"#utility.yul\":139:515   */\n      swap3\n      swap2\n      pop\n      pop\n      jump\t// out\n        /* \"#utility.yul\":521:894   */\n    tag_60:\n        /* \"#utility.yul\":625:628   */\n      0x00\n        /* \"#utility.yul\":653:691   */\n      tag_62\n        /* \"#utility.yul\":685:690   */\n      dup3\n        /* \"#utility.yul\":653:691   */\n      tag_53\n      jump\t// in\n    tag_62:\n        /* \"#utility.yul\":707:795   */\n      tag_63\n        /* \"#utility.yul\":788:794   */\n      dup2\n        /* \"#utility.yul\":783:786   */\n      dup6\n        /* \"#utility.yul\":707:795   */\n      tag_64\n      jump\t// in\n    tag_63:\n        /* \"#utility.yul\":700:795   */\n      swap4\n      pop\n        /* \"#utility.yul\":804:856   */\n      tag_65\n        /* \"#utility.yul\":849:855   */\n      dup2\n        /* \"#utility.yul\":844:847   */\n      dup6\n        /* \"#utility.yul\":837:841   */\n      0x20\n        /* \"#utility.yul\":830:835   */\n      dup7\n        /* \"#utility.yul\":826:842   */\n      add\n        /* \"#utility.yul\":804:856   */\n      tag_57\n      jump\t// in\n    tag_65:\n        /* \"#utility.yul\":881:887   */\n      dup1\n        /* \"#utility.yul\":876:879   */\n      dup5\n        /* \"#utility.yul\":872:888   */\n      add\n        /* \"#utility.yul\":865:888   */\n      swap2\n      pop\n        /* \"#utility.yul\":629:894   */\n      pop\n        /* \"#utility.yul\":521:894   */\n      swap3\n      swap2\n      pop\n      pop\n      jump\t// out\n        /* \"#utility.yul\":900:1280   */\n    tag_66:\n        /* \"#utility.yul\":996:999   */\n      0x00\n        /* \"#utility.yul\":1024:1063   */\n      tag_68\n        /* \"#utility.yul\":1057:1062   */\n      dup3\n        /* \"#utility.yul\":1024:1063   */\n      tag_69\n      jump\t// in\n    tag_68:\n        /* \"#utility.yul\":1079:1158   */\n      tag_70\n        /* \"#utility.yul\":1151:1157   */\n      dup2\n        /* \"#utility.yul\":1146:1149   */\n      dup6\n        /* \"#utility.yul\":1079:1158   */\n      tag_71\n      jump\t// in\n    tag_70:\n        /* \"#utility.yul\":1072:1158   */\n      swap4\n      pop\n        /* \"#utility.yul\":1167:1219   */\n      tag_72\n        /* \"#utility.yul\":1212:1218   */\n      dup2\n        /* \"#utility.yul\":1207:1210   */\n      dup6\n        /* \"#utility.yul\":1200:1204   */\n      0x20\n        /* \"#utility.yul\":1193:1198   */\n      dup7\n        /* \"#utility.yul\":1189:1205   */\n      add\n        /* \"#utility.yul\":1167:1219   */\n      tag_57\n      jump\t// in\n    tag_72:\n        /* \"#utility.yul\":1244:1273   */\n      tag_73\n        /* \"#utility.yul\":1266:1272   */\n      dup2\n        /* \"#utility.yul\":1244:1273   */\n      tag_59\n      jump\t// in\n    tag_73:\n        /* \"#utility.yul\":1239:1242   */\n      dup5\n        /* \"#utility.yul\":1235:1274   */\n      add\n        /* \"#utility.yul\":1228:1274   */\n      swap2\n      pop\n        /* \"#utility.yul\":1000:1280   */\n      pop\n        /* \"#utility.yul\":900:1280   */\n      swap3\n      swap2\n      pop\n      pop\n      jump\t// out\n        /* \"#utility.yul\":1286:1663   */\n    tag_74:\n        /* \"#utility.yul\":1392:1395   */\n      0x00\n        /* \"#utility.yul\":1420:1459   */\n      tag_76\n        /* \"#utility.yul\":1453:1458   */\n      dup3\n        /* \"#utility.yul\":1420:1459   */\n      tag_69\n      jump\t// in\n    tag_76:\n        /* \"#utility.yul\":1475:1564   */\n      tag_77\n        /* \"#utility.yul\":1557:1563   */\n      dup2\n        /* \"#utility.yul\":1552:1555   */\n      dup6\n        /* \"#utility.yul\":1475:1564   */\n      tag_78\n      jump\t// in\n    tag_77:\n        /* \"#utility.yul\":1468:1564   */\n      swap4\n      pop\n        /* \"#utility.yul\":1573:1625   */\n      tag_79\n        /* \"#utility.yul\":1618:1624   */\n      dup2\n        /* \"#utility.yul\":1613:1616   */\n      dup6\n        /* \"#utility.yul\":1606:1610   */\n      0x20\n        /* \"#utility.yul\":1599:1604   */\n      dup7\n        /* \"#utility.yul\":1595:1611   */\n      add\n        /* \"#utility.yul\":1573:1625   */\n      tag_57\n      jump\t// in\n    tag_79:\n        /* \"#utility.yul\":1650:1656   */\n      dup1\n        /* \"#utility.yul\":1645:1648   */\n      dup5\n        /* \"#utility.yul\":1641:1657   */\n      add\n        /* \"#utility.yul\":1634:1657   */\n      swap2\n      pop\n        /* \"#utility.yul\":1396:1663   */\n      pop\n        /* \"#utility.yul\":1286:1663   */\n      swap3\n      swap2\n      pop\n      pop\n      jump\t// out\n        /* \"#utility.yul\":1669:2069   */\n    tag_80:\n        /* \"#utility.yul\":1829:1832   */\n      0x00\n        /* \"#utility.yul\":1850:1934   */\n      tag_82\n        /* \"#utility.yul\":1932:1933   */\n      0x01\n        /* \"#utility.yul\":1927:1930   */\n      dup4\n        /* \"#utility.yul\":1850:1934   */\n      tag_78\n      jump\t// in\n    tag_82:\n        /* \"#utility.yul\":1843:1934   */\n      swap2\n      pop\n        /* \"#utility.yul\":1943:2036   */\n      tag_83\n        /* \"#utility.yul\":2032:2035   */\n      dup3\n        /* \"#utility.yul\":1943:2036   */\n      tag_84\n      jump\t// in\n    tag_83:\n        /* \"#utility.yul\":2061:2062   */\n      0x01\n        /* \"#utility.yul\":2056:2059   */\n      dup3\n        /* \"#utility.yul\":2052:2063   */\n      add\n        /* \"#utility.yul\":2045:2063   */\n      swap1\n      pop\n        /* \"#utility.yul\":1669:2069   */\n      swap2\n      swap1\n      pop\n      jump\t// out\n        /* \"#utility.yul\":2075:2477   */\n    tag_85:\n        /* \"#utility.yul\":2235:2238   */\n      0x00\n        /* \"#utility.yul\":2256:2341   */\n      tag_87\n        /* \"#utility.yul\":2338:2340   */\n      0x14\n        /* \"#utility.yul\":2333:2336   */\n      dup4\n        /* \"#utility.yul\":2256:2341   */\n      tag_78\n      jump\t// in\n    tag_87:\n        /* \"#utility.yul\":2249:2341   */\n      swap2\n      pop\n        /* \"#utility.yul\":2350:2443   */\n      tag_88\n        /* \"#utility.yul\":2439:2442   */\n      dup3\n        /* \"#utility.yul\":2350:2443   */\n      tag_89\n      jump\t// in\n    tag_88:\n        /* \"#utility.yul\":2468:2470   */\n      0x14\n        /* \"#utility.yul\":2463:2466   */\n      dup3\n        /* \"#utility.yul\":2459:2471   */\n      add\n        /* \"#utility.yul\":2452:2471   */\n      swap1\n      pop\n        /* \"#utility.yul\":2075:2477   */\n      swap2\n      swap1\n      pop\n      jump\t// out\n        /* \"#utility.yul\":2483:2883   */\n    tag_90:\n        /* \"#utility.yul\":2643:2646   */\n      0x00\n        /* \"#utility.yul\":2664:2748   */\n      tag_92\n        /* \"#utility.yul\":2746:2747   */\n      0x01\n        /* \"#utility.yul\":2741:2744   */\n      dup4\n        /* \"#utility.yul\":2664:2748   */\n      tag_78\n      jump\t// in\n    tag_92:\n        /* \"#utility.yul\":2657:2748   */\n      swap2\n      pop\n        /* \"#utility.yul\":2757:2850   */\n      tag_93\n        /* \"#utility.yul\":2846:2849   */\n      dup3\n        /* \"#utility.yul\":2757:2850   */\n      tag_94\n      jump\t// in\n    tag_93:\n        /* \"#utility.yul\":2875:2876   */\n      0x01\n        /* \"#utility.yul\":2870:2873   */\n      dup3\n        /* \"#utility.yul\":2866:2877   */\n      add\n        /* \"#utility.yul\":2859:2877   */\n      swap1\n      pop\n        /* \"#utility.yul\":2483:2883   */\n      swap2\n      swap1\n      pop\n      jump\t// out\n        /* \"#utility.yul\":2889:4016   */\n    tag_41:\n        /* \"#utility.yul\":3319:3322   */\n      0x00\n        /* \"#utility.yul\":3341:3436   */\n      tag_96\n        /* \"#utility.yul\":3432:3435   */\n      dup3\n        /* \"#utility.yul\":3423:3429   */\n      dup7\n        /* \"#utility.yul\":3341:3436   */\n      tag_74\n      jump\t// in\n    tag_96:\n        /* \"#utility.yul\":3334:3436   */\n      swap2\n      pop\n        /* \"#utility.yul\":3453:3601   */\n      tag_97\n        /* \"#utility.yul\":3597:3600   */\n      dup3\n        /* \"#utility.yul\":3453:3601   */\n      tag_90\n      jump\t// in\n    tag_97:\n        /* \"#utility.yul\":3446:3601   */\n      swap2\n      pop\n        /* \"#utility.yul\":3618:3713   */\n      tag_98\n        /* \"#utility.yul\":3709:3712   */\n      dup3\n        /* \"#utility.yul\":3700:3706   */\n      dup6\n        /* \"#utility.yul\":3618:3713   */\n      tag_74\n      jump\t// in\n    tag_98:\n        /* \"#utility.yul\":3611:3713   */\n      swap2\n      pop\n        /* \"#utility.yul\":3730:3878   */\n      tag_99\n        /* \"#utility.yul\":3874:3877   */\n      dup3\n        /* \"#utility.yul\":3730:3878   */\n      tag_80\n      jump\t// in\n    tag_99:\n        /* \"#utility.yul\":3723:3878   */\n      swap2\n      pop\n        /* \"#utility.yul\":3895:3990   */\n      tag_100\n        /* \"#utility.yul\":3986:3989   */\n      dup3\n        /* \"#utility.yul\":3977:3983   */\n      dup5\n        /* \"#utility.yul\":3895:3990   */\n      tag_74\n      jump\t// in\n    tag_100:\n        /* \"#utility.yul\":3888:3990   */\n      swap2\n      pop\n        /* \"#utility.yul\":4007:4010   */\n      dup2\n        /* \"#utility.yul\":4000:4010   */\n      swap1\n      pop\n        /* \"#utility.yul\":2889:4016   */\n      swap5\n      swap4\n      pop\n      pop\n      pop\n      pop\n      jump\t// out\n        /* \"#utility.yul\":4022:4559   */\n    tag_39:\n        /* \"#utility.yul\":4253:4256   */\n      0x00\n        /* \"#utility.yul\":4275:4423   */\n      tag_102\n        /* \"#utility.yul\":4419:4422   */\n      dup3\n        /* \"#utility.yul\":4275:4423   */\n      tag_85\n      jump\t// in\n    tag_102:\n        /* \"#utility.yul\":4268:4423   */\n      swap2\n      pop\n        /* \"#utility.yul\":4440:4533   */\n      tag_103\n        /* \"#utility.yul\":4529:4532   */\n      dup3\n        /* \"#utility.yul\":4520:4526   */\n      dup5\n        /* \"#utility.yul\":4440:4533   */\n      tag_60\n      jump\t// in\n    tag_103:\n        /* \"#utility.yul\":4433:4533   */\n      swap2\n      pop\n        /* \"#utility.yul\":4550:4553   */\n      dup2\n        /* \"#utility.yul\":4543:4553   */\n      swap1\n      pop\n        /* \"#utility.yul\":4022:4559   */\n      swap3\n      swap2\n      pop\n      pop\n      jump\t// out\n        /* \"#utility.yul\":4565:4803   */\n    tag_28:\n        /* \"#utility.yul\":4666:4670   */\n      0x00\n        /* \"#utility.yul\":4704:4706   */\n      0x20\n        /* \"#utility.yul\":4693:4702   */\n      dup3\n        /* \"#utility.yul\":4689:4707   */\n      add\n        /* \"#utility.yul\":4681:4707   */\n      swap1\n      pop\n        /* \"#utility.yul\":4717:4796   */\n      tag_105\n        /* \"#utility.yul\":4793:4794   */\n      0x00\n        /* \"#utility.yul\":4782:4791   */\n      dup4\n        /* \"#utility.yul\":4778:4795   */\n      add\n        /* \"#utility.yul\":4769:4775   */\n      dup5\n        /* \"#utility.yul\":4717:4796   */\n      tag_46\n      jump\t// in\n    tag_105:\n        /* \"#utility.yul\":4565:4803   */\n      swap3\n      swap2\n      pop\n      pop\n      jump\t// out\n        /* \"#utility.yul\":4809:5134   */\n    tag_18:\n        /* \"#utility.yul\":4928:4932   */\n      0x00\n        /* \"#utility.yul\":4966:4968   */\n      0x20\n        /* \"#utility.yul\":4955:4964   */\n      dup3\n        /* \"#utility.yul\":4951:4969   */\n      add\n        /* \"#utility.yul\":4943:4969   */\n      swap1\n      pop\n        /* \"#utility.yul\":5015:5024   */\n      dup2\n        /* \"#utility.yul\":5009:5013   */\n      dup2\n        /* \"#utility.yul\":5005:5025   */\n      sub\n        /* \"#utility.yul\":5001:5002   */\n      0x00\n        /* \"#utility.yul\":4990:4999   */\n      dup4\n        /* \"#utility.yul\":4986:5003   */\n      add\n        /* \"#utility.yul\":4979:5026   */\n      mstore\n        /* \"#utility.yul\":5043:5127   */\n      tag_107\n        /* \"#utility.yul\":5122:5126   */\n      dup2\n        /* \"#utility.yul\":5113:5119   */\n      dup5\n        /* \"#utility.yul\":5043:5127   */\n      tag_50\n      jump\t// in\n    tag_107:\n        /* \"#utility.yul\":5035:5127   */\n      swap1\n      pop\n        /* \"#utility.yul\":4809:5134   */\n      swap3\n      swap2\n      pop\n      pop\n      jump\t// out\n        /* \"#utility.yul\":5140:5469   */\n    tag_14:\n        /* \"#utility.yul\":5261:5265   */\n      0x00\n        /* \"#utility.yul\":5299:5301   */\n      0x20\n        /* \"#utility.yul\":5288:5297   */\n      dup3\n        /* \"#utility.yul\":5284:5302   */\n      add\n        /* \"#utility.yul\":5276:5302   */\n      swap1\n      pop\n        /* \"#utility.yul\":5348:5357   */\n      dup2\n        /* \"#utility.yul\":5342:5346   */\n      dup2\n        /* \"#utility.yul\":5338:5358   */\n      sub\n        /* \"#utility.yul\":5334:5335   */\n      0x00\n        /* \"#utility.yul\":5323:5332   */\n      dup4\n        /* \"#utility.yul\":5319:5336   */\n      add\n        /* \"#utility.yul\":5312:5359   */\n      mstore\n        /* \"#utility.yul\":5376:5462   */\n      tag_109\n        /* \"#utility.yul\":5457:5461   */\n      dup2\n        /* \"#utility.yul\":5448:5454   */\n      dup5\n        /* \"#utility.yul\":5376:5462   */\n      tag_66\n      jump\t// in\n    tag_109:\n        /* \"#utility.yul\":5368:5462   */\n      swap1\n      pop\n        /* \"#utility.yul\":5140:5469   */\n      swap3\n      swap2\n      pop\n      pop\n      jump\t// out\n        /* \"#utility.yul\":5475:5573   */\n    tag_53:\n        /* \"#utility.yul\":5526:5532   */\n      0x00\n        /* \"#utility.yul\":5560:5565   */\n      dup2\n        /* \"#utility.yul\":5554:5566   */\n      mload\n        /* \"#utility.yul\":5544:5566   */\n      swap1\n      pop\n        /* \"#utility.yul\":5475:5573   */\n      swap2\n      swap1\n      pop\n      jump\t// out\n        /* \"#utility.yul\":5579:5678   */\n    tag_69:\n        /* \"#utility.yul\":5631:5637   */\n      0x00\n        /* \"#utility.yul\":5665:5670   */\n      dup2\n        /* \"#utility.yul\":5659:5671   */\n      mload\n        /* \"#utility.yul\":5649:5671   */\n      swap1\n      pop\n        /* \"#utility.yul\":5579:5678   */\n      swap2\n      swap1\n      pop\n      jump\t// out\n        /* \"#utility.yul\":5684:5860   */\n    tag_55:\n        /* \"#utility.yul\":5775:5786   */\n      0x00\n        /* \"#utility.yul\":5809:5815   */\n      dup3\n        /* \"#utility.yul\":5804:5807   */\n      dup3\n        /* \"#utility.yul\":5797:5816   */\n      mstore\n        /* \"#utility.yul\":5849:5853   */\n      0x20\n        /* \"#utility.yul\":5844:5847   */\n      dup3\n        /* \"#utility.yul\":5840:5854   */\n      add\n        /* \"#utility.yul\":5825:5854   */\n      swap1\n      pop\n        /* \"#utility.yul\":5684:5860   */\n      swap3\n      swap2\n      pop\n      pop\n      jump\t// out\n        /* \"#utility.yul\":5866:6013   */\n    tag_64:\n        /* \"#utility.yul\":5967:5978   */\n      0x00\n        /* \"#utility.yul\":6004:6007   */\n      dup2\n        /* \"#utility.yul\":5989:6007   */\n      swap1\n      pop\n        /* \"#utility.yul\":5866:6013   */\n      swap3\n      swap2\n      pop\n      pop\n      jump\t// out\n        /* \"#utility.yul\":6019:6196   */\n    tag_71:\n        /* \"#utility.yul\":6111:6122   */\n      0x00\n        /* \"#utility.yul\":6145:6151   */\n      dup3\n        /* \"#utility.yul\":6140:6143   */\n      dup3\n        /* \"#utility.yul\":6133:6152   */\n      mstore\n        /* \"#utility.yul\":6185:6189   */\n      0x20\n        /* \"#utility.yul\":6180:6183   */\n      dup3\n        /* \"#utility.yul\":6176:6190   */\n      add\n        /* \"#utility.yul\":6161:6190   */\n      swap1\n      pop\n        /* \"#utility.yul\":6019:6196   */\n      swap3\n      swap2\n      pop\n      pop\n      jump\t// out\n        /* \"#utility.yul\":6202:6350   */\n    tag_78:\n        /* \"#utility.yul\":6304:6315   */\n      0x00\n        /* \"#utility.yul\":6341:6344   */\n      dup2\n        /* \"#utility.yul\":6326:6344   */\n      swap1\n      pop\n        /* \"#utility.yul\":6202:6350   */\n      swap3\n      swap2\n      pop\n      pop\n      jump\t// out\n        /* \"#utility.yul\":6356:6433   */\n    tag_49:\n        /* \"#utility.yul\":6393:6400   */\n      0x00\n        /* \"#utility.yul\":6422:6427   */\n      dup2\n        /* \"#utility.yul\":6411:6427   */\n      swap1\n      pop\n        /* \"#utility.yul\":6356:6433   */\n      swap2\n      swap1\n      pop\n      jump\t// out\n        /* \"#utility.yul\":6439:6746   */\n    tag_57:\n        /* \"#utility.yul\":6507:6508   */\n      0x00\n        /* \"#utility.yul\":6517:6630   */\n    tag_118:\n        /* \"#utility.yul\":6531:6537   */\n      dup4\n        /* \"#utility.yul\":6528:6529   */\n      dup2\n        /* \"#utility.yul\":6525:6538   */\n      lt\n        /* \"#utility.yul\":6517:6630   */\n      iszero\n      tag_120\n      jumpi\n        /* \"#utility.yul\":6616:6617   */\n      dup1\n        /* \"#utility.yul\":6611:6614   */\n      dup3\n        /* \"#utility.yul\":6607:6618   */\n      add\n        /* \"#utility.yul\":6601:6619   */\n      mload\n        /* \"#utility.yul\":6597:6598   */\n      dup2\n        /* \"#utility.yul\":6592:6595   */\n      dup5\n        /* \"#utility.yul\":6588:6599   */\n      add\n        /* \"#utility.yul\":6581:6620   */\n      mstore\n        /* \"#utility.yul\":6553:6555   */\n      0x20\n        /* \"#utility.yul\":6550:6551   */\n      dup2\n        /* \"#utility.yul\":6546:6556   */\n      add\n        /* \"#utility.yul\":6541:6556   */\n      swap1\n      pop\n        /* \"#utility.yul\":6517:6630   */\n      jump(tag_118)\n    tag_120:\n        /* \"#utility.yul\":6648:6654   */\n      dup4\n        /* \"#utility.yul\":6645:6646   */\n      dup2\n        /* \"#utility.yul\":6642:6655   */\n      gt\n        /* \"#utility.yul\":6639:6740   */\n      iszero\n      tag_121\n      jumpi\n        /* \"#utility.yul\":6728:6729   */\n      0x00\n        /* \"#utility.yul\":6719:6725   */\n      dup5\n        /* \"#utility.yul\":6714:6717   */\n      dup5\n        /* \"#utility.yul\":6710:6726   */\n      add\n        /* \"#utility.yul\":6703:6730   */\n      mstore\n        /* \"#utility.yul\":6639:6740   */\n    tag_121:\n        /* \"#utility.yul\":6488:6746   */\n      pop\n        /* \"#utility.yul\":6439:6746   */\n      pop\n      pop\n      pop\n      jump\t// out\n        /* \"#utility.yul\":6752:6854   */\n    tag_59:\n        /* \"#utility.yul\":6793:6799   */\n      0x00\n        /* \"#utility.yul\":6844:6846   */\n      0x1f\n        /* \"#utility.yul\":6840:6847   */\n      not\n        /* \"#utility.yul\":6835:6837   */\n      0x1f\n        /* \"#utility.yul\":6828:6833   */\n      dup4\n        /* \"#utility.yul\":6824:6838   */\n      add\n        /* \"#utility.yul\":6820:6848   */\n      and\n        /* \"#utility.yul\":6810:6848   */\n      swap1\n      pop\n        /* \"#utility.yul\":6752:6854   */\n      swap2\n      swap1\n      pop\n      jump\t// out\n        /* \"#utility.yul\":6860:7011   */\n    tag_84:\n        /* \"#utility.yul\":7000:7003   */\n      0x2c00000000000000000000000000000000000000000000000000000000000000\n        /* \"#utility.yul\":6996:6997   */\n      0x00\n        /* \"#utility.yul\":6988:6994   */\n      dup3\n        /* \"#utility.yul\":6984:6998   */\n      add\n        /* \"#utility.yul\":6977:7004   */\n      mstore\n        /* \"#utility.yul\":6860:7011   */\n      pop\n      jump\t// out\n        /* \"#utility.yul\":7017:7179   */\n    tag_89:\n        /* \"#utility.yul\":7153:7175   */\n      0x52656c6179446174612072656c61794461746129000000000000000000000000\n        /* \"#utility.yul\":7149:7150   */\n      0x00\n        /* \"#utility.yul\":7141:7147   */\n      dup3\n        /* \"#utility.yul\":7137:7151   */\n      add\n        /* \"#utility.yul\":7130:7176   */\n      mstore\n        /* \"#utility.yul\":7017:7179   */\n      pop\n      jump\t// out\n        /* \"#utility.yul\":7181:7328   */\n    tag_94:\n        /* \"#utility.yul\":7317:7320   */\n      0x2800000000000000000000000000000000000000000000000000000000000000\n        /* \"#utility.yul\":7313:7314   */\n      0x00\n        /* \"#utility.yul\":7305:7311   */\n      dup3\n        /* \"#utility.yul\":7301:7315   */\n      add\n        /* \"#utility.yul\":7294:7321   */\n      mstore\n        /* \"#utility.yul\":7181:7328   */\n      pop\n      jump\t// out\n    stop\n    data_33f12fe95872be7be9c474c0e99a56a1b0cad386a14d26df2bb11622e5368f9b 616464726573732066726f6d2c6164647265737320746f2c75696e743235362076616c75652c75696e74323536206761732c75696e74323536206e6f6e63652c627974657320646174612c75696e743235362076616c6964556e74696c54696d65\n    data_c5ea90dda9219120f9d08877180c718e673bc3e452715c45f7d7c9bd6548dacf 52656c6179446174612875696e74323536206d61784665655065724761732c75696e74323536206d61785072696f726974794665655065724761732c75696e74323536207472616e73616374696f6e43616c6c64617461476173557365642c616464726573732072656c6179576f726b65722c61646472657373207061796d61737465722c6164647265737320666f727761726465722c6279746573207061796d6173746572446174612c75696e7432353620636c69656e74496429\n\n    auxdata: 0xa26469706673582212203b73b1f1919d2a0e52c3b0f974b980d4d8ab6d162204944682114fc7585ed9d164736f6c63430008070033\n}\n",
				"bytecode": {
					"linkReferences": {},
					"object": "610855610053600b82828239805160001a607314610046577f4e487b7100000000000000000000000000000000000000000000000000000000600052600060045260246000fd5b30600052607381538281f3fe73000000000000000000000000000000000000000030146080604052600436106100925760003560e01c8063abf0d3f411610065578063abf0d3f41461010f578063c46cf83f1461012d578063c49f91d31461014b578063cc0c62b21461016957610092565b8063066a310c146100975780636225e61b146100b5578063931cd38f146100d3578063987673f7146100f1575b600080fd5b61009f610187565b6040516100ac91906105c9565b60405180910390f35b6100bd6101a3565b6040516100ca91906105a7565b60405180910390f35b6100db61024e565b6040516100e891906105c9565b60405180910390f35b6100f9610289565b60405161010691906105c9565b60405180910390f35b6101176102c2565b604051610124919061058c565b60405180910390f35b610135610374565b60405161014291906105a7565b60405180910390f35b610153610390565b604051610160919061058c565b60405180910390f35b6101716103b4565b60405161017e919061058c565b60405180910390f35b6040518060a00160405280606181526020016107036061913981565b6040518060400160405280600c81526020017f52656c61795265717565737400000000000000000000000000000000000000008152506040518060a0016040528060618152602001610703606191396040518060e0016040528060bc815260200161076460bc913960405160200161021b919061056a565b60405160208183030381529060405260405160200161023c93929190610523565b60405160208183030381529060405281565b6040518060e0016040528060bc815260200161076460bc9139604051602001610277919061056a565b60405160208183030381529060405281565b6040518060400160405280600c81526020017f52656c617952657175657374000000000000000000000000000000000000000081525081565b6040518060400160405280600c81526020017f52656c61795265717565737400000000000000000000000000000000000000008152506040518060a0016040528060618152602001610703606191396040518060e0016040528060bc815260200161076460bc913960405160200161033a919061056a565b60405160208183030381529060405260405160200161035b93929190610523565b6040516020818303038152906040528051906020012081565b6040518060e0016040528060bc815260200161076460bc913981565b7f8b73c3c69bb8fe3d512ecc4cf759cc79239f7b179b0ffacaa9a75d522b39400f81565b6040518060e0016040528060bc815260200161076460bc91398051906020012081565b6103e081610639565b82525050565b60006103f1826105eb565b6103fb8185610601565b935061040b818560208601610643565b61041481610676565b840191505092915050565b600061042a826105eb565b6104348185610612565b9350610444818560208601610643565b80840191505092915050565b600061045b826105f6565b610465818561061d565b9350610475818560208601610643565b61047e81610676565b840191505092915050565b6000610494826105f6565b61049e818561062e565b93506104ae818560208601610643565b80840191505092915050565b60006104c760018361062e565b91506104d282610687565b600182019050919050565b60006104ea60148361062e565b91506104f5826106b0565b601482019050919050565b600061050d60018361062e565b9150610518826106d9565b600182019050919050565b600061052f8286610489565b915061053a82610500565b91506105468285610489565b9150610551826104ba565b915061055d8284610489565b9150819050949350505050565b6000610575826104dd565b9150610581828461041f565b915081905092915050565b60006020820190506105a160008301846103d7565b92915050565b600060208201905081810360008301526105c181846103e6565b905092915050565b600060208201905081810360008301526105e38184610450565b905092915050565b600081519050919050565b600081519050919050565b600082825260208201905092915050565b600081905092915050565b600082825260208201905092915050565b600081905092915050565b6000819050919050565b60005b83811015610661578082015181840152602081019050610646565b83811115610670576000848401525b50505050565b6000601f19601f8301169050919050565b7f2c00000000000000000000000000000000000000000000000000000000000000600082015250565b7f52656c6179446174612072656c61794461746129000000000000000000000000600082015250565b7f280000000000000000000000000000000000000000000000000000000000000060008201525056fe616464726573732066726f6d2c6164647265737320746f2c75696e743235362076616c75652c75696e74323536206761732c75696e74323536206e6f6e63652c627974657320646174612c75696e743235362076616c6964556e74696c54696d6552656c6179446174612875696e74323536206d61784665655065724761732c75696e74323536206d61785072696f726974794665655065724761732c75696e74323536207472616e73616374696f6e43616c6c64617461476173557365642c616464726573732072656c6179576f726b65722c61646472657373207061796d61737465722c6164647265737320666f727761726465722c6279746573207061796d6173746572446174612c75696e7432353620636c69656e74496429a26469706673582212203b73b1f1919d2a0e52c3b0f974b980d4d8ab6d162204944682114fc7585ed9d164736f6c63430008070033",
					"opcodes": "PUSH2 0x855 PUSH2 0x53 PUSH1 0xB DUP3 DUP3 DUP3 CODECOPY DUP1 MLOAD PUSH1 0x0 BYTE PUSH1 0x73 EQ PUSH2 0x46 JUMPI PUSH32 0x4E487B7100000000000000000000000000000000000000000000000000000000 PUSH1 0x0 MSTORE PUSH1 0x0 PUSH1 0x4 MSTORE PUSH1 0x24 PUSH1 0x0 REVERT JUMPDEST ADDRESS PUSH1 0x0 MSTORE PUSH1 0x73 DUP2 MSTORE8 DUP3 DUP2 RETURN INVALID PUSH20 0x0 ADDRESS EQ PUSH1 0x80 PUSH1 0x40 MSTORE PUSH1 0x4 CALLDATASIZE LT PUSH2 0x92 JUMPI PUSH1 0x0 CALLDATALOAD PUSH1 0xE0 SHR DUP1 PUSH4 0xABF0D3F4 GT PUSH2 0x65 JUMPI DUP1 PUSH4 0xABF0D3F4 EQ PUSH2 0x10F JUMPI DUP1 PUSH4 0xC46CF83F EQ PUSH2 0x12D JUMPI DUP1 PUSH4 0xC49F91D3 EQ PUSH2 0x14B JUMPI DUP1 PUSH4 0xCC0C62B2 EQ PUSH2 0x169 JUMPI PUSH2 0x92 JUMP JUMPDEST DUP1 PUSH4 0x66A310C EQ PUSH2 0x97 JUMPI DUP1 PUSH4 0x6225E61B EQ PUSH2 0xB5 JUMPI DUP1 PUSH4 0x931CD38F EQ PUSH2 0xD3 JUMPI DUP1 PUSH4 0x987673F7 EQ PUSH2 0xF1 JUMPI JUMPDEST PUSH1 0x0 DUP1 REVERT JUMPDEST PUSH2 0x9F PUSH2 0x187 JUMP JUMPDEST PUSH1 0x40 MLOAD PUSH2 0xAC SWAP2 SWAP1 PUSH2 0x5C9 JUMP JUMPDEST PUSH1 0x40 MLOAD DUP1 SWAP2 SUB SWAP1 RETURN JUMPDEST PUSH2 0xBD PUSH2 0x1A3 JUMP JUMPDEST PUSH1 0x40 MLOAD PUSH2 0xCA SWAP2 SWAP1 PUSH2 0x5A7 JUMP JUMPDEST PUSH1 0x40 MLOAD DUP1 SWAP2 SUB SWAP1 RETURN JUMPDEST PUSH2 0xDB PUSH2 0x24E JUMP JUMPDEST PUSH1 0x40 MLOAD PUSH2 0xE8 SWAP2 SWAP1 PUSH2 0x5C9 JUMP JUMPDEST PUSH1 0x40 MLOAD DUP1 SWAP2 SUB SWAP1 RETURN JUMPDEST PUSH2 0xF9 PUSH2 0x289 JUMP JUMPDEST PUSH1 0x40 MLOAD PUSH2 0x106 SWAP2 SWAP1 PUSH2 0x5C9 JUMP JUMPDEST PUSH1 0x40 MLOAD DUP1 SWAP2 SUB SWAP1 RETURN JUMPDEST PUSH2 0x117 PUSH2 0x2C2 JUMP JUMPDEST PUSH1 0x40 MLOAD PUSH2 0x124 SWAP2 SWAP1 PUSH2 0x58C JUMP JUMPDEST PUSH1 0x40 MLOAD DUP1 SWAP2 SUB SWAP1 RETURN JUMPDEST PUSH2 0x135 PUSH2 0x374 JUMP JUMPDEST PUSH1 0x40 MLOAD PUSH2 0x142 SWAP2 SWAP1 PUSH2 0x5A7 JUMP JUMPDEST PUSH1 0x40 MLOAD DUP1 SWAP2 SUB SWAP1 RETURN JUMPDEST PUSH2 0x153 PUSH2 0x390 JUMP JUMPDEST PUSH1 0x40 MLOAD PUSH2 0x160 SWAP2 SWAP1 PUSH2 0x58C JUMP JUMPDEST PUSH1 0x40 MLOAD DUP1 SWAP2 SUB SWAP1 RETURN JUMPDEST PUSH2 0x171 PUSH2 0x3B4 JUMP JUMPDEST PUSH1 0x40 MLOAD PUSH2 0x17E SWAP2 SWAP1 PUSH2 0x58C JUMP JUMPDEST PUSH1 0x40 MLOAD DUP1 SWAP2 SUB SWAP1 RETURN JUMPDEST PUSH1 0x40 MLOAD DUP1 PUSH1 0xA0 ADD PUSH1 0x40 MSTORE DUP1 PUSH1 0x61 DUP2 MSTORE PUSH1 0x20 ADD PUSH2 0x703 PUSH1 0x61 SWAP2 CODECOPY DUP2 JUMP JUMPDEST PUSH1 0x40 MLOAD DUP1 PUSH1 0x40 ADD PUSH1 0x40 MSTORE DUP1 PUSH1 0xC DUP2 MSTORE PUSH1 0x20 ADD PUSH32 0x52656C6179526571756573740000000000000000000000000000000000000000 DUP2 MSTORE POP PUSH1 0x40 MLOAD DUP1 PUSH1 0xA0 ADD PUSH1 0x40 MSTORE DUP1 PUSH1 0x61 DUP2 MSTORE PUSH1 0x20 ADD PUSH2 0x703 PUSH1 0x61 SWAP2 CODECOPY PUSH1 0x40 MLOAD DUP1 PUSH1 0xE0 ADD PUSH1 0x40 MSTORE DUP1 PUSH1 0xBC DUP2 MSTORE PUSH1 0x20 ADD PUSH2 0x764 PUSH1 0xBC SWAP2 CODECOPY PUSH1 0x40 MLOAD PUSH1 0x20 ADD PUSH2 0x21B SWAP2 SWAP1 PUSH2 0x56A JUMP JUMPDEST PUSH1 0x40 MLOAD PUSH1 0x20 DUP2 DUP4 SUB SUB DUP2 MSTORE SWAP1 PUSH1 0x40 MSTORE PUSH1 0x40 MLOAD PUSH1 0x20 ADD PUSH2 0x23C SWAP4 SWAP3 SWAP2 SWAP1 PUSH2 0x523 JUMP JUMPDEST PUSH1 0x40 MLOAD PUSH1 0x20 DUP2 DUP4 SUB SUB DUP2 MSTORE SWAP1 PUSH1 0x40 MSTORE DUP2 JUMP JUMPDEST PUSH1 0x40 MLOAD DUP1 PUSH1 0xE0 ADD PUSH1 0x40 MSTORE DUP1 PUSH1 0xBC DUP2 MSTORE PUSH1 0x20 ADD PUSH2 0x764 PUSH1 0xBC SWAP2 CODECOPY PUSH1 0x40 MLOAD PUSH1 0x20 ADD PUSH2 0x277 SWAP2 SWAP1 PUSH2 0x56A JUMP JUMPDEST PUSH1 0x40 MLOAD PUSH1 0x20 DUP2 DUP4 SUB SUB DUP2 MSTORE SWAP1 PUSH1 0x40 MSTORE DUP2 JUMP JUMPDEST PUSH1 0x40 MLOAD DUP1 PUSH1 0x40 ADD PUSH1 0x40 MSTORE DUP1 PUSH1 0xC DUP2 MSTORE PUSH1 0x20 ADD PUSH32 0x52656C6179526571756573740000000000000000000000000000000000000000 DUP2 MSTORE POP DUP2 JUMP JUMPDEST PUSH1 0x40 MLOAD DUP1 PUSH1 0x40 ADD PUSH1 0x40 MSTORE DUP1 PUSH1 0xC DUP2 MSTORE PUSH1 0x20 ADD PUSH32 0x52656C6179526571756573740000000000000000000000000000000000000000 DUP2 MSTORE POP PUSH1 0x40 MLOAD DUP1 PUSH1 0xA0 ADD PUSH1 0x40 MSTORE DUP1 PUSH1 0x61 DUP2 MSTORE PUSH1 0x20 ADD PUSH2 0x703 PUSH1 0x61 SWAP2 CODECOPY PUSH1 0x40 MLOAD DUP1 PUSH1 0xE0 ADD PUSH1 0x40 MSTORE DUP1 PUSH1 0xBC DUP2 MSTORE PUSH1 0x20 ADD PUSH2 0x764 PUSH1 0xBC SWAP2 CODECOPY PUSH1 0x40 MLOAD PUSH1 0x20 ADD PUSH2 0x33A SWAP2 SWAP1 PUSH2 0x56A JUMP JUMPDEST PUSH1 0x40 MLOAD PUSH1 0x20 DUP2 DUP4 SUB SUB DUP2 MSTORE SWAP1 PUSH1 0x40 MSTORE PUSH1 0x40 MLOAD PUSH1 0x20 ADD PUSH2 0x35B SWAP4 SWAP3 SWAP2 SWAP1 PUSH2 0x523 JUMP JUMPDEST PUSH1 0x40 MLOAD PUSH1 0x20 DUP2 DUP4 SUB SUB DUP2 MSTORE SWAP1 PUSH1 0x40 MSTORE DUP1 MLOAD SWAP1 PUSH1 0x20 ADD KECCAK256 DUP2 JUMP JUMPDEST PUSH1 0x40 MLOAD DUP1 PUSH1 0xE0 ADD PUSH1 0x40 MSTORE DUP1 PUSH1 0xBC DUP2 MSTORE PUSH1 0x20 ADD PUSH2 0x764 PUSH1 0xBC SWAP2 CODECOPY DUP2 JUMP JUMPDEST PUSH32 0x8B73C3C69BB8FE3D512ECC4CF759CC79239F7B179B0FFACAA9A75D522B39400F DUP2 JUMP JUMPDEST PUSH1 0x40 MLOAD DUP1 PUSH1 0xE0 ADD PUSH1 0x40 MSTORE DUP1 PUSH1 0xBC DUP2 MSTORE PUSH1 0x20 ADD PUSH2 0x764 PUSH1 0xBC SWAP2 CODECOPY DUP1 MLOAD SWAP1 PUSH1 0x20 ADD KECCAK256 DUP2 JUMP JUMPDEST PUSH2 0x3E0 DUP2 PUSH2 0x639 JUMP JUMPDEST DUP3 MSTORE POP POP JUMP JUMPDEST PUSH1 0x0 PUSH2 0x3F1 DUP3 PUSH2 0x5EB JUMP JUMPDEST PUSH2 0x3FB DUP2 DUP6 PUSH2 0x601 JUMP JUMPDEST SWAP4 POP PUSH2 0x40B DUP2 DUP6 PUSH1 0x20 DUP7 ADD PUSH2 0x643 JUMP JUMPDEST PUSH2 0x414 DUP2 PUSH2 0x676 JUMP JUMPDEST DUP5 ADD SWAP2 POP POP SWAP3 SWAP2 POP POP JUMP JUMPDEST PUSH1 0x0 PUSH2 0x42A DUP3 PUSH2 0x5EB JUMP JUMPDEST PUSH2 0x434 DUP2 DUP6 PUSH2 0x612 JUMP JUMPDEST SWAP4 POP PUSH2 0x444 DUP2 DUP6 PUSH1 0x20 DUP7 ADD PUSH2 0x643 JUMP JUMPDEST DUP1 DUP5 ADD SWAP2 POP POP SWAP3 SWAP2 POP POP JUMP JUMPDEST PUSH1 0x0 PUSH2 0x45B DUP3 PUSH2 0x5F6 JUMP JUMPDEST PUSH2 0x465 DUP2 DUP6 PUSH2 0x61D JUMP JUMPDEST SWAP4 POP PUSH2 0x475 DUP2 DUP6 PUSH1 0x20 DUP7 ADD PUSH2 0x643 JUMP JUMPDEST PUSH2 0x47E DUP2 PUSH2 0x676 JUMP JUMPDEST DUP5 ADD SWAP2 POP POP SWAP3 SWAP2 POP POP JUMP JUMPDEST PUSH1 0x0 PUSH2 0x494 DUP3 PUSH2 0x5F6 JUMP JUMPDEST PUSH2 0x49E DUP2 DUP6 PUSH2 0x62E JUMP JUMPDEST SWAP4 POP PUSH2 0x4AE DUP2 DUP6 PUSH1 0x20 DUP7 ADD PUSH2 0x643 JUMP JUMPDEST DUP1 DUP5 ADD SWAP2 POP POP SWAP3 SWAP2 POP POP JUMP JUMPDEST PUSH1 0x0 PUSH2 0x4C7 PUSH1 0x1 DUP4 PUSH2 0x62E JUMP JUMPDEST SWAP2 POP PUSH2 0x4D2 DUP3 PUSH2 0x687 JUMP JUMPDEST PUSH1 0x1 DUP3 ADD SWAP1 POP SWAP2 SWAP1 POP JUMP JUMPDEST PUSH1 0x0 PUSH2 0x4EA PUSH1 0x14 DUP4 PUSH2 0x62E JUMP JUMPDEST SWAP2 POP PUSH2 0x4F5 DUP3 PUSH2 0x6B0 JUMP JUMPDEST PUSH1 0x14 DUP3 ADD SWAP1 POP SWAP2 SWAP1 POP JUMP JUMPDEST PUSH1 0x0 PUSH2 0x50D PUSH1 0x1 DUP4 PUSH2 0x62E JUMP JUMPDEST SWAP2 POP PUSH2 0x518 DUP3 PUSH2 0x6D9 JUMP JUMPDEST PUSH1 0x1 DUP3 ADD SWAP1 POP SWAP2 SWAP1 POP JUMP JUMPDEST PUSH1 0x0 PUSH2 0x52F DUP3 DUP7 PUSH2 0x489 JUMP JUMPDEST SWAP2 POP PUSH2 0x53A DUP3 PUSH2 0x500 JUMP JUMPDEST SWAP2 POP PUSH2 0x546 DUP3 DUP6 PUSH2 0x489 JUMP JUMPDEST SWAP2 POP PUSH2 0x551 DUP3 PUSH2 0x4BA JUMP JUMPDEST SWAP2 POP PUSH2 0x55D DUP3 DUP5 PUSH2 0x489 JUMP JUMPDEST SWAP2 POP DUP2 SWAP1 POP SWAP5 SWAP4 POP POP POP POP JUMP JUMPDEST PUSH1 0x0 PUSH2 0x575 DUP3 PUSH2 0x4DD JUMP JUMPDEST SWAP2 POP PUSH2 0x581 DUP3 DUP5 PUSH2 0x41F JUMP JUMPDEST SWAP2 POP DUP2 SWAP1 POP SWAP3 SWAP2 POP POP JUMP JUMPDEST PUSH1 0x0 PUSH1 0x20 DUP3 ADD SWAP1 POP PUSH2 0x5A1 PUSH1 0x0 DUP4 ADD DUP5 PUSH2 0x3D7 JUMP JUMPDEST SWAP3 SWAP2 POP POP JUMP JUMPDEST PUSH1 0x0 PUSH1 0x20 DUP3 ADD SWAP1 POP DUP2 DUP2 SUB PUSH1 0x0 DUP4 ADD MSTORE PUSH2 0x5C1 DUP2 DUP5 PUSH2 0x3E6 JUMP JUMPDEST SWAP1 POP SWAP3 SWAP2 POP POP JUMP JUMPDEST PUSH1 0x0 PUSH1 0x20 DUP3 ADD SWAP1 POP DUP2 DUP2 SUB PUSH1 0x0 DUP4 ADD MSTORE PUSH2 0x5E3 DUP2 DUP5 PUSH2 0x450 JUMP JUMPDEST SWAP1 POP SWAP3 SWAP2 POP POP JUMP JUMPDEST PUSH1 0x0 DUP2 MLOAD SWAP1 POP SWAP2 SWAP1 POP JUMP JUMPDEST PUSH1 0x0 DUP2 MLOAD SWAP1 POP SWAP2 SWAP1 POP JUMP JUMPDEST PUSH1 0x0 DUP3 DUP3 MSTORE PUSH1 0x20 DUP3 ADD SWAP1 POP SWAP3 SWAP2 POP POP JUMP JUMPDEST PUSH1 0x0 DUP2 SWAP1 POP SWAP3 SWAP2 POP POP JUMP JUMPDEST PUSH1 0x0 DUP3 DUP3 MSTORE PUSH1 0x20 DUP3 ADD SWAP1 POP SWAP3 SWAP2 POP POP JUMP JUMPDEST PUSH1 0x0 DUP2 SWAP1 POP SWAP3 SWAP2 POP POP JUMP JUMPDEST PUSH1 0x0 DUP2 SWAP1 POP SWAP2 SWAP1 POP JUMP JUMPDEST PUSH1 0x0 JUMPDEST DUP4 DUP2 LT ISZERO PUSH2 0x661 JUMPI DUP1 DUP3 ADD MLOAD DUP2 DUP5 ADD MSTORE PUSH1 0x20 DUP2 ADD SWAP1 POP PUSH2 0x646 JUMP JUMPDEST DUP4 DUP2 GT ISZERO PUSH2 0x670 JUMPI PUSH1 0x0 DUP5 DUP5 ADD MSTORE JUMPDEST POP POP POP POP JUMP JUMPDEST PUSH1 0x0 PUSH1 0x1F NOT PUSH1 0x1F DUP4 ADD AND SWAP1 POP SWAP2 SWAP1 POP JUMP JUMPDEST PUSH32 0x2C00000000000000000000000000000000000000000000000000000000000000 PUSH1 0x0 DUP3 ADD MSTORE POP JUMP JUMPDEST PUSH32 0x52656C6179446174612072656C61794461746129000000000000000000000000 PUSH1 0x0 DUP3 ADD MSTORE POP JUMP JUMPDEST PUSH32 0x2800000000000000000000000000000000000000000000000000000000000000 PUSH1 0x0 DUP3 ADD MSTORE POP JUMP INVALID PUSH2 0x6464 PUSH19 0x6573732066726F6D2C6164647265737320746F 0x2C PUSH22 0x696E743235362076616C75652C75696E743235362067 PUSH2 0x732C PUSH22 0x696E74323536206E6F6E63652C627974657320646174 PUSH2 0x2C75 PUSH10 0x6E743235362076616C69 PUSH5 0x556E74696C SLOAD PUSH10 0x6D6552656C6179446174 PUSH2 0x2875 PUSH10 0x6E74323536206D617846 PUSH6 0x655065724761 PUSH20 0x2C75696E74323536206D61785072696F72697479 CHAINID PUSH6 0x655065724761 PUSH20 0x2C75696E74323536207472616E73616374696F6E NUMBER PUSH2 0x6C6C PUSH5 0x6174614761 PUSH20 0x557365642C616464726573732072656C6179576F PUSH19 0x6B65722C61646472657373207061796D617374 PUSH6 0x722C61646472 PUSH6 0x737320666F72 PUSH24 0x61726465722C6279746573207061796D6173746572446174 PUSH2 0x2C75 PUSH10 0x6E7432353620636C6965 PUSH15 0x74496429A26469706673582212203B PUSH20 0xB1F1919D2A0E52C3B0F974B980D4D8AB6D162204 SWAP5 CHAINID DUP3 GT 0x4F 0xC7 PC 0x5E 0xD9 0xD1 PUSH5 0x736F6C6343 STOP ADDMOD SMOD STOP CALLER "
				},
				"gasEstimates": {
					"creation": {
						"codeDepositCost": "426600",
						"executionCost": "486",
						"totalCost": "427086"
					},
					"external": {
						"EIP712DOMAIN_TYPEHASH()": "357",
						"GENERIC_PARAMS()": "infinite",
						"RELAYDATA_TYPE()": "infinite",
						"RELAYDATA_TYPEHASH()": "infinite",
						"RELAY_REQUEST_NAME()": "infinite",
						"RELAY_REQUEST_SUFFIX()": "infinite",
						"RELAY_REQUEST_TYPE()": "infinite",
						"RELAY_REQUEST_TYPEHASH()": "infinite"
					},
					"internal": {
						"domainSeparator(string memory,address)": "infinite",
						"execute(string memory,struct GsnTypes.RelayRequest calldata,bytes calldata)": "infinite",
						"getChainID()": "infinite",
						"hashDomain(struct GsnEip712Library.EIP712Domain memory)": "infinite",
						"hashRelayData(struct GsnTypes.RelayData calldata)": "infinite",
						"splitRequest(struct GsnTypes.RelayRequest calldata)": "infinite",
						"truncateInPlace(bytes memory)": "infinite",
						"verify(string memory,struct GsnTypes.RelayRequest calldata,bytes calldata)": "infinite",
						"verifyForwarderTrusted(struct GsnTypes.RelayRequest calldata)": "infinite",
						"verifySignature(string memory,struct GsnTypes.RelayRequest calldata,bytes calldata)": "infinite"
					}
				},
				"methodIdentifiers": {
					"EIP712DOMAIN_TYPEHASH()": "c49f91d3",
					"GENERIC_PARAMS()": "066a310c",
					"RELAYDATA_TYPE()": "c46cf83f",
					"RELAYDATA_TYPEHASH()": "cc0c62b2",
					"RELAY_REQUEST_NAME()": "987673f7",
					"RELAY_REQUEST_SUFFIX()": "931cd38f",
					"RELAY_REQUEST_TYPE()": "6225e61b",
					"RELAY_REQUEST_TYPEHASH()": "abf0d3f4"
				}
			},
			"storageLayout": {
				"storage": [],
				"types": null
			},
			"userdoc": {
				"kind": "user",
				"methods": {},
				"notice": "Bridge Library to convert a GSN RelayRequest into a valid `ForwardRequest` for a `Forwarder`.",
				"version": 1
			}
		}
	}
}