{
	"testSinglePaymaster.sol": {
		"TestSinglePaymaster": {
			"abi": [
				{
					"anonymous": false,
					"inputs": [
						{
							"indexed": true,
							"internalType": "address",
							"name": "previousOwner",
							"type": "address"
						},
						{
							"indexed": true,
							"internalType": "address",
							"name": "newOwner",
							"type": "address"
						}
					],
					"name": "OwnershipTransferred",
					"type": "event"
				},
				{
					"inputs": [],
					"name": "CALLDATA_SIZE_LIMIT",
					"outputs": [
						{
							"internalType": "uint256",
							"name": "",
							"type": "uint256"
						}
					],
					"stateMutability": "view",
					"type": "function"
				},
				{
					"inputs": [],
					"name": "FORWARDER_HUB_OVERHEAD",
					"outputs": [
						{
							"internalType": "uint256",
							"name": "",
							"type": "uint256"
						}
					],
					"stateMutability": "view",
					"type": "function"
				},
				{
					"inputs": [],
					"name": "PAYMASTER_ACCEPTANCE_BUDGET",
					"outputs": [
						{
							"internalType": "uint256",
							"name": "",
							"type": "uint256"
						}
					],
					"stateMutability": "view",
					"type": "function"
				},
				{
					"inputs": [],
					"name": "POST_RELAYED_CALL_GAS_LIMIT",
					"outputs": [
						{
							"internalType": "uint256",
							"name": "",
							"type": "uint256"
						}
					],
					"stateMutability": "view",
					"type": "function"
				},
				{
					"inputs": [],
					"name": "PRE_RELAYED_CALL_GAS_LIMIT",
					"outputs": [
						{
							"internalType": "uint256",
							"name": "",
							"type": "uint256"
						}
					],
					"stateMutability": "view",
					"type": "function"
				},
				{
					"inputs": [
						{
							"internalType": "address",
							"name": "_target",
							"type": "address"
						},
						{
							"internalType": "uint256",
							"name": "_amount",
							"type": "uint256"
						}
					],
					"name": "decreaseUesdAmount",
					"outputs": [],
					"stateMutability": "nonpayable",
					"type": "function"
				},
				{
					"inputs": [],
					"name": "getBalance",
					"outputs": [
						{
							"internalType": "uint256",
							"name": "",
							"type": "uint256"
						}
					],
					"stateMutability": "view",
					"type": "function"
				},
				{
					"inputs": [],
					"name": "getGasAndDataLimits",
					"outputs": [
						{
							"components": [
								{
									"internalType": "uint256",
									"name": "acceptanceBudget",
									"type": "uint256"
								},
								{
									"internalType": "uint256",
									"name": "preRelayedCallGasLimit",
									"type": "uint256"
								},
								{
									"internalType": "uint256",
									"name": "postRelayedCallGasLimit",
									"type": "uint256"
								},
								{
									"internalType": "uint256",
									"name": "calldataSizeLimit",
									"type": "uint256"
								}
							],
							"internalType": "struct IPaymaster.GasAndDataLimits",
							"name": "limits",
							"type": "tuple"
						}
					],
					"stateMutability": "view",
					"type": "function"
				},
				{
					"inputs": [],
					"name": "getRelayHub",
					"outputs": [
						{
							"internalType": "address",
							"name": "",
							"type": "address"
						}
					],
					"stateMutability": "view",
					"type": "function"
				},
				{
					"inputs": [],
					"name": "getTrustedForwarder",
					"outputs": [
						{
							"internalType": "address",
							"name": "",
							"type": "address"
						}
					],
					"stateMutability": "view",
					"type": "function"
				},
				{
					"inputs": [
						{
							"internalType": "address",
							"name": "_target",
							"type": "address"
						},
						{
							"internalType": "uint256",
							"name": "_amount",
							"type": "uint256"
						}
					],
					"name": "increaseLimit",
					"outputs": [],
					"stateMutability": "nonpayable",
					"type": "function"
				},
				{
					"inputs": [],
					"name": "owner",
					"outputs": [
						{
							"internalType": "address",
							"name": "",
							"type": "address"
						}
					],
					"stateMutability": "view",
					"type": "function"
				},
				{
					"inputs": [
						{
							"internalType": "bytes",
							"name": "context",
							"type": "bytes"
						},
						{
							"internalType": "bool",
							"name": "success",
							"type": "bool"
						},
						{
							"internalType": "uint256",
							"name": "gasUseWithoutPost",
							"type": "uint256"
						},
						{
							"components": [
								{
									"internalType": "uint256",
									"name": "maxFeePerGas",
									"type": "uint256"
								},
								{
									"internalType": "uint256",
									"name": "maxPriorityFeePerGas",
									"type": "uint256"
								},
								{
									"internalType": "uint256",
									"name": "transactionCalldataGasUsed",
									"type": "uint256"
								},
								{
									"internalType": "address",
									"name": "relayWorker",
									"type": "address"
								},
								{
									"internalType": "address",
									"name": "paymaster",
									"type": "address"
								},
								{
									"internalType": "address",
									"name": "forwarder",
									"type": "address"
								},
								{
									"internalType": "bytes",
									"name": "paymasterData",
									"type": "bytes"
								},
								{
									"internalType": "uint256",
									"name": "clientId",
									"type": "uint256"
								}
							],
							"internalType": "struct GsnTypes.RelayData",
							"name": "relayData",
							"type": "tuple"
						}
					],
					"name": "postRelayedCall",
					"outputs": [],
					"stateMutability": "nonpayable",
					"type": "function"
				},
				{
					"inputs": [
						{
							"components": [
								{
									"components": [
										{
											"internalType": "address",
											"name": "from",
											"type": "address"
										},
										{
											"internalType": "address",
											"name": "to",
											"type": "address"
										},
										{
											"internalType": "uint256",
											"name": "value",
											"type": "uint256"
										},
										{
											"internalType": "uint256",
											"name": "gas",
											"type": "uint256"
										},
										{
											"internalType": "uint256",
											"name": "nonce",
											"type": "uint256"
										},
										{
											"internalType": "bytes",
											"name": "data",
											"type": "bytes"
										},
										{
											"internalType": "uint256",
											"name": "validUntilTime",
											"type": "uint256"
										}
									],
									"internalType": "struct IForwarder.ForwardRequest",
									"name": "request",
									"type": "tuple"
								},
								{
									"components": [
										{
											"internalType": "uint256",
											"name": "maxFeePerGas",
											"type": "uint256"
										},
										{
											"internalType": "uint256",
											"name": "maxPriorityFeePerGas",
											"type": "uint256"
										},
										{
											"internalType": "uint256",
											"name": "transactionCalldataGasUsed",
											"type": "uint256"
										},
										{
											"internalType": "address",
											"name": "relayWorker",
											"type": "address"
										},
										{
											"internalType": "address",
											"name": "paymaster",
											"type": "address"
										},
										{
											"internalType": "address",
											"name": "forwarder",
											"type": "address"
										},
										{
											"internalType": "bytes",
											"name": "paymasterData",
											"type": "bytes"
										},
										{
											"internalType": "uint256",
											"name": "clientId",
											"type": "uint256"
										}
									],
									"internalType": "struct GsnTypes.RelayData",
									"name": "relayData",
									"type": "tuple"
								}
							],
							"internalType": "struct GsnTypes.RelayRequest",
							"name": "relayRequest",
							"type": "tuple"
						},
						{
							"internalType": "bytes",
							"name": "signature",
							"type": "bytes"
						},
						{
							"internalType": "bytes",
							"name": "approvalData",
							"type": "bytes"
						},
						{
							"internalType": "uint256",
							"name": "maxPossibleGas",
							"type": "uint256"
						}
					],
					"name": "preRelayedCall",
					"outputs": [
						{
							"internalType": "bytes",
							"name": "",
							"type": "bytes"
						},
						{
							"internalType": "bool",
							"name": "",
							"type": "bool"
						}
					],
					"stateMutability": "nonpayable",
					"type": "function"
				},
				{
					"inputs": [],
					"name": "renounceOwnership",
					"outputs": [],
					"stateMutability": "nonpayable",
					"type": "function"
				},
				{
					"inputs": [
						{
							"internalType": "contract IRelayHub",
							"name": "hub",
							"type": "address"
						}
					],
					"name": "setRelayHub",
					"outputs": [],
					"stateMutability": "nonpayable",
					"type": "function"
				},
				{
					"inputs": [
						{
							"internalType": "address",
							"name": "forwarder",
							"type": "address"
						}
					],
					"name": "setTrustedForwarder",
					"outputs": [],
					"stateMutability": "nonpayable",
					"type": "function"
				},
				{
					"inputs": [
						{
							"internalType": "bytes4",
							"name": "interfaceId",
							"type": "bytes4"
						}
					],
					"name": "supportsInterface",
					"outputs": [
						{
							"internalType": "bool",
							"name": "",
							"type": "bool"
						}
					],
					"stateMutability": "view",
					"type": "function"
				},
				{
					"inputs": [
						{
							"internalType": "address",
							"name": "",
							"type": "address"
						}
					],
					"name": "targetWhitelist",
					"outputs": [
						{
							"internalType": "bool",
							"name": "",
							"type": "bool"
						}
					],
					"stateMutability": "view",
					"type": "function"
				},
				{
					"inputs": [
						{
							"internalType": "address",
							"name": "newOwner",
							"type": "address"
						}
					],
					"name": "transferOwnership",
					"outputs": [],
					"stateMutability": "nonpayable",
					"type": "function"
				},
				{
					"inputs": [
						{
							"internalType": "address",
							"name": "",
							"type": "address"
						}
					],
					"name": "userInfo",
					"outputs": [
						{
							"internalType": "uint256",
							"name": "GasLimit",
							"type": "uint256"
						},
						{
							"internalType": "uint256",
							"name": "usedAmount",
							"type": "uint256"
						}
					],
					"stateMutability": "view",
					"type": "function"
				},
				{
					"inputs": [],
					"name": "versionPaymaster",
					"outputs": [
						{
							"internalType": "string",
							"name": "",
							"type": "string"
						}
					],
					"stateMutability": "view",
					"type": "function"
				},
				{
					"inputs": [
						{
							"internalType": "address",
							"name": "target",
							"type": "address"
						},
						{
							"internalType": "bool",
							"name": "isAllowed",
							"type": "bool"
						}
					],
					"name": "whitelistTarget",
					"outputs": [],
					"stateMutability": "nonpayable",
					"type": "function"
				},
				{
					"inputs": [
						{
							"internalType": "uint256",
							"name": "amount",
							"type": "uint256"
						},
						{
							"internalType": "address payable",
							"name": "target",
							"type": "address"
						}
					],
					"name": "withdraw",
					"outputs": [],
					"stateMutability": "nonpayable",
					"type": "function"
				},
				{
					"inputs": [
						{
							"internalType": "uint256",
							"name": "amount",
							"type": "uint256"
						},
						{
							"internalType": "address payable",
							"name": "target",
							"type": "address"
						}
					],
					"name": "withdrawRelayHubDepositTo",
					"outputs": [],
					"stateMutability": "nonpayable",
					"type": "function"
				},
				{
					"stateMutability": "payable",
					"type": "receive"
				}
			],
			"devdoc": {
				"kind": "dev",
				"methods": {
					"getGasAndDataLimits()": {
						"returns": {
							"limits": "An instance of the `GasAndDataLimits` struct ##### `acceptanceBudget` If the transactions consumes more than `acceptanceBudget` this Paymaster will be charged for gas no matter what. Transaction that gets rejected after consuming more than `acceptanceBudget` gas is on this Paymaster's expense. Should be set to an amount gas this Paymaster expects to spend deciding whether to accept or reject a request. This includes gas consumed by calculations in the `preRelayedCall`, `Forwarder` and the recipient contract. :warning: **Warning** :warning: As long this value is above `preRelayedCallGasLimit` (see defaults in `BasePaymaster`), the Paymaster is guaranteed it will never pay for rejected transactions. If this value is below `preRelayedCallGasLimit`, it might might make Paymaster open to a \"griefing\" attack. The relayers should prefer lower `acceptanceBudget`, as it improves their chances of being compensated. From a Relay's point of view, this is the highest gas value a bad Paymaster may cost the relay, since the paymaster will pay anything above that value regardless of whether the transaction succeeds or reverts. Specifying value too high might make the call rejected by relayers (see `maxAcceptanceBudget` in server config). ##### `preRelayedCallGasLimit` The max gas usage of preRelayedCall. Any revert of the `preRelayedCall` is a request rejection by the paymaster. As long as `acceptanceBudget` is above `preRelayedCallGasLimit`, any such revert is not payed by the paymaster. ##### `postRelayedCallGasLimit` The max gas usage of postRelayedCall. The Paymaster is not charged for the maximum, only for actually used gas. Note that an OOG will revert the inner transaction, but the paymaster will be charged for it anyway."
						}
					},
					"getRelayHub()": {
						"returns": {
							"_0": "The address of the `RelayHub` that is trusted by this Paymaster to execute the requests."
						}
					},
					"getTrustedForwarder()": {
						"returns": {
							"_0": "The address of the `Forwarder` that is trusted by this Paymaster to execute the requests."
						}
					},
					"owner()": {
						"details": "Returns the address of the current owner."
					},
					"postRelayedCall(bytes,bool,uint256,(uint256,uint256,uint256,address,address,address,bytes,uint256))": {
						"params": {
							"context": "The call context, as returned by the preRelayedCall",
							"gasUseWithoutPost": "The actual amount of gas used by the entire transaction, EXCEPT        the gas used by the postRelayedCall itself.",
							"relayData": "The relay params of the request. can be used by relayHub.calculateCharge()",
							"success": "`true` if the relayed call succeeded, false if it reverted"
						}
					},
					"preRelayedCall(((address,address,uint256,uint256,uint256,bytes,uint256),(uint256,uint256,uint256,address,address,address,bytes,uint256)),bytes,bytes,uint256)": {
						"params": {
							"approvalData": "- extra dapp-specific data (e.g. signature from trusted party)",
							"maxPossibleGas": "- based on values returned from `getGasAndDataLimits` the RelayHub will calculate the maximum possible amount of gas the user may be charged for. In order to convert this value to wei, the Paymaster has to call \"relayHub.calculateCharge()\"",
							"relayRequest": "- the full relay request structure",
							"signature": "- user's EIP712-compatible signature of the `relayRequest`. Note that in most cases the paymaster shouldn't try use it at all. It is always checked by the forwarder immediately after preRelayedCall returns."
						},
						"returns": {
							"_0": "A byte array to be passed to postRelayedCall. Can contain any data needed by this Paymaster in any form or be empty if no extra data is needed.",
							"_1": "The flag that allows a Paymaster to \"delegate\" the rejection to the recipient code. It also means the Paymaster trust the recipient to reject fast: both preRelayedCall, forwarder check and recipient checks must fit into the GasLimits.acceptanceBudget, otherwise the TX is paid by the Paymaster. `true` if the Paymaster wants to reject the TX if the recipient reverts. `false` if the Paymaster wants rejects by the recipient to be completed on chain and paid by the Paymaster."
						}
					},
					"renounceOwnership()": {
						"details": "Leaves the contract without owner. It will not be possible to call `onlyOwner` functions. Can only be called by the current owner. NOTE: Renouncing ownership will leave the contract without an owner, thereby disabling any functionality that is only available to the owner."
					},
					"supportsInterface(bytes4)": {
						"details": "Returns true if this contract implements the interface defined by `interfaceId`. See the corresponding https://eips.ethereum.org/EIPS/eip-165#how-interfaces-are-identified[EIP section] to learn more about how these ids are created. This function call must use less than 30 000 gas."
					},
					"transferOwnership(address)": {
						"details": "Transfers ownership of the contract to a new account (`newOwner`). Can only be called by the current owner."
					},
					"versionPaymaster()": {
						"returns": {
							"_0": "version The SemVer string of this Paymaster's version."
						}
					},
					"withdrawRelayHubDepositTo(uint256,address)": {
						"params": {
							"amount": "The amount to be subtracted from the sender.",
							"target": "The target to which the amount will be transferred."
						}
					}
				},
				"version": 1
			},
			"evm": {
				"assembly": "    /* \"testSinglePaymaster.sol\":334:2631  contract TestSinglePaymaster is BasePaymaster {\r... */\n  mstore(0x40, 0x80)\n    /* \"testSinglePaymaster.sol\":468:474  10**18 */\n  0x0de0b6b3a7640000\n    /* \"testSinglePaymaster.sol\":445:474  uint256 initialLimit = 10**18 */\n  0x04\n  sstore\n    /* \"testSinglePaymaster.sol\":334:2631  contract TestSinglePaymaster is BasePaymaster {\r... */\n  callvalue\n  dup1\n  iszero\n  tag_1\n  jumpi\n  0x00\n  dup1\n  revert\ntag_1:\n  pop\n    /* \"@openzeppelin/contracts/access/Ownable.sol\":936:968  _transferOwnership(_msgSender()) */\n  tag_4\n    /* \"@openzeppelin/contracts/access/Ownable.sol\":955:967  _msgSender() */\n  tag_5\n    /* \"@openzeppelin/contracts/access/Ownable.sol\":955:965  _msgSender */\n  shl(0x20, tag_6)\n    /* \"@openzeppelin/contracts/access/Ownable.sol\":955:967  _msgSender() */\n  0x20\n  shr\n  jump\t// in\ntag_5:\n    /* \"@openzeppelin/contracts/access/Ownable.sol\":936:954  _transferOwnership */\n  shl(0x20, tag_7)\n    /* \"@openzeppelin/contracts/access/Ownable.sol\":936:968  _transferOwnership(_msgSender()) */\n  0x20\n  shr\n  jump\t// in\ntag_4:\n    /* \"testSinglePaymaster.sol\":334:2631  contract TestSinglePaymaster is BasePaymaster {\r... */\n  jump(tag_8)\n    /* \"@openzeppelin/contracts/utils/Context.sol\":640:736  function _msgSender() internal view virtual returns (address) {... */\ntag_6:\n    /* \"@openzeppelin/contracts/utils/Context.sol\":693:700  address */\n  0x00\n    /* \"@openzeppelin/contracts/utils/Context.sol\":719:729  msg.sender */\n  caller\n    /* \"@openzeppelin/contracts/utils/Context.sol\":712:729  return msg.sender */\n  swap1\n  pop\n    /* \"@openzeppelin/contracts/utils/Context.sol\":640:736  function _msgSender() internal view virtual returns (address) {... */\n  swap1\n  jump\t// out\n    /* \"@openzeppelin/contracts/access/Ownable.sol\":2426:2613  function _transferOwnership(address newOwner) internal virtual {... */\ntag_7:\n    /* \"@openzeppelin/contracts/access/Ownable.sol\":2499:2515  address oldOwner */\n  0x00\n    /* \"@openzeppelin/contracts/access/Ownable.sol\":2518:2524  _owner */\n  dup1\n  0x00\n  swap1\n  sload\n  swap1\n  0x0100\n  exp\n  swap1\n  div\n  0xffffffffffffffffffffffffffffffffffffffff\n  and\n    /* \"@openzeppelin/contracts/access/Ownable.sol\":2499:2524  address oldOwner = _owner */\n  swap1\n  pop\n    /* \"@openzeppelin/contracts/access/Ownable.sol\":2543:2551  newOwner */\n  dup2\n    /* \"@openzeppelin/contracts/access/Ownable.sol\":2534:2540  _owner */\n  0x00\n  dup1\n    /* \"@openzeppelin/contracts/access/Ownable.sol\":2534:2551  _owner = newOwner */\n  0x0100\n  exp\n  dup2\n  sload\n  dup2\n  0xffffffffffffffffffffffffffffffffffffffff\n  mul\n  not\n  and\n  swap1\n  dup4\n  0xffffffffffffffffffffffffffffffffffffffff\n  and\n  mul\n  or\n  swap1\n  sstore\n  pop\n    /* \"@openzeppelin/contracts/access/Ownable.sol\":2597:2605  newOwner */\n  dup2\n    /* \"@openzeppelin/contracts/access/Ownable.sol\":2566:2606  OwnershipTransferred(oldOwner, newOwner) */\n  0xffffffffffffffffffffffffffffffffffffffff\n  and\n    /* \"@openzeppelin/contracts/access/Ownable.sol\":2587:2595  oldOwner */\n  dup2\n    /* \"@openzeppelin/contracts/access/Ownable.sol\":2566:2606  OwnershipTransferred(oldOwner, newOwner) */\n  0xffffffffffffffffffffffffffffffffffffffff\n  and\n  0x8be0079c531659141344cd1fd0a4f28419497f9722a3daafe3b4186f6b6457e0\n  mload(0x40)\n  mload(0x40)\n  dup1\n  swap2\n  sub\n  swap1\n  log3\n    /* \"@openzeppelin/contracts/access/Ownable.sol\":2489:2613  {... */\n  pop\n    /* \"@openzeppelin/contracts/access/Ownable.sol\":2426:2613  function _transferOwnership(address newOwner) internal virtual {... */\n  pop\n  jump\t// out\n    /* \"testSinglePaymaster.sol\":334:2631  contract TestSinglePaymaster is BasePaymaster {\r... */\ntag_8:\n  dataSize(sub_0)\n  dup1\n  dataOffset(sub_0)\n  0x00\n  codecopy\n  0x00\n  return\nstop\n\nsub_0: assembly {\n        /* \"testSinglePaymaster.sol\":334:2631  contract TestSinglePaymaster is BasePaymaster {\r... */\n      mstore(0x40, 0x80)\n      jumpi(tag_1, lt(calldatasize, 0x04))\n      shr(0xe0, calldataload(0x00))\n      dup1\n      0x7bb05264\n      gt\n      tag_28\n      jumpi\n      dup1\n      0xb90b41cf\n      gt\n      tag_29\n      jumpi\n      dup1\n      0xda742228\n      gt\n      tag_30\n      jumpi\n      dup1\n      0xda742228\n      eq\n      tag_24\n      jumpi\n      dup1\n      0xdf463a66\n      eq\n      tag_25\n      jumpi\n      dup1\n      0xf2fde38b\n      eq\n      tag_26\n      jumpi\n      dup1\n      0xf9c002f7\n      eq\n      tag_27\n      jumpi\n      jump(tag_2)\n    tag_30:\n      dup1\n      0xb90b41cf\n      eq\n      tag_21\n      jumpi\n      dup1\n      0xbbdaa3c9\n      eq\n      tag_22\n      jumpi\n      dup1\n      0xce1b815f\n      eq\n      tag_23\n      jumpi\n      jump(tag_2)\n    tag_29:\n      dup1\n      0x7bb05264\n      eq\n      tag_15\n      jumpi\n      dup1\n      0x7bdf2ec7\n      eq\n      tag_16\n      jumpi\n      dup1\n      0x858437b0\n      eq\n      tag_17\n      jumpi\n      dup1\n      0x8da5cb5b\n      eq\n      tag_18\n      jumpi\n      dup1\n      0x921276ea\n      eq\n      tag_19\n      jumpi\n      dup1\n      0xb039a88f\n      eq\n      tag_20\n      jumpi\n      jump(tag_2)\n    tag_28:\n      dup1\n      0x1959a002\n      gt\n      tag_31\n      jumpi\n      dup1\n      0x1959a002\n      eq\n      tag_9\n      jumpi\n      dup1\n      0x2d14c4b7\n      eq\n      tag_10\n      jumpi\n      dup1\n      0x4118c9b6\n      eq\n      tag_11\n      jumpi\n      dup1\n      0x5c5e3db1\n      eq\n      tag_12\n      jumpi\n      dup1\n      0x715018a6\n      eq\n      tag_13\n      jumpi\n      dup1\n      0x76fa01c3\n      eq\n      tag_14\n      jumpi\n      jump(tag_2)\n    tag_31:\n      dup1\n      0xbe5dd4\n      eq\n      tag_3\n      jumpi\n      dup1\n      0xf714ce\n      eq\n      tag_4\n      jumpi\n      dup1\n      0x01ffc9a7\n      eq\n      tag_5\n      jumpi\n      dup1\n      0x033137bd\n      eq\n      tag_6\n      jumpi\n      dup1\n      0x12065fe0\n      eq\n      tag_7\n      jumpi\n      dup1\n      0x12256054\n      eq\n      tag_8\n      jumpi\n      jump(tag_2)\n    tag_1:\n      jumpi(tag_2, calldatasize)\n        /* \"@opengsn/contracts/src/BasePaymaster.sol\":4662:4663  0 */\n      0x00\n        /* \"@opengsn/contracts/src/BasePaymaster.sol\":4633:4664  address(relayHub) != address(0) */\n      0xffffffffffffffffffffffffffffffffffffffff\n      and\n        /* \"@opengsn/contracts/src/BasePaymaster.sol\":4641:4649  relayHub */\n      0x01\n      0x00\n      swap1\n      sload\n      swap1\n      0x0100\n      exp\n      swap1\n      div\n      0xffffffffffffffffffffffffffffffffffffffff\n      and\n        /* \"@opengsn/contracts/src/BasePaymaster.sol\":4633:4664  address(relayHub) != address(0) */\n      0xffffffffffffffffffffffffffffffffffffffff\n      and\n      eq\n      iszero\n        /* \"@opengsn/contracts/src/BasePaymaster.sol\":4625:4694  require(address(relayHub) != address(0), \"relay hub address not set\") */\n      tag_34\n      jumpi\n      mload(0x40)\n      0x08c379a000000000000000000000000000000000000000000000000000000000\n      dup2\n      mstore\n      0x04\n      add\n      tag_35\n      swap1\n      tag_36\n      jump\t// in\n    tag_35:\n      mload(0x40)\n      dup1\n      swap2\n      sub\n      swap1\n      revert\n    tag_34:\n        /* \"@opengsn/contracts/src/BasePaymaster.sol\":4704:4712  relayHub */\n      0x01\n      0x00\n      swap1\n      sload\n      swap1\n      0x0100\n      exp\n      swap1\n      div\n      0xffffffffffffffffffffffffffffffffffffffff\n      and\n        /* \"@opengsn/contracts/src/BasePaymaster.sol\":4704:4723  relayHub.depositFor */\n      0xffffffffffffffffffffffffffffffffffffffff\n      and\n      0xaa67c919\n        /* \"@opengsn/contracts/src/BasePaymaster.sol\":4730:4739  msg.value */\n      callvalue\n        /* \"@opengsn/contracts/src/BasePaymaster.sol\":4749:4753  this */\n      address\n        /* \"@opengsn/contracts/src/BasePaymaster.sol\":4704:4755  relayHub.depositFor{value:msg.value}(address(this)) */\n      mload(0x40)\n      dup4\n      0xffffffff\n      and\n      0xe0\n      shl\n      dup2\n      mstore\n      0x04\n      add\n      tag_37\n      swap2\n      swap1\n      tag_38\n      jump\t// in\n    tag_37:\n      0x00\n      mload(0x40)\n      dup1\n      dup4\n      sub\n      dup2\n      dup6\n      dup9\n      dup1\n      extcodesize\n      iszero\n      dup1\n      iszero\n      tag_39\n      jumpi\n      0x00\n      dup1\n      revert\n    tag_39:\n      pop\n      gas\n      call\n      iszero\n      dup1\n      iszero\n      tag_41\n      jumpi\n      returndatasize\n      0x00\n      dup1\n      returndatacopy\n      revert(0x00, returndatasize)\n    tag_41:\n      pop\n      pop\n      pop\n      pop\n      pop\n        /* \"testSinglePaymaster.sol\":334:2631  contract TestSinglePaymaster is BasePaymaster {\r... */\n      stop\n    tag_2:\n      0x00\n      dup1\n      revert\n        /* \"@opengsn/contracts/src/BasePaymaster.sol\":5153:5686  function preRelayedCall(... */\n    tag_3:\n      callvalue\n      dup1\n      iszero\n      tag_42\n      jumpi\n      0x00\n      dup1\n      revert\n    tag_42:\n      pop\n      tag_43\n      0x04\n      dup1\n      calldatasize\n      sub\n      dup2\n      add\n      swap1\n      tag_44\n      swap2\n      swap1\n      tag_45\n      jump\t// in\n    tag_44:\n      tag_46\n      jump\t// in\n    tag_43:\n      mload(0x40)\n      tag_47\n      swap3\n      swap2\n      swap1\n      tag_48\n      jump\t// in\n    tag_47:\n      mload(0x40)\n      dup1\n      swap2\n      sub\n      swap1\n      return\n        /* \"testSinglePaymaster.sol\":1964:2090  function withdraw(uint256 amount, address payable target) public onlyOwner {\r... */\n    tag_4:\n      callvalue\n      dup1\n      iszero\n      tag_49\n      jumpi\n      0x00\n      dup1\n      revert\n    tag_49:\n      pop\n      tag_50\n      0x04\n      dup1\n      calldatasize\n      sub\n      dup2\n      add\n      swap1\n      tag_51\n      swap2\n      swap1\n      tag_52\n      jump\t// in\n    tag_51:\n      tag_53\n      jump\t// in\n    tag_50:\n      stop\n        /* \"@opengsn/contracts/src/BasePaymaster.sol\":1460:1743  function supportsInterface(bytes4 interfaceId) public view virtual override(IERC165, ERC165) returns (bool) {... */\n    tag_5:\n      callvalue\n      dup1\n      iszero\n      tag_54\n      jumpi\n      0x00\n      dup1\n      revert\n    tag_54:\n      pop\n      tag_55\n      0x04\n      dup1\n      calldatasize\n      sub\n      dup2\n      add\n      swap1\n      tag_56\n      swap2\n      swap1\n      tag_57\n      jump\t// in\n    tag_56:\n      tag_58\n      jump\t// in\n    tag_55:\n      mload(0x40)\n      tag_59\n      swap2\n      swap1\n      tag_60\n      jump\t// in\n    tag_59:\n      mload(0x40)\n      dup1\n      swap2\n      sub\n      swap1\n      return\n        /* \"testSinglePaymaster.sol\":2493:2628  function decreaseUesdAmount(address _target,uint256 _amount) public onlyOwner{\r... */\n    tag_6:\n      callvalue\n      dup1\n      iszero\n      tag_61\n      jumpi\n      0x00\n      dup1\n      revert\n    tag_61:\n      pop\n      tag_62\n      0x04\n      dup1\n      calldatasize\n      sub\n      dup2\n      add\n      swap1\n      tag_63\n      swap2\n      swap1\n      tag_64\n      jump\t// in\n    tag_63:\n      tag_65\n      jump\t// in\n    tag_62:\n      stop\n        /* \"testSinglePaymaster.sol\":2238:2349  function getBalance() public view returns (uint256) {\r... */\n    tag_7:\n      callvalue\n      dup1\n      iszero\n      tag_66\n      jumpi\n      0x00\n      dup1\n      revert\n    tag_66:\n      pop\n      tag_67\n      tag_68\n      jump\t// in\n    tag_67:\n      mload(0x40)\n      tag_69\n      swap2\n      swap1\n      tag_70\n      jump\t// in\n    tag_69:\n      mload(0x40)\n      dup1\n      swap2\n      sub\n      swap1\n      return\n        /* \"testSinglePaymaster.sol\":2102:2230  function whitelistTarget(address target, bool isAllowed) public onlyOwner {\r... */\n    tag_8:\n      callvalue\n      dup1\n      iszero\n      tag_71\n      jumpi\n      0x00\n      dup1\n      revert\n    tag_71:\n      pop\n      tag_72\n      0x04\n      dup1\n      calldatasize\n      sub\n      dup2\n      add\n      swap1\n      tag_73\n      swap2\n      swap1\n      tag_74\n      jump\t// in\n    tag_73:\n      tag_75\n      jump\t// in\n    tag_72:\n      stop\n        /* \"testSinglePaymaster.sol\":567:607  mapping(address => Info) public userInfo */\n    tag_9:\n      callvalue\n      dup1\n      iszero\n      tag_76\n      jumpi\n      0x00\n      dup1\n      revert\n    tag_76:\n      pop\n      tag_77\n      0x04\n      dup1\n      calldatasize\n      sub\n      dup2\n      add\n      swap1\n      tag_78\n      swap2\n      swap1\n      tag_79\n      jump\t// in\n    tag_78:\n      tag_80\n      jump\t// in\n    tag_77:\n      mload(0x40)\n      tag_81\n      swap3\n      swap2\n      swap1\n      tag_82\n      jump\t// in\n    tag_81:\n      mload(0x40)\n      dup1\n      swap2\n      sub\n      swap1\n      return\n        /* \"@opengsn/contracts/src/BasePaymaster.sol\":4974:5116  function withdrawRelayHubDepositTo(uint256 amount, address payable target) public onlyOwner {... */\n    tag_10:\n      callvalue\n      dup1\n      iszero\n      tag_83\n      jumpi\n      0x00\n      dup1\n      revert\n    tag_83:\n      pop\n      tag_84\n      0x04\n      dup1\n      calldatasize\n      sub\n      dup2\n      add\n      swap1\n      tag_85\n      swap2\n      swap1\n      tag_52\n      jump\t// in\n    tag_85:\n      tag_86\n      jump\t// in\n    tag_84:\n      stop\n        /* \"testSinglePaymaster.sol\":2357:2485  function increaseLimit(address _target,uint256 _amount) public onlyOwner{\r... */\n    tag_11:\n      callvalue\n      dup1\n      iszero\n      tag_87\n      jumpi\n      0x00\n      dup1\n      revert\n    tag_87:\n      pop\n      tag_88\n      0x04\n      dup1\n      calldatasize\n      sub\n      dup2\n      add\n      swap1\n      tag_89\n      swap2\n      swap1\n      tag_64\n      jump\t// in\n    tag_89:\n      tag_90\n      jump\t// in\n    tag_88:\n      stop\n        /* \"@opengsn/contracts/src/BasePaymaster.sol\":1374:1425  uint256 constant public CALLDATA_SIZE_LIMIT = 10500 */\n    tag_12:\n      callvalue\n      dup1\n      iszero\n      tag_91\n      jumpi\n      0x00\n      dup1\n      revert\n    tag_91:\n      pop\n      tag_92\n      tag_93\n      jump\t// in\n    tag_92:\n      mload(0x40)\n      tag_94\n      swap2\n      swap1\n      tag_70\n      jump\t// in\n    tag_94:\n      mload(0x40)\n      dup1\n      swap2\n      sub\n      swap1\n      return\n        /* \"@openzeppelin/contracts/access/Ownable.sol\":1824:1925  function renounceOwnership() public virtual onlyOwner {... */\n    tag_13:\n      callvalue\n      dup1\n      iszero\n      tag_95\n      jumpi\n      0x00\n      dup1\n      revert\n    tag_95:\n      pop\n      tag_96\n      tag_97\n      jump\t// in\n    tag_96:\n      stop\n        /* \"@opengsn/contracts/src/BasePaymaster.sol\":6140:6449  function postRelayedCall(... */\n    tag_14:\n      callvalue\n      dup1\n      iszero\n      tag_98\n      jumpi\n      0x00\n      dup1\n      revert\n    tag_98:\n      pop\n      tag_99\n      0x04\n      dup1\n      calldatasize\n      sub\n      dup2\n      add\n      swap1\n      tag_100\n      swap2\n      swap1\n      tag_101\n      jump\t// in\n    tag_100:\n      tag_102\n      jump\t// in\n    tag_99:\n      stop\n        /* \"@opengsn/contracts/src/BasePaymaster.sol\":3550:3747  function setRelayHub(IRelayHub hub) public onlyOwner {... */\n    tag_15:\n      callvalue\n      dup1\n      iszero\n      tag_103\n      jumpi\n      0x00\n      dup1\n      revert\n    tag_103:\n      pop\n      tag_104\n      0x04\n      dup1\n      calldatasize\n      sub\n      dup2\n      add\n      swap1\n      tag_105\n      swap2\n      swap1\n      tag_106\n      jump\t// in\n    tag_105:\n      tag_107\n      jump\t// in\n    tag_104:\n      stop\n        /* \"@opengsn/contracts/src/BasePaymaster.sol\":828:931  function getRelayHub() public override view returns (address) {... */\n    tag_16:\n      callvalue\n      dup1\n      iszero\n      tag_108\n      jumpi\n      0x00\n      dup1\n      revert\n    tag_108:\n      pop\n      tag_109\n      tag_110\n      jump\t// in\n    tag_109:\n      mload(0x40)\n      tag_111\n      swap2\n      swap1\n      tag_38\n      jump\t// in\n    tag_111:\n      mload(0x40)\n      dup1\n      swap2\n      sub\n      swap1\n      return\n        /* \"testSinglePaymaster.sol\":389:436  mapping(address => bool) public targetWhitelist */\n    tag_17:\n      callvalue\n      dup1\n      iszero\n      tag_112\n      jumpi\n      0x00\n      dup1\n      revert\n    tag_112:\n      pop\n      tag_113\n      0x04\n      dup1\n      calldatasize\n      sub\n      dup2\n      add\n      swap1\n      tag_114\n      swap2\n      swap1\n      tag_79\n      jump\t// in\n    tag_114:\n      tag_115\n      jump\t// in\n    tag_113:\n      mload(0x40)\n      tag_116\n      swap2\n      swap1\n      tag_60\n      jump\t// in\n    tag_116:\n      mload(0x40)\n      dup1\n      swap2\n      sub\n      swap1\n      return\n        /* \"@openzeppelin/contracts/access/Ownable.sol\":1201:1286  function owner() public view virtual returns (address) {... */\n    tag_18:\n      callvalue\n      dup1\n      iszero\n      tag_117\n      jumpi\n      0x00\n      dup1\n      revert\n    tag_117:\n      pop\n      tag_118\n      tag_119\n      jump\t// in\n    tag_118:\n      mload(0x40)\n      tag_120\n      swap2\n      swap1\n      tag_38\n      jump\t// in\n    tag_120:\n      mload(0x40)\n      dup1\n      swap2\n      sub\n      swap1\n      return\n        /* \"testSinglePaymaster.sol\":641:799  function versionPaymaster() external view override virtual returns (string memory){\r... */\n    tag_19:\n      callvalue\n      dup1\n      iszero\n      tag_121\n      jumpi\n      0x00\n      dup1\n      revert\n    tag_121:\n      pop\n      tag_122\n      tag_123\n      jump\t// in\n    tag_122:\n      mload(0x40)\n      tag_124\n      swap2\n      swap1\n      tag_125\n      jump\t// in\n    tag_124:\n      mload(0x40)\n      dup1\n      swap2\n      sub\n      swap1\n      return\n        /* \"@opengsn/contracts/src/BasePaymaster.sol\":1780:2142  function getGasAndDataLimits()... */\n    tag_20:\n      callvalue\n      dup1\n      iszero\n      tag_126\n      jumpi\n      0x00\n      dup1\n      revert\n    tag_126:\n      pop\n      tag_127\n      tag_128\n      jump\t// in\n    tag_127:\n      mload(0x40)\n      tag_129\n      swap2\n      swap1\n      tag_130\n      jump\t// in\n    tag_129:\n      mload(0x40)\n      dup1\n      swap2\n      sub\n      swap1\n      return\n        /* \"@opengsn/contracts/src/BasePaymaster.sol\":1002:1056  uint256 constant public FORWARDER_HUB_OVERHEAD = 50000 */\n    tag_21:\n      callvalue\n      dup1\n      iszero\n      tag_131\n      jumpi\n      0x00\n      dup1\n      revert\n    tag_131:\n      pop\n      tag_132\n      tag_133\n      jump\t// in\n    tag_132:\n      mload(0x40)\n      tag_134\n      swap2\n      swap1\n      tag_70\n      jump\t// in\n    tag_134:\n      mload(0x40)\n      dup1\n      swap2\n      sub\n      swap1\n      return\n        /* \"@opengsn/contracts/src/BasePaymaster.sol\":1197:1257  uint256 constant public POST_RELAYED_CALL_GAS_LIMIT = 110000 */\n    tag_22:\n      callvalue\n      dup1\n      iszero\n      tag_135\n      jumpi\n      0x00\n      dup1\n      revert\n    tag_135:\n      pop\n      tag_136\n      tag_137\n      jump\t// in\n    tag_136:\n      mload(0x40)\n      tag_138\n      swap2\n      swap1\n      tag_70\n      jump\t// in\n    tag_138:\n      mload(0x40)\n      dup1\n      swap2\n      sub\n      swap1\n      return\n        /* \"@opengsn/contracts/src/BasePaymaster.sol\":4233:4351  function getTrustedForwarder() public virtual view override returns (address){... */\n    tag_23:\n      callvalue\n      dup1\n      iszero\n      tag_139\n      jumpi\n      0x00\n      dup1\n      revert\n    tag_139:\n      pop\n      tag_140\n      tag_141\n      jump\t// in\n    tag_140:\n      mload(0x40)\n      tag_142\n      swap2\n      swap1\n      tag_38\n      jump\t// in\n    tag_142:\n      mload(0x40)\n      dup1\n      swap2\n      sub\n      swap1\n      return\n        /* \"@opengsn/contracts/src/BasePaymaster.sol\":3996:4227  function setTrustedForwarder(address forwarder) public virtual onlyOwner {... */\n    tag_24:\n      callvalue\n      dup1\n      iszero\n      tag_143\n      jumpi\n      0x00\n      dup1\n      revert\n    tag_143:\n      pop\n      tag_144\n      0x04\n      dup1\n      calldatasize\n      sub\n      dup2\n      add\n      swap1\n      tag_145\n      swap2\n      swap1\n      tag_79\n      jump\t// in\n    tag_145:\n      tag_146\n      jump\t// in\n    tag_144:\n      stop\n        /* \"@opengsn/contracts/src/BasePaymaster.sol\":1263:1368  uint256 constant public PAYMASTER_ACCEPTANCE_BUDGET = PRE_RELAYED_CALL_GAS_LIMIT + FORWARDER_HUB_OVERHEAD */\n    tag_25:\n      callvalue\n      dup1\n      iszero\n      tag_147\n      jumpi\n      0x00\n      dup1\n      revert\n    tag_147:\n      pop\n      tag_148\n      tag_149\n      jump\t// in\n    tag_148:\n      mload(0x40)\n      tag_150\n      swap2\n      swap1\n      tag_70\n      jump\t// in\n    tag_150:\n      mload(0x40)\n      dup1\n      swap2\n      sub\n      swap1\n      return\n        /* \"@openzeppelin/contracts/access/Ownable.sol\":2074:2272  function transferOwnership(address newOwner) public virtual onlyOwner {... */\n    tag_26:\n      callvalue\n      dup1\n      iszero\n      tag_151\n      jumpi\n      0x00\n      dup1\n      revert\n    tag_151:\n      pop\n      tag_152\n      0x04\n      dup1\n      calldatasize\n      sub\n      dup2\n      add\n      swap1\n      tag_153\n      swap2\n      swap1\n      tag_79\n      jump\t// in\n    tag_153:\n      tag_154\n      jump\t// in\n    tag_152:\n      stop\n        /* \"@opengsn/contracts/src/BasePaymaster.sol\":1132:1191  uint256 constant public PRE_RELAYED_CALL_GAS_LIMIT = 100000 */\n    tag_27:\n      callvalue\n      dup1\n      iszero\n      tag_155\n      jumpi\n      0x00\n      dup1\n      revert\n    tag_155:\n      pop\n      tag_156\n      tag_157\n      jump\t// in\n    tag_156:\n      mload(0x40)\n      tag_158\n      swap2\n      swap1\n      tag_70\n      jump\t// in\n    tag_158:\n      mload(0x40)\n      dup1\n      swap2\n      sub\n      swap1\n      return\n        /* \"@opengsn/contracts/src/BasePaymaster.sol\":5153:5686  function preRelayedCall(... */\n    tag_46:\n        /* \"@opengsn/contracts/src/BasePaymaster.sol\":5378:5390  bytes memory */\n      0x60\n        /* \"@opengsn/contracts/src/BasePaymaster.sol\":5392:5396  bool */\n      0x00\n        /* \"@opengsn/contracts/src/BasePaymaster.sol\":5408:5429  _verifyRelayHubOnly() */\n      tag_160\n        /* \"@opengsn/contracts/src/BasePaymaster.sol\":5408:5427  _verifyRelayHubOnly */\n      tag_161\n        /* \"@opengsn/contracts/src/BasePaymaster.sol\":5408:5429  _verifyRelayHubOnly() */\n      jump\t// in\n    tag_160:\n        /* \"@opengsn/contracts/src/BasePaymaster.sol\":5439:5469  _verifyForwarder(relayRequest) */\n      tag_162\n        /* \"@opengsn/contracts/src/BasePaymaster.sol\":5456:5468  relayRequest */\n      dup9\n        /* \"@opengsn/contracts/src/BasePaymaster.sol\":5439:5455  _verifyForwarder */\n      tag_163\n        /* \"@opengsn/contracts/src/BasePaymaster.sol\":5439:5469  _verifyForwarder(relayRequest) */\n      jump\t// in\n    tag_162:\n        /* \"@opengsn/contracts/src/BasePaymaster.sol\":5479:5505  _verifyValue(relayRequest) */\n      tag_164\n        /* \"@opengsn/contracts/src/BasePaymaster.sol\":5492:5504  relayRequest */\n      dup9\n        /* \"@opengsn/contracts/src/BasePaymaster.sol\":5479:5491  _verifyValue */\n      tag_165\n        /* \"@opengsn/contracts/src/BasePaymaster.sol\":5479:5505  _verifyValue(relayRequest) */\n      jump\t// in\n    tag_164:\n        /* \"@opengsn/contracts/src/BasePaymaster.sol\":5515:5549  _verifyPaymasterData(relayRequest) */\n      tag_166\n        /* \"@opengsn/contracts/src/BasePaymaster.sol\":5536:5548  relayRequest */\n      dup9\n        /* \"@opengsn/contracts/src/BasePaymaster.sol\":5515:5535  _verifyPaymasterData */\n      tag_167\n        /* \"@opengsn/contracts/src/BasePaymaster.sol\":5515:5549  _verifyPaymasterData(relayRequest) */\n      jump\t// in\n    tag_166:\n        /* \"@opengsn/contracts/src/BasePaymaster.sol\":5559:5592  _verifyApprovalData(approvalData) */\n      tag_168\n        /* \"@opengsn/contracts/src/BasePaymaster.sol\":5579:5591  approvalData */\n      dup6\n      dup6\n        /* \"@opengsn/contracts/src/BasePaymaster.sol\":5559:5578  _verifyApprovalData */\n      tag_169\n        /* \"@opengsn/contracts/src/BasePaymaster.sol\":5559:5592  _verifyApprovalData(approvalData) */\n      jump\t// in\n    tag_168:\n        /* \"@opengsn/contracts/src/BasePaymaster.sol\":5609:5679  _preRelayedCall(relayRequest, signature, approvalData, maxPossibleGas) */\n      tag_170\n        /* \"@opengsn/contracts/src/BasePaymaster.sol\":5625:5637  relayRequest */\n      dup9\n        /* \"@opengsn/contracts/src/BasePaymaster.sol\":5639:5648  signature */\n      dup9\n      dup9\n        /* \"@opengsn/contracts/src/BasePaymaster.sol\":5650:5662  approvalData */\n      dup9\n      dup9\n        /* \"@opengsn/contracts/src/BasePaymaster.sol\":5664:5678  maxPossibleGas */\n      dup9\n        /* \"@opengsn/contracts/src/BasePaymaster.sol\":5609:5624  _preRelayedCall */\n      tag_171\n        /* \"@opengsn/contracts/src/BasePaymaster.sol\":5609:5679  _preRelayedCall(relayRequest, signature, approvalData, maxPossibleGas) */\n      jump\t// in\n    tag_170:\n        /* \"@opengsn/contracts/src/BasePaymaster.sol\":5602:5679  return _preRelayedCall(relayRequest, signature, approvalData, maxPossibleGas) */\n      swap2\n      pop\n      swap2\n      pop\n        /* \"@opengsn/contracts/src/BasePaymaster.sol\":5153:5686  function preRelayedCall(... */\n      swap7\n      pop\n      swap7\n      swap5\n      pop\n      pop\n      pop\n      pop\n      pop\n      jump\t// out\n        /* \"testSinglePaymaster.sol\":1964:2090  function withdraw(uint256 amount, address payable target) public onlyOwner {\r... */\n    tag_53:\n        /* \"@openzeppelin/contracts/access/Ownable.sol\":1094:1107  _checkOwner() */\n      tag_173\n        /* \"@openzeppelin/contracts/access/Ownable.sol\":1094:1105  _checkOwner */\n      tag_174\n        /* \"@openzeppelin/contracts/access/Ownable.sol\":1094:1107  _checkOwner() */\n      jump\t// in\n    tag_173:\n        /* \"testSinglePaymaster.sol\":2050:2058  relayHub */\n      0x01\n      0x00\n      swap1\n      sload\n      swap1\n      0x0100\n      exp\n      swap1\n      div\n      0xffffffffffffffffffffffffffffffffffffffff\n      and\n        /* \"testSinglePaymaster.sol\":2050:2067  relayHub.withdraw */\n      0xffffffffffffffffffffffffffffffffffffffff\n      and\n      0xf3fef3a3\n        /* \"testSinglePaymaster.sol\":2068:2074  target */\n      dup3\n        /* \"testSinglePaymaster.sol\":2075:2081  amount */\n      dup5\n        /* \"testSinglePaymaster.sol\":2050:2082  relayHub.withdraw(target,amount) */\n      mload(0x40)\n      dup4\n      0xffffffff\n      and\n      0xe0\n      shl\n      dup2\n      mstore\n      0x04\n      add\n      tag_176\n      swap3\n      swap2\n      swap1\n      tag_177\n      jump\t// in\n    tag_176:\n      0x00\n      mload(0x40)\n      dup1\n      dup4\n      sub\n      dup2\n      0x00\n      dup8\n      dup1\n      extcodesize\n      iszero\n      dup1\n      iszero\n      tag_178\n      jumpi\n      0x00\n      dup1\n      revert\n    tag_178:\n      pop\n      gas\n      call\n      iszero\n      dup1\n      iszero\n      tag_180\n      jumpi\n      returndatasize\n      0x00\n      dup1\n      returndatacopy\n      revert(0x00, returndatasize)\n    tag_180:\n      pop\n      pop\n      pop\n      pop\n        /* \"testSinglePaymaster.sol\":1964:2090  function withdraw(uint256 amount, address payable target) public onlyOwner {\r... */\n      pop\n      pop\n      jump\t// out\n        /* \"@opengsn/contracts/src/BasePaymaster.sol\":1460:1743  function supportsInterface(bytes4 interfaceId) public view virtual override(IERC165, ERC165) returns (bool) {... */\n    tag_58:\n        /* \"@opengsn/contracts/src/BasePaymaster.sol\":1562:1566  bool */\n      0x00\n        /* \"@opengsn/contracts/src/BasePaymaster.sol\":1600:1628  type(IPaymaster).interfaceId */\n      0xe1ab2dea00000000000000000000000000000000000000000000000000000000\n        /* \"@opengsn/contracts/src/BasePaymaster.sol\":1585:1628  interfaceId == type(IPaymaster).interfaceId */\n      not(0xffffffffffffffffffffffffffffffffffffffffffffffffffffffff)\n      and\n        /* \"@opengsn/contracts/src/BasePaymaster.sol\":1585:1596  interfaceId */\n      dup3\n        /* \"@opengsn/contracts/src/BasePaymaster.sol\":1585:1628  interfaceId == type(IPaymaster).interfaceId */\n      not(0xffffffffffffffffffffffffffffffffffffffffffffffffffffffff)\n      and\n      eq\n        /* \"@opengsn/contracts/src/BasePaymaster.sol\":1585:1684  interfaceId == type(IPaymaster).interfaceId ||... */\n      dup1\n      tag_182\n      jumpi\n      pop\n        /* \"@opengsn/contracts/src/BasePaymaster.sol\":1659:1684  type(Ownable).interfaceId */\n      0x0e08307600000000000000000000000000000000000000000000000000000000\n        /* \"@opengsn/contracts/src/BasePaymaster.sol\":1644:1684  interfaceId == type(Ownable).interfaceId */\n      not(0xffffffffffffffffffffffffffffffffffffffffffffffffffffffff)\n      and\n        /* \"@opengsn/contracts/src/BasePaymaster.sol\":1644:1655  interfaceId */\n      dup3\n        /* \"@opengsn/contracts/src/BasePaymaster.sol\":1644:1684  interfaceId == type(Ownable).interfaceId */\n      not(0xffffffffffffffffffffffffffffffffffffffffffffffffffffffff)\n      and\n      eq\n        /* \"@opengsn/contracts/src/BasePaymaster.sol\":1585:1684  interfaceId == type(IPaymaster).interfaceId ||... */\n    tag_182:\n        /* \"@opengsn/contracts/src/BasePaymaster.sol\":1585:1736  interfaceId == type(IPaymaster).interfaceId ||... */\n      dup1\n      tag_183\n      jumpi\n      pop\n        /* \"@opengsn/contracts/src/BasePaymaster.sol\":1700:1736  super.supportsInterface(interfaceId) */\n      tag_184\n        /* \"@opengsn/contracts/src/BasePaymaster.sol\":1724:1735  interfaceId */\n      dup3\n        /* \"@opengsn/contracts/src/BasePaymaster.sol\":1700:1723  super.supportsInterface */\n      tag_185\n        /* \"@opengsn/contracts/src/BasePaymaster.sol\":1700:1736  super.supportsInterface(interfaceId) */\n      jump\t// in\n    tag_184:\n        /* \"@opengsn/contracts/src/BasePaymaster.sol\":1585:1736  interfaceId == type(IPaymaster).interfaceId ||... */\n    tag_183:\n        /* \"@opengsn/contracts/src/BasePaymaster.sol\":1578:1736  return interfaceId == type(IPaymaster).interfaceId ||... */\n      swap1\n      pop\n        /* \"@opengsn/contracts/src/BasePaymaster.sol\":1460:1743  function supportsInterface(bytes4 interfaceId) public view virtual override(IERC165, ERC165) returns (bool) {... */\n      swap2\n      swap1\n      pop\n      jump\t// out\n        /* \"testSinglePaymaster.sol\":2493:2628  function decreaseUesdAmount(address _target,uint256 _amount) public onlyOwner{\r... */\n    tag_65:\n        /* \"@openzeppelin/contracts/access/Ownable.sol\":1094:1107  _checkOwner() */\n      tag_187\n        /* \"@openzeppelin/contracts/access/Ownable.sol\":1094:1105  _checkOwner */\n      tag_174\n        /* \"@openzeppelin/contracts/access/Ownable.sol\":1094:1107  _checkOwner() */\n      jump\t// in\n    tag_187:\n        /* \"testSinglePaymaster.sol\":2613:2620  _amount */\n      dup1\n        /* \"testSinglePaymaster.sol\":2581:2589  userInfo */\n      0x05\n        /* \"testSinglePaymaster.sol\":2581:2598  userInfo[_target] */\n      0x00\n        /* \"testSinglePaymaster.sol\":2590:2597  _target */\n      dup5\n        /* \"testSinglePaymaster.sol\":2581:2598  userInfo[_target] */\n      0xffffffffffffffffffffffffffffffffffffffff\n      and\n      0xffffffffffffffffffffffffffffffffffffffff\n      and\n      dup2\n      mstore\n      0x20\n      add\n      swap1\n      dup2\n      mstore\n      0x20\n      add\n      0x00\n      keccak256\n        /* \"testSinglePaymaster.sol\":2581:2609  userInfo[_target].usedAmount */\n      0x01\n      add\n      0x00\n        /* \"testSinglePaymaster.sol\":2581:2620  userInfo[_target].usedAmount -= _amount */\n      dup3\n      dup3\n      sload\n      tag_189\n      swap2\n      swap1\n      tag_190\n      jump\t// in\n    tag_189:\n      swap3\n      pop\n      pop\n      dup2\n      swap1\n      sstore\n      pop\n        /* \"testSinglePaymaster.sol\":2493:2628  function decreaseUesdAmount(address _target,uint256 _amount) public onlyOwner{\r... */\n      pop\n      pop\n      jump\t// out\n        /* \"testSinglePaymaster.sol\":2238:2349  function getBalance() public view returns (uint256) {\r... */\n    tag_68:\n        /* \"testSinglePaymaster.sol\":2281:2288  uint256 */\n      0x00\n        /* \"testSinglePaymaster.sol\":2308:2316  relayHub */\n      0x01\n      0x00\n      swap1\n      sload\n      swap1\n      0x0100\n      exp\n      swap1\n      div\n      0xffffffffffffffffffffffffffffffffffffffff\n      and\n        /* \"testSinglePaymaster.sol\":2308:2326  relayHub.balanceOf */\n      0xffffffffffffffffffffffffffffffffffffffff\n      and\n      0x70a08231\n        /* \"testSinglePaymaster.sol\":2335:2339  this */\n      address\n        /* \"testSinglePaymaster.sol\":2308:2341  relayHub.balanceOf(address(this)) */\n      mload(0x40)\n      dup3\n      0xffffffff\n      and\n      0xe0\n      shl\n      dup2\n      mstore\n      0x04\n      add\n      tag_192\n      swap2\n      swap1\n      tag_38\n      jump\t// in\n    tag_192:\n      0x20\n      mload(0x40)\n      dup1\n      dup4\n      sub\n      dup2\n      dup7\n      dup1\n      extcodesize\n      iszero\n      dup1\n      iszero\n      tag_193\n      jumpi\n      0x00\n      dup1\n      revert\n    tag_193:\n      pop\n      gas\n      staticcall\n      iszero\n      dup1\n      iszero\n      tag_195\n      jumpi\n      returndatasize\n      0x00\n      dup1\n      returndatacopy\n      revert(0x00, returndatasize)\n    tag_195:\n      pop\n      pop\n      pop\n      pop\n      mload(0x40)\n      returndatasize\n      not(0x1f)\n      0x1f\n      dup3\n      add\n      and\n      dup3\n      add\n      dup1\n      0x40\n      mstore\n      pop\n      dup2\n      add\n      swap1\n      tag_196\n      swap2\n      swap1\n      tag_197\n      jump\t// in\n    tag_196:\n        /* \"testSinglePaymaster.sol\":2301:2341  return relayHub.balanceOf(address(this)) */\n      swap1\n      pop\n        /* \"testSinglePaymaster.sol\":2238:2349  function getBalance() public view returns (uint256) {\r... */\n      swap1\n      jump\t// out\n        /* \"testSinglePaymaster.sol\":2102:2230  function whitelistTarget(address target, bool isAllowed) public onlyOwner {\r... */\n    tag_75:\n        /* \"@openzeppelin/contracts/access/Ownable.sol\":1094:1107  _checkOwner() */\n      tag_199\n        /* \"@openzeppelin/contracts/access/Ownable.sol\":1094:1105  _checkOwner */\n      tag_174\n        /* \"@openzeppelin/contracts/access/Ownable.sol\":1094:1107  _checkOwner() */\n      jump\t// in\n    tag_199:\n        /* \"testSinglePaymaster.sol\":2213:2222  isAllowed */\n      dup1\n        /* \"testSinglePaymaster.sol\":2187:2202  targetWhitelist */\n      0x03\n        /* \"testSinglePaymaster.sol\":2187:2210  targetWhitelist[target] */\n      0x00\n        /* \"testSinglePaymaster.sol\":2203:2209  target */\n      dup5\n        /* \"testSinglePaymaster.sol\":2187:2210  targetWhitelist[target] */\n      0xffffffffffffffffffffffffffffffffffffffff\n      and\n      0xffffffffffffffffffffffffffffffffffffffff\n      and\n      dup2\n      mstore\n      0x20\n      add\n      swap1\n      dup2\n      mstore\n      0x20\n      add\n      0x00\n      keccak256\n      0x00\n        /* \"testSinglePaymaster.sol\":2187:2222  targetWhitelist[target] = isAllowed */\n      0x0100\n      exp\n      dup2\n      sload\n      dup2\n      0xff\n      mul\n      not\n      and\n      swap1\n      dup4\n      iszero\n      iszero\n      mul\n      or\n      swap1\n      sstore\n      pop\n        /* \"testSinglePaymaster.sol\":2102:2230  function whitelistTarget(address target, bool isAllowed) public onlyOwner {\r... */\n      pop\n      pop\n      jump\t// out\n        /* \"testSinglePaymaster.sol\":567:607  mapping(address => Info) public userInfo */\n    tag_80:\n      mstore(0x20, 0x05)\n      dup1\n      0x00\n      mstore\n      keccak256(0x00, 0x40)\n      0x00\n      swap2\n      pop\n      swap1\n      pop\n      dup1\n      0x00\n      add\n      sload\n      swap1\n      dup1\n      0x01\n      add\n      sload\n      swap1\n      pop\n      dup3\n      jump\t// out\n        /* \"@opengsn/contracts/src/BasePaymaster.sol\":4974:5116  function withdrawRelayHubDepositTo(uint256 amount, address payable target) public onlyOwner {... */\n    tag_86:\n        /* \"@openzeppelin/contracts/access/Ownable.sol\":1094:1107  _checkOwner() */\n      tag_202\n        /* \"@openzeppelin/contracts/access/Ownable.sol\":1094:1105  _checkOwner */\n      tag_174\n        /* \"@openzeppelin/contracts/access/Ownable.sol\":1094:1107  _checkOwner() */\n      jump\t// in\n    tag_202:\n        /* \"@opengsn/contracts/src/BasePaymaster.sol\":5076:5084  relayHub */\n      0x01\n      0x00\n      swap1\n      sload\n      swap1\n      0x0100\n      exp\n      swap1\n      div\n      0xffffffffffffffffffffffffffffffffffffffff\n      and\n        /* \"@opengsn/contracts/src/BasePaymaster.sol\":5076:5093  relayHub.withdraw */\n      0xffffffffffffffffffffffffffffffffffffffff\n      and\n      0xf3fef3a3\n        /* \"@opengsn/contracts/src/BasePaymaster.sol\":5094:5100  target */\n      dup3\n        /* \"@opengsn/contracts/src/BasePaymaster.sol\":5102:5108  amount */\n      dup5\n        /* \"@opengsn/contracts/src/BasePaymaster.sol\":5076:5109  relayHub.withdraw(target, amount) */\n      mload(0x40)\n      dup4\n      0xffffffff\n      and\n      0xe0\n      shl\n      dup2\n      mstore\n      0x04\n      add\n      tag_204\n      swap3\n      swap2\n      swap1\n      tag_177\n      jump\t// in\n    tag_204:\n      0x00\n      mload(0x40)\n      dup1\n      dup4\n      sub\n      dup2\n      0x00\n      dup8\n      dup1\n      extcodesize\n      iszero\n      dup1\n      iszero\n      tag_205\n      jumpi\n      0x00\n      dup1\n      revert\n    tag_205:\n      pop\n      gas\n      call\n      iszero\n      dup1\n      iszero\n      tag_207\n      jumpi\n      returndatasize\n      0x00\n      dup1\n      returndatacopy\n      revert(0x00, returndatasize)\n    tag_207:\n      pop\n      pop\n      pop\n      pop\n        /* \"@opengsn/contracts/src/BasePaymaster.sol\":4974:5116  function withdrawRelayHubDepositTo(uint256 amount, address payable target) public onlyOwner {... */\n      pop\n      pop\n      jump\t// out\n        /* \"testSinglePaymaster.sol\":2357:2485  function increaseLimit(address _target,uint256 _amount) public onlyOwner{\r... */\n    tag_90:\n        /* \"@openzeppelin/contracts/access/Ownable.sol\":1094:1107  _checkOwner() */\n      tag_209\n        /* \"@openzeppelin/contracts/access/Ownable.sol\":1094:1105  _checkOwner */\n      tag_174\n        /* \"@openzeppelin/contracts/access/Ownable.sol\":1094:1107  _checkOwner() */\n      jump\t// in\n    tag_209:\n        /* \"testSinglePaymaster.sol\":2470:2477  _amount */\n      dup1\n        /* \"testSinglePaymaster.sol\":2440:2448  userInfo */\n      0x05\n        /* \"testSinglePaymaster.sol\":2440:2457  userInfo[_target] */\n      0x00\n        /* \"testSinglePaymaster.sol\":2449:2456  _target */\n      dup5\n        /* \"testSinglePaymaster.sol\":2440:2457  userInfo[_target] */\n      0xffffffffffffffffffffffffffffffffffffffff\n      and\n      0xffffffffffffffffffffffffffffffffffffffff\n      and\n      dup2\n      mstore\n      0x20\n      add\n      swap1\n      dup2\n      mstore\n      0x20\n      add\n      0x00\n      keccak256\n        /* \"testSinglePaymaster.sol\":2440:2466  userInfo[_target].GasLimit */\n      0x00\n      add\n      0x00\n        /* \"testSinglePaymaster.sol\":2440:2477  userInfo[_target].GasLimit += _amount */\n      dup3\n      dup3\n      sload\n      tag_211\n      swap2\n      swap1\n      tag_212\n      jump\t// in\n    tag_211:\n      swap3\n      pop\n      pop\n      dup2\n      swap1\n      sstore\n      pop\n        /* \"testSinglePaymaster.sol\":2357:2485  function increaseLimit(address _target,uint256 _amount) public onlyOwner{\r... */\n      pop\n      pop\n      jump\t// out\n        /* \"@opengsn/contracts/src/BasePaymaster.sol\":1374:1425  uint256 constant public CALLDATA_SIZE_LIMIT = 10500 */\n    tag_93:\n        /* \"@opengsn/contracts/src/BasePaymaster.sol\":1420:1425  10500 */\n      0x2904\n        /* \"@opengsn/contracts/src/BasePaymaster.sol\":1374:1425  uint256 constant public CALLDATA_SIZE_LIMIT = 10500 */\n      dup2\n      jump\t// out\n        /* \"@openzeppelin/contracts/access/Ownable.sol\":1824:1925  function renounceOwnership() public virtual onlyOwner {... */\n    tag_97:\n        /* \"@openzeppelin/contracts/access/Ownable.sol\":1094:1107  _checkOwner() */\n      tag_214\n        /* \"@openzeppelin/contracts/access/Ownable.sol\":1094:1105  _checkOwner */\n      tag_174\n        /* \"@openzeppelin/contracts/access/Ownable.sol\":1094:1107  _checkOwner() */\n      jump\t// in\n    tag_214:\n        /* \"@openzeppelin/contracts/access/Ownable.sol\":1888:1918  _transferOwnership(address(0)) */\n      tag_216\n        /* \"@openzeppelin/contracts/access/Ownable.sol\":1915:1916  0 */\n      0x00\n        /* \"@openzeppelin/contracts/access/Ownable.sol\":1888:1906  _transferOwnership */\n      tag_217\n        /* \"@openzeppelin/contracts/access/Ownable.sol\":1888:1918  _transferOwnership(address(0)) */\n      jump\t// in\n    tag_216:\n        /* \"@openzeppelin/contracts/access/Ownable.sol\":1824:1925  function renounceOwnership() public virtual onlyOwner {... */\n      jump\t// out\n        /* \"@opengsn/contracts/src/BasePaymaster.sol\":6140:6449  function postRelayedCall(... */\n    tag_102:\n        /* \"@opengsn/contracts/src/BasePaymaster.sol\":6347:6368  _verifyRelayHubOnly() */\n      tag_219\n        /* \"@opengsn/contracts/src/BasePaymaster.sol\":6347:6366  _verifyRelayHubOnly */\n      tag_161\n        /* \"@opengsn/contracts/src/BasePaymaster.sol\":6347:6368  _verifyRelayHubOnly() */\n      jump\t// in\n    tag_219:\n        /* \"@opengsn/contracts/src/BasePaymaster.sol\":6378:6442  _postRelayedCall(context, success, gasUseWithoutPost, relayData) */\n      tag_220\n        /* \"@opengsn/contracts/src/BasePaymaster.sol\":6395:6402  context */\n      dup6\n      dup6\n        /* \"@opengsn/contracts/src/BasePaymaster.sol\":6404:6411  success */\n      dup6\n        /* \"@opengsn/contracts/src/BasePaymaster.sol\":6413:6430  gasUseWithoutPost */\n      dup6\n        /* \"@opengsn/contracts/src/BasePaymaster.sol\":6432:6441  relayData */\n      dup6\n        /* \"@opengsn/contracts/src/BasePaymaster.sol\":6378:6394  _postRelayedCall */\n      tag_221\n        /* \"@opengsn/contracts/src/BasePaymaster.sol\":6378:6442  _postRelayedCall(context, success, gasUseWithoutPost, relayData) */\n      jump\t// in\n    tag_220:\n        /* \"@opengsn/contracts/src/BasePaymaster.sol\":6140:6449  function postRelayedCall(... */\n      pop\n      pop\n      pop\n      pop\n      pop\n      jump\t// out\n        /* \"@opengsn/contracts/src/BasePaymaster.sol\":3550:3747  function setRelayHub(IRelayHub hub) public onlyOwner {... */\n    tag_107:\n        /* \"@openzeppelin/contracts/access/Ownable.sol\":1094:1107  _checkOwner() */\n      tag_223\n        /* \"@openzeppelin/contracts/access/Ownable.sol\":1094:1105  _checkOwner */\n      tag_174\n        /* \"@openzeppelin/contracts/access/Ownable.sol\":1094:1107  _checkOwner() */\n      jump\t// in\n    tag_223:\n        /* \"@opengsn/contracts/src/BasePaymaster.sol\":3621:3680  address(hub).supportsInterface(type(IRelayHub).interfaceId) */\n      tag_225\n        /* \"@opengsn/contracts/src/BasePaymaster.sol\":3652:3679  type(IRelayHub).interfaceId */\n      0xe9fb30f700000000000000000000000000000000000000000000000000000000\n        /* \"@opengsn/contracts/src/BasePaymaster.sol\":3629:3632  hub */\n      dup3\n        /* \"@opengsn/contracts/src/BasePaymaster.sol\":3621:3651  address(hub).supportsInterface */\n      0xffffffffffffffffffffffffffffffffffffffff\n      and\n      tag_226\n      swap1\n        /* \"@opengsn/contracts/src/BasePaymaster.sol\":3621:3680  address(hub).supportsInterface(type(IRelayHub).interfaceId) */\n      swap2\n      swap1\n      0xffffffff\n      and\n      jump\t// in\n    tag_225:\n        /* \"@opengsn/contracts/src/BasePaymaster.sol\":3613:3716  require(address(hub).supportsInterface(type(IRelayHub).interfaceId), \"target is not a valid IRelayHub\") */\n      tag_227\n      jumpi\n      mload(0x40)\n      0x08c379a000000000000000000000000000000000000000000000000000000000\n      dup2\n      mstore\n      0x04\n      add\n      tag_228\n      swap1\n      tag_229\n      jump\t// in\n    tag_228:\n      mload(0x40)\n      dup1\n      swap2\n      sub\n      swap1\n      revert\n    tag_227:\n        /* \"@opengsn/contracts/src/BasePaymaster.sol\":3737:3740  hub */\n      dup1\n        /* \"@opengsn/contracts/src/BasePaymaster.sol\":3726:3734  relayHub */\n      0x01\n      0x00\n        /* \"@opengsn/contracts/src/BasePaymaster.sol\":3726:3740  relayHub = hub */\n      0x0100\n      exp\n      dup2\n      sload\n      dup2\n      0xffffffffffffffffffffffffffffffffffffffff\n      mul\n      not\n      and\n      swap1\n      dup4\n      0xffffffffffffffffffffffffffffffffffffffff\n      and\n      mul\n      or\n      swap1\n      sstore\n      pop\n        /* \"@opengsn/contracts/src/BasePaymaster.sol\":3550:3747  function setRelayHub(IRelayHub hub) public onlyOwner {... */\n      pop\n      jump\t// out\n        /* \"@opengsn/contracts/src/BasePaymaster.sol\":828:931  function getRelayHub() public override view returns (address) {... */\n    tag_110:\n        /* \"@opengsn/contracts/src/BasePaymaster.sol\":881:888  address */\n      0x00\n        /* \"@opengsn/contracts/src/BasePaymaster.sol\":915:923  relayHub */\n      0x01\n      0x00\n      swap1\n      sload\n      swap1\n      0x0100\n      exp\n      swap1\n      div\n      0xffffffffffffffffffffffffffffffffffffffff\n      and\n        /* \"@opengsn/contracts/src/BasePaymaster.sol\":900:924  return address(relayHub) */\n      swap1\n      pop\n        /* \"@opengsn/contracts/src/BasePaymaster.sol\":828:931  function getRelayHub() public override view returns (address) {... */\n      swap1\n      jump\t// out\n        /* \"testSinglePaymaster.sol\":389:436  mapping(address => bool) public targetWhitelist */\n    tag_115:\n      mstore(0x20, 0x03)\n      dup1\n      0x00\n      mstore\n      keccak256(0x00, 0x40)\n      0x00\n      swap2\n      pop\n      sload\n      swap1\n      0x0100\n      exp\n      swap1\n      div\n      0xff\n      and\n      dup2\n      jump\t// out\n        /* \"@openzeppelin/contracts/access/Ownable.sol\":1201:1286  function owner() public view virtual returns (address) {... */\n    tag_119:\n        /* \"@openzeppelin/contracts/access/Ownable.sol\":1247:1254  address */\n      0x00\n        /* \"@openzeppelin/contracts/access/Ownable.sol\":1273:1279  _owner */\n      dup1\n      0x00\n      swap1\n      sload\n      swap1\n      0x0100\n      exp\n      swap1\n      div\n      0xffffffffffffffffffffffffffffffffffffffff\n      and\n        /* \"@openzeppelin/contracts/access/Ownable.sol\":1266:1279  return _owner */\n      swap1\n      pop\n        /* \"@openzeppelin/contracts/access/Ownable.sol\":1201:1286  function owner() public view virtual returns (address) {... */\n      swap1\n      jump\t// out\n        /* \"testSinglePaymaster.sol\":641:799  function versionPaymaster() external view override virtual returns (string memory){\r... */\n    tag_123:\n        /* \"testSinglePaymaster.sol\":709:722  string memory */\n      0x60\n        /* \"testSinglePaymaster.sol\":734:791  return \"3.0.0-beta.3+opengsn.accepteverything.ipaymaster\" */\n      mload(0x40)\n      dup1\n      0x60\n      add\n      0x40\n      mstore\n      dup1\n      0x30\n      dup2\n      mstore\n      0x20\n      add\n      data_eb97c41b3f651080603cbd3c7c438c7324cd0069264d3abe764ec765afe6a3d8\n      0x30\n      swap2\n      codecopy\n      swap1\n      pop\n        /* \"testSinglePaymaster.sol\":641:799  function versionPaymaster() external view override virtual returns (string memory){\r... */\n      swap1\n      jump\t// out\n        /* \"@opengsn/contracts/src/BasePaymaster.sol\":1780:2142  function getGasAndDataLimits()... */\n    tag_128:\n        /* \"@opengsn/contracts/src/BasePaymaster.sol\":1878:1919  IPaymaster.GasAndDataLimits memory limits */\n      tag_233\n      tag_234\n      jump\t// in\n    tag_233:\n        /* \"@opengsn/contracts/src/BasePaymaster.sol\":1943:2135  IPaymaster.GasAndDataLimits(... */\n      mload(0x40)\n      dup1\n      0x80\n      add\n      0x40\n      mstore\n      dup1\n        /* \"@opengsn/contracts/src/BasePaymaster.sol\":1051:1056  50000 */\n      0xc350\n        /* \"@opengsn/contracts/src/BasePaymaster.sol\":1185:1191  100000 */\n      0x0186a0\n        /* \"@opengsn/contracts/src/BasePaymaster.sol\":1317:1368  PRE_RELAYED_CALL_GAS_LIMIT + FORWARDER_HUB_OVERHEAD */\n      tag_236\n      swap2\n      swap1\n      tag_212\n      jump\t// in\n    tag_236:\n        /* \"@opengsn/contracts/src/BasePaymaster.sol\":1943:2135  IPaymaster.GasAndDataLimits(... */\n      dup2\n      mstore\n      0x20\n      add\n        /* \"@opengsn/contracts/src/BasePaymaster.sol\":1185:1191  100000 */\n      0x0186a0\n        /* \"@opengsn/contracts/src/BasePaymaster.sol\":1943:2135  IPaymaster.GasAndDataLimits(... */\n      dup2\n      mstore\n      0x20\n      add\n        /* \"@opengsn/contracts/src/BasePaymaster.sol\":1251:1257  110000 */\n      0x01adb0\n        /* \"@opengsn/contracts/src/BasePaymaster.sol\":1943:2135  IPaymaster.GasAndDataLimits(... */\n      dup2\n      mstore\n      0x20\n      add\n        /* \"@opengsn/contracts/src/BasePaymaster.sol\":1420:1425  10500 */\n      0x2904\n        /* \"@opengsn/contracts/src/BasePaymaster.sol\":1943:2135  IPaymaster.GasAndDataLimits(... */\n      dup2\n      mstore\n      pop\n        /* \"@opengsn/contracts/src/BasePaymaster.sol\":1936:2135  return IPaymaster.GasAndDataLimits(... */\n      swap1\n      pop\n        /* \"@opengsn/contracts/src/BasePaymaster.sol\":1780:2142  function getGasAndDataLimits()... */\n      swap1\n      jump\t// out\n        /* \"@opengsn/contracts/src/BasePaymaster.sol\":1002:1056  uint256 constant public FORWARDER_HUB_OVERHEAD = 50000 */\n    tag_133:\n        /* \"@opengsn/contracts/src/BasePaymaster.sol\":1051:1056  50000 */\n      0xc350\n        /* \"@opengsn/contracts/src/BasePaymaster.sol\":1002:1056  uint256 constant public FORWARDER_HUB_OVERHEAD = 50000 */\n      dup2\n      jump\t// out\n        /* \"@opengsn/contracts/src/BasePaymaster.sol\":1197:1257  uint256 constant public POST_RELAYED_CALL_GAS_LIMIT = 110000 */\n    tag_137:\n        /* \"@opengsn/contracts/src/BasePaymaster.sol\":1251:1257  110000 */\n      0x01adb0\n        /* \"@opengsn/contracts/src/BasePaymaster.sol\":1197:1257  uint256 constant public POST_RELAYED_CALL_GAS_LIMIT = 110000 */\n      dup2\n      jump\t// out\n        /* \"@opengsn/contracts/src/BasePaymaster.sol\":4233:4351  function getTrustedForwarder() public virtual view override returns (address){... */\n    tag_141:\n        /* \"@opengsn/contracts/src/BasePaymaster.sol\":4302:4309  address */\n      0x00\n        /* \"@opengsn/contracts/src/BasePaymaster.sol\":4327:4344  _trustedForwarder */\n      0x02\n      0x00\n      swap1\n      sload\n      swap1\n      0x0100\n      exp\n      swap1\n      div\n      0xffffffffffffffffffffffffffffffffffffffff\n      and\n        /* \"@opengsn/contracts/src/BasePaymaster.sol\":4320:4344  return _trustedForwarder */\n      swap1\n      pop\n        /* \"@opengsn/contracts/src/BasePaymaster.sol\":4233:4351  function getTrustedForwarder() public virtual view override returns (address){... */\n      swap1\n      jump\t// out\n        /* \"@opengsn/contracts/src/BasePaymaster.sol\":3996:4227  function setTrustedForwarder(address forwarder) public virtual onlyOwner {... */\n    tag_146:\n        /* \"@openzeppelin/contracts/access/Ownable.sol\":1094:1107  _checkOwner() */\n      tag_239\n        /* \"@openzeppelin/contracts/access/Ownable.sol\":1094:1105  _checkOwner */\n      tag_174\n        /* \"@openzeppelin/contracts/access/Ownable.sol\":1094:1107  _checkOwner() */\n      jump\t// in\n    tag_239:\n        /* \"@opengsn/contracts/src/BasePaymaster.sol\":4087:4144  forwarder.supportsInterface(type(IForwarder).interfaceId) */\n      tag_241\n        /* \"@opengsn/contracts/src/BasePaymaster.sol\":4115:4143  type(IForwarder).interfaceId */\n      0x25e23e6400000000000000000000000000000000000000000000000000000000\n        /* \"@opengsn/contracts/src/BasePaymaster.sol\":4087:4096  forwarder */\n      dup3\n        /* \"@opengsn/contracts/src/BasePaymaster.sol\":4087:4114  forwarder.supportsInterface */\n      0xffffffffffffffffffffffffffffffffffffffff\n      and\n      tag_226\n      swap1\n        /* \"@opengsn/contracts/src/BasePaymaster.sol\":4087:4144  forwarder.supportsInterface(type(IForwarder).interfaceId) */\n      swap2\n      swap1\n      0xffffffff\n      and\n      jump\t// in\n    tag_241:\n        /* \"@opengsn/contracts/src/BasePaymaster.sol\":4079:4181  require(forwarder.supportsInterface(type(IForwarder).interfaceId), \"target is not a valid IForwarder\") */\n      tag_242\n      jumpi\n      mload(0x40)\n      0x08c379a000000000000000000000000000000000000000000000000000000000\n      dup2\n      mstore\n      0x04\n      add\n      tag_243\n      swap1\n      tag_244\n      jump\t// in\n    tag_243:\n      mload(0x40)\n      dup1\n      swap2\n      sub\n      swap1\n      revert\n    tag_242:\n        /* \"@opengsn/contracts/src/BasePaymaster.sol\":4211:4220  forwarder */\n      dup1\n        /* \"@opengsn/contracts/src/BasePaymaster.sol\":4191:4208  _trustedForwarder */\n      0x02\n      0x00\n        /* \"@opengsn/contracts/src/BasePaymaster.sol\":4191:4220  _trustedForwarder = forwarder */\n      0x0100\n      exp\n      dup2\n      sload\n      dup2\n      0xffffffffffffffffffffffffffffffffffffffff\n      mul\n      not\n      and\n      swap1\n      dup4\n      0xffffffffffffffffffffffffffffffffffffffff\n      and\n      mul\n      or\n      swap1\n      sstore\n      pop\n        /* \"@opengsn/contracts/src/BasePaymaster.sol\":3996:4227  function setTrustedForwarder(address forwarder) public virtual onlyOwner {... */\n      pop\n      jump\t// out\n        /* \"@opengsn/contracts/src/BasePaymaster.sol\":1263:1368  uint256 constant public PAYMASTER_ACCEPTANCE_BUDGET = PRE_RELAYED_CALL_GAS_LIMIT + FORWARDER_HUB_OVERHEAD */\n    tag_149:\n        /* \"@opengsn/contracts/src/BasePaymaster.sol\":1051:1056  50000 */\n      0xc350\n        /* \"@opengsn/contracts/src/BasePaymaster.sol\":1185:1191  100000 */\n      0x0186a0\n        /* \"@opengsn/contracts/src/BasePaymaster.sol\":1317:1368  PRE_RELAYED_CALL_GAS_LIMIT + FORWARDER_HUB_OVERHEAD */\n      tag_245\n      swap2\n      swap1\n      tag_212\n      jump\t// in\n    tag_245:\n        /* \"@opengsn/contracts/src/BasePaymaster.sol\":1263:1368  uint256 constant public PAYMASTER_ACCEPTANCE_BUDGET = PRE_RELAYED_CALL_GAS_LIMIT + FORWARDER_HUB_OVERHEAD */\n      dup2\n      jump\t// out\n        /* \"@openzeppelin/contracts/access/Ownable.sol\":2074:2272  function transferOwnership(address newOwner) public virtual onlyOwner {... */\n    tag_154:\n        /* \"@openzeppelin/contracts/access/Ownable.sol\":1094:1107  _checkOwner() */\n      tag_247\n        /* \"@openzeppelin/contracts/access/Ownable.sol\":1094:1105  _checkOwner */\n      tag_174\n        /* \"@openzeppelin/contracts/access/Ownable.sol\":1094:1107  _checkOwner() */\n      jump\t// in\n    tag_247:\n        /* \"@openzeppelin/contracts/access/Ownable.sol\":2182:2183  0 */\n      0x00\n        /* \"@openzeppelin/contracts/access/Ownable.sol\":2162:2184  newOwner != address(0) */\n      0xffffffffffffffffffffffffffffffffffffffff\n      and\n        /* \"@openzeppelin/contracts/access/Ownable.sol\":2162:2170  newOwner */\n      dup2\n        /* \"@openzeppelin/contracts/access/Ownable.sol\":2162:2184  newOwner != address(0) */\n      0xffffffffffffffffffffffffffffffffffffffff\n      and\n      eq\n      iszero\n        /* \"@openzeppelin/contracts/access/Ownable.sol\":2154:2227  require(newOwner != address(0), \"Ownable: new owner is the zero address\") */\n      tag_249\n      jumpi\n      mload(0x40)\n      0x08c379a000000000000000000000000000000000000000000000000000000000\n      dup2\n      mstore\n      0x04\n      add\n      tag_250\n      swap1\n      tag_251\n      jump\t// in\n    tag_250:\n      mload(0x40)\n      dup1\n      swap2\n      sub\n      swap1\n      revert\n    tag_249:\n        /* \"@openzeppelin/contracts/access/Ownable.sol\":2237:2265  _transferOwnership(newOwner) */\n      tag_252\n        /* \"@openzeppelin/contracts/access/Ownable.sol\":2256:2264  newOwner */\n      dup2\n        /* \"@openzeppelin/contracts/access/Ownable.sol\":2237:2255  _transferOwnership */\n      tag_217\n        /* \"@openzeppelin/contracts/access/Ownable.sol\":2237:2265  _transferOwnership(newOwner) */\n      jump\t// in\n    tag_252:\n        /* \"@openzeppelin/contracts/access/Ownable.sol\":2074:2272  function transferOwnership(address newOwner) public virtual onlyOwner {... */\n      pop\n      jump\t// out\n        /* \"@opengsn/contracts/src/BasePaymaster.sol\":1132:1191  uint256 constant public PRE_RELAYED_CALL_GAS_LIMIT = 100000 */\n    tag_157:\n        /* \"@opengsn/contracts/src/BasePaymaster.sol\":1185:1191  100000 */\n      0x0186a0\n        /* \"@opengsn/contracts/src/BasePaymaster.sol\":1132:1191  uint256 constant public PRE_RELAYED_CALL_GAS_LIMIT = 100000 */\n      dup2\n      jump\t// out\n        /* \"@opengsn/contracts/src/BasePaymaster.sol\":2620:2760  function _verifyRelayHubOnly() internal virtual view {... */\n    tag_161:\n        /* \"@opengsn/contracts/src/BasePaymaster.sol\":2705:2718  getRelayHub() */\n      tag_254\n        /* \"@opengsn/contracts/src/BasePaymaster.sol\":2705:2716  getRelayHub */\n      tag_110\n        /* \"@opengsn/contracts/src/BasePaymaster.sol\":2705:2718  getRelayHub() */\n      jump\t// in\n    tag_254:\n        /* \"@opengsn/contracts/src/BasePaymaster.sol\":2691:2718  msg.sender == getRelayHub() */\n      0xffffffffffffffffffffffffffffffffffffffff\n      and\n        /* \"@opengsn/contracts/src/BasePaymaster.sol\":2691:2701  msg.sender */\n      caller\n        /* \"@opengsn/contracts/src/BasePaymaster.sol\":2691:2718  msg.sender == getRelayHub() */\n      0xffffffffffffffffffffffffffffffffffffffff\n      and\n      eq\n        /* \"@opengsn/contracts/src/BasePaymaster.sol\":2683:2753  require(msg.sender == getRelayHub(), \"can only be called by RelayHub\") */\n      tag_255\n      jumpi\n      mload(0x40)\n      0x08c379a000000000000000000000000000000000000000000000000000000000\n      dup2\n      mstore\n      0x04\n      add\n      tag_256\n      swap1\n      tag_257\n      jump\t// in\n    tag_256:\n      mload(0x40)\n      dup1\n      swap2\n      sub\n      swap1\n      revert\n    tag_255:\n        /* \"@opengsn/contracts/src/BasePaymaster.sol\":2620:2760  function _verifyRelayHubOnly() internal virtual view {... */\n      jump\t// out\n        /* \"@opengsn/contracts/src/BasePaymaster.sol\":2331:2614  function _verifyForwarder(GsnTypes.RelayRequest calldata relayRequest)... */\n    tag_163:\n        /* \"@opengsn/contracts/src/BasePaymaster.sol\":2483:2495  relayRequest */\n      dup1\n        /* \"@opengsn/contracts/src/BasePaymaster.sol\":2483:2505  relayRequest.relayData */\n      dup1\n      0x20\n      add\n      swap1\n      tag_259\n      swap2\n      swap1\n      tag_260\n      jump\t// in\n    tag_259:\n        /* \"@opengsn/contracts/src/BasePaymaster.sol\":2483:2515  relayRequest.relayData.forwarder */\n      0xa0\n      add\n      0x20\n      dup2\n      add\n      swap1\n      tag_261\n      swap2\n      swap1\n      tag_79\n      jump\t// in\n    tag_261:\n        /* \"@opengsn/contracts/src/BasePaymaster.sol\":2458:2515  getTrustedForwarder() == relayRequest.relayData.forwarder */\n      0xffffffffffffffffffffffffffffffffffffffff\n      and\n        /* \"@opengsn/contracts/src/BasePaymaster.sol\":2458:2479  getTrustedForwarder() */\n      tag_262\n        /* \"@opengsn/contracts/src/BasePaymaster.sol\":2458:2477  getTrustedForwarder */\n      tag_141\n        /* \"@opengsn/contracts/src/BasePaymaster.sol\":2458:2479  getTrustedForwarder() */\n      jump\t// in\n    tag_262:\n        /* \"@opengsn/contracts/src/BasePaymaster.sol\":2458:2515  getTrustedForwarder() == relayRequest.relayData.forwarder */\n      0xffffffffffffffffffffffffffffffffffffffff\n      and\n      eq\n        /* \"@opengsn/contracts/src/BasePaymaster.sol\":2450:2544  require(getTrustedForwarder() == relayRequest.relayData.forwarder, \"Forwarder is not trusted\") */\n      tag_263\n      jumpi\n      mload(0x40)\n      0x08c379a000000000000000000000000000000000000000000000000000000000\n      dup2\n      mstore\n      0x04\n      add\n      tag_264\n      swap1\n      tag_265\n      jump\t// in\n    tag_264:\n      mload(0x40)\n      dup1\n      swap2\n      sub\n      swap1\n      revert\n    tag_263:\n        /* \"@opengsn/contracts/src/BasePaymaster.sol\":2554:2607  GsnEip712Library.verifyForwarderTrusted(relayRequest) */\n      tag_266\n        /* \"@opengsn/contracts/src/BasePaymaster.sol\":2594:2606  relayRequest */\n      dup2\n        /* \"@opengsn/contracts/src/BasePaymaster.sol\":2554:2593  GsnEip712Library.verifyForwarderTrusted */\n      tag_267\n        /* \"@opengsn/contracts/src/BasePaymaster.sol\":2554:2607  GsnEip712Library.verifyForwarderTrusted(relayRequest) */\n      jump\t// in\n    tag_266:\n        /* \"@opengsn/contracts/src/BasePaymaster.sol\":2331:2614  function _verifyForwarder(GsnTypes.RelayRequest calldata relayRequest)... */\n      pop\n      jump\t// out\n        /* \"@opengsn/contracts/src/BasePaymaster.sol\":2766:2943  function _verifyValue(GsnTypes.RelayRequest calldata relayRequest) internal virtual view{... */\n    tag_165:\n        /* \"@opengsn/contracts/src/BasePaymaster.sol\":2902:2903  0 */\n      0x00\n        /* \"@opengsn/contracts/src/BasePaymaster.sol\":2872:2884  relayRequest */\n      dup2\n        /* \"@opengsn/contracts/src/BasePaymaster.sol\":2872:2892  relayRequest.request */\n      dup1\n      0x00\n      add\n      swap1\n      tag_269\n      swap2\n      swap1\n      tag_270\n      jump\t// in\n    tag_269:\n        /* \"@opengsn/contracts/src/BasePaymaster.sol\":2872:2898  relayRequest.request.value */\n      0x40\n      add\n      calldataload\n        /* \"@opengsn/contracts/src/BasePaymaster.sol\":2872:2903  relayRequest.request.value == 0 */\n      eq\n        /* \"@opengsn/contracts/src/BasePaymaster.sol\":2864:2936  require(relayRequest.request.value == 0, \"value transfer not supported\") */\n      tag_271\n      jumpi\n      mload(0x40)\n      0x08c379a000000000000000000000000000000000000000000000000000000000\n      dup2\n      mstore\n      0x04\n      add\n      tag_272\n      swap1\n      tag_273\n      jump\t// in\n    tag_272:\n      mload(0x40)\n      dup1\n      swap2\n      sub\n      swap1\n      revert\n    tag_271:\n        /* \"@opengsn/contracts/src/BasePaymaster.sol\":2766:2943  function _verifyValue(GsnTypes.RelayRequest calldata relayRequest) internal virtual view{... */\n      pop\n      jump\t// out\n        /* \"@opengsn/contracts/src/BasePaymaster.sol\":2949:3152  function _verifyPaymasterData(GsnTypes.RelayRequest calldata relayRequest) internal virtual view {... */\n    tag_167:\n        /* \"@opengsn/contracts/src/BasePaymaster.sol\":3111:3112  0 */\n      0x00\n        /* \"@opengsn/contracts/src/BasePaymaster.sol\":3064:3076  relayRequest */\n      dup2\n        /* \"@opengsn/contracts/src/BasePaymaster.sol\":3064:3086  relayRequest.relayData */\n      dup1\n      0x20\n      add\n      swap1\n      tag_275\n      swap2\n      swap1\n      tag_260\n      jump\t// in\n    tag_275:\n        /* \"@opengsn/contracts/src/BasePaymaster.sol\":3064:3100  relayRequest.relayData.paymasterData */\n      dup1\n      0xc0\n      add\n      swap1\n      tag_276\n      swap2\n      swap1\n      tag_277\n      jump\t// in\n    tag_276:\n        /* \"@opengsn/contracts/src/BasePaymaster.sol\":3064:3107  relayRequest.relayData.paymasterData.length */\n      swap1\n      pop\n        /* \"@opengsn/contracts/src/BasePaymaster.sol\":3064:3112  relayRequest.relayData.paymasterData.length == 0 */\n      eq\n        /* \"@opengsn/contracts/src/BasePaymaster.sol\":3056:3145  require(relayRequest.relayData.paymasterData.length == 0, \"should have no paymasterData\") */\n      tag_278\n      jumpi\n      mload(0x40)\n      0x08c379a000000000000000000000000000000000000000000000000000000000\n      dup2\n      mstore\n      0x04\n      add\n      tag_279\n      swap1\n      tag_280\n      jump\t// in\n    tag_279:\n      mload(0x40)\n      dup1\n      swap2\n      sub\n      swap1\n      revert\n    tag_278:\n        /* \"@opengsn/contracts/src/BasePaymaster.sol\":2949:3152  function _verifyPaymasterData(GsnTypes.RelayRequest calldata relayRequest) internal virtual view {... */\n      pop\n      jump\t// out\n        /* \"@opengsn/contracts/src/BasePaymaster.sol\":3158:3318  function _verifyApprovalData(bytes calldata approvalData) internal virtual view{... */\n    tag_169:\n        /* \"@opengsn/contracts/src/BasePaymaster.sol\":3278:3279  0 */\n      0x00\n        /* \"@opengsn/contracts/src/BasePaymaster.sol\":3255:3267  approvalData */\n      dup3\n      dup3\n        /* \"@opengsn/contracts/src/BasePaymaster.sol\":3255:3274  approvalData.length */\n      swap1\n      pop\n        /* \"@opengsn/contracts/src/BasePaymaster.sol\":3255:3279  approvalData.length == 0 */\n      eq\n        /* \"@opengsn/contracts/src/BasePaymaster.sol\":3247:3311  require(approvalData.length == 0, \"should have no approvalData\") */\n      tag_282\n      jumpi\n      mload(0x40)\n      0x08c379a000000000000000000000000000000000000000000000000000000000\n      dup2\n      mstore\n      0x04\n      add\n      tag_283\n      swap1\n      tag_284\n      jump\t// in\n    tag_283:\n      mload(0x40)\n      dup1\n      swap2\n      sub\n      swap1\n      revert\n    tag_282:\n        /* \"@opengsn/contracts/src/BasePaymaster.sol\":3158:3318  function _verifyApprovalData(bytes calldata approvalData) internal virtual view{... */\n      pop\n      pop\n      jump\t// out\n        /* \"testSinglePaymaster.sol\":807:1581  function _preRelayedCall(\r... */\n    tag_171:\n        /* \"testSinglePaymaster.sol\":1054:1074  bytes memory context */\n      0x60\n        /* \"testSinglePaymaster.sol\":1076:1104  bool revertOnRecipientRevert */\n      0x00\n        /* \"testSinglePaymaster.sol\":1191:1206  targetWhitelist */\n      0x03\n        /* \"testSinglePaymaster.sol\":1191:1231  targetWhitelist[relayRequest.request.to] */\n      0x00\n        /* \"testSinglePaymaster.sol\":1207:1219  relayRequest */\n      dup10\n        /* \"testSinglePaymaster.sol\":1207:1227  relayRequest.request */\n      dup1\n      0x00\n      add\n      swap1\n      tag_286\n      swap2\n      swap1\n      tag_270\n      jump\t// in\n    tag_286:\n        /* \"testSinglePaymaster.sol\":1207:1230  relayRequest.request.to */\n      0x20\n      add\n      0x20\n      dup2\n      add\n      swap1\n      tag_287\n      swap2\n      swap1\n      tag_79\n      jump\t// in\n    tag_287:\n        /* \"testSinglePaymaster.sol\":1191:1231  targetWhitelist[relayRequest.request.to] */\n      0xffffffffffffffffffffffffffffffffffffffff\n      and\n      0xffffffffffffffffffffffffffffffffffffffff\n      and\n      dup2\n      mstore\n      0x20\n      add\n      swap1\n      dup2\n      mstore\n      0x20\n      add\n      0x00\n      keccak256\n      0x00\n      swap1\n      sload\n      swap1\n      0x0100\n      exp\n      swap1\n      div\n      0xff\n      and\n        /* \"testSinglePaymaster.sol\":1183:1248  require(targetWhitelist[relayRequest.request.to], \"wrong target\") */\n      tag_288\n      jumpi\n      mload(0x40)\n      0x08c379a000000000000000000000000000000000000000000000000000000000\n      dup2\n      mstore\n      0x04\n      add\n      tag_289\n      swap1\n      tag_290\n      jump\t// in\n    tag_289:\n      mload(0x40)\n      dup1\n      swap2\n      sub\n      swap1\n      revert\n    tag_288:\n        /* \"testSinglePaymaster.sol\":1259:1270  uint256 gas */\n      0x00\n        /* \"testSinglePaymaster.sol\":1273:1282  gasleft() */\n      gas\n        /* \"testSinglePaymaster.sol\":1259:1282  uint256 gas = gasleft() */\n      swap1\n      pop\n        /* \"testSinglePaymaster.sol\":1300:1312  relayRequest */\n      dup9\n        /* \"testSinglePaymaster.sol\":1300:1320  relayRequest.request */\n      dup1\n      0x00\n      add\n      swap1\n      tag_291\n      swap2\n      swap1\n      tag_270\n      jump\t// in\n    tag_291:\n        /* \"testSinglePaymaster.sol\":1300:1325  relayRequest.request.from */\n      0x00\n      add\n      0x20\n      dup2\n      add\n      swap1\n      tag_292\n      swap2\n      swap1\n      tag_79\n      jump\t// in\n    tag_292:\n        /* \"testSinglePaymaster.sol\":1293:1297  from */\n      0x06\n      0x00\n        /* \"testSinglePaymaster.sol\":1293:1325  from = relayRequest.request.from */\n      0x0100\n      exp\n      dup2\n      sload\n      dup2\n      0xffffffffffffffffffffffffffffffffffffffff\n      mul\n      not\n      and\n      swap1\n      dup4\n      0xffffffffffffffffffffffffffffffffffffffff\n      and\n      mul\n      or\n      swap1\n      sstore\n      pop\n        /* \"testSinglePaymaster.sol\":1367:1368  0 */\n      0x00\n        /* \"testSinglePaymaster.sol\":1340:1348  userInfo */\n      0x05\n        /* \"testSinglePaymaster.sol\":1340:1354  userInfo[from] */\n      0x00\n        /* \"testSinglePaymaster.sol\":1349:1353  from */\n      0x06\n      0x00\n      swap1\n      sload\n      swap1\n      0x0100\n      exp\n      swap1\n      div\n      0xffffffffffffffffffffffffffffffffffffffff\n      and\n        /* \"testSinglePaymaster.sol\":1340:1354  userInfo[from] */\n      0xffffffffffffffffffffffffffffffffffffffff\n      and\n      0xffffffffffffffffffffffffffffffffffffffff\n      and\n      dup2\n      mstore\n      0x20\n      add\n      swap1\n      dup2\n      mstore\n      0x20\n      add\n      0x00\n      keccak256\n        /* \"testSinglePaymaster.sol\":1340:1363  userInfo[from].GasLimit */\n      0x00\n      add\n      sload\n        /* \"testSinglePaymaster.sol\":1340:1368  userInfo[from].GasLimit == 0 */\n      eq\n        /* \"testSinglePaymaster.sol\":1336:1435  if (userInfo[from].GasLimit == 0) {\r... */\n      iszero\n      tag_293\n      jumpi\n        /* \"testSinglePaymaster.sol\":1411:1423  initialLimit */\n      sload(0x04)\n        /* \"testSinglePaymaster.sol\":1385:1393  userInfo */\n      0x05\n        /* \"testSinglePaymaster.sol\":1385:1399  userInfo[from] */\n      0x00\n        /* \"testSinglePaymaster.sol\":1394:1398  from */\n      0x06\n      0x00\n      swap1\n      sload\n      swap1\n      0x0100\n      exp\n      swap1\n      div\n      0xffffffffffffffffffffffffffffffffffffffff\n      and\n        /* \"testSinglePaymaster.sol\":1385:1399  userInfo[from] */\n      0xffffffffffffffffffffffffffffffffffffffff\n      and\n      0xffffffffffffffffffffffffffffffffffffffff\n      and\n      dup2\n      mstore\n      0x20\n      add\n      swap1\n      dup2\n      mstore\n      0x20\n      add\n      0x00\n      keccak256\n        /* \"testSinglePaymaster.sol\":1385:1408  userInfo[from].GasLimit */\n      0x00\n      add\n        /* \"testSinglePaymaster.sol\":1385:1423  userInfo[from].GasLimit = initialLimit */\n      dup2\n      swap1\n      sstore\n      pop\n        /* \"testSinglePaymaster.sol\":1336:1435  if (userInfo[from].GasLimit == 0) {\r... */\n    tag_293:\n        /* \"testSinglePaymaster.sol\":1503:1511  userInfo */\n      0x05\n        /* \"testSinglePaymaster.sol\":1503:1517  userInfo[from] */\n      0x00\n        /* \"testSinglePaymaster.sol\":1512:1516  from */\n      0x06\n      0x00\n      swap1\n      sload\n      swap1\n      0x0100\n      exp\n      swap1\n      div\n      0xffffffffffffffffffffffffffffffffffffffff\n      and\n        /* \"testSinglePaymaster.sol\":1503:1517  userInfo[from] */\n      0xffffffffffffffffffffffffffffffffffffffff\n      and\n      0xffffffffffffffffffffffffffffffffffffffff\n      and\n      dup2\n      mstore\n      0x20\n      add\n      swap1\n      dup2\n      mstore\n      0x20\n      add\n      0x00\n      keccak256\n        /* \"testSinglePaymaster.sol\":1503:1526  userInfo[from].GasLimit */\n      0x00\n      add\n      sload\n        /* \"testSinglePaymaster.sol\":1490:1501  tx.gasprice */\n      gasprice\n        /* \"testSinglePaymaster.sol\":1480:1489  gasleft() */\n      gas\n        /* \"testSinglePaymaster.sol\":1480:1501  gasleft()*tx.gasprice */\n      tag_294\n      swap2\n      swap1\n      tag_295\n      jump\t// in\n    tag_294:\n        /* \"testSinglePaymaster.sol\":1453:1461  userInfo */\n      0x05\n        /* \"testSinglePaymaster.sol\":1453:1467  userInfo[from] */\n      0x00\n        /* \"testSinglePaymaster.sol\":1462:1466  from */\n      0x06\n      0x00\n      swap1\n      sload\n      swap1\n      0x0100\n      exp\n      swap1\n      div\n      0xffffffffffffffffffffffffffffffffffffffff\n      and\n        /* \"testSinglePaymaster.sol\":1453:1467  userInfo[from] */\n      0xffffffffffffffffffffffffffffffffffffffff\n      and\n      0xffffffffffffffffffffffffffffffffffffffff\n      and\n      dup2\n      mstore\n      0x20\n      add\n      swap1\n      dup2\n      mstore\n      0x20\n      add\n      0x00\n      keccak256\n        /* \"testSinglePaymaster.sol\":1453:1478  userInfo[from].usedAmount */\n      0x01\n      add\n      sload\n        /* \"testSinglePaymaster.sol\":1453:1502  userInfo[from].usedAmount+(gasleft()*tx.gasprice) */\n      tag_296\n      swap2\n      swap1\n      tag_212\n      jump\t// in\n    tag_296:\n        /* \"testSinglePaymaster.sol\":1453:1526  userInfo[from].usedAmount+(gasleft()*tx.gasprice)<userInfo[from].GasLimit */\n      lt\n        /* \"testSinglePaymaster.sol\":1445:1544  require(userInfo[from].usedAmount+(gasleft()*tx.gasprice)<userInfo[from].GasLimit,\"over the limit\") */\n      tag_297\n      jumpi\n      mload(0x40)\n      0x08c379a000000000000000000000000000000000000000000000000000000000\n      dup2\n      mstore\n      0x04\n      add\n      tag_298\n      swap1\n      tag_299\n      jump\t// in\n    tag_298:\n      mload(0x40)\n      dup1\n      swap2\n      sub\n      swap1\n      revert\n    tag_297:\n        /* \"testSinglePaymaster.sol\":1567:1572  false */\n      0x00\n        /* \"testSinglePaymaster.sol\":1555:1573  return (\"\", false) */\n      mload(0x40)\n      dup1\n      0x20\n      add\n      0x40\n      mstore\n      dup1\n      0x00\n      dup2\n      mstore\n      pop\n      swap1\n      swap3\n      pop\n      swap3\n      pop\n      pop\n        /* \"testSinglePaymaster.sol\":807:1581  function _preRelayedCall(\r... */\n      swap7\n      pop\n      swap7\n      swap5\n      pop\n      pop\n      pop\n      pop\n      pop\n      jump\t// out\n        /* \"@openzeppelin/contracts/access/Ownable.sol\":1359:1489  function _checkOwner() internal view virtual {... */\n    tag_174:\n        /* \"@openzeppelin/contracts/access/Ownable.sol\":1433:1445  _msgSender() */\n      tag_301\n        /* \"@openzeppelin/contracts/access/Ownable.sol\":1433:1443  _msgSender */\n      tag_302\n        /* \"@openzeppelin/contracts/access/Ownable.sol\":1433:1445  _msgSender() */\n      jump\t// in\n    tag_301:\n        /* \"@openzeppelin/contracts/access/Ownable.sol\":1422:1445  owner() == _msgSender() */\n      0xffffffffffffffffffffffffffffffffffffffff\n      and\n        /* \"@openzeppelin/contracts/access/Ownable.sol\":1422:1429  owner() */\n      tag_303\n        /* \"@openzeppelin/contracts/access/Ownable.sol\":1422:1427  owner */\n      tag_119\n        /* \"@openzeppelin/contracts/access/Ownable.sol\":1422:1429  owner() */\n      jump\t// in\n    tag_303:\n        /* \"@openzeppelin/contracts/access/Ownable.sol\":1422:1445  owner() == _msgSender() */\n      0xffffffffffffffffffffffffffffffffffffffff\n      and\n      eq\n        /* \"@openzeppelin/contracts/access/Ownable.sol\":1414:1482  require(owner() == _msgSender(), \"Ownable: caller is not the owner\") */\n      tag_304\n      jumpi\n      mload(0x40)\n      0x08c379a000000000000000000000000000000000000000000000000000000000\n      dup2\n      mstore\n      0x04\n      add\n      tag_305\n      swap1\n      tag_306\n      jump\t// in\n    tag_305:\n      mload(0x40)\n      dup1\n      swap2\n      sub\n      swap1\n      revert\n    tag_304:\n        /* \"@openzeppelin/contracts/access/Ownable.sol\":1359:1489  function _checkOwner() internal view virtual {... */\n      jump\t// out\n        /* \"@openzeppelin/contracts/utils/introspection/ERC165.sol\":829:984  function supportsInterface(bytes4 interfaceId) public view virtual override returns (bool) {... */\n    tag_185:\n        /* \"@openzeppelin/contracts/utils/introspection/ERC165.sol\":914:918  bool */\n      0x00\n        /* \"@openzeppelin/contracts/utils/introspection/ERC165.sol\":952:977  type(IERC165).interfaceId */\n      0x01ffc9a700000000000000000000000000000000000000000000000000000000\n        /* \"@openzeppelin/contracts/utils/introspection/ERC165.sol\":937:977  interfaceId == type(IERC165).interfaceId */\n      not(0xffffffffffffffffffffffffffffffffffffffffffffffffffffffff)\n      and\n        /* \"@openzeppelin/contracts/utils/introspection/ERC165.sol\":937:948  interfaceId */\n      dup3\n        /* \"@openzeppelin/contracts/utils/introspection/ERC165.sol\":937:977  interfaceId == type(IERC165).interfaceId */\n      not(0xffffffffffffffffffffffffffffffffffffffffffffffffffffffff)\n      and\n      eq\n        /* \"@openzeppelin/contracts/utils/introspection/ERC165.sol\":930:977  return interfaceId == type(IERC165).interfaceId */\n      swap1\n      pop\n        /* \"@openzeppelin/contracts/utils/introspection/ERC165.sol\":829:984  function supportsInterface(bytes4 interfaceId) public view virtual override returns (bool) {... */\n      swap2\n      swap1\n      pop\n      jump\t// out\n        /* \"@openzeppelin/contracts/access/Ownable.sol\":2426:2613  function _transferOwnership(address newOwner) internal virtual {... */\n    tag_217:\n        /* \"@openzeppelin/contracts/access/Ownable.sol\":2499:2515  address oldOwner */\n      0x00\n        /* \"@openzeppelin/contracts/access/Ownable.sol\":2518:2524  _owner */\n      dup1\n      0x00\n      swap1\n      sload\n      swap1\n      0x0100\n      exp\n      swap1\n      div\n      0xffffffffffffffffffffffffffffffffffffffff\n      and\n        /* \"@openzeppelin/contracts/access/Ownable.sol\":2499:2524  address oldOwner = _owner */\n      swap1\n      pop\n        /* \"@openzeppelin/contracts/access/Ownable.sol\":2543:2551  newOwner */\n      dup2\n        /* \"@openzeppelin/contracts/access/Ownable.sol\":2534:2540  _owner */\n      0x00\n      dup1\n        /* \"@openzeppelin/contracts/access/Ownable.sol\":2534:2551  _owner = newOwner */\n      0x0100\n      exp\n      dup2\n      sload\n      dup2\n      0xffffffffffffffffffffffffffffffffffffffff\n      mul\n      not\n      and\n      swap1\n      dup4\n      0xffffffffffffffffffffffffffffffffffffffff\n      and\n      mul\n      or\n      swap1\n      sstore\n      pop\n        /* \"@openzeppelin/contracts/access/Ownable.sol\":2597:2605  newOwner */\n      dup2\n        /* \"@openzeppelin/contracts/access/Ownable.sol\":2566:2606  OwnershipTransferred(oldOwner, newOwner) */\n      0xffffffffffffffffffffffffffffffffffffffff\n      and\n        /* \"@openzeppelin/contracts/access/Ownable.sol\":2587:2595  oldOwner */\n      dup2\n        /* \"@openzeppelin/contracts/access/Ownable.sol\":2566:2606  OwnershipTransferred(oldOwner, newOwner) */\n      0xffffffffffffffffffffffffffffffffffffffff\n      and\n      0x8be0079c531659141344cd1fd0a4f28419497f9722a3daafe3b4186f6b6457e0\n      mload(0x40)\n      mload(0x40)\n      dup1\n      swap2\n      sub\n      swap1\n      log3\n        /* \"@openzeppelin/contracts/access/Ownable.sol\":2489:2613  {... */\n      pop\n        /* \"@openzeppelin/contracts/access/Ownable.sol\":2426:2613  function _transferOwnership(address newOwner) internal virtual {... */\n      pop\n      jump\t// out\n        /* \"testSinglePaymaster.sol\":1589:1952  function _postRelayedCall(\r... */\n    tag_221:\n        /* \"testSinglePaymaster.sol\":1932:1943  tx.gasprice */\n      gasprice\n        /* \"testSinglePaymaster.sol\":1920:1929  gasleft() */\n      gas\n        /* \"testSinglePaymaster.sol\":1902:1919  gasUseWithoutPost */\n      dup4\n        /* \"testSinglePaymaster.sol\":1902:1929  gasUseWithoutPost+gasleft() */\n      tag_310\n      swap2\n      swap1\n      tag_212\n      jump\t// in\n    tag_310:\n        /* \"testSinglePaymaster.sol\":1901:1944  (gasUseWithoutPost+gasleft())*(tx.gasprice) */\n      tag_311\n      swap2\n      swap1\n      tag_295\n      jump\t// in\n    tag_311:\n        /* \"testSinglePaymaster.sol\":1873:1881  userInfo */\n      0x05\n        /* \"testSinglePaymaster.sol\":1873:1887  userInfo[from] */\n      0x00\n        /* \"testSinglePaymaster.sol\":1882:1886  from */\n      0x06\n      0x00\n      swap1\n      sload\n      swap1\n      0x0100\n      exp\n      swap1\n      div\n      0xffffffffffffffffffffffffffffffffffffffff\n      and\n        /* \"testSinglePaymaster.sol\":1873:1887  userInfo[from] */\n      0xffffffffffffffffffffffffffffffffffffffff\n      and\n      0xffffffffffffffffffffffffffffffffffffffff\n      and\n      dup2\n      mstore\n      0x20\n      add\n      swap1\n      dup2\n      mstore\n      0x20\n      add\n      0x00\n      keccak256\n        /* \"testSinglePaymaster.sol\":1873:1898  userInfo[from].usedAmount */\n      0x01\n      add\n      0x00\n        /* \"testSinglePaymaster.sol\":1873:1944  userInfo[from].usedAmount+= (gasUseWithoutPost+gasleft())*(tx.gasprice) */\n      dup3\n      dup3\n      sload\n      tag_312\n      swap2\n      swap1\n      tag_212\n      jump\t// in\n    tag_312:\n      swap3\n      pop\n      pop\n      dup2\n      swap1\n      sstore\n      pop\n        /* \"testSinglePaymaster.sol\":1589:1952  function _postRelayedCall(\r... */\n      pop\n      pop\n      pop\n      pop\n      pop\n      jump\t// out\n        /* \"@openzeppelin/contracts/utils/introspection/ERC165Checker.sol\":1349:1631  function supportsInterface(address account, bytes4 interfaceId) internal view returns (bool) {... */\n    tag_226:\n        /* \"@openzeppelin/contracts/utils/introspection/ERC165Checker.sol\":1436:1440  bool */\n      0x00\n        /* \"@openzeppelin/contracts/utils/introspection/ERC165Checker.sol\":1543:1566  supportsERC165(account) */\n      tag_314\n        /* \"@openzeppelin/contracts/utils/introspection/ERC165Checker.sol\":1558:1565  account */\n      dup4\n        /* \"@openzeppelin/contracts/utils/introspection/ERC165Checker.sol\":1543:1557  supportsERC165 */\n      tag_315\n        /* \"@openzeppelin/contracts/utils/introspection/ERC165Checker.sol\":1543:1566  supportsERC165(account) */\n      jump\t// in\n    tag_314:\n        /* \"@openzeppelin/contracts/utils/introspection/ERC165Checker.sol\":1543:1624  supportsERC165(account) && supportsERC165InterfaceUnchecked(account, interfaceId) */\n      dup1\n      iszero\n      tag_316\n      jumpi\n      pop\n        /* \"@openzeppelin/contracts/utils/introspection/ERC165Checker.sol\":1570:1624  supportsERC165InterfaceUnchecked(account, interfaceId) */\n      tag_317\n        /* \"@openzeppelin/contracts/utils/introspection/ERC165Checker.sol\":1603:1610  account */\n      dup4\n        /* \"@openzeppelin/contracts/utils/introspection/ERC165Checker.sol\":1612:1623  interfaceId */\n      dup4\n        /* \"@openzeppelin/contracts/utils/introspection/ERC165Checker.sol\":1570:1602  supportsERC165InterfaceUnchecked */\n      tag_318\n        /* \"@openzeppelin/contracts/utils/introspection/ERC165Checker.sol\":1570:1624  supportsERC165InterfaceUnchecked(account, interfaceId) */\n      jump\t// in\n    tag_317:\n        /* \"@openzeppelin/contracts/utils/introspection/ERC165Checker.sol\":1543:1624  supportsERC165(account) && supportsERC165InterfaceUnchecked(account, interfaceId) */\n    tag_316:\n        /* \"@openzeppelin/contracts/utils/introspection/ERC165Checker.sol\":1536:1624  return supportsERC165(account) && supportsERC165InterfaceUnchecked(account, interfaceId) */\n      swap1\n      pop\n        /* \"@openzeppelin/contracts/utils/introspection/ERC165Checker.sol\":1349:1631  function supportsInterface(address account, bytes4 interfaceId) internal view returns (bool) {... */\n      swap3\n      swap2\n      pop\n      pop\n      jump\t// out\n        /* \"@opengsn/contracts/src/utils/GsnEip712Library.sol\":2158:2698  function verifyForwarderTrusted(GsnTypes.RelayRequest calldata relayRequest) internal view {... */\n    tag_267:\n        /* \"@opengsn/contracts/src/utils/GsnEip712Library.sol\":2260:2272  bool success */\n      0x00\n        /* \"@opengsn/contracts/src/utils/GsnEip712Library.sol\":2274:2290  bytes memory ret */\n      dup1\n        /* \"@opengsn/contracts/src/utils/GsnEip712Library.sol\":2294:2306  relayRequest */\n      dup3\n        /* \"@opengsn/contracts/src/utils/GsnEip712Library.sol\":2294:2314  relayRequest.request */\n      dup1\n      0x00\n      add\n      swap1\n      tag_320\n      swap2\n      swap1\n      tag_270\n      jump\t// in\n    tag_320:\n        /* \"@opengsn/contracts/src/utils/GsnEip712Library.sol\":2294:2317  relayRequest.request.to */\n      0x20\n      add\n      0x20\n      dup2\n      add\n      swap1\n      tag_321\n      swap2\n      swap1\n      tag_79\n      jump\t// in\n    tag_321:\n        /* \"@opengsn/contracts/src/utils/GsnEip712Library.sol\":2294:2328  relayRequest.request.to.staticcall */\n      0xffffffffffffffffffffffffffffffffffffffff\n      and\n        /* \"@opengsn/contracts/src/utils/GsnEip712Library.sol\":2382:2427  IERC2771Recipient.isTrustedForwarder.selector */\n      shl(0xe0, 0x572b6c05)\n        /* \"@opengsn/contracts/src/utils/GsnEip712Library.sol\":2429:2441  relayRequest */\n      dup5\n        /* \"@opengsn/contracts/src/utils/GsnEip712Library.sol\":2429:2451  relayRequest.relayData */\n      dup1\n      0x20\n      add\n      swap1\n      tag_322\n      swap2\n      swap1\n      tag_260\n      jump\t// in\n    tag_322:\n        /* \"@opengsn/contracts/src/utils/GsnEip712Library.sol\":2429:2461  relayRequest.relayData.forwarder */\n      0xa0\n      add\n      0x20\n      dup2\n      add\n      swap1\n      tag_323\n      swap2\n      swap1\n      tag_79\n      jump\t// in\n    tag_323:\n        /* \"@opengsn/contracts/src/utils/GsnEip712Library.sol\":2342:2475  abi.encodeWithSelector(... */\n      add(0x24, mload(0x40))\n      tag_324\n      swap2\n      swap1\n      tag_38\n      jump\t// in\n    tag_324:\n      mload(0x40)\n      0x20\n      dup2\n      dup4\n      sub\n      sub\n      dup2\n      mstore\n      swap1\n      0x40\n      mstore\n      swap1\n      not(0xffffffffffffffffffffffffffffffffffffffffffffffffffffffff)\n      and\n      0x20\n      dup3\n      add\n      dup1\n      mload\n      0xffffffffffffffffffffffffffffffffffffffffffffffffffffffff\n      dup4\n      dup2\n      dup4\n      and\n      or\n      dup4\n      mstore\n      pop\n      pop\n      pop\n      pop\n        /* \"@opengsn/contracts/src/utils/GsnEip712Library.sol\":2294:2485  relayRequest.request.to.staticcall(... */\n      mload(0x40)\n      tag_325\n      swap2\n      swap1\n      tag_326\n      jump\t// in\n    tag_325:\n      0x00\n      mload(0x40)\n      dup1\n      dup4\n      sub\n      dup2\n      dup6\n      gas\n      staticcall\n      swap2\n      pop\n      pop\n      returndatasize\n      dup1\n      0x00\n      dup2\n      eq\n      tag_329\n      jumpi\n      mload(0x40)\n      swap2\n      pop\n      and(add(returndatasize, 0x3f), not(0x1f))\n      dup3\n      add\n      0x40\n      mstore\n      returndatasize\n      dup3\n      mstore\n      returndatasize\n      0x00\n      0x20\n      dup5\n      add\n      returndatacopy\n      jump(tag_328)\n    tag_329:\n      0x60\n      swap2\n      pop\n    tag_328:\n      pop\n        /* \"@opengsn/contracts/src/utils/GsnEip712Library.sol\":2259:2485  (bool success, bytes memory ret) = relayRequest.request.to.staticcall(... */\n      swap2\n      pop\n      swap2\n      pop\n        /* \"@opengsn/contracts/src/utils/GsnEip712Library.sol\":2503:2510  success */\n      dup2\n        /* \"@opengsn/contracts/src/utils/GsnEip712Library.sol\":2495:2543  require(success, \"isTrustedForwarder: reverted\") */\n      tag_330\n      jumpi\n      mload(0x40)\n      0x08c379a000000000000000000000000000000000000000000000000000000000\n      dup2\n      mstore\n      0x04\n      add\n      tag_331\n      swap1\n      tag_332\n      jump\t// in\n    tag_331:\n      mload(0x40)\n      dup1\n      swap2\n      sub\n      swap1\n      revert\n    tag_330:\n        /* \"@opengsn/contracts/src/utils/GsnEip712Library.sol\":2575:2577  32 */\n      0x20\n        /* \"@opengsn/contracts/src/utils/GsnEip712Library.sol\":2561:2564  ret */\n      dup2\n        /* \"@opengsn/contracts/src/utils/GsnEip712Library.sol\":2561:2571  ret.length */\n      mload\n        /* \"@opengsn/contracts/src/utils/GsnEip712Library.sol\":2561:2577  ret.length == 32 */\n      eq\n        /* \"@opengsn/contracts/src/utils/GsnEip712Library.sol\":2553:2614  require(ret.length == 32, \"isTrustedForwarder: bad response\") */\n      tag_333\n      jumpi\n      mload(0x40)\n      0x08c379a000000000000000000000000000000000000000000000000000000000\n      dup2\n      mstore\n      0x04\n      add\n      tag_334\n      swap1\n      tag_335\n      jump\t// in\n    tag_334:\n      mload(0x40)\n      dup1\n      swap2\n      sub\n      swap1\n      revert\n    tag_333:\n        /* \"@opengsn/contracts/src/utils/GsnEip712Library.sol\":2643:2646  ret */\n      dup1\n        /* \"@opengsn/contracts/src/utils/GsnEip712Library.sol\":2632:2655  abi.decode(ret, (bool)) */\n      dup1\n      0x20\n      add\n      swap1\n      mload\n      dup2\n      add\n      swap1\n      tag_336\n      swap2\n      swap1\n      tag_337\n      jump\t// in\n    tag_336:\n        /* \"@opengsn/contracts/src/utils/GsnEip712Library.sol\":2624:2691  require(abi.decode(ret, (bool)), \"invalid forwarder for recipient\") */\n      tag_338\n      jumpi\n      mload(0x40)\n      0x08c379a000000000000000000000000000000000000000000000000000000000\n      dup2\n      mstore\n      0x04\n      add\n      tag_339\n      swap1\n      tag_340\n      jump\t// in\n    tag_339:\n      mload(0x40)\n      dup1\n      swap2\n      sub\n      swap1\n      revert\n    tag_338:\n        /* \"@opengsn/contracts/src/utils/GsnEip712Library.sol\":2249:2698  {... */\n      pop\n      pop\n        /* \"@opengsn/contracts/src/utils/GsnEip712Library.sol\":2158:2698  function verifyForwarderTrusted(GsnTypes.RelayRequest calldata relayRequest) internal view {... */\n      pop\n      jump\t// out\n        /* \"@openzeppelin/contracts/utils/Context.sol\":640:736  function _msgSender() internal view virtual returns (address) {... */\n    tag_302:\n        /* \"@openzeppelin/contracts/utils/Context.sol\":693:700  address */\n      0x00\n        /* \"@openzeppelin/contracts/utils/Context.sol\":719:729  msg.sender */\n      caller\n        /* \"@openzeppelin/contracts/utils/Context.sol\":712:729  return msg.sender */\n      swap1\n      pop\n        /* \"@openzeppelin/contracts/utils/Context.sol\":640:736  function _msgSender() internal view virtual returns (address) {... */\n      swap1\n      jump\t// out\n        /* \"@openzeppelin/contracts/utils/introspection/ERC165Checker.sol\":704:1131  function supportsERC165(address account) internal view returns (bool) {... */\n    tag_315:\n        /* \"@openzeppelin/contracts/utils/introspection/ERC165Checker.sol\":768:772  bool */\n      0x00\n        /* \"@openzeppelin/contracts/utils/introspection/ERC165Checker.sol\":975:1043  supportsERC165InterfaceUnchecked(account, type(IERC165).interfaceId) */\n      tag_343\n        /* \"@openzeppelin/contracts/utils/introspection/ERC165Checker.sol\":1008:1015  account */\n      dup3\n        /* \"@openzeppelin/contracts/utils/introspection/ERC165Checker.sol\":1017:1042  type(IERC165).interfaceId */\n      0x01ffc9a700000000000000000000000000000000000000000000000000000000\n        /* \"@openzeppelin/contracts/utils/introspection/ERC165Checker.sol\":975:1007  supportsERC165InterfaceUnchecked */\n      tag_318\n        /* \"@openzeppelin/contracts/utils/introspection/ERC165Checker.sol\":975:1043  supportsERC165InterfaceUnchecked(account, type(IERC165).interfaceId) */\n      jump\t// in\n    tag_343:\n        /* \"@openzeppelin/contracts/utils/introspection/ERC165Checker.sol\":975:1124  supportsERC165InterfaceUnchecked(account, type(IERC165).interfaceId) &&... */\n      dup1\n      iszero\n      tag_344\n      jumpi\n      pop\n        /* \"@openzeppelin/contracts/utils/introspection/ERC165Checker.sol\":1060:1124  supportsERC165InterfaceUnchecked(account, _INTERFACE_ID_INVALID) */\n      tag_345\n        /* \"@openzeppelin/contracts/utils/introspection/ERC165Checker.sol\":1093:1100  account */\n      dup3\n        /* \"@openzeppelin/contracts/utils/introspection/ERC165Checker.sol\":599:609  0xffffffff */\n      0xffffffff\n        /* \"@openzeppelin/contracts/utils/introspection/ERC165Checker.sol\":1102:1123  _INTERFACE_ID_INVALID */\n      0xe0\n      shl\n        /* \"@openzeppelin/contracts/utils/introspection/ERC165Checker.sol\":1060:1092  supportsERC165InterfaceUnchecked */\n      tag_318\n        /* \"@openzeppelin/contracts/utils/introspection/ERC165Checker.sol\":1060:1124  supportsERC165InterfaceUnchecked(account, _INTERFACE_ID_INVALID) */\n      jump\t// in\n    tag_345:\n        /* \"@openzeppelin/contracts/utils/introspection/ERC165Checker.sol\":1059:1124  !supportsERC165InterfaceUnchecked(account, _INTERFACE_ID_INVALID) */\n      iszero\n        /* \"@openzeppelin/contracts/utils/introspection/ERC165Checker.sol\":975:1124  supportsERC165InterfaceUnchecked(account, type(IERC165).interfaceId) &&... */\n    tag_344:\n        /* \"@openzeppelin/contracts/utils/introspection/ERC165Checker.sol\":956:1124  return... */\n      swap1\n      pop\n        /* \"@openzeppelin/contracts/utils/introspection/ERC165Checker.sol\":704:1131  function supportsERC165(address account) internal view returns (bool) {... */\n      swap2\n      swap1\n      pop\n      jump\t// out\n        /* \"@openzeppelin/contracts/utils/introspection/ERC165Checker.sol\":4421:5068  function supportsERC165InterfaceUnchecked(address account, bytes4 interfaceId) internal view returns (bool) {... */\n    tag_318:\n        /* \"@openzeppelin/contracts/utils/introspection/ERC165Checker.sol\":4523:4527  bool */\n      0x00\n        /* \"@openzeppelin/contracts/utils/introspection/ERC165Checker.sol\":4563:4589  bytes memory encodedParams */\n      dup1\n        /* \"@openzeppelin/contracts/utils/introspection/ERC165Checker.sol\":4615:4649  IERC165.supportsInterface.selector */\n      shl(0xe0, 0x01ffc9a7)\n        /* \"@openzeppelin/contracts/utils/introspection/ERC165Checker.sol\":4651:4662  interfaceId */\n      dup4\n        /* \"@openzeppelin/contracts/utils/introspection/ERC165Checker.sol\":4592:4663  abi.encodeWithSelector(IERC165.supportsInterface.selector, interfaceId) */\n      add(0x24, mload(0x40))\n      tag_347\n      swap2\n      swap1\n      tag_348\n      jump\t// in\n    tag_347:\n      mload(0x40)\n      0x20\n      dup2\n      dup4\n      sub\n      sub\n      dup2\n      mstore\n      swap1\n      0x40\n      mstore\n      swap1\n      not(0xffffffffffffffffffffffffffffffffffffffffffffffffffffffff)\n      and\n      0x20\n      dup3\n      add\n      dup1\n      mload\n      0xffffffffffffffffffffffffffffffffffffffffffffffffffffffff\n      dup4\n      dup2\n      dup4\n      and\n      or\n      dup4\n      mstore\n      pop\n      pop\n      pop\n      pop\n        /* \"@openzeppelin/contracts/utils/introspection/ERC165Checker.sol\":4563:4663  bytes memory encodedParams = abi.encodeWithSelector(IERC165.supportsInterface.selector, interfaceId) */\n      swap1\n      pop\n        /* \"@openzeppelin/contracts/utils/introspection/ERC165Checker.sol\":4705:4717  bool success */\n      0x00\n        /* \"@openzeppelin/contracts/utils/introspection/ERC165Checker.sol\":4727:4745  uint256 returnSize */\n      dup1\n        /* \"@openzeppelin/contracts/utils/introspection/ERC165Checker.sol\":4755:4774  uint256 returnValue */\n      0x00\n        /* \"@openzeppelin/contracts/utils/introspection/ERC165Checker.sol\":4899:4903  0x20 */\n      0x20\n        /* \"@openzeppelin/contracts/utils/introspection/ERC165Checker.sol\":4893:4897  0x00 */\n      0x00\n        /* \"@openzeppelin/contracts/utils/introspection/ERC165Checker.sol\":4877:4890  encodedParams */\n      dup6\n        /* \"@openzeppelin/contracts/utils/introspection/ERC165Checker.sol\":4871:4891  mload(encodedParams) */\n      mload\n        /* \"@openzeppelin/contracts/utils/introspection/ERC165Checker.sol\":4864:4868  0x20 */\n      0x20\n        /* \"@openzeppelin/contracts/utils/introspection/ERC165Checker.sol\":4849:4862  encodedParams */\n      dup8\n        /* \"@openzeppelin/contracts/utils/introspection/ERC165Checker.sol\":4845:4869  add(encodedParams, 0x20) */\n      add\n        /* \"@openzeppelin/contracts/utils/introspection/ERC165Checker.sol\":4836:4843  account */\n      dup11\n        /* \"@openzeppelin/contracts/utils/introspection/ERC165Checker.sol\":4829:4834  30000 */\n      0x7530\n        /* \"@openzeppelin/contracts/utils/introspection/ERC165Checker.sol\":4818:4904  staticcall(30000, account, add(encodedParams, 0x20), mload(encodedParams), 0x00, 0x20) */\n      staticcall\n        /* \"@openzeppelin/contracts/utils/introspection/ERC165Checker.sol\":4807:4904  success := staticcall(30000, account, add(encodedParams, 0x20), mload(encodedParams), 0x00, 0x20) */\n      swap3\n      pop\n        /* \"@openzeppelin/contracts/utils/introspection/ERC165Checker.sol\":4931:4947  returndatasize() */\n      returndatasize\n        /* \"@openzeppelin/contracts/utils/introspection/ERC165Checker.sol\":4917:4947  returnSize := returndatasize() */\n      swap2\n      pop\n        /* \"@openzeppelin/contracts/utils/introspection/ERC165Checker.sol\":4981:4985  0x00 */\n      0x00\n        /* \"@openzeppelin/contracts/utils/introspection/ERC165Checker.sol\":4975:4986  mload(0x00) */\n      mload\n        /* \"@openzeppelin/contracts/utils/introspection/ERC165Checker.sol\":4960:4986  returnValue := mload(0x00) */\n      swap1\n      pop\n        /* \"@openzeppelin/contracts/utils/introspection/ERC165Checker.sol\":5013:5020  success */\n      dup3\n        /* \"@openzeppelin/contracts/utils/introspection/ERC165Checker.sol\":5013:5042  success && returnSize >= 0x20 */\n      dup1\n      iszero\n      tag_349\n      jumpi\n      pop\n        /* \"@openzeppelin/contracts/utils/introspection/ERC165Checker.sol\":5038:5042  0x20 */\n      0x20\n        /* \"@openzeppelin/contracts/utils/introspection/ERC165Checker.sol\":5024:5034  returnSize */\n      dup3\n        /* \"@openzeppelin/contracts/utils/introspection/ERC165Checker.sol\":5024:5042  returnSize >= 0x20 */\n      lt\n      iszero\n        /* \"@openzeppelin/contracts/utils/introspection/ERC165Checker.sol\":5013:5042  success && returnSize >= 0x20 */\n    tag_349:\n        /* \"@openzeppelin/contracts/utils/introspection/ERC165Checker.sol\":5013:5061  success && returnSize >= 0x20 && returnValue > 0 */\n      dup1\n      iszero\n      tag_350\n      jumpi\n      pop\n        /* \"@openzeppelin/contracts/utils/introspection/ERC165Checker.sol\":5060:5061  0 */\n      0x00\n        /* \"@openzeppelin/contracts/utils/introspection/ERC165Checker.sol\":5046:5057  returnValue */\n      dup2\n        /* \"@openzeppelin/contracts/utils/introspection/ERC165Checker.sol\":5046:5061  returnValue > 0 */\n      gt\n        /* \"@openzeppelin/contracts/utils/introspection/ERC165Checker.sol\":5013:5061  success && returnSize >= 0x20 && returnValue > 0 */\n    tag_350:\n        /* \"@openzeppelin/contracts/utils/introspection/ERC165Checker.sol\":5006:5061  return success && returnSize >= 0x20 && returnValue > 0 */\n      swap5\n      pop\n      pop\n      pop\n      pop\n      pop\n        /* \"@openzeppelin/contracts/utils/introspection/ERC165Checker.sol\":4421:5068  function supportsERC165InterfaceUnchecked(address account, bytes4 interfaceId) internal view returns (bool) {... */\n      swap3\n      swap2\n      pop\n      pop\n      jump\t// out\n    tag_234:\n      mload(0x40)\n      dup1\n      0x80\n      add\n      0x40\n      mstore\n      dup1\n      0x00\n      dup2\n      mstore\n      0x20\n      add\n      0x00\n      dup2\n      mstore\n      0x20\n      add\n      0x00\n      dup2\n      mstore\n      0x20\n      add\n      0x00\n      dup2\n      mstore\n      pop\n      swap1\n      jump\t// out\n        /* \"#utility.yul\":7:146   */\n    tag_352:\n        /* \"#utility.yul\":53:58   */\n      0x00\n        /* \"#utility.yul\":91:97   */\n      dup2\n        /* \"#utility.yul\":78:98   */\n      calldataload\n        /* \"#utility.yul\":69:98   */\n      swap1\n      pop\n        /* \"#utility.yul\":107:140   */\n      tag_354\n        /* \"#utility.yul\":134:139   */\n      dup2\n        /* \"#utility.yul\":107:140   */\n      tag_355\n      jump\t// in\n    tag_354:\n        /* \"#utility.yul\":7:146   */\n      swap3\n      swap2\n      pop\n      pop\n      jump\t// out\n        /* \"#utility.yul\":152:307   */\n    tag_356:\n        /* \"#utility.yul\":206:211   */\n      0x00\n        /* \"#utility.yul\":244:250   */\n      dup2\n        /* \"#utility.yul\":231:251   */\n      calldataload\n        /* \"#utility.yul\":222:251   */\n      swap1\n      pop\n        /* \"#utility.yul\":260:301   */\n      tag_358\n        /* \"#utility.yul\":295:300   */\n      dup2\n        /* \"#utility.yul\":260:301   */\n      tag_359\n      jump\t// in\n    tag_358:\n        /* \"#utility.yul\":152:307   */\n      swap3\n      swap2\n      pop\n      pop\n      jump\t// out\n        /* \"#utility.yul\":313:446   */\n    tag_360:\n        /* \"#utility.yul\":356:361   */\n      0x00\n        /* \"#utility.yul\":394:400   */\n      dup2\n        /* \"#utility.yul\":381:401   */\n      calldataload\n        /* \"#utility.yul\":372:401   */\n      swap1\n      pop\n        /* \"#utility.yul\":410:440   */\n      tag_362\n        /* \"#utility.yul\":434:439   */\n      dup2\n        /* \"#utility.yul\":410:440   */\n      tag_363\n      jump\t// in\n    tag_362:\n        /* \"#utility.yul\":313:446   */\n      swap3\n      swap2\n      pop\n      pop\n      jump\t// out\n        /* \"#utility.yul\":452:589   */\n    tag_364:\n        /* \"#utility.yul\":506:511   */\n      0x00\n        /* \"#utility.yul\":537:543   */\n      dup2\n        /* \"#utility.yul\":531:544   */\n      mload\n        /* \"#utility.yul\":522:544   */\n      swap1\n      pop\n        /* \"#utility.yul\":553:583   */\n      tag_366\n        /* \"#utility.yul\":577:582   */\n      dup2\n        /* \"#utility.yul\":553:583   */\n      tag_363\n      jump\t// in\n    tag_366:\n        /* \"#utility.yul\":452:589   */\n      swap3\n      swap2\n      pop\n      pop\n      jump\t// out\n        /* \"#utility.yul\":595:732   */\n    tag_367:\n        /* \"#utility.yul\":640:645   */\n      0x00\n        /* \"#utility.yul\":678:684   */\n      dup2\n        /* \"#utility.yul\":665:685   */\n      calldataload\n        /* \"#utility.yul\":656:685   */\n      swap1\n      pop\n        /* \"#utility.yul\":694:726   */\n      tag_369\n        /* \"#utility.yul\":720:725   */\n      dup2\n        /* \"#utility.yul\":694:726   */\n      tag_370\n      jump\t// in\n    tag_369:\n        /* \"#utility.yul\":595:732   */\n      swap3\n      swap2\n      pop\n      pop\n      jump\t// out\n        /* \"#utility.yul\":751:1303   */\n    tag_371:\n        /* \"#utility.yul\":808:816   */\n      0x00\n        /* \"#utility.yul\":818:824   */\n      dup1\n        /* \"#utility.yul\":868:871   */\n      dup4\n        /* \"#utility.yul\":861:865   */\n      0x1f\n        /* \"#utility.yul\":853:859   */\n      dup5\n        /* \"#utility.yul\":849:866   */\n      add\n        /* \"#utility.yul\":845:872   */\n      slt\n        /* \"#utility.yul\":835:957   */\n      tag_373\n      jumpi\n        /* \"#utility.yul\":876:955   */\n      tag_374\n      tag_375\n      jump\t// in\n    tag_374:\n        /* \"#utility.yul\":835:957   */\n    tag_373:\n        /* \"#utility.yul\":989:995   */\n      dup3\n        /* \"#utility.yul\":976:996   */\n      calldataload\n        /* \"#utility.yul\":966:996   */\n      swap1\n      pop\n        /* \"#utility.yul\":1019:1037   */\n      0xffffffffffffffff\n        /* \"#utility.yul\":1011:1017   */\n      dup2\n        /* \"#utility.yul\":1008:1038   */\n      gt\n        /* \"#utility.yul\":1005:1122   */\n      iszero\n      tag_376\n      jumpi\n        /* \"#utility.yul\":1041:1120   */\n      tag_377\n      tag_378\n      jump\t// in\n    tag_377:\n        /* \"#utility.yul\":1005:1122   */\n    tag_376:\n        /* \"#utility.yul\":1155:1159   */\n      0x20\n        /* \"#utility.yul\":1147:1153   */\n      dup4\n        /* \"#utility.yul\":1143:1160   */\n      add\n        /* \"#utility.yul\":1131:1160   */\n      swap2\n      pop\n        /* \"#utility.yul\":1209:1212   */\n      dup4\n        /* \"#utility.yul\":1201:1205   */\n      0x01\n        /* \"#utility.yul\":1193:1199   */\n      dup3\n        /* \"#utility.yul\":1189:1206   */\n      mul\n        /* \"#utility.yul\":1179:1187   */\n      dup4\n        /* \"#utility.yul\":1175:1207   */\n      add\n        /* \"#utility.yul\":1172:1213   */\n      gt\n        /* \"#utility.yul\":1169:1297   */\n      iszero\n      tag_379\n      jumpi\n        /* \"#utility.yul\":1216:1295   */\n      tag_380\n      tag_381\n      jump\t// in\n    tag_380:\n        /* \"#utility.yul\":1169:1297   */\n    tag_379:\n        /* \"#utility.yul\":751:1303   */\n      swap3\n      pop\n      swap3\n      swap1\n      pop\n      jump\t// out\n        /* \"#utility.yul\":1309:1482   */\n    tag_382:\n        /* \"#utility.yul\":1372:1377   */\n      0x00\n        /* \"#utility.yul\":1410:1416   */\n      dup2\n        /* \"#utility.yul\":1397:1417   */\n      calldataload\n        /* \"#utility.yul\":1388:1417   */\n      swap1\n      pop\n        /* \"#utility.yul\":1426:1476   */\n      tag_384\n        /* \"#utility.yul\":1470:1475   */\n      dup2\n        /* \"#utility.yul\":1426:1476   */\n      tag_385\n      jump\t// in\n    tag_384:\n        /* \"#utility.yul\":1309:1482   */\n      swap3\n      swap2\n      pop\n      pop\n      jump\t// out\n        /* \"#utility.yul\":1521:1755   */\n    tag_386:\n        /* \"#utility.yul\":1596:1601   */\n      0x00\n        /* \"#utility.yul\":1637:1640   */\n      0x0100\n        /* \"#utility.yul\":1628:1634   */\n      dup3\n        /* \"#utility.yul\":1623:1626   */\n      dup5\n        /* \"#utility.yul\":1619:1635   */\n      sub\n        /* \"#utility.yul\":1615:1641   */\n      slt\n        /* \"#utility.yul\":1612:1725   */\n      iszero\n      tag_388\n      jumpi\n        /* \"#utility.yul\":1644:1723   */\n      tag_389\n      tag_390\n      jump\t// in\n    tag_389:\n        /* \"#utility.yul\":1612:1725   */\n    tag_388:\n        /* \"#utility.yul\":1743:1749   */\n      dup2\n        /* \"#utility.yul\":1734:1749   */\n      swap1\n      pop\n        /* \"#utility.yul\":1521:1755   */\n      swap3\n      swap2\n      pop\n      pop\n      jump\t// out\n        /* \"#utility.yul\":1797:2033   */\n    tag_391:\n        /* \"#utility.yul\":1875:1880   */\n      0x00\n        /* \"#utility.yul\":1916:1918   */\n      0x40\n        /* \"#utility.yul\":1907:1913   */\n      dup3\n        /* \"#utility.yul\":1902:1905   */\n      dup5\n        /* \"#utility.yul\":1898:1914   */\n      sub\n        /* \"#utility.yul\":1894:1919   */\n      slt\n        /* \"#utility.yul\":1891:2003   */\n      iszero\n      tag_393\n      jumpi\n        /* \"#utility.yul\":1922:2001   */\n      tag_394\n      tag_390\n      jump\t// in\n    tag_394:\n        /* \"#utility.yul\":1891:2003   */\n    tag_393:\n        /* \"#utility.yul\":2021:2027   */\n      dup2\n        /* \"#utility.yul\":2012:2027   */\n      swap1\n      pop\n        /* \"#utility.yul\":1797:2033   */\n      swap3\n      swap2\n      pop\n      pop\n      jump\t// out\n        /* \"#utility.yul\":2039:2178   */\n    tag_395:\n        /* \"#utility.yul\":2085:2090   */\n      0x00\n        /* \"#utility.yul\":2123:2129   */\n      dup2\n        /* \"#utility.yul\":2110:2130   */\n      calldataload\n        /* \"#utility.yul\":2101:2130   */\n      swap1\n      pop\n        /* \"#utility.yul\":2139:2172   */\n      tag_397\n        /* \"#utility.yul\":2166:2171   */\n      dup2\n        /* \"#utility.yul\":2139:2172   */\n      tag_398\n      jump\t// in\n    tag_397:\n        /* \"#utility.yul\":2039:2178   */\n      swap3\n      swap2\n      pop\n      pop\n      jump\t// out\n        /* \"#utility.yul\":2184:2327   */\n    tag_399:\n        /* \"#utility.yul\":2241:2246   */\n      0x00\n        /* \"#utility.yul\":2272:2278   */\n      dup2\n        /* \"#utility.yul\":2266:2279   */\n      mload\n        /* \"#utility.yul\":2257:2279   */\n      swap1\n      pop\n        /* \"#utility.yul\":2288:2321   */\n      tag_401\n        /* \"#utility.yul\":2315:2320   */\n      dup2\n        /* \"#utility.yul\":2288:2321   */\n      tag_398\n      jump\t// in\n    tag_401:\n        /* \"#utility.yul\":2184:2327   */\n      swap3\n      swap2\n      pop\n      pop\n      jump\t// out\n        /* \"#utility.yul\":2333:2662   */\n    tag_79:\n        /* \"#utility.yul\":2392:2398   */\n      0x00\n        /* \"#utility.yul\":2441:2443   */\n      0x20\n        /* \"#utility.yul\":2429:2438   */\n      dup3\n        /* \"#utility.yul\":2420:2427   */\n      dup5\n        /* \"#utility.yul\":2416:2439   */\n      sub\n        /* \"#utility.yul\":2412:2444   */\n      slt\n        /* \"#utility.yul\":2409:2528   */\n      iszero\n      tag_403\n      jumpi\n        /* \"#utility.yul\":2447:2526   */\n      tag_404\n      tag_405\n      jump\t// in\n    tag_404:\n        /* \"#utility.yul\":2409:2528   */\n    tag_403:\n        /* \"#utility.yul\":2567:2568   */\n      0x00\n        /* \"#utility.yul\":2592:2645   */\n      tag_406\n        /* \"#utility.yul\":2637:2644   */\n      dup5\n        /* \"#utility.yul\":2628:2634   */\n      dup3\n        /* \"#utility.yul\":2617:2626   */\n      dup6\n        /* \"#utility.yul\":2613:2635   */\n      add\n        /* \"#utility.yul\":2592:2645   */\n      tag_352\n      jump\t// in\n    tag_406:\n        /* \"#utility.yul\":2582:2645   */\n      swap2\n      pop\n        /* \"#utility.yul\":2538:2655   */\n      pop\n        /* \"#utility.yul\":2333:2662   */\n      swap3\n      swap2\n      pop\n      pop\n      jump\t// out\n        /* \"#utility.yul\":2668:3136   */\n    tag_74:\n        /* \"#utility.yul\":2733:2739   */\n      0x00\n        /* \"#utility.yul\":2741:2747   */\n      dup1\n        /* \"#utility.yul\":2790:2792   */\n      0x40\n        /* \"#utility.yul\":2778:2787   */\n      dup4\n        /* \"#utility.yul\":2769:2776   */\n      dup6\n        /* \"#utility.yul\":2765:2788   */\n      sub\n        /* \"#utility.yul\":2761:2793   */\n      slt\n        /* \"#utility.yul\":2758:2877   */\n      iszero\n      tag_408\n      jumpi\n        /* \"#utility.yul\":2796:2875   */\n      tag_409\n      tag_405\n      jump\t// in\n    tag_409:\n        /* \"#utility.yul\":2758:2877   */\n    tag_408:\n        /* \"#utility.yul\":2916:2917   */\n      0x00\n        /* \"#utility.yul\":2941:2994   */\n      tag_410\n        /* \"#utility.yul\":2986:2993   */\n      dup6\n        /* \"#utility.yul\":2977:2983   */\n      dup3\n        /* \"#utility.yul\":2966:2975   */\n      dup7\n        /* \"#utility.yul\":2962:2984   */\n      add\n        /* \"#utility.yul\":2941:2994   */\n      tag_352\n      jump\t// in\n    tag_410:\n        /* \"#utility.yul\":2931:2994   */\n      swap3\n      pop\n        /* \"#utility.yul\":2887:3004   */\n      pop\n        /* \"#utility.yul\":3043:3045   */\n      0x20\n        /* \"#utility.yul\":3069:3119   */\n      tag_411\n        /* \"#utility.yul\":3111:3118   */\n      dup6\n        /* \"#utility.yul\":3102:3108   */\n      dup3\n        /* \"#utility.yul\":3091:3100   */\n      dup7\n        /* \"#utility.yul\":3087:3109   */\n      add\n        /* \"#utility.yul\":3069:3119   */\n      tag_360\n      jump\t// in\n    tag_411:\n        /* \"#utility.yul\":3059:3119   */\n      swap2\n      pop\n        /* \"#utility.yul\":3014:3129   */\n      pop\n        /* \"#utility.yul\":2668:3136   */\n      swap3\n      pop\n      swap3\n      swap1\n      pop\n      jump\t// out\n        /* \"#utility.yul\":3142:3616   */\n    tag_64:\n        /* \"#utility.yul\":3210:3216   */\n      0x00\n        /* \"#utility.yul\":3218:3224   */\n      dup1\n        /* \"#utility.yul\":3267:3269   */\n      0x40\n        /* \"#utility.yul\":3255:3264   */\n      dup4\n        /* \"#utility.yul\":3246:3253   */\n      dup6\n        /* \"#utility.yul\":3242:3265   */\n      sub\n        /* \"#utility.yul\":3238:3270   */\n      slt\n        /* \"#utility.yul\":3235:3354   */\n      iszero\n      tag_413\n      jumpi\n        /* \"#utility.yul\":3273:3352   */\n      tag_414\n      tag_405\n      jump\t// in\n    tag_414:\n        /* \"#utility.yul\":3235:3354   */\n    tag_413:\n        /* \"#utility.yul\":3393:3394   */\n      0x00\n        /* \"#utility.yul\":3418:3471   */\n      tag_415\n        /* \"#utility.yul\":3463:3470   */\n      dup6\n        /* \"#utility.yul\":3454:3460   */\n      dup3\n        /* \"#utility.yul\":3443:3452   */\n      dup7\n        /* \"#utility.yul\":3439:3461   */\n      add\n        /* \"#utility.yul\":3418:3471   */\n      tag_352\n      jump\t// in\n    tag_415:\n        /* \"#utility.yul\":3408:3471   */\n      swap3\n      pop\n        /* \"#utility.yul\":3364:3481   */\n      pop\n        /* \"#utility.yul\":3520:3522   */\n      0x20\n        /* \"#utility.yul\":3546:3599   */\n      tag_416\n        /* \"#utility.yul\":3591:3598   */\n      dup6\n        /* \"#utility.yul\":3582:3588   */\n      dup3\n        /* \"#utility.yul\":3571:3580   */\n      dup7\n        /* \"#utility.yul\":3567:3589   */\n      add\n        /* \"#utility.yul\":3546:3599   */\n      tag_395\n      jump\t// in\n    tag_416:\n        /* \"#utility.yul\":3536:3599   */\n      swap2\n      pop\n        /* \"#utility.yul\":3491:3609   */\n      pop\n        /* \"#utility.yul\":3142:3616   */\n      swap3\n      pop\n      swap3\n      swap1\n      pop\n      jump\t// out\n        /* \"#utility.yul\":3622:3967   */\n    tag_337:\n        /* \"#utility.yul\":3689:3695   */\n      0x00\n        /* \"#utility.yul\":3738:3740   */\n      0x20\n        /* \"#utility.yul\":3726:3735   */\n      dup3\n        /* \"#utility.yul\":3717:3724   */\n      dup5\n        /* \"#utility.yul\":3713:3736   */\n      sub\n        /* \"#utility.yul\":3709:3741   */\n      slt\n        /* \"#utility.yul\":3706:3825   */\n      iszero\n      tag_418\n      jumpi\n        /* \"#utility.yul\":3744:3823   */\n      tag_419\n      tag_405\n      jump\t// in\n    tag_419:\n        /* \"#utility.yul\":3706:3825   */\n    tag_418:\n        /* \"#utility.yul\":3864:3865   */\n      0x00\n        /* \"#utility.yul\":3889:3950   */\n      tag_420\n        /* \"#utility.yul\":3942:3949   */\n      dup5\n        /* \"#utility.yul\":3933:3939   */\n      dup3\n        /* \"#utility.yul\":3922:3931   */\n      dup6\n        /* \"#utility.yul\":3918:3940   */\n      add\n        /* \"#utility.yul\":3889:3950   */\n      tag_364\n      jump\t// in\n    tag_420:\n        /* \"#utility.yul\":3879:3950   */\n      swap2\n      pop\n        /* \"#utility.yul\":3835:3960   */\n      pop\n        /* \"#utility.yul\":3622:3967   */\n      swap3\n      swap2\n      pop\n      pop\n      jump\t// out\n        /* \"#utility.yul\":3973:4300   */\n    tag_57:\n        /* \"#utility.yul\":4031:4037   */\n      0x00\n        /* \"#utility.yul\":4080:4082   */\n      0x20\n        /* \"#utility.yul\":4068:4077   */\n      dup3\n        /* \"#utility.yul\":4059:4066   */\n      dup5\n        /* \"#utility.yul\":4055:4078   */\n      sub\n        /* \"#utility.yul\":4051:4083   */\n      slt\n        /* \"#utility.yul\":4048:4167   */\n      iszero\n      tag_422\n      jumpi\n        /* \"#utility.yul\":4086:4165   */\n      tag_423\n      tag_405\n      jump\t// in\n    tag_423:\n        /* \"#utility.yul\":4048:4167   */\n    tag_422:\n        /* \"#utility.yul\":4206:4207   */\n      0x00\n        /* \"#utility.yul\":4231:4283   */\n      tag_424\n        /* \"#utility.yul\":4275:4282   */\n      dup5\n        /* \"#utility.yul\":4266:4272   */\n      dup3\n        /* \"#utility.yul\":4255:4264   */\n      dup6\n        /* \"#utility.yul\":4251:4273   */\n      add\n        /* \"#utility.yul\":4231:4283   */\n      tag_367\n      jump\t// in\n    tag_424:\n        /* \"#utility.yul\":4221:4283   */\n      swap2\n      pop\n        /* \"#utility.yul\":4177:4293   */\n      pop\n        /* \"#utility.yul\":3973:4300   */\n      swap3\n      swap2\n      pop\n      pop\n      jump\t// out\n        /* \"#utility.yul\":4306:5481   */\n    tag_101:\n        /* \"#utility.yul\":4429:4435   */\n      0x00\n        /* \"#utility.yul\":4437:4443   */\n      dup1\n        /* \"#utility.yul\":4445:4451   */\n      0x00\n        /* \"#utility.yul\":4453:4459   */\n      dup1\n        /* \"#utility.yul\":4461:4467   */\n      0x00\n        /* \"#utility.yul\":4510:4513   */\n      0x80\n        /* \"#utility.yul\":4498:4507   */\n      dup7\n        /* \"#utility.yul\":4489:4496   */\n      dup9\n        /* \"#utility.yul\":4485:4508   */\n      sub\n        /* \"#utility.yul\":4481:4514   */\n      slt\n        /* \"#utility.yul\":4478:4598   */\n      iszero\n      tag_426\n      jumpi\n        /* \"#utility.yul\":4517:4596   */\n      tag_427\n      tag_405\n      jump\t// in\n    tag_427:\n        /* \"#utility.yul\":4478:4598   */\n    tag_426:\n        /* \"#utility.yul\":4665:4666   */\n      0x00\n        /* \"#utility.yul\":4654:4663   */\n      dup7\n        /* \"#utility.yul\":4650:4667   */\n      add\n        /* \"#utility.yul\":4637:4668   */\n      calldataload\n        /* \"#utility.yul\":4695:4713   */\n      0xffffffffffffffff\n        /* \"#utility.yul\":4687:4693   */\n      dup2\n        /* \"#utility.yul\":4684:4714   */\n      gt\n        /* \"#utility.yul\":4681:4798   */\n      iszero\n      tag_428\n      jumpi\n        /* \"#utility.yul\":4717:4796   */\n      tag_429\n      tag_430\n      jump\t// in\n    tag_429:\n        /* \"#utility.yul\":4681:4798   */\n    tag_428:\n        /* \"#utility.yul\":4830:4894   */\n      tag_431\n        /* \"#utility.yul\":4886:4893   */\n      dup9\n        /* \"#utility.yul\":4877:4883   */\n      dup3\n        /* \"#utility.yul\":4866:4875   */\n      dup10\n        /* \"#utility.yul\":4862:4884   */\n      add\n        /* \"#utility.yul\":4830:4894   */\n      tag_371\n      jump\t// in\n    tag_431:\n        /* \"#utility.yul\":4812:4894   */\n      swap6\n      pop\n      swap6\n      pop\n        /* \"#utility.yul\":4608:4904   */\n      pop\n        /* \"#utility.yul\":4943:4945   */\n      0x20\n        /* \"#utility.yul\":4969:5019   */\n      tag_432\n        /* \"#utility.yul\":5011:5018   */\n      dup9\n        /* \"#utility.yul\":5002:5008   */\n      dup3\n        /* \"#utility.yul\":4991:5000   */\n      dup10\n        /* \"#utility.yul\":4987:5009   */\n      add\n        /* \"#utility.yul\":4969:5019   */\n      tag_360\n      jump\t// in\n    tag_432:\n        /* \"#utility.yul\":4959:5019   */\n      swap4\n      pop\n        /* \"#utility.yul\":4914:5029   */\n      pop\n        /* \"#utility.yul\":5068:5070   */\n      0x40\n        /* \"#utility.yul\":5094:5147   */\n      tag_433\n        /* \"#utility.yul\":5139:5146   */\n      dup9\n        /* \"#utility.yul\":5130:5136   */\n      dup3\n        /* \"#utility.yul\":5119:5128   */\n      dup10\n        /* \"#utility.yul\":5115:5137   */\n      add\n        /* \"#utility.yul\":5094:5147   */\n      tag_395\n      jump\t// in\n    tag_433:\n        /* \"#utility.yul\":5084:5147   */\n      swap3\n      pop\n        /* \"#utility.yul\":5039:5157   */\n      pop\n        /* \"#utility.yul\":5224:5226   */\n      0x60\n        /* \"#utility.yul\":5213:5222   */\n      dup7\n        /* \"#utility.yul\":5209:5227   */\n      add\n        /* \"#utility.yul\":5196:5228   */\n      calldataload\n        /* \"#utility.yul\":5255:5273   */\n      0xffffffffffffffff\n        /* \"#utility.yul\":5247:5253   */\n      dup2\n        /* \"#utility.yul\":5244:5274   */\n      gt\n        /* \"#utility.yul\":5241:5358   */\n      iszero\n      tag_434\n      jumpi\n        /* \"#utility.yul\":5277:5356   */\n      tag_435\n      tag_430\n      jump\t// in\n    tag_435:\n        /* \"#utility.yul\":5241:5358   */\n    tag_434:\n        /* \"#utility.yul\":5382:5464   */\n      tag_436\n        /* \"#utility.yul\":5456:5463   */\n      dup9\n        /* \"#utility.yul\":5447:5453   */\n      dup3\n        /* \"#utility.yul\":5436:5445   */\n      dup10\n        /* \"#utility.yul\":5432:5454   */\n      add\n        /* \"#utility.yul\":5382:5464   */\n      tag_386\n      jump\t// in\n    tag_436:\n        /* \"#utility.yul\":5372:5464   */\n      swap2\n      pop\n        /* \"#utility.yul\":5167:5474   */\n      pop\n        /* \"#utility.yul\":4306:5481   */\n      swap3\n      swap6\n      pop\n      swap3\n      swap6\n      swap1\n      swap4\n      pop\n      jump\t// out\n        /* \"#utility.yul\":5487:5850   */\n    tag_106:\n        /* \"#utility.yul\":5563:5569   */\n      0x00\n        /* \"#utility.yul\":5612:5614   */\n      0x20\n        /* \"#utility.yul\":5600:5609   */\n      dup3\n        /* \"#utility.yul\":5591:5598   */\n      dup5\n        /* \"#utility.yul\":5587:5610   */\n      sub\n        /* \"#utility.yul\":5583:5615   */\n      slt\n        /* \"#utility.yul\":5580:5699   */\n      iszero\n      tag_438\n      jumpi\n        /* \"#utility.yul\":5618:5697   */\n      tag_439\n      tag_405\n      jump\t// in\n    tag_439:\n        /* \"#utility.yul\":5580:5699   */\n    tag_438:\n        /* \"#utility.yul\":5738:5739   */\n      0x00\n        /* \"#utility.yul\":5763:5833   */\n      tag_440\n        /* \"#utility.yul\":5825:5832   */\n      dup5\n        /* \"#utility.yul\":5816:5822   */\n      dup3\n        /* \"#utility.yul\":5805:5814   */\n      dup6\n        /* \"#utility.yul\":5801:5823   */\n      add\n        /* \"#utility.yul\":5763:5833   */\n      tag_382\n      jump\t// in\n    tag_440:\n        /* \"#utility.yul\":5753:5833   */\n      swap2\n      pop\n        /* \"#utility.yul\":5709:5843   */\n      pop\n        /* \"#utility.yul\":5487:5850   */\n      swap3\n      swap2\n      pop\n      pop\n      jump\t// out\n        /* \"#utility.yul\":5856:7241   */\n    tag_45:\n        /* \"#utility.yul\":5996:6002   */\n      0x00\n        /* \"#utility.yul\":6004:6010   */\n      dup1\n        /* \"#utility.yul\":6012:6018   */\n      0x00\n        /* \"#utility.yul\":6020:6026   */\n      dup1\n        /* \"#utility.yul\":6028:6034   */\n      0x00\n        /* \"#utility.yul\":6036:6042   */\n      dup1\n        /* \"#utility.yul\":6085:6088   */\n      0x80\n        /* \"#utility.yul\":6073:6082   */\n      dup8\n        /* \"#utility.yul\":6064:6071   */\n      dup10\n        /* \"#utility.yul\":6060:6083   */\n      sub\n        /* \"#utility.yul\":6056:6089   */\n      slt\n        /* \"#utility.yul\":6053:6173   */\n      iszero\n      tag_442\n      jumpi\n        /* \"#utility.yul\":6092:6171   */\n      tag_443\n      tag_405\n      jump\t// in\n    tag_443:\n        /* \"#utility.yul\":6053:6173   */\n    tag_442:\n        /* \"#utility.yul\":6240:6241   */\n      0x00\n        /* \"#utility.yul\":6229:6238   */\n      dup8\n        /* \"#utility.yul\":6225:6242   */\n      add\n        /* \"#utility.yul\":6212:6243   */\n      calldataload\n        /* \"#utility.yul\":6270:6288   */\n      0xffffffffffffffff\n        /* \"#utility.yul\":6262:6268   */\n      dup2\n        /* \"#utility.yul\":6259:6289   */\n      gt\n        /* \"#utility.yul\":6256:6373   */\n      iszero\n      tag_444\n      jumpi\n        /* \"#utility.yul\":6292:6371   */\n      tag_445\n      tag_430\n      jump\t// in\n    tag_445:\n        /* \"#utility.yul\":6256:6373   */\n    tag_444:\n        /* \"#utility.yul\":6397:6482   */\n      tag_446\n        /* \"#utility.yul\":6474:6481   */\n      dup10\n        /* \"#utility.yul\":6465:6471   */\n      dup3\n        /* \"#utility.yul\":6454:6463   */\n      dup11\n        /* \"#utility.yul\":6450:6472   */\n      add\n        /* \"#utility.yul\":6397:6482   */\n      tag_391\n      jump\t// in\n    tag_446:\n        /* \"#utility.yul\":6387:6482   */\n      swap7\n      pop\n        /* \"#utility.yul\":6183:6492   */\n      pop\n        /* \"#utility.yul\":6559:6561   */\n      0x20\n        /* \"#utility.yul\":6548:6557   */\n      dup8\n        /* \"#utility.yul\":6544:6562   */\n      add\n        /* \"#utility.yul\":6531:6563   */\n      calldataload\n        /* \"#utility.yul\":6590:6608   */\n      0xffffffffffffffff\n        /* \"#utility.yul\":6582:6588   */\n      dup2\n        /* \"#utility.yul\":6579:6609   */\n      gt\n        /* \"#utility.yul\":6576:6693   */\n      iszero\n      tag_447\n      jumpi\n        /* \"#utility.yul\":6612:6691   */\n      tag_448\n      tag_430\n      jump\t// in\n    tag_448:\n        /* \"#utility.yul\":6576:6693   */\n    tag_447:\n        /* \"#utility.yul\":6725:6789   */\n      tag_449\n        /* \"#utility.yul\":6781:6788   */\n      dup10\n        /* \"#utility.yul\":6772:6778   */\n      dup3\n        /* \"#utility.yul\":6761:6770   */\n      dup11\n        /* \"#utility.yul\":6757:6779   */\n      add\n        /* \"#utility.yul\":6725:6789   */\n      tag_371\n      jump\t// in\n    tag_449:\n        /* \"#utility.yul\":6707:6789   */\n      swap6\n      pop\n      swap6\n      pop\n        /* \"#utility.yul\":6502:6799   */\n      pop\n        /* \"#utility.yul\":6866:6868   */\n      0x40\n        /* \"#utility.yul\":6855:6864   */\n      dup8\n        /* \"#utility.yul\":6851:6869   */\n      add\n        /* \"#utility.yul\":6838:6870   */\n      calldataload\n        /* \"#utility.yul\":6897:6915   */\n      0xffffffffffffffff\n        /* \"#utility.yul\":6889:6895   */\n      dup2\n        /* \"#utility.yul\":6886:6916   */\n      gt\n        /* \"#utility.yul\":6883:7000   */\n      iszero\n      tag_450\n      jumpi\n        /* \"#utility.yul\":6919:6998   */\n      tag_451\n      tag_430\n      jump\t// in\n    tag_451:\n        /* \"#utility.yul\":6883:7000   */\n    tag_450:\n        /* \"#utility.yul\":7032:7096   */\n      tag_452\n        /* \"#utility.yul\":7088:7095   */\n      dup10\n        /* \"#utility.yul\":7079:7085   */\n      dup3\n        /* \"#utility.yul\":7068:7077   */\n      dup11\n        /* \"#utility.yul\":7064:7086   */\n      add\n        /* \"#utility.yul\":7032:7096   */\n      tag_371\n      jump\t// in\n    tag_452:\n        /* \"#utility.yul\":7014:7096   */\n      swap4\n      pop\n      swap4\n      pop\n        /* \"#utility.yul\":6809:7106   */\n      pop\n        /* \"#utility.yul\":7145:7147   */\n      0x60\n        /* \"#utility.yul\":7171:7224   */\n      tag_453\n        /* \"#utility.yul\":7216:7223   */\n      dup10\n        /* \"#utility.yul\":7207:7213   */\n      dup3\n        /* \"#utility.yul\":7196:7205   */\n      dup11\n        /* \"#utility.yul\":7192:7214   */\n      add\n        /* \"#utility.yul\":7171:7224   */\n      tag_395\n      jump\t// in\n    tag_453:\n        /* \"#utility.yul\":7161:7224   */\n      swap2\n      pop\n        /* \"#utility.yul\":7116:7234   */\n      pop\n        /* \"#utility.yul\":5856:7241   */\n      swap3\n      swap6\n      pop\n      swap3\n      swap6\n      pop\n      swap3\n      swap6\n      jump\t// out\n        /* \"#utility.yul\":7247:7598   */\n    tag_197:\n        /* \"#utility.yul\":7317:7323   */\n      0x00\n        /* \"#utility.yul\":7366:7368   */\n      0x20\n        /* \"#utility.yul\":7354:7363   */\n      dup3\n        /* \"#utility.yul\":7345:7352   */\n      dup5\n        /* \"#utility.yul\":7341:7364   */\n      sub\n        /* \"#utility.yul\":7337:7369   */\n      slt\n        /* \"#utility.yul\":7334:7453   */\n      iszero\n      tag_455\n      jumpi\n        /* \"#utility.yul\":7372:7451   */\n      tag_456\n      tag_405\n      jump\t// in\n    tag_456:\n        /* \"#utility.yul\":7334:7453   */\n    tag_455:\n        /* \"#utility.yul\":7492:7493   */\n      0x00\n        /* \"#utility.yul\":7517:7581   */\n      tag_457\n        /* \"#utility.yul\":7573:7580   */\n      dup5\n        /* \"#utility.yul\":7564:7570   */\n      dup3\n        /* \"#utility.yul\":7553:7562   */\n      dup6\n        /* \"#utility.yul\":7549:7571   */\n      add\n        /* \"#utility.yul\":7517:7581   */\n      tag_399\n      jump\t// in\n    tag_457:\n        /* \"#utility.yul\":7507:7581   */\n      swap2\n      pop\n        /* \"#utility.yul\":7463:7591   */\n      pop\n        /* \"#utility.yul\":7247:7598   */\n      swap3\n      swap2\n      pop\n      pop\n      jump\t// out\n        /* \"#utility.yul\":7604:8094   */\n    tag_52:\n        /* \"#utility.yul\":7680:7686   */\n      0x00\n        /* \"#utility.yul\":7688:7694   */\n      dup1\n        /* \"#utility.yul\":7737:7739   */\n      0x40\n        /* \"#utility.yul\":7725:7734   */\n      dup4\n        /* \"#utility.yul\":7716:7723   */\n      dup6\n        /* \"#utility.yul\":7712:7735   */\n      sub\n        /* \"#utility.yul\":7708:7740   */\n      slt\n        /* \"#utility.yul\":7705:7824   */\n      iszero\n      tag_459\n      jumpi\n        /* \"#utility.yul\":7743:7822   */\n      tag_460\n      tag_405\n      jump\t// in\n    tag_460:\n        /* \"#utility.yul\":7705:7824   */\n    tag_459:\n        /* \"#utility.yul\":7863:7864   */\n      0x00\n        /* \"#utility.yul\":7888:7941   */\n      tag_461\n        /* \"#utility.yul\":7933:7940   */\n      dup6\n        /* \"#utility.yul\":7924:7930   */\n      dup3\n        /* \"#utility.yul\":7913:7922   */\n      dup7\n        /* \"#utility.yul\":7909:7931   */\n      add\n        /* \"#utility.yul\":7888:7941   */\n      tag_395\n      jump\t// in\n    tag_461:\n        /* \"#utility.yul\":7878:7941   */\n      swap3\n      pop\n        /* \"#utility.yul\":7834:7951   */\n      pop\n        /* \"#utility.yul\":7990:7992   */\n      0x20\n        /* \"#utility.yul\":8016:8077   */\n      tag_462\n        /* \"#utility.yul\":8069:8076   */\n      dup6\n        /* \"#utility.yul\":8060:8066   */\n      dup3\n        /* \"#utility.yul\":8049:8058   */\n      dup7\n        /* \"#utility.yul\":8045:8067   */\n      add\n        /* \"#utility.yul\":8016:8077   */\n      tag_356\n      jump\t// in\n    tag_462:\n        /* \"#utility.yul\":8006:8077   */\n      swap2\n      pop\n        /* \"#utility.yul\":7961:8087   */\n      pop\n        /* \"#utility.yul\":7604:8094   */\n      swap3\n      pop\n      swap3\n      swap1\n      pop\n      jump\t// out\n        /* \"#utility.yul\":8100:8242   */\n    tag_463:\n        /* \"#utility.yul\":8203:8235   */\n      tag_465\n        /* \"#utility.yul\":8229:8234   */\n      dup2\n        /* \"#utility.yul\":8203:8235   */\n      tag_466\n      jump\t// in\n    tag_465:\n        /* \"#utility.yul\":8198:8201   */\n      dup3\n        /* \"#utility.yul\":8191:8236   */\n      mstore\n        /* \"#utility.yul\":8100:8242   */\n      pop\n      pop\n      jump\t// out\n        /* \"#utility.yul\":8248:8366   */\n    tag_467:\n        /* \"#utility.yul\":8335:8359   */\n      tag_469\n        /* \"#utility.yul\":8353:8358   */\n      dup2\n        /* \"#utility.yul\":8335:8359   */\n      tag_470\n      jump\t// in\n    tag_469:\n        /* \"#utility.yul\":8330:8333   */\n      dup3\n        /* \"#utility.yul\":8323:8360   */\n      mstore\n        /* \"#utility.yul\":8248:8366   */\n      pop\n      pop\n      jump\t// out\n        /* \"#utility.yul\":8372:8481   */\n    tag_471:\n        /* \"#utility.yul\":8453:8474   */\n      tag_473\n        /* \"#utility.yul\":8468:8473   */\n      dup2\n        /* \"#utility.yul\":8453:8474   */\n      tag_474\n      jump\t// in\n    tag_473:\n        /* \"#utility.yul\":8448:8451   */\n      dup3\n        /* \"#utility.yul\":8441:8475   */\n      mstore\n        /* \"#utility.yul\":8372:8481   */\n      pop\n      pop\n      jump\t// out\n        /* \"#utility.yul\":8487:8602   */\n    tag_475:\n        /* \"#utility.yul\":8572:8595   */\n      tag_477\n        /* \"#utility.yul\":8589:8594   */\n      dup2\n        /* \"#utility.yul\":8572:8595   */\n      tag_478\n      jump\t// in\n    tag_477:\n        /* \"#utility.yul\":8567:8570   */\n      dup3\n        /* \"#utility.yul\":8560:8596   */\n      mstore\n        /* \"#utility.yul\":8487:8602   */\n      pop\n      pop\n      jump\t// out\n        /* \"#utility.yul\":8608:8968   */\n    tag_479:\n        /* \"#utility.yul\":8694:8697   */\n      0x00\n        /* \"#utility.yul\":8722:8760   */\n      tag_481\n        /* \"#utility.yul\":8754:8759   */\n      dup3\n        /* \"#utility.yul\":8722:8760   */\n      tag_482\n      jump\t// in\n    tag_481:\n        /* \"#utility.yul\":8776:8846   */\n      tag_483\n        /* \"#utility.yul\":8839:8845   */\n      dup2\n        /* \"#utility.yul\":8834:8837   */\n      dup6\n        /* \"#utility.yul\":8776:8846   */\n      tag_484\n      jump\t// in\n    tag_483:\n        /* \"#utility.yul\":8769:8846   */\n      swap4\n      pop\n        /* \"#utility.yul\":8855:8907   */\n      tag_485\n        /* \"#utility.yul\":8900:8906   */\n      dup2\n        /* \"#utility.yul\":8895:8898   */\n      dup6\n        /* \"#utility.yul\":8888:8892   */\n      0x20\n        /* \"#utility.yul\":8881:8886   */\n      dup7\n        /* \"#utility.yul\":8877:8893   */\n      add\n        /* \"#utility.yul\":8855:8907   */\n      tag_486\n      jump\t// in\n    tag_485:\n        /* \"#utility.yul\":8932:8961   */\n      tag_487\n        /* \"#utility.yul\":8954:8960   */\n      dup2\n        /* \"#utility.yul\":8932:8961   */\n      tag_488\n      jump\t// in\n    tag_487:\n        /* \"#utility.yul\":8927:8930   */\n      dup5\n        /* \"#utility.yul\":8923:8962   */\n      add\n        /* \"#utility.yul\":8916:8962   */\n      swap2\n      pop\n        /* \"#utility.yul\":8698:8968   */\n      pop\n        /* \"#utility.yul\":8608:8968   */\n      swap3\n      swap2\n      pop\n      pop\n      jump\t// out\n        /* \"#utility.yul\":8974:9347   */\n    tag_489:\n        /* \"#utility.yul\":9078:9081   */\n      0x00\n        /* \"#utility.yul\":9106:9144   */\n      tag_491\n        /* \"#utility.yul\":9138:9143   */\n      dup3\n        /* \"#utility.yul\":9106:9144   */\n      tag_482\n      jump\t// in\n    tag_491:\n        /* \"#utility.yul\":9160:9248   */\n      tag_492\n        /* \"#utility.yul\":9241:9247   */\n      dup2\n        /* \"#utility.yul\":9236:9239   */\n      dup6\n        /* \"#utility.yul\":9160:9248   */\n      tag_493\n      jump\t// in\n    tag_492:\n        /* \"#utility.yul\":9153:9248   */\n      swap4\n      pop\n        /* \"#utility.yul\":9257:9309   */\n      tag_494\n        /* \"#utility.yul\":9302:9308   */\n      dup2\n        /* \"#utility.yul\":9297:9300   */\n      dup6\n        /* \"#utility.yul\":9290:9294   */\n      0x20\n        /* \"#utility.yul\":9283:9288   */\n      dup7\n        /* \"#utility.yul\":9279:9295   */\n      add\n        /* \"#utility.yul\":9257:9309   */\n      tag_486\n      jump\t// in\n    tag_494:\n        /* \"#utility.yul\":9334:9340   */\n      dup1\n        /* \"#utility.yul\":9329:9332   */\n      dup5\n        /* \"#utility.yul\":9325:9341   */\n      add\n        /* \"#utility.yul\":9318:9341   */\n      swap2\n      pop\n        /* \"#utility.yul\":9082:9347   */\n      pop\n        /* \"#utility.yul\":8974:9347   */\n      swap3\n      swap2\n      pop\n      pop\n      jump\t// out\n        /* \"#utility.yul\":9353:9717   */\n    tag_495:\n        /* \"#utility.yul\":9441:9444   */\n      0x00\n        /* \"#utility.yul\":9469:9508   */\n      tag_497\n        /* \"#utility.yul\":9502:9507   */\n      dup3\n        /* \"#utility.yul\":9469:9508   */\n      tag_498\n      jump\t// in\n    tag_497:\n        /* \"#utility.yul\":9524:9595   */\n      tag_499\n        /* \"#utility.yul\":9588:9594   */\n      dup2\n        /* \"#utility.yul\":9583:9586   */\n      dup6\n        /* \"#utility.yul\":9524:9595   */\n      tag_500\n      jump\t// in\n    tag_499:\n        /* \"#utility.yul\":9517:9595   */\n      swap4\n      pop\n        /* \"#utility.yul\":9604:9656   */\n      tag_501\n        /* \"#utility.yul\":9649:9655   */\n      dup2\n        /* \"#utility.yul\":9644:9647   */\n      dup6\n        /* \"#utility.yul\":9637:9641   */\n      0x20\n        /* \"#utility.yul\":9630:9635   */\n      dup7\n        /* \"#utility.yul\":9626:9642   */\n      add\n        /* \"#utility.yul\":9604:9656   */\n      tag_486\n      jump\t// in\n    tag_501:\n        /* \"#utility.yul\":9681:9710   */\n      tag_502\n        /* \"#utility.yul\":9703:9709   */\n      dup2\n        /* \"#utility.yul\":9681:9710   */\n      tag_488\n      jump\t// in\n    tag_502:\n        /* \"#utility.yul\":9676:9679   */\n      dup5\n        /* \"#utility.yul\":9672:9711   */\n      add\n        /* \"#utility.yul\":9665:9711   */\n      swap2\n      pop\n        /* \"#utility.yul\":9445:9717   */\n      pop\n        /* \"#utility.yul\":9353:9717   */\n      swap3\n      swap2\n      pop\n      pop\n      jump\t// out\n        /* \"#utility.yul\":9723:10089   */\n    tag_503:\n        /* \"#utility.yul\":9865:9868   */\n      0x00\n        /* \"#utility.yul\":9886:9953   */\n      tag_505\n        /* \"#utility.yul\":9950:9952   */\n      0x0c\n        /* \"#utility.yul\":9945:9948   */\n      dup4\n        /* \"#utility.yul\":9886:9953   */\n      tag_500\n      jump\t// in\n    tag_505:\n        /* \"#utility.yul\":9879:9953   */\n      swap2\n      pop\n        /* \"#utility.yul\":9962:10055   */\n      tag_506\n        /* \"#utility.yul\":10051:10054   */\n      dup3\n        /* \"#utility.yul\":9962:10055   */\n      tag_507\n      jump\t// in\n    tag_506:\n        /* \"#utility.yul\":10080:10082   */\n      0x20\n        /* \"#utility.yul\":10075:10078   */\n      dup3\n        /* \"#utility.yul\":10071:10083   */\n      add\n        /* \"#utility.yul\":10064:10083   */\n      swap1\n      pop\n        /* \"#utility.yul\":9723:10089   */\n      swap2\n      swap1\n      pop\n      jump\t// out\n        /* \"#utility.yul\":10095:10461   */\n    tag_508:\n        /* \"#utility.yul\":10237:10240   */\n      0x00\n        /* \"#utility.yul\":10258:10325   */\n      tag_510\n        /* \"#utility.yul\":10322:10324   */\n      0x1c\n        /* \"#utility.yul\":10317:10320   */\n      dup4\n        /* \"#utility.yul\":10258:10325   */\n      tag_500\n      jump\t// in\n    tag_510:\n        /* \"#utility.yul\":10251:10325   */\n      swap2\n      pop\n        /* \"#utility.yul\":10334:10427   */\n      tag_511\n        /* \"#utility.yul\":10423:10426   */\n      dup3\n        /* \"#utility.yul\":10334:10427   */\n      tag_512\n      jump\t// in\n    tag_511:\n        /* \"#utility.yul\":10452:10454   */\n      0x20\n        /* \"#utility.yul\":10447:10450   */\n      dup3\n        /* \"#utility.yul\":10443:10455   */\n      add\n        /* \"#utility.yul\":10436:10455   */\n      swap1\n      pop\n        /* \"#utility.yul\":10095:10461   */\n      swap2\n      swap1\n      pop\n      jump\t// out\n        /* \"#utility.yul\":10467:10833   */\n    tag_513:\n        /* \"#utility.yul\":10609:10612   */\n      0x00\n        /* \"#utility.yul\":10630:10697   */\n      tag_515\n        /* \"#utility.yul\":10694:10696   */\n      0x1f\n        /* \"#utility.yul\":10689:10692   */\n      dup4\n        /* \"#utility.yul\":10630:10697   */\n      tag_500\n      jump\t// in\n    tag_515:\n        /* \"#utility.yul\":10623:10697   */\n      swap2\n      pop\n        /* \"#utility.yul\":10706:10799   */\n      tag_516\n        /* \"#utility.yul\":10795:10798   */\n      dup3\n        /* \"#utility.yul\":10706:10799   */\n      tag_517\n      jump\t// in\n    tag_516:\n        /* \"#utility.yul\":10824:10826   */\n      0x20\n        /* \"#utility.yul\":10819:10822   */\n      dup3\n        /* \"#utility.yul\":10815:10827   */\n      add\n        /* \"#utility.yul\":10808:10827   */\n      swap1\n      pop\n        /* \"#utility.yul\":10467:10833   */\n      swap2\n      swap1\n      pop\n      jump\t// out\n        /* \"#utility.yul\":10839:11205   */\n    tag_518:\n        /* \"#utility.yul\":10981:10984   */\n      0x00\n        /* \"#utility.yul\":11002:11069   */\n      tag_520\n        /* \"#utility.yul\":11066:11068   */\n      0x26\n        /* \"#utility.yul\":11061:11064   */\n      dup4\n        /* \"#utility.yul\":11002:11069   */\n      tag_500\n      jump\t// in\n    tag_520:\n        /* \"#utility.yul\":10995:11069   */\n      swap2\n      pop\n        /* \"#utility.yul\":11078:11171   */\n      tag_521\n        /* \"#utility.yul\":11167:11170   */\n      dup3\n        /* \"#utility.yul\":11078:11171   */\n      tag_522\n      jump\t// in\n    tag_521:\n        /* \"#utility.yul\":11196:11198   */\n      0x40\n        /* \"#utility.yul\":11191:11194   */\n      dup3\n        /* \"#utility.yul\":11187:11199   */\n      add\n        /* \"#utility.yul\":11180:11199   */\n      swap1\n      pop\n        /* \"#utility.yul\":10839:11205   */\n      swap2\n      swap1\n      pop\n      jump\t// out\n        /* \"#utility.yul\":11211:11577   */\n    tag_523:\n        /* \"#utility.yul\":11353:11356   */\n      0x00\n        /* \"#utility.yul\":11374:11441   */\n      tag_525\n        /* \"#utility.yul\":11438:11440   */\n      0x1c\n        /* \"#utility.yul\":11433:11436   */\n      dup4\n        /* \"#utility.yul\":11374:11441   */\n      tag_500\n      jump\t// in\n    tag_525:\n        /* \"#utility.yul\":11367:11441   */\n      swap2\n      pop\n        /* \"#utility.yul\":11450:11543   */\n      tag_526\n        /* \"#utility.yul\":11539:11542   */\n      dup3\n        /* \"#utility.yul\":11450:11543   */\n      tag_527\n      jump\t// in\n    tag_526:\n        /* \"#utility.yul\":11568:11570   */\n      0x20\n        /* \"#utility.yul\":11563:11566   */\n      dup3\n        /* \"#utility.yul\":11559:11571   */\n      add\n        /* \"#utility.yul\":11552:11571   */\n      swap1\n      pop\n        /* \"#utility.yul\":11211:11577   */\n      swap2\n      swap1\n      pop\n      jump\t// out\n        /* \"#utility.yul\":11583:11949   */\n    tag_528:\n        /* \"#utility.yul\":11725:11728   */\n      0x00\n        /* \"#utility.yul\":11746:11813   */\n      tag_530\n        /* \"#utility.yul\":11810:11812   */\n      0x19\n        /* \"#utility.yul\":11805:11808   */\n      dup4\n        /* \"#utility.yul\":11746:11813   */\n      tag_500\n      jump\t// in\n    tag_530:\n        /* \"#utility.yul\":11739:11813   */\n      swap2\n      pop\n        /* \"#utility.yul\":11822:11915   */\n      tag_531\n        /* \"#utility.yul\":11911:11914   */\n      dup3\n        /* \"#utility.yul\":11822:11915   */\n      tag_532\n      jump\t// in\n    tag_531:\n        /* \"#utility.yul\":11940:11942   */\n      0x20\n        /* \"#utility.yul\":11935:11938   */\n      dup3\n        /* \"#utility.yul\":11931:11943   */\n      add\n        /* \"#utility.yul\":11924:11943   */\n      swap1\n      pop\n        /* \"#utility.yul\":11583:11949   */\n      swap2\n      swap1\n      pop\n      jump\t// out\n        /* \"#utility.yul\":11955:12321   */\n    tag_533:\n        /* \"#utility.yul\":12097:12100   */\n      0x00\n        /* \"#utility.yul\":12118:12185   */\n      tag_535\n        /* \"#utility.yul\":12182:12184   */\n      0x18\n        /* \"#utility.yul\":12177:12180   */\n      dup4\n        /* \"#utility.yul\":12118:12185   */\n      tag_500\n      jump\t// in\n    tag_535:\n        /* \"#utility.yul\":12111:12185   */\n      swap2\n      pop\n        /* \"#utility.yul\":12194:12287   */\n      tag_536\n        /* \"#utility.yul\":12283:12286   */\n      dup3\n        /* \"#utility.yul\":12194:12287   */\n      tag_537\n      jump\t// in\n    tag_536:\n        /* \"#utility.yul\":12312:12314   */\n      0x20\n        /* \"#utility.yul\":12307:12310   */\n      dup3\n        /* \"#utility.yul\":12303:12315   */\n      add\n        /* \"#utility.yul\":12296:12315   */\n      swap1\n      pop\n        /* \"#utility.yul\":11955:12321   */\n      swap2\n      swap1\n      pop\n      jump\t// out\n        /* \"#utility.yul\":12327:12693   */\n    tag_538:\n        /* \"#utility.yul\":12469:12472   */\n      0x00\n        /* \"#utility.yul\":12490:12557   */\n      tag_540\n        /* \"#utility.yul\":12554:12556   */\n      0x0e\n        /* \"#utility.yul\":12549:12552   */\n      dup4\n        /* \"#utility.yul\":12490:12557   */\n      tag_500\n      jump\t// in\n    tag_540:\n        /* \"#utility.yul\":12483:12557   */\n      swap2\n      pop\n        /* \"#utility.yul\":12566:12659   */\n      tag_541\n        /* \"#utility.yul\":12655:12658   */\n      dup3\n        /* \"#utility.yul\":12566:12659   */\n      tag_542\n      jump\t// in\n    tag_541:\n        /* \"#utility.yul\":12684:12686   */\n      0x20\n        /* \"#utility.yul\":12679:12682   */\n      dup3\n        /* \"#utility.yul\":12675:12687   */\n      add\n        /* \"#utility.yul\":12668:12687   */\n      swap1\n      pop\n        /* \"#utility.yul\":12327:12693   */\n      swap2\n      swap1\n      pop\n      jump\t// out\n        /* \"#utility.yul\":12699:13065   */\n    tag_543:\n        /* \"#utility.yul\":12841:12844   */\n      0x00\n        /* \"#utility.yul\":12862:12929   */\n      tag_545\n        /* \"#utility.yul\":12926:12928   */\n      0x20\n        /* \"#utility.yul\":12921:12924   */\n      dup4\n        /* \"#utility.yul\":12862:12929   */\n      tag_500\n      jump\t// in\n    tag_545:\n        /* \"#utility.yul\":12855:12929   */\n      swap2\n      pop\n        /* \"#utility.yul\":12938:13031   */\n      tag_546\n        /* \"#utility.yul\":13027:13030   */\n      dup3\n        /* \"#utility.yul\":12938:13031   */\n      tag_547\n      jump\t// in\n    tag_546:\n        /* \"#utility.yul\":13056:13058   */\n      0x20\n        /* \"#utility.yul\":13051:13054   */\n      dup3\n        /* \"#utility.yul\":13047:13059   */\n      add\n        /* \"#utility.yul\":13040:13059   */\n      swap1\n      pop\n        /* \"#utility.yul\":12699:13065   */\n      swap2\n      swap1\n      pop\n      jump\t// out\n        /* \"#utility.yul\":13071:13437   */\n    tag_548:\n        /* \"#utility.yul\":13213:13216   */\n      0x00\n        /* \"#utility.yul\":13234:13301   */\n      tag_550\n        /* \"#utility.yul\":13298:13300   */\n      0x20\n        /* \"#utility.yul\":13293:13296   */\n      dup4\n        /* \"#utility.yul\":13234:13301   */\n      tag_500\n      jump\t// in\n    tag_550:\n        /* \"#utility.yul\":13227:13301   */\n      swap2\n      pop\n        /* \"#utility.yul\":13310:13403   */\n      tag_551\n        /* \"#utility.yul\":13399:13402   */\n      dup3\n        /* \"#utility.yul\":13310:13403   */\n      tag_552\n      jump\t// in\n    tag_551:\n        /* \"#utility.yul\":13428:13430   */\n      0x20\n        /* \"#utility.yul\":13423:13426   */\n      dup3\n        /* \"#utility.yul\":13419:13431   */\n      add\n        /* \"#utility.yul\":13412:13431   */\n      swap1\n      pop\n        /* \"#utility.yul\":13071:13437   */\n      swap2\n      swap1\n      pop\n      jump\t// out\n        /* \"#utility.yul\":13443:13809   */\n    tag_553:\n        /* \"#utility.yul\":13585:13588   */\n      0x00\n        /* \"#utility.yul\":13606:13673   */\n      tag_555\n        /* \"#utility.yul\":13670:13672   */\n      0x20\n        /* \"#utility.yul\":13665:13668   */\n      dup4\n        /* \"#utility.yul\":13606:13673   */\n      tag_500\n      jump\t// in\n    tag_555:\n        /* \"#utility.yul\":13599:13673   */\n      swap2\n      pop\n        /* \"#utility.yul\":13682:13775   */\n      tag_556\n        /* \"#utility.yul\":13771:13774   */\n      dup3\n        /* \"#utility.yul\":13682:13775   */\n      tag_557\n      jump\t// in\n    tag_556:\n        /* \"#utility.yul\":13800:13802   */\n      0x20\n        /* \"#utility.yul\":13795:13798   */\n      dup3\n        /* \"#utility.yul\":13791:13803   */\n      add\n        /* \"#utility.yul\":13784:13803   */\n      swap1\n      pop\n        /* \"#utility.yul\":13443:13809   */\n      swap2\n      swap1\n      pop\n      jump\t// out\n        /* \"#utility.yul\":13815:14181   */\n    tag_558:\n        /* \"#utility.yul\":13957:13960   */\n      0x00\n        /* \"#utility.yul\":13978:14045   */\n      tag_560\n        /* \"#utility.yul\":14042:14044   */\n      0x1f\n        /* \"#utility.yul\":14037:14040   */\n      dup4\n        /* \"#utility.yul\":13978:14045   */\n      tag_500\n      jump\t// in\n    tag_560:\n        /* \"#utility.yul\":13971:14045   */\n      swap2\n      pop\n        /* \"#utility.yul\":14054:14147   */\n      tag_561\n        /* \"#utility.yul\":14143:14146   */\n      dup3\n        /* \"#utility.yul\":14054:14147   */\n      tag_562\n      jump\t// in\n    tag_561:\n        /* \"#utility.yul\":14172:14174   */\n      0x20\n        /* \"#utility.yul\":14167:14170   */\n      dup3\n        /* \"#utility.yul\":14163:14175   */\n      add\n        /* \"#utility.yul\":14156:14175   */\n      swap1\n      pop\n        /* \"#utility.yul\":13815:14181   */\n      swap2\n      swap1\n      pop\n      jump\t// out\n        /* \"#utility.yul\":14187:14553   */\n    tag_563:\n        /* \"#utility.yul\":14329:14332   */\n      0x00\n        /* \"#utility.yul\":14350:14417   */\n      tag_565\n        /* \"#utility.yul\":14414:14416   */\n      0x1e\n        /* \"#utility.yul\":14409:14412   */\n      dup4\n        /* \"#utility.yul\":14350:14417   */\n      tag_500\n      jump\t// in\n    tag_565:\n        /* \"#utility.yul\":14343:14417   */\n      swap2\n      pop\n        /* \"#utility.yul\":14426:14519   */\n      tag_566\n        /* \"#utility.yul\":14515:14518   */\n      dup3\n        /* \"#utility.yul\":14426:14519   */\n      tag_567\n      jump\t// in\n    tag_566:\n        /* \"#utility.yul\":14544:14546   */\n      0x20\n        /* \"#utility.yul\":14539:14542   */\n      dup3\n        /* \"#utility.yul\":14535:14547   */\n      add\n        /* \"#utility.yul\":14528:14547   */\n      swap1\n      pop\n        /* \"#utility.yul\":14187:14553   */\n      swap2\n      swap1\n      pop\n      jump\t// out\n        /* \"#utility.yul\":14559:14925   */\n    tag_568:\n        /* \"#utility.yul\":14701:14704   */\n      0x00\n        /* \"#utility.yul\":14722:14789   */\n      tag_570\n        /* \"#utility.yul\":14786:14788   */\n      0x1c\n        /* \"#utility.yul\":14781:14784   */\n      dup4\n        /* \"#utility.yul\":14722:14789   */\n      tag_500\n      jump\t// in\n    tag_570:\n        /* \"#utility.yul\":14715:14789   */\n      swap2\n      pop\n        /* \"#utility.yul\":14798:14891   */\n      tag_571\n        /* \"#utility.yul\":14887:14890   */\n      dup3\n        /* \"#utility.yul\":14798:14891   */\n      tag_572\n      jump\t// in\n    tag_571:\n        /* \"#utility.yul\":14916:14918   */\n      0x20\n        /* \"#utility.yul\":14911:14914   */\n      dup3\n        /* \"#utility.yul\":14907:14919   */\n      add\n        /* \"#utility.yul\":14900:14919   */\n      swap1\n      pop\n        /* \"#utility.yul\":14559:14925   */\n      swap2\n      swap1\n      pop\n      jump\t// out\n        /* \"#utility.yul\":14931:15297   */\n    tag_573:\n        /* \"#utility.yul\":15073:15076   */\n      0x00\n        /* \"#utility.yul\":15094:15161   */\n      tag_575\n        /* \"#utility.yul\":15158:15160   */\n      0x1b\n        /* \"#utility.yul\":15153:15156   */\n      dup4\n        /* \"#utility.yul\":15094:15161   */\n      tag_500\n      jump\t// in\n    tag_575:\n        /* \"#utility.yul\":15087:15161   */\n      swap2\n      pop\n        /* \"#utility.yul\":15170:15263   */\n      tag_576\n        /* \"#utility.yul\":15259:15262   */\n      dup3\n        /* \"#utility.yul\":15170:15263   */\n      tag_577\n      jump\t// in\n    tag_576:\n        /* \"#utility.yul\":15288:15290   */\n      0x20\n        /* \"#utility.yul\":15283:15286   */\n      dup3\n        /* \"#utility.yul\":15279:15291   */\n      add\n        /* \"#utility.yul\":15272:15291   */\n      swap1\n      pop\n        /* \"#utility.yul\":14931:15297   */\n      swap2\n      swap1\n      pop\n      jump\t// out\n        /* \"#utility.yul\":15383:16316   */\n    tag_578:\n        /* \"#utility.yul\":15546:15550   */\n      0x80\n        /* \"#utility.yul\":15541:15544   */\n      dup3\n        /* \"#utility.yul\":15537:15551   */\n      add\n        /* \"#utility.yul\":15645:15649   */\n      0x00\n        /* \"#utility.yul\":15638:15643   */\n      dup3\n        /* \"#utility.yul\":15634:15650   */\n      add\n        /* \"#utility.yul\":15628:15651   */\n      mload\n        /* \"#utility.yul\":15664:15727   */\n      tag_580\n        /* \"#utility.yul\":15721:15725   */\n      0x00\n        /* \"#utility.yul\":15716:15719   */\n      dup6\n        /* \"#utility.yul\":15712:15726   */\n      add\n        /* \"#utility.yul\":15698:15710   */\n      dup3\n        /* \"#utility.yul\":15664:15727   */\n      tag_581\n      jump\t// in\n    tag_580:\n        /* \"#utility.yul\":15561:15737   */\n      pop\n        /* \"#utility.yul\":15837:15841   */\n      0x20\n        /* \"#utility.yul\":15830:15835   */\n      dup3\n        /* \"#utility.yul\":15826:15842   */\n      add\n        /* \"#utility.yul\":15820:15843   */\n      mload\n        /* \"#utility.yul\":15856:15919   */\n      tag_582\n        /* \"#utility.yul\":15913:15917   */\n      0x20\n        /* \"#utility.yul\":15908:15911   */\n      dup6\n        /* \"#utility.yul\":15904:15918   */\n      add\n        /* \"#utility.yul\":15890:15902   */\n      dup3\n        /* \"#utility.yul\":15856:15919   */\n      tag_581\n      jump\t// in\n    tag_582:\n        /* \"#utility.yul\":15747:15929   */\n      pop\n        /* \"#utility.yul\":16030:16034   */\n      0x40\n        /* \"#utility.yul\":16023:16028   */\n      dup3\n        /* \"#utility.yul\":16019:16035   */\n      add\n        /* \"#utility.yul\":16013:16036   */\n      mload\n        /* \"#utility.yul\":16049:16112   */\n      tag_583\n        /* \"#utility.yul\":16106:16110   */\n      0x40\n        /* \"#utility.yul\":16101:16104   */\n      dup6\n        /* \"#utility.yul\":16097:16111   */\n      add\n        /* \"#utility.yul\":16083:16095   */\n      dup3\n        /* \"#utility.yul\":16049:16112   */\n      tag_581\n      jump\t// in\n    tag_583:\n        /* \"#utility.yul\":15939:16122   */\n      pop\n        /* \"#utility.yul\":16217:16221   */\n      0x60\n        /* \"#utility.yul\":16210:16215   */\n      dup3\n        /* \"#utility.yul\":16206:16222   */\n      add\n        /* \"#utility.yul\":16200:16223   */\n      mload\n        /* \"#utility.yul\":16236:16299   */\n      tag_584\n        /* \"#utility.yul\":16293:16297   */\n      0x60\n        /* \"#utility.yul\":16288:16291   */\n      dup6\n        /* \"#utility.yul\":16284:16298   */\n      add\n        /* \"#utility.yul\":16270:16282   */\n      dup3\n        /* \"#utility.yul\":16236:16299   */\n      tag_581\n      jump\t// in\n    tag_584:\n        /* \"#utility.yul\":16132:16309   */\n      pop\n        /* \"#utility.yul\":15515:16316   */\n      pop\n        /* \"#utility.yul\":15383:16316   */\n      pop\n      pop\n      jump\t// out\n        /* \"#utility.yul\":16322:16430   */\n    tag_581:\n        /* \"#utility.yul\":16399:16423   */\n      tag_586\n        /* \"#utility.yul\":16417:16422   */\n      dup2\n        /* \"#utility.yul\":16399:16423   */\n      tag_587\n      jump\t// in\n    tag_586:\n        /* \"#utility.yul\":16394:16397   */\n      dup3\n        /* \"#utility.yul\":16387:16424   */\n      mstore\n        /* \"#utility.yul\":16322:16430   */\n      pop\n      pop\n      jump\t// out\n        /* \"#utility.yul\":16436:16554   */\n    tag_588:\n        /* \"#utility.yul\":16523:16547   */\n      tag_590\n        /* \"#utility.yul\":16541:16546   */\n      dup2\n        /* \"#utility.yul\":16523:16547   */\n      tag_587\n      jump\t// in\n    tag_590:\n        /* \"#utility.yul\":16518:16521   */\n      dup3\n        /* \"#utility.yul\":16511:16548   */\n      mstore\n        /* \"#utility.yul\":16436:16554   */\n      pop\n      pop\n      jump\t// out\n        /* \"#utility.yul\":16560:16831   */\n    tag_326:\n        /* \"#utility.yul\":16690:16693   */\n      0x00\n        /* \"#utility.yul\":16712:16805   */\n      tag_592\n        /* \"#utility.yul\":16801:16804   */\n      dup3\n        /* \"#utility.yul\":16792:16798   */\n      dup5\n        /* \"#utility.yul\":16712:16805   */\n      tag_489\n      jump\t// in\n    tag_592:\n        /* \"#utility.yul\":16705:16805   */\n      swap2\n      pop\n        /* \"#utility.yul\":16822:16825   */\n      dup2\n        /* \"#utility.yul\":16815:16825   */\n      swap1\n      pop\n        /* \"#utility.yul\":16560:16831   */\n      swap3\n      swap2\n      pop\n      pop\n      jump\t// out\n        /* \"#utility.yul\":16837:17059   */\n    tag_38:\n        /* \"#utility.yul\":16930:16934   */\n      0x00\n        /* \"#utility.yul\":16968:16970   */\n      0x20\n        /* \"#utility.yul\":16957:16966   */\n      dup3\n        /* \"#utility.yul\":16953:16971   */\n      add\n        /* \"#utility.yul\":16945:16971   */\n      swap1\n      pop\n        /* \"#utility.yul\":16981:17052   */\n      tag_594\n        /* \"#utility.yul\":17049:17050   */\n      0x00\n        /* \"#utility.yul\":17038:17047   */\n      dup4\n        /* \"#utility.yul\":17034:17051   */\n      add\n        /* \"#utility.yul\":17025:17031   */\n      dup5\n        /* \"#utility.yul\":16981:17052   */\n      tag_467\n      jump\t// in\n    tag_594:\n        /* \"#utility.yul\":16837:17059   */\n      swap3\n      swap2\n      pop\n      pop\n      jump\t// out\n        /* \"#utility.yul\":17065:17429   */\n    tag_177:\n        /* \"#utility.yul\":17202:17206   */\n      0x00\n        /* \"#utility.yul\":17240:17242   */\n      0x40\n        /* \"#utility.yul\":17229:17238   */\n      dup3\n        /* \"#utility.yul\":17225:17243   */\n      add\n        /* \"#utility.yul\":17217:17243   */\n      swap1\n      pop\n        /* \"#utility.yul\":17253:17340   */\n      tag_596\n        /* \"#utility.yul\":17337:17338   */\n      0x00\n        /* \"#utility.yul\":17326:17335   */\n      dup4\n        /* \"#utility.yul\":17322:17339   */\n      add\n        /* \"#utility.yul\":17313:17319   */\n      dup6\n        /* \"#utility.yul\":17253:17340   */\n      tag_463\n      jump\t// in\n    tag_596:\n        /* \"#utility.yul\":17350:17422   */\n      tag_597\n        /* \"#utility.yul\":17418:17420   */\n      0x20\n        /* \"#utility.yul\":17407:17416   */\n      dup4\n        /* \"#utility.yul\":17403:17421   */\n      add\n        /* \"#utility.yul\":17394:17400   */\n      dup5\n        /* \"#utility.yul\":17350:17422   */\n      tag_588\n      jump\t// in\n    tag_597:\n        /* \"#utility.yul\":17065:17429   */\n      swap4\n      swap3\n      pop\n      pop\n      pop\n      jump\t// out\n        /* \"#utility.yul\":17435:17645   */\n    tag_60:\n        /* \"#utility.yul\":17522:17526   */\n      0x00\n        /* \"#utility.yul\":17560:17562   */\n      0x20\n        /* \"#utility.yul\":17549:17558   */\n      dup3\n        /* \"#utility.yul\":17545:17563   */\n      add\n        /* \"#utility.yul\":17537:17563   */\n      swap1\n      pop\n        /* \"#utility.yul\":17573:17638   */\n      tag_599\n        /* \"#utility.yul\":17635:17636   */\n      0x00\n        /* \"#utility.yul\":17624:17633   */\n      dup4\n        /* \"#utility.yul\":17620:17637   */\n      add\n        /* \"#utility.yul\":17611:17617   */\n      dup5\n        /* \"#utility.yul\":17573:17638   */\n      tag_471\n      jump\t// in\n    tag_599:\n        /* \"#utility.yul\":17435:17645   */\n      swap3\n      swap2\n      pop\n      pop\n      jump\t// out\n        /* \"#utility.yul\":17651:17869   */\n    tag_348:\n        /* \"#utility.yul\":17742:17746   */\n      0x00\n        /* \"#utility.yul\":17780:17782   */\n      0x20\n        /* \"#utility.yul\":17769:17778   */\n      dup3\n        /* \"#utility.yul\":17765:17783   */\n      add\n        /* \"#utility.yul\":17757:17783   */\n      swap1\n      pop\n        /* \"#utility.yul\":17793:17862   */\n      tag_601\n        /* \"#utility.yul\":17859:17860   */\n      0x00\n        /* \"#utility.yul\":17848:17857   */\n      dup4\n        /* \"#utility.yul\":17844:17861   */\n      add\n        /* \"#utility.yul\":17835:17841   */\n      dup5\n        /* \"#utility.yul\":17793:17862   */\n      tag_475\n      jump\t// in\n    tag_601:\n        /* \"#utility.yul\":17651:17869   */\n      swap3\n      swap2\n      pop\n      pop\n      jump\t// out\n        /* \"#utility.yul\":17875:18282   */\n    tag_48:\n        /* \"#utility.yul\":18008:18012   */\n      0x00\n        /* \"#utility.yul\":18046:18048   */\n      0x40\n        /* \"#utility.yul\":18035:18044   */\n      dup3\n        /* \"#utility.yul\":18031:18049   */\n      add\n        /* \"#utility.yul\":18023:18049   */\n      swap1\n      pop\n        /* \"#utility.yul\":18095:18104   */\n      dup2\n        /* \"#utility.yul\":18089:18093   */\n      dup2\n        /* \"#utility.yul\":18085:18105   */\n      sub\n        /* \"#utility.yul\":18081:18082   */\n      0x00\n        /* \"#utility.yul\":18070:18079   */\n      dup4\n        /* \"#utility.yul\":18066:18083   */\n      add\n        /* \"#utility.yul\":18059:18106   */\n      mstore\n        /* \"#utility.yul\":18123:18199   */\n      tag_603\n        /* \"#utility.yul\":18194:18198   */\n      dup2\n        /* \"#utility.yul\":18185:18191   */\n      dup6\n        /* \"#utility.yul\":18123:18199   */\n      tag_479\n      jump\t// in\n    tag_603:\n        /* \"#utility.yul\":18115:18199   */\n      swap1\n      pop\n        /* \"#utility.yul\":18209:18275   */\n      tag_604\n        /* \"#utility.yul\":18271:18273   */\n      0x20\n        /* \"#utility.yul\":18260:18269   */\n      dup4\n        /* \"#utility.yul\":18256:18274   */\n      add\n        /* \"#utility.yul\":18247:18253   */\n      dup5\n        /* \"#utility.yul\":18209:18275   */\n      tag_471\n      jump\t// in\n    tag_604:\n        /* \"#utility.yul\":17875:18282   */\n      swap4\n      swap3\n      pop\n      pop\n      pop\n      jump\t// out\n        /* \"#utility.yul\":18288:18601   */\n    tag_125:\n        /* \"#utility.yul\":18401:18405   */\n      0x00\n        /* \"#utility.yul\":18439:18441   */\n      0x20\n        /* \"#utility.yul\":18428:18437   */\n      dup3\n        /* \"#utility.yul\":18424:18442   */\n      add\n        /* \"#utility.yul\":18416:18442   */\n      swap1\n      pop\n        /* \"#utility.yul\":18488:18497   */\n      dup2\n        /* \"#utility.yul\":18482:18486   */\n      dup2\n        /* \"#utility.yul\":18478:18498   */\n      sub\n        /* \"#utility.yul\":18474:18475   */\n      0x00\n        /* \"#utility.yul\":18463:18472   */\n      dup4\n        /* \"#utility.yul\":18459:18476   */\n      add\n        /* \"#utility.yul\":18452:18499   */\n      mstore\n        /* \"#utility.yul\":18516:18594   */\n      tag_606\n        /* \"#utility.yul\":18589:18593   */\n      dup2\n        /* \"#utility.yul\":18580:18586   */\n      dup5\n        /* \"#utility.yul\":18516:18594   */\n      tag_495\n      jump\t// in\n    tag_606:\n        /* \"#utility.yul\":18508:18594   */\n      swap1\n      pop\n        /* \"#utility.yul\":18288:18601   */\n      swap3\n      swap2\n      pop\n      pop\n      jump\t// out\n        /* \"#utility.yul\":18607:19026   */\n    tag_290:\n        /* \"#utility.yul\":18773:18777   */\n      0x00\n        /* \"#utility.yul\":18811:18813   */\n      0x20\n        /* \"#utility.yul\":18800:18809   */\n      dup3\n        /* \"#utility.yul\":18796:18814   */\n      add\n        /* \"#utility.yul\":18788:18814   */\n      swap1\n      pop\n        /* \"#utility.yul\":18860:18869   */\n      dup2\n        /* \"#utility.yul\":18854:18858   */\n      dup2\n        /* \"#utility.yul\":18850:18870   */\n      sub\n        /* \"#utility.yul\":18846:18847   */\n      0x00\n        /* \"#utility.yul\":18835:18844   */\n      dup4\n        /* \"#utility.yul\":18831:18848   */\n      add\n        /* \"#utility.yul\":18824:18871   */\n      mstore\n        /* \"#utility.yul\":18888:19019   */\n      tag_608\n        /* \"#utility.yul\":19014:19018   */\n      dup2\n        /* \"#utility.yul\":18888:19019   */\n      tag_503\n      jump\t// in\n    tag_608:\n        /* \"#utility.yul\":18880:19019   */\n      swap1\n      pop\n        /* \"#utility.yul\":18607:19026   */\n      swap2\n      swap1\n      pop\n      jump\t// out\n        /* \"#utility.yul\":19032:19451   */\n    tag_280:\n        /* \"#utility.yul\":19198:19202   */\n      0x00\n        /* \"#utility.yul\":19236:19238   */\n      0x20\n        /* \"#utility.yul\":19225:19234   */\n      dup3\n        /* \"#utility.yul\":19221:19239   */\n      add\n        /* \"#utility.yul\":19213:19239   */\n      swap1\n      pop\n        /* \"#utility.yul\":19285:19294   */\n      dup2\n        /* \"#utility.yul\":19279:19283   */\n      dup2\n        /* \"#utility.yul\":19275:19295   */\n      sub\n        /* \"#utility.yul\":19271:19272   */\n      0x00\n        /* \"#utility.yul\":19260:19269   */\n      dup4\n        /* \"#utility.yul\":19256:19273   */\n      add\n        /* \"#utility.yul\":19249:19296   */\n      mstore\n        /* \"#utility.yul\":19313:19444   */\n      tag_610\n        /* \"#utility.yul\":19439:19443   */\n      dup2\n        /* \"#utility.yul\":19313:19444   */\n      tag_508\n      jump\t// in\n    tag_610:\n        /* \"#utility.yul\":19305:19444   */\n      swap1\n      pop\n        /* \"#utility.yul\":19032:19451   */\n      swap2\n      swap1\n      pop\n      jump\t// out\n        /* \"#utility.yul\":19457:19876   */\n    tag_340:\n        /* \"#utility.yul\":19623:19627   */\n      0x00\n        /* \"#utility.yul\":19661:19663   */\n      0x20\n        /* \"#utility.yul\":19650:19659   */\n      dup3\n        /* \"#utility.yul\":19646:19664   */\n      add\n        /* \"#utility.yul\":19638:19664   */\n      swap1\n      pop\n        /* \"#utility.yul\":19710:19719   */\n      dup2\n        /* \"#utility.yul\":19704:19708   */\n      dup2\n        /* \"#utility.yul\":19700:19720   */\n      sub\n        /* \"#utility.yul\":19696:19697   */\n      0x00\n        /* \"#utility.yul\":19685:19694   */\n      dup4\n        /* \"#utility.yul\":19681:19698   */\n      add\n        /* \"#utility.yul\":19674:19721   */\n      mstore\n        /* \"#utility.yul\":19738:19869   */\n      tag_612\n        /* \"#utility.yul\":19864:19868   */\n      dup2\n        /* \"#utility.yul\":19738:19869   */\n      tag_513\n      jump\t// in\n    tag_612:\n        /* \"#utility.yul\":19730:19869   */\n      swap1\n      pop\n        /* \"#utility.yul\":19457:19876   */\n      swap2\n      swap1\n      pop\n      jump\t// out\n        /* \"#utility.yul\":19882:20301   */\n    tag_251:\n        /* \"#utility.yul\":20048:20052   */\n      0x00\n        /* \"#utility.yul\":20086:20088   */\n      0x20\n        /* \"#utility.yul\":20075:20084   */\n      dup3\n        /* \"#utility.yul\":20071:20089   */\n      add\n        /* \"#utility.yul\":20063:20089   */\n      swap1\n      pop\n        /* \"#utility.yul\":20135:20144   */\n      dup2\n        /* \"#utility.yul\":20129:20133   */\n      dup2\n        /* \"#utility.yul\":20125:20145   */\n      sub\n        /* \"#utility.yul\":20121:20122   */\n      0x00\n        /* \"#utility.yul\":20110:20119   */\n      dup4\n        /* \"#utility.yul\":20106:20123   */\n      add\n        /* \"#utility.yul\":20099:20146   */\n      mstore\n        /* \"#utility.yul\":20163:20294   */\n      tag_614\n        /* \"#utility.yul\":20289:20293   */\n      dup2\n        /* \"#utility.yul\":20163:20294   */\n      tag_518\n      jump\t// in\n    tag_614:\n        /* \"#utility.yul\":20155:20294   */\n      swap1\n      pop\n        /* \"#utility.yul\":19882:20301   */\n      swap2\n      swap1\n      pop\n      jump\t// out\n        /* \"#utility.yul\":20307:20726   */\n    tag_332:\n        /* \"#utility.yul\":20473:20477   */\n      0x00\n        /* \"#utility.yul\":20511:20513   */\n      0x20\n        /* \"#utility.yul\":20500:20509   */\n      dup3\n        /* \"#utility.yul\":20496:20514   */\n      add\n        /* \"#utility.yul\":20488:20514   */\n      swap1\n      pop\n        /* \"#utility.yul\":20560:20569   */\n      dup2\n        /* \"#utility.yul\":20554:20558   */\n      dup2\n        /* \"#utility.yul\":20550:20570   */\n      sub\n        /* \"#utility.yul\":20546:20547   */\n      0x00\n        /* \"#utility.yul\":20535:20544   */\n      dup4\n        /* \"#utility.yul\":20531:20548   */\n      add\n        /* \"#utility.yul\":20524:20571   */\n      mstore\n        /* \"#utility.yul\":20588:20719   */\n      tag_616\n        /* \"#utility.yul\":20714:20718   */\n      dup2\n        /* \"#utility.yul\":20588:20719   */\n      tag_523\n      jump\t// in\n    tag_616:\n        /* \"#utility.yul\":20580:20719   */\n      swap1\n      pop\n        /* \"#utility.yul\":20307:20726   */\n      swap2\n      swap1\n      pop\n      jump\t// out\n        /* \"#utility.yul\":20732:21151   */\n    tag_36:\n        /* \"#utility.yul\":20898:20902   */\n      0x00\n        /* \"#utility.yul\":20936:20938   */\n      0x20\n        /* \"#utility.yul\":20925:20934   */\n      dup3\n        /* \"#utility.yul\":20921:20939   */\n      add\n        /* \"#utility.yul\":20913:20939   */\n      swap1\n      pop\n        /* \"#utility.yul\":20985:20994   */\n      dup2\n        /* \"#utility.yul\":20979:20983   */\n      dup2\n        /* \"#utility.yul\":20975:20995   */\n      sub\n        /* \"#utility.yul\":20971:20972   */\n      0x00\n        /* \"#utility.yul\":20960:20969   */\n      dup4\n        /* \"#utility.yul\":20956:20973   */\n      add\n        /* \"#utility.yul\":20949:20996   */\n      mstore\n        /* \"#utility.yul\":21013:21144   */\n      tag_618\n        /* \"#utility.yul\":21139:21143   */\n      dup2\n        /* \"#utility.yul\":21013:21144   */\n      tag_528\n      jump\t// in\n    tag_618:\n        /* \"#utility.yul\":21005:21144   */\n      swap1\n      pop\n        /* \"#utility.yul\":20732:21151   */\n      swap2\n      swap1\n      pop\n      jump\t// out\n        /* \"#utility.yul\":21157:21576   */\n    tag_265:\n        /* \"#utility.yul\":21323:21327   */\n      0x00\n        /* \"#utility.yul\":21361:21363   */\n      0x20\n        /* \"#utility.yul\":21350:21359   */\n      dup3\n        /* \"#utility.yul\":21346:21364   */\n      add\n        /* \"#utility.yul\":21338:21364   */\n      swap1\n      pop\n        /* \"#utility.yul\":21410:21419   */\n      dup2\n        /* \"#utility.yul\":21404:21408   */\n      dup2\n        /* \"#utility.yul\":21400:21420   */\n      sub\n        /* \"#utility.yul\":21396:21397   */\n      0x00\n        /* \"#utility.yul\":21385:21394   */\n      dup4\n        /* \"#utility.yul\":21381:21398   */\n      add\n        /* \"#utility.yul\":21374:21421   */\n      mstore\n        /* \"#utility.yul\":21438:21569   */\n      tag_620\n        /* \"#utility.yul\":21564:21568   */\n      dup2\n        /* \"#utility.yul\":21438:21569   */\n      tag_533\n      jump\t// in\n    tag_620:\n        /* \"#utility.yul\":21430:21569   */\n      swap1\n      pop\n        /* \"#utility.yul\":21157:21576   */\n      swap2\n      swap1\n      pop\n      jump\t// out\n        /* \"#utility.yul\":21582:22001   */\n    tag_299:\n        /* \"#utility.yul\":21748:21752   */\n      0x00\n        /* \"#utility.yul\":21786:21788   */\n      0x20\n        /* \"#utility.yul\":21775:21784   */\n      dup3\n        /* \"#utility.yul\":21771:21789   */\n      add\n        /* \"#utility.yul\":21763:21789   */\n      swap1\n      pop\n        /* \"#utility.yul\":21835:21844   */\n      dup2\n        /* \"#utility.yul\":21829:21833   */\n      dup2\n        /* \"#utility.yul\":21825:21845   */\n      sub\n        /* \"#utility.yul\":21821:21822   */\n      0x00\n        /* \"#utility.yul\":21810:21819   */\n      dup4\n        /* \"#utility.yul\":21806:21823   */\n      add\n        /* \"#utility.yul\":21799:21846   */\n      mstore\n        /* \"#utility.yul\":21863:21994   */\n      tag_622\n        /* \"#utility.yul\":21989:21993   */\n      dup2\n        /* \"#utility.yul\":21863:21994   */\n      tag_538\n      jump\t// in\n    tag_622:\n        /* \"#utility.yul\":21855:21994   */\n      swap1\n      pop\n        /* \"#utility.yul\":21582:22001   */\n      swap2\n      swap1\n      pop\n      jump\t// out\n        /* \"#utility.yul\":22007:22426   */\n    tag_244:\n        /* \"#utility.yul\":22173:22177   */\n      0x00\n        /* \"#utility.yul\":22211:22213   */\n      0x20\n        /* \"#utility.yul\":22200:22209   */\n      dup3\n        /* \"#utility.yul\":22196:22214   */\n      add\n        /* \"#utility.yul\":22188:22214   */\n      swap1\n      pop\n        /* \"#utility.yul\":22260:22269   */\n      dup2\n        /* \"#utility.yul\":22254:22258   */\n      dup2\n        /* \"#utility.yul\":22250:22270   */\n      sub\n        /* \"#utility.yul\":22246:22247   */\n      0x00\n        /* \"#utility.yul\":22235:22244   */\n      dup4\n        /* \"#utility.yul\":22231:22248   */\n      add\n        /* \"#utility.yul\":22224:22271   */\n      mstore\n        /* \"#utility.yul\":22288:22419   */\n      tag_624\n        /* \"#utility.yul\":22414:22418   */\n      dup2\n        /* \"#utility.yul\":22288:22419   */\n      tag_543\n      jump\t// in\n    tag_624:\n        /* \"#utility.yul\":22280:22419   */\n      swap1\n      pop\n        /* \"#utility.yul\":22007:22426   */\n      swap2\n      swap1\n      pop\n      jump\t// out\n        /* \"#utility.yul\":22432:22851   */\n    tag_335:\n        /* \"#utility.yul\":22598:22602   */\n      0x00\n        /* \"#utility.yul\":22636:22638   */\n      0x20\n        /* \"#utility.yul\":22625:22634   */\n      dup3\n        /* \"#utility.yul\":22621:22639   */\n      add\n        /* \"#utility.yul\":22613:22639   */\n      swap1\n      pop\n        /* \"#utility.yul\":22685:22694   */\n      dup2\n        /* \"#utility.yul\":22679:22683   */\n      dup2\n        /* \"#utility.yul\":22675:22695   */\n      sub\n        /* \"#utility.yul\":22671:22672   */\n      0x00\n        /* \"#utility.yul\":22660:22669   */\n      dup4\n        /* \"#utility.yul\":22656:22673   */\n      add\n        /* \"#utility.yul\":22649:22696   */\n      mstore\n        /* \"#utility.yul\":22713:22844   */\n      tag_626\n        /* \"#utility.yul\":22839:22843   */\n      dup2\n        /* \"#utility.yul\":22713:22844   */\n      tag_548\n      jump\t// in\n    tag_626:\n        /* \"#utility.yul\":22705:22844   */\n      swap1\n      pop\n        /* \"#utility.yul\":22432:22851   */\n      swap2\n      swap1\n      pop\n      jump\t// out\n        /* \"#utility.yul\":22857:23276   */\n    tag_306:\n        /* \"#utility.yul\":23023:23027   */\n      0x00\n        /* \"#utility.yul\":23061:23063   */\n      0x20\n        /* \"#utility.yul\":23050:23059   */\n      dup3\n        /* \"#utility.yul\":23046:23064   */\n      add\n        /* \"#utility.yul\":23038:23064   */\n      swap1\n      pop\n        /* \"#utility.yul\":23110:23119   */\n      dup2\n        /* \"#utility.yul\":23104:23108   */\n      dup2\n        /* \"#utility.yul\":23100:23120   */\n      sub\n        /* \"#utility.yul\":23096:23097   */\n      0x00\n        /* \"#utility.yul\":23085:23094   */\n      dup4\n        /* \"#utility.yul\":23081:23098   */\n      add\n        /* \"#utility.yul\":23074:23121   */\n      mstore\n        /* \"#utility.yul\":23138:23269   */\n      tag_628\n        /* \"#utility.yul\":23264:23268   */\n      dup2\n        /* \"#utility.yul\":23138:23269   */\n      tag_553\n      jump\t// in\n    tag_628:\n        /* \"#utility.yul\":23130:23269   */\n      swap1\n      pop\n        /* \"#utility.yul\":22857:23276   */\n      swap2\n      swap1\n      pop\n      jump\t// out\n        /* \"#utility.yul\":23282:23701   */\n    tag_229:\n        /* \"#utility.yul\":23448:23452   */\n      0x00\n        /* \"#utility.yul\":23486:23488   */\n      0x20\n        /* \"#utility.yul\":23475:23484   */\n      dup3\n        /* \"#utility.yul\":23471:23489   */\n      add\n        /* \"#utility.yul\":23463:23489   */\n      swap1\n      pop\n        /* \"#utility.yul\":23535:23544   */\n      dup2\n        /* \"#utility.yul\":23529:23533   */\n      dup2\n        /* \"#utility.yul\":23525:23545   */\n      sub\n        /* \"#utility.yul\":23521:23522   */\n      0x00\n        /* \"#utility.yul\":23510:23519   */\n      dup4\n        /* \"#utility.yul\":23506:23523   */\n      add\n        /* \"#utility.yul\":23499:23546   */\n      mstore\n        /* \"#utility.yul\":23563:23694   */\n      tag_630\n        /* \"#utility.yul\":23689:23693   */\n      dup2\n        /* \"#utility.yul\":23563:23694   */\n      tag_558\n      jump\t// in\n    tag_630:\n        /* \"#utility.yul\":23555:23694   */\n      swap1\n      pop\n        /* \"#utility.yul\":23282:23701   */\n      swap2\n      swap1\n      pop\n      jump\t// out\n        /* \"#utility.yul\":23707:24126   */\n    tag_257:\n        /* \"#utility.yul\":23873:23877   */\n      0x00\n        /* \"#utility.yul\":23911:23913   */\n      0x20\n        /* \"#utility.yul\":23900:23909   */\n      dup3\n        /* \"#utility.yul\":23896:23914   */\n      add\n        /* \"#utility.yul\":23888:23914   */\n      swap1\n      pop\n        /* \"#utility.yul\":23960:23969   */\n      dup2\n        /* \"#utility.yul\":23954:23958   */\n      dup2\n        /* \"#utility.yul\":23950:23970   */\n      sub\n        /* \"#utility.yul\":23946:23947   */\n      0x00\n        /* \"#utility.yul\":23935:23944   */\n      dup4\n        /* \"#utility.yul\":23931:23948   */\n      add\n        /* \"#utility.yul\":23924:23971   */\n      mstore\n        /* \"#utility.yul\":23988:24119   */\n      tag_632\n        /* \"#utility.yul\":24114:24118   */\n      dup2\n        /* \"#utility.yul\":23988:24119   */\n      tag_563\n      jump\t// in\n    tag_632:\n        /* \"#utility.yul\":23980:24119   */\n      swap1\n      pop\n        /* \"#utility.yul\":23707:24126   */\n      swap2\n      swap1\n      pop\n      jump\t// out\n        /* \"#utility.yul\":24132:24551   */\n    tag_273:\n        /* \"#utility.yul\":24298:24302   */\n      0x00\n        /* \"#utility.yul\":24336:24338   */\n      0x20\n        /* \"#utility.yul\":24325:24334   */\n      dup3\n        /* \"#utility.yul\":24321:24339   */\n      add\n        /* \"#utility.yul\":24313:24339   */\n      swap1\n      pop\n        /* \"#utility.yul\":24385:24394   */\n      dup2\n        /* \"#utility.yul\":24379:24383   */\n      dup2\n        /* \"#utility.yul\":24375:24395   */\n      sub\n        /* \"#utility.yul\":24371:24372   */\n      0x00\n        /* \"#utility.yul\":24360:24369   */\n      dup4\n        /* \"#utility.yul\":24356:24373   */\n      add\n        /* \"#utility.yul\":24349:24396   */\n      mstore\n        /* \"#utility.yul\":24413:24544   */\n      tag_634\n        /* \"#utility.yul\":24539:24543   */\n      dup2\n        /* \"#utility.yul\":24413:24544   */\n      tag_568\n      jump\t// in\n    tag_634:\n        /* \"#utility.yul\":24405:24544   */\n      swap1\n      pop\n        /* \"#utility.yul\":24132:24551   */\n      swap2\n      swap1\n      pop\n      jump\t// out\n        /* \"#utility.yul\":24557:24976   */\n    tag_284:\n        /* \"#utility.yul\":24723:24727   */\n      0x00\n        /* \"#utility.yul\":24761:24763   */\n      0x20\n        /* \"#utility.yul\":24750:24759   */\n      dup3\n        /* \"#utility.yul\":24746:24764   */\n      add\n        /* \"#utility.yul\":24738:24764   */\n      swap1\n      pop\n        /* \"#utility.yul\":24810:24819   */\n      dup2\n        /* \"#utility.yul\":24804:24808   */\n      dup2\n        /* \"#utility.yul\":24800:24820   */\n      sub\n        /* \"#utility.yul\":24796:24797   */\n      0x00\n        /* \"#utility.yul\":24785:24794   */\n      dup4\n        /* \"#utility.yul\":24781:24798   */\n      add\n        /* \"#utility.yul\":24774:24821   */\n      mstore\n        /* \"#utility.yul\":24838:24969   */\n      tag_636\n        /* \"#utility.yul\":24964:24968   */\n      dup2\n        /* \"#utility.yul\":24838:24969   */\n      tag_573\n      jump\t// in\n    tag_636:\n        /* \"#utility.yul\":24830:24969   */\n      swap1\n      pop\n        /* \"#utility.yul\":24557:24976   */\n      swap2\n      swap1\n      pop\n      jump\t// out\n        /* \"#utility.yul\":24982:25337   */\n    tag_130:\n        /* \"#utility.yul\":25141:25145   */\n      0x00\n        /* \"#utility.yul\":25179:25182   */\n      0x80\n        /* \"#utility.yul\":25168:25177   */\n      dup3\n        /* \"#utility.yul\":25164:25183   */\n      add\n        /* \"#utility.yul\":25156:25183   */\n      swap1\n      pop\n        /* \"#utility.yul\":25193:25330   */\n      tag_638\n        /* \"#utility.yul\":25327:25328   */\n      0x00\n        /* \"#utility.yul\":25316:25325   */\n      dup4\n        /* \"#utility.yul\":25312:25329   */\n      add\n        /* \"#utility.yul\":25303:25309   */\n      dup5\n        /* \"#utility.yul\":25193:25330   */\n      tag_578\n      jump\t// in\n    tag_638:\n        /* \"#utility.yul\":24982:25337   */\n      swap3\n      swap2\n      pop\n      pop\n      jump\t// out\n        /* \"#utility.yul\":25343:25565   */\n    tag_70:\n        /* \"#utility.yul\":25436:25440   */\n      0x00\n        /* \"#utility.yul\":25474:25476   */\n      0x20\n        /* \"#utility.yul\":25463:25472   */\n      dup3\n        /* \"#utility.yul\":25459:25477   */\n      add\n        /* \"#utility.yul\":25451:25477   */\n      swap1\n      pop\n        /* \"#utility.yul\":25487:25558   */\n      tag_640\n        /* \"#utility.yul\":25555:25556   */\n      0x00\n        /* \"#utility.yul\":25544:25553   */\n      dup4\n        /* \"#utility.yul\":25540:25557   */\n      add\n        /* \"#utility.yul\":25531:25537   */\n      dup5\n        /* \"#utility.yul\":25487:25558   */\n      tag_588\n      jump\t// in\n    tag_640:\n        /* \"#utility.yul\":25343:25565   */\n      swap3\n      swap2\n      pop\n      pop\n      jump\t// out\n        /* \"#utility.yul\":25571:25903   */\n    tag_82:\n        /* \"#utility.yul\":25692:25696   */\n      0x00\n        /* \"#utility.yul\":25730:25732   */\n      0x40\n        /* \"#utility.yul\":25719:25728   */\n      dup3\n        /* \"#utility.yul\":25715:25733   */\n      add\n        /* \"#utility.yul\":25707:25733   */\n      swap1\n      pop\n        /* \"#utility.yul\":25743:25814   */\n      tag_642\n        /* \"#utility.yul\":25811:25812   */\n      0x00\n        /* \"#utility.yul\":25800:25809   */\n      dup4\n        /* \"#utility.yul\":25796:25813   */\n      add\n        /* \"#utility.yul\":25787:25793   */\n      dup6\n        /* \"#utility.yul\":25743:25814   */\n      tag_588\n      jump\t// in\n    tag_642:\n        /* \"#utility.yul\":25824:25896   */\n      tag_643\n        /* \"#utility.yul\":25892:25894   */\n      0x20\n        /* \"#utility.yul\":25881:25890   */\n      dup4\n        /* \"#utility.yul\":25877:25895   */\n      add\n        /* \"#utility.yul\":25868:25874   */\n      dup5\n        /* \"#utility.yul\":25824:25896   */\n      tag_588\n      jump\t// in\n    tag_643:\n        /* \"#utility.yul\":25571:25903   */\n      swap4\n      swap3\n      pop\n      pop\n      pop\n      jump\t// out\n        /* \"#utility.yul\":25909:26633   */\n    tag_277:\n        /* \"#utility.yul\":25986:25990   */\n      0x00\n        /* \"#utility.yul\":25992:25998   */\n      dup1\n        /* \"#utility.yul\":26048:26059   */\n      dup4\n        /* \"#utility.yul\":26035:26060   */\n      calldataload\n        /* \"#utility.yul\":26148:26149   */\n      0x01\n        /* \"#utility.yul\":26142:26146   */\n      0x20\n        /* \"#utility.yul\":26138:26150   */\n      sub\n        /* \"#utility.yul\":26127:26135   */\n      dup5\n        /* \"#utility.yul\":26111:26125   */\n      calldatasize\n        /* \"#utility.yul\":26107:26136   */\n      sub\n        /* \"#utility.yul\":26103:26151   */\n      sub\n        /* \"#utility.yul\":26083:26101   */\n      dup2\n        /* \"#utility.yul\":26079:26152   */\n      slt\n        /* \"#utility.yul\":26069:26237   */\n      tag_645\n      jumpi\n        /* \"#utility.yul\":26156:26235   */\n      tag_646\n      tag_647\n      jump\t// in\n    tag_646:\n        /* \"#utility.yul\":26069:26237   */\n    tag_645:\n        /* \"#utility.yul\":26268:26286   */\n      dup1\n        /* \"#utility.yul\":26258:26266   */\n      dup5\n        /* \"#utility.yul\":26254:26287   */\n      add\n        /* \"#utility.yul\":26246:26287   */\n      swap3\n      pop\n        /* \"#utility.yul\":26320:26324   */\n      dup3\n        /* \"#utility.yul\":26307:26325   */\n      calldataload\n        /* \"#utility.yul\":26297:26325   */\n      swap2\n      pop\n        /* \"#utility.yul\":26348:26366   */\n      0xffffffffffffffff\n        /* \"#utility.yul\":26340:26346   */\n      dup3\n        /* \"#utility.yul\":26337:26367   */\n      gt\n        /* \"#utility.yul\":26334:26451   */\n      iszero\n      tag_648\n      jumpi\n        /* \"#utility.yul\":26370:26449   */\n      tag_649\n      tag_650\n      jump\t// in\n    tag_649:\n        /* \"#utility.yul\":26334:26451   */\n    tag_648:\n        /* \"#utility.yul\":26478:26480   */\n      0x20\n        /* \"#utility.yul\":26472:26476   */\n      dup4\n        /* \"#utility.yul\":26468:26481   */\n      add\n        /* \"#utility.yul\":26460:26481   */\n      swap3\n      pop\n        /* \"#utility.yul\":26535:26539   */\n      0x01\n        /* \"#utility.yul\":26527:26533   */\n      dup3\n        /* \"#utility.yul\":26523:26540   */\n      mul\n        /* \"#utility.yul\":26507:26521   */\n      calldatasize\n        /* \"#utility.yul\":26503:26541   */\n      sub\n        /* \"#utility.yul\":26497:26501   */\n      dup4\n        /* \"#utility.yul\":26493:26542   */\n      sgt\n        /* \"#utility.yul\":26490:26626   */\n      iszero\n      tag_651\n      jumpi\n        /* \"#utility.yul\":26545:26624   */\n      tag_652\n      tag_653\n      jump\t// in\n    tag_652:\n        /* \"#utility.yul\":26490:26626   */\n    tag_651:\n        /* \"#utility.yul\":25999:26633   */\n      pop\n        /* \"#utility.yul\":25909:26633   */\n      swap3\n      pop\n      swap3\n      swap1\n      pop\n      jump\t// out\n        /* \"#utility.yul\":26639:27038   */\n    tag_270:\n        /* \"#utility.yul\":26738:26742   */\n      0x00\n        /* \"#utility.yul\":26792:26803   */\n      dup3\n        /* \"#utility.yul\":26779:26804   */\n      calldataload\n        /* \"#utility.yul\":26892:26893   */\n      0x01\n        /* \"#utility.yul\":26886:26890   */\n      0xe0\n        /* \"#utility.yul\":26882:26894   */\n      sub\n        /* \"#utility.yul\":26871:26879   */\n      dup4\n        /* \"#utility.yul\":26855:26869   */\n      calldatasize\n        /* \"#utility.yul\":26851:26880   */\n      sub\n        /* \"#utility.yul\":26847:26895   */\n      sub\n        /* \"#utility.yul\":26827:26845   */\n      dup2\n        /* \"#utility.yul\":26823:26896   */\n      slt\n        /* \"#utility.yul\":26813:26981   */\n      tag_655\n      jumpi\n        /* \"#utility.yul\":26900:26979   */\n      tag_656\n      tag_647\n      jump\t// in\n    tag_656:\n        /* \"#utility.yul\":26813:26981   */\n    tag_655:\n        /* \"#utility.yul\":27012:27030   */\n      dup1\n        /* \"#utility.yul\":27002:27010   */\n      dup4\n        /* \"#utility.yul\":26998:27031   */\n      add\n        /* \"#utility.yul\":26990:27031   */\n      swap2\n      pop\n        /* \"#utility.yul\":26743:27038   */\n      pop\n        /* \"#utility.yul\":26639:27038   */\n      swap3\n      swap2\n      pop\n      pop\n      jump\t// out\n        /* \"#utility.yul\":27044:27441   */\n    tag_260:\n        /* \"#utility.yul\":27139:27143   */\n      0x00\n        /* \"#utility.yul\":27193:27204   */\n      dup3\n        /* \"#utility.yul\":27180:27205   */\n      calldataload\n        /* \"#utility.yul\":27295:27296   */\n      0x01\n        /* \"#utility.yul\":27287:27293   */\n      0x0100\n        /* \"#utility.yul\":27283:27297   */\n      sub\n        /* \"#utility.yul\":27272:27280   */\n      dup4\n        /* \"#utility.yul\":27256:27270   */\n      calldatasize\n        /* \"#utility.yul\":27252:27281   */\n      sub\n        /* \"#utility.yul\":27248:27298   */\n      sub\n        /* \"#utility.yul\":27228:27246   */\n      dup2\n        /* \"#utility.yul\":27224:27299   */\n      slt\n        /* \"#utility.yul\":27214:27384   */\n      tag_658\n      jumpi\n        /* \"#utility.yul\":27303:27382   */\n      tag_659\n      tag_647\n      jump\t// in\n    tag_659:\n        /* \"#utility.yul\":27214:27384   */\n    tag_658:\n        /* \"#utility.yul\":27415:27433   */\n      dup1\n        /* \"#utility.yul\":27405:27413   */\n      dup4\n        /* \"#utility.yul\":27401:27434   */\n      add\n        /* \"#utility.yul\":27393:27434   */\n      swap2\n      pop\n        /* \"#utility.yul\":27144:27441   */\n      pop\n        /* \"#utility.yul\":27044:27441   */\n      swap3\n      swap2\n      pop\n      pop\n      jump\t// out\n        /* \"#utility.yul\":27528:27626   */\n    tag_482:\n        /* \"#utility.yul\":27579:27585   */\n      0x00\n        /* \"#utility.yul\":27613:27618   */\n      dup2\n        /* \"#utility.yul\":27607:27619   */\n      mload\n        /* \"#utility.yul\":27597:27619   */\n      swap1\n      pop\n        /* \"#utility.yul\":27528:27626   */\n      swap2\n      swap1\n      pop\n      jump\t// out\n        /* \"#utility.yul\":27632:27731   */\n    tag_498:\n        /* \"#utility.yul\":27684:27690   */\n      0x00\n        /* \"#utility.yul\":27718:27723   */\n      dup2\n        /* \"#utility.yul\":27712:27724   */\n      mload\n        /* \"#utility.yul\":27702:27724   */\n      swap1\n      pop\n        /* \"#utility.yul\":27632:27731   */\n      swap2\n      swap1\n      pop\n      jump\t// out\n        /* \"#utility.yul\":27737:27905   */\n    tag_484:\n        /* \"#utility.yul\":27820:27831   */\n      0x00\n        /* \"#utility.yul\":27854:27860   */\n      dup3\n        /* \"#utility.yul\":27849:27852   */\n      dup3\n        /* \"#utility.yul\":27842:27861   */\n      mstore\n        /* \"#utility.yul\":27894:27898   */\n      0x20\n        /* \"#utility.yul\":27889:27892   */\n      dup3\n        /* \"#utility.yul\":27885:27899   */\n      add\n        /* \"#utility.yul\":27870:27899   */\n      swap1\n      pop\n        /* \"#utility.yul\":27737:27905   */\n      swap3\n      swap2\n      pop\n      pop\n      jump\t// out\n        /* \"#utility.yul\":27911:28058   */\n    tag_493:\n        /* \"#utility.yul\":28012:28023   */\n      0x00\n        /* \"#utility.yul\":28049:28052   */\n      dup2\n        /* \"#utility.yul\":28034:28052   */\n      swap1\n      pop\n        /* \"#utility.yul\":27911:28058   */\n      swap3\n      swap2\n      pop\n      pop\n      jump\t// out\n        /* \"#utility.yul\":28064:28233   */\n    tag_500:\n        /* \"#utility.yul\":28148:28159   */\n      0x00\n        /* \"#utility.yul\":28182:28188   */\n      dup3\n        /* \"#utility.yul\":28177:28180   */\n      dup3\n        /* \"#utility.yul\":28170:28189   */\n      mstore\n        /* \"#utility.yul\":28222:28226   */\n      0x20\n        /* \"#utility.yul\":28217:28220   */\n      dup3\n        /* \"#utility.yul\":28213:28227   */\n      add\n        /* \"#utility.yul\":28198:28227   */\n      swap1\n      pop\n        /* \"#utility.yul\":28064:28233   */\n      swap3\n      swap2\n      pop\n      pop\n      jump\t// out\n        /* \"#utility.yul\":28239:28544   */\n    tag_212:\n        /* \"#utility.yul\":28279:28282   */\n      0x00\n        /* \"#utility.yul\":28298:28318   */\n      tag_668\n        /* \"#utility.yul\":28316:28317   */\n      dup3\n        /* \"#utility.yul\":28298:28318   */\n      tag_587\n      jump\t// in\n    tag_668:\n        /* \"#utility.yul\":28293:28318   */\n      swap2\n      pop\n        /* \"#utility.yul\":28332:28352   */\n      tag_669\n        /* \"#utility.yul\":28350:28351   */\n      dup4\n        /* \"#utility.yul\":28332:28352   */\n      tag_587\n      jump\t// in\n    tag_669:\n        /* \"#utility.yul\":28327:28352   */\n      swap3\n      pop\n        /* \"#utility.yul\":28486:28487   */\n      dup3\n        /* \"#utility.yul\":28418:28484   */\n      0xffffffffffffffffffffffffffffffffffffffffffffffffffffffffffffffff\n        /* \"#utility.yul\":28414:28488   */\n      sub\n        /* \"#utility.yul\":28411:28412   */\n      dup3\n        /* \"#utility.yul\":28408:28489   */\n      gt\n        /* \"#utility.yul\":28405:28512   */\n      iszero\n      tag_670\n      jumpi\n        /* \"#utility.yul\":28492:28510   */\n      tag_671\n      tag_672\n      jump\t// in\n    tag_671:\n        /* \"#utility.yul\":28405:28512   */\n    tag_670:\n        /* \"#utility.yul\":28536:28537   */\n      dup3\n        /* \"#utility.yul\":28533:28534   */\n      dup3\n        /* \"#utility.yul\":28529:28538   */\n      add\n        /* \"#utility.yul\":28522:28538   */\n      swap1\n      pop\n        /* \"#utility.yul\":28239:28544   */\n      swap3\n      swap2\n      pop\n      pop\n      jump\t// out\n        /* \"#utility.yul\":28550:28898   */\n    tag_295:\n        /* \"#utility.yul\":28590:28597   */\n      0x00\n        /* \"#utility.yul\":28613:28633   */\n      tag_674\n        /* \"#utility.yul\":28631:28632   */\n      dup3\n        /* \"#utility.yul\":28613:28633   */\n      tag_587\n      jump\t// in\n    tag_674:\n        /* \"#utility.yul\":28608:28633   */\n      swap2\n      pop\n        /* \"#utility.yul\":28647:28667   */\n      tag_675\n        /* \"#utility.yul\":28665:28666   */\n      dup4\n        /* \"#utility.yul\":28647:28667   */\n      tag_587\n      jump\t// in\n    tag_675:\n        /* \"#utility.yul\":28642:28667   */\n      swap3\n      pop\n        /* \"#utility.yul\":28835:28836   */\n      dup2\n        /* \"#utility.yul\":28767:28833   */\n      0xffffffffffffffffffffffffffffffffffffffffffffffffffffffffffffffff\n        /* \"#utility.yul\":28763:28837   */\n      div\n        /* \"#utility.yul\":28760:28761   */\n      dup4\n        /* \"#utility.yul\":28757:28838   */\n      gt\n        /* \"#utility.yul\":28752:28753   */\n      dup3\n        /* \"#utility.yul\":28745:28754   */\n      iszero\n        /* \"#utility.yul\":28738:28755   */\n      iszero\n        /* \"#utility.yul\":28734:28839   */\n      and\n        /* \"#utility.yul\":28731:28862   */\n      iszero\n      tag_676\n      jumpi\n        /* \"#utility.yul\":28842:28860   */\n      tag_677\n      tag_672\n      jump\t// in\n    tag_677:\n        /* \"#utility.yul\":28731:28862   */\n    tag_676:\n        /* \"#utility.yul\":28890:28891   */\n      dup3\n        /* \"#utility.yul\":28887:28888   */\n      dup3\n        /* \"#utility.yul\":28883:28892   */\n      mul\n        /* \"#utility.yul\":28872:28892   */\n      swap1\n      pop\n        /* \"#utility.yul\":28550:28898   */\n      swap3\n      swap2\n      pop\n      pop\n      jump\t// out\n        /* \"#utility.yul\":28904:29095   */\n    tag_190:\n        /* \"#utility.yul\":28944:28948   */\n      0x00\n        /* \"#utility.yul\":28964:28984   */\n      tag_679\n        /* \"#utility.yul\":28982:28983   */\n      dup3\n        /* \"#utility.yul\":28964:28984   */\n      tag_587\n      jump\t// in\n    tag_679:\n        /* \"#utility.yul\":28959:28984   */\n      swap2\n      pop\n        /* \"#utility.yul\":28998:29018   */\n      tag_680\n        /* \"#utility.yul\":29016:29017   */\n      dup4\n        /* \"#utility.yul\":28998:29018   */\n      tag_587\n      jump\t// in\n    tag_680:\n        /* \"#utility.yul\":28993:29018   */\n      swap3\n      pop\n        /* \"#utility.yul\":29037:29038   */\n      dup3\n        /* \"#utility.yul\":29034:29035   */\n      dup3\n        /* \"#utility.yul\":29031:29039   */\n      lt\n        /* \"#utility.yul\":29028:29062   */\n      iszero\n      tag_681\n      jumpi\n        /* \"#utility.yul\":29042:29060   */\n      tag_682\n      tag_672\n      jump\t// in\n    tag_682:\n        /* \"#utility.yul\":29028:29062   */\n    tag_681:\n        /* \"#utility.yul\":29087:29088   */\n      dup3\n        /* \"#utility.yul\":29084:29085   */\n      dup3\n        /* \"#utility.yul\":29080:29089   */\n      sub\n        /* \"#utility.yul\":29072:29089   */\n      swap1\n      pop\n        /* \"#utility.yul\":28904:29095   */\n      swap3\n      swap2\n      pop\n      pop\n      jump\t// out\n        /* \"#utility.yul\":29101:29197   */\n    tag_470:\n        /* \"#utility.yul\":29138:29145   */\n      0x00\n        /* \"#utility.yul\":29167:29191   */\n      tag_684\n        /* \"#utility.yul\":29185:29190   */\n      dup3\n        /* \"#utility.yul\":29167:29191   */\n      tag_685\n      jump\t// in\n    tag_684:\n        /* \"#utility.yul\":29156:29191   */\n      swap1\n      pop\n        /* \"#utility.yul\":29101:29197   */\n      swap2\n      swap1\n      pop\n      jump\t// out\n        /* \"#utility.yul\":29203:29307   */\n    tag_466:\n        /* \"#utility.yul\":29248:29255   */\n      0x00\n        /* \"#utility.yul\":29277:29301   */\n      tag_687\n        /* \"#utility.yul\":29295:29300   */\n      dup3\n        /* \"#utility.yul\":29277:29301   */\n      tag_685\n      jump\t// in\n    tag_687:\n        /* \"#utility.yul\":29266:29301   */\n      swap1\n      pop\n        /* \"#utility.yul\":29203:29307   */\n      swap2\n      swap1\n      pop\n      jump\t// out\n        /* \"#utility.yul\":29313:29403   */\n    tag_474:\n        /* \"#utility.yul\":29347:29354   */\n      0x00\n        /* \"#utility.yul\":29390:29395   */\n      dup2\n        /* \"#utility.yul\":29383:29396   */\n      iszero\n        /* \"#utility.yul\":29376:29397   */\n      iszero\n        /* \"#utility.yul\":29365:29397   */\n      swap1\n      pop\n        /* \"#utility.yul\":29313:29403   */\n      swap2\n      swap1\n      pop\n      jump\t// out\n        /* \"#utility.yul\":29409:29558   */\n    tag_478:\n        /* \"#utility.yul\":29445:29452   */\n      0x00\n        /* \"#utility.yul\":29485:29551   */\n      0xffffffff00000000000000000000000000000000000000000000000000000000\n        /* \"#utility.yul\":29478:29483   */\n      dup3\n        /* \"#utility.yul\":29474:29552   */\n      and\n        /* \"#utility.yul\":29463:29552   */\n      swap1\n      pop\n        /* \"#utility.yul\":29409:29558   */\n      swap2\n      swap1\n      pop\n      jump\t// out\n        /* \"#utility.yul\":29564:29677   */\n    tag_690:\n        /* \"#utility.yul\":29618:29625   */\n      0x00\n        /* \"#utility.yul\":29647:29671   */\n      tag_692\n        /* \"#utility.yul\":29665:29670   */\n      dup3\n        /* \"#utility.yul\":29647:29671   */\n      tag_470\n      jump\t// in\n    tag_692:\n        /* \"#utility.yul\":29636:29671   */\n      swap1\n      pop\n        /* \"#utility.yul\":29564:29677   */\n      swap2\n      swap1\n      pop\n      jump\t// out\n        /* \"#utility.yul\":29683:29809   */\n    tag_685:\n        /* \"#utility.yul\":29720:29727   */\n      0x00\n        /* \"#utility.yul\":29760:29802   */\n      0xffffffffffffffffffffffffffffffffffffffff\n        /* \"#utility.yul\":29753:29758   */\n      dup3\n        /* \"#utility.yul\":29749:29803   */\n      and\n        /* \"#utility.yul\":29738:29803   */\n      swap1\n      pop\n        /* \"#utility.yul\":29683:29809   */\n      swap2\n      swap1\n      pop\n      jump\t// out\n        /* \"#utility.yul\":29815:29892   */\n    tag_587:\n        /* \"#utility.yul\":29852:29859   */\n      0x00\n        /* \"#utility.yul\":29881:29886   */\n      dup2\n        /* \"#utility.yul\":29870:29886   */\n      swap1\n      pop\n        /* \"#utility.yul\":29815:29892   */\n      swap2\n      swap1\n      pop\n      jump\t// out\n        /* \"#utility.yul\":29898:30205   */\n    tag_486:\n        /* \"#utility.yul\":29966:29967   */\n      0x00\n        /* \"#utility.yul\":29976:30089   */\n    tag_696:\n        /* \"#utility.yul\":29990:29996   */\n      dup4\n        /* \"#utility.yul\":29987:29988   */\n      dup2\n        /* \"#utility.yul\":29984:29997   */\n      lt\n        /* \"#utility.yul\":29976:30089   */\n      iszero\n      tag_698\n      jumpi\n        /* \"#utility.yul\":30075:30076   */\n      dup1\n        /* \"#utility.yul\":30070:30073   */\n      dup3\n        /* \"#utility.yul\":30066:30077   */\n      add\n        /* \"#utility.yul\":30060:30078   */\n      mload\n        /* \"#utility.yul\":30056:30057   */\n      dup2\n        /* \"#utility.yul\":30051:30054   */\n      dup5\n        /* \"#utility.yul\":30047:30058   */\n      add\n        /* \"#utility.yul\":30040:30079   */\n      mstore\n        /* \"#utility.yul\":30012:30014   */\n      0x20\n        /* \"#utility.yul\":30009:30010   */\n      dup2\n        /* \"#utility.yul\":30005:30015   */\n      add\n        /* \"#utility.yul\":30000:30015   */\n      swap1\n      pop\n        /* \"#utility.yul\":29976:30089   */\n      jump(tag_696)\n    tag_698:\n        /* \"#utility.yul\":30107:30113   */\n      dup4\n        /* \"#utility.yul\":30104:30105   */\n      dup2\n        /* \"#utility.yul\":30101:30114   */\n      gt\n        /* \"#utility.yul\":30098:30199   */\n      iszero\n      tag_699\n      jumpi\n        /* \"#utility.yul\":30187:30188   */\n      0x00\n        /* \"#utility.yul\":30178:30184   */\n      dup5\n        /* \"#utility.yul\":30173:30176   */\n      dup5\n        /* \"#utility.yul\":30169:30185   */\n      add\n        /* \"#utility.yul\":30162:30189   */\n      mstore\n        /* \"#utility.yul\":30098:30199   */\n    tag_699:\n        /* \"#utility.yul\":29947:30205   */\n      pop\n        /* \"#utility.yul\":29898:30205   */\n      pop\n      pop\n      pop\n      jump\t// out\n        /* \"#utility.yul\":30211:30391   */\n    tag_672:\n        /* \"#utility.yul\":30259:30336   */\n      0x4e487b7100000000000000000000000000000000000000000000000000000000\n        /* \"#utility.yul\":30256:30257   */\n      0x00\n        /* \"#utility.yul\":30249:30337   */\n      mstore\n        /* \"#utility.yul\":30356:30360   */\n      0x11\n        /* \"#utility.yul\":30353:30354   */\n      0x04\n        /* \"#utility.yul\":30346:30361   */\n      mstore\n        /* \"#utility.yul\":30380:30384   */\n      0x24\n        /* \"#utility.yul\":30377:30378   */\n      0x00\n        /* \"#utility.yul\":30370:30385   */\n      revert\n        /* \"#utility.yul\":30397:30514   */\n    tag_378:\n        /* \"#utility.yul\":30506:30507   */\n      0x00\n        /* \"#utility.yul\":30503:30504   */\n      dup1\n        /* \"#utility.yul\":30496:30508   */\n      revert\n        /* \"#utility.yul\":30520:30637   */\n    tag_375:\n        /* \"#utility.yul\":30629:30630   */\n      0x00\n        /* \"#utility.yul\":30626:30627   */\n      dup1\n        /* \"#utility.yul\":30619:30631   */\n      revert\n        /* \"#utility.yul\":30643:30760   */\n    tag_650:\n        /* \"#utility.yul\":30752:30753   */\n      0x00\n        /* \"#utility.yul\":30749:30750   */\n      dup1\n        /* \"#utility.yul\":30742:30754   */\n      revert\n        /* \"#utility.yul\":30766:30883   */\n    tag_390:\n        /* \"#utility.yul\":30875:30876   */\n      0x00\n        /* \"#utility.yul\":30872:30873   */\n      dup1\n        /* \"#utility.yul\":30865:30877   */\n      revert\n        /* \"#utility.yul\":30889:31006   */\n    tag_647:\n        /* \"#utility.yul\":30998:30999   */\n      0x00\n        /* \"#utility.yul\":30995:30996   */\n      dup1\n        /* \"#utility.yul\":30988:31000   */\n      revert\n        /* \"#utility.yul\":31012:31129   */\n    tag_381:\n        /* \"#utility.yul\":31121:31122   */\n      0x00\n        /* \"#utility.yul\":31118:31119   */\n      dup1\n        /* \"#utility.yul\":31111:31123   */\n      revert\n        /* \"#utility.yul\":31135:31252   */\n    tag_653:\n        /* \"#utility.yul\":31244:31245   */\n      0x00\n        /* \"#utility.yul\":31241:31242   */\n      dup1\n        /* \"#utility.yul\":31234:31246   */\n      revert\n        /* \"#utility.yul\":31258:31375   */\n    tag_430:\n        /* \"#utility.yul\":31367:31368   */\n      0x00\n        /* \"#utility.yul\":31364:31365   */\n      dup1\n        /* \"#utility.yul\":31357:31369   */\n      revert\n        /* \"#utility.yul\":31381:31498   */\n    tag_405:\n        /* \"#utility.yul\":31490:31491   */\n      0x00\n        /* \"#utility.yul\":31487:31488   */\n      dup1\n        /* \"#utility.yul\":31480:31492   */\n      revert\n        /* \"#utility.yul\":31504:31606   */\n    tag_488:\n        /* \"#utility.yul\":31545:31551   */\n      0x00\n        /* \"#utility.yul\":31596:31598   */\n      0x1f\n        /* \"#utility.yul\":31592:31599   */\n      not\n        /* \"#utility.yul\":31587:31589   */\n      0x1f\n        /* \"#utility.yul\":31580:31585   */\n      dup4\n        /* \"#utility.yul\":31576:31590   */\n      add\n        /* \"#utility.yul\":31572:31600   */\n      and\n        /* \"#utility.yul\":31562:31600   */\n      swap1\n      pop\n        /* \"#utility.yul\":31504:31606   */\n      swap2\n      swap1\n      pop\n      jump\t// out\n        /* \"#utility.yul\":31612:31774   */\n    tag_507:\n        /* \"#utility.yul\":31752:31766   */\n      0x77726f6e67207461726765740000000000000000000000000000000000000000\n        /* \"#utility.yul\":31748:31749   */\n      0x00\n        /* \"#utility.yul\":31740:31746   */\n      dup3\n        /* \"#utility.yul\":31736:31750   */\n      add\n        /* \"#utility.yul\":31729:31767   */\n      mstore\n        /* \"#utility.yul\":31612:31774   */\n      pop\n      jump\t// out\n        /* \"#utility.yul\":31780:31958   */\n    tag_512:\n        /* \"#utility.yul\":31920:31950   */\n      0x73686f756c642068617665206e6f207061796d61737465724461746100000000\n        /* \"#utility.yul\":31916:31917   */\n      0x00\n        /* \"#utility.yul\":31908:31914   */\n      dup3\n        /* \"#utility.yul\":31904:31918   */\n      add\n        /* \"#utility.yul\":31897:31951   */\n      mstore\n        /* \"#utility.yul\":31780:31958   */\n      pop\n      jump\t// out\n        /* \"#utility.yul\":31964:32145   */\n    tag_517:\n        /* \"#utility.yul\":32104:32137   */\n      0x696e76616c696420666f7277617264657220666f7220726563697069656e7400\n        /* \"#utility.yul\":32100:32101   */\n      0x00\n        /* \"#utility.yul\":32092:32098   */\n      dup3\n        /* \"#utility.yul\":32088:32102   */\n      add\n        /* \"#utility.yul\":32081:32138   */\n      mstore\n        /* \"#utility.yul\":31964:32145   */\n      pop\n      jump\t// out\n        /* \"#utility.yul\":32151:32376   */\n    tag_522:\n        /* \"#utility.yul\":32291:32325   */\n      0x4f776e61626c653a206e6577206f776e657220697320746865207a65726f2061\n        /* \"#utility.yul\":32287:32288   */\n      0x00\n        /* \"#utility.yul\":32279:32285   */\n      dup3\n        /* \"#utility.yul\":32275:32289   */\n      add\n        /* \"#utility.yul\":32268:32326   */\n      mstore\n        /* \"#utility.yul\":32360:32368   */\n      0x6464726573730000000000000000000000000000000000000000000000000000\n        /* \"#utility.yul\":32355:32357   */\n      0x20\n        /* \"#utility.yul\":32347:32353   */\n      dup3\n        /* \"#utility.yul\":32343:32358   */\n      add\n        /* \"#utility.yul\":32336:32369   */\n      mstore\n        /* \"#utility.yul\":32151:32376   */\n      pop\n      jump\t// out\n        /* \"#utility.yul\":32382:32560   */\n    tag_527:\n        /* \"#utility.yul\":32522:32552   */\n      0x697354727573746564466f727761726465723a20726576657274656400000000\n        /* \"#utility.yul\":32518:32519   */\n      0x00\n        /* \"#utility.yul\":32510:32516   */\n      dup3\n        /* \"#utility.yul\":32506:32520   */\n      add\n        /* \"#utility.yul\":32499:32553   */\n      mstore\n        /* \"#utility.yul\":32382:32560   */\n      pop\n      jump\t// out\n        /* \"#utility.yul\":32566:32741   */\n    tag_532:\n        /* \"#utility.yul\":32706:32733   */\n      0x72656c6179206875622061646472657373206e6f742073657400000000000000\n        /* \"#utility.yul\":32702:32703   */\n      0x00\n        /* \"#utility.yul\":32694:32700   */\n      dup3\n        /* \"#utility.yul\":32690:32704   */\n      add\n        /* \"#utility.yul\":32683:32734   */\n      mstore\n        /* \"#utility.yul\":32566:32741   */\n      pop\n      jump\t// out\n        /* \"#utility.yul\":32747:32921   */\n    tag_537:\n        /* \"#utility.yul\":32887:32913   */\n      0x466f72776172646572206973206e6f7420747275737465640000000000000000\n        /* \"#utility.yul\":32883:32884   */\n      0x00\n        /* \"#utility.yul\":32875:32881   */\n      dup3\n        /* \"#utility.yul\":32871:32885   */\n      add\n        /* \"#utility.yul\":32864:32914   */\n      mstore\n        /* \"#utility.yul\":32747:32921   */\n      pop\n      jump\t// out\n        /* \"#utility.yul\":32927:33091   */\n    tag_542:\n        /* \"#utility.yul\":33067:33083   */\n      0x6f76657220746865206c696d6974000000000000000000000000000000000000\n        /* \"#utility.yul\":33063:33064   */\n      0x00\n        /* \"#utility.yul\":33055:33061   */\n      dup3\n        /* \"#utility.yul\":33051:33065   */\n      add\n        /* \"#utility.yul\":33044:33084   */\n      mstore\n        /* \"#utility.yul\":32927:33091   */\n      pop\n      jump\t// out\n        /* \"#utility.yul\":33097:33279   */\n    tag_547:\n        /* \"#utility.yul\":33237:33271   */\n      0x746172676574206973206e6f7420612076616c69642049466f72776172646572\n        /* \"#utility.yul\":33233:33234   */\n      0x00\n        /* \"#utility.yul\":33225:33231   */\n      dup3\n        /* \"#utility.yul\":33221:33235   */\n      add\n        /* \"#utility.yul\":33214:33272   */\n      mstore\n        /* \"#utility.yul\":33097:33279   */\n      pop\n      jump\t// out\n        /* \"#utility.yul\":33285:33467   */\n    tag_552:\n        /* \"#utility.yul\":33425:33459   */\n      0x697354727573746564466f727761726465723a2062616420726573706f6e7365\n        /* \"#utility.yul\":33421:33422   */\n      0x00\n        /* \"#utility.yul\":33413:33419   */\n      dup3\n        /* \"#utility.yul\":33409:33423   */\n      add\n        /* \"#utility.yul\":33402:33460   */\n      mstore\n        /* \"#utility.yul\":33285:33467   */\n      pop\n      jump\t// out\n        /* \"#utility.yul\":33473:33655   */\n    tag_557:\n        /* \"#utility.yul\":33613:33647   */\n      0x4f776e61626c653a2063616c6c6572206973206e6f7420746865206f776e6572\n        /* \"#utility.yul\":33609:33610   */\n      0x00\n        /* \"#utility.yul\":33601:33607   */\n      dup3\n        /* \"#utility.yul\":33597:33611   */\n      add\n        /* \"#utility.yul\":33590:33648   */\n      mstore\n        /* \"#utility.yul\":33473:33655   */\n      pop\n      jump\t// out\n        /* \"#utility.yul\":33661:33842   */\n    tag_562:\n        /* \"#utility.yul\":33801:33834   */\n      0x746172676574206973206e6f7420612076616c6964204952656c617948756200\n        /* \"#utility.yul\":33797:33798   */\n      0x00\n        /* \"#utility.yul\":33789:33795   */\n      dup3\n        /* \"#utility.yul\":33785:33799   */\n      add\n        /* \"#utility.yul\":33778:33835   */\n      mstore\n        /* \"#utility.yul\":33661:33842   */\n      pop\n      jump\t// out\n        /* \"#utility.yul\":33848:34028   */\n    tag_567:\n        /* \"#utility.yul\":33988:34020   */\n      0x63616e206f6e6c792062652063616c6c65642062792052656c61794875620000\n        /* \"#utility.yul\":33984:33985   */\n      0x00\n        /* \"#utility.yul\":33976:33982   */\n      dup3\n        /* \"#utility.yul\":33972:33986   */\n      add\n        /* \"#utility.yul\":33965:34021   */\n      mstore\n        /* \"#utility.yul\":33848:34028   */\n      pop\n      jump\t// out\n        /* \"#utility.yul\":34034:34212   */\n    tag_572:\n        /* \"#utility.yul\":34174:34204   */\n      0x76616c7565207472616e73666572206e6f7420737570706f7274656400000000\n        /* \"#utility.yul\":34170:34171   */\n      0x00\n        /* \"#utility.yul\":34162:34168   */\n      dup3\n        /* \"#utility.yul\":34158:34172   */\n      add\n        /* \"#utility.yul\":34151:34205   */\n      mstore\n        /* \"#utility.yul\":34034:34212   */\n      pop\n      jump\t// out\n        /* \"#utility.yul\":34218:34395   */\n    tag_577:\n        /* \"#utility.yul\":34358:34387   */\n      0x73686f756c642068617665206e6f20617070726f76616c446174610000000000\n        /* \"#utility.yul\":34354:34355   */\n      0x00\n        /* \"#utility.yul\":34346:34352   */\n      dup3\n        /* \"#utility.yul\":34342:34356   */\n      add\n        /* \"#utility.yul\":34335:34388   */\n      mstore\n        /* \"#utility.yul\":34218:34395   */\n      pop\n      jump\t// out\n        /* \"#utility.yul\":34401:34523   */\n    tag_355:\n        /* \"#utility.yul\":34474:34498   */\n      tag_727\n        /* \"#utility.yul\":34492:34497   */\n      dup2\n        /* \"#utility.yul\":34474:34498   */\n      tag_470\n      jump\t// in\n    tag_727:\n        /* \"#utility.yul\":34467:34472   */\n      dup2\n        /* \"#utility.yul\":34464:34499   */\n      eq\n        /* \"#utility.yul\":34454:34517   */\n      tag_728\n      jumpi\n        /* \"#utility.yul\":34513:34514   */\n      0x00\n        /* \"#utility.yul\":34510:34511   */\n      dup1\n        /* \"#utility.yul\":34503:34515   */\n      revert\n        /* \"#utility.yul\":34454:34517   */\n    tag_728:\n        /* \"#utility.yul\":34401:34523   */\n      pop\n      jump\t// out\n        /* \"#utility.yul\":34529:34667   */\n    tag_359:\n        /* \"#utility.yul\":34610:34642   */\n      tag_730\n        /* \"#utility.yul\":34636:34641   */\n      dup2\n        /* \"#utility.yul\":34610:34642   */\n      tag_466\n      jump\t// in\n    tag_730:\n        /* \"#utility.yul\":34603:34608   */\n      dup2\n        /* \"#utility.yul\":34600:34643   */\n      eq\n        /* \"#utility.yul\":34590:34661   */\n      tag_731\n      jumpi\n        /* \"#utility.yul\":34657:34658   */\n      0x00\n        /* \"#utility.yul\":34654:34655   */\n      dup1\n        /* \"#utility.yul\":34647:34659   */\n      revert\n        /* \"#utility.yul\":34590:34661   */\n    tag_731:\n        /* \"#utility.yul\":34529:34667   */\n      pop\n      jump\t// out\n        /* \"#utility.yul\":34673:34789   */\n    tag_363:\n        /* \"#utility.yul\":34743:34764   */\n      tag_733\n        /* \"#utility.yul\":34758:34763   */\n      dup2\n        /* \"#utility.yul\":34743:34764   */\n      tag_474\n      jump\t// in\n    tag_733:\n        /* \"#utility.yul\":34736:34741   */\n      dup2\n        /* \"#utility.yul\":34733:34765   */\n      eq\n        /* \"#utility.yul\":34723:34783   */\n      tag_734\n      jumpi\n        /* \"#utility.yul\":34779:34780   */\n      0x00\n        /* \"#utility.yul\":34776:34777   */\n      dup1\n        /* \"#utility.yul\":34769:34781   */\n      revert\n        /* \"#utility.yul\":34723:34783   */\n    tag_734:\n        /* \"#utility.yul\":34673:34789   */\n      pop\n      jump\t// out\n        /* \"#utility.yul\":34795:34915   */\n    tag_370:\n        /* \"#utility.yul\":34867:34890   */\n      tag_736\n        /* \"#utility.yul\":34884:34889   */\n      dup2\n        /* \"#utility.yul\":34867:34890   */\n      tag_478\n      jump\t// in\n    tag_736:\n        /* \"#utility.yul\":34860:34865   */\n      dup2\n        /* \"#utility.yul\":34857:34891   */\n      eq\n        /* \"#utility.yul\":34847:34909   */\n      tag_737\n      jumpi\n        /* \"#utility.yul\":34905:34906   */\n      0x00\n        /* \"#utility.yul\":34902:34903   */\n      dup1\n        /* \"#utility.yul\":34895:34907   */\n      revert\n        /* \"#utility.yul\":34847:34909   */\n    tag_737:\n        /* \"#utility.yul\":34795:34915   */\n      pop\n      jump\t// out\n        /* \"#utility.yul\":34921:35077   */\n    tag_385:\n        /* \"#utility.yul\":35011:35052   */\n      tag_739\n        /* \"#utility.yul\":35046:35051   */\n      dup2\n        /* \"#utility.yul\":35011:35052   */\n      tag_690\n      jump\t// in\n    tag_739:\n        /* \"#utility.yul\":35004:35009   */\n      dup2\n        /* \"#utility.yul\":35001:35053   */\n      eq\n        /* \"#utility.yul\":34991:35071   */\n      tag_740\n      jumpi\n        /* \"#utility.yul\":35067:35068   */\n      0x00\n        /* \"#utility.yul\":35064:35065   */\n      dup1\n        /* \"#utility.yul\":35057:35069   */\n      revert\n        /* \"#utility.yul\":34991:35071   */\n    tag_740:\n        /* \"#utility.yul\":34921:35077   */\n      pop\n      jump\t// out\n        /* \"#utility.yul\":35083:35205   */\n    tag_398:\n        /* \"#utility.yul\":35156:35180   */\n      tag_742\n        /* \"#utility.yul\":35174:35179   */\n      dup2\n        /* \"#utility.yul\":35156:35180   */\n      tag_587\n      jump\t// in\n    tag_742:\n        /* \"#utility.yul\":35149:35154   */\n      dup2\n        /* \"#utility.yul\":35146:35181   */\n      eq\n        /* \"#utility.yul\":35136:35199   */\n      tag_743\n      jumpi\n        /* \"#utility.yul\":35195:35196   */\n      0x00\n        /* \"#utility.yul\":35192:35193   */\n      dup1\n        /* \"#utility.yul\":35185:35197   */\n      revert\n        /* \"#utility.yul\":35136:35199   */\n    tag_743:\n        /* \"#utility.yul\":35083:35205   */\n      pop\n      jump\t// out\n    stop\n    data_eb97c41b3f651080603cbd3c7c438c7324cd0069264d3abe764ec765afe6a3d8 332e302e302d626574612e332b6f70656e67736e2e61636365707465766572797468696e672e697061796d6173746572\n\n    auxdata: 0xa2646970667358221220d4dbc4a017b3c2a2fb47d60e63b2589cdc5071e163fed294b27392b49bc6675964736f6c63430008070033\n}\n",
				"bytecode": {
					"linkReferences": {},
					"object": "6080604052670de0b6b3a76400006004553480156200001d57600080fd5b506200003e620000326200004460201b60201c565b6200004c60201b60201c565b62000110565b600033905090565b60008060009054906101000a900473ffffffffffffffffffffffffffffffffffffffff169050816000806101000a81548173ffffffffffffffffffffffffffffffffffffffff021916908373ffffffffffffffffffffffffffffffffffffffff1602179055508173ffffffffffffffffffffffffffffffffffffffff168173ffffffffffffffffffffffffffffffffffffffff167f8be0079c531659141344cd1fd0a4f28419497f9722a3daafe3b4186f6b6457e060405160405180910390a35050565b612b3280620001206000396000f3fe6080604052600436106101685760003560e01c80637bb05264116100d1578063b90b41cf1161008a578063da74222811610064578063da74222814610643578063df463a661461066c578063f2fde38b14610697578063f9c002f7146106c05761028f565b8063b90b41cf146105c2578063bbdaa3c9146105ed578063ce1b815f146106185761028f565b80637bb05264146104b05780637bdf2ec7146104d9578063858437b0146105045780638da5cb5b14610541578063921276ea1461056c578063b039a88f146105975761028f565b80631959a002116101235780631959a002146103b55780632d14c4b7146103f35780634118c9b61461041c5780635c5e3db114610445578063715018a61461047057806376fa01c3146104875761028f565b8062be5dd414610294578062f714ce146102d257806301ffc9a7146102fb578063033137bd1461033857806312065fe014610361578063122560541461038c5761028f565b3661028f57600073ffffffffffffffffffffffffffffffffffffffff16600160009054906101000a900473ffffffffffffffffffffffffffffffffffffffff1673ffffffffffffffffffffffffffffffffffffffff1614156101ff576040517f08c379a00000000000000000000000000000000000000000000000000000000081526004016101f690612303565b60405180910390fd5b600160009054906101000a900473ffffffffffffffffffffffffffffffffffffffff1673ffffffffffffffffffffffffffffffffffffffff1663aa67c91934306040518363ffffffff1660e01b815260040161025b9190612197565b6000604051808303818588803b15801561027457600080fd5b505af1158015610288573d6000803e3d6000fd5b5050505050005b600080fd5b3480156102a057600080fd5b506102bb60048036038101906102b69190611cf1565b6106eb565b6040516102c9929190612211565b60405180910390f35b3480156102de57600080fd5b506102f960048036038101906102f49190611de1565b610739565b005b34801561030757600080fd5b50610322600480360381019061031d9190611bf3565b6107d4565b60405161032f91906121db565b60405180910390f35b34801561034457600080fd5b5061035f600480360381019061035a9190611b86565b6108b6565b005b34801561036d57600080fd5b5061037661091b565b604051610383919061245e565b60405180910390f35b34801561039857600080fd5b506103b360048036038101906103ae9190611b46565b6109cd565b005b3480156103c157600080fd5b506103dc60048036038101906103d79190611b19565b610a30565b6040516103ea929190612479565b60405180910390f35b3480156103ff57600080fd5b5061041a60048036038101906104159190611de1565b610a54565b005b34801561042857600080fd5b50610443600480360381019061043e9190611b86565b610aef565b005b34801561045157600080fd5b5061045a610b54565b604051610467919061245e565b60405180910390f35b34801561047c57600080fd5b50610485610b5a565b005b34801561049357600080fd5b506104ae60048036038101906104a99190611c20565b610b6e565b005b3480156104bc57600080fd5b506104d760048036038101906104d29190611cc4565b610b8a565b005b3480156104e557600080fd5b506104ee610c5e565b6040516104fb9190612197565b60405180910390f35b34801561051057600080fd5b5061052b60048036038101906105269190611b19565b610c88565b60405161053891906121db565b60405180910390f35b34801561054d57600080fd5b50610556610ca8565b6040516105639190612197565b60405180910390f35b34801561057857600080fd5b50610581610cd1565b60405161058e9190612241565b60405180910390f35b3480156105a357600080fd5b506105ac610cf1565b6040516105b99190612443565b60405180910390f35b3480156105ce57600080fd5b506105d7610d37565b6040516105e4919061245e565b60405180910390f35b3480156105f957600080fd5b50610602610d3d565b60405161060f919061245e565b60405180910390f35b34801561062457600080fd5b5061062d610d44565b60405161063a9190612197565b60405180910390f35b34801561064f57600080fd5b5061066a60048036038101906106659190611b19565b610d6e565b005b34801561067857600080fd5b50610681610e42565b60405161068e919061245e565b60405180910390f35b3480156106a357600080fd5b506106be60048036038101906106b99190611b19565b610e56565b005b3480156106cc57600080fd5b506106d5610eda565b6040516106e2919061245e565b60405180910390f35b606060006106f7610ee1565b61070088610f58565b61070988610ffa565b61071288611053565b61071c85856110b9565b61072a888888888888611103565b91509150965096945050505050565b610741611437565b600160009054906101000a900473ffffffffffffffffffffffffffffffffffffffff1673ffffffffffffffffffffffffffffffffffffffff1663f3fef3a382846040518363ffffffff1660e01b815260040161079e9291906121b2565b600060405180830381600087803b1580156107b857600080fd5b505af11580156107cc573d6000803e3d6000fd5b505050505050565b60007fe1ab2dea000000000000000000000000000000000000000000000000000000007bffffffffffffffffffffffffffffffffffffffffffffffffffffffff1916827bffffffffffffffffffffffffffffffffffffffffffffffffffffffff1916148061089f57507f0e083076000000000000000000000000000000000000000000000000000000007bffffffffffffffffffffffffffffffffffffffffffffffffffffffff1916827bffffffffffffffffffffffffffffffffffffffffffffffffffffffff1916145b806108af57506108ae826114b5565b5b9050919050565b6108be611437565b80600560008473ffffffffffffffffffffffffffffffffffffffff1673ffffffffffffffffffffffffffffffffffffffff16815260200190815260200160002060010160008282546109109190612649565b925050819055505050565b6000600160009054906101000a900473ffffffffffffffffffffffffffffffffffffffff1673ffffffffffffffffffffffffffffffffffffffff166370a08231306040518263ffffffff1660e01b81526004016109789190612197565b60206040518083038186803b15801561099057600080fd5b505afa1580156109a4573d6000803e3d6000fd5b505050506040513d601f19601f820116820180604052508101906109c89190611db4565b905090565b6109d5611437565b80600360008473ffffffffffffffffffffffffffffffffffffffff1673ffffffffffffffffffffffffffffffffffffffff16815260200190815260200160002060006101000a81548160ff0219169083151502179055505050565b60056020528060005260406000206000915090508060000154908060010154905082565b610a5c611437565b600160009054906101000a900473ffffffffffffffffffffffffffffffffffffffff1673ffffffffffffffffffffffffffffffffffffffff1663f3fef3a382846040518363ffffffff1660e01b8152600401610ab99291906121b2565b600060405180830381600087803b158015610ad357600080fd5b505af1158015610ae7573d6000803e3d6000fd5b505050505050565b610af7611437565b80600560008473ffffffffffffffffffffffffffffffffffffffff1673ffffffffffffffffffffffffffffffffffffffff1681526020019081526020016000206000016000828254610b499190612599565b925050819055505050565b61290481565b610b62611437565b610b6c600061151f565b565b610b76610ee1565b610b8385858585856115e3565b5050505050565b610b92611437565b610bdb7fe9fb30f7000000000000000000000000000000000000000000000000000000008273ffffffffffffffffffffffffffffffffffffffff1661167b90919063ffffffff16565b610c1a576040517f08c379a0000000000000000000000000000000000000000000000000000000008152600401610c11906123c3565b60405180910390fd5b80600160006101000a81548173ffffffffffffffffffffffffffffffffffffffff021916908373ffffffffffffffffffffffffffffffffffffffff16021790555050565b6000600160009054906101000a900473ffffffffffffffffffffffffffffffffffffffff16905090565b60036020528060005260406000206000915054906101000a900460ff1681565b60008060009054906101000a900473ffffffffffffffffffffffffffffffffffffffff16905090565b6060604051806060016040528060308152602001612acd60309139905090565b610cf96119b4565b604051806080016040528061c350620186a0610d159190612599565b8152602001620186a081526020016201adb08152602001612904815250905090565b61c35081565b6201adb081565b6000600260009054906101000a900473ffffffffffffffffffffffffffffffffffffffff16905090565b610d76611437565b610dbf7f25e23e64000000000000000000000000000000000000000000000000000000008273ffffffffffffffffffffffffffffffffffffffff1661167b90919063ffffffff16565b610dfe576040517f08c379a0000000000000000000000000000000000000000000000000000000008152600401610df590612363565b60405180910390fd5b80600260006101000a81548173ffffffffffffffffffffffffffffffffffffffff021916908373ffffffffffffffffffffffffffffffffffffffff16021790555050565b61c350620186a0610e539190612599565b81565b610e5e611437565b600073ffffffffffffffffffffffffffffffffffffffff168173ffffffffffffffffffffffffffffffffffffffff161415610ece576040517f08c379a0000000000000000000000000000000000000000000000000000000008152600401610ec5906122c3565b60405180910390fd5b610ed78161151f565b50565b620186a081565b610ee9610c5e565b73ffffffffffffffffffffffffffffffffffffffff163373ffffffffffffffffffffffffffffffffffffffff1614610f56576040517f08c379a0000000000000000000000000000000000000000000000000000000008152600401610f4d906123e3565b60405180910390fd5b565b808060200190610f68919061252d565b60a0016020810190610f7a9190611b19565b73ffffffffffffffffffffffffffffffffffffffff16610f98610d44565b73ffffffffffffffffffffffffffffffffffffffff1614610fee576040517f08c379a0000000000000000000000000000000000000000000000000000000008152600401610fe590612323565b60405180910390fd5b610ff7816116a0565b50565b600081806000019061100c9190612505565b6040013514611050576040517f08c379a000000000000000000000000000000000000000000000000000000000815260040161104790612403565b60405180910390fd5b50565b6000818060200190611065919061252d565b8060c0019061107491906124a2565b9050146110b6576040517f08c379a00000000000000000000000000000000000000000000000000000000081526004016110ad90612283565b60405180910390fd5b50565b600082829050146110ff576040517f08c379a00000000000000000000000000000000000000000000000000000000081526004016110f690612423565b60405180910390fd5b5050565b606060006003600089806000019061111b9190612505565b602001602081019061112d9190611b19565b73ffffffffffffffffffffffffffffffffffffffff1673ffffffffffffffffffffffffffffffffffffffff16815260200190815260200160002060009054906101000a900460ff166111b4576040517f08c379a00000000000000000000000000000000000000000000000000000000081526004016111ab90612263565b60405180910390fd5b60005a90508880600001906111c99190612505565b60000160208101906111db9190611b19565b600660006101000a81548173ffffffffffffffffffffffffffffffffffffffff021916908373ffffffffffffffffffffffffffffffffffffffff160217905550600060056000600660009054906101000a900473ffffffffffffffffffffffffffffffffffffffff1673ffffffffffffffffffffffffffffffffffffffff1673ffffffffffffffffffffffffffffffffffffffff1681526020019081526020016000206000015414156112f45760045460056000600660009054906101000a900473ffffffffffffffffffffffffffffffffffffffff1673ffffffffffffffffffffffffffffffffffffffff1673ffffffffffffffffffffffffffffffffffffffff168152602001908152602001600020600001819055505b60056000600660009054906101000a900473ffffffffffffffffffffffffffffffffffffffff1673ffffffffffffffffffffffffffffffffffffffff1673ffffffffffffffffffffffffffffffffffffffff168152602001908152602001600020600001543a5a61136591906125ef565b60056000600660009054906101000a900473ffffffffffffffffffffffffffffffffffffffff1673ffffffffffffffffffffffffffffffffffffffff1673ffffffffffffffffffffffffffffffffffffffff168152602001908152602001600020600101546113d49190612599565b10611414576040517f08c379a000000000000000000000000000000000000000000000000000000000815260040161140b90612343565b60405180910390fd5b600060405180602001604052806000815250909250925050965096945050505050565b61143f6118a0565b73ffffffffffffffffffffffffffffffffffffffff1661145d610ca8565b73ffffffffffffffffffffffffffffffffffffffff16146114b3576040517f08c379a00000000000000000000000000000000000000000000000000000000081526004016114aa906123a3565b60405180910390fd5b565b60007f01ffc9a7000000000000000000000000000000000000000000000000000000007bffffffffffffffffffffffffffffffffffffffffffffffffffffffff1916827bffffffffffffffffffffffffffffffffffffffffffffffffffffffff1916149050919050565b60008060009054906101000a900473ffffffffffffffffffffffffffffffffffffffff169050816000806101000a81548173ffffffffffffffffffffffffffffffffffffffff021916908373ffffffffffffffffffffffffffffffffffffffff1602179055508173ffffffffffffffffffffffffffffffffffffffff168173ffffffffffffffffffffffffffffffffffffffff167f8be0079c531659141344cd1fd0a4f28419497f9722a3daafe3b4186f6b6457e060405160405180910390a35050565b3a5a836115f09190612599565b6115fa91906125ef565b60056000600660009054906101000a900473ffffffffffffffffffffffffffffffffffffffff1673ffffffffffffffffffffffffffffffffffffffff1673ffffffffffffffffffffffffffffffffffffffff168152602001908152602001600020600101600082825461166d9190612599565b925050819055505050505050565b6000611686836118a8565b8015611698575061169783836118f5565b5b905092915050565b6000808280600001906116b39190612505565b60200160208101906116c59190611b19565b73ffffffffffffffffffffffffffffffffffffffff1663572b6c0560e01b8480602001906116f3919061252d565b60a00160208101906117059190611b19565b6040516024016117159190612197565b604051602081830303815290604052907bffffffffffffffffffffffffffffffffffffffffffffffffffffffff19166020820180517bffffffffffffffffffffffffffffffffffffffffffffffffffffffff838183161783525050505060405161177f9190612180565b600060405180830381855afa9150503d80600081146117ba576040519150601f19603f3d011682016040523d82523d6000602084013e6117bf565b606091505b509150915081611804576040517f08c379a00000000000000000000000000000000000000000000000000000000081526004016117fb906122e3565b60405180910390fd5b6020815114611848576040517f08c379a000000000000000000000000000000000000000000000000000000000815260040161183f90612383565b60405180910390fd5b8080602001905181019061185c9190611bc6565b61189b576040517f08c379a0000000000000000000000000000000000000000000000000000000008152600401611892906122a3565b60405180910390fd5b505050565b600033905090565b60006118d4827f01ffc9a7000000000000000000000000000000000000000000000000000000006118f5565b80156118ee57506118ec8263ffffffff60e01b6118f5565b155b9050919050565b6000806301ffc9a760e01b8360405160240161191191906121f6565b604051602081830303815290604052907bffffffffffffffffffffffffffffffffffffffffffffffffffffffff19166020820180517bffffffffffffffffffffffffffffffffffffffffffffffffffffffff838183161783525050505090506000806000602060008551602087018a617530fa92503d9150600051905082801561199c575060208210155b80156119a85750600081115b94505050505092915050565b6040518060800160405280600081526020016000815260200160008152602001600081525090565b6000813590506119eb81612a42565b92915050565b600081359050611a0081612a59565b92915050565b600081359050611a1581612a70565b92915050565b600081519050611a2a81612a70565b92915050565b600081359050611a3f81612a87565b92915050565b60008083601f840112611a5b57611a5a61277c565b5b8235905067ffffffffffffffff811115611a7857611a77612777565b5b602083019150836001820283011115611a9457611a93612790565b5b9250929050565b600081359050611aaa81612a9e565b92915050565b60006101008284031215611ac757611ac6612786565b5b81905092915050565b600060408284031215611ae657611ae5612786565b5b81905092915050565b600081359050611afe81612ab5565b92915050565b600081519050611b1381612ab5565b92915050565b600060208284031215611b2f57611b2e61279f565b5b6000611b3d848285016119dc565b91505092915050565b60008060408385031215611b5d57611b5c61279f565b5b6000611b6b858286016119dc565b9250506020611b7c85828601611a06565b9150509250929050565b60008060408385031215611b9d57611b9c61279f565b5b6000611bab858286016119dc565b9250506020611bbc85828601611aef565b9150509250929050565b600060208284031215611bdc57611bdb61279f565b5b6000611bea84828501611a1b565b91505092915050565b600060208284031215611c0957611c0861279f565b5b6000611c1784828501611a30565b91505092915050565b600080600080600060808688031215611c3c57611c3b61279f565b5b600086013567ffffffffffffffff811115611c5a57611c5961279a565b5b611c6688828901611a45565b95509550506020611c7988828901611a06565b9350506040611c8a88828901611aef565b925050606086013567ffffffffffffffff811115611cab57611caa61279a565b5b611cb788828901611ab0565b9150509295509295909350565b600060208284031215611cda57611cd961279f565b5b6000611ce884828501611a9b565b91505092915050565b60008060008060008060808789031215611d0e57611d0d61279f565b5b600087013567ffffffffffffffff811115611d2c57611d2b61279a565b5b611d3889828a01611ad0565b965050602087013567ffffffffffffffff811115611d5957611d5861279a565b5b611d6589828a01611a45565b9550955050604087013567ffffffffffffffff811115611d8857611d8761279a565b5b611d9489828a01611a45565b93509350506060611da789828a01611aef565b9150509295509295509295565b600060208284031215611dca57611dc961279f565b5b6000611dd884828501611b04565b91505092915050565b60008060408385031215611df857611df761279f565b5b6000611e0685828601611aef565b9250506020611e17858286016119f1565b9150509250929050565b611e2a8161268f565b82525050565b611e398161267d565b82525050565b611e48816126a1565b82525050565b611e57816126ad565b82525050565b6000611e6882612556565b611e72818561256c565b9350611e82818560208601612715565b611e8b816127a4565b840191505092915050565b6000611ea182612556565b611eab818561257d565b9350611ebb818560208601612715565b80840191505092915050565b6000611ed282612561565b611edc8185612588565b9350611eec818560208601612715565b611ef5816127a4565b840191505092915050565b6000611f0d600c83612588565b9150611f18826127b5565b602082019050919050565b6000611f30601c83612588565b9150611f3b826127de565b602082019050919050565b6000611f53601f83612588565b9150611f5e82612807565b602082019050919050565b6000611f76602683612588565b9150611f8182612830565b604082019050919050565b6000611f99601c83612588565b9150611fa48261287f565b602082019050919050565b6000611fbc601983612588565b9150611fc7826128a8565b602082019050919050565b6000611fdf601883612588565b9150611fea826128d1565b602082019050919050565b6000612002600e83612588565b915061200d826128fa565b602082019050919050565b6000612025602083612588565b915061203082612923565b602082019050919050565b6000612048602083612588565b91506120538261294c565b602082019050919050565b600061206b602083612588565b915061207682612975565b602082019050919050565b600061208e601f83612588565b91506120998261299e565b602082019050919050565b60006120b1601e83612588565b91506120bc826129c7565b602082019050919050565b60006120d4601c83612588565b91506120df826129f0565b602082019050919050565b60006120f7601b83612588565b915061210282612a19565b602082019050919050565b6080820160008201516121236000850182612162565b5060208201516121366020850182612162565b5060408201516121496040850182612162565b50606082015161215c6060850182612162565b50505050565b61216b8161270b565b82525050565b61217a8161270b565b82525050565b600061218c8284611e96565b915081905092915050565b60006020820190506121ac6000830184611e30565b92915050565b60006040820190506121c76000830185611e21565b6121d46020830184612171565b9392505050565b60006020820190506121f06000830184611e3f565b92915050565b600060208201905061220b6000830184611e4e565b92915050565b6000604082019050818103600083015261222b8185611e5d565b905061223a6020830184611e3f565b9392505050565b6000602082019050818103600083015261225b8184611ec7565b905092915050565b6000602082019050818103600083015261227c81611f00565b9050919050565b6000602082019050818103600083015261229c81611f23565b9050919050565b600060208201905081810360008301526122bc81611f46565b9050919050565b600060208201905081810360008301526122dc81611f69565b9050919050565b600060208201905081810360008301526122fc81611f8c565b9050919050565b6000602082019050818103600083015261231c81611faf565b9050919050565b6000602082019050818103600083015261233c81611fd2565b9050919050565b6000602082019050818103600083015261235c81611ff5565b9050919050565b6000602082019050818103600083015261237c81612018565b9050919050565b6000602082019050818103600083015261239c8161203b565b9050919050565b600060208201905081810360008301526123bc8161205e565b9050919050565b600060208201905081810360008301526123dc81612081565b9050919050565b600060208201905081810360008301526123fc816120a4565b9050919050565b6000602082019050818103600083015261241c816120c7565b9050919050565b6000602082019050818103600083015261243c816120ea565b9050919050565b6000608082019050612458600083018461210d565b92915050565b60006020820190506124736000830184612171565b92915050565b600060408201905061248e6000830185612171565b61249b6020830184612171565b9392505050565b600080833560016020038436030381126124bf576124be61278b565b5b80840192508235915067ffffffffffffffff8211156124e1576124e0612781565b5b6020830192506001820236038313156124fd576124fc612795565b5b509250929050565b60008235600160e0038336030381126125215761252061278b565b5b80830191505092915050565b6000823560016101000383360303811261254a5761254961278b565b5b80830191505092915050565b600081519050919050565b600081519050919050565b600082825260208201905092915050565b600081905092915050565b600082825260208201905092915050565b60006125a48261270b565b91506125af8361270b565b9250827fffffffffffffffffffffffffffffffffffffffffffffffffffffffffffffffff038211156125e4576125e3612748565b5b828201905092915050565b60006125fa8261270b565b91506126058361270b565b9250817fffffffffffffffffffffffffffffffffffffffffffffffffffffffffffffffff048311821515161561263e5761263d612748565b5b828202905092915050565b60006126548261270b565b915061265f8361270b565b92508282101561267257612671612748565b5b828203905092915050565b6000612688826126eb565b9050919050565b600061269a826126eb565b9050919050565b60008115159050919050565b60007fffffffff0000000000000000000000000000000000000000000000000000000082169050919050565b60006126e48261267d565b9050919050565b600073ffffffffffffffffffffffffffffffffffffffff82169050919050565b6000819050919050565b60005b83811015612733578082015181840152602081019050612718565b83811115612742576000848401525b50505050565b7f4e487b7100000000000000000000000000000000000000000000000000000000600052601160045260246000fd5b600080fd5b600080fd5b600080fd5b600080fd5b600080fd5b600080fd5b600080fd5b600080fd5b600080fd5b6000601f19601f8301169050919050565b7f77726f6e67207461726765740000000000000000000000000000000000000000600082015250565b7f73686f756c642068617665206e6f207061796d61737465724461746100000000600082015250565b7f696e76616c696420666f7277617264657220666f7220726563697069656e7400600082015250565b7f4f776e61626c653a206e6577206f776e657220697320746865207a65726f206160008201527f6464726573730000000000000000000000000000000000000000000000000000602082015250565b7f697354727573746564466f727761726465723a20726576657274656400000000600082015250565b7f72656c6179206875622061646472657373206e6f742073657400000000000000600082015250565b7f466f72776172646572206973206e6f7420747275737465640000000000000000600082015250565b7f6f76657220746865206c696d6974000000000000000000000000000000000000600082015250565b7f746172676574206973206e6f7420612076616c69642049466f72776172646572600082015250565b7f697354727573746564466f727761726465723a2062616420726573706f6e7365600082015250565b7f4f776e61626c653a2063616c6c6572206973206e6f7420746865206f776e6572600082015250565b7f746172676574206973206e6f7420612076616c6964204952656c617948756200600082015250565b7f63616e206f6e6c792062652063616c6c65642062792052656c61794875620000600082015250565b7f76616c7565207472616e73666572206e6f7420737570706f7274656400000000600082015250565b7f73686f756c642068617665206e6f20617070726f76616c446174610000000000600082015250565b612a4b8161267d565b8114612a5657600080fd5b50565b612a628161268f565b8114612a6d57600080fd5b50565b612a79816126a1565b8114612a8457600080fd5b50565b612a90816126ad565b8114612a9b57600080fd5b50565b612aa7816126d9565b8114612ab257600080fd5b50565b612abe8161270b565b8114612ac957600080fd5b5056fe332e302e302d626574612e332b6f70656e67736e2e61636365707465766572797468696e672e697061796d6173746572a2646970667358221220d4dbc4a017b3c2a2fb47d60e63b2589cdc5071e163fed294b27392b49bc6675964736f6c63430008070033",
					"opcodes": "PUSH1 0x80 PUSH1 0x40 MSTORE PUSH8 0xDE0B6B3A7640000 PUSH1 0x4 SSTORE CALLVALUE DUP1 ISZERO PUSH3 0x1D JUMPI PUSH1 0x0 DUP1 REVERT JUMPDEST POP PUSH3 0x3E PUSH3 0x32 PUSH3 0x44 PUSH1 0x20 SHL PUSH1 0x20 SHR JUMP JUMPDEST PUSH3 0x4C PUSH1 0x20 SHL PUSH1 0x20 SHR JUMP JUMPDEST PUSH3 0x110 JUMP JUMPDEST PUSH1 0x0 CALLER SWAP1 POP SWAP1 JUMP JUMPDEST PUSH1 0x0 DUP1 PUSH1 0x0 SWAP1 SLOAD SWAP1 PUSH2 0x100 EXP SWAP1 DIV PUSH20 0xFFFFFFFFFFFFFFFFFFFFFFFFFFFFFFFFFFFFFFFF AND SWAP1 POP DUP2 PUSH1 0x0 DUP1 PUSH2 0x100 EXP DUP2 SLOAD DUP2 PUSH20 0xFFFFFFFFFFFFFFFFFFFFFFFFFFFFFFFFFFFFFFFF MUL NOT AND SWAP1 DUP4 PUSH20 0xFFFFFFFFFFFFFFFFFFFFFFFFFFFFFFFFFFFFFFFF AND MUL OR SWAP1 SSTORE POP DUP2 PUSH20 0xFFFFFFFFFFFFFFFFFFFFFFFFFFFFFFFFFFFFFFFF AND DUP2 PUSH20 0xFFFFFFFFFFFFFFFFFFFFFFFFFFFFFFFFFFFFFFFF AND PUSH32 0x8BE0079C531659141344CD1FD0A4F28419497F9722A3DAAFE3B4186F6B6457E0 PUSH1 0x40 MLOAD PUSH1 0x40 MLOAD DUP1 SWAP2 SUB SWAP1 LOG3 POP POP JUMP JUMPDEST PUSH2 0x2B32 DUP1 PUSH3 0x120 PUSH1 0x0 CODECOPY PUSH1 0x0 RETURN INVALID PUSH1 0x80 PUSH1 0x40 MSTORE PUSH1 0x4 CALLDATASIZE LT PUSH2 0x168 JUMPI PUSH1 0x0 CALLDATALOAD PUSH1 0xE0 SHR DUP1 PUSH4 0x7BB05264 GT PUSH2 0xD1 JUMPI DUP1 PUSH4 0xB90B41CF GT PUSH2 0x8A JUMPI DUP1 PUSH4 0xDA742228 GT PUSH2 0x64 JUMPI DUP1 PUSH4 0xDA742228 EQ PUSH2 0x643 JUMPI DUP1 PUSH4 0xDF463A66 EQ PUSH2 0x66C JUMPI DUP1 PUSH4 0xF2FDE38B EQ PUSH2 0x697 JUMPI DUP1 PUSH4 0xF9C002F7 EQ PUSH2 0x6C0 JUMPI PUSH2 0x28F JUMP JUMPDEST DUP1 PUSH4 0xB90B41CF EQ PUSH2 0x5C2 JUMPI DUP1 PUSH4 0xBBDAA3C9 EQ PUSH2 0x5ED JUMPI DUP1 PUSH4 0xCE1B815F EQ PUSH2 0x618 JUMPI PUSH2 0x28F JUMP JUMPDEST DUP1 PUSH4 0x7BB05264 EQ PUSH2 0x4B0 JUMPI DUP1 PUSH4 0x7BDF2EC7 EQ PUSH2 0x4D9 JUMPI DUP1 PUSH4 0x858437B0 EQ PUSH2 0x504 JUMPI DUP1 PUSH4 0x8DA5CB5B EQ PUSH2 0x541 JUMPI DUP1 PUSH4 0x921276EA EQ PUSH2 0x56C JUMPI DUP1 PUSH4 0xB039A88F EQ PUSH2 0x597 JUMPI PUSH2 0x28F JUMP JUMPDEST DUP1 PUSH4 0x1959A002 GT PUSH2 0x123 JUMPI DUP1 PUSH4 0x1959A002 EQ PUSH2 0x3B5 JUMPI DUP1 PUSH4 0x2D14C4B7 EQ PUSH2 0x3F3 JUMPI DUP1 PUSH4 0x4118C9B6 EQ PUSH2 0x41C JUMPI DUP1 PUSH4 0x5C5E3DB1 EQ PUSH2 0x445 JUMPI DUP1 PUSH4 0x715018A6 EQ PUSH2 0x470 JUMPI DUP1 PUSH4 0x76FA01C3 EQ PUSH2 0x487 JUMPI PUSH2 0x28F JUMP JUMPDEST DUP1 PUSH3 0xBE5DD4 EQ PUSH2 0x294 JUMPI DUP1 PUSH3 0xF714CE EQ PUSH2 0x2D2 JUMPI DUP1 PUSH4 0x1FFC9A7 EQ PUSH2 0x2FB JUMPI DUP1 PUSH4 0x33137BD EQ PUSH2 0x338 JUMPI DUP1 PUSH4 0x12065FE0 EQ PUSH2 0x361 JUMPI DUP1 PUSH4 0x12256054 EQ PUSH2 0x38C JUMPI PUSH2 0x28F JUMP JUMPDEST CALLDATASIZE PUSH2 0x28F JUMPI PUSH1 0x0 PUSH20 0xFFFFFFFFFFFFFFFFFFFFFFFFFFFFFFFFFFFFFFFF AND PUSH1 0x1 PUSH1 0x0 SWAP1 SLOAD SWAP1 PUSH2 0x100 EXP SWAP1 DIV PUSH20 0xFFFFFFFFFFFFFFFFFFFFFFFFFFFFFFFFFFFFFFFF AND PUSH20 0xFFFFFFFFFFFFFFFFFFFFFFFFFFFFFFFFFFFFFFFF AND EQ ISZERO PUSH2 0x1FF JUMPI PUSH1 0x40 MLOAD PUSH32 0x8C379A000000000000000000000000000000000000000000000000000000000 DUP2 MSTORE PUSH1 0x4 ADD PUSH2 0x1F6 SWAP1 PUSH2 0x2303 JUMP JUMPDEST PUSH1 0x40 MLOAD DUP1 SWAP2 SUB SWAP1 REVERT JUMPDEST PUSH1 0x1 PUSH1 0x0 SWAP1 SLOAD SWAP1 PUSH2 0x100 EXP SWAP1 DIV PUSH20 0xFFFFFFFFFFFFFFFFFFFFFFFFFFFFFFFFFFFFFFFF AND PUSH20 0xFFFFFFFFFFFFFFFFFFFFFFFFFFFFFFFFFFFFFFFF AND PUSH4 0xAA67C919 CALLVALUE ADDRESS PUSH1 0x40 MLOAD DUP4 PUSH4 0xFFFFFFFF AND PUSH1 0xE0 SHL DUP2 MSTORE PUSH1 0x4 ADD PUSH2 0x25B SWAP2 SWAP1 PUSH2 0x2197 JUMP JUMPDEST PUSH1 0x0 PUSH1 0x40 MLOAD DUP1 DUP4 SUB DUP2 DUP6 DUP9 DUP1 EXTCODESIZE ISZERO DUP1 ISZERO PUSH2 0x274 JUMPI PUSH1 0x0 DUP1 REVERT JUMPDEST POP GAS CALL ISZERO DUP1 ISZERO PUSH2 0x288 JUMPI RETURNDATASIZE PUSH1 0x0 DUP1 RETURNDATACOPY RETURNDATASIZE PUSH1 0x0 REVERT JUMPDEST POP POP POP POP POP STOP JUMPDEST PUSH1 0x0 DUP1 REVERT JUMPDEST CALLVALUE DUP1 ISZERO PUSH2 0x2A0 JUMPI PUSH1 0x0 DUP1 REVERT JUMPDEST POP PUSH2 0x2BB PUSH1 0x4 DUP1 CALLDATASIZE SUB DUP2 ADD SWAP1 PUSH2 0x2B6 SWAP2 SWAP1 PUSH2 0x1CF1 JUMP JUMPDEST PUSH2 0x6EB JUMP JUMPDEST PUSH1 0x40 MLOAD PUSH2 0x2C9 SWAP3 SWAP2 SWAP1 PUSH2 0x2211 JUMP JUMPDEST PUSH1 0x40 MLOAD DUP1 SWAP2 SUB SWAP1 RETURN JUMPDEST CALLVALUE DUP1 ISZERO PUSH2 0x2DE JUMPI PUSH1 0x0 DUP1 REVERT JUMPDEST POP PUSH2 0x2F9 PUSH1 0x4 DUP1 CALLDATASIZE SUB DUP2 ADD SWAP1 PUSH2 0x2F4 SWAP2 SWAP1 PUSH2 0x1DE1 JUMP JUMPDEST PUSH2 0x739 JUMP JUMPDEST STOP JUMPDEST CALLVALUE DUP1 ISZERO PUSH2 0x307 JUMPI PUSH1 0x0 DUP1 REVERT JUMPDEST POP PUSH2 0x322 PUSH1 0x4 DUP1 CALLDATASIZE SUB DUP2 ADD SWAP1 PUSH2 0x31D SWAP2 SWAP1 PUSH2 0x1BF3 JUMP JUMPDEST PUSH2 0x7D4 JUMP JUMPDEST PUSH1 0x40 MLOAD PUSH2 0x32F SWAP2 SWAP1 PUSH2 0x21DB JUMP JUMPDEST PUSH1 0x40 MLOAD DUP1 SWAP2 SUB SWAP1 RETURN JUMPDEST CALLVALUE DUP1 ISZERO PUSH2 0x344 JUMPI PUSH1 0x0 DUP1 REVERT JUMPDEST POP PUSH2 0x35F PUSH1 0x4 DUP1 CALLDATASIZE SUB DUP2 ADD SWAP1 PUSH2 0x35A SWAP2 SWAP1 PUSH2 0x1B86 JUMP JUMPDEST PUSH2 0x8B6 JUMP JUMPDEST STOP JUMPDEST CALLVALUE DUP1 ISZERO PUSH2 0x36D JUMPI PUSH1 0x0 DUP1 REVERT JUMPDEST POP PUSH2 0x376 PUSH2 0x91B JUMP JUMPDEST PUSH1 0x40 MLOAD PUSH2 0x383 SWAP2 SWAP1 PUSH2 0x245E JUMP JUMPDEST PUSH1 0x40 MLOAD DUP1 SWAP2 SUB SWAP1 RETURN JUMPDEST CALLVALUE DUP1 ISZERO PUSH2 0x398 JUMPI PUSH1 0x0 DUP1 REVERT JUMPDEST POP PUSH2 0x3B3 PUSH1 0x4 DUP1 CALLDATASIZE SUB DUP2 ADD SWAP1 PUSH2 0x3AE SWAP2 SWAP1 PUSH2 0x1B46 JUMP JUMPDEST PUSH2 0x9CD JUMP JUMPDEST STOP JUMPDEST CALLVALUE DUP1 ISZERO PUSH2 0x3C1 JUMPI PUSH1 0x0 DUP1 REVERT JUMPDEST POP PUSH2 0x3DC PUSH1 0x4 DUP1 CALLDATASIZE SUB DUP2 ADD SWAP1 PUSH2 0x3D7 SWAP2 SWAP1 PUSH2 0x1B19 JUMP JUMPDEST PUSH2 0xA30 JUMP JUMPDEST PUSH1 0x40 MLOAD PUSH2 0x3EA SWAP3 SWAP2 SWAP1 PUSH2 0x2479 JUMP JUMPDEST PUSH1 0x40 MLOAD DUP1 SWAP2 SUB SWAP1 RETURN JUMPDEST CALLVALUE DUP1 ISZERO PUSH2 0x3FF JUMPI PUSH1 0x0 DUP1 REVERT JUMPDEST POP PUSH2 0x41A PUSH1 0x4 DUP1 CALLDATASIZE SUB DUP2 ADD SWAP1 PUSH2 0x415 SWAP2 SWAP1 PUSH2 0x1DE1 JUMP JUMPDEST PUSH2 0xA54 JUMP JUMPDEST STOP JUMPDEST CALLVALUE DUP1 ISZERO PUSH2 0x428 JUMPI PUSH1 0x0 DUP1 REVERT JUMPDEST POP PUSH2 0x443 PUSH1 0x4 DUP1 CALLDATASIZE SUB DUP2 ADD SWAP1 PUSH2 0x43E SWAP2 SWAP1 PUSH2 0x1B86 JUMP JUMPDEST PUSH2 0xAEF JUMP JUMPDEST STOP JUMPDEST CALLVALUE DUP1 ISZERO PUSH2 0x451 JUMPI PUSH1 0x0 DUP1 REVERT JUMPDEST POP PUSH2 0x45A PUSH2 0xB54 JUMP JUMPDEST PUSH1 0x40 MLOAD PUSH2 0x467 SWAP2 SWAP1 PUSH2 0x245E JUMP JUMPDEST PUSH1 0x40 MLOAD DUP1 SWAP2 SUB SWAP1 RETURN JUMPDEST CALLVALUE DUP1 ISZERO PUSH2 0x47C JUMPI PUSH1 0x0 DUP1 REVERT JUMPDEST POP PUSH2 0x485 PUSH2 0xB5A JUMP JUMPDEST STOP JUMPDEST CALLVALUE DUP1 ISZERO PUSH2 0x493 JUMPI PUSH1 0x0 DUP1 REVERT JUMPDEST POP PUSH2 0x4AE PUSH1 0x4 DUP1 CALLDATASIZE SUB DUP2 ADD SWAP1 PUSH2 0x4A9 SWAP2 SWAP1 PUSH2 0x1C20 JUMP JUMPDEST PUSH2 0xB6E JUMP JUMPDEST STOP JUMPDEST CALLVALUE DUP1 ISZERO PUSH2 0x4BC JUMPI PUSH1 0x0 DUP1 REVERT JUMPDEST POP PUSH2 0x4D7 PUSH1 0x4 DUP1 CALLDATASIZE SUB DUP2 ADD SWAP1 PUSH2 0x4D2 SWAP2 SWAP1 PUSH2 0x1CC4 JUMP JUMPDEST PUSH2 0xB8A JUMP JUMPDEST STOP JUMPDEST CALLVALUE DUP1 ISZERO PUSH2 0x4E5 JUMPI PUSH1 0x0 DUP1 REVERT JUMPDEST POP PUSH2 0x4EE PUSH2 0xC5E JUMP JUMPDEST PUSH1 0x40 MLOAD PUSH2 0x4FB SWAP2 SWAP1 PUSH2 0x2197 JUMP JUMPDEST PUSH1 0x40 MLOAD DUP1 SWAP2 SUB SWAP1 RETURN JUMPDEST CALLVALUE DUP1 ISZERO PUSH2 0x510 JUMPI PUSH1 0x0 DUP1 REVERT JUMPDEST POP PUSH2 0x52B PUSH1 0x4 DUP1 CALLDATASIZE SUB DUP2 ADD SWAP1 PUSH2 0x526 SWAP2 SWAP1 PUSH2 0x1B19 JUMP JUMPDEST PUSH2 0xC88 JUMP JUMPDEST PUSH1 0x40 MLOAD PUSH2 0x538 SWAP2 SWAP1 PUSH2 0x21DB JUMP JUMPDEST PUSH1 0x40 MLOAD DUP1 SWAP2 SUB SWAP1 RETURN JUMPDEST CALLVALUE DUP1 ISZERO PUSH2 0x54D JUMPI PUSH1 0x0 DUP1 REVERT JUMPDEST POP PUSH2 0x556 PUSH2 0xCA8 JUMP JUMPDEST PUSH1 0x40 MLOAD PUSH2 0x563 SWAP2 SWAP1 PUSH2 0x2197 JUMP JUMPDEST PUSH1 0x40 MLOAD DUP1 SWAP2 SUB SWAP1 RETURN JUMPDEST CALLVALUE DUP1 ISZERO PUSH2 0x578 JUMPI PUSH1 0x0 DUP1 REVERT JUMPDEST POP PUSH2 0x581 PUSH2 0xCD1 JUMP JUMPDEST PUSH1 0x40 MLOAD PUSH2 0x58E SWAP2 SWAP1 PUSH2 0x2241 JUMP JUMPDEST PUSH1 0x40 MLOAD DUP1 SWAP2 SUB SWAP1 RETURN JUMPDEST CALLVALUE DUP1 ISZERO PUSH2 0x5A3 JUMPI PUSH1 0x0 DUP1 REVERT JUMPDEST POP PUSH2 0x5AC PUSH2 0xCF1 JUMP JUMPDEST PUSH1 0x40 MLOAD PUSH2 0x5B9 SWAP2 SWAP1 PUSH2 0x2443 JUMP JUMPDEST PUSH1 0x40 MLOAD DUP1 SWAP2 SUB SWAP1 RETURN JUMPDEST CALLVALUE DUP1 ISZERO PUSH2 0x5CE JUMPI PUSH1 0x0 DUP1 REVERT JUMPDEST POP PUSH2 0x5D7 PUSH2 0xD37 JUMP JUMPDEST PUSH1 0x40 MLOAD PUSH2 0x5E4 SWAP2 SWAP1 PUSH2 0x245E JUMP JUMPDEST PUSH1 0x40 MLOAD DUP1 SWAP2 SUB SWAP1 RETURN JUMPDEST CALLVALUE DUP1 ISZERO PUSH2 0x5F9 JUMPI PUSH1 0x0 DUP1 REVERT JUMPDEST POP PUSH2 0x602 PUSH2 0xD3D JUMP JUMPDEST PUSH1 0x40 MLOAD PUSH2 0x60F SWAP2 SWAP1 PUSH2 0x245E JUMP JUMPDEST PUSH1 0x40 MLOAD DUP1 SWAP2 SUB SWAP1 RETURN JUMPDEST CALLVALUE DUP1 ISZERO PUSH2 0x624 JUMPI PUSH1 0x0 DUP1 REVERT JUMPDEST POP PUSH2 0x62D PUSH2 0xD44 JUMP JUMPDEST PUSH1 0x40 MLOAD PUSH2 0x63A SWAP2 SWAP1 PUSH2 0x2197 JUMP JUMPDEST PUSH1 0x40 MLOAD DUP1 SWAP2 SUB SWAP1 RETURN JUMPDEST CALLVALUE DUP1 ISZERO PUSH2 0x64F JUMPI PUSH1 0x0 DUP1 REVERT JUMPDEST POP PUSH2 0x66A PUSH1 0x4 DUP1 CALLDATASIZE SUB DUP2 ADD SWAP1 PUSH2 0x665 SWAP2 SWAP1 PUSH2 0x1B19 JUMP JUMPDEST PUSH2 0xD6E JUMP JUMPDEST STOP JUMPDEST CALLVALUE DUP1 ISZERO PUSH2 0x678 JUMPI PUSH1 0x0 DUP1 REVERT JUMPDEST POP PUSH2 0x681 PUSH2 0xE42 JUMP JUMPDEST PUSH1 0x40 MLOAD PUSH2 0x68E SWAP2 SWAP1 PUSH2 0x245E JUMP JUMPDEST PUSH1 0x40 MLOAD DUP1 SWAP2 SUB SWAP1 RETURN JUMPDEST CALLVALUE DUP1 ISZERO PUSH2 0x6A3 JUMPI PUSH1 0x0 DUP1 REVERT JUMPDEST POP PUSH2 0x6BE PUSH1 0x4 DUP1 CALLDATASIZE SUB DUP2 ADD SWAP1 PUSH2 0x6B9 SWAP2 SWAP1 PUSH2 0x1B19 JUMP JUMPDEST PUSH2 0xE56 JUMP JUMPDEST STOP JUMPDEST CALLVALUE DUP1 ISZERO PUSH2 0x6CC JUMPI PUSH1 0x0 DUP1 REVERT JUMPDEST POP PUSH2 0x6D5 PUSH2 0xEDA JUMP JUMPDEST PUSH1 0x40 MLOAD PUSH2 0x6E2 SWAP2 SWAP1 PUSH2 0x245E JUMP JUMPDEST PUSH1 0x40 MLOAD DUP1 SWAP2 SUB SWAP1 RETURN JUMPDEST PUSH1 0x60 PUSH1 0x0 PUSH2 0x6F7 PUSH2 0xEE1 JUMP JUMPDEST PUSH2 0x700 DUP9 PUSH2 0xF58 JUMP JUMPDEST PUSH2 0x709 DUP9 PUSH2 0xFFA JUMP JUMPDEST PUSH2 0x712 DUP9 PUSH2 0x1053 JUMP JUMPDEST PUSH2 0x71C DUP6 DUP6 PUSH2 0x10B9 JUMP JUMPDEST PUSH2 0x72A DUP9 DUP9 DUP9 DUP9 DUP9 DUP9 PUSH2 0x1103 JUMP JUMPDEST SWAP2 POP SWAP2 POP SWAP7 POP SWAP7 SWAP5 POP POP POP POP POP JUMP JUMPDEST PUSH2 0x741 PUSH2 0x1437 JUMP JUMPDEST PUSH1 0x1 PUSH1 0x0 SWAP1 SLOAD SWAP1 PUSH2 0x100 EXP SWAP1 DIV PUSH20 0xFFFFFFFFFFFFFFFFFFFFFFFFFFFFFFFFFFFFFFFF AND PUSH20 0xFFFFFFFFFFFFFFFFFFFFFFFFFFFFFFFFFFFFFFFF AND PUSH4 0xF3FEF3A3 DUP3 DUP5 PUSH1 0x40 MLOAD DUP4 PUSH4 0xFFFFFFFF AND PUSH1 0xE0 SHL DUP2 MSTORE PUSH1 0x4 ADD PUSH2 0x79E SWAP3 SWAP2 SWAP1 PUSH2 0x21B2 JUMP JUMPDEST PUSH1 0x0 PUSH1 0x40 MLOAD DUP1 DUP4 SUB DUP2 PUSH1 0x0 DUP8 DUP1 EXTCODESIZE ISZERO DUP1 ISZERO PUSH2 0x7B8 JUMPI PUSH1 0x0 DUP1 REVERT JUMPDEST POP GAS CALL ISZERO DUP1 ISZERO PUSH2 0x7CC JUMPI RETURNDATASIZE PUSH1 0x0 DUP1 RETURNDATACOPY RETURNDATASIZE PUSH1 0x0 REVERT JUMPDEST POP POP POP POP POP POP JUMP JUMPDEST PUSH1 0x0 PUSH32 0xE1AB2DEA00000000000000000000000000000000000000000000000000000000 PUSH28 0xFFFFFFFFFFFFFFFFFFFFFFFFFFFFFFFFFFFFFFFFFFFFFFFFFFFFFFFF NOT AND DUP3 PUSH28 0xFFFFFFFFFFFFFFFFFFFFFFFFFFFFFFFFFFFFFFFFFFFFFFFFFFFFFFFF NOT AND EQ DUP1 PUSH2 0x89F JUMPI POP PUSH32 0xE08307600000000000000000000000000000000000000000000000000000000 PUSH28 0xFFFFFFFFFFFFFFFFFFFFFFFFFFFFFFFFFFFFFFFFFFFFFFFFFFFFFFFF NOT AND DUP3 PUSH28 0xFFFFFFFFFFFFFFFFFFFFFFFFFFFFFFFFFFFFFFFFFFFFFFFFFFFFFFFF NOT AND EQ JUMPDEST DUP1 PUSH2 0x8AF JUMPI POP PUSH2 0x8AE DUP3 PUSH2 0x14B5 JUMP JUMPDEST JUMPDEST SWAP1 POP SWAP2 SWAP1 POP JUMP JUMPDEST PUSH2 0x8BE PUSH2 0x1437 JUMP JUMPDEST DUP1 PUSH1 0x5 PUSH1 0x0 DUP5 PUSH20 0xFFFFFFFFFFFFFFFFFFFFFFFFFFFFFFFFFFFFFFFF AND PUSH20 0xFFFFFFFFFFFFFFFFFFFFFFFFFFFFFFFFFFFFFFFF AND DUP2 MSTORE PUSH1 0x20 ADD SWAP1 DUP2 MSTORE PUSH1 0x20 ADD PUSH1 0x0 KECCAK256 PUSH1 0x1 ADD PUSH1 0x0 DUP3 DUP3 SLOAD PUSH2 0x910 SWAP2 SWAP1 PUSH2 0x2649 JUMP JUMPDEST SWAP3 POP POP DUP2 SWAP1 SSTORE POP POP POP JUMP JUMPDEST PUSH1 0x0 PUSH1 0x1 PUSH1 0x0 SWAP1 SLOAD SWAP1 PUSH2 0x100 EXP SWAP1 DIV PUSH20 0xFFFFFFFFFFFFFFFFFFFFFFFFFFFFFFFFFFFFFFFF AND PUSH20 0xFFFFFFFFFFFFFFFFFFFFFFFFFFFFFFFFFFFFFFFF AND PUSH4 0x70A08231 ADDRESS PUSH1 0x40 MLOAD DUP3 PUSH4 0xFFFFFFFF AND PUSH1 0xE0 SHL DUP2 MSTORE PUSH1 0x4 ADD PUSH2 0x978 SWAP2 SWAP1 PUSH2 0x2197 JUMP JUMPDEST PUSH1 0x20 PUSH1 0x40 MLOAD DUP1 DUP4 SUB DUP2 DUP7 DUP1 EXTCODESIZE ISZERO DUP1 ISZERO PUSH2 0x990 JUMPI PUSH1 0x0 DUP1 REVERT JUMPDEST POP GAS STATICCALL ISZERO DUP1 ISZERO PUSH2 0x9A4 JUMPI RETURNDATASIZE PUSH1 0x0 DUP1 RETURNDATACOPY RETURNDATASIZE PUSH1 0x0 REVERT JUMPDEST POP POP POP POP PUSH1 0x40 MLOAD RETURNDATASIZE PUSH1 0x1F NOT PUSH1 0x1F DUP3 ADD AND DUP3 ADD DUP1 PUSH1 0x40 MSTORE POP DUP2 ADD SWAP1 PUSH2 0x9C8 SWAP2 SWAP1 PUSH2 0x1DB4 JUMP JUMPDEST SWAP1 POP SWAP1 JUMP JUMPDEST PUSH2 0x9D5 PUSH2 0x1437 JUMP JUMPDEST DUP1 PUSH1 0x3 PUSH1 0x0 DUP5 PUSH20 0xFFFFFFFFFFFFFFFFFFFFFFFFFFFFFFFFFFFFFFFF AND PUSH20 0xFFFFFFFFFFFFFFFFFFFFFFFFFFFFFFFFFFFFFFFF AND DUP2 MSTORE PUSH1 0x20 ADD SWAP1 DUP2 MSTORE PUSH1 0x20 ADD PUSH1 0x0 KECCAK256 PUSH1 0x0 PUSH2 0x100 EXP DUP2 SLOAD DUP2 PUSH1 0xFF MUL NOT AND SWAP1 DUP4 ISZERO ISZERO MUL OR SWAP1 SSTORE POP POP POP JUMP JUMPDEST PUSH1 0x5 PUSH1 0x20 MSTORE DUP1 PUSH1 0x0 MSTORE PUSH1 0x40 PUSH1 0x0 KECCAK256 PUSH1 0x0 SWAP2 POP SWAP1 POP DUP1 PUSH1 0x0 ADD SLOAD SWAP1 DUP1 PUSH1 0x1 ADD SLOAD SWAP1 POP DUP3 JUMP JUMPDEST PUSH2 0xA5C PUSH2 0x1437 JUMP JUMPDEST PUSH1 0x1 PUSH1 0x0 SWAP1 SLOAD SWAP1 PUSH2 0x100 EXP SWAP1 DIV PUSH20 0xFFFFFFFFFFFFFFFFFFFFFFFFFFFFFFFFFFFFFFFF AND PUSH20 0xFFFFFFFFFFFFFFFFFFFFFFFFFFFFFFFFFFFFFFFF AND PUSH4 0xF3FEF3A3 DUP3 DUP5 PUSH1 0x40 MLOAD DUP4 PUSH4 0xFFFFFFFF AND PUSH1 0xE0 SHL DUP2 MSTORE PUSH1 0x4 ADD PUSH2 0xAB9 SWAP3 SWAP2 SWAP1 PUSH2 0x21B2 JUMP JUMPDEST PUSH1 0x0 PUSH1 0x40 MLOAD DUP1 DUP4 SUB DUP2 PUSH1 0x0 DUP8 DUP1 EXTCODESIZE ISZERO DUP1 ISZERO PUSH2 0xAD3 JUMPI PUSH1 0x0 DUP1 REVERT JUMPDEST POP GAS CALL ISZERO DUP1 ISZERO PUSH2 0xAE7 JUMPI RETURNDATASIZE PUSH1 0x0 DUP1 RETURNDATACOPY RETURNDATASIZE PUSH1 0x0 REVERT JUMPDEST POP POP POP POP POP POP JUMP JUMPDEST PUSH2 0xAF7 PUSH2 0x1437 JUMP JUMPDEST DUP1 PUSH1 0x5 PUSH1 0x0 DUP5 PUSH20 0xFFFFFFFFFFFFFFFFFFFFFFFFFFFFFFFFFFFFFFFF AND PUSH20 0xFFFFFFFFFFFFFFFFFFFFFFFFFFFFFFFFFFFFFFFF AND DUP2 MSTORE PUSH1 0x20 ADD SWAP1 DUP2 MSTORE PUSH1 0x20 ADD PUSH1 0x0 KECCAK256 PUSH1 0x0 ADD PUSH1 0x0 DUP3 DUP3 SLOAD PUSH2 0xB49 SWAP2 SWAP1 PUSH2 0x2599 JUMP JUMPDEST SWAP3 POP POP DUP2 SWAP1 SSTORE POP POP POP JUMP JUMPDEST PUSH2 0x2904 DUP2 JUMP JUMPDEST PUSH2 0xB62 PUSH2 0x1437 JUMP JUMPDEST PUSH2 0xB6C PUSH1 0x0 PUSH2 0x151F JUMP JUMPDEST JUMP JUMPDEST PUSH2 0xB76 PUSH2 0xEE1 JUMP JUMPDEST PUSH2 0xB83 DUP6 DUP6 DUP6 DUP6 DUP6 PUSH2 0x15E3 JUMP JUMPDEST POP POP POP POP POP JUMP JUMPDEST PUSH2 0xB92 PUSH2 0x1437 JUMP JUMPDEST PUSH2 0xBDB PUSH32 0xE9FB30F700000000000000000000000000000000000000000000000000000000 DUP3 PUSH20 0xFFFFFFFFFFFFFFFFFFFFFFFFFFFFFFFFFFFFFFFF AND PUSH2 0x167B SWAP1 SWAP2 SWAP1 PUSH4 0xFFFFFFFF AND JUMP JUMPDEST PUSH2 0xC1A JUMPI PUSH1 0x40 MLOAD PUSH32 0x8C379A000000000000000000000000000000000000000000000000000000000 DUP2 MSTORE PUSH1 0x4 ADD PUSH2 0xC11 SWAP1 PUSH2 0x23C3 JUMP JUMPDEST PUSH1 0x40 MLOAD DUP1 SWAP2 SUB SWAP1 REVERT JUMPDEST DUP1 PUSH1 0x1 PUSH1 0x0 PUSH2 0x100 EXP DUP2 SLOAD DUP2 PUSH20 0xFFFFFFFFFFFFFFFFFFFFFFFFFFFFFFFFFFFFFFFF MUL NOT AND SWAP1 DUP4 PUSH20 0xFFFFFFFFFFFFFFFFFFFFFFFFFFFFFFFFFFFFFFFF AND MUL OR SWAP1 SSTORE POP POP JUMP JUMPDEST PUSH1 0x0 PUSH1 0x1 PUSH1 0x0 SWAP1 SLOAD SWAP1 PUSH2 0x100 EXP SWAP1 DIV PUSH20 0xFFFFFFFFFFFFFFFFFFFFFFFFFFFFFFFFFFFFFFFF AND SWAP1 POP SWAP1 JUMP JUMPDEST PUSH1 0x3 PUSH1 0x20 MSTORE DUP1 PUSH1 0x0 MSTORE PUSH1 0x40 PUSH1 0x0 KECCAK256 PUSH1 0x0 SWAP2 POP SLOAD SWAP1 PUSH2 0x100 EXP SWAP1 DIV PUSH1 0xFF AND DUP2 JUMP JUMPDEST PUSH1 0x0 DUP1 PUSH1 0x0 SWAP1 SLOAD SWAP1 PUSH2 0x100 EXP SWAP1 DIV PUSH20 0xFFFFFFFFFFFFFFFFFFFFFFFFFFFFFFFFFFFFFFFF AND SWAP1 POP SWAP1 JUMP JUMPDEST PUSH1 0x60 PUSH1 0x40 MLOAD DUP1 PUSH1 0x60 ADD PUSH1 0x40 MSTORE DUP1 PUSH1 0x30 DUP2 MSTORE PUSH1 0x20 ADD PUSH2 0x2ACD PUSH1 0x30 SWAP2 CODECOPY SWAP1 POP SWAP1 JUMP JUMPDEST PUSH2 0xCF9 PUSH2 0x19B4 JUMP JUMPDEST PUSH1 0x40 MLOAD DUP1 PUSH1 0x80 ADD PUSH1 0x40 MSTORE DUP1 PUSH2 0xC350 PUSH3 0x186A0 PUSH2 0xD15 SWAP2 SWAP1 PUSH2 0x2599 JUMP JUMPDEST DUP2 MSTORE PUSH1 0x20 ADD PUSH3 0x186A0 DUP2 MSTORE PUSH1 0x20 ADD PUSH3 0x1ADB0 DUP2 MSTORE PUSH1 0x20 ADD PUSH2 0x2904 DUP2 MSTORE POP SWAP1 POP SWAP1 JUMP JUMPDEST PUSH2 0xC350 DUP2 JUMP JUMPDEST PUSH3 0x1ADB0 DUP2 JUMP JUMPDEST PUSH1 0x0 PUSH1 0x2 PUSH1 0x0 SWAP1 SLOAD SWAP1 PUSH2 0x100 EXP SWAP1 DIV PUSH20 0xFFFFFFFFFFFFFFFFFFFFFFFFFFFFFFFFFFFFFFFF AND SWAP1 POP SWAP1 JUMP JUMPDEST PUSH2 0xD76 PUSH2 0x1437 JUMP JUMPDEST PUSH2 0xDBF PUSH32 0x25E23E6400000000000000000000000000000000000000000000000000000000 DUP3 PUSH20 0xFFFFFFFFFFFFFFFFFFFFFFFFFFFFFFFFFFFFFFFF AND PUSH2 0x167B SWAP1 SWAP2 SWAP1 PUSH4 0xFFFFFFFF AND JUMP JUMPDEST PUSH2 0xDFE JUMPI PUSH1 0x40 MLOAD PUSH32 0x8C379A000000000000000000000000000000000000000000000000000000000 DUP2 MSTORE PUSH1 0x4 ADD PUSH2 0xDF5 SWAP1 PUSH2 0x2363 JUMP JUMPDEST PUSH1 0x40 MLOAD DUP1 SWAP2 SUB SWAP1 REVERT JUMPDEST DUP1 PUSH1 0x2 PUSH1 0x0 PUSH2 0x100 EXP DUP2 SLOAD DUP2 PUSH20 0xFFFFFFFFFFFFFFFFFFFFFFFFFFFFFFFFFFFFFFFF MUL NOT AND SWAP1 DUP4 PUSH20 0xFFFFFFFFFFFFFFFFFFFFFFFFFFFFFFFFFFFFFFFF AND MUL OR SWAP1 SSTORE POP POP JUMP JUMPDEST PUSH2 0xC350 PUSH3 0x186A0 PUSH2 0xE53 SWAP2 SWAP1 PUSH2 0x2599 JUMP JUMPDEST DUP2 JUMP JUMPDEST PUSH2 0xE5E PUSH2 0x1437 JUMP JUMPDEST PUSH1 0x0 PUSH20 0xFFFFFFFFFFFFFFFFFFFFFFFFFFFFFFFFFFFFFFFF AND DUP2 PUSH20 0xFFFFFFFFFFFFFFFFFFFFFFFFFFFFFFFFFFFFFFFF AND EQ ISZERO PUSH2 0xECE JUMPI PUSH1 0x40 MLOAD PUSH32 0x8C379A000000000000000000000000000000000000000000000000000000000 DUP2 MSTORE PUSH1 0x4 ADD PUSH2 0xEC5 SWAP1 PUSH2 0x22C3 JUMP JUMPDEST PUSH1 0x40 MLOAD DUP1 SWAP2 SUB SWAP1 REVERT JUMPDEST PUSH2 0xED7 DUP2 PUSH2 0x151F JUMP JUMPDEST POP JUMP JUMPDEST PUSH3 0x186A0 DUP2 JUMP JUMPDEST PUSH2 0xEE9 PUSH2 0xC5E JUMP JUMPDEST PUSH20 0xFFFFFFFFFFFFFFFFFFFFFFFFFFFFFFFFFFFFFFFF AND CALLER PUSH20 0xFFFFFFFFFFFFFFFFFFFFFFFFFFFFFFFFFFFFFFFF AND EQ PUSH2 0xF56 JUMPI PUSH1 0x40 MLOAD PUSH32 0x8C379A000000000000000000000000000000000000000000000000000000000 DUP2 MSTORE PUSH1 0x4 ADD PUSH2 0xF4D SWAP1 PUSH2 0x23E3 JUMP JUMPDEST PUSH1 0x40 MLOAD DUP1 SWAP2 SUB SWAP1 REVERT JUMPDEST JUMP JUMPDEST DUP1 DUP1 PUSH1 0x20 ADD SWAP1 PUSH2 0xF68 SWAP2 SWAP1 PUSH2 0x252D JUMP JUMPDEST PUSH1 0xA0 ADD PUSH1 0x20 DUP2 ADD SWAP1 PUSH2 0xF7A SWAP2 SWAP1 PUSH2 0x1B19 JUMP JUMPDEST PUSH20 0xFFFFFFFFFFFFFFFFFFFFFFFFFFFFFFFFFFFFFFFF AND PUSH2 0xF98 PUSH2 0xD44 JUMP JUMPDEST PUSH20 0xFFFFFFFFFFFFFFFFFFFFFFFFFFFFFFFFFFFFFFFF AND EQ PUSH2 0xFEE JUMPI PUSH1 0x40 MLOAD PUSH32 0x8C379A000000000000000000000000000000000000000000000000000000000 DUP2 MSTORE PUSH1 0x4 ADD PUSH2 0xFE5 SWAP1 PUSH2 0x2323 JUMP JUMPDEST PUSH1 0x40 MLOAD DUP1 SWAP2 SUB SWAP1 REVERT JUMPDEST PUSH2 0xFF7 DUP2 PUSH2 0x16A0 JUMP JUMPDEST POP JUMP JUMPDEST PUSH1 0x0 DUP2 DUP1 PUSH1 0x0 ADD SWAP1 PUSH2 0x100C SWAP2 SWAP1 PUSH2 0x2505 JUMP JUMPDEST PUSH1 0x40 ADD CALLDATALOAD EQ PUSH2 0x1050 JUMPI PUSH1 0x40 MLOAD PUSH32 0x8C379A000000000000000000000000000000000000000000000000000000000 DUP2 MSTORE PUSH1 0x4 ADD PUSH2 0x1047 SWAP1 PUSH2 0x2403 JUMP JUMPDEST PUSH1 0x40 MLOAD DUP1 SWAP2 SUB SWAP1 REVERT JUMPDEST POP JUMP JUMPDEST PUSH1 0x0 DUP2 DUP1 PUSH1 0x20 ADD SWAP1 PUSH2 0x1065 SWAP2 SWAP1 PUSH2 0x252D JUMP JUMPDEST DUP1 PUSH1 0xC0 ADD SWAP1 PUSH2 0x1074 SWAP2 SWAP1 PUSH2 0x24A2 JUMP JUMPDEST SWAP1 POP EQ PUSH2 0x10B6 JUMPI PUSH1 0x40 MLOAD PUSH32 0x8C379A000000000000000000000000000000000000000000000000000000000 DUP2 MSTORE PUSH1 0x4 ADD PUSH2 0x10AD SWAP1 PUSH2 0x2283 JUMP JUMPDEST PUSH1 0x40 MLOAD DUP1 SWAP2 SUB SWAP1 REVERT JUMPDEST POP JUMP JUMPDEST PUSH1 0x0 DUP3 DUP3 SWAP1 POP EQ PUSH2 0x10FF JUMPI PUSH1 0x40 MLOAD PUSH32 0x8C379A000000000000000000000000000000000000000000000000000000000 DUP2 MSTORE PUSH1 0x4 ADD PUSH2 0x10F6 SWAP1 PUSH2 0x2423 JUMP JUMPDEST PUSH1 0x40 MLOAD DUP1 SWAP2 SUB SWAP1 REVERT JUMPDEST POP POP JUMP JUMPDEST PUSH1 0x60 PUSH1 0x0 PUSH1 0x3 PUSH1 0x0 DUP10 DUP1 PUSH1 0x0 ADD SWAP1 PUSH2 0x111B SWAP2 SWAP1 PUSH2 0x2505 JUMP JUMPDEST PUSH1 0x20 ADD PUSH1 0x20 DUP2 ADD SWAP1 PUSH2 0x112D SWAP2 SWAP1 PUSH2 0x1B19 JUMP JUMPDEST PUSH20 0xFFFFFFFFFFFFFFFFFFFFFFFFFFFFFFFFFFFFFFFF AND PUSH20 0xFFFFFFFFFFFFFFFFFFFFFFFFFFFFFFFFFFFFFFFF AND DUP2 MSTORE PUSH1 0x20 ADD SWAP1 DUP2 MSTORE PUSH1 0x20 ADD PUSH1 0x0 KECCAK256 PUSH1 0x0 SWAP1 SLOAD SWAP1 PUSH2 0x100 EXP SWAP1 DIV PUSH1 0xFF AND PUSH2 0x11B4 JUMPI PUSH1 0x40 MLOAD PUSH32 0x8C379A000000000000000000000000000000000000000000000000000000000 DUP2 MSTORE PUSH1 0x4 ADD PUSH2 0x11AB SWAP1 PUSH2 0x2263 JUMP JUMPDEST PUSH1 0x40 MLOAD DUP1 SWAP2 SUB SWAP1 REVERT JUMPDEST PUSH1 0x0 GAS SWAP1 POP DUP9 DUP1 PUSH1 0x0 ADD SWAP1 PUSH2 0x11C9 SWAP2 SWAP1 PUSH2 0x2505 JUMP JUMPDEST PUSH1 0x0 ADD PUSH1 0x20 DUP2 ADD SWAP1 PUSH2 0x11DB SWAP2 SWAP1 PUSH2 0x1B19 JUMP JUMPDEST PUSH1 0x6 PUSH1 0x0 PUSH2 0x100 EXP DUP2 SLOAD DUP2 PUSH20 0xFFFFFFFFFFFFFFFFFFFFFFFFFFFFFFFFFFFFFFFF MUL NOT AND SWAP1 DUP4 PUSH20 0xFFFFFFFFFFFFFFFFFFFFFFFFFFFFFFFFFFFFFFFF AND MUL OR SWAP1 SSTORE POP PUSH1 0x0 PUSH1 0x5 PUSH1 0x0 PUSH1 0x6 PUSH1 0x0 SWAP1 SLOAD SWAP1 PUSH2 0x100 EXP SWAP1 DIV PUSH20 0xFFFFFFFFFFFFFFFFFFFFFFFFFFFFFFFFFFFFFFFF AND PUSH20 0xFFFFFFFFFFFFFFFFFFFFFFFFFFFFFFFFFFFFFFFF AND PUSH20 0xFFFFFFFFFFFFFFFFFFFFFFFFFFFFFFFFFFFFFFFF AND DUP2 MSTORE PUSH1 0x20 ADD SWAP1 DUP2 MSTORE PUSH1 0x20 ADD PUSH1 0x0 KECCAK256 PUSH1 0x0 ADD SLOAD EQ ISZERO PUSH2 0x12F4 JUMPI PUSH1 0x4 SLOAD PUSH1 0x5 PUSH1 0x0 PUSH1 0x6 PUSH1 0x0 SWAP1 SLOAD SWAP1 PUSH2 0x100 EXP SWAP1 DIV PUSH20 0xFFFFFFFFFFFFFFFFFFFFFFFFFFFFFFFFFFFFFFFF AND PUSH20 0xFFFFFFFFFFFFFFFFFFFFFFFFFFFFFFFFFFFFFFFF AND PUSH20 0xFFFFFFFFFFFFFFFFFFFFFFFFFFFFFFFFFFFFFFFF AND DUP2 MSTORE PUSH1 0x20 ADD SWAP1 DUP2 MSTORE PUSH1 0x20 ADD PUSH1 0x0 KECCAK256 PUSH1 0x0 ADD DUP2 SWAP1 SSTORE POP JUMPDEST PUSH1 0x5 PUSH1 0x0 PUSH1 0x6 PUSH1 0x0 SWAP1 SLOAD SWAP1 PUSH2 0x100 EXP SWAP1 DIV PUSH20 0xFFFFFFFFFFFFFFFFFFFFFFFFFFFFFFFFFFFFFFFF AND PUSH20 0xFFFFFFFFFFFFFFFFFFFFFFFFFFFFFFFFFFFFFFFF AND PUSH20 0xFFFFFFFFFFFFFFFFFFFFFFFFFFFFFFFFFFFFFFFF AND DUP2 MSTORE PUSH1 0x20 ADD SWAP1 DUP2 MSTORE PUSH1 0x20 ADD PUSH1 0x0 KECCAK256 PUSH1 0x0 ADD SLOAD GASPRICE GAS PUSH2 0x1365 SWAP2 SWAP1 PUSH2 0x25EF JUMP JUMPDEST PUSH1 0x5 PUSH1 0x0 PUSH1 0x6 PUSH1 0x0 SWAP1 SLOAD SWAP1 PUSH2 0x100 EXP SWAP1 DIV PUSH20 0xFFFFFFFFFFFFFFFFFFFFFFFFFFFFFFFFFFFFFFFF AND PUSH20 0xFFFFFFFFFFFFFFFFFFFFFFFFFFFFFFFFFFFFFFFF AND PUSH20 0xFFFFFFFFFFFFFFFFFFFFFFFFFFFFFFFFFFFFFFFF AND DUP2 MSTORE PUSH1 0x20 ADD SWAP1 DUP2 MSTORE PUSH1 0x20 ADD PUSH1 0x0 KECCAK256 PUSH1 0x1 ADD SLOAD PUSH2 0x13D4 SWAP2 SWAP1 PUSH2 0x2599 JUMP JUMPDEST LT PUSH2 0x1414 JUMPI PUSH1 0x40 MLOAD PUSH32 0x8C379A000000000000000000000000000000000000000000000000000000000 DUP2 MSTORE PUSH1 0x4 ADD PUSH2 0x140B SWAP1 PUSH2 0x2343 JUMP JUMPDEST PUSH1 0x40 MLOAD DUP1 SWAP2 SUB SWAP1 REVERT JUMPDEST PUSH1 0x0 PUSH1 0x40 MLOAD DUP1 PUSH1 0x20 ADD PUSH1 0x40 MSTORE DUP1 PUSH1 0x0 DUP2 MSTORE POP SWAP1 SWAP3 POP SWAP3 POP POP SWAP7 POP SWAP7 SWAP5 POP POP POP POP POP JUMP JUMPDEST PUSH2 0x143F PUSH2 0x18A0 JUMP JUMPDEST PUSH20 0xFFFFFFFFFFFFFFFFFFFFFFFFFFFFFFFFFFFFFFFF AND PUSH2 0x145D PUSH2 0xCA8 JUMP JUMPDEST PUSH20 0xFFFFFFFFFFFFFFFFFFFFFFFFFFFFFFFFFFFFFFFF AND EQ PUSH2 0x14B3 JUMPI PUSH1 0x40 MLOAD PUSH32 0x8C379A000000000000000000000000000000000000000000000000000000000 DUP2 MSTORE PUSH1 0x4 ADD PUSH2 0x14AA SWAP1 PUSH2 0x23A3 JUMP JUMPDEST PUSH1 0x40 MLOAD DUP1 SWAP2 SUB SWAP1 REVERT JUMPDEST JUMP JUMPDEST PUSH1 0x0 PUSH32 0x1FFC9A700000000000000000000000000000000000000000000000000000000 PUSH28 0xFFFFFFFFFFFFFFFFFFFFFFFFFFFFFFFFFFFFFFFFFFFFFFFFFFFFFFFF NOT AND DUP3 PUSH28 0xFFFFFFFFFFFFFFFFFFFFFFFFFFFFFFFFFFFFFFFFFFFFFFFFFFFFFFFF NOT AND EQ SWAP1 POP SWAP2 SWAP1 POP JUMP JUMPDEST PUSH1 0x0 DUP1 PUSH1 0x0 SWAP1 SLOAD SWAP1 PUSH2 0x100 EXP SWAP1 DIV PUSH20 0xFFFFFFFFFFFFFFFFFFFFFFFFFFFFFFFFFFFFFFFF AND SWAP1 POP DUP2 PUSH1 0x0 DUP1 PUSH2 0x100 EXP DUP2 SLOAD DUP2 PUSH20 0xFFFFFFFFFFFFFFFFFFFFFFFFFFFFFFFFFFFFFFFF MUL NOT AND SWAP1 DUP4 PUSH20 0xFFFFFFFFFFFFFFFFFFFFFFFFFFFFFFFFFFFFFFFF AND MUL OR SWAP1 SSTORE POP DUP2 PUSH20 0xFFFFFFFFFFFFFFFFFFFFFFFFFFFFFFFFFFFFFFFF AND DUP2 PUSH20 0xFFFFFFFFFFFFFFFFFFFFFFFFFFFFFFFFFFFFFFFF AND PUSH32 0x8BE0079C531659141344CD1FD0A4F28419497F9722A3DAAFE3B4186F6B6457E0 PUSH1 0x40 MLOAD PUSH1 0x40 MLOAD DUP1 SWAP2 SUB SWAP1 LOG3 POP POP JUMP JUMPDEST GASPRICE GAS DUP4 PUSH2 0x15F0 SWAP2 SWAP1 PUSH2 0x2599 JUMP JUMPDEST PUSH2 0x15FA SWAP2 SWAP1 PUSH2 0x25EF JUMP JUMPDEST PUSH1 0x5 PUSH1 0x0 PUSH1 0x6 PUSH1 0x0 SWAP1 SLOAD SWAP1 PUSH2 0x100 EXP SWAP1 DIV PUSH20 0xFFFFFFFFFFFFFFFFFFFFFFFFFFFFFFFFFFFFFFFF AND PUSH20 0xFFFFFFFFFFFFFFFFFFFFFFFFFFFFFFFFFFFFFFFF AND PUSH20 0xFFFFFFFFFFFFFFFFFFFFFFFFFFFFFFFFFFFFFFFF AND DUP2 MSTORE PUSH1 0x20 ADD SWAP1 DUP2 MSTORE PUSH1 0x20 ADD PUSH1 0x0 KECCAK256 PUSH1 0x1 ADD PUSH1 0x0 DUP3 DUP3 SLOAD PUSH2 0x166D SWAP2 SWAP1 PUSH2 0x2599 JUMP JUMPDEST SWAP3 POP POP DUP2 SWAP1 SSTORE POP POP POP POP POP POP JUMP JUMPDEST PUSH1 0x0 PUSH2 0x1686 DUP4 PUSH2 0x18A8 JUMP JUMPDEST DUP1 ISZERO PUSH2 0x1698 JUMPI POP PUSH2 0x1697 DUP4 DUP4 PUSH2 0x18F5 JUMP JUMPDEST JUMPDEST SWAP1 POP SWAP3 SWAP2 POP POP JUMP JUMPDEST PUSH1 0x0 DUP1 DUP3 DUP1 PUSH1 0x0 ADD SWAP1 PUSH2 0x16B3 SWAP2 SWAP1 PUSH2 0x2505 JUMP JUMPDEST PUSH1 0x20 ADD PUSH1 0x20 DUP2 ADD SWAP1 PUSH2 0x16C5 SWAP2 SWAP1 PUSH2 0x1B19 JUMP JUMPDEST PUSH20 0xFFFFFFFFFFFFFFFFFFFFFFFFFFFFFFFFFFFFFFFF AND PUSH4 0x572B6C05 PUSH1 0xE0 SHL DUP5 DUP1 PUSH1 0x20 ADD SWAP1 PUSH2 0x16F3 SWAP2 SWAP1 PUSH2 0x252D JUMP JUMPDEST PUSH1 0xA0 ADD PUSH1 0x20 DUP2 ADD SWAP1 PUSH2 0x1705 SWAP2 SWAP1 PUSH2 0x1B19 JUMP JUMPDEST PUSH1 0x40 MLOAD PUSH1 0x24 ADD PUSH2 0x1715 SWAP2 SWAP1 PUSH2 0x2197 JUMP JUMPDEST PUSH1 0x40 MLOAD PUSH1 0x20 DUP2 DUP4 SUB SUB DUP2 MSTORE SWAP1 PUSH1 0x40 MSTORE SWAP1 PUSH28 0xFFFFFFFFFFFFFFFFFFFFFFFFFFFFFFFFFFFFFFFFFFFFFFFFFFFFFFFF NOT AND PUSH1 0x20 DUP3 ADD DUP1 MLOAD PUSH28 0xFFFFFFFFFFFFFFFFFFFFFFFFFFFFFFFFFFFFFFFFFFFFFFFFFFFFFFFF DUP4 DUP2 DUP4 AND OR DUP4 MSTORE POP POP POP POP PUSH1 0x40 MLOAD PUSH2 0x177F SWAP2 SWAP1 PUSH2 0x2180 JUMP JUMPDEST PUSH1 0x0 PUSH1 0x40 MLOAD DUP1 DUP4 SUB DUP2 DUP6 GAS STATICCALL SWAP2 POP POP RETURNDATASIZE DUP1 PUSH1 0x0 DUP2 EQ PUSH2 0x17BA JUMPI PUSH1 0x40 MLOAD SWAP2 POP PUSH1 0x1F NOT PUSH1 0x3F RETURNDATASIZE ADD AND DUP3 ADD PUSH1 0x40 MSTORE RETURNDATASIZE DUP3 MSTORE RETURNDATASIZE PUSH1 0x0 PUSH1 0x20 DUP5 ADD RETURNDATACOPY PUSH2 0x17BF JUMP JUMPDEST PUSH1 0x60 SWAP2 POP JUMPDEST POP SWAP2 POP SWAP2 POP DUP2 PUSH2 0x1804 JUMPI PUSH1 0x40 MLOAD PUSH32 0x8C379A000000000000000000000000000000000000000000000000000000000 DUP2 MSTORE PUSH1 0x4 ADD PUSH2 0x17FB SWAP1 PUSH2 0x22E3 JUMP JUMPDEST PUSH1 0x40 MLOAD DUP1 SWAP2 SUB SWAP1 REVERT JUMPDEST PUSH1 0x20 DUP2 MLOAD EQ PUSH2 0x1848 JUMPI PUSH1 0x40 MLOAD PUSH32 0x8C379A000000000000000000000000000000000000000000000000000000000 DUP2 MSTORE PUSH1 0x4 ADD PUSH2 0x183F SWAP1 PUSH2 0x2383 JUMP JUMPDEST PUSH1 0x40 MLOAD DUP1 SWAP2 SUB SWAP1 REVERT JUMPDEST DUP1 DUP1 PUSH1 0x20 ADD SWAP1 MLOAD DUP2 ADD SWAP1 PUSH2 0x185C SWAP2 SWAP1 PUSH2 0x1BC6 JUMP JUMPDEST PUSH2 0x189B JUMPI PUSH1 0x40 MLOAD PUSH32 0x8C379A000000000000000000000000000000000000000000000000000000000 DUP2 MSTORE PUSH1 0x4 ADD PUSH2 0x1892 SWAP1 PUSH2 0x22A3 JUMP JUMPDEST PUSH1 0x40 MLOAD DUP1 SWAP2 SUB SWAP1 REVERT JUMPDEST POP POP POP JUMP JUMPDEST PUSH1 0x0 CALLER SWAP1 POP SWAP1 JUMP JUMPDEST PUSH1 0x0 PUSH2 0x18D4 DUP3 PUSH32 0x1FFC9A700000000000000000000000000000000000000000000000000000000 PUSH2 0x18F5 JUMP JUMPDEST DUP1 ISZERO PUSH2 0x18EE JUMPI POP PUSH2 0x18EC DUP3 PUSH4 0xFFFFFFFF PUSH1 0xE0 SHL PUSH2 0x18F5 JUMP JUMPDEST ISZERO JUMPDEST SWAP1 POP SWAP2 SWAP1 POP JUMP JUMPDEST PUSH1 0x0 DUP1 PUSH4 0x1FFC9A7 PUSH1 0xE0 SHL DUP4 PUSH1 0x40 MLOAD PUSH1 0x24 ADD PUSH2 0x1911 SWAP2 SWAP1 PUSH2 0x21F6 JUMP JUMPDEST PUSH1 0x40 MLOAD PUSH1 0x20 DUP2 DUP4 SUB SUB DUP2 MSTORE SWAP1 PUSH1 0x40 MSTORE SWAP1 PUSH28 0xFFFFFFFFFFFFFFFFFFFFFFFFFFFFFFFFFFFFFFFFFFFFFFFFFFFFFFFF NOT AND PUSH1 0x20 DUP3 ADD DUP1 MLOAD PUSH28 0xFFFFFFFFFFFFFFFFFFFFFFFFFFFFFFFFFFFFFFFFFFFFFFFFFFFFFFFF DUP4 DUP2 DUP4 AND OR DUP4 MSTORE POP POP POP POP SWAP1 POP PUSH1 0x0 DUP1 PUSH1 0x0 PUSH1 0x20 PUSH1 0x0 DUP6 MLOAD PUSH1 0x20 DUP8 ADD DUP11 PUSH2 0x7530 STATICCALL SWAP3 POP RETURNDATASIZE SWAP2 POP PUSH1 0x0 MLOAD SWAP1 POP DUP3 DUP1 ISZERO PUSH2 0x199C JUMPI POP PUSH1 0x20 DUP3 LT ISZERO JUMPDEST DUP1 ISZERO PUSH2 0x19A8 JUMPI POP PUSH1 0x0 DUP2 GT JUMPDEST SWAP5 POP POP POP POP POP SWAP3 SWAP2 POP POP JUMP JUMPDEST PUSH1 0x40 MLOAD DUP1 PUSH1 0x80 ADD PUSH1 0x40 MSTORE DUP1 PUSH1 0x0 DUP2 MSTORE PUSH1 0x20 ADD PUSH1 0x0 DUP2 MSTORE PUSH1 0x20 ADD PUSH1 0x0 DUP2 MSTORE PUSH1 0x20 ADD PUSH1 0x0 DUP2 MSTORE POP SWAP1 JUMP JUMPDEST PUSH1 0x0 DUP2 CALLDATALOAD SWAP1 POP PUSH2 0x19EB DUP2 PUSH2 0x2A42 JUMP JUMPDEST SWAP3 SWAP2 POP POP JUMP JUMPDEST PUSH1 0x0 DUP2 CALLDATALOAD SWAP1 POP PUSH2 0x1A00 DUP2 PUSH2 0x2A59 JUMP JUMPDEST SWAP3 SWAP2 POP POP JUMP JUMPDEST PUSH1 0x0 DUP2 CALLDATALOAD SWAP1 POP PUSH2 0x1A15 DUP2 PUSH2 0x2A70 JUMP JUMPDEST SWAP3 SWAP2 POP POP JUMP JUMPDEST PUSH1 0x0 DUP2 MLOAD SWAP1 POP PUSH2 0x1A2A DUP2 PUSH2 0x2A70 JUMP JUMPDEST SWAP3 SWAP2 POP POP JUMP JUMPDEST PUSH1 0x0 DUP2 CALLDATALOAD SWAP1 POP PUSH2 0x1A3F DUP2 PUSH2 0x2A87 JUMP JUMPDEST SWAP3 SWAP2 POP POP JUMP JUMPDEST PUSH1 0x0 DUP1 DUP4 PUSH1 0x1F DUP5 ADD SLT PUSH2 0x1A5B JUMPI PUSH2 0x1A5A PUSH2 0x277C JUMP JUMPDEST JUMPDEST DUP3 CALLDATALOAD SWAP1 POP PUSH8 0xFFFFFFFFFFFFFFFF DUP2 GT ISZERO PUSH2 0x1A78 JUMPI PUSH2 0x1A77 PUSH2 0x2777 JUMP JUMPDEST JUMPDEST PUSH1 0x20 DUP4 ADD SWAP2 POP DUP4 PUSH1 0x1 DUP3 MUL DUP4 ADD GT ISZERO PUSH2 0x1A94 JUMPI PUSH2 0x1A93 PUSH2 0x2790 JUMP JUMPDEST JUMPDEST SWAP3 POP SWAP3 SWAP1 POP JUMP JUMPDEST PUSH1 0x0 DUP2 CALLDATALOAD SWAP1 POP PUSH2 0x1AAA DUP2 PUSH2 0x2A9E JUMP JUMPDEST SWAP3 SWAP2 POP POP JUMP JUMPDEST PUSH1 0x0 PUSH2 0x100 DUP3 DUP5 SUB SLT ISZERO PUSH2 0x1AC7 JUMPI PUSH2 0x1AC6 PUSH2 0x2786 JUMP JUMPDEST JUMPDEST DUP2 SWAP1 POP SWAP3 SWAP2 POP POP JUMP JUMPDEST PUSH1 0x0 PUSH1 0x40 DUP3 DUP5 SUB SLT ISZERO PUSH2 0x1AE6 JUMPI PUSH2 0x1AE5 PUSH2 0x2786 JUMP JUMPDEST JUMPDEST DUP2 SWAP1 POP SWAP3 SWAP2 POP POP JUMP JUMPDEST PUSH1 0x0 DUP2 CALLDATALOAD SWAP1 POP PUSH2 0x1AFE DUP2 PUSH2 0x2AB5 JUMP JUMPDEST SWAP3 SWAP2 POP POP JUMP JUMPDEST PUSH1 0x0 DUP2 MLOAD SWAP1 POP PUSH2 0x1B13 DUP2 PUSH2 0x2AB5 JUMP JUMPDEST SWAP3 SWAP2 POP POP JUMP JUMPDEST PUSH1 0x0 PUSH1 0x20 DUP3 DUP5 SUB SLT ISZERO PUSH2 0x1B2F JUMPI PUSH2 0x1B2E PUSH2 0x279F JUMP JUMPDEST JUMPDEST PUSH1 0x0 PUSH2 0x1B3D DUP5 DUP3 DUP6 ADD PUSH2 0x19DC JUMP JUMPDEST SWAP2 POP POP SWAP3 SWAP2 POP POP JUMP JUMPDEST PUSH1 0x0 DUP1 PUSH1 0x40 DUP4 DUP6 SUB SLT ISZERO PUSH2 0x1B5D JUMPI PUSH2 0x1B5C PUSH2 0x279F JUMP JUMPDEST JUMPDEST PUSH1 0x0 PUSH2 0x1B6B DUP6 DUP3 DUP7 ADD PUSH2 0x19DC JUMP JUMPDEST SWAP3 POP POP PUSH1 0x20 PUSH2 0x1B7C DUP6 DUP3 DUP7 ADD PUSH2 0x1A06 JUMP JUMPDEST SWAP2 POP POP SWAP3 POP SWAP3 SWAP1 POP JUMP JUMPDEST PUSH1 0x0 DUP1 PUSH1 0x40 DUP4 DUP6 SUB SLT ISZERO PUSH2 0x1B9D JUMPI PUSH2 0x1B9C PUSH2 0x279F JUMP JUMPDEST JUMPDEST PUSH1 0x0 PUSH2 0x1BAB DUP6 DUP3 DUP7 ADD PUSH2 0x19DC JUMP JUMPDEST SWAP3 POP POP PUSH1 0x20 PUSH2 0x1BBC DUP6 DUP3 DUP7 ADD PUSH2 0x1AEF JUMP JUMPDEST SWAP2 POP POP SWAP3 POP SWAP3 SWAP1 POP JUMP JUMPDEST PUSH1 0x0 PUSH1 0x20 DUP3 DUP5 SUB SLT ISZERO PUSH2 0x1BDC JUMPI PUSH2 0x1BDB PUSH2 0x279F JUMP JUMPDEST JUMPDEST PUSH1 0x0 PUSH2 0x1BEA DUP5 DUP3 DUP6 ADD PUSH2 0x1A1B JUMP JUMPDEST SWAP2 POP POP SWAP3 SWAP2 POP POP JUMP JUMPDEST PUSH1 0x0 PUSH1 0x20 DUP3 DUP5 SUB SLT ISZERO PUSH2 0x1C09 JUMPI PUSH2 0x1C08 PUSH2 0x279F JUMP JUMPDEST JUMPDEST PUSH1 0x0 PUSH2 0x1C17 DUP5 DUP3 DUP6 ADD PUSH2 0x1A30 JUMP JUMPDEST SWAP2 POP POP SWAP3 SWAP2 POP POP JUMP JUMPDEST PUSH1 0x0 DUP1 PUSH1 0x0 DUP1 PUSH1 0x0 PUSH1 0x80 DUP7 DUP9 SUB SLT ISZERO PUSH2 0x1C3C JUMPI PUSH2 0x1C3B PUSH2 0x279F JUMP JUMPDEST JUMPDEST PUSH1 0x0 DUP7 ADD CALLDATALOAD PUSH8 0xFFFFFFFFFFFFFFFF DUP2 GT ISZERO PUSH2 0x1C5A JUMPI PUSH2 0x1C59 PUSH2 0x279A JUMP JUMPDEST JUMPDEST PUSH2 0x1C66 DUP9 DUP3 DUP10 ADD PUSH2 0x1A45 JUMP JUMPDEST SWAP6 POP SWAP6 POP POP PUSH1 0x20 PUSH2 0x1C79 DUP9 DUP3 DUP10 ADD PUSH2 0x1A06 JUMP JUMPDEST SWAP4 POP POP PUSH1 0x40 PUSH2 0x1C8A DUP9 DUP3 DUP10 ADD PUSH2 0x1AEF JUMP JUMPDEST SWAP3 POP POP PUSH1 0x60 DUP7 ADD CALLDATALOAD PUSH8 0xFFFFFFFFFFFFFFFF DUP2 GT ISZERO PUSH2 0x1CAB JUMPI PUSH2 0x1CAA PUSH2 0x279A JUMP JUMPDEST JUMPDEST PUSH2 0x1CB7 DUP9 DUP3 DUP10 ADD PUSH2 0x1AB0 JUMP JUMPDEST SWAP2 POP POP SWAP3 SWAP6 POP SWAP3 SWAP6 SWAP1 SWAP4 POP JUMP JUMPDEST PUSH1 0x0 PUSH1 0x20 DUP3 DUP5 SUB SLT ISZERO PUSH2 0x1CDA JUMPI PUSH2 0x1CD9 PUSH2 0x279F JUMP JUMPDEST JUMPDEST PUSH1 0x0 PUSH2 0x1CE8 DUP5 DUP3 DUP6 ADD PUSH2 0x1A9B JUMP JUMPDEST SWAP2 POP POP SWAP3 SWAP2 POP POP JUMP JUMPDEST PUSH1 0x0 DUP1 PUSH1 0x0 DUP1 PUSH1 0x0 DUP1 PUSH1 0x80 DUP8 DUP10 SUB SLT ISZERO PUSH2 0x1D0E JUMPI PUSH2 0x1D0D PUSH2 0x279F JUMP JUMPDEST JUMPDEST PUSH1 0x0 DUP8 ADD CALLDATALOAD PUSH8 0xFFFFFFFFFFFFFFFF DUP2 GT ISZERO PUSH2 0x1D2C JUMPI PUSH2 0x1D2B PUSH2 0x279A JUMP JUMPDEST JUMPDEST PUSH2 0x1D38 DUP10 DUP3 DUP11 ADD PUSH2 0x1AD0 JUMP JUMPDEST SWAP7 POP POP PUSH1 0x20 DUP8 ADD CALLDATALOAD PUSH8 0xFFFFFFFFFFFFFFFF DUP2 GT ISZERO PUSH2 0x1D59 JUMPI PUSH2 0x1D58 PUSH2 0x279A JUMP JUMPDEST JUMPDEST PUSH2 0x1D65 DUP10 DUP3 DUP11 ADD PUSH2 0x1A45 JUMP JUMPDEST SWAP6 POP SWAP6 POP POP PUSH1 0x40 DUP8 ADD CALLDATALOAD PUSH8 0xFFFFFFFFFFFFFFFF DUP2 GT ISZERO PUSH2 0x1D88 JUMPI PUSH2 0x1D87 PUSH2 0x279A JUMP JUMPDEST JUMPDEST PUSH2 0x1D94 DUP10 DUP3 DUP11 ADD PUSH2 0x1A45 JUMP JUMPDEST SWAP4 POP SWAP4 POP POP PUSH1 0x60 PUSH2 0x1DA7 DUP10 DUP3 DUP11 ADD PUSH2 0x1AEF JUMP JUMPDEST SWAP2 POP POP SWAP3 SWAP6 POP SWAP3 SWAP6 POP SWAP3 SWAP6 JUMP JUMPDEST PUSH1 0x0 PUSH1 0x20 DUP3 DUP5 SUB SLT ISZERO PUSH2 0x1DCA JUMPI PUSH2 0x1DC9 PUSH2 0x279F JUMP JUMPDEST JUMPDEST PUSH1 0x0 PUSH2 0x1DD8 DUP5 DUP3 DUP6 ADD PUSH2 0x1B04 JUMP JUMPDEST SWAP2 POP POP SWAP3 SWAP2 POP POP JUMP JUMPDEST PUSH1 0x0 DUP1 PUSH1 0x40 DUP4 DUP6 SUB SLT ISZERO PUSH2 0x1DF8 JUMPI PUSH2 0x1DF7 PUSH2 0x279F JUMP JUMPDEST JUMPDEST PUSH1 0x0 PUSH2 0x1E06 DUP6 DUP3 DUP7 ADD PUSH2 0x1AEF JUMP JUMPDEST SWAP3 POP POP PUSH1 0x20 PUSH2 0x1E17 DUP6 DUP3 DUP7 ADD PUSH2 0x19F1 JUMP JUMPDEST SWAP2 POP POP SWAP3 POP SWAP3 SWAP1 POP JUMP JUMPDEST PUSH2 0x1E2A DUP2 PUSH2 0x268F JUMP JUMPDEST DUP3 MSTORE POP POP JUMP JUMPDEST PUSH2 0x1E39 DUP2 PUSH2 0x267D JUMP JUMPDEST DUP3 MSTORE POP POP JUMP JUMPDEST PUSH2 0x1E48 DUP2 PUSH2 0x26A1 JUMP JUMPDEST DUP3 MSTORE POP POP JUMP JUMPDEST PUSH2 0x1E57 DUP2 PUSH2 0x26AD JUMP JUMPDEST DUP3 MSTORE POP POP JUMP JUMPDEST PUSH1 0x0 PUSH2 0x1E68 DUP3 PUSH2 0x2556 JUMP JUMPDEST PUSH2 0x1E72 DUP2 DUP6 PUSH2 0x256C JUMP JUMPDEST SWAP4 POP PUSH2 0x1E82 DUP2 DUP6 PUSH1 0x20 DUP7 ADD PUSH2 0x2715 JUMP JUMPDEST PUSH2 0x1E8B DUP2 PUSH2 0x27A4 JUMP JUMPDEST DUP5 ADD SWAP2 POP POP SWAP3 SWAP2 POP POP JUMP JUMPDEST PUSH1 0x0 PUSH2 0x1EA1 DUP3 PUSH2 0x2556 JUMP JUMPDEST PUSH2 0x1EAB DUP2 DUP6 PUSH2 0x257D JUMP JUMPDEST SWAP4 POP PUSH2 0x1EBB DUP2 DUP6 PUSH1 0x20 DUP7 ADD PUSH2 0x2715 JUMP JUMPDEST DUP1 DUP5 ADD SWAP2 POP POP SWAP3 SWAP2 POP POP JUMP JUMPDEST PUSH1 0x0 PUSH2 0x1ED2 DUP3 PUSH2 0x2561 JUMP JUMPDEST PUSH2 0x1EDC DUP2 DUP6 PUSH2 0x2588 JUMP JUMPDEST SWAP4 POP PUSH2 0x1EEC DUP2 DUP6 PUSH1 0x20 DUP7 ADD PUSH2 0x2715 JUMP JUMPDEST PUSH2 0x1EF5 DUP2 PUSH2 0x27A4 JUMP JUMPDEST DUP5 ADD SWAP2 POP POP SWAP3 SWAP2 POP POP JUMP JUMPDEST PUSH1 0x0 PUSH2 0x1F0D PUSH1 0xC DUP4 PUSH2 0x2588 JUMP JUMPDEST SWAP2 POP PUSH2 0x1F18 DUP3 PUSH2 0x27B5 JUMP JUMPDEST PUSH1 0x20 DUP3 ADD SWAP1 POP SWAP2 SWAP1 POP JUMP JUMPDEST PUSH1 0x0 PUSH2 0x1F30 PUSH1 0x1C DUP4 PUSH2 0x2588 JUMP JUMPDEST SWAP2 POP PUSH2 0x1F3B DUP3 PUSH2 0x27DE JUMP JUMPDEST PUSH1 0x20 DUP3 ADD SWAP1 POP SWAP2 SWAP1 POP JUMP JUMPDEST PUSH1 0x0 PUSH2 0x1F53 PUSH1 0x1F DUP4 PUSH2 0x2588 JUMP JUMPDEST SWAP2 POP PUSH2 0x1F5E DUP3 PUSH2 0x2807 JUMP JUMPDEST PUSH1 0x20 DUP3 ADD SWAP1 POP SWAP2 SWAP1 POP JUMP JUMPDEST PUSH1 0x0 PUSH2 0x1F76 PUSH1 0x26 DUP4 PUSH2 0x2588 JUMP JUMPDEST SWAP2 POP PUSH2 0x1F81 DUP3 PUSH2 0x2830 JUMP JUMPDEST PUSH1 0x40 DUP3 ADD SWAP1 POP SWAP2 SWAP1 POP JUMP JUMPDEST PUSH1 0x0 PUSH2 0x1F99 PUSH1 0x1C DUP4 PUSH2 0x2588 JUMP JUMPDEST SWAP2 POP PUSH2 0x1FA4 DUP3 PUSH2 0x287F JUMP JUMPDEST PUSH1 0x20 DUP3 ADD SWAP1 POP SWAP2 SWAP1 POP JUMP JUMPDEST PUSH1 0x0 PUSH2 0x1FBC PUSH1 0x19 DUP4 PUSH2 0x2588 JUMP JUMPDEST SWAP2 POP PUSH2 0x1FC7 DUP3 PUSH2 0x28A8 JUMP JUMPDEST PUSH1 0x20 DUP3 ADD SWAP1 POP SWAP2 SWAP1 POP JUMP JUMPDEST PUSH1 0x0 PUSH2 0x1FDF PUSH1 0x18 DUP4 PUSH2 0x2588 JUMP JUMPDEST SWAP2 POP PUSH2 0x1FEA DUP3 PUSH2 0x28D1 JUMP JUMPDEST PUSH1 0x20 DUP3 ADD SWAP1 POP SWAP2 SWAP1 POP JUMP JUMPDEST PUSH1 0x0 PUSH2 0x2002 PUSH1 0xE DUP4 PUSH2 0x2588 JUMP JUMPDEST SWAP2 POP PUSH2 0x200D DUP3 PUSH2 0x28FA JUMP JUMPDEST PUSH1 0x20 DUP3 ADD SWAP1 POP SWAP2 SWAP1 POP JUMP JUMPDEST PUSH1 0x0 PUSH2 0x2025 PUSH1 0x20 DUP4 PUSH2 0x2588 JUMP JUMPDEST SWAP2 POP PUSH2 0x2030 DUP3 PUSH2 0x2923 JUMP JUMPDEST PUSH1 0x20 DUP3 ADD SWAP1 POP SWAP2 SWAP1 POP JUMP JUMPDEST PUSH1 0x0 PUSH2 0x2048 PUSH1 0x20 DUP4 PUSH2 0x2588 JUMP JUMPDEST SWAP2 POP PUSH2 0x2053 DUP3 PUSH2 0x294C JUMP JUMPDEST PUSH1 0x20 DUP3 ADD SWAP1 POP SWAP2 SWAP1 POP JUMP JUMPDEST PUSH1 0x0 PUSH2 0x206B PUSH1 0x20 DUP4 PUSH2 0x2588 JUMP JUMPDEST SWAP2 POP PUSH2 0x2076 DUP3 PUSH2 0x2975 JUMP JUMPDEST PUSH1 0x20 DUP3 ADD SWAP1 POP SWAP2 SWAP1 POP JUMP JUMPDEST PUSH1 0x0 PUSH2 0x208E PUSH1 0x1F DUP4 PUSH2 0x2588 JUMP JUMPDEST SWAP2 POP PUSH2 0x2099 DUP3 PUSH2 0x299E JUMP JUMPDEST PUSH1 0x20 DUP3 ADD SWAP1 POP SWAP2 SWAP1 POP JUMP JUMPDEST PUSH1 0x0 PUSH2 0x20B1 PUSH1 0x1E DUP4 PUSH2 0x2588 JUMP JUMPDEST SWAP2 POP PUSH2 0x20BC DUP3 PUSH2 0x29C7 JUMP JUMPDEST PUSH1 0x20 DUP3 ADD SWAP1 POP SWAP2 SWAP1 POP JUMP JUMPDEST PUSH1 0x0 PUSH2 0x20D4 PUSH1 0x1C DUP4 PUSH2 0x2588 JUMP JUMPDEST SWAP2 POP PUSH2 0x20DF DUP3 PUSH2 0x29F0 JUMP JUMPDEST PUSH1 0x20 DUP3 ADD SWAP1 POP SWAP2 SWAP1 POP JUMP JUMPDEST PUSH1 0x0 PUSH2 0x20F7 PUSH1 0x1B DUP4 PUSH2 0x2588 JUMP JUMPDEST SWAP2 POP PUSH2 0x2102 DUP3 PUSH2 0x2A19 JUMP JUMPDEST PUSH1 0x20 DUP3 ADD SWAP1 POP SWAP2 SWAP1 POP JUMP JUMPDEST PUSH1 0x80 DUP3 ADD PUSH1 0x0 DUP3 ADD MLOAD PUSH2 0x2123 PUSH1 0x0 DUP6 ADD DUP3 PUSH2 0x2162 JUMP JUMPDEST POP PUSH1 0x20 DUP3 ADD MLOAD PUSH2 0x2136 PUSH1 0x20 DUP6 ADD DUP3 PUSH2 0x2162 JUMP JUMPDEST POP PUSH1 0x40 DUP3 ADD MLOAD PUSH2 0x2149 PUSH1 0x40 DUP6 ADD DUP3 PUSH2 0x2162 JUMP JUMPDEST POP PUSH1 0x60 DUP3 ADD MLOAD PUSH2 0x215C PUSH1 0x60 DUP6 ADD DUP3 PUSH2 0x2162 JUMP JUMPDEST POP POP POP POP JUMP JUMPDEST PUSH2 0x216B DUP2 PUSH2 0x270B JUMP JUMPDEST DUP3 MSTORE POP POP JUMP JUMPDEST PUSH2 0x217A DUP2 PUSH2 0x270B JUMP JUMPDEST DUP3 MSTORE POP POP JUMP JUMPDEST PUSH1 0x0 PUSH2 0x218C DUP3 DUP5 PUSH2 0x1E96 JUMP JUMPDEST SWAP2 POP DUP2 SWAP1 POP SWAP3 SWAP2 POP POP JUMP JUMPDEST PUSH1 0x0 PUSH1 0x20 DUP3 ADD SWAP1 POP PUSH2 0x21AC PUSH1 0x0 DUP4 ADD DUP5 PUSH2 0x1E30 JUMP JUMPDEST SWAP3 SWAP2 POP POP JUMP JUMPDEST PUSH1 0x0 PUSH1 0x40 DUP3 ADD SWAP1 POP PUSH2 0x21C7 PUSH1 0x0 DUP4 ADD DUP6 PUSH2 0x1E21 JUMP JUMPDEST PUSH2 0x21D4 PUSH1 0x20 DUP4 ADD DUP5 PUSH2 0x2171 JUMP JUMPDEST SWAP4 SWAP3 POP POP POP JUMP JUMPDEST PUSH1 0x0 PUSH1 0x20 DUP3 ADD SWAP1 POP PUSH2 0x21F0 PUSH1 0x0 DUP4 ADD DUP5 PUSH2 0x1E3F JUMP JUMPDEST SWAP3 SWAP2 POP POP JUMP JUMPDEST PUSH1 0x0 PUSH1 0x20 DUP3 ADD SWAP1 POP PUSH2 0x220B PUSH1 0x0 DUP4 ADD DUP5 PUSH2 0x1E4E JUMP JUMPDEST SWAP3 SWAP2 POP POP JUMP JUMPDEST PUSH1 0x0 PUSH1 0x40 DUP3 ADD SWAP1 POP DUP2 DUP2 SUB PUSH1 0x0 DUP4 ADD MSTORE PUSH2 0x222B DUP2 DUP6 PUSH2 0x1E5D JUMP JUMPDEST SWAP1 POP PUSH2 0x223A PUSH1 0x20 DUP4 ADD DUP5 PUSH2 0x1E3F JUMP JUMPDEST SWAP4 SWAP3 POP POP POP JUMP JUMPDEST PUSH1 0x0 PUSH1 0x20 DUP3 ADD SWAP1 POP DUP2 DUP2 SUB PUSH1 0x0 DUP4 ADD MSTORE PUSH2 0x225B DUP2 DUP5 PUSH2 0x1EC7 JUMP JUMPDEST SWAP1 POP SWAP3 SWAP2 POP POP JUMP JUMPDEST PUSH1 0x0 PUSH1 0x20 DUP3 ADD SWAP1 POP DUP2 DUP2 SUB PUSH1 0x0 DUP4 ADD MSTORE PUSH2 0x227C DUP2 PUSH2 0x1F00 JUMP JUMPDEST SWAP1 POP SWAP2 SWAP1 POP JUMP JUMPDEST PUSH1 0x0 PUSH1 0x20 DUP3 ADD SWAP1 POP DUP2 DUP2 SUB PUSH1 0x0 DUP4 ADD MSTORE PUSH2 0x229C DUP2 PUSH2 0x1F23 JUMP JUMPDEST SWAP1 POP SWAP2 SWAP1 POP JUMP JUMPDEST PUSH1 0x0 PUSH1 0x20 DUP3 ADD SWAP1 POP DUP2 DUP2 SUB PUSH1 0x0 DUP4 ADD MSTORE PUSH2 0x22BC DUP2 PUSH2 0x1F46 JUMP JUMPDEST SWAP1 POP SWAP2 SWAP1 POP JUMP JUMPDEST PUSH1 0x0 PUSH1 0x20 DUP3 ADD SWAP1 POP DUP2 DUP2 SUB PUSH1 0x0 DUP4 ADD MSTORE PUSH2 0x22DC DUP2 PUSH2 0x1F69 JUMP JUMPDEST SWAP1 POP SWAP2 SWAP1 POP JUMP JUMPDEST PUSH1 0x0 PUSH1 0x20 DUP3 ADD SWAP1 POP DUP2 DUP2 SUB PUSH1 0x0 DUP4 ADD MSTORE PUSH2 0x22FC DUP2 PUSH2 0x1F8C JUMP JUMPDEST SWAP1 POP SWAP2 SWAP1 POP JUMP JUMPDEST PUSH1 0x0 PUSH1 0x20 DUP3 ADD SWAP1 POP DUP2 DUP2 SUB PUSH1 0x0 DUP4 ADD MSTORE PUSH2 0x231C DUP2 PUSH2 0x1FAF JUMP JUMPDEST SWAP1 POP SWAP2 SWAP1 POP JUMP JUMPDEST PUSH1 0x0 PUSH1 0x20 DUP3 ADD SWAP1 POP DUP2 DUP2 SUB PUSH1 0x0 DUP4 ADD MSTORE PUSH2 0x233C DUP2 PUSH2 0x1FD2 JUMP JUMPDEST SWAP1 POP SWAP2 SWAP1 POP JUMP JUMPDEST PUSH1 0x0 PUSH1 0x20 DUP3 ADD SWAP1 POP DUP2 DUP2 SUB PUSH1 0x0 DUP4 ADD MSTORE PUSH2 0x235C DUP2 PUSH2 0x1FF5 JUMP JUMPDEST SWAP1 POP SWAP2 SWAP1 POP JUMP JUMPDEST PUSH1 0x0 PUSH1 0x20 DUP3 ADD SWAP1 POP DUP2 DUP2 SUB PUSH1 0x0 DUP4 ADD MSTORE PUSH2 0x237C DUP2 PUSH2 0x2018 JUMP JUMPDEST SWAP1 POP SWAP2 SWAP1 POP JUMP JUMPDEST PUSH1 0x0 PUSH1 0x20 DUP3 ADD SWAP1 POP DUP2 DUP2 SUB PUSH1 0x0 DUP4 ADD MSTORE PUSH2 0x239C DUP2 PUSH2 0x203B JUMP JUMPDEST SWAP1 POP SWAP2 SWAP1 POP JUMP JUMPDEST PUSH1 0x0 PUSH1 0x20 DUP3 ADD SWAP1 POP DUP2 DUP2 SUB PUSH1 0x0 DUP4 ADD MSTORE PUSH2 0x23BC DUP2 PUSH2 0x205E JUMP JUMPDEST SWAP1 POP SWAP2 SWAP1 POP JUMP JUMPDEST PUSH1 0x0 PUSH1 0x20 DUP3 ADD SWAP1 POP DUP2 DUP2 SUB PUSH1 0x0 DUP4 ADD MSTORE PUSH2 0x23DC DUP2 PUSH2 0x2081 JUMP JUMPDEST SWAP1 POP SWAP2 SWAP1 POP JUMP JUMPDEST PUSH1 0x0 PUSH1 0x20 DUP3 ADD SWAP1 POP DUP2 DUP2 SUB PUSH1 0x0 DUP4 ADD MSTORE PUSH2 0x23FC DUP2 PUSH2 0x20A4 JUMP JUMPDEST SWAP1 POP SWAP2 SWAP1 POP JUMP JUMPDEST PUSH1 0x0 PUSH1 0x20 DUP3 ADD SWAP1 POP DUP2 DUP2 SUB PUSH1 0x0 DUP4 ADD MSTORE PUSH2 0x241C DUP2 PUSH2 0x20C7 JUMP JUMPDEST SWAP1 POP SWAP2 SWAP1 POP JUMP JUMPDEST PUSH1 0x0 PUSH1 0x20 DUP3 ADD SWAP1 POP DUP2 DUP2 SUB PUSH1 0x0 DUP4 ADD MSTORE PUSH2 0x243C DUP2 PUSH2 0x20EA JUMP JUMPDEST SWAP1 POP SWAP2 SWAP1 POP JUMP JUMPDEST PUSH1 0x0 PUSH1 0x80 DUP3 ADD SWAP1 POP PUSH2 0x2458 PUSH1 0x0 DUP4 ADD DUP5 PUSH2 0x210D JUMP JUMPDEST SWAP3 SWAP2 POP POP JUMP JUMPDEST PUSH1 0x0 PUSH1 0x20 DUP3 ADD SWAP1 POP PUSH2 0x2473 PUSH1 0x0 DUP4 ADD DUP5 PUSH2 0x2171 JUMP JUMPDEST SWAP3 SWAP2 POP POP JUMP JUMPDEST PUSH1 0x0 PUSH1 0x40 DUP3 ADD SWAP1 POP PUSH2 0x248E PUSH1 0x0 DUP4 ADD DUP6 PUSH2 0x2171 JUMP JUMPDEST PUSH2 0x249B PUSH1 0x20 DUP4 ADD DUP5 PUSH2 0x2171 JUMP JUMPDEST SWAP4 SWAP3 POP POP POP JUMP JUMPDEST PUSH1 0x0 DUP1 DUP4 CALLDATALOAD PUSH1 0x1 PUSH1 0x20 SUB DUP5 CALLDATASIZE SUB SUB DUP2 SLT PUSH2 0x24BF JUMPI PUSH2 0x24BE PUSH2 0x278B JUMP JUMPDEST JUMPDEST DUP1 DUP5 ADD SWAP3 POP DUP3 CALLDATALOAD SWAP2 POP PUSH8 0xFFFFFFFFFFFFFFFF DUP3 GT ISZERO PUSH2 0x24E1 JUMPI PUSH2 0x24E0 PUSH2 0x2781 JUMP JUMPDEST JUMPDEST PUSH1 0x20 DUP4 ADD SWAP3 POP PUSH1 0x1 DUP3 MUL CALLDATASIZE SUB DUP4 SGT ISZERO PUSH2 0x24FD JUMPI PUSH2 0x24FC PUSH2 0x2795 JUMP JUMPDEST JUMPDEST POP SWAP3 POP SWAP3 SWAP1 POP JUMP JUMPDEST PUSH1 0x0 DUP3 CALLDATALOAD PUSH1 0x1 PUSH1 0xE0 SUB DUP4 CALLDATASIZE SUB SUB DUP2 SLT PUSH2 0x2521 JUMPI PUSH2 0x2520 PUSH2 0x278B JUMP JUMPDEST JUMPDEST DUP1 DUP4 ADD SWAP2 POP POP SWAP3 SWAP2 POP POP JUMP JUMPDEST PUSH1 0x0 DUP3 CALLDATALOAD PUSH1 0x1 PUSH2 0x100 SUB DUP4 CALLDATASIZE SUB SUB DUP2 SLT PUSH2 0x254A JUMPI PUSH2 0x2549 PUSH2 0x278B JUMP JUMPDEST JUMPDEST DUP1 DUP4 ADD SWAP2 POP POP SWAP3 SWAP2 POP POP JUMP JUMPDEST PUSH1 0x0 DUP2 MLOAD SWAP1 POP SWAP2 SWAP1 POP JUMP JUMPDEST PUSH1 0x0 DUP2 MLOAD SWAP1 POP SWAP2 SWAP1 POP JUMP JUMPDEST PUSH1 0x0 DUP3 DUP3 MSTORE PUSH1 0x20 DUP3 ADD SWAP1 POP SWAP3 SWAP2 POP POP JUMP JUMPDEST PUSH1 0x0 DUP2 SWAP1 POP SWAP3 SWAP2 POP POP JUMP JUMPDEST PUSH1 0x0 DUP3 DUP3 MSTORE PUSH1 0x20 DUP3 ADD SWAP1 POP SWAP3 SWAP2 POP POP JUMP JUMPDEST PUSH1 0x0 PUSH2 0x25A4 DUP3 PUSH2 0x270B JUMP JUMPDEST SWAP2 POP PUSH2 0x25AF DUP4 PUSH2 0x270B JUMP JUMPDEST SWAP3 POP DUP3 PUSH32 0xFFFFFFFFFFFFFFFFFFFFFFFFFFFFFFFFFFFFFFFFFFFFFFFFFFFFFFFFFFFFFFFF SUB DUP3 GT ISZERO PUSH2 0x25E4 JUMPI PUSH2 0x25E3 PUSH2 0x2748 JUMP JUMPDEST JUMPDEST DUP3 DUP3 ADD SWAP1 POP SWAP3 SWAP2 POP POP JUMP JUMPDEST PUSH1 0x0 PUSH2 0x25FA DUP3 PUSH2 0x270B JUMP JUMPDEST SWAP2 POP PUSH2 0x2605 DUP4 PUSH2 0x270B JUMP JUMPDEST SWAP3 POP DUP2 PUSH32 0xFFFFFFFFFFFFFFFFFFFFFFFFFFFFFFFFFFFFFFFFFFFFFFFFFFFFFFFFFFFFFFFF DIV DUP4 GT DUP3 ISZERO ISZERO AND ISZERO PUSH2 0x263E JUMPI PUSH2 0x263D PUSH2 0x2748 JUMP JUMPDEST JUMPDEST DUP3 DUP3 MUL SWAP1 POP SWAP3 SWAP2 POP POP JUMP JUMPDEST PUSH1 0x0 PUSH2 0x2654 DUP3 PUSH2 0x270B JUMP JUMPDEST SWAP2 POP PUSH2 0x265F DUP4 PUSH2 0x270B JUMP JUMPDEST SWAP3 POP DUP3 DUP3 LT ISZERO PUSH2 0x2672 JUMPI PUSH2 0x2671 PUSH2 0x2748 JUMP JUMPDEST JUMPDEST DUP3 DUP3 SUB SWAP1 POP SWAP3 SWAP2 POP POP JUMP JUMPDEST PUSH1 0x0 PUSH2 0x2688 DUP3 PUSH2 0x26EB JUMP JUMPDEST SWAP1 POP SWAP2 SWAP1 POP JUMP JUMPDEST PUSH1 0x0 PUSH2 0x269A DUP3 PUSH2 0x26EB JUMP JUMPDEST SWAP1 POP SWAP2 SWAP1 POP JUMP JUMPDEST PUSH1 0x0 DUP2 ISZERO ISZERO SWAP1 POP SWAP2 SWAP1 POP JUMP JUMPDEST PUSH1 0x0 PUSH32 0xFFFFFFFF00000000000000000000000000000000000000000000000000000000 DUP3 AND SWAP1 POP SWAP2 SWAP1 POP JUMP JUMPDEST PUSH1 0x0 PUSH2 0x26E4 DUP3 PUSH2 0x267D JUMP JUMPDEST SWAP1 POP SWAP2 SWAP1 POP JUMP JUMPDEST PUSH1 0x0 PUSH20 0xFFFFFFFFFFFFFFFFFFFFFFFFFFFFFFFFFFFFFFFF DUP3 AND SWAP1 POP SWAP2 SWAP1 POP JUMP JUMPDEST PUSH1 0x0 DUP2 SWAP1 POP SWAP2 SWAP1 POP JUMP JUMPDEST PUSH1 0x0 JUMPDEST DUP4 DUP2 LT ISZERO PUSH2 0x2733 JUMPI DUP1 DUP3 ADD MLOAD DUP2 DUP5 ADD MSTORE PUSH1 0x20 DUP2 ADD SWAP1 POP PUSH2 0x2718 JUMP JUMPDEST DUP4 DUP2 GT ISZERO PUSH2 0x2742 JUMPI PUSH1 0x0 DUP5 DUP5 ADD MSTORE JUMPDEST POP POP POP POP JUMP JUMPDEST PUSH32 0x4E487B7100000000000000000000000000000000000000000000000000000000 PUSH1 0x0 MSTORE PUSH1 0x11 PUSH1 0x4 MSTORE PUSH1 0x24 PUSH1 0x0 REVERT JUMPDEST PUSH1 0x0 DUP1 REVERT JUMPDEST PUSH1 0x0 DUP1 REVERT JUMPDEST PUSH1 0x0 DUP1 REVERT JUMPDEST PUSH1 0x0 DUP1 REVERT JUMPDEST PUSH1 0x0 DUP1 REVERT JUMPDEST PUSH1 0x0 DUP1 REVERT JUMPDEST PUSH1 0x0 DUP1 REVERT JUMPDEST PUSH1 0x0 DUP1 REVERT JUMPDEST PUSH1 0x0 DUP1 REVERT JUMPDEST PUSH1 0x0 PUSH1 0x1F NOT PUSH1 0x1F DUP4 ADD AND SWAP1 POP SWAP2 SWAP1 POP JUMP JUMPDEST PUSH32 0x77726F6E67207461726765740000000000000000000000000000000000000000 PUSH1 0x0 DUP3 ADD MSTORE POP JUMP JUMPDEST PUSH32 0x73686F756C642068617665206E6F207061796D61737465724461746100000000 PUSH1 0x0 DUP3 ADD MSTORE POP JUMP JUMPDEST PUSH32 0x696E76616C696420666F7277617264657220666F7220726563697069656E7400 PUSH1 0x0 DUP3 ADD MSTORE POP JUMP JUMPDEST PUSH32 0x4F776E61626C653A206E6577206F776E657220697320746865207A65726F2061 PUSH1 0x0 DUP3 ADD MSTORE PUSH32 0x6464726573730000000000000000000000000000000000000000000000000000 PUSH1 0x20 DUP3 ADD MSTORE POP JUMP JUMPDEST PUSH32 0x697354727573746564466F727761726465723A20726576657274656400000000 PUSH1 0x0 DUP3 ADD MSTORE POP JUMP JUMPDEST PUSH32 0x72656C6179206875622061646472657373206E6F742073657400000000000000 PUSH1 0x0 DUP3 ADD MSTORE POP JUMP JUMPDEST PUSH32 0x466F72776172646572206973206E6F7420747275737465640000000000000000 PUSH1 0x0 DUP3 ADD MSTORE POP JUMP JUMPDEST PUSH32 0x6F76657220746865206C696D6974000000000000000000000000000000000000 PUSH1 0x0 DUP3 ADD MSTORE POP JUMP JUMPDEST PUSH32 0x746172676574206973206E6F7420612076616C69642049466F72776172646572 PUSH1 0x0 DUP3 ADD MSTORE POP JUMP JUMPDEST PUSH32 0x697354727573746564466F727761726465723A2062616420726573706F6E7365 PUSH1 0x0 DUP3 ADD MSTORE POP JUMP JUMPDEST PUSH32 0x4F776E61626C653A2063616C6C6572206973206E6F7420746865206F776E6572 PUSH1 0x0 DUP3 ADD MSTORE POP JUMP JUMPDEST PUSH32 0x746172676574206973206E6F7420612076616C6964204952656C617948756200 PUSH1 0x0 DUP3 ADD MSTORE POP JUMP JUMPDEST PUSH32 0x63616E206F6E6C792062652063616C6C65642062792052656C61794875620000 PUSH1 0x0 DUP3 ADD MSTORE POP JUMP JUMPDEST PUSH32 0x76616C7565207472616E73666572206E6F7420737570706F7274656400000000 PUSH1 0x0 DUP3 ADD MSTORE POP JUMP JUMPDEST PUSH32 0x73686F756C642068617665206E6F20617070726F76616C446174610000000000 PUSH1 0x0 DUP3 ADD MSTORE POP JUMP JUMPDEST PUSH2 0x2A4B DUP2 PUSH2 0x267D JUMP JUMPDEST DUP2 EQ PUSH2 0x2A56 JUMPI PUSH1 0x0 DUP1 REVERT JUMPDEST POP JUMP JUMPDEST PUSH2 0x2A62 DUP2 PUSH2 0x268F JUMP JUMPDEST DUP2 EQ PUSH2 0x2A6D JUMPI PUSH1 0x0 DUP1 REVERT JUMPDEST POP JUMP JUMPDEST PUSH2 0x2A79 DUP2 PUSH2 0x26A1 JUMP JUMPDEST DUP2 EQ PUSH2 0x2A84 JUMPI PUSH1 0x0 DUP1 REVERT JUMPDEST POP JUMP JUMPDEST PUSH2 0x2A90 DUP2 PUSH2 0x26AD JUMP JUMPDEST DUP2 EQ PUSH2 0x2A9B JUMPI PUSH1 0x0 DUP1 REVERT JUMPDEST POP JUMP JUMPDEST PUSH2 0x2AA7 DUP2 PUSH2 0x26D9 JUMP JUMPDEST DUP2 EQ PUSH2 0x2AB2 JUMPI PUSH1 0x0 DUP1 REVERT JUMPDEST POP JUMP JUMPDEST PUSH2 0x2ABE DUP2 PUSH2 0x270B JUMP JUMPDEST DUP2 EQ PUSH2 0x2AC9 JUMPI PUSH1 0x0 DUP1 REVERT JUMPDEST POP JUMP INVALID CALLER 0x2E ADDRESS 0x2E ADDRESS 0x2D PUSH3 0x657461 0x2E CALLER 0x2B PUSH16 0x70656E67736E2E616363657074657665 PUSH19 0x797468696E672E697061796D6173746572A264 PUSH10 0x70667358221220D4DBC4 LOG0 OR 0xB3 0xC2 LOG2 0xFB SELFBALANCE 0xD6 0xE PUSH4 0xB2589CDC POP PUSH18 0xE163FED294B27392B49BC6675964736F6C63 NUMBER STOP ADDMOD SMOD STOP CALLER "
				},
				"gasEstimates": {
					"creation": {
						"codeDepositCost": "2211600",
						"executionCost": "infinite",
						"totalCost": "infinite"
					},
					"external": {
						"CALLDATA_SIZE_LIMIT()": "418",
						"FORWARDER_HUB_OVERHEAD()": "374",
						"PAYMASTER_ACCEPTANCE_BUDGET()": "infinite",
						"POST_RELAYED_CALL_GAS_LIMIT()": "396",
						"PRE_RELAYED_CALL_GAS_LIMIT()": "439",
						"decreaseUesdAmount(address,uint256)": "infinite",
						"getBalance()": "infinite",
						"getGasAndDataLimits()": "infinite",
						"getRelayHub()": "2567",
						"getTrustedForwarder()": "2611",
						"increaseLimit(address,uint256)": "infinite",
						"owner()": "2611",
						"postRelayedCall(bytes,bool,uint256,(uint256,uint256,uint256,address,address,address,bytes,uint256))": "infinite",
						"preRelayedCall(((address,address,uint256,uint256,uint256,bytes,uint256),(uint256,uint256,uint256,address,address,address,bytes,uint256)),bytes,bytes,uint256)": "infinite",
						"renounceOwnership()": "30509",
						"setRelayHub(address)": "infinite",
						"setTrustedForwarder(address)": "infinite",
						"supportsInterface(bytes4)": "841",
						"targetWhitelist(address)": "2912",
						"transferOwnership(address)": "30835",
						"userInfo(address)": "infinite",
						"versionPaymaster()": "infinite",
						"whitelistTarget(address,bool)": "27389",
						"withdraw(uint256,address)": "infinite",
						"withdrawRelayHubDepositTo(uint256,address)": "infinite"
					},
					"internal": {
						"_postRelayedCall(bytes calldata,bool,uint256,struct GsnTypes.RelayData calldata)": "infinite",
						"_preRelayedCall(struct GsnTypes.RelayRequest calldata,bytes calldata,bytes calldata,uint256)": "infinite"
					}
				},
				"methodIdentifiers": {
					"CALLDATA_SIZE_LIMIT()": "5c5e3db1",
					"FORWARDER_HUB_OVERHEAD()": "b90b41cf",
					"PAYMASTER_ACCEPTANCE_BUDGET()": "df463a66",
					"POST_RELAYED_CALL_GAS_LIMIT()": "bbdaa3c9",
					"PRE_RELAYED_CALL_GAS_LIMIT()": "f9c002f7",
					"decreaseUesdAmount(address,uint256)": "033137bd",
					"getBalance()": "12065fe0",
					"getGasAndDataLimits()": "b039a88f",
					"getRelayHub()": "7bdf2ec7",
					"getTrustedForwarder()": "ce1b815f",
					"increaseLimit(address,uint256)": "4118c9b6",
					"owner()": "8da5cb5b",
					"postRelayedCall(bytes,bool,uint256,(uint256,uint256,uint256,address,address,address,bytes,uint256))": "76fa01c3",
					"preRelayedCall(((address,address,uint256,uint256,uint256,bytes,uint256),(uint256,uint256,uint256,address,address,address,bytes,uint256)),bytes,bytes,uint256)": "00be5dd4",
					"renounceOwnership()": "715018a6",
					"setRelayHub(address)": "7bb05264",
					"setTrustedForwarder(address)": "da742228",
					"supportsInterface(bytes4)": "01ffc9a7",
					"targetWhitelist(address)": "858437b0",
					"transferOwnership(address)": "f2fde38b",
					"userInfo(address)": "1959a002",
					"versionPaymaster()": "921276ea",
					"whitelistTarget(address,bool)": "12256054",
					"withdraw(uint256,address)": "00f714ce",
					"withdrawRelayHubDepositTo(uint256,address)": "2d14c4b7"
				}
			},
			"storageLayout": {
				"storage": [
					{
						"astId": 1863,
						"contract": "testSinglePaymaster.sol:TestSinglePaymaster",
						"label": "_owner",
						"offset": 0,
						"slot": "0",
						"type": "t_address"
					},
					{
						"astId": 23,
						"contract": "testSinglePaymaster.sol:TestSinglePaymaster",
						"label": "relayHub",
						"offset": 0,
						"slot": "1",
						"type": "t_contract(IRelayHub)955"
					},
					{
						"astId": 25,
						"contract": "testSinglePaymaster.sol:TestSinglePaymaster",
						"label": "_trustedForwarder",
						"offset": 0,
						"slot": "2",
						"type": "t_address"
					},
					{
						"astId": 2311,
						"contract": "testSinglePaymaster.sol:TestSinglePaymaster",
						"label": "targetWhitelist",
						"offset": 0,
						"slot": "3",
						"type": "t_mapping(t_address,t_bool)"
					},
					{
						"astId": 2316,
						"contract": "testSinglePaymaster.sol:TestSinglePaymaster",
						"label": "initialLimit",
						"offset": 0,
						"slot": "4",
						"type": "t_uint256"
					},
					{
						"astId": 2326,
						"contract": "testSinglePaymaster.sol:TestSinglePaymaster",
						"label": "userInfo",
						"offset": 0,
						"slot": "5",
						"type": "t_mapping(t_address,t_struct(Info)2321_storage)"
					},
					{
						"astId": 2328,
						"contract": "testSinglePaymaster.sol:TestSinglePaymaster",
						"label": "from",
						"offset": 0,
						"slot": "6",
						"type": "t_address"
					}
				],
				"types": {
					"t_address": {
						"encoding": "inplace",
						"label": "address",
						"numberOfBytes": "20"
					},
					"t_bool": {
						"encoding": "inplace",
						"label": "bool",
						"numberOfBytes": "1"
					},
					"t_contract(IRelayHub)955": {
						"encoding": "inplace",
						"label": "contract IRelayHub",
						"numberOfBytes": "20"
					},
					"t_mapping(t_address,t_bool)": {
						"encoding": "mapping",
						"key": "t_address",
						"label": "mapping(address => bool)",
						"numberOfBytes": "32",
						"value": "t_bool"
					},
					"t_mapping(t_address,t_struct(Info)2321_storage)": {
						"encoding": "mapping",
						"key": "t_address",
						"label": "mapping(address => struct TestSinglePaymaster.Info)",
						"numberOfBytes": "32",
						"value": "t_struct(Info)2321_storage"
					},
					"t_struct(Info)2321_storage": {
						"encoding": "inplace",
						"label": "struct TestSinglePaymaster.Info",
						"members": [
							{
								"astId": 2318,
								"contract": "testSinglePaymaster.sol:TestSinglePaymaster",
								"label": "GasLimit",
								"offset": 0,
								"slot": "0",
								"type": "t_uint256"
							},
							{
								"astId": 2320,
								"contract": "testSinglePaymaster.sol:TestSinglePaymaster",
								"label": "usedAmount",
								"offset": 0,
								"slot": "1",
								"type": "t_uint256"
							}
						],
						"numberOfBytes": "64"
					},
					"t_uint256": {
						"encoding": "inplace",
						"label": "uint256",
						"numberOfBytes": "32"
					}
				}
			},
			"userdoc": {
				"kind": "user",
				"methods": {
					"getGasAndDataLimits()": {
						"notice": "Return the Gas Limits for Paymaster's functions and maximum msg.data length values for this Paymaster. This function allows different paymasters to have different properties without changes to the RelayHub."
					},
					"getTrustedForwarder()": {
						"notice": ":warning: **Warning** :warning: using incorrect Forwarder may cause the Paymaster to agreeing to pay for invalid transactions."
					},
					"postRelayedCall(bytes,bool,uint256,(uint256,uint256,uint256,address,address,address,bytes,uint256))": {
						"notice": "This method is called after the actual relayed function call. It may be used to record the transaction (e.g. charge the caller by some contract logic) for this call. Revert in this functions causes a revert of the client's relayed call (and preRelayedCall(), but the Paymaster is still committed to pay the relay for the entire transaction."
					},
					"preRelayedCall(((address,address,uint256,uint256,uint256,bytes,uint256),(uint256,uint256,uint256,address,address,address,bytes,uint256)),bytes,bytes,uint256)": {
						"notice": "Called by the Relay in view mode and later by the `RelayHub` on-chain to validate that the Paymaster agrees to pay for this call. The request is considered to be rejected by the Paymaster in one of the following conditions:  - `preRelayedCall()` method reverts  - the `Forwarder` reverts because of nonce or signature error  - the `Paymaster` returned `rejectOnRecipientRevert: true` and the recipient contract reverted    (and all that did not consume more than `acceptanceBudget` gas). In any of the above cases, all Paymaster calls and the recipient call are reverted. In any other case the Paymaster will pay for the gas cost of the transaction. Note that even if `postRelayedCall` is reverted the Paymaster will be charged."
					},
					"setRelayHub(address)": {
						"notice": "The owner of the Paymaster can change the instance of the RelayHub this Paymaster works with. :warning: **Warning** :warning: The deposit on the previous RelayHub must be withdrawn first."
					},
					"setTrustedForwarder(address)": {
						"notice": "The owner of the Paymaster can change the instance of the Forwarder this Paymaster works with.the Recipients must trust this Forwarder as well in order for the configuration to remain functional."
					},
					"withdrawRelayHubDepositTo(uint256,address)": {
						"notice": "Withdraw deposit from the RelayHub."
					}
				},
				"version": 1
			}
		}
	}
}